:1000000005C100000C94F6300C9421310C944C3155
:100010000C9477310C94A2310C94CD310C94F831BE
:100020000C94233224C1000022C1000020C1000032
:100030001EC100001CC100001AC1000018C1000050
:1000400016C1000014C1000012C1000010C1000060
:100050000EC100000CC100000AC100000C944E3219
:1000600006C100000C9422360C94583600C10000E2
:10007000FEC00000FCC00000FAC00000F8C0000094
:10008000F6C00000F4C00000F2C00000F0C00000A4
:100090000C94AE360C94E436EAC00000E8C00000D0
:1000A000E6C00000E4C00000E2C00000E0C00000C4
:1000B000DEC00000DCC00000DAC00000D8C00000D4
:1000C000D6C00000D4C000000C943C2C0C943A37ED
:1000D0000C947037CCC000000C94C6370C94FC37DD
:1000E000C6C0000000000A0B02090C0D0E08070331
:1000F00004010000000000000000000000000000FB
:1001000000000000000000000000000000000000EF
:1001100012111000000000000000000000000000AC
:100120000000000000000000000001021020200874
:100130000810204010204080020102010804020142
:1001400001020408102040808040201008040201B1
:10015000800402018040201008040201080402010A
:100160000102040810204080010204081020408091
:1001700005050505070508080808020202020A0A23
:100180000808040404040101010101010101030341
:10019000030303030303040707070C0C0C0C0C0CEC
:1001A0000C0C0202020206060606060606060B0BE9
:1001B0000B0B0B0B0B0B000020002300260029006B
:1001C0002C002F003200000100000301060109018C
:1001D00000002200250028002B002E0031003400F2
:1001E00002010000050108010B01000021002400AC
:1001F00027002A002D003000330001010000040117
:1002000007010A0181360D379937253811241FBEA1
:10021000CFEFD1E2DEBFCDBF00E00CBF13E0A0E026
:10022000B2E0E0EFF1E700E00BBF02C007900D92F3
:10023000A633B107D9F72AE0A6E3B3E001C01D92C7
:10024000AE30B207E1F711E0C6E0D1E000E006C051
:1002500021970109802FFE010E94C538C230D107C5
:1002600080E00807A9F70E942E2D0C94F638C8CE1E
:10027000FC01A781B0858C9191858923A481B581EA
:100280009C9140815181628173812681922359F032
:1002900081110BC04F5F5F4F6F4F7F4F4083518382
:1002A0006283738308958111F5CF4150510961092B
:1002B0007109F4CF87E393E0DBCF82E493E0D8CFFA
:1002C0008DE493E0D5CF88E593E0D2CFFC01A48103
:1002D000B5818C9196818923A781B0859C914081BD
:1002E0005181628173812185922359F0882359F0CD
:1002F0004F5F5F4F6F4F7F4F4083518362837383A4
:1003000008958823A9F34150510961097109F4CF77
:1003100087E393E0DBCF82E493E0D8CF8DE493E0F2
:10032000D5CF88E593E0D2CF0F931F93CF93DF9380
:10033000D82FC62F8A01A09136038BE0A89FD00149
:100340001124A95CBC4F1D921D921D921C92139703
:1003500081E01A968C931A978D2F90E0FC01E65D50
:10036000FE4FE4911696EC931697FC01E059FE4F70
:10037000E491F0E0EE0FFF1FEA54FE4F8591949157
:1003800015969C938E931497862F90E0FC01E65D62
:10039000FE4FE4911996EC931997FC01E059FE4F3A
:1003A000E491F0E0EE0FFF1FEA54FE4F8591949127
:1003B00018969C938E93179760E08D2F0E948F3430
:1003C00060E08C2F0E948F3480913603813009F4D5
:1003D0003FC0A8F0823009F462C0833009F486C0BF
:1003E0008091360391E0980F90933603F801808353
:1003F00090E080E0DF91CF911F910F91089580E010
:10040000D23049F081E0D33031F08EEE8D0F843060
:10041000D8F487E18D1B41E050E06AE571E00E946D
:100420007C3080E0C23049F081E0C33031F08EEEA4
:100430008C0F843058F487E18C1B41E050E068E871
:1004400071E00E947C30CCCF8FEFE5CF8FEFF5CFFE
:1004500080E0D23049F081E0D33031F08EEE8D0F64
:100460008430C8F487E18D1B41E050E06DE571E018
:100470000E947C3080E0C23049F081E0C33031F02E
:100480008EEE8C0F843048F487E18C1B41E050E005
:100490006BE871E0D6CF8FEFE7CF8FEFF7CF80E03B
:1004A000D23049F081E0D33031F08EEE8D0F8430C0
:1004B000C8F487E18D1B41E050E060E671E00E94E6
:1004C0007C3080E0C23049F081E0C33031F08EEE04
:1004D0008C0F843048F487E18C1B41E050E06EE8DB
:1004E00071E0AFCF8FEFE7CF8FEFF7CF80E0D23063
:1004F00049F081E0D33031F08EEE8D0F8430C8F4B6
:1005000087E18D1B41E050E063E671E00E947C30A2
:1005100080E0C23049F081E0C33031F08EEE8C0FC4
:10052000843048F487E18C1B41E050E061E971E0E0
:1005300088CF8FEFE7CF8FEFF7CF9BE0899FF00158
:100540001124E95CFC4F80819181A281B381FB0180
:1005500080839183A283B38390E080E008959BE041
:10056000899FF0011124E95CFC4F108211821282F4
:10057000138290E080E0089590E080E00895CF92AB
:10058000DF92EF92FF92CF93882351F16A017B01B2
:10059000CFEFC80F20E030E0A901CB01B6010E94E7
:1005A000242E18168CF0C701B60190580E94952E83
:1005B0009B01AC016C2F70E090E080E0CF91FF9048
:1005C000EF90DF90CF90B2C0C701B6010E94902E8D
:1005D0008C2FCF91FF90EF90DF90CF900C945533FC
:1005E000CF91FF90EF90DF90CF9008950F931F93DE
:1005F0008B019C0183E036952795179507958A9581
:10060000D1F70D591C4F462F477021E030E0F9011A
:1006100002C0EE0FFF1F4A95E2F7AF01F8012081FB
:100620002423CB010196211102C090E080E01F91AC
:100630000F9108950F931F938B019C0183E03695D2
:100640002795179507958A95D1F7677081E090E017
:1006500001C0880F6A95EAF7F801ED59FC4F208137
:10066000452B31F48095822380831F910F9108954B
:10067000822BFACF2F923F924F925F926F927F928E
:100680008F929F92AF92BF92CF92DF92EF92FF92A2
:100690000F931F93CF93DF93D62EC72E782E692EFC
:1006A00049015A01280161E08D2D0E948F34CD2D22
:1006B000DC2D8E010F5F1F4FA8016D2D7C2D872D26
:1006C000962DB8DF20E030E0A901C201B7010E94F9
:1006D0001430181664F4C201B7010E94952E2B0144
:1006E000C501B4010E94952EA201CE0123D0C801FC
:1006F000DF91CF911F910F91FF90EF90DF90CF90FE
:10070000BF90AF909F908F907F906F905F904F9031
:100710003F902F900895882341F08150682F70E01A
:1007200090E080E050E040E085CF0895862FB90149
:100730000C9455339C01FC01EC51FF4FE491E150C6
:10074000E231E0F4F0E08827E755FC4F8F4F0C943E
:10075000C538BB03C203C503DC03F103BE030604B3
:10076000120416042D04420457046E048304BE03CD
:100770009804AF04C40484B5806884BD60E0822F0F
:100780000C94CB3484B58062F8CF809180008C7F4C
:1007900082608093800080918100807E8061682BE0
:1007A0006093810050938700409386008091800081
:1007B000806880938000E2CF809180008C7F82608F
:1007C0008093800080918100807E8061682B60939F
:1007D0008100509387004093860080918000806262
:1007E000E8CF809180008C7F826080938000809130
:1007F0008100807E8061682B609381005093870028
:1008000040938600809180008860D3CF8091B000B3
:1008100080688093B0008091B100887F682B6093DE
:10082000B100ACCF8091B0008062F3CF8091900096
:100830008C7F82608093900080919100807E8061A7
:10084000682B60939100509397004093960080919D
:10085000900080688093900091CF809190008C7F71
:1008600082608093900080919100807E8061682BEF
:100870006093910050939700409396008091900070
:100880008062E8CF809190008C7F8260809390009E
:1008900080919100807E8061682B609391005093DD
:1008A000970040939600809190008860D3CF80910C
:1008B000A0008C7F82608093A0008091A100807E48
:1008C0008061682B6093A1005093A7004093A6001D
:1008D0008091A00080688093A00050CF8091A000FC
:1008E0008C7F82608093A0008091A100807E8061D7
:1008F000682B6093A1005093A7004093A6008091BD
:10090000A0008062E8CF8091A0008C7F82608093FD
:10091000A0008091A100807E8061682B6093A1007F
:100920005093A7004093A6008091A0008860D3CF89
:10093000809120018C7F8260809320018091210131
:10094000807E8061682B6093210150932701409342
:100950002601809120018068809320010FCF809133
:1009600020018C7F82608093200180912101807E14
:100970008061682B609321015093270140932601E9
:10098000809120018062E8CF809120018C7F82607D
:100990008093200180912101807E8061682B60938B
:1009A0002101509327014093260180912001886006
:1009B000D3CF611102C00C948F346130E1F362E057
:1009C000FACF662319F061E00C94CB3460E0FCCFE1
:1009D00090E080E008950F931F93009709F489C079
:1009E0006115710509F485C00091580210915902F2
:1009F00020915A0230915B020E3F1F4F2F4F3F4F05
:100A000009F068C04FEF5FEFBA014093580250936E
:100A1000590260935A0270935B02409158025091C0
:100A2000590260915A0270915B02DC011296ED91BD
:100A3000FC9180819181A281B38180937204909313
:100A40007304A0937404B093750484819581A68186
:100A5000B78180936E0490936F04A0937004B09359
:100A6000710480859185A285B38580936A049093F3
:100A70006B04A0936C04B0936D0484859585A68562
:100A8000B7858093660490936704A0936804B0933D
:100A9000690410926204109263041092640410922C
:100AA00065040E94201085E490E190936D0380938B
:100AB0006C0390936F0380936E030E940F0F009757
:100AC00031F421E030E030937704209376041F91D5
:100AD0000F910895009158021091590220915A02E5
:100AE00030915B02DB010D931D932D933C93139783
:100AF00094CF8FEF9FEFEBCF8F929F92AF92BF92E9
:100B0000CF92DF92EF92FF921F93CF93DF934B012F
:100B10005C011091790482E090E0909377048093D7
:100B2000760481149104A104B10441F48091790404
:100B3000811104C080917804C1E08111C0E0C12C12
:100B4000D12C760180917904811106C080917804BE
:100B5000811102C0CC23D9F083E090E09093770418
:100B600080937604CC2381F1CCE9DFEF111102C030
:100B70000E94AA13CE01DF91CF911F91FF90EF90B9
:100B8000DF90CF90BF90AF909F908F9008956AE0D4
:100B900070E080E090E00E94BD3280E1C80E87E204
:100BA000D81EE11CF11C8FEF88169806A806B8061F
:100BB00031F0C1E08C149D04AE04BF0408F0C0E025
:100BC00080E00E94430FBECFD0E0C0E0CFCFCF92F5
:100BD000DF92EF92FF920F931F93CF93DF938F3F9C
:100BE000910511F008F051C02091760430917704FE
:100BF0002330310539F0209176043091770421308B
:100C0000310531F424E030E030937704209376040A
:100C10006A017B01EC0182309105A8F011E0AE0180
:100C2000C701B6010E940E0FAB01BC01CE0111231A
:100C3000F9F0DF91CF911F910F91FF90EF90DF902E
:100C4000CF900C94D3158C01000F111F04591C4F29
:100C5000D8018D919C91892B09F30E94DD15029793
:100C6000E9F6D801ED91FC91CE011995182FD7CF57
:100C70000E94F51590E080E0DF91CF911F910F91D8
:100C8000FF90EF90DF90CF9008958FEF9FEFF4CF1C
:100C900080E00C94430FCF93DF9386E090E0909335
:100CA0007704809376040E949C0FEC01ECE6F3E05D
:100CB00084E0DF011D928A95E9F70E9442131092A9
:100CC000770410927604CE01DF91CF910895809140
:100CD0007804089580916104089560935802709398
:100CE000590280935A0290935B0290E080E008954D
:100CF0002F923F924F925F926F927F928F929F922C
:100D0000AF92BF92CF92DF92EF92FF920F931F9319
:100D1000CF93DF93CDB7DEB763970FB6F894DEBFFE
:100D20000FBECDBF2090C4093090C509E0913B04AF
:100D3000F0913C04C080D180E280F380D1015896CC
:100D40008D909D90AD90BC905B97A7019601C501D9
:100D5000B4010E94242E87FFA8C21092D0091092DD
:100D6000D1091092D2091092D309C0903802D090C4
:100D70003902E0903A02F0903B02A701960160919F
:100D80007709709178098091790990917A090E9488
:100D9000242E882341F0C0927709D0927809E092FE
:100DA0007909F0927A098091760981111092760979
:100DB000BE016F5F7F4F80917B09BFDBC0903C021B
:100DC000D0903D02E0903E02F0903F02A7019601D4
:100DD00060916B0970916C0980916D0990916E0919
:100DE0000E94242E882341F0C0926B09D0926C0996
:100DF000E0926D09F0926E0980916A09811110925A
:100E00006A09BE016B5F7F4F80916F0996DB60912D
:100E100040027091410280914202909143020E94EF
:100E2000C32E20E030E040E05AE20E9418306B010F
:100E30007C0169817A818B819C810E94C32EA701EC
:100E400096010E9418302B013C014092D409509227
:100E5000D5096092D6097092D7096D817E818F8104
:100E600098850E94C32EA70196010E9418304B015D
:100E70005C018092D8099092D909A092DA09B092C7
:100E8000DB09E0913B04F0913C04C080D180E2801A
:100E9000F3802090AC093090AD090091AE0910911B
:100EA000AF09A7019601B101C8010E94143087FD66
:100EB000FFC2A70196016091B8097091B9098091AC
:100EC000BA099091BB090E94143087FDF1C21092BB
:100ED000DC091092DD091092DE091092DF091092F0
:100EE000E0091092E1091092E2091092E309609181
:100EF000D0097091D1098091D2099091D309609362
:100F0000E4097093E5098093E6099093E7096093FB
:100F1000E8097093E9098093EA099093EB0900913D
:100F2000DC091091DD092091DE093091DF09009381
:100F3000EC091093ED092093EE093093EF0900912D
:100F4000E0091091E1092091E2093091E309009351
:100F5000F0091093F1092093F2093093F3090E94EC
:100F6000FE2E6B017C0151D6811106C3C701B6016B
:100F700007D6811101C320E030E040E857E4C70103
:100F8000B6010E94182F6B017C0120E030E0A9011E
:100F90000E94242E87FFF3C2C701B60190580E9419
:100FA000952E00271127061B170B6CE070E080E0E0
:100FB00090E01CDB7C0190939B0980939A096091DF
:100FC0004802709149026017710744F060914A022B
:100FD00070914B02601771070CF4B80177FF02C0E3
:100FE00070E060E06F3F710519F014F06FEF70E092
:100FF000072E000C880B990B0E94C32EAB01BC017D
:10100000C701BDDA69E070E080E090E0EFDA7C01D2
:10101000909393098093920960914C0270914D02D4
:101020006017710744F060914E0270914F02601793
:1010300071070CF4B80177FF03C0719561957109D0
:101040006F3F710519F014F06FEF70E0072E000C80
:10105000880B990B0E94C32EAB01BC01C7018FDA2C
:101060006BE070E080E090E0C1DA7C0190938B0946
:1010700080938A0960915002709151026017710744
:1010800044F06091520270915302601771070CF4A2
:10109000B80177FF03C07195619571096F3F7105C4
:1010A00019F014F06FEF70E0072E000C880B990B0D
:1010B0000E94C32EAB01BC01C70161DA6AE070E097
:1010C00080E090E093DA7C01909383098093820919
:1010D00060915402709155026017710744F060915D
:1010E000560270915702601771070CF4B80177FF30
:1010F00002C070E060E06F3F710519F014F06FEF0F
:1011000070E0072E000C880B990B0E94C32EAB01D8
:10111000BC01C70134DA61E080914402909145023C
:101120008017910709F460E088E04BDC61E0809172
:101130004602909147028017910709F460E08DE024
:1011400040DC8091AC099091AD09A091AE09B091BD
:10115000AF0989879A87AB87BC874090FC0950907C
:10116000FD096090FE097090FF09A3019201BC0186
:10117000CD010E94242EE0913B04F0913C048111AA
:1011800004C280819181A281B3818093AC09909344
:10119000AD09A093AE09B093AF09E0EBF9E08091FF
:1011A000D4099091D509A091D609B091D70980832F
:1011B0009183A283B3838091D8099091D909A0919A
:1011C000DA09B091DB0984839583A683B7834091C4
:1011D00028045091290460912A0470912B0490E016
:1011E00080E0F5DC4091300450913104609132048C
:1011F0007091330481E090E0EADC60912804709102
:10120000290480912A0490912B046F5F7F4F8F4FA8
:101210009F4F609328047093290480932A0490932D
:101220002B0400913B0410913C040E94C12E9B01B1
:10123000AC0160912C0470912D0480912E0490914A
:101240002F040E941830D8016D937D938D939C9349
:1012500013978091300490913104A0913204B091A1
:1012600033040196A11DB11D809330049093310485
:10127000A0933204B093330463960FB6F894DEBFA4
:101280000FBECDBFDF91CF911F910F91FF90EF90D7
:10129000DF90CF90BF90AF909F908F907F906F9096
:1012A0005F904F903F902F900895A7019601F10114
:1012B00060817181828193810E94143010E000E08E
:1012C00087FF38C0A7019601C501B4010E94242EF2
:1012D00005E010E0181674F50091CE091091CF09C1
:1012E0005801AA0CBB1CAA0CBB1C41018A0C9B1CFC
:1012F000A7019601D4016D917D918D919C910E94E1
:101300001430B4E0AB0EB11CA20CB31C18160CF0D8
:101310005CC0E4E08E1A9108A7019601D4011496EE
:101320006D917D918D919C9117970E9414301816A4
:101330000CF446C08091C6099091C7099A878987A5
:101340001093CF090093CE09000F111F000F111F3A
:10135000F101E00FF11F4080518062807380D8015D
:101360001496BE87AD87FD01E20DF31D808191814A
:10137000A281B3818F87988BA98BBA8B9C01AD0119
:10138000C301B2010E94242E811133C0A301920136
:10139000C701B6010E94242E87FF24C0A985BA8503
:1013A0000A0F1B1FF80180819181A281B381809374
:1013B000D0099093D109A093D209B093D309D5CC89
:1013C00001501109A6CF0F5F1F4FF5016191719177
:1013D000819191915F01A70196010E94242E181618
:1013E00094F7A8CFE985FA858D859E85E80FF91FCA
:1013F000DACFA985BA850A0F1B1FF801808091807A
:10140000A280B380FD018D859E85E80FF91F808144
:101410009181A281B38189879A87AB87BC879C0120
:10142000AD01C501B4010E94242E8823C1F1A7019A
:1014300096016F85788989899A890E94BF2D6B01F1
:101440007C01A30192016F85788989899A890E941C
:10145000BF2D9B01AC01C701B6010E94282E6B0174
:101460007C01AC019B0160E070E080E89FE30E949A
:10147000BF2D29853A854B855C850E9418302B014C
:101480003C01A5019401C701B6010E9418309B01DF
:10149000AC01C301B2010E94C02D4B015C018092DE
:1014A000D0099092D109A092D209B092D3095DCC13
:1014B0009091B8099987A091B909AD87B091BA09FF
:1014C000BF87E091BB09EB8B292F3A2F4B2F5E2F63
:1014D000B101C8010E94242EA701960187FF43C0D5
:1014E00069857D858F859B890E94242E87FD41C05B
:1014F00029863D860F871B8B00EB19E029853D85EA
:101500004F855B89C701B6010E94BF2D6B017C012D
:10151000D8012D913D914D915C91C301B2010E9482
:10152000BF2DA70196010E94282E6093DC097093BD
:10153000DD098093DE099093DF09F801248135816C
:1015400046815781C501B4010E94BF2DA7019601B4
:101550000E94282E6093E0097093E1098093E209CC
:101560009093E309C4CCB101C8010E94143087FDF7
:10157000BFCF0CEB19E0C2CFC12CD12C7601C70133
:10158000B6010E94952E8B0110CD8090B8099090E5
:10159000B909A090BA09B090BB09C080D180E2809F
:1015A000F380A5019401C301B2010E94242E811190
:1015B0000BC0C092B809D092B909E092BA09F09272
:1015C000BB09ECEBF9E0EBCDA501940169857A85C7
:1015D0008B859C850E94242E87FFEBCFC092AC099F
:1015E000D092AD09E092AE09F092AF09D6CD8F92BC
:1015F0009F92AF92BF92DF92EF92FF920F931F9351
:10160000CF93DF9384E090E084D2EEE8F3E088E3C8
:1016100094E097838683CBE3D4E0D093CF03C09349
:10162000CE030CE214E0158B048BF093F903E093E6
:10163000F803F583E48321E030E0DC012D933C9353
:1016400081E992E0938782872DE334E03983288310
:1016500040E050E060E271E440933404509335047C
:1016600060933604709337044DEC5CEC6CEC7DE3D6
:10167000D8014D935D936D937C931397C6E1D4E0AD
:101680008FEB94EBACEBBBE288839983AA83BB839B
:101690008DE096E4A1ECBCE980931A0490931B04BE
:1016A000A0931C04B0931D0489EC96E8A5EEB3EB5F
:1016B00080931E0490931F04A0932004B0932104F0
:1016C0008AED9BE6A9EDB0ED80932204909323046C
:1016D000A0932404B0932504A2E8B3E0B383A283CB
:1016E000E0E7F3E01196FC93EE9383EA92E09183B6
:1016F0008083938382839583848397838683918772
:101700008087938782879587848797878687918B41
:10171000808B86E294E015969C938E931497139693
:10172000DC93CE93129717963C932E931697C4E6AC
:10173000D9E08CE192E09093C5098093C40980E0E0
:1017400092E09093C7098093C6091092CF09109236
:10175000CE098091FC099091FD09A091FE09B091FC
:10176000FF098093AC099093AD09A093AE09B093A3
:10177000AF098093B8099093B909A093BA09B093BF
:10178000BB091F8A1C8608E312E0F8018081918161
:10179000A281B3818B8B9C8BAD8BBE8B812C912CCA
:1017A000540183948D869E86AF86B88A4BE759E0B4
:1017B00063E182E10E949401DD24D394D98A1A8ADC
:1017C0008F890E94AF021B861882F801848195815F
:1017D000A681B7818F839887A987BA8789829A82E1
:1017E000AB82BC824FE659E063E082E00E94940144
:1017F000DD821E828B850E94AF0218AA89AA9AAA4E
:10180000ABAABCAAE12CF12C8701A80197016CE0DE
:1018100070E080E090E00E943A039FAB8EABDDAABF
:1018200018A689A69AA6ABA6BCA6A801970169E04E
:1018300070E080E090E00E943A039FA78EA7DDA6AB
:1018400018A289A29AA2ABA2BCA2A80197016BE040
:1018500070E080E090E00E943A039FA38EA3DDA297
:10186000188E898E9A8EAB8EBC8EA80197016AE085
:1018700070E080E090E00E943A039F8F8E8FDD8EB3
:101880001092A4098092A5099092A609A092A70996
:10189000B092A80961E088E08CD8D092A90918AE6E
:1018A00089AE9AAEABAEBCAE61E08DE082D8DDAE63
:1018B000DF91CF911F910F91FF90EF90DF90BF903C
:1018C000AF909F908F90089580917009811114C0FE
:1018D00081E0809370098091710990917209A091C3
:1018E0007309B09174090197A105B10529F480919C
:1018F000750981110E94BC0280916409811114C094
:1019000081E0809364098091650990916609A091B6
:101910006709B09168090197A105B10529F4809183
:10192000690981110E94BC028091940981112EC025
:1019300081E0809394098091950990919609A091F6
:101940009709B09198090197A105B105F9F4809123
:1019500099098823D9F06CE070E080E090E00E9463
:10196000F60290939B0980939A0940E050E0BA01F7
:101970000E94BF026CE070E080E090E00E94F602FE
:1019800090939B0980939A090E948B0380918C0904
:1019900081112EC081E080938C0980918D099091F6
:1019A0008E09A0918F09B09190090197A105B10509
:1019B000F9F4809191098823D9F069E070E080E022
:1019C00090E00E94F602909393098093920940E080
:1019D00050E0BA010E94BF0269E070E080E090E050
:1019E0000E94F60290939309809392090E948B03C0
:1019F0008091840981112EC081E0809384098091B7
:101A0000850990918609A0918709B091880901976D
:101A1000A105B105F9F4809189098823D9F06BE01B
:101A200070E080E090E00E94F60290938B09809332
:101A30008A0940E050E0BA010E94BF026BE070E00A
:101A400080E090E00E94F60290938B0980938A09CF
:101A50000E948B0380917C0981112EC081E08093CC
:101A60007C0980917D0990917E09A0917F09B091B8
:101A700080090197A105B105F9F4809181098823B6
:101A8000D9F06AE070E080E090E00E94F602909366
:101A900083098093820940E050E0BA010E94BF02AE
:101AA0006AE070E080E090E00E94F6029093830983
:101AB000809382090E948B038091A409811103C045
:101AC00081E08093A40980919C09811103C081E089
:101AD00080939C09089560E070E080E89FE7089596
:101AE00060E070E080E89FE7089560E070E080E8E3
:101AF0009FEF089560E070E080E89FEF089560E058
:101B000070E080EC9FEF089560E070E080EC9FEF64
:101B10000895F5DF6093000A7093010A8093020A2A
:101B20009093030AF1DF6093F4097093F5098093B1
:101B3000F6099093F709CFDF6093FC097093FD09D4
:101B40008093FE099093FF09CBDF6093F8097093AF
:101B5000F9098093FA099093FB09C7DF6093040A9F
:101B60007093050A8093060A9093070AC3DF609377
:101B7000080A7093090A80930A0A90930B0A089541
:101B8000CF92DF92EF92FF92CF936B017C01AC0179
:101B90009B016091FC097091FD098091FE09909173
:101BA000FF090E94242EC1E0882371F0A70196014D
:101BB0006091040A7091050A8091060A9091070AC3
:101BC0000E94242E8111C0E08C2FCF91FF90EF90C6
:101BD000DF90CF9008950F931F938B019C010027F6
:101BE000112720783F770115110520483F4749F418
:101BF000AB01BC016F77772781E0452B462B472B44
:101C000009F480E01F910F910895E5CF4F925F9204
:101C10006F927F928F929F92AF92BF92CF92DF92FC
:101C2000EF92FF920F931F93F894409051045090BD
:101C300052046090530470905404C0904504D090B6
:101C40004604E0904704F09048044130510509F003
:101C5000A6C09B01AC012419350946095709290181
:101C60003A0100914D0410914E0420914F0430919F
:101C7000500448015901840C951CA61CB71C801601
:101C80009106A206B306A0F40091490410914A04FB
:101C900020914B0430914C040F5F1F4F2F4F3F4F4B
:101CA0000093490410934A0420934B0430934C044E
:101CB00080924D0490924E04A0924F04B092500432
:101CC0000091490410914A0420914B0430914C0436
:101CD0008092550490925604A0925704B0925804F2
:101CE0000093590410935A0420935B0430935C04CE
:101CF000609351047093520480935304909354045E
:101D0000A301920160EA76E881E090E00E948038C9
:101D10006C0D7D1D8E1D9F1D6093450470934604C0
:101D200080934704909348040091580210915902FF
:101D300020915A0230915B020F3F1F4F2F4F3F4FB0
:101D4000F1F0009158021091590220915A023091FD
:101D50005B020E3F1F4F2F4F3F4F89F0C09058023C
:101D6000D0905902E0905A02F0905B0221E08C146E
:101D70009D04AE04BF0408F420E02093610478942D
:101D80001F910F91FF90EF90DF90CF90BF90AF9099
:101D90009F908F907F906F905F904F9008954B0130
:101DA0005C0184189508A608B708A3019201261BB8
:101DB000370B480B590B6415750586059705E0F040
:101DC00082169306A406B50640F420E030E0A9018F
:101DD00081149104A104B104A1F460EA76E881E0E1
:101DE00090E00E948038A7019601261B370B480B14
:101DF000590BCA01B901C3CF82169306A406B506D2
:101E000060F7A501940160EA76E881E090E00E9425
:101E100080386C0D7D1D8E1D9F1DB1CFF7CECF93E9
:101E2000DF9300D01F92CDB7DEB71C821B821A82CF
:101E3000198210925D0410925E0410925F04109259
:101E40006004BE016F5F7F4FCE0103960E940C2C91
:101E500069817A818B819C810E94FA24009761F4C8
:101E6000BE016F5F7F4FCE0103960E94182C6981DF
:101E70007A818B819C812FD50F900F900F900F90BE
:101E8000DF91CF910895FF920F931F93CF93DF932C
:101E9000082F60E070E0CB010E94BD32FF24F39474
:101EA0000E94E323EC01892B89F010E0CE3F8FEFF5
:101EB000D80769F0002361F160E070E0CB010E9477
:101EC000BD3281E090E0892B59F322C011E026D584
:101ED000EC01892B21F0CE3F8FEFD80759F7111174
:101EE0001EC011E0229609F410E00E949323EC0139
:101EF000892B21F0CE3F8FEFD807E1F6111111C0E9
:101F000011E0CE3F8FEFD80709F410E001110BC0AC
:101F1000CE01DF91CF911F910F91FF90089511E0B5
:101F2000E4CF11E0F3CF60E070E0CB010E94BD325E
:101F30001F25812F90E0C7CFCF93DF93809161045D
:101F4000882321F060E070E0CB014DD636D6D0E09A
:101F5000C0E0892B71F06AE070E080E090E00E94C0
:101F6000BD3281E090DF29D62196C03D27E0D2071F
:101F700081F728D60E944E25109279041092780499
:101F800010927204109273041092740410927504EB
:101F900010926E0410926F041092700410927104EB
:101FA00010926A0410926B0410926C0410926D04EB
:101FB00010926604109267041092680410926904EB
:101FC00010926204109263041092640410926504EB
:101FD0004EEF5FEF6FEF7FEF40935802509359023F
:101FE00060935A0270935B0210926104E5E5F4E09D
:101FF00028E0DF011D922A95E9F710925104109212
:102000005204109253041092540410924D041092F2
:102010004E0410924F0410925004109249041092F2
:102020004A0410924B0410924C04109245041092F2
:1020300046041092470410924804DF91CF9108950E
:1020400010928504109286041092870410928804DE
:102050001092840480918D0490918E049093830457
:1020600080938204109281041092800410927C0468
:1020700010927D0410927E0410927F0410928A04C4
:102080001092890490E080E00895CF92DF92EF9261
:10209000FF920F931F93CF938C01019709F055C0C6
:1020A00020918D0430918E0480918204909183045C
:1020B00040918D0450918E04509383044093820488
:1020C0002817390781F01092810410928004109231
:1020D0007C0410927D0410927E0410927F04109272
:1020E0008A041092890480918D0490918E04019746
:1020F00061F58091890490918A04892B21F4809163
:102100005C02811112C08091890490918A04019728
:10211000E1F480917C0490917D04A0917E04B091C3
:102120007F040197A105B10581F410927C041092FF
:102130007D0410927E0410927F0410925C0282E073
:1021400090E090938A048093890480918D0490910B
:102150008E04019709F01CC18091A3049091A404FE
:102160008017910709F014C180919F049091A004F9
:10217000A091A104B091A204009709F409C1209193
:102180009E0421110DC040919F045091A0046091C4
:10219000A1047091A204452B462B472B09F4F8C0EB
:1021A0002091890430918A042230310509F0F0C071
:1021B000209180042111ECC0FC01C080D180E2801C
:1021C000F38080918404882309F4D3C08091900423
:1021D00090919104892B09F4FEC0209190043091D4
:1021E000910481E02230310509F080E020919004D3
:1021F00030919104C1E02130310549F020919004E3
:1022000030919104C1E02230310509F0C0E088230B
:1022100009F456C020919A0430919B0440919C048B
:1022200050919D04C701B6010E94143087FD14C06F
:1022300020919A0430919B0440919C0450919D04FC
:102240006091850470918604809187049091880440
:102250000E94242E87FD22C020919A0430919B0475
:1022600040919C0450919D04C701B6010E94143016
:10227000181634F520919A0430919B0440919C04E7
:1022800050919D046091850470918604809187042B
:10229000909188040E94242E811112C08091920492
:1022A00090919304A0919404B0919504892B8A2B6A
:1022B0008B2B19F481E08093810481E0809380046A
:1022C000CC2309F456C020919A0430919B0440918C
:1022D0009C0450919D04C701B6010E94242E87FFE3
:1022E00014C020919A0430919B0440919C04509119
:1022F0009D0460918504709186048091870490917B
:1023000088040E94143087FF22C020919A043091E3
:102310009B0440919C0450919D04C701B6010E940A
:10232000242E811126C020919A0430919B04409163
:102330009C0450919D046091850470918604809165
:102340008704909188040E941430181694F48091A8
:10235000920490919304A0919404B0919504892BD8
:102360008A2B8B2B19F481E08093810481E0809388
:10237000800481E090918004911180E08093840436
:10238000C0928504D0928604E0928704F09288047B
:102390000130110509F067C18091890490918A0488
:1023A000892BD9F410928F041092800480915C02E2
:1023B000882379F082E090E090938A0480938904E6
:1023C00010925C0220918D0430918E0481E0232BC9
:1023D000E9F080E01BC081E009CF10925C0280919F
:1023E0008F04882349F01092810410928A0410927D
:1023F000890410928F04EDCF80918D0490918E040A
:10240000892BE1F08091800410928004209189044E
:1024100030918A042230310509F45EC088F4211518
:10242000310509F448C02130310509F4F3C0109298
:1024300081041092800410928F0438C081E0E6CFAE
:102440002330310509F4B1C02430310581F74091C2
:102450007C0450917D0460917E0470917F0441154D
:1024600051056105710561F041505109610971091A
:1024700040937C0450937D0460937E0470937F04AA
:1024800040917C0450917D0460917E0470917F04A2
:10249000452B462B472BD9F420918B0430918C048B
:1024A0002130310509F046C01092810410928A044F
:1024B000109289040CC080915C02882341F082E074
:1024C00090E090938A048093890410925C021092A9
:1024D0007A0480918104CEC08823C9F3809192044C
:1024E00090919304A0919404B09195041816190644
:1024F0001A061B060CF07DC080918D0490918E040D
:10250000019709F076C08091920490919304A09174
:102510009404B091950480937C0490937D04A093DF
:102520007E04B0937F0483E090E090938A048093CC
:102530008904CDCF409196045091970460919804FE
:1025400070919904452B462B472BA9F010928104DA
:102550008091960490919704A0919804B091990469
:1025600080937C0490937D04A0937E04B0937F04B9
:1025700081E090E0DACF882399F080915D0290911C
:102580005E02A0915F02B091600280937C04909300
:102590007D04A0937E04B0937F0484E090E0C5CFD7
:1025A0001092810482E090E0C0CF80917C049091F1
:1025B0007D04A0917E04B0917F040097A105B10530
:1025C00059F00197A109B10980937C0490937D048F
:1025D000A0937E04B0937F0480917C0490917D044D
:1025E000A0917E04B0917F04892B8A2B8B2B09F05C
:1025F0006ECF80915D0290915E02A0915F02B091DA
:102600006002892B8A2B8B2B09F44ECF81E08093BB
:102610008104B3CF40917C0450917D0460917E048D
:1026200070917F04411551056105710561F04150BC
:1026300051096109710940937C0450937D046093B2
:102640007E0470937F0440917C0450917D046091DE
:102650007E0470917F04452B462B472B09F037CF22
:102660008111C7CF9FCF80917A04882309F431CF9D
:1026700080917B04CF911F910F91FF90EF90DF909D
:10268000CF900895109285041092860410928704CA
:10269000109288041092840410928A041092890483
:1026A00010928304109282041092A4041092A30446
:1026B000109281041092800410927C0410927D0488
:1026C00010927E0410927F0410927B0410927A0480
:1026D00010929F041092A0041092A1041092A204E0
:1026E00010929E0410929A0410929B0410929C04E3
:1026F00010929D0488EE93E0A0E0B0E080935D022C
:1027000090935E02A0935F02B093600210929604D1
:1027100010929704109298041092990410929204C7
:1027200010929304109294041092950410929104C4
:102730001092900481E080935C0210928F041092BA
:102740008E0410928D0410928C0410928B0490E0F1
:1027500080E0089580918D0490918E04892B19F565
:1027600080915C02882351F080918F04811106C012
:1027700081E080937B0480937A04089520918F04F4
:1027800030915C0281E090E0332311F090E080E032
:1027900030E082239323892B21F010927B0481E087
:1027A000EACF10927A04089582E090E0FA019183D2
:1027B00080838FEF9FEF0895CF93DF93EA01009717
:1027C00011F00E946E261982188290E080E0DF915D
:1027D000CF910895DB01009719F48FEF8C93089542
:1027E0002EEF2C93FC013F96EF30F10508F034C03A
:1027F0008827E250FC4E8F4F0C94C5382A142814B9
:102800002614241422141E1420141C141A14181430
:10281000151411140D1413142C1480E311968C93B9
:10282000089589E2FBCF82E2F9CF11961C920895B8
:1028300083E2F4CF81E2F2CF81E1F0CF87E2EECF05
:102840008AE2ECCF80E1EACF84E2E8CF88E2E6CF0B
:1028500086E2E4CF81E3E2CF80E2E0CF8091B10471
:102860009091B20408959093B2048093B1040895B6
:102870008091B00408959091B004892B8093B004A6
:102880000895982F90958091B00489238093B00487
:1028900008958091AF0408958091AD049091AE04A5
:1028A00008956115710559F0FB0130E020E070E0FA
:1028B00060E02417350719F06115710511F0CB019F
:1028C0000895A081B181A817B90709F4BF012F5F4E
:1028D0003F4F3696EECF8091B30481111CC060D279
:1028E00066D29093A6048093A5040E946C1E0E9459
:1028F0007E1E9093AA048093A9040E94FB220E944A
:1029000002239093A8048093A70481E08093B304EA
:1029100090E080E0089584EF9FEF08958F929F925A
:10292000AF92BF92CF92DF92EF92FF920F931F93DD
:10293000CF93DF9300D000D000D01F92CDB7DEB789
:102940001A86198618861F821E821D821C821B828F
:102950001A8219828091B30407EF1FEF882309F4CC
:102960009CC08E010D5F1F4F9E012B5F3F4FAE013C
:10297000495F5F4FBE01675F7F4F90E080E00E943C
:102980007F248C01009721F00596029708F0DBC0A8
:1029900029853A852115310509F402C1ED80FE80B3
:1029A0004B815C81B701640F751F8F8198858617F5
:1029B000970708F4F5C0E20EF31ED7019C91903CF6
:1029C00009F07FC04230510508F47BC011968C910C
:1029D0004091B1045091B204452B09F49CC0913F41
:1029E00008F071C02CE1290F2D3008F48BC02DE2C6
:1029F000290F203108F489C0903C21F481508230A5
:102A000008F483C088E3890F8B3008F481C09AEE04
:102A1000C92E93E1D92EE4EDF3E16D817E81AE0103
:102A20004F5F5F4F89859A8519955C01C114D10468
:102A3000A1F189809A808114910479F18B819C8124
:102A40008815990508F487C010E000E04B815C818F
:102A500070E060E0C7010E94EF3801151105E9F44C
:102A600049815A8169857A858D819E81680F791F98
:102A7000C501F6011995E980FA800D811E812F812B
:102A8000388549855A856FEF7FEF81E090E00E949D
:102A90001A248C01892B09F056C0C8012A960FB65A
:102AA000F894DEBF0FBECDBFDF91CF911F910F9184
:102AB000FF90EF90DF90CF90BF90AF909F908F905E
:102AC000089580E085CF30E020E0220F331FF90128
:102AD000EB55FB4F0190F081E02D309709F497CF33
:102AE000892F90E01995009709F491CFDC01129697
:102AF000ED91FC9113971496CD90DC90309709F0EE
:102B00008CCF1FC021E030E0E0CF22E030E0DDCF0D
:102B100023E030E0DACFD12CC12CECEDF3E19F3F84
:102B200009F07BCFE091A504F091A604309721F441
:102B3000C90104EF1FEF0CC08FEF90E019950097CB
:102B4000A9F604EF1FEF89859A85009709F4A5CFB0
:102B50000E946E26A2CF0E9449258C0189859A8504
:102B60000E946E2670E060E0C4010E94E224988713
:102B70008F830E9417249E838D836F8178856115D2
:102B8000710559F0C8010E94FA279A87898706EFD4
:102B90001FEF892B09F058CF59CF08EF1FEF56CF01
:102BA00008EF1FEFD0CF2091B304222319F020E0CB
:102BB0000C94831E87EF9FEF08958091B10490914C
:102BC000B20408950E9407230E946122F5D0E5EA2D
:102BD000F4E088E0DF011D928A95E9F71092B304D2
:102BE00090E080E008950C94BF2021E040E050E0A8
:102BF000BA010C94831E86E090E0FA0191838083F1
:102C000090E080E0089547E050E066EA72E049CE47
:102C1000DF92EF92FF920F931F93CF93DF938A017E
:102C2000EC01C60FD71FE090B704F090B804D9802C
:102C30000E943125D816190678F082E090E0F8015C
:102C4000918380838EEF9FEFDF91CF911F910F9142
:102C5000FF90EF90DF900895EF2841F482E090E03C
:102C6000F8019183808384EF9FEFEECF8981809379
:102C7000B60490E00196F8019183808390E080E0B3
:102C8000E3CFCF93DF93EA010E947021882321F0E4
:102C90000E943E250E94712182E090E09983888302
:102CA0008BEF9FEFDF91CF910895CF93DF93EB01EF
:102CB00086E0FB0111928A95E9F78FEF8883D8DDD2
:102CC0008983E7DD8A83E8DD9D838C83DF91CF9163
:102CD0000895CF93DF93EA010E947321811109C007
:102CE00082E090E09983888385EF9FEFDF91CF9119
:102CF000089590E080E0B7DD81E090E099838883DB
:102D000090E080E0F3CF0F931F93CF93DF93EA011E
:102D10008C01060F171F0E94732181110BC082E0E6
:102D200090E09983888385EF9FEFDF91CF911F918A
:102D30000F910895F8018181823038F082E090E0AF
:102D4000998388838EEF9FEFF0CF81E090E08BDD59
:102D500088E090E09983888390E080E0E6CFCF938D
:102D6000DF930097D1F4EB01FB01329686E0DF019F
:102D70001D928A95E9F78FEF888385E089831A820F
:102D80000E9431258B830E9430259D838C8381E0B6
:102D90008E838F83DF91CF910895DF91CF911ACDEC
:102DA00083E096E19093B5048093B40408958091F4
:102DB000B4049091B50408951092B5041092B4042F
:102DC00008958091B7049091B8040895411105C009
:102DD000611571058105910561F06093B7047093E9
:102DE000B8048093B9049093BA044093BB0481E083
:102DF000089580E00895FF920F931F93CF93DF9380
:102E00008A01EC01C60FD71FF9800E943125F81600
:102E1000190668F082E090E0F801918380838EEFDC
:102E20009FEFDF91CF911F910F91FF9008956C81DB
:102E30007D818E819F814B81C9DF811108C082E035
:102E400090E0F8019183808384EF9FEFEACF89813E
:102E50008093B60490E00196F8019183808390E01E
:102E600080E0DFCFCF93DF93EA01FC01E60FF71F8D
:102E700064817581868197814381A8DF811109C0B2
:102E800082E090E09983888384EF9FEFDF91CF9178
:102E9000089581E090E09983888390E080E0F6CF08
:102EA000E7EBF4E04081518162817381480F511D4D
:102EB000611D711D40835183628373830895CF9395
:102EC000C091B6044C2F50E06091B7047091B804E3
:102ED00001960E94E6388C2FE3DF1092B604CF9162
:102EE0000895009799F48091B7049091B8042FEF5A
:102EF000FB012083892B59F02091B60430E02F5F2D
:102F00003F4F2417350719F4CB01D9CF63CC08956F
:102F1000009799F48091B7049091B8042FEFFB01CA
:102F20002083892B59F02091B60430E02F5F3F4F6A
:102F30002417350719F4CB01C2CF4CCC089523E1F7
:102F4000AC01249FC001259F900D1124E091C00485
:102F5000F091C104E80FF91F238134812250310917
:102F600081E02230310508F080E008950F931F932F
:102F7000CF93DF930091C2041091C304D0E0C0E06E
:102F800080E00C171D0749F491E0811190E0892F32
:102F9000DF91CF911F910F9108958111F5CFCE014F
:102FA000CEDF2196EECFA091C004B091C10410975E
:102FB00029F12091C2043091C30482179307F0F4E1
:102FC00053E1589F9001599F300D1124A20FB31F58
:102FD000ED91FC911197309789F012968C916817BA
:102FE00068F48DE0689FE00DF11D112480819181CE
:102FF000892B21F081E09281491708F080E0089543
:103000009C0143E1429FC001439F900D1124E09138
:10301000C004F091C104E80FF91F8385823091F458
:1030200081E090E065817681409161025091620279
:103030006417750711F490E080E0892B19F081E0A6
:10304000232B09F080E00895FC01A081B1818DE07F
:10305000689FA00DB11D112413964D915C9185853B
:103060009685489F9001499F300D589F300D11243F
:10307000C9010196611103C0478144FD049608957A
:10308000EF92FF920F931F93CF93DF93EA01FC011E
:10309000E60FF71F02811381E480F5804F2D6E2D1E
:1030A000C80181DF81110DC082E090E0998388839F
:1030B0008EEF9FEFDF91CF911F910F91FF90EF90D7
:1030C0000895C8013CDF882339F082E090E09983BD
:1030D000888388EF9FEFEECF10936802009367021A
:1030E000E0926902F0926A0281E090E0998388831D
:1030F00090E080E0DFCFCF92DF92EF92FF920F93CC
:103100001F93CF93DF937A01EC01C60FD71FC090B6
:103110006702D09068020091690210916A02412F03
:10312000602FC60140DF811110C082E090E0F701FE
:10313000918380838AEF9FEFDF91CF911F910F9151
:10314000FF90EF90DF90CF900895C601F8DE8823BE
:1031500041F082E090E0F7019183808388EF9FEF58
:10316000EBCF4C815D816E817F819A8189818F3F18
:1031700041F082E090E0F701918380838EEF9FEF32
:10318000DBCFE3E1EC9D9001ED9D300D1124E0914A
:10319000C004F091C104E20FF31F0190F081E02D13
:1031A0002DE0029FE00DF11D11240190F081E02D32
:1031B00027E0129FE00DF11D1124808391838B8104
:1031C000828343835483658376831F5F10936A02EF
:1031D00081E090E0F7019183808390E080E0ACCFC4
:1031E000EF92FF920F931F93CF93DF937A018C019D
:1031F000060F171FC091C004D091C104209781F021
:1032000021E030E0F801828193814091C204509125
:10321000C3048417950710F030E020E0232B71F4ED
:1032200082E090E0F701918380838EEF9FEFDF9142
:10323000CF911F910F91FF90EF90089543E1489F28
:103240009001499F300D1124C20FD31F78DE8823CF
:1032500041F082E090E0F7019183808388EF9FEF57
:10326000E6CFF8012481358120383105C8F6878101
:103270008111D6CF4181842F90E08F7E009741F05D
:1032800082E090E0F7019183808386EF9FEFCFCFBC
:103290004F833E832D83268128871986223010F4A0
:1032A00021E0288721E030E0F70131832083BFCF80
:1032B00088E090E0FA019183808390E080E00895B7
:1032C000FB018FEF808381E181838FEF9FEF9383F9
:1032D000828380E890E09583848316821782089524
:1032E000FB018FEF808391E09183828393838483BA
:1032F00084E3858381E090E0978386830895DF925D
:10330000EF92FF920F931F93CF93DF93EA01FC019B
:10331000E60FF71F8181813071F082E090E09983A0
:1033200088838FEF9FEFDF91CF911F910F91FF90D7
:10333000EF90DF90089582819381D4802581E6808B
:10334000F7800091C0041091C1040115110539F4F2
:1033500082E090E0998388838CEF9FEFE4CF4091E7
:10336000C2045091C3048417950738F082E090E0BE
:10337000998388838EEF9FEFD6CF892B39F082E037
:1033800090E09983888386EF9FEFCDCF8D2D8D7F41
:10339000B1F72130A1F781E0D11006C091E0E91624
:1033A000F10431F080E004C0E2E0EE16F104D0F365
:1033B000882329F390E080E0C2DD882339F082E0A1
:1033C00090E09983888388EF9FEFADCFF801D38693
:1033D00081E08487F686E586108A178681E090E092
:1033E0009983888390E080E09ECF4CE050E060EDD0
:1033F00072E057CA8F929F92BF92CF92DF92EF9264
:10340000FF920F931F93CF93DF93EA01FC01E60F26
:10341000F71F828193810481B580E091C004F0910F
:10342000C104309791F482E090E0998388838CEF17
:103430009FEFDF91CF911F910F91FF90EF90DF9061
:10344000CF90BF909F908F9008952091C2043091AB
:10345000C3048217930738F082E090E09983888351
:103460008EEF9FEFE6CF23E1289F6001299FD00CCC
:103470001124EC0DFD1DE080F180E114F10499F2BE
:103480008281081748F78DE0089F80011124E00E23
:10349000F11EF70180819181892B29F6BB20E1F291
:1034A000F7E0BF9E40011124C4010E943526F701B8
:1034B00091838083E091C004F091C104EC0DFD1D67
:1034C0000190F081E02DE00FF11F80819181009744
:1034D00039F482E090E0998388838DEF9FEFA9CF44
:1034E000A40170E060E00E94EF388091C0049091E8
:1034F000C104C80ED91EF60180819181080F191FE1
:10350000F801B28281E090E09983888390E080E0C6
:1035100090CFAF92BF92CF92DF92FF920F931F9303
:10352000CF93DF93EA01FC01E60FF71F82819381BD
:10353000F4800091C0041091C1040115110581F4BB
:1035400082E090E0998388838CEF9FEFDF91CF91A9
:103550001F910F91FF90DF90CF90BF90AF90089593
:103560002091C2043091C3048217930738F082E09F
:1035700090E0998388838EEF9FEFE8CF2FEF2F0D98
:103580002C3FA8F723E1289F6001299FD00C11242C
:103590000C0D1D1DF80180819181892B89F6FDE0BC
:1035A000FF9E50011124C5010E943526F801918328
:1035B0008083E091C004F091C104EC0DFD1D808179
:1035C0009181009739F482E090E0998388838DEFB0
:1035D0009FEFBCCFA50170E060E00E94EF38E09162
:1035E000C004F091C104EC0DFD1DF28281E090E079
:1035F0009983888390E080E0A9CFCF92DF92EF9209
:10360000FF920F931F93CF93DF93860F971FFC01B9
:10361000028113818091C0049091C104892B81F0B3
:1036200082E090E0FA01918380838CEF9FEFDF913D
:10363000CF911F910F91FF90EF90DF90CF90089561
:10364000C801B0E0A0E00197A109B1098F3F9F4FE9
:10365000A105B10540F082E090E0FA0191838083FA
:103660008EEF9FEFE4CF7A0183E1809F6001819F1D
:10367000D00C1124C6010E943526EC01009741F4BC
:1036800082E090E0F701918380838DEF9FEFCFCFB1
:10369000A60170E060E00E94EF38D093C104C093AF
:1036A000C0041093C3040093C20490E080E02FEFA5
:1036B0003FEF41E061E070E08017910741F481E065
:1036C00090E0F7019183808390E080E0B0CF3A8B67
:1036D000298B1B864C877E876D87188A1F860196EB
:1036E0006396EACFEF92FF921F93CF93DF93EC01A3
:1036F00010E0F12CE12C6A811617B0F083E0689F8E
:10370000B0011124AE014F5E5F4FC7010E949A269F
:10371000009721F02FEF3FEF3A8B298BDF91CF916C
:103720001F91FF90EF900895612FCE018DDC61E035
:1037300070E00E94E224E816F90608F47C011F5F9D
:10374000DACFF8942091BE043091BF0481E02115B6
:10375000310509F080E0232B09F0789408952F9229
:103760003F924F925F926F927F928F929F92AF9211
:10377000BF92CF92DF92EF92FF920F931F93CF935E
:10378000DF933C01660E771EF301828193814C0129
:10379000B12CA12CC091C004D091C104209769F034
:1037A00021E030E06091C2047091C304861797074E
:1037B00010F030E020E0232BD1F482E090E0FA0119
:1037C000918380838EEF9FEFDF91CF911F910F91B7
:1037D000FF90EF90DF90CF90BF90AF909F908F9031
:1037E0007F906F905F904F903F902F9008958092C0
:1037F0006B0290926C02A0926D02B0926E0263E135
:10380000689F9001699F300D1124C20FD31FF301EF
:103810008181833040F082E090E0FA0191838083DF
:1038200086EF9FEFD1CF2A012B813C81232BF1F42E
:10383000288139819F8191FF2EC0232B09F46FC00D
:103840002091C5049A81422F490F5527551FBA016F
:1038500041E050E06138710514F050E040E0452B44
:1038600009F45DC02A87920F9093C504815082307D
:1038700008F481C066DF882309F4D8C0F301818190
:10388000813009F48DC008F47BC0823009F4C6C0D1
:1038900090E080E0ADC0232B09F441C02091C40426
:1038A0009A81E22FE90FFF27FF1F41E050E0ED3F33
:1038B000F10514F050E040E0452B89F12A87920F82
:1038C0009093C404D3CFA081B181A20FB31F1196EE
:1038D0006C91060F111D0196295F3F4F84179507C4
:1038E00094F38D859E85089F1001099F300C189FC9
:1038F000300C1124C114D104D1F48F8184FF17C07E
:103900000E943025F5E02F0E311C21E08215930531
:1039100008F420E0A701435F5F4F21110EC082E051
:1039200090E0F2019183808387EF9FEF4DCF0E945B
:1039300030252FEF221A320AE8CF88819981E80ECC
:10394000F91EF70114830383FFEFCF1ADF0A7A0110
:103950008A818C151D0409F00CF48CCFE881F98163
:10396000EE0DFF1D428150E030E020E010E000E06D
:1039700090E080E0B3CFF12CE12CD12CC12CE8CF2A
:1039800081E090E09C838B83F1DA882309F480CF77
:1039900081E090E00E94331480E40E94411478CFCB
:1039A00089899A89019661F083E090E09C838B83FA
:1039B00082E090E00E94331480E40E943B1468CFC0
:1039C0008D819E812091610230916202821793075E
:1039D000D1F46091650270916602AE014F5E5F4F57
:1039E00080916302909164020E94B9270097E1F2EE
:1039F000789422E030E0F20131832083892B99F022
:103A00008DEF9FEFE1CE89288A288B2869F60297EF
:103A100058F6CE0167DE188A1F86E8CF82E090E074
:103A20009C838B8335CF90E080E0CECE82E090E027
:103A3000F2019183808385EF9FEFC6CE8F929F9294
:103A4000AF92BF92CF92DF92EF92FF920F931F93AC
:103A5000CF93DF93EA018C01060F171FF8018181D4
:103A6000833098F082E090E09983888386EF9FEF1F
:103A7000DF91CF911F910F91FF90EF90DF90CF904A
:103A8000BF90AF909F908F9008958091C0049091C7
:103A9000C104892B61F081E090E02091C204309153
:103AA000C304232B11F490E080E0892B39F482E0E9
:103AB00090E0998388838EEF9FEFDACF42DE8823F0
:103AC00009F4E0C0F8018181813009F496C0E8F082
:103AD000823099F42091C2043091C304E091C00473
:103AE000F091C10490E080E041E050E028173907F0
:103AF00009F0BEC03BDA811117C0789481E090E0F4
:103B00009983888390E080E0B3CF2091C204309104
:103B1000C304E091C004F091C10490E080E041E072
:103B200050E02817390741F481E090E00E943314F7
:103B300080E40E944114E1CF63817481672B11F00E
:103B40005483438301967396ECCFE091C004F091C7
:103B5000C104E00FF11F2381348122303105D9F4F3
:103B6000218932892F3F3F4FB1F425813681409121
:103B70006102509162022417350761F5AF014F5E73
:103B80005F4F60916502709166028091630290912F
:103B900064020E94B927EFEFCE1ADE0AEE0AFE0A8F
:103BA0000D5E1F4F4091C2045091C30470E060E06D
:103BB000C416D506E606F70644F5009731F2789468
:103BC000892B09F49BCF82E090E0998388838DEF65
:103BD0009FEF4ECFC114D104E104F104E1F622308D
:103BE0003105C8F6CF017EDDE091C004F091C1043B
:103BF000E00FF11F108A1786CECF10E000E090E0B2
:103C000080E0C12CD12C7601CDCF0097C1F610E019
:103C100000E0812C912C540183E0E82EF12C1AC095
:103C2000E091C004F091C104E00FF11F8381948101
:103C3000029749F4F482E38282E090E00E94331418
:103C400080E40E943B14FFEF8F1A9F0AAF0ABF0A5D
:103C50000D5E1F4F8091C2049091C304B0E0A0E0BC
:103C600088169906AA06BB06DCF290E080E0A7CF92
:103C7000638174816230710511F45483438301962A
:103C8000739634CF82E090E09983888385EF9FEF2D
:103C9000EFCE0097B9F48FEFFB01808320916B0288
:103CA00030916C0243E1429FC001439F900D11246B
:103CB000E091C004F091C104E80FF91F8285FB0177
:103CC000818308950C94EA1388E090E0FA019183CF
:103CD000808390E080E008951092BF041092BE04AB
:103CE000E0ECF4E086E0DF011D928A95E9F785EFCC
:103CF00099E19093BD048093BC0408958091BC0425
:103D00009091BD0408952F923F924F925F926F92CF
:103D10007F928F929F92AF92BF92CF92DF92EF925B
:103D2000FF920F931F93CF93DF93CDB7DEB72F97FB
:103D30000FB6F894DEBF0FBECDBFF894E091BE047D
:103D4000F091BF043196F093BF04E093BE047894E1
:103D50004090C0045090C1044114510409F40CC2B5
:103D6000E091C204F091C304EF2B09F405C22D8742
:103D700049875A876B877C8798878F831201B12C7C
:103D8000A12C10E000E08091C2049091C304A81619
:103D9000B90618F40115110529F1F8948091BE04B3
:103DA0009091BF0401979093BF048093BE047894D0
:103DB000C8012F960FB6F894DEBF0FBECDBFDF91BE
:103DC000CF911F910F91FF90EF90DF90CF90BF9018
:103DD000AF909F908F907F906F905F904F903F90AB
:103DE0002F9008957101E418F508D10117968C9170
:103DF000179781FD54C013968D919C91149703974A
:103E000009F04DC015968D919C91EF81F8858E1724
:103E10009F0709F044C0B50190E080E07FD48A8319
:103E20002091C0043091C1043D832C833D85332310
:103E300009F44CC04C815D81452B09F49AC18091F5
:103E4000C2049091C304A816B90608F092C1C50136
:103E5000D7D88823E9F06C817D816E0D7F1D7D832D
:103E60006C83DB011F968D919C91892B89F0D12C5D
:103E7000C12CF12CE12CAC81BD8112968C91129752
:103E80008E151F0409F094F450961C921E921F97F1
:103E90002A81222321F0B50190E080E041D43FEF58
:103EA000A31AB30A43E1240E311C6DCFAC81BD814E
:103EB000ED91FC91EC0DFD1D858196810FD7BFEF33
:103EC000EB1AFB0AEDE0CE0ED11CD5CFEC81FD81C3
:103ED000309709F44EC18091C2049091C304A81692
:103EE000B90608F046C1EE0DFF1DFF87EE87C5013C
:103EF00087D88B83882339F1AE85BF851F968D9136
:103F00009C915097019621E01D964D915C918417EC
:103F1000950709F020E02E831982712C10E000E053
:103F2000AE85BF8512968C91781608F45DC0EE853B
:103F3000FF85878590890196658576850E948F38F3
:103F4000908B8787A5CFB1E0BE83E6CF9924939469
:103F50006BC08BD6F6019683858382C0D601ED9027
:103F6000FC90B7E06B9EE00CF11C1124F70163811B
:103F7000748180818F3F61F121E030E002C0220F27
:103F8000331F8A95E2F7C901092E000CAA0BBB0B5F
:103F9000FB01408151816281738184239523A62393
:103FA000B72321E0892B8A2B8B2B09F420E0D40145
:103FB0002C93D70111968C91F60123853485820FBD
:103FC000932F911D880E991E1486138663949BC0AF
:103FD000418150E0C4010E94E638EBCF998206EFA0
:103FE0001FEFC5C01982C3C0F981F111A0CFEDE068
:103FF0007E9E70011124AE85BF85CD90DC90CE0CE5
:10400000DF1C15D49D838C83BB81BB2309F49ECF19
:1040100081E0EE85FF8527853089232B09F080E03C
:10402000982E882309F458C0672D8E859F850CD85B
:10403000D60118969C938E93179761E070E0C2D4D6
:10404000EE85FF85218932892F3F320709F481CF20
:10405000BC01C901CFD7D60116969C938E931597B4
:10406000D60115968D919C911697009709F4B6CFBD
:10407000EC81FD818E0F9F1F1A969C938E9319974A
:10408000AE85BF85ED91FC911197EE0EFF1EF701F5
:1040900021853285148613861A968C91870DD90155
:1040A0008D93711016C0EE85FF85878184FF11C046
:1040B00049855A856B857C85F901418352836383E9
:1040C0007483F701838594850496A80FB91F14861D
:1040D0001386F701B287A187D60115968D919C9121
:1040E0001697892B09F443C0EE85FF85258136811B
:1040F00080916102909162022817390779F0199630
:104100008D909C90612CD60112968C911297681616
:1041100008F424CF1A969C928E921997BE81BB23E5
:1041200009F460CF61E070E0F601878190854AD4A0
:10413000D6011796ED90FC90189715964D915C91CD
:10414000E1E0F0E0BA81BB2311F0F0E0E0E00C81A7
:104150001D819C01B501882799278E1B9F0B6AD36F
:104160008C01892B21F0F60185819681B7D5739456
:10417000D7CE0FEF1FEF8CCE10E000E00ECE2F92C7
:104180003F924F925F926F927F928F929F92AF92E7
:10419000BF92CF92DF92EF92FF920F931F93CF9334
:1041A000DF938091C0049091C10410E000E0892B5E
:1041B000A9F0C7DA0AEF1FEF882381F02090C2042C
:1041C0003090C304C091C004D091C104D12CC12C43
:1041D00010E000E02C143D04A9F47894C801DF91AC
:1041E000CF911F910F91FF90EF90DF90CF90BF90F4
:1041F000AF909F908F907F906F905F904F903F9087
:104200002F900895C6010E940018882309F18B8120
:104210009C810397E9F48F859889892BC9F0B601B1
:1042200090E080E07BD221E030E0882311F030E0A4
:1042300020E044245524421A530AB12CA12C912C7D
:10424000812C8A818815190409F038F4188A1F8690
:104250004FEFC41AD40A6396BDCFE881F981EA0D05
:10426000FB1D85819681892BA1F161E070E087813A
:104270009085A8D33C01DBD28C01E881F981EA0D5D
:10428000FB1D8185928525813681200F311FAC0170
:10429000421B530B9A0147815085421B530B70E020
:1042A00060E00E94EF38E881F981EA0DFB1DE780AC
:1042B000F084458156819301B601C201BBD28C01C5
:1042C000892B39F0E881F981EA0DFB1D8581968102
:1042D00005D55FEF851A950A8DE0A80EB11CB1CF08
:1042E00030CA789408952F923F924F925F926F92C6
:1042F0007F929F92AF92BF92CF92DF92EF92FF9206
:104300000F931F93CF93DF9300D000D0CDB7DEB7CC
:104310000091C0041091C1049924939401151105D2
:1043200009F43EC0A090C204B090C3040ADA982EEB
:104330008823B1F11092C1041092C0041092C304FA
:104340001092C2041092C4041092C5048FEF9FEF24
:10435000DC0180936B0290936C02A0936D02B0938A
:104360006E0278947FD31E830D83C12CD12C7601ED
:10437000C501B0E0A0E089839A83AB83BC8322248B
:104380002A94322C89819A81AB81BC81C816D906C6
:10439000EA06FB06F4F0C801A1D480E40E944114AF
:1043A000892D26960FB6F894DEBF0FBECDBFDF91E4
:1043B000CF911F910F91FF90EF90DF90CF90BF9022
:1043C000AF909F907F906F905F904F903F902F9015
:1043D0000895AD81BE8115968D919C91169720917F
:1043E00061023091620282179307D1F451968D9148
:1043F0009C91EED5ED81FE8180819181B12CA12C23
:10440000412C512C3201892B89F5BFEFCB1ADB0AE5
:10441000EB0AFB0AED81FE817396FE83ED83B2CF3A
:10442000C114D104E104F10429F7029718F7ED81D2
:10443000FE81818992898F3F980709F029D5AD8146
:10444000BE8152963C922E925197D4CF8A0D9B1DDD
:10445000DC018D919C91009709F040D4BFEF4B1A7D
:104460005B0A6B0A7B0AEDE0AE0EB11CAD81BE812A
:104470008D919C91119712964C9150E070E060E004
:1044800044165506660677060CF328D4BECFCF93A4
:10449000DF93EA0128DF811109C082E090E099836F
:1044A000888385EF9FEFDF91CF91089581E090E0C1
:1044B0000E94331481E090E09983888390E080E04B
:1044C000F2CF11DF1092BD041092BC04089542E0B7
:1044D00050E068E173E00C945114FF920F931F9326
:1044E000CF93DF938A01EC01C60FD71FF980B9D2B1
:1044F0000897F816190671F068F082E090E0F8016C
:10450000918380838EEF9FEFDF91CF911F910F9169
:10451000FF9008956C817D818E819F814B810E94E7
:10452000E616811108C082E090E0F8019183808353
:1045300084EF9FEFE9CFF9800E94E1164F2D50E004
:10454000BE01685F7F4F0E94E63889810E94501744
:1045500081E090E0F8019183808390E080E0D4CF07
:10456000DF92EF92FF920F931F93CF93DF938A0115
:10457000EC01C60FD71F0E94E1167C01D98071D2D1
:10458000DD2059F0029721E030E0D816190619F025
:1045900010F030E020E0232B79F482E090E0F80185
:1045A000918380838EEF9FEFDF91CF911F910F91C9
:1045B000FF90EF90DF900895EF2841F482E090E0C3
:1045C000F8019183808384EF9FEFEECFF9800E9402
:1045D000E1164F2D50E0BE016E5F7F4F0E94E6381E
:1045E00089810E94501781E090E0F80191838083D7
:1045F00090E080E0D9CF87E692E29093C704809361
:10460000C60408958091C6049091C7040895089542
:10461000FC0111821082938382830895DB011D9235
:104620001C92DC011296ED91FC91139771836083CB
:1046300013967C936E9312970895FC01808191816B
:10464000DB018D939C93A081B181109741F08D91F6
:104650009C9191838083892B11F4F383E2830895E5
:10466000FC0180819181DB018D939C93892B11F456
:1046700073836283718360830895FC0111821082C9
:10468000938382830895CF93DF931F921F92CDB7B8
:10469000DEB71A821982F894BE016F5F7F4F8DECEE
:1046A00094E0CBDF89819A81009709F017D3898143
:1046B0009A81892B89F7BE016F5F7F4F81ED94E06E
:1046C000BCDF89819A81009709F008D389819A819A
:1046D000892B89F778940F900F90DF91CF910895EF
:1046E000CF93DF931F921F92CDB7DEB71A82198244
:1046F000F894BE016F5F7F4F89EC94E09EDF898163
:104700009A81009709F0EAD289819A81892B89F7E9
:1047100078940F900F90DF91CF91089581E00895E4
:1047200090E080E00895EF92FF920F931F93CF9354
:10473000DF931F921F92CDB7DEB71A821982809144
:10474000C80407EF1FEF8823A1F1F894BE016F5F43
:104750007F4F81ED94E071DF789489819A81EE2416
:10476000E394F12C892B51F4F894BE016F5F7F4FD5
:104770008DEC94E062DF7894F12CE12C89819A81B0
:104780000EEF1FEF0097A9F0FC014281538164E016
:1047900070E076D68C01892B61F0F89469817A817A
:1047A000C701880F991F880F991F83539B4F58DFAC
:1047B0007894C8010F900F90DF91CF911F910F91C6
:1047C000FF90EF9008950F931F93CF93DF9300D046
:1047D0001F92CDB7DEB71C821B821A82198280918C
:1047E000C80407EF1FEF8823C1F0AE014D5F5F4F94
:1047F00064E070E0CE010196B6D68C01892B69F495
:10480000E981FA818B819C8193838283F894698109
:104810007A8189EC94E002DF7894C8010F900F90C0
:104820000F900F90DF91CF911F910F910895BBD7FB
:10483000049608958F929F92AF92BF92CF92DF928B
:10484000EF92FF920F931F93CF93DF931F921F92CC
:10485000CDB7DEB71A821982BC016F5F7F4F63301C
:10486000710598F0AA24AA94BA2CC5010F900F9054
:10487000DF91CF911F910F91FF90EF90DF90CF903C
:10488000BF90AF909F908F9008954115510551F3BF
:10489000480159018A016C01CADF8815990511F791
:1048A000E114F104F9F28E0D9F1DA816B906D0F29D
:1048B0008091C8048823F1F0F894B501645071091F
:1048C0009701AE014F5F5F4FC8010496E1D65C01CE
:1048D000892B71F489819A81F80193838283C601BF
:1048E000880F991F880F991FB80183539B4F96DE3D
:1048F0007894BBCF87EFA82EBB24BA94B6CFAF92E3
:10490000BF92CF92DF92EF92FF920F931F93CF93BC
:10491000DF931F921F92CDB7DEB71A821982892BBF
:1049200009F047C06115710509F443C041155105EF
:1049300009F43FC02115310509F43BC001151105EB
:10494000C1F18091C8048823B9F179016A015B0142
:10495000F894BE016F5F7F4F89EC94E06EDE78942F
:1049600089819A81009759F1DC0112966D917C91B1
:10497000A8010496A6D68C01E981FA81D501ED93B0
:10498000FC93828193810496F601918380834FDFAB
:10499000D7018D939C93C8010F900F90DF91CF9119
:1049A0001F910F91FF90EF90DF90CF90BF90AF904D
:1049B00008950FEF1FEFEFCF07EF1FEFECCF0EEFD4
:1049C0001FEFE9CFCF93DF93EC01672B71F4F4D69F
:1049D0008C179D0760F0E7D62496C80FD91FE6D63E
:1049E0008C0F9D1FDF91CF910895E3D6F1CF90E01A
:1049F00080E0F8CF0F931F93CF93DF932091C804EB
:104A000021112BC08B01EC018DEC94E001DE81EDD6
:104A100094E0FEDD89EC94E0FBDD97D00097C1F4D3
:104A2000CBD670E060E0CEDF4FE652E062E070E0AF
:104A300081D1009769F480916F0290917002CED677
:104A4000B801CE0103D5009719F421E02093C804E2
:104A5000DF91CF911F910F91089584EF9FEFF8CFD1
:104A6000A8C6AAC6CF93DF93AAD6EC01892B11F46E
:104A70000ADE36DECE01DF91CF910895CF93DF932A
:104A80009ED6EC01892B09F4FEDDCE01DF91CF919A
:104A9000089580916F02909170020895CF93DF93F3
:104AA0008091C804D0E0C0E08823D1F09CD6EC010E
:104AB000892BB1F4E8DD14DE80916F0290917002D1
:104AC000E7D1E8D2EC01892B59F48DEC94E0D5DDE7
:104AD00081ED94E0D2DD89EC94E0CFDD1092C80442
:104AE000CE01DF91CF910895EF92FF920F931F9324
:104AF000CF93DF93EC017A018B010F5F1F4F0E9D67
:104B0000A0010F9D500D1E9D500D112470E060E01E
:104B10000E94EF3890E080E0F0E0E0E02FEFE81650
:104B2000F90639F4DF91CF911F910F91FF90EF902B
:104B300008951A8219822883309711F0D283C18395
:104B40000196FE01C00FD11FEACFCF92DF92EF9204
:104B5000FF920F931F93CF93DF930AE316E00C7F2E
:104B600043E050E061E772E087E792E01CD481E720
:104B7000E82E82E0F82E97E7C92E92E0D92EC9EAF6
:104B8000D6E0D7014D915D917D01F6016191719162
:104B90006F01198308835D834C835B834A837F8322
:104BA0006E839B012F5F3F4F249FC001259F900D77
:104BB000349F900D1124998788870115110511F0F4
:104BC000C80192DF88859985080F191F2A96F7E793
:104BD000EF16F2E0FF06A9F6E7EDF4E080E691E0DB
:104BE000DF019C011D9221503040E1F71092D60464
:104BF0001092D5041092C8061092C7061092CC06E7
:104C00001092CB061092CA061092C9061092CE06D8
:104C10001092CD061092D0061092CF061092D206B6
:104C20001092D1061092D6061092D5061092D40694
:104C30001092D3061092D8061092D7061092DA0678
:104C40001092D9061092A6061092A5061092A806F8
:104C50001092A70690E080E0DF91CF911F910F9115
:104C6000FF90EF90DF90CF9008950097F1F0F894C7
:104C7000A7E7B2E0E9EAF6E030E020E04D915D918F
:104C800048175907A8F0428153814115510581F019
:104C90008AE0829FF001839FF00D1124E755F94FC0
:104CA00080819181009759F4789490E080E0089594
:104CB0002F5F3F4F3A962330310501F7F5CFDC01E6
:104CC00011966D917C91718360834150510953839A
:104CD0004283FC012193CF0178940895009749F114
:104CE000DC018E91853041F4E091A706F091A80691
:104CF0003097F9F0CD0119948530D8F4282F30E0A1
:104D0000F8948FEF8C938AE0829FF001839FF00DDF
:104D10001124E755F94F8081918112969C938E93CF
:104D20001197B183A08382819381019693838283BB
:104D300078940895CF92DF92EF92FF920F931F9392
:104D4000CF93DF939C018AED94E08C7F4115510550
:104D500009F49BC02115310509F497C0611571054F
:104D600009F493C07A01AB01B9016D5F7F4F6C7F8D
:104D70009B012F5F3F4F249F8001259F100D349F83
:104D8000100D1124F8942091C7063091C806232BEA
:104D900059F42091CF063091D0062115310569F1E3
:104DA0002017310708F058C02091D1063091D20663
:104DB000232B91F42091CF063091D006820F931FC0
:104DC0002091D9063091DA062115310509F441C048
:104DD0002017310708F056C07894CFEFDFEF86EF49
:104DE0009FEFF701D183C083DF91CF911F910F9186
:104DF000FF90EF90DF90CF900895C3E0D0E0C09097
:104E0000D504D090D6042DE531E02C193D092017AA
:104E1000310710F32AE02C9FF0012D9FF00D112493
:104E2000E755F94F918380835583448353834283AD
:104E30007783668311870087009709F055DE0C0D94
:104E40001D1D1093D6040093D504789490E080E063
:104E5000C8CFC4E0D0E0D3CFC3E0D0E02AE02C9F9D
:104E6000F0012D9FF00D1124E755F94F91838083B8
:104E7000558344835383428377836683009729F362
:104E800033DEE3CFC4E0D0E0E9CF8FEF9FEFACCFCC
:104E90009C010397029708F069C0F89484E09AE0B7
:104EA000482F50E0241735070CF44DC091E08AE0FC
:104EB000829FF001839FF00D1124E755F94F118275
:104EC000108215821482138212821782168299230D
:104ED000B1F18091C7069091C806892BA9F4209161
:104EE000CF063091D0062115310571F08091D5049F
:104EF0009091D604821B930B9093D6048093D50493
:104F00001092D0061092CF068091D1069091D206D1
:104F1000892BA9F42091D9063091DA0621153105A3
:104F200071F08091D5049091D604821B930B9093DD
:104F3000D6048093D5041092DA061092D90678949C
:104F400090E080E00895949FF001959FF00D11246A
:104F5000E755F94F40815181452B31F4408551850A
:104F6000452B11F481509CCF90E0A1CF8FEF9FEFA4
:104F700008954115510549F1009739F16115710501
:104F800021F1F8942091A5063091A606232BB9F4BF
:104F90002091A7063091A806232B89F49093A606AA
:104FA0008093A5067093A8066093A706789425E0E1
:104FB00030E090E080E0FA01318320830895789416
:104FC0002FEF3FEF86EF9FEFF6CF8FEF9FEF089524
:104FD000059769F4F8941092A6061092A50610920F
:104FE000A8061092A706789490E080E008958FEFCD
:104FF0009FEF08956115710519F4F0E0E0E011C02C
:105000008530910581F4E091A506F091A6063097D0
:10501000A1F3CB0101961995009779F3FC0185E086
:105020008193CF0108959C0123503109223031052D
:1050300020F72AE0289FD001299FB00D1124A75501
:10504000B94F2D913C911197232BB9F216962D91C2
:105050003C9117972617370780F2F89412962D91F6
:105060003C9113972115310529F0ED91FC91119791
:10507000309711F47894C1CF4181528111965C939D
:105080004E932150310913963C932E93129781939E
:105090007894C7CFE7E3F6E08EE6DF011D928A95AC
:1050A000E9F7E7EDF4E080E691E0DF019C011D9275
:1050B00021503040E1F71092D6041092D504E9EA6D
:1050C000F6E082E3DF011D928A95E9F7E5EAF6E072
:1050D00084E0DF011D928A95E9F790E080E0089571
:1050E000CF93DF93C0917D02D0917E02CF3FDC074A
:1050F00059F423D490937E0280937D0297FF09C0D8
:10510000D0937E02C0937D0284EF9FEFDF91CF9119
:10511000089590E080E0FACF8230910528F48093E2
:10512000DB0690E080E008958FEF9FEF08954F92A7
:105130005F926F927F92AF92BF92CF92DF92EF9287
:10514000FF920F931F93CF93DF931F921F92CDB7C0
:10515000DEB71A821982009709F479C061157105CA
:1051600009F475C020917D0230917E0207EF1FEF98
:105170002F3F3F4F09F445C06B015C01412C512C7E
:105180003201F12CE12C10E000E09E012F5F3F4F37
:10519000A6014E195F09B5016E0D7F1D80917D023C
:1051A00090917E022ED4892B09F04BC089819A817F
:1051B000009741F4E114F10429F42091DB06222345
:1051C00009F442C0E80EF91EEC14FD04D0F480E8A6
:1051D000481684E858068EE16806710420F560E000
:1051E00070E0CB010E94BD322AE0420E511C611CCE
:1051F000711C0A3F4FEF140721F0043F8FEF18078F
:10520000A1F4C8010F900F90DF91CF911F910F91E2
:10521000FF90EF90DF90CF90BF90AF907F906F9016
:105220005F904F90089501EF1FEF81E090E0013F04
:105230002FEF120711F090E080E0892B09F4A5CF41
:10524000E0CF04EF1FEFDDCF0AEF1FEFDACF0FEF54
:105250001FEFD7CF4F925F926F927F92AF92BF9224
:10526000CF92DF92EF92FF920F931F93CF93DF9332
:105270001F921F92CDB7DEB71A821982009709F4E8
:1052800079C06115710509F475C020917D023091D6
:105290007E0207EF1FEF2F3F3F4F09F445C06B0120
:1052A0005C01412C512C3201F12CE12C10E000E08A
:1052B0009E012F5F3F4FA6014E195F09B5016E0D8C
:1052C0007F1D80917D0290917E024ED3892B09F043
:1052D0004BC089819A81009741F4E114F10429F4CB
:1052E0002091DB06222309F442C0E80EF91EEC14DB
:1052F000FD04D0F480E4481682E458068FE0680686
:10530000710420F560E070E0CB010E94BD322AE01C
:10531000420E511C611C711C0E3F4FEF140721F00F
:10532000043F8FEF1807A1F4C8010F900F90DF9191
:10533000CF911F910F91FF90EF90DF90CF90BF9092
:10534000AF907F906F905F904F90089502EF1FEFA6
:1053500081E090E0023F2FEF120711F090E080E033
:10536000892B09F4A5CFE0CF04EF1FEFDDCF0EEFBF
:105370001FEFDACF0FEF1FEFD7CF80917D02909113
:105380007E028F3F980749F0D0D2892B49F48FEFE6
:105390009FEF90937E0280937D0290E080E00895DD
:1053A00084EF9FEF0895CF92DF92EF92FF920F93D9
:1053B0001F93CF93DF9321E04115510509F020E0C1
:1053C0004150510921112CC0DC01FB01D12CC12C11
:1053D00021E022C03FEFC31AD30A7D010D911D9138
:1053E000E701EA80FB80E016F106A8F42081318114
:1053F000E280F380F182E08233832283ED90FC909F
:1054000011979D0122503109E901F982E882119634
:105410001C930E9320E03296C416D506D8F2D2CF54
:10542000DF91CF911F910F91FF90EF90DF90CF9080
:105430000895FC01680F791F90E080E0E617F707F8
:1054400009F408952191820F911DF8CF2091DC0677
:10545000211113C045DE009791F41092E2061092DC
:10546000E1061092E0061092DF061092DE0610921E
:10547000DD0621E02093DC06089584EF9FEF089578
:10548000AF92BF92CF92DF92EF92FF920F931F9352
:10549000CF93DF93009709F460C04630510508F4BC
:1054A0005CC02091DC06C7EFDFEF222309F449C07E
:1054B0008C01060F171FF801C080D180C114D104E0
:1054C00009F44EC096012A5F3F4F4217530708F474
:1054D00047C07C018091E1069091E206938382832C
:1054E000B6016C5F7F4F5801A60EB71EC801A1DF41
:1054F000F5019183808364E070E0C80118DEEC015F
:10550000892BF9F481E090E007DEB601C80104962A
:105510000EDEEC01892B91F462E070E0C50107DE3C
:10552000EC01892B59F4C701D9DB8091E1069091F8
:10553000E20601969093E2068093E10690E080E017
:10554000EBDDCE01DF91CF911F910F91FF90EF9096
:10555000DF90CF90BF90AF900895CFEFDFEFF1CF06
:10556000C9EFDFEFEECF6F927F928F929F92AF9253
:10557000BF92CF92DF92EF92FF920F931F93CF9340
:10558000DF9300D01F92CDB7DEB7009709F47AC041
:105590004115510509F476C02091DC0607EF1FEF95
:1055A000222309F44DC03A017B015C0164E070E004
:1055B000CE0101964FDE8C01892B09F041C0098193
:1055C0001A810115110509F45AC0480186E0880EB8
:1055D000911CB701680D791D80917F029091800226
:1055E00009DD6C01009709F450C0A70170E060E08C
:1055F0000E94EF3889819A81AB81BC81EC0CFD1C43
:10560000F70181939193A193B1937F0181E090E0A1
:1056100083DDB801C7011EDE892B31F562E070E041
:10562000C701800F911F16DE8C01892BE9F490E0F1
:1056300080E072DDF501D182C082F3019182808227
:10564000C8010F900F900F900F90DF91CF911F9195
:105650000F91FF90EF90DF90CF90BF90AF909F9011
:105660008F907F906F90089590E080E055DDF50178
:1056700011821082F30111821082C6012FDB09EF23
:105680001FEFDECF0FEF1FEFDBCF06EF1FEFD8CFFF
:105690000097A1F04115510589F02115310571F0F0
:1056A000F90136966E177F0748F0DC012D933C9385
:1056B000DA01ED93FC9390E080E008958FEF9FEF87
:1056C0000895AF92BF92CF92DF92EF92FF920F9325
:1056D0001F93CF93DF93009709F45FC041155105E5
:1056E00009F45BC06530710508F457C02091DC06F1
:1056F000C7EFDFEF222391F1DC01CD90DC90119711
:105700001296ED91FC9196012A5F3F4FC9EFDFEFB2
:105710002617370719F5C091DD06D091DE062097D0
:1057200049F521E030E03093DE062093DD067A0172
:105730008C01F093E006E093DF065601B4E0AB0E77
:10574000B11CB50176DE0A0D1B1DF80120813181E7
:105750008217930729F5D701CD92DC92CE01DF9114
:10576000CF911F910F91FF90EF90DF90CF90BF905E
:10577000AF9008952091DF063091E0062F5F3F4FF4
:10578000CCEFDFEFE217F30790F2CBEFDFEF2E174E
:105790003F0768F2D0E0C0E0CACFCFEFDFEFDECF47
:1057A000C3EFDFEFDBCF84E090E0089582E090E08C
:1057B00008958CEF9FEF089580E290E00895109295
:1057C000E2061092E1061092E0061092DF061092B7
:1057D000DE061092DD0690E080E00895909380024E
:1057E00080937F0208958091DC06882391F0C5DDC7
:1057F000009789F41092E2061092E1061092E006FA
:105800001092DF061092DE061092DD061092DC0682
:10581000089590E080E00895009749F061157105C2
:1058200031F0FC0111821082FB0111821082089577
:10583000F3CF26E030E040E855E260E070E090E031
:1058400080E000C08130910571F01CF4892B39F0A3
:1058500008958230910551F0039759F0089580EF33
:1058600096E00C94C2358DE897E0FBCF8AE298E091
:10587000F8CF87EC98E0F5CF1F920F920FB60F92FA
:1058800011240BB60F922F933F934F935F936F9317
:105890007F938F939F93AF93BF93EF93FF9386E98B
:1058A00097EE9093250180932401BFD0FF91EF9153
:1058B000BF91AF919F918F917F916F915F914F9128
:1058C0003F912F910F900BBE0F900FBE0F901F9026
:1058D000189586E997EE9093250180932401A3E71C
:1058E000B0E08C918E7F8C93E0E2F1E080818C7F40
:1058F0008083E1E2F1E08081877E80838081846023
:10590000808380818C7F80838C9181608C930895CB
:10591000E3E7F0E0808190819E7F9083817008951D
:1059200081E008951092E306089568EE73E080E048
:1059300090E023D690E080E0089526E030E040E05B
:1059400050E16EE070E090E080E07CDF80EF96E078
:105950000E94F834892B29F080EF96E00E941235DE
:10596000F5CF90E080E00895CF92DF92EF92FF9222
:105970000F931F93CF93DF936B017A01E901198293
:10598000188280EF96E00E94F834892B79F1860125
:10599000CC24C39482E0D82E8091E306811111C0FB
:1059A00080EF96E00E9412350297B1F7C092E306AD
:1059B000F801D1928F01888199810196998388831A
:1059C000EBCF888199818E159F0580F480EF96E05A
:1059D0000E9412358F3F9807A1F3F80181938F0140
:1059E00088819981019699838883EBCF90E080E04C
:1059F000DF91CF911F910F91FF90EF90DF90CF90AB
:105A000008950F931F93CF93DF93EA01890180EFED
:105A100096E00E945238F801D183C08390E080E084
:105A2000DF91CF911F910F9108958091E40691E04D
:105A3000980F9093E406882349F021E030E03093FA
:105A4000E6062093E5068093E406089578940E9484
:105A50007806F8948091E4068150F5CF0F931F9358
:105A6000CF93DF9310920D0A10920C0ABCD5E1DEA1
:105A7000C091A402D091A5021982188264E670E058
:105A800080E090E00E946D0670E060E090E080E0D1
:105A90000E94E804009709F042C00E94F70AF894B7
:105AA0007894BE016A557F4F8A819B810E94EB04E6
:105AB000892B71F46FEF7FEFCB010E947C050E9470
:105AC0006706882329F081E0FE01E455FF4F8083BB
:105AD000F894FFDE0E946A06882311F080E00BC074
