:1000000005C100000C94F6300C9421310C944C3155
:100010000C9477310C94A2310C94CD310C94F831BE
:100020000C94233224C1000022C1000020C1000032
:100030001EC100001CC100001AC1000018C1000050
:1000400016C1000014C1000012C1000010C1000060
:100050000EC100000CC100000AC100000C944E3219
:1000600006C100000C9422360C94583600C10000E2
:10007000FEC00000FCC00000FAC00000F8C0000094
:10008000F6C00000F4C00000F2C00000F0C00000A4
:100090000C94AE360C94E436EAC00000E8C00000D0
:1000A000E6C00000E4C00000E2C00000E0C00000C4
:1000B000DEC00000DCC00000DAC00000D8C00000D4
:1000C000D6C00000D4C000000C943C2C0C943A37ED
:1000D0000C947037CCC000000C94C6370C94FC37DD
:1000E000C6C0000000000A0B02090C0D0E08070331
:1000F00004010000000000000000000000000000FB
:1001000000000000000000000000000000000000EF
:1001100012111000000000000000000000000000AC
:100120000000000000000000000001021020200874
:100130000810204010204080020102010804020142
:1001400001020408102040808040201008040201B1
:10015000800402018040201008040201080402010A
:100160000102040810204080010204081020408091
:1001700005050505070508080808020202020A0A23
:100180000808040404040101010101010101030341
:10019000030303030303040707070C0C0C0C0C0CEC
:1001A0000C0C0202020206060606060606060B0BE9
:1001B0000B0B0B0B0B0B000020002300260029006B
:1001C0002C002F003200000100000301060109018C
:1001D00000002200250028002B002E0031003400F2
:1001E00002010000050108010B01000021002400AC
:1001F00027002A002D003000330001010000040117
:1002000007010A0181360D379937253811241FBEA1
:10021000CFEFD1E2DEBFCDBF00E00CBF13E0A0E026
:10022000B2E0E0EFF1E700E00BBF02C007900D92F3
:10023000A635B107D9F72AE0A6E5B3E001C01D92C3
:10024000AE32B207E1F711E0C6E0D1E000E006C04F
:1002500021970109802FFE010E94C538C230D107C5
:1002600080E00807A9F70E942E2D0C94F638C8CE1E
:10027000FC01A781B0858C9191858923A481B581EA
:100280009C9140815181628173812681922359F032
:1002900081110BC04F5F5F4F6F4F7F4F4083518382
:1002A0006283738308958111F5CF4150510961092B
:1002B0007109F4CF87E593E0DBCF82E693E0D8CFF6
:1002C0008DE693E0D5CF88E793E0D2CFFC01A481FF
:1002D000B5818C9196818923A781B0859C914081BD
:1002E0005181628173812185922359F0882359F0CD
:1002F0004F5F5F4F6F4F7F4F4083518362837383A4
:1003000008958823A9F34150510961097109F4CF77
:1003100087E593E0DBCF82E693E0D8CF8DE693E0EC
:10032000D5CF88E793E0D2CF0F931F93CF93DF937E
:10033000D82FC62F8A01A09156038BE0A89FD00129
:100340001124A95ABC4F1D921D921D921C92139705
:1003500081E01A968C931A978D2F90E0FC01E65D50
:10036000FE4FE4911696EC931697FC01E059FE4F70
:10037000E491F0E0EE0FFF1FEA54FE4F8591949157
:1003800015969C938E931497862F90E0FC01E65D62
:10039000FE4FE4911996EC931997FC01E059FE4F3A
:1003A000E491F0E0EE0FFF1FEA54FE4F8591949127
:1003B00018969C938E93179760E08D2F0E948F3430
:1003C00060E08C2F0E948F3480915603813009F4B5
:1003D0003FC0A8F0823009F462C0833009F486C0BF
:1003E0008091560391E0980F90935603F801808313
:1003F00090E080E0DF91CF911F910F91089580E010
:10040000D23049F081E0D33031F08EEE8D0F843060
:10041000D8F487E18D1B41E050E06AE571E00E946D
:100420007C3080E0C23049F081E0C33031F08EEEA4
:100430008C0F843058F487E18C1B41E050E068E871
:1004400071E00E947C30CCCF8FEFE5CF8FEFF5CFFE
:1004500080E0D23049F081E0D33031F08EEE8D0F64
:100460008430C8F487E18D1B41E050E06DE571E018
:100470000E947C3080E0C23049F081E0C33031F02E
:100480008EEE8C0F843048F487E18C1B41E050E005
:100490006BE871E0D6CF8FEFE7CF8FEFF7CF80E03B
:1004A000D23049F081E0D33031F08EEE8D0F8430C0
:1004B000C8F487E18D1B41E050E060E671E00E94E6
:1004C0007C3080E0C23049F081E0C33031F08EEE04
:1004D0008C0F843048F487E18C1B41E050E06EE8DB
:1004E00071E0AFCF8FEFE7CF8FEFF7CF80E0D23063
:1004F00049F081E0D33031F08EEE8D0F8430C8F4B6
:1005000087E18D1B41E050E063E671E00E947C30A2
:1005100080E0C23049F081E0C33031F08EEE8C0FC4
:10052000843048F487E18C1B41E050E061E971E0E0
:1005300088CF8FEFE7CF8FEFF7CF9BE0899FF00158
:100540001124E95AFC4F80819181A281B381FB0182
:1005500080839183A283B38390E080E008959BE041
:10056000899FF0011124E95AFC4F108211821282F6
:10057000138290E080E0089590E080E00895CF92AB
:10058000DF92EF92FF92CF93882351F16A017B01B2
:10059000CFEFC80F20E030E0A901CB01B6010E94E7
:1005A000242E18168CF0C701B60190580E94952E83
:1005B0009B01AC016C2F70E090E080E0CF91FF9048
:1005C000EF90DF90CF90B2C0C701B6010E94902E8D
:1005D0008C2FCF91FF90EF90DF90CF900C945533FC
:1005E000CF91FF90EF90DF90CF9008950F931F93DE
:1005F0008B019C0183E036952795179507958A9581
:10060000D1F70D571C4F462F477021E030E0F9011C
:1006100002C0EE0FFF1F4A95E2F7AF01F8012081FB
:100620002423CB010196211102C090E080E01F91AC
:100630000F9108950F931F938B019C0183E03695D2
:100640002795179507958A95D1F7677081E090E017
:1006500001C0880F6A95EAF7F801ED57FC4F208139
:10066000452B31F48095822380831F910F9108954B
:10067000822BFACF2F923F924F925F926F927F928E
:100680008F929F92AF92BF92CF92DF92EF92FF92A2
:100690000F931F93CF93DF93D62EC72E782E692EFC
:1006A00049015A01280161E08D2D0E948F34CD2D22
:1006B000DC2D8E010F5F1F4FA8016D2D7C2D872D26
:1006C000962DB8DF20E030E0A901C201B7010E94F9
:1006D0001430181664F4C201B7010E94952E2B0144
:1006E000C501B4010E94952EA201CE0123D0C801FC
:1006F000DF91CF911F910F91FF90EF90DF90CF90FE
:10070000BF90AF909F908F907F906F905F904F9031
:100710003F902F900895882341F08150682F70E01A
:1007200090E080E050E040E085CF0895862FB90149
:100730000C9455339C01FC01EC51FF4FE491E150C6
:10074000E231E0F4F0E08827E755FC4F8F4F0C943E
:10075000C538BB03C203C503DC03F103BE030604B3
:10076000120416042D04420457046E048304BE03CD
:100770009804AF04C40484B5806884BD60E0822F0F
:100780000C94CB3484B58062F8CF809180008C7F4C
:1007900082608093800080918100807E8061682BE0
:1007A0006093810050938700409386008091800081
:1007B000806880938000E2CF809180008C7F82608F
:1007C0008093800080918100807E8061682B60939F
:1007D0008100509387004093860080918000806262
:1007E000E8CF809180008C7F826080938000809130
:1007F0008100807E8061682B609381005093870028
:1008000040938600809180008860D3CF8091B000B3
:1008100080688093B0008091B100887F682B6093DE
:10082000B100ACCF8091B0008062F3CF8091900096
:100830008C7F82608093900080919100807E8061A7
:10084000682B60939100509397004093960080919D
:10085000900080688093900091CF809190008C7F71
:1008600082608093900080919100807E8061682BEF
:100870006093910050939700409396008091900070
:100880008062E8CF809190008C7F8260809390009E
:1008900080919100807E8061682B609391005093DD
:1008A000970040939600809190008860D3CF80910C
:1008B000A0008C7F82608093A0008091A100807E48
:1008C0008061682B6093A1005093A7004093A6001D
:1008D0008091A00080688093A00050CF8091A000FC
:1008E0008C7F82608093A0008091A100807E8061D7
:1008F000682B6093A1005093A7004093A6008091BD
:10090000A0008062E8CF8091A0008C7F82608093FD
:10091000A0008091A100807E8061682B6093A1007F
:100920005093A7004093A6008091A0008860D3CF89
:10093000809120018C7F8260809320018091210131
:10094000807E8061682B6093210150932701409342
:100950002601809120018068809320010FCF809133
:1009600020018C7F82608093200180912101807E14
:100970008061682B609321015093270140932601E9
:10098000809120018062E8CF809120018C7F82607D
:100990008093200180912101807E8061682B60938B
:1009A0002101509327014093260180912001886006
:1009B000D3CF611102C00C948F346130E1F362E057
:1009C000FACF662319F061E00C94CB3460E0FCCFE1
:1009D00090E080E008950F931F93009709F489C079
:1009E0006115710509F485C00091780210917902B2
:1009F00020917A0230917B020E3F1F4F2F4F3F4FC5
:100A000009F068C04FEF5FEFBA014093780250934E
:100A1000790260937A0270937B0240917802509140
:100A2000790260917A0270917B02DC011296ED915D
:100A3000FC9180819181A281B381809392049093F3
:100A40009304A0939404B093950484819581A68126
:100A5000B78180938E0490938F04A0939004B093F9
:100A6000910480859185A285B38580938A049093B3
:100A70008B04A0938C04B0938D0484859585A68502
:100A8000B7858093860490938704A0938804B093DD
:100A900089041092820410928304109284041092AC
:100AA00085040E94201085E490E190938D0380934B
:100AB0008C0390938F0380938E030E940F0F0097F7
:100AC00031F421E030E030939704209396041F9195
:100AD0000F910895009178021091790220917A0285
:100AE00030917B02DB010D931D932D933C93139763
:100AF00094CF8FEF9FEFEBCF8F929F92AF92BF92E9
:100B0000CF92DF92EF92FF921F93CF93DF934B012F
:100B10005C011091990482E090E090939704809397
:100B2000960481149104A104B10441F480919904C4
:100B3000811104C080919804C1E08111C0E0C12CF2
:100B4000D12C760180919904811106C0809198047E
:100B5000811102C0CC23D9F083E090E090939704F8
:100B600080939604CC2381F1CCE9DFEF111102C010
:100B70000E94AA13CE01DF91CF911F91FF90EF90B9
:100B8000DF90CF90BF90AF909F908F9008956AE0D4
:100B900070E080E090E00E94BD3280E1C80E87E204
:100BA000D81EE11CF11C8FEF88169806A806B8061F
:100BB00031F0C1E08C149D04AE04BF0408F0C0E025
:100BC00080E00E94430FBECFD0E0C0E0CFCFCF92F5
:100BD000DF92EF92FF920F931F93CF93DF938F3F9C
:100BE000910511F008F051C02091960430919704BE
:100BF0002330310539F0209196043091970421304B
:100C0000310531F424E030E03093970420939604CA
:100C10006A017B01EC0182309105A8F011E0AE0180
:100C2000C701B6010E940E0FAB01BC01CE0111231A
:100C3000F9F0DF91CF911F910F91FF90EF90DF902E
:100C4000CF900C94D3158C01000F111F04571C4F2B
:100C5000D8018D919C91892B09F30E94DD15029793
:100C6000E9F6D801ED91FC91CE011995182FD7CF57
:100C70000E94F51590E080E0DF91CF911F910F91D8
:100C8000FF90EF90DF90CF9008958FEF9FEFF4CF1C
:100C900080E00C94430FCF93DF9386E090E0909335
:100CA0009704809396040E949C0FEC01ECE8F3E01B
:100CB00084E0DF011D928A95E9F70E9442131092A9
:100CC000970410929604CE01DF91CF910895809100
:100CD0009804089580918104089560937802709338
:100CE000790280937A0290937B0290E080E00895ED
:100CF0002F923F924F925F926F927F928F929F922C
:100D0000AF92BF92CF92DF92EF92FF920F931F9319
:100D1000CF93DF93CDB7DEB763970FB6F894DEBFFE
:100D20000FBECDBF2090080A3090090AE0915B0405
:100D3000F0915C04C080D180E280F380D10198966C
:100D40008D909D90AD90BC909B97A7019601C50199
:100D5000B4010E94242E87FFA8C210928409109229
:100D600085091092860910928709C0905802D09088
:100D70005902E0905A02F0905B02A701960160913F
:100D8000BB097091BC098091BD099091BE090E9478
:100D9000242E882341F0C092BB09D092BC09E09276
:100DA000BD09F092BE098091BA0981111092BA0969
:100DB000BE016F5F7F4F8091BF09BFDBC0905C02B7
:100DC000D0905D02E0905E02F0905F02A701960174
:100DD0006091AF097091B0098091B1099091B20909
:100DE0000E94242E882341F0C092AF09D092B0090E
:100DF000E092B109F092B2098091AE09811110928E
:100E0000AE09BE016B5F7F4F8091B30996DB6091A5
:100E100060027091610280916202909163020E946F
:100E2000C32E20E030E040E05AE20E9418306B010F
:100E30007C0169817A818B819C810E94C32EA701EC
:100E400096010E9418302B013C0140928809509273
:100E5000890960928A0970928B096D817E818F81E8
:100E600098850E94C32EA70196010E9418304B015D
:100E70005C0180928C0990928D09A0928E09B092AB
:100E80008F09E0915B04F0915C04C080D180E28026
:100E9000F3802090F0093090F1090091F20910914F
:100EA000F309A7019601B101C8010E94143087FD22
:100EB000FFC2A70196016091FC097091FD09809124
:100EC000FE099091FF090E94143087FDF1C2109233
:100ED0009009109291091092920910929309109220
:100EE00094091092950910929609109297096091B1
:100EF0008409709185098091860990918709609392
:100F000098097093990980939A0990939B0960932B
:100F10009C0970939D0980939E0990939F0900916D
:100F200090091091910920919209309193090093B1
:100F3000A0091093A1092093A2093093A30900915D
:100F40009409109195092091960930919709009381
:100F5000A4091093A5092093A6093093A7090E941C
:100F6000FE2E6B017C0151D6811106C3C701B6016B
:100F700007D6811101C320E030E040E857E4C70103
:100F8000B6010E94182F6B017C0120E030E0A9011E
:100F90000E94242E87FFF3C2C701B60190580E9419
:100FA000952E00271127061B170B6CE070E080E0E0
:100FB00090E01CDB7C019093DF098093DE09609157
:100FC0006802709169026017710744F060916A02CB
:100FD00070916B02601771070CF4B80177FF02C0C3
:100FE00070E060E06F3F710519F014F06FEF70E092
:100FF000072E000C880B990B0E94C32EAB01BC017D
:10100000C701BDDA69E070E080E090E0EFDA7C01D2
:101010009093D7098093D60960916C0270916D020C
:101020006017710744F060916E0270916F02601753
:1010300071070CF4B80177FF03C0719561957109D0
:101040006F3F710519F014F06FEF70E0072E000C80
:10105000880B990B0E94C32EAB01BC01C7018FDA2C
:101060006BE070E080E090E0C1DA7C019093CF0902
:101070008093CE09609170027091710260177107C0
:1010800044F06091720270917302601771070CF462
:10109000B80177FF03C07195619571096F3F7105C4
:1010A00019F014F06FEF70E0072E000C880B990B0D
:1010B0000E94C32EAB01BC01C70161DA6AE070E097
:1010C00080E090E093DA7C019093C7098093C60991
:1010D00060917402709175026017710744F060911D
:1010E000760270917702601771070CF4B80177FFF0
:1010F00002C070E060E06F3F710519F014F06FEF0F
:1011000070E0072E000C880B990B0E94C32EAB01D8
:10111000BC01C70134DA61E08091640290916502FC
:101120008017910709F460E088E04BDC61E0809172
:101130006602909167028017910709F460E08DE0E4
:1011400040DC8091F0099091F109A091F209B091F1
:10115000F30989879A87AB87BC8740901C0A509017
:101160001D0A60901E0A70901F0AA3019201BC0123
:10117000CD010E94242EE0915B04F0915C0481116A
:1011800004C280819181A281B3818093F009909300
:10119000F109A093F209B093F309E4EFF9E080912B
:1011A000880990918909A0918A09B0918B0980835F
:1011B0009183A283B38380918C0990918D09A09132
:1011C0008E09B0918F0984839583A683B78340915C
:1011D00048045091490460914A0470914B0490E096
:1011E00080E0F5DC4091500450915104609152042C
:1011F0007091530481E090E0EADC609148047091C2
:10120000490480914A0490914B046F5F7F4F8F4F48
:101210009F4F609348047093490480934A049093CD
:101220004B0400915B0410915C040E94C12E9B0151
:10123000AC0160914C0470914D0480914E049091EA
:101240004F040E941830D8016D937D938D939C9329
:1012500013978091500490915104A0915204B09141
:1012600053040196A11DB11D809350049093510425
:10127000A0935204B093530463960FB6F894DEBF64
:101280000FBECDBFDF91CF911F910F91FF90EF90D7
:10129000DF90CF90BF90AF909F908F907F906F9096
:1012A0005F904F903F902F900895A7019601F10114
:1012B00060817181828193810E94143010E000E08E
:1012C00087FF38C0A7019601C501B4010E94242EF2
:1012D00009E010E0181674F50091120A1091130A33
:1012E0005801AA0CBB1CAA0CBB1C41018A0C9B1CFC
:1012F000A7019601D4016D917D918D919C910E94E1
:101300001430B4E0AB0EB11CA20CB31C18160CF0D8
:101310005CC0E4E08E1A9108A7019601D4011496EE
:101320006D917D918D919C9117970E9414301816A4
:101330000CF446C080910A0A90910B0A9A8789871B
:101340001093130A0093120A000F111F000F111FB0
:10135000F101E00FF11F4080518062807380D8015D
:101360001496BE87AD87FD01E20DF31D808191814A
:10137000A281B3818F87988BA98BBA8B9C01AD0119
:10138000C301B2010E94242E811133C0A301920136
:10139000C701B6010E94242E87FF24C0A985BA8503
:1013A0000A0F1B1FF80180819181A281B381809374
:1013B000840990938509A0938609B0938709D5CCB9
:1013C00001501109A6CF0F5F1F4FF5016191719177
:1013D000819191915F01A70196010E94242E181618
:1013E00094F7A8CFE985FA858D859E85E80FF91FCA
:1013F000DACFA985BA850A0F1B1FF801808091807A
:10140000A280B380FD018D859E85E80FF91F808144
:101410009181A281B38189879A87AB87BC879C0120
:10142000AD01C501B4010E94242E8823C1F1A7019A
:1014300096016F85788989899A890E94BF2D6B01F1
:101440007C01A30192016F85788989899A890E941C
:10145000BF2D9B01AC01C701B6010E94282E6B0174
:101460007C01AC019B0160E070E080E89FE30E949A
:10147000BF2D29853A854B855C850E9418302B014C
:101480003C01A5019401C701B6010E9418309B01DF
:10149000AC01C301B2010E94C02D4B015C018092DE
:1014A000840990928509A0928609B09287095DCC43
:1014B0009091FC099987A091FD09AD87B091FE0933
:1014C000BF87E091FF09EB8B292F3A2F4B2F5E2F1F
:1014D000B101C8010E94242EA701960187FF43C0D5
:1014E00069857D858F859B890E94242E87FD41C05B
:1014F00029863D860F871B8B04EF19E029853D85E2
:101500004F855B89C701B6010E94BF2D6B017C012D
:10151000D8012D913D914D915C91C301B2010E9482
:10152000BF2DA70196010E94282E60939009709309
:1015300091098093920990939309F8012481358150
:1015400046815781C501B4010E94BF2DA7019601B4
:101550000E94282E609394097093950980939609B0
:1015600090939709C4CCB101C8010E94143087FD43
:10157000BFCF00E01AE0C2CFC12CD12C7601C70149
:10158000B6010E94952E8B0110CD8090FC099090A1
:10159000FD09A090FE09B090FF09C080D180E280D3
:1015A000F380A5019401C301B2010E94242E811190
:1015B0000BC0C092FC09D092FD09E092FE09F092A6
:1015C000FF09E0E0FAE0EBCDA501940169857A8599
:1015D0008B859C850E94242E87FFEBCFC092F0095B
:1015E000D092F109E092F209F092F309D6CD8F92F0
:1015F0009F92AF92BF92DF92EF92FF920F931F9351
:10160000CF93DF9384E090E084D2EEEAF3E088E5C4
:1016100094E097838683CBE5D4E0D093EF03C09327
:10162000EE030CE414E0158B048BF0931904E093A3
:101630001804F583E48321E030E0DC012D933C9332
:1016400081EB92E0938782872DE534E0398328830C
:1016500040E050E060E271E440935404509355043C
:1016600060935604709357044DEC5CEC6CEC7DE396
:10167000D8014D935D936D937C931397C6E3D4E0AB
:1016800081E692E0AAECB4EF88839983AA83BB83B6
:1016900080E298E4A6E6B0E980933A0490933B0494
:1016A000A0933C04B0933D0489E896EEA0EEB2E826
:1016B00080933E0490933F04A0934004B093410470
:1016C00086E592EEA7EAB3E2809342049093430446
:1016D000A0934404B0934504A2EAB3E0B383A28389
:1016E000E0E9F3E01196FC93EE9383EC92E09183B2
:1016F0008083938382839583848397838683918772
:101700008087938782879587848797878687918B41
:10171000808B86E494E015969C938E931497139691
:10172000DC93CE93129717963C932E931697C8EAA4
:10173000D9E08CE292E09093090A8093080A80E055
:1017400092E090930B0A80930A0A1092130A109267
:10175000120A80911C0A90911D0AA0911E0AB09154
:101760001F0A8093F0099093F109A093F209B093B6
:10177000F3098093FC099093FD09A093FE09B093AF
:10178000FF091F8A1C8608E512E0F801808191811B
:10179000A281B3818B8B9C8BAD8BBE8B812C912CCA
:1017A000540183948D869E86AF86B88A4FEB59E0AC
:1017B00063E182E10E949401DD24D394D98A1A8ADC
:1017C0008F890E94AF021B861882F801848195815F
:1017D000A681B7818F839887A987BA8789829A82E1
:1017E000AB82BC8243EB59E063E082E00E9494014B
:1017F000DD821E828B850E94AF0218AA89AA9AAA4E
:10180000ABAABCAAE12CF12C8701A80197016CE0DE
:1018100070E080E090E00E943A039FAB8EABDDAABF
:1018200018A689A69AA6ABA6BCA6A801970169E04E
:1018300070E080E090E00E943A039FA78EA7DDA6AB
:1018400018A289A29AA2ABA2BCA2A80197016BE040
:1018500070E080E090E00E943A039FA38EA3DDA297
:10186000188E898E9A8EAB8EBC8EA80197016AE085
:1018700070E080E090E00E943A039F8F8E8FDD8EB3
:101880001092E8098092E9099092EA09A092EB0986
:10189000B092EC0961E088E08CD8D092ED0918AEE6
:1018A00089AE9AAEABAEBCAE61E08DE082D8DDAE63
:1018B000DF91CF911F910F91FF90EF90DF90BF903C
:1018C000AF909F908F9008958091B409811114C0BA
:1018D00081E08093B4098091B5099091B609A091F7
:1018E000B709B091B8090197A105B10529F4809114
:1018F000B90981110E94BC028091A809811114C00C
:1019000081E08093A8098091A9099091AA09A091EA
:10191000AB09B091AC090197A105B10529F48091FB
:10192000AD0981110E94BC028091D80981112EC09D
:1019300081E08093D8098091D9099091DA09A0912A
:10194000DB09B091DC090197A105B105F9F480919B
:10195000DD098823D9F06CE070E080E090E00E941F
:10196000F6029093DF098093DE0940E050E0BA016F
:101970000E94BF026CE070E080E090E00E94F602FE
:101980009093DF098093DE090E948B038091D00938
:1019900081112EC081E08093D0098091D10990916E
:1019A000D209A091D309B091D4090197A105B1053D
:1019B000F9F48091D5098823D9F069E070E080E0DE
:1019C00090E00E94F6029093D7098093D60940E0F8
:1019D00050E0BA010E94BF0269E070E080E090E050
:1019E0000E94F6029093D7098093D6090E948B0338
:1019F0008091C80981112EC081E08093C80980912F
:101A0000C9099091CA09A091CB09B091CC0901975D
:101A1000A105B105F9F48091CD098823D9F06BE0D7
:101A200070E080E090E00E94F6029093CF098093EE
:101A3000CE0940E050E0BA010E94BF026BE070E0C6
:101A400080E090E00E94F6029093CF098093CE0947
:101A50000E948B038091C00981112EC081E0809388
:101A6000C0098091C1099091C209A091C309B091A8
:101A7000C4090197A105B105F9F48091C50988232E
:101A8000D9F06AE070E080E090E00E94F602909366
:101A9000C7098093C60940E050E0BA010E94BF0226
:101AA0006AE070E080E090E00E94F6029093C7093F
:101AB0008093C6090E948B038091E809811103C0BD
:101AC00081E08093E8098091E009811103C081E001
:101AD0008093E009089560E070E080E89FE7089552
:101AE00060E070E080E89FE7089560E070E080E8E3
:101AF0009FEF089560E070E080E89FEF089560E058
:101B000070E080EC9FEF089560E070E080EC9FEF64
:101B10000895F5DF6093200A7093210A8093220ACA
:101B20009093230AF1DF6093140A7093150A80934F
:101B3000160A9093170ACFDF60931C0A70931D0A50
:101B400080931E0A90931F0ACBDF6093180A70934C
:101B5000190A80931A0A90931B0AC7DF6093240A1C
:101B60007093250A8093260A9093270AC3DF609317
:101B7000280A7093290A80932A0A90932B0A0895C1
:101B8000CF92DF92EF92FF92CF936B017C01AC0179
:101B90009B0160911C0A70911D0A80911E0A909110
:101BA0001F0A0E94242EC1E0882371F0A70196012C
:101BB0006091240A7091250A8091260A9091270A43
:101BC0000E94242E8111C0E08C2FCF91FF90EF90C6
:101BD000DF90CF9008950F931F938B019C010027F6
:101BE000112720783F770115110520483F4749F418
:101BF000AB01BC016F77772781E0452B462B472B44
:101C000009F480E01F910F910895E5CF4F925F9204
:101C10006F927F928F929F92AF92BF92CF92DF92FC
:101C2000EF92FF920F931F93F8944090710450909D
:101C300072046090730470907404C0906504D09036
:101C40006604E0906704F09068044130510509F0A3
:101C5000A6C09B01AC012419350946095709290181
:101C60003A0100916D0410916E0420916F0430913F
:101C7000700448015901840C951CA61CB71C8016E1
:101C80009106A206B306A0F40091690410916A04BB
:101C900020916B0430916C040F5F1F4F2F4F3F4F0B
:101CA0000093690410936A0420936B0430936C04CE
:101CB00080926D0490926E04A0926F04B0927004B2
:101CC0000091690410916A0420916B0430916C04B6
:101CD0008092750490927604A0927704B092780472
:101CE0000093790410937A0420937B0430937C044E
:101CF00060937104709372048093730490937404DE
:101D0000A301920160EA76E881E090E00E948038C9
:101D10006C0D7D1D8E1D9F1D609365047093660480
:101D2000809367049093680400917802109179027F
:101D300020917A0230917B020F3F1F4F2F4F3F4F70
:101D4000F1F0009178021091790220917A0230919D
:101D50007B020E3F1F4F2F4F3F4F89F0C0907802FC
:101D6000D0907902E0907A02F0907B0221E08C140E
:101D70009D04AE04BF0408F420E02093810478940D
:101D80001F910F91FF90EF90DF90CF90BF90AF9099
:101D90009F908F907F906F905F904F9008954B0130
:101DA0005C0184189508A608B708A3019201261BB8
:101DB000370B480B590B6415750586059705E0F040
:101DC00082169306A406B50640F420E030E0A9018F
:101DD00081149104A104B104A1F460EA76E881E0E1
:101DE00090E00E948038A7019601261B370B480B14
:101DF000590BCA01B901C3CF82169306A406B506D2
:101E000060F7A501940160EA76E881E090E00E9425
:101E100080386C0D7D1D8E1D9F1DB1CFF7CECF93E9
:101E2000DF9300D01F92CDB7DEB71C821B821A82CF
:101E3000198210927D0410927E0410927F041092F9
:101E40008004BE016F5F7F4FCE0103960E940C2C71
:101E500069817A818B819C810E94FA24009761F4C8
:101E6000BE016F5F7F4FCE0103960E94182C6981DF
:101E70007A818B819C812FD50F900F900F900F90BE
:101E8000DF91CF910895FF920F931F93CF93DF932C
:101E9000082F60E070E0CB010E94BD32FF24F39474
:101EA0000E94E323EC01892B89F010E0CE3F8FEFF5
:101EB000D80769F0002361F160E070E0CB010E9477
:101EC000BD3281E090E0892B59F322C011E026D584
:101ED000EC01892B21F0CE3F8FEFD80759F7111174
:101EE0001EC011E0229609F410E00E949323EC0139
:101EF000892B21F0CE3F8FEFD807E1F6111111C0E9
:101F000011E0CE3F8FEFD80709F410E001110BC0AC
:101F1000CE01DF91CF911F910F91FF90089511E0B5
:101F2000E4CF11E0F3CF60E070E0CB010E94BD325E
:101F30001F25812F90E0C7CFCF93DF93809181043D
:101F4000882321F060E070E0CB014DD636D6D0E09A
:101F5000C0E0892B71F06AE070E080E090E00E94C0
:101F6000BD3281E090DF29D62196C03D27E0D2071F
:101F700081F728D60E944E25109299041092980459
:101F8000109292041092930410929404109295046B
:101F900010928E0410928F0410929004109291046B
:101FA00010928A0410928B0410928C0410928D046B
:101FB000109286041092870410928804109289046B
:101FC000109282041092830410928404109285046B
:101FD0004EEF5FEF6FEF7FEF4093780250937902FF
:101FE00060937A0270937B0210928104E5E7F4E03B
:101FF00028E0DF011D922A95E9F7109271041092F2
:102000007204109273041092740410926D04109272
:102010006E0410926F041092700410926904109272
:102020006A0410926B0410926C0410926504109272
:1020300066041092670410926804DF91CF910895AE
:102040001092A5041092A6041092A7041092A8045E
:102050001092A4048091AD049091AE049093A304D7
:102060008093A2041092A1041092A00410929C04E8
:1020700010929D0410929E0410929F041092AA0444
:102080001092A90490E080E00895CF92DF92EF9241
:10209000FF920F931F93CF938C01019709F055C0C6
:1020A0002091AD043091AE048091A2049091A304DC
:1020B0004091AD045091AE045093A3044093A20408
:1020C0002817390781F01092A1041092A0041092F1
:1020D0009C0410929D0410929E0410929F041092F2
:1020E000AA041092A9048091AD049091AE040197C6
:1020F00061F58091A9049091AA04892B21F4809123
:102100007C02811112C08091A9049091AA040197C8
:10211000E1F480919C0490919D04A0919E04B09163
:102120009F040197A105B10581F410929C041092BF
:102130009D0410929E0410929F0410927C0282E0F3
:1021400090E09093AA048093A9048091AD049091AB
:10215000AE04019709F01CC18091C3049091C4049E
:102160008017910709F014C18091BF049091C004B9
:10217000A091C104B091C204009709F409C1209153
:10218000BE0421110DC04091BF045091C004609164
:10219000C1047091C204452B462B472B09F4F8C0AB
:1021A0002091A9043091AA042230310509F0F0C031
:1021B0002091A0042111ECC0FC01C080D180E280FC
:1021C000F3808091A404882309F4D3C08091B004E3
:1021D0009091B104892B09F4FEC02091B004309194
:1021E000B10481E02230310509F080E02091B00493
:1021F0003091B104C1E02130310549F02091B004A3
:102200003091B104C1E02230310509F0C0E08823EB
:1022100009F456C02091BA043091BB044091BC042B
:102220005091BD04C701B6010E94143087FD14C04F
:102230002091BA043091BB044091BC045091BD047C
:102240006091A5047091A6048091A7049091A804C0
:102250000E94242E87FD22C02091BA043091BB0435
:102260004091BC045091BD04C701B6010E941430D6
:10227000181634F52091BA043091BB044091BC0487
:102280005091BD046091A5047091A6048091A704AB
:102290009091A8040E94242E811112C08091B20452
:1022A0009091B304A091B404B091B504892B8A2B0A
:1022B0008B2B19F481E08093A10481E08093A0042A
:1022C000CC2309F456C02091BA043091BB0440914C
:1022D000BC045091BD04C701B6010E94242E87FFA3
:1022E00014C02091BA043091BB044091BC045091B9
:1022F000BD046091A5047091A6048091A7049091FB
:10230000A8040E94143087FF22C02091BA043091A3
:10231000BB044091BC045091BD04C701B6010E94AA
:10232000242E811126C02091BA043091BB04409123
:10233000BC045091BD046091A5047091A6048091E5
:10234000A7049091A8040E941430181694F4809168
:10235000B2049091B304A091B404B091B504892B58
:102360008A2B8B2B19F481E08093A10481E0809368
:10237000A00481E09091A004911180E08093A404D6
:10238000C092A504D092A604E092A704F092A804FB
:102390000130110509F067C18091A9049091AA0448
:1023A000892BD9F41092AF041092A00480917C0282
:1023B000882379F082E090E09093AA048093A904A6
:1023C00010927C022091AD043091AE0481E0232B69
:1023D000E9F080E01BC081E009CF10927C0280917F
:1023E000AF04882349F01092A1041092AA0410921D
:1023F000A9041092AF04EDCF8091AD049091AE048A
:10240000892BE1F08091A0041092A0042091A904EE
:102410003091AA042230310509F45EC088F42115F8
:10242000310509F448C02130310509F4F3C0109298
:10243000A1041092A0041092AF0438C081E0E6CF4E
:102440002330310509F4B1C02430310581F74091C2
:102450009C0450919D0460919E0470919F044115CD
:1024600051056105710561F041505109610971091A
:1024700040939C0450939D0460939E0470939F042A
:1024800040919C0450919D0460919E0470919F0422
:10249000452B462B472BD9F42091AB043091AC044B
:1024A0002130310509F046C01092A1041092AA040F
:1024B0001092A9040CC080917C02882341F082E034
:1024C00090E09093AA048093A90410927C02109249
:1024D0009A048091A104CEC08823C9F38091B204EC
:1024E0009091B304A091B404B091B50418161906E4
:1024F0001A061B060CF07DC08091AD049091AE04CD
:10250000019709F076C08091B2049091B304A09134
:10251000B404B091B50480939C0490939D04A0935F
:102520009E04B0939F0483E090E09093AA0480936C
:10253000A904CDCF4091B6045091B7046091B8047E
:102540007091B904452B462B472BA9F01092A1049A
:102550008091B6049091B704A091B804B091B904E9
:1025600080939C0490939D04A0939E04B0939F0439
:1025700081E090E0DACF882399F080917D029091FC
:102580007E02A0917F02B091800280939C04909380
:102590009D04A0939E04B0939F0484E090E0C5CF77
:1025A0001092A10482E090E0C0CF80919C049091B1
:1025B0009D04A0919E04B0919F040097A105B105D0
:1025C00059F00197A109B10980939C0490939D044F
:1025D000A0939E04B0939F0480919C0490919D04CD
:1025E000A0919E04B0919F04892B8A2B8B2B09F01C
:1025F0006ECF80917D0290917E02A0917F02B0917A
:102600008002892B8A2B8B2B09F44ECF81E080939B
:10261000A104B3CF40919C0450919D0460919E040D
:1026200070919F04411551056105710561F041509C
:1026300051096109710940939C0450939D04609372
:102640009E0470939F0440919C0450919D0460915E
:102650009E0470919F04452B462B472B09F037CFE2
:102660008111C7CF9FCF80919A04882309F431CF7D
:1026700080919B04CF911F910F91FF90EF90DF907D
:10268000CF9008951092A5041092A6041092A7046A
:102690001092A8041092A4041092AA041092A90403
:1026A0001092A3041092A2041092C4041092C304C6
:1026B0001092A1041092A00410929C0410929D0408
:1026C00010929E0410929F0410929B0410929A0400
:1026D0001092BF041092C0041092C1041092C20460
:1026E0001092BE041092BA041092BB041092BC0463
:1026F0001092BD0488EE93E0A0E0B0E080937D02EC
:1027000090937E02A0937F02B09380021092B60451
:102710001092B7041092B8041092B9041092B20447
:102720001092B3041092B4041092B5041092B10444
:102730001092B00481E080937C021092AF0410925A
:10274000AE041092AD041092AC041092AB0490E071
:1027500080E008958091AD049091AE04892B19F525
:1027600080917C02882351F08091AF04811106C0D2
:1027700081E080939B0480939A0408952091AF0494
:1027800030917C0281E090E0332311F090E080E012
:1027900030E082239323892B21F010929B0481E067
:1027A000EACF10929A04089582E090E0FA019183B2
:1027B00080838FEF9FEF0895CF93DF93EA01009717
:1027C00011F00E946E261982188290E080E0DF915D
:1027D000CF910895DB01009719F48FEF8C93089542
:1027E0002EEF2C93FC013F96EF30F10508F034C03A
:1027F0008827E250FC4E8F4F0C94C5382A142814B9
:102800002614241422141E1420141C141A14181430
:10281000151411140D1413142C1480E311968C93B9
:10282000089589E2FBCF82E2F9CF11961C920895B8
:1028300083E2F4CF81E2F2CF81E1F0CF87E2EECF05
:102840008AE2ECCF80E1EACF84E2E8CF88E2E6CF0B
:1028500086E2E4CF81E3E2CF80E2E0CF8091D10451
:102860009091D20408959093D2048093D104089556
:102870008091D00408959091D004892B8093D00446
:102880000895982F90958091D00489238093D00447
:1028900008958091CF0408958091CD049091CE0445
:1028A00008956115710559F0FB0130E020E070E0FA
:1028B00060E02417350719F06115710511F0CB019F
:1028C0000895A081B181A817B90709F4BF012F5F4E
:1028D0003F4F3696EECF8091D30481111CC060D259
:1028E00066D29093C6048093C5040E946C1E0E9419
:1028F0007E1E9093CA048093C9040E94FB220E940A
:1029000002239093C8048093C70481E08093D3048A
:1029100090E080E0089584EF9FEF08958F929F925A
:10292000AF92BF92CF92DF92EF92FF920F931F93DD
:10293000CF93DF9300D000D000D01F92CDB7DEB789
:102940001A86198618861F821E821D821C821B828F
:102950001A8219828091D30407EF1FEF882309F4AC
:102960009CC08E010D5F1F4F9E012B5F3F4FAE013C
:10297000495F5F4FBE01675F7F4F90E080E00E943C
:102980007F248C01009721F00596029708F0DBC0A8
:1029900029853A852115310509F402C1ED80FE80B3
:1029A0004B815C81B701640F751F8F8198858617F5
:1029B000970708F4F5C0E20EF31ED7019C91903CF6
:1029C00009F07FC04230510508F47BC011968C910C
:1029D0004091D1045091D204452B09F49CC0913F01
:1029E00008F071C02CE1290F2D3008F48BC02DE2C6
:1029F000290F203108F489C0903C21F481508230A5
:102A000008F483C088E3890F8B3008F481C09AEE04
:102A1000C92E93E1D92EE4EDF3E16D817E81AE0103
:102A20004F5F5F4F89859A8519955C01C114D10468
:102A3000A1F189809A808114910479F18B819C8124
:102A40008815990508F487C010E000E04B815C818F
:102A500070E060E0C7010E94EF3801151105E9F44C
:102A600049815A8169857A858D819E81680F791F98
:102A7000C501F6011995E980FA800D811E812F812B
:102A8000388549855A856FEF7FEF81E090E00E949D
:102A90001A248C01892B09F056C0C8012A960FB65A
:102AA000F894DEBF0FBECDBFDF91CF911F910F9184
:102AB000FF90EF90DF90CF90BF90AF909F908F905E
:102AC000089580E085CF30E020E0220F331FF90128
:102AD000EB53FB4F0190F081E02D309709F497CF35
:102AE000892F90E01995009709F491CFDC01129697
:102AF000ED91FC9113971496CD90DC90309709F0EE
:102B00008CCF1FC021E030E0E0CF22E030E0DDCF0D
:102B100023E030E0DACFD12CC12CECEDF3E19F3F84
:102B200009F07BCFE091C504F091C604309721F401
:102B3000C90104EF1FEF0CC08FEF90E019950097CB
:102B4000A9F604EF1FEF89859A85009709F4A5CFB0
:102B50000E946E26A2CF0E9449258C0189859A8504
:102B60000E946E2670E060E0C4010E94E224988713
:102B70008F830E9417249E838D836F8178856115D2
:102B8000710559F0C8010E94FA279A87898706EFD4
:102B90001FEF892B09F058CF59CF08EF1FEF56CF01
:102BA00008EF1FEFD0CF2091D304222319F020E0AB
:102BB0000C94831E87EF9FEF08958091D10490912C
:102BC000D20408950E9407230E946122F5D0E5EC0B
:102BD000F4E088E0DF011D928A95E9F71092D304B2
:102BE00090E080E008950C94BF2021E040E050E0A8
:102BF000BA010C94831E86E090E0FA0191838083F1
:102C000090E080E0089547E050E066EC72E049CE45
:102C1000DF92EF92FF920F931F93CF93DF938A017E
:102C2000EC01C60FD71FE090D704F090D804D980EC
:102C30000E943125D816190678F082E090E0F8015C
:102C4000918380838EEF9FEFDF91CF911F910F9142
:102C5000FF90EF90DF900895EF2841F482E090E03C
:102C6000F8019183808384EF9FEFEECF8981809379
:102C7000D60490E00196F8019183808390E080E093
:102C8000E3CFCF93DF93EA010E947021882321F0E4
:102C90000E943E250E94712182E090E09983888302
:102CA0008BEF9FEFDF91CF910895CF93DF93EB01EF
:102CB00086E0FB0111928A95E9F78FEF8883D8DDD2
:102CC0008983E7DD8A83E8DD9D838C83DF91CF9163
:102CD0000895CF93DF93EA010E947321811109C007
:102CE00082E090E09983888385EF9FEFDF91CF9119
:102CF000089590E080E0B7DD81E090E099838883DB
:102D000090E080E0F3CF0F931F93CF93DF93EA011E
:102D10008C01060F171F0E94732181110BC082E0E6
:102D200090E09983888385EF9FEFDF91CF911F918A
:102D30000F910895F8018181823038F082E090E0AF
:102D4000998388838EEF9FEFF0CF81E090E08BDD59
:102D500088E090E09983888390E080E0E6CFCF938D
:102D6000DF930097D1F4EB01FB01329686E0DF019F
:102D70001D928A95E9F78FEF888385E089831A820F
:102D80000E9431258B830E9430259D838C8381E0B6
:102D90008E838F83DF91CF910895DF91CF911ACDEC
:102DA00083E096E19093D5048093D40408958091B4
:102DB000D4049091D50408951092D5041092D404AF
:102DC00008958091D7049091D8040895411105C0C9
:102DD000611571058105910561F06093D7047093C9
:102DE000D8048093D9049093DA044093DB0481E003
:102DF000089580E00895FF920F931F93CF93DF9380
:102E00008A01EC01C60FD71FF9800E943125F81600
:102E1000190668F082E090E0F801918380838EEFDC
:102E20009FEFDF91CF911F910F91FF9008956C81DB
:102E30007D818E819F814B81C9DF811108C082E035
:102E400090E0F8019183808384EF9FEFEACF89813E
:102E50008093D60490E00196F8019183808390E0FE
:102E600080E0DFCFCF93DF93EA01FC01E60FF71F8D
:102E700064817581868197814381A8DF811109C0B2
:102E800082E090E09983888384EF9FEFDF91CF9178
:102E9000089581E090E09983888390E080E0F6CF08
:102EA000E7EDF4E04081518162817381480F511D4B
:102EB000611D711D40835183628373830895CF9395
:102EC000C091D6044C2F50E06091D7047091D80483
:102ED00001960E94E6388C2FE3DF1092D604CF9142
:102EE0000895009799F48091D7049091D8042FEF1A
:102EF000FB012083892B59F02091D60430E02F5F0D
:102F00003F4F2417350719F4CB01D9CF63CC08956F
:102F1000009799F48091D7049091D8042FEFFB018A
:102F20002083892B59F02091D60430E02F5F3F4F4A
:102F30002417350719F4CB01C2CF4CCC089523E1F7
:102F4000AC01249FC001259F900D1124E091E00465
:102F5000F091E104E80FF91F2381348122503109F7
:102F600081E02230310508F080E008950F931F932F
:102F7000CF93DF930091E2041091E304D0E0C0E02E
:102F800080E00C171D0749F491E0811190E0892F32
:102F9000DF91CF911F910F9108958111F5CFCE014F
:102FA000CEDF2196EECFA091E004B091E10410971E
:102FB00029F12091E2043091E30482179307F0F4A1
:102FC00053E1589F9001599F300D1124A20FB31F58
:102FD000ED91FC911197309789F012968C916817BA
:102FE00068F48DE0689FE00DF11D112480819181CE
:102FF000892B21F081E09281491708F080E0089543
:103000009C0143E1429FC001439F900D1124E09138
:10301000E004F091E104E80FF91F8385823091F418
:1030200081E090E065817681409181025091820239
:103030006417750711F490E080E0892B19F081E0A6
:10304000232B09F080E00895FC01A081B1818DE07F
:10305000689FA00DB11D112413964D915C9185853B
:103060009685489F9001499F300D589F300D11243F
:10307000C9010196611103C0478144FD049608957A
:10308000EF92FF920F931F93CF93DF93EA01FC011E
:10309000E60FF71F02811381E480F5804F2D6E2D1E
:1030A000C80181DF81110DC082E090E0998388839F
:1030B0008EEF9FEFDF91CF911F910F91FF90EF90D7
:1030C0000895C8013CDF882339F082E090E09983BD
:1030D000888388EF9FEFEECF1093880200938702DA
:1030E000E0928902F0928A0281E090E099838883DD
:1030F00090E080E0DFCFCF92DF92EF92FF920F93CC
:103100001F93CF93DF937A01EC01C60FD71FC090B6
:103110008702D09088020091890210918A02412F83
:10312000602FC60140DF811110C082E090E0F701FE
:10313000918380838AEF9FEFDF91CF911F910F9151
:10314000FF90EF90DF90CF900895C601F8DE8823BE
:1031500041F082E090E0F7019183808388EF9FEF58
:10316000EBCF4C815D816E817F819A8189818F3F18
:1031700041F082E090E0F701918380838EEF9FEF32
:10318000DBCFE3E1EC9D9001ED9D300D1124E0914A
:10319000E004F091E104E20FF31F0190F081E02DD3
:1031A0002DE0029FE00DF11D11240190F081E02D32
:1031B00027E0129FE00DF11D1124808391838B8104
:1031C000828343835483658376831F5F10938A02CF
:1031D00081E090E0F7019183808390E080E0ACCFC4
:1031E000EF92FF920F931F93CF93DF937A018C019D
:1031F000060F171FC091E004D091E104209781F0E1
:1032000021E030E0F801828193814091E204509105
:10321000E3048417950710F030E020E0232B71F4CD
:1032200082E090E0F701918380838EEF9FEFDF9142
:10323000CF911F910F91FF90EF90089543E1489F28
:103240009001499F300D1124C20FD31F78DE8823CF
:1032500041F082E090E0F7019183808388EF9FEF57
:10326000E6CFF8012481358120383105C8F6878101
:103270008111D6CF4181842F90E08F7E009741F05D
:1032800082E090E0F7019183808386EF9FEFCFCFBC
:103290004F833E832D83268128871986223010F4A0
:1032A00021E0288721E030E0F70131832083BFCF80
:1032B00088E090E0FA019183808390E080E00895B7
:1032C000FB018FEF808381E181838FEF9FEF9383F9
:1032D000828380E890E09583848316821782089524
:1032E000FB018FEF808391E09183828393838483BA
:1032F00084E3858381E090E0978386830895DF925D
:10330000EF92FF920F931F93CF93DF93EA01FC019B
:10331000E60FF71F8181813071F082E090E09983A0
:1033200088838FEF9FEFDF91CF911F910F91FF90D7
:10333000EF90DF90089582819381D4802581E6808B
:10334000F7800091E0041091E1040115110539F4B2
:1033500082E090E0998388838CEF9FEFE4CF4091E7
:10336000E2045091E3048417950738F082E090E07E
:10337000998388838EEF9FEFD6CF892B39F082E037
:1033800090E09983888386EF9FEFCDCF8D2D8D7F41
:10339000B1F72130A1F781E0D11006C091E0E91624
:1033A000F10431F080E004C0E2E0EE16F104D0F365
:1033B000882329F390E080E0C2DD882339F082E0A1
:1033C00090E09983888388EF9FEFADCFF801D38693
:1033D00081E08487F686E586108A178681E090E092
:1033E0009983888390E080E09ECF4CE050E060EFCE
:1033F00072E057CA8F929F92BF92CF92DF92EF9264
:10340000FF920F931F93CF93DF93EA01FC01E60F26
:10341000F71F828193810481B580E091E004F091EF
:10342000E104309791F482E090E0998388838CEFF7
:103430009FEFDF91CF911F910F91FF90EF90DF9061
:10344000CF90BF909F908F9008952091E20430918B
:10345000E3048217930738F082E090E09983888331
:103460008EEF9FEFE6CF23E1289F6001299FD00CCC
:103470001124EC0DFD1DE080F180E114F10499F2BE
:103480008281081748F78DE0089F80011124E00E23
:10349000F11EF70180819181892B29F6BB20E1F291
:1034A000F7E0BF9E40011124C4010E943526F701B8
:1034B00091838083E091E004F091E104EC0DFD1D27
:1034C0000190F081E02DE00FF11F80819181009744
:1034D00039F482E090E0998388838DEF9FEFA9CF44
:1034E000A40170E060E00E94EF388091E0049091C8
:1034F000E104C80ED91EF60180819181080F191FC1
:10350000F801B28281E090E09983888390E080E0C6
:1035100090CFAF92BF92CF92DF92FF920F931F9303
:10352000CF93DF93EA01FC01E60FF71F82819381BD
:10353000F4800091E0041091E1040115110581F47B
:1035400082E090E0998388838CEF9FEFDF91CF91A9
:103550001F910F91FF90DF90CF90BF90AF90089593
:103560002091E2043091E3048217930738F082E05F
:1035700090E0998388838EEF9FEFE8CF2FEF2F0D98
:103580002C3FA8F723E1289F6001299FD00C11242C
:103590000C0D1D1DF80180819181892B89F6FDE0BC
:1035A000FF9E50011124C5010E943526F801918328
:1035B0008083E091E004F091E104EC0DFD1D808139
:1035C0009181009739F482E090E0998388838DEFB0
:1035D0009FEFBCCFA50170E060E00E94EF38E09162
:1035E000E004F091E104EC0DFD1DF28281E090E039
:1035F0009983888390E080E0A9CFCF92DF92EF9209
:10360000FF920F931F93CF93DF93860F971FFC01B9
:10361000028113818091E0049091E104892B81F073
:1036200082E090E0FA01918380838CEF9FEFDF913D
:10363000CF911F910F91FF90EF90DF90CF90089561
:10364000C801B0E0A0E00197A109B1098F3F9F4FE9
:10365000A105B10540F082E090E0FA0191838083FA
:103660008EEF9FEFE4CF7A0183E1809F6001819F1D
:10367000D00C1124C6010E943526EC01009741F4BC
:1036800082E090E0F701918380838DEF9FEFCFCFB1
:10369000A60170E060E00E94EF38D093E104C0938F
:1036A000E0041093E3040093E20490E080E02FEF45
:1036B0003FEF41E061E070E08017910741F481E065
:1036C00090E0F7019183808390E080E0B0CF3A8B67
:1036D000298B1B864C877E876D87188A1F860196EB
:1036E0006396EACFEF92FF921F93CF93DF93EC01A3
:1036F00010E0F12CE12C6A811617B0F083E0689F8E
:10370000B0011124AE014F5E5F4FC7010E949A269F
:10371000009721F02FEF3FEF3A8B298BDF91CF916C
:103720001F91FF90EF900895612FCE018DDC61E035
:1037300070E00E94E224E816F90608F47C011F5F9D
:10374000DACFF8942091DE043091DF0481E0211576
:10375000310509F080E0232B09F0789408952F9229
:103760003F924F925F926F927F928F929F92AF9211
:10377000BF92CF92DF92EF92FF920F931F93CF935E
:10378000DF933C01660E771EF301828193814C0129
:10379000B12CA12CC091E004D091E104209769F0F4
:1037A00021E030E06091E2047091E304861797070E
:1037B00010F030E020E0232BD1F482E090E0FA0119
:1037C000918380838EEF9FEFDF91CF911F910F91B7
:1037D000FF90EF90DF90CF90BF90AF909F908F9031
:1037E0007F906F905F904F903F902F9008958092C0
:1037F0008B0290928C02A0928D02B0928E0263E1B5
:10380000689F9001699F300D1124C20FD31FF301EF
:103810008181833040F082E090E0FA0191838083DF
:1038200086EF9FEFD1CF2A012B813C81232BF1F42E
:10383000288139819F8191FF2EC0232B09F46FC00D
:103840002091E5049A81422F490F5527551FBA014F
:1038500041E050E06138710514F050E040E0452B44
:1038600009F45DC02A87920F9093E504815082305D
:1038700008F481C066DF882309F4D8C0F301818190
:10388000813009F48DC008F47BC0823009F4C6C0D1
:1038900090E080E0ADC0232B09F441C02091E40406
:1038A0009A81E22FE90FFF27FF1F41E050E0ED3F33
:1038B000F10514F050E040E0452B89F12A87920F82
:1038C0009093E404D3CFA081B181A20FB31F1196CE
:1038D0006C91060F111D0196295F3F4F84179507C4
:1038E00094F38D859E85089F1001099F300C189FC9
:1038F000300C1124C114D104D1F48F8184FF17C07E
:103900000E943025F5E02F0E311C21E08215930531
:1039100008F420E0A701435F5F4F21110EC082E051
:1039200090E0F2019183808387EF9FEF4DCF0E945B
:1039300030252FEF221A320AE8CF88819981E80ECC
:10394000F91EF70114830383FFEFCF1ADF0A7A0110
:103950008A818C151D0409F00CF48CCFE881F98163
:10396000EE0DFF1D428150E030E020E010E000E06D
:1039700090E080E0B3CFF12CE12CD12CC12CE8CF2A
:1039800081E090E09C838B83F1DA882309F480CF77
:1039900081E090E00E94331480E40E94411478CFCB
:1039A00089899A89019661F083E090E09C838B83FA
:1039B00082E090E00E94331480E40E943B1468CFC0
:1039C0008D819E812091810230918202821793071E
:1039D000D1F46091850270918602AE014F5E5F4F17
:1039E00080918302909184020E94B9270097E1F2AE
:1039F000789422E030E0F20131832083892B99F022
:103A00008DEF9FEFE1CE89288A288B2869F60297EF
:103A100058F6CE0167DE188A1F86E8CF82E090E074
:103A20009C838B8335CF90E080E0CECE82E090E027
:103A3000F2019183808385EF9FEFC6CE8F929F9294
:103A4000AF92BF92CF92DF92EF92FF920F931F93AC
:103A5000CF93DF93EA018C01060F171FF8018181D4
:103A6000833098F082E090E09983888386EF9FEF1F
:103A7000DF91CF911F910F91FF90EF90DF90CF904A
:103A8000BF90AF909F908F9008958091E0049091A7
:103A9000E104892B61F081E090E02091E204309113
:103AA000E304232B11F490E080E0892B39F482E0C9
:103AB00090E0998388838EEF9FEFDACF42DE8823F0
:103AC00009F4E0C0F8018181813009F496C0E8F082
:103AD000823099F42091E2043091E304E091E00413
:103AE000F091E10490E080E041E050E028173907D0
:103AF00009F0BEC03BDA811117C0789481E090E0F4
:103B00009983888390E080E0B3CF2091E2043091E4
:103B1000E304E091E004F091E10490E080E041E012
:103B200050E02817390741F481E090E00E943314F7
:103B300080E40E944114E1CF63817481672B11F00E
:103B40005483438301967396ECCFE091E004F091A7
:103B5000E104E00FF11F2381348122303105D9F4D3
:103B6000218932892F3F3F4FB1F425813681409121
:103B70008102509182022417350761F5AF014F5E33
:103B80005F4F6091850270918602809183029091CF
:103B900084020E94B927EFEFCE1ADE0AEE0AFE0A6F
:103BA0000D5E1F4F4091E2045091E30470E060E02D
:103BB000C416D506E606F70644F5009731F2789468
:103BC000892B09F49BCF82E090E0998388838DEF65
:103BD0009FEF4ECFC114D104E104F104E1F622308D
:103BE0003105C8F6CF017EDDE091E004F091E104FB
:103BF000E00FF11F108A1786CECF10E000E090E0B2
:103C000080E0C12CD12C7601CDCF0097C1F610E019
:103C100000E0812C912C540183E0E82EF12C1AC095
:103C2000E091E004F091E104E00FF11F83819481C1
:103C3000029749F4F482E38282E090E00E94331418
:103C400080E40E943B14FFEF8F1A9F0AAF0ABF0A5D
:103C50000D5E1F4F8091E2049091E304B0E0A0E07C
:103C600088169906AA06BB06DCF290E080E0A7CF92
:103C7000638174816230710511F45483438301962A
:103C8000739634CF82E090E09983888385EF9FEF2D
:103C9000EFCE0097B9F48FEFFB01808320918B0268
:103CA00030918C0243E1429FC001439F900D11244B
:103CB000E091E004F091E104E80FF91F8285FB0137
:103CC000818308950C94EA1388E090E0FA019183CF
:103CD000808390E080E008951092DF041092DE046B
:103CE000E0EEF4E086E0DF011D928A95E9F785EFCA
:103CF00099E19093DD048093DC0408958091DC04C5
:103D00009091DD0408952F923F924F925F926F92AF
:103D10007F928F929F92AF92BF92CF92DF92EF925B
:103D2000FF920F931F93CF93DF93CDB7DEB72F97FB
:103D30000FB6F894DEBF0FBECDBFF894E091DE045D
:103D4000F091DF043196F093DF04E093DE04789481
:103D50004090E0045090E1044114510409F40CC275
:103D6000E091E204F091E304EF2B09F405C22D8702
:103D700049875A876B877C8798878F831201B12C7C
:103D8000A12C10E000E08091E2049091E304A816D9
:103D9000B90618F40115110529F1F8948091DE0493
:103DA0009091DF0401979093DF048093DE04789470
:103DB000C8012F960FB6F894DEBF0FBECDBFDF91BE
:103DC000CF911F910F91FF90EF90DF90CF90BF9018
:103DD000AF909F908F907F906F905F904F903F90AB
:103DE0002F9008957101E418F508D10117968C9170
:103DF000179781FD54C013968D919C91149703974A
:103E000009F04DC015968D919C91EF81F8858E1724
:103E10009F0709F044C0B50190E080E07FD48A8319
:103E20002091E0043091E1043D832C833D853323D0
:103E300009F44CC04C815D81452B09F49AC18091F5
:103E4000E2049091E304A816B90608F092C1C501F6
:103E5000D7D88823E9F06C817D816E0D7F1D7D832D
:103E60006C83DB011F968D919C91892B89F0D12C5D
:103E7000C12CF12CE12CAC81BD8112968C91129752
:103E80008E151F0409F094F450961C921E921F97F1
:103E90002A81222321F0B50190E080E041D43FEF58
:103EA000A31AB30A43E1240E311C6DCFAC81BD814E
:103EB000ED91FC91EC0DFD1D858196810FD7BFEF33
:103EC000EB1AFB0AEDE0CE0ED11CD5CFEC81FD81C3
:103ED000309709F44EC18091E2049091E304A81652
:103EE000B90608F046C1EE0DFF1DFF87EE87C5013C
:103EF00087D88B83882339F1AE85BF851F968D9136
:103F00009C915097019621E01D964D915C918417EC
:103F1000950709F020E02E831982712C10E000E053
:103F2000AE85BF8512968C91781608F45DC0EE853B
:103F3000FF85878590890196658576850E948F38F3
:103F4000908B8787A5CFB1E0BE83E6CF9924939469
:103F50006BC08BD6F6019683858382C0D601ED9027
:103F6000FC90B7E06B9EE00CF11C1124F70163811B
:103F7000748180818F3F61F121E030E002C0220F27
:103F8000331F8A95E2F7C901092E000CAA0BBB0B5F
:103F9000FB01408151816281738184239523A62393
:103FA000B72321E0892B8A2B8B2B09F420E0D40145
:103FB0002C93D70111968C91F60123853485820FBD
:103FC000932F911D880E991E1486138663949BC0AF
:103FD000418150E0C4010E94E638EBCF998206EFA0
:103FE0001FEFC5C01982C3C0F981F111A0CFEDE068
:103FF0007E9E70011124AE85BF85CD90DC90CE0CE5
:10400000DF1C15D49D838C83BB81BB2309F49ECF19
:1040100081E0EE85FF8527853089232B09F080E03C
:10402000982E882309F458C0672D8E859F850CD85B
:10403000D60118969C938E93179761E070E0C2D4D6
:10404000EE85FF85218932892F3F320709F481CF20
:10405000BC01C901CFD7D60116969C938E931597B4
:10406000D60115968D919C911697009709F4B6CFBD
:10407000EC81FD818E0F9F1F1A969C938E9319974A
:10408000AE85BF85ED91FC911197EE0EFF1EF701F5
:1040900021853285148613861A968C91870DD90155
:1040A0008D93711016C0EE85FF85878184FF11C046
:1040B00049855A856B857C85F901418352836383E9
:1040C0007483F701838594850496A80FB91F14861D
:1040D0001386F701B287A187D60115968D919C9121
:1040E0001697892B09F443C0EE85FF85258136811B
:1040F00080918102909182022817390779F01996F0
:104100008D909C90612CD60112968C911297681616
:1041100008F424CF1A969C928E921997BE81BB23E5
:1041200009F460CF61E070E0F601878190854AD4A0
:10413000D6011796ED90FC90189715964D915C91CD
:10414000E1E0F0E0BA81BB2311F0F0E0E0E00C81A7
:104150001D819C01B501882799278E1B9F0B6AD36F
:104160008C01892B21F0F60185819681B7D5739456
:10417000D7CE0FEF1FEF8CCE10E000E00ECE2F92C7
:104180003F924F925F926F927F928F929F92AF92E7
:10419000BF92CF92DF92EF92FF920F931F93CF9334
:1041A000DF938091E0049091E10410E000E0892B1E
:1041B000A9F0C7DA0AEF1FEF882381F02090E2040C
:1041C0003090E304C091E004D091E104D12CC12CE3
:1041D00010E000E02C143D04A9F47894C801DF91AC
:1041E000CF911F910F91FF90EF90DF90CF90BF90F4
:1041F000AF909F908F907F906F905F904F903F9087
:104200002F900895C6010E940018882309F18B8120
:104210009C810397E9F48F859889892BC9F0B601B1
:1042200090E080E07BD221E030E0882311F030E0A4
:1042300020E044245524421A530AB12CA12C912C7D
:10424000812C8A818815190409F038F4188A1F8690
:104250004FEFC41AD40A6396BDCFE881F981EA0D05
:10426000FB1D85819681892BA1F161E070E087813A
:104270009085A8D33C01DBD28C01E881F981EA0D5D
:10428000FB1D8185928525813681200F311FAC0170
:10429000421B530B9A0147815085421B530B70E020
:1042A00060E00E94EF38E881F981EA0DFB1DE780AC
:1042B000F084458156819301B601C201BBD28C01C5
:1042C000892B39F0E881F981EA0DFB1D8581968102
:1042D00005D55FEF851A950A8DE0A80EB11CB1CF08
:1042E00030CA789408952F923F924F925F926F92C6
:1042F0007F929F92AF92BF92CF92DF92EF92FF9206
:104300000F931F93CF93DF9300D000D0CDB7DEB7CC
:104310000091E0041091E104992493940115110592
:1043200009F43EC0A090E204B090E3040ADA982EAB
:104330008823B1F11092E1041092E0041092E3049A
:104340001092E2041092E4041092E5048FEF9FEFC4
:10435000DC0180938B0290938C02A0938D02B0932A
:104360008E0278947FD31E830D83C12CD12C7601CD
:10437000C501B0E0A0E089839A83AB83BC8322248B
:104380002A94322C89819A81AB81BC81C816D906C6
:10439000EA06FB06F4F0C801A1D480E40E944114AF
:1043A000892D26960FB6F894DEBF0FBECDBFDF91E4
:1043B000CF911F910F91FF90EF90DF90CF90BF9022
:1043C000AF909F907F906F905F904F903F902F9015
:1043D0000895AD81BE8115968D919C91169720917F
:1043E00081023091820282179307D1F451968D9108
:1043F0009C91EED5ED81FE8180819181B12CA12C23
:10440000412C512C3201892B89F5BFEFCB1ADB0AE5
:10441000EB0AFB0AED81FE817396FE83ED83B2CF3A
:10442000C114D104E104F10429F7029718F7ED81D2
:10443000FE81818992898F3F980709F029D5AD8146
:10444000BE8152963C922E925197D4CF8A0D9B1DDD
:10445000DC018D919C91009709F040D4BFEF4B1A7D
:104460005B0A6B0A7B0AEDE0AE0EB11CAD81BE812A
:104470008D919C91119712964C9150E070E060E004
:1044800044165506660677060CF328D4BECFCF93A4
:10449000DF93EA0128DF811109C082E090E099836F
:1044A000888385EF9FEFDF91CF91089581E090E0C1
:1044B0000E94331481E090E09983888390E080E04B
:1044C000F2CF11DF1092DD041092DC04089542E077
:1044D00050E068E373E00C945114FF920F931F9324
:1044E000CF93DF938A01EC01C60FD71FF980B9D2B1
:1044F0000897F816190671F068F082E090E0F8016C
:10450000918380838EEF9FEFDF91CF911F910F9169
:10451000FF9008956C817D818E819F814B810E94E7
:10452000E616811108C082E090E0F8019183808353
:1045300084EF9FEFE9CFF9800E94E1164F2D50E004
:10454000BE01685F7F4F0E94E63889810E94501744
:1045500081E090E0F8019183808390E080E0D4CF07
:10456000DF92EF92FF920F931F93CF93DF938A0115
:10457000EC01C60FD71F0E94E1167C01D98071D2D1
:10458000DD2059F0029721E030E0D816190619F025
:1045900010F030E020E0232B79F482E090E0F80185
:1045A000918380838EEF9FEFDF91CF911F910F91C9
:1045B000FF90EF90DF900895EF2841F482E090E0C3
:1045C000F8019183808384EF9FEFEECFF9800E9402
:1045D000E1164F2D50E0BE016E5F7F4F0E94E6381E
:1045E00089810E94501781E090E0F80191838083D7
:1045F00090E080E0D9CF87E692E29093E704809341
:10460000E60408958091E6049091E70408950895E2
:10461000FC0111821082938382830895DB011D9235
:104620001C92DC011296ED91FC91139771836083CB
:1046300013967C936E9312970895FC01808191816B
:10464000DB018D939C93A081B181109741F08D91F6
:104650009C9191838083892B11F4F383E2830895E5
:10466000FC0180819181DB018D939C93892B11F456
:1046700073836283718360830895FC0111821082C9
:10468000938382830895CF93DF931F921F92CDB7B8
:10469000DEB71A821982F894BE016F5F7F4F8DEEEC
:1046A00094E0CBDF89819A81009709F017D3898143
:1046B0009A81892B89F7BE016F5F7F4F81EF94E06C
:1046C000BCDF89819A81009709F008D389819A819A
:1046D000892B89F778940F900F90DF91CF910895EF
:1046E000CF93DF931F921F92CDB7DEB71A82198244
:1046F000F894BE016F5F7F4F89EE94E09EDF898161
:104700009A81009709F0EAD289819A81892B89F7E9
:1047100078940F900F90DF91CF91089581E00895E4
:1047200090E080E00895EF92FF920F931F93CF9354
:10473000DF931F921F92CDB7DEB71A821982809144
:10474000E80407EF1FEF8823A1F1F894BE016F5F23
:104750007F4F81EF94E071DF789489819A81EE2414
:10476000E394F12C892B51F4F894BE016F5F7F4FD5
:104770008DEE94E062DF7894F12CE12C89819A81AE
:104780000EEF1FEF0097A9F0FC014281538164E016
:1047900070E076D68C01892B61F0F89469817A817A
:1047A000C701880F991F880F991F83519B4F58DFAE
:1047B0007894C8010F900F90DF91CF911F910F91C6
:1047C000FF90EF9008950F931F93CF93DF9300D046
:1047D0001F92CDB7DEB71C821B821A82198280918C
:1047E000E80407EF1FEF8823C1F0AE014D5F5F4F74
:1047F00064E070E0CE010196B6D68C01892B69F495
:10480000E981FA818B819C8193838283F894698109
:104810007A8189EE94E002DF7894C8010F900F90BE
:104820000F900F90DF91CF911F910F910895BBD7FB
:10483000049608958F929F92AF92BF92CF92DF928B
:10484000EF92FF920F931F93CF93DF931F921F92CC
:10485000CDB7DEB71A821982BC016F5F7F4F63301C
:10486000710598F0AA24AA94BA2CC5010F900F9054
:10487000DF91CF911F910F91FF90EF90DF90CF903C
:10488000BF90AF909F908F9008954115510551F3BF
:10489000480159018A016C01CADF8815990511F791
:1048A000E114F104F9F28E0D9F1DA816B906D0F29D
:1048B0008091E8048823F1F0F894B50164507109FF
:1048C0009701AE014F5F5F4FC8010496E1D65C01CE
:1048D000892B71F489819A81F80193838283C601BF
:1048E000880F991F880F991FB80183519B4F96DE3F
:1048F0007894BBCF87EFA82EBB24BA94B6CFAF92E3
:10490000BF92CF92DF92EF92FF920F931F93CF93BC
:10491000DF931F921F92CDB7DEB71A821982892BBF
:1049200009F047C06115710509F443C041155105EF
:1049300009F43FC02115310509F43BC001151105EB
:10494000C1F18091E8048823B9F179016A015B0122
:10495000F894BE016F5F7F4F89EE94E06EDE78942D
:1049600089819A81009759F1DC0112966D917C91B1
:10497000A8010496A6D68C01E981FA81D501ED93B0
:10498000FC93828193810496F601918380834FDFAB
:10499000D7018D939C93C8010F900F90DF91CF9119
:1049A0001F910F91FF90EF90DF90CF90BF90AF904D
:1049B00008950FEF1FEFEFCF07EF1FEFECCF0EEFD4
:1049C0001FEFE9CFCF93DF93EC01672B71F4F4D69F
:1049D0008C179D0760F0E7D62496C80FD91FE6D63E
:1049E0008C0F9D1FDF91CF910895E3D6F1CF90E01A
:1049F00080E0F8CF0F931F93CF93DF932091E804CB
:104A000021112BC08B01EC018DEE94E001DE81EFD2
:104A100094E0FEDD89EE94E0FBDD97D00097C1F4D1
:104A2000CBD670E060E0CEDF4FE852E062E070E0AD
:104A300081D1009769F480918F0290919002CED637
:104A4000B801CE0103D5009719F421E02093E804C2
:104A5000DF91CF911F910F91089584EF9FEFF8CFD1
:104A6000A8C6AAC6CF93DF93AAD6EC01892B11F46E
:104A70000ADE36DECE01DF91CF910895CF93DF932A
:104A80009ED6EC01892B09F4FEDDCE01DF91CF919A
:104A9000089580918F02909190020895CF93DF93B3
:104AA0008091E804D0E0C0E08823D1F09CD6EC01EE
:104AB000892BB1F4E8DD14DE80918F029091900291
:104AC000E7D1E8D2EC01892B59F48DEE94E0D5DDE5
:104AD00081EF94E0D2DD89EE94E0CFDD1092E8041E
:104AE000CE01DF91CF910895EF92FF920F931F9324
:104AF000CF93DF93EC017A018B010F5F1F4F0E9D67
:104B0000A0010F9D500D1E9D500D112470E060E01E
:104B10000E94EF3890E080E0F0E0E0E02FEFE81650
:104B2000F90639F4DF91CF911F910F91FF90EF902B
:104B300008951A8219822883309711F0D283C18395
:104B40000196FE01C00FD11FEACFCF92DF92EF9204
:104B5000FF920F931F93CF93DF930AE516E00C7F2C
:104B600043E050E061E972E087E992E01CD481E91A
:104B7000E82E82E0F82E97E9C92E92E0D92EC9ECF2
:104B8000D6E0D7014D915D917D01F6016191719162
:104B90006F01198308835D834C835B834A837F8322
:104BA0006E839B012F5F3F4F249FC001259F900D77
:104BB000349F900D1124998788870115110511F0F4
:104BC000C80192DF88859985080F191F2A96F7E991
:104BD000EF16F2E0FF06A9F6E7EFF4E080E691E0D9
:104BE000DF019C011D9221503040E1F71092F60444
:104BF0001092F5041092E8061092E7061092EC0667
:104C00001092EB061092EA061092E9061092EE0658
:104C10001092ED061092F0061092EF061092F20636
:104C20001092F1061092F6061092F5061092F40614
:104C30001092F3061092F8061092F7061092FA06F8
:104C40001092F9061092C6061092C5061092C80678
:104C50001092C70690E080E0DF91CF911F910F91F5
:104C6000FF90EF90DF90CF9008950097F1F0F894C7
:104C7000A7E9B2E0E9ECF6E030E020E04D915D918B
:104C800048175907A8F0428153814115510581F019
:104C90008AE0829FF001839FF00D1124E753F94FC2
:104CA00080819181009759F4789490E080E0089594
:104CB0002F5F3F4F3A962330310501F7F5CFDC01E6
:104CC00011966D917C91718360834150510953839A
:104CD0004283FC012193CF0178940895009749F114
:104CE000DC018E91853041F4E091C706F091C80651
:104CF0003097F9F0CD0119948530D8F4282F30E0A1
:104D0000F8948FEF8C938AE0829FF001839FF00DDF
:104D10001124E753F94F8081918112969C938E93D1
:104D20001197B183A08382819381019693838283BB
:104D300078940895CF92DF92EF92FF920F931F9392
:104D4000CF93DF939C018AEF94E08C7F411551054E
:104D500009F49BC02115310509F497C0611571054F
:104D600009F493C07A01AB01B9016D5F7F4F6C7F8D
:104D70009B012F5F3F4F249F8001259F100D349F83
:104D8000100D1124F8942091E7063091E806232BAA
:104D900059F42091EF063091F0062115310569F1A3
:104DA0002017310708F058C02091F1063091F20623
:104DB000232B91F42091EF063091F006820F931F80
:104DC0002091F9063091FA062115310509F441C008
:104DD0002017310708F056C07894CFEFDFEF86EF49
:104DE0009FEFF701D183C083DF91CF911F910F9186
:104DF000FF90EF90DF90CF900895C3E0D0E0C09097
:104E0000F504D090F6042DE531E02C193D0920176A
:104E1000310710F32AE02C9FF0012D9FF00D112493
:104E2000E753F94F918380835583448353834283AF
:104E30007783668311870087009709F055DE0C0D94
:104E40001D1D1093F6040093F504789490E080E023
:104E5000C8CFC4E0D0E0D3CFC3E0D0E02AE02C9F9D
:104E6000F0012D9FF00D1124E753F94F91838083BA
:104E7000558344835383428377836683009729F362
:104E800033DEE3CFC4E0D0E0E9CF8FEF9FEFACCFCC
:104E90009C010397029708F069C0F89484E09AE0B7
:104EA000482F50E0241735070CF44DC091E08AE0FC
:104EB000829FF001839FF00D1124E753F94F118277
:104EC000108215821482138212821782168299230D
:104ED000B1F18091E7069091E806892BA9F4209121
:104EE000EF063091F0062115310571F08091F5043F
:104EF0009091F604821B930B9093F6048093F50433
:104F00001092F0061092EF068091F1069091F20651
:104F1000892BA9F42091F9063091FA062115310563
:104F200071F08091F5049091F604821B930B90939D
:104F3000F6048093F5041092FA061092F90678941C
:104F400090E080E00895949FF001959FF00D11246A
:104F5000E753F94F40815181452B31F4408551850C
:104F6000452B11F481509CCF90E0A1CF8FEF9FEFA4
:104F700008954115510549F1009739F16115710501
:104F800021F1F8942091C5063091C606232BB9F47F
:104F90002091C7063091C806232B89F49093C6064A
:104FA0008093C5067093C8066093C706789425E081
:104FB00030E090E080E0FA01318320830895789416
:104FC0002FEF3FEF86EF9FEFF6CF8FEF9FEF089524
:104FD000059769F4F8941092C6061092C5061092CF
:104FE000C8061092C706789490E080E008958FEF8D
:104FF0009FEF08956115710519F4F0E0E0E011C02C
:105000008530910581F4E091C506F091C606309790
:10501000A1F3CB0101961995009779F3FC0185E086
:105020008193CF0108959C0123503109223031052D
:1050300020F72AE0289FD001299FB00D1124A75303
:10504000B94F2D913C911197232BB9F216962D91C2
:105050003C9117972617370780F2F89412962D91F6
:105060003C9113972115310529F0ED91FC91119791
:10507000309711F47894C1CF4181528111965C939D
:105080004E932150310913963C932E93129781939E
:105090007894C7CFE7E5F6E08EE6DF011D928A95AA
:1050A000E9F7E7EFF4E080E691E0DF019C011D9273
:1050B00021503040E1F71092F6041092F504E9EC2B
:1050C000F6E082E3DF011D928A95E9F7E5ECF6E070
:1050D00084E0DF011D928A95E9F790E080E0089571
:1050E000CF93DF93C0919D02D0919E02CF3FDC070A
:1050F00059F423D490939E0280939D0297FF09C098
:10510000D0939E02C0939D0284EF9FEFDF91CF91D9
:10511000089590E080E0FACF8230910528F48093E2
:10512000FB0690E080E008958FEF9FEF08954F9287
:105130005F926F927F92AF92BF92CF92DF92EF9287
:10514000FF920F931F93CF93DF931F921F92CDB7C0
:10515000DEB71A821982009709F479C061157105CA
:1051600009F475C020919D0230919E0207EF1FEF58
:105170002F3F3F4F09F445C06B015C01412C512C7E
:105180003201F12CE12C10E000E09E012F5F3F4F37
:10519000A6014E195F09B5016E0D7F1D80919D021C
:1051A00090919E022ED4892B09F04BC089819A815F
:1051B000009741F4E114F10429F42091FB06222325
:1051C00009F442C0E80EF91EEC14FD04D0F480E8A6
:1051D000481684E858068EE16806710420F560E000
:1051E00070E0CB010E94BD322AE0420E511C611CCE
:1051F000711C0A3F4FEF140721F0043F8FEF18078F
:10520000A1F4C8010F900F90DF91CF911F910F91E2
:10521000FF90EF90DF90CF90BF90AF907F906F9016
:105220005F904F90089501EF1FEF81E090E0013F04
:105230002FEF120711F090E080E0892B09F4A5CF41
:10524000E0CF04EF1FEFDDCF0AEF1FEFDACF0FEF54
:105250001FEFD7CF4F925F926F927F92AF92BF9224
:10526000CF92DF92EF92FF920F931F93CF93DF9332
:105270001F921F92CDB7DEB71A821982009709F4E8
:1052800079C06115710509F475C020919D023091B6
:105290009E0207EF1FEF2F3F3F4F09F445C06B0100
:1052A0005C01412C512C3201F12CE12C10E000E08A
:1052B0009E012F5F3F4FA6014E195F09B5016E0D8C
:1052C0007F1D80919D0290919E024ED3892B09F003
:1052D0004BC089819A81009741F4E114F10429F4CB
:1052E0002091FB06222309F442C0E80EF91EEC14BB
:1052F000FD04D0F480E4481682E458068FE0680686
:10530000710420F560E070E0CB010E94BD322AE01C
:10531000420E511C611C711C0E3F4FEF140721F00F
:10532000043F8FEF1807A1F4C8010F900F90DF9191
:10533000CF911F910F91FF90EF90DF90CF90BF9092
:10534000AF907F906F905F904F90089502EF1FEFA6
:1053500081E090E0023F2FEF120711F090E080E033
:10536000892B09F4A5CFE0CF04EF1FEFDDCF0EEFBF
:105370001FEFDACF0FEF1FEFD7CF80919D029091F3
:105380009E028F3F980749F0D0D2892B49F48FEFC6
:105390009FEF90939E0280939D0290E080E008959D
:1053A00084EF9FEF0895CF92DF92EF92FF920F93D9
:1053B0001F93CF93DF9321E04115510509F020E0C1
:1053C0004150510921112CC0DC01FB01D12CC12C11
:1053D00021E022C03FEFC31AD30A7D010D911D9138
:1053E000E701EA80FB80E016F106A8F42081318114
:1053F000E280F380F182E08233832283ED90FC909F
:1054000011979D0122503109E901F982E882119634
:105410001C930E9320E03296C416D506D8F2D2CF54
:10542000DF91CF911F910F91FF90EF90DF90CF9080
:105430000895FC01680F791F90E080E0E617F707F8
:1054400009F408952191820F911DF8CF2091FC0657
:10545000211113C045DE009791F4109202071092BB
:105460000107109200071092FF061092FE0610929C
:10547000FD0621E02093FC06089584EF9FEF089538
:10548000AF92BF92CF92DF92EF92FF920F931F9352
:10549000CF93DF93009709F460C04630510508F4BC
:1054A0005CC02091FC06C7EFDFEF222309F449C05E
:1054B0008C01060F171FF801C080D180C114D104E0
:1054C00009F44EC096012A5F3F4F4217530708F474
:1054D00047C07C01809101079091020793838283EA
:1054E000B6016C5F7F4F5801A60EB71EC801A1DF41
:1054F000F5019183808364E070E0C80118DEEC015F
:10550000892BF9F481E090E007DEB601C80104962A
:105510000EDEEC01892B91F462E070E0C50107DE3C
:10552000EC01892B59F4C701D9DB809101079091D7
:1055300002070196909302078093010790E080E0B4
:10554000EBDDCE01DF91CF911F910F91FF90EF9096
:10555000DF90CF90BF90AF900895CFEFDFEFF1CF06
:10556000C9EFDFEFEECF6F927F928F929F92AF9253
:10557000BF92CF92DF92EF92FF920F931F93CF9340
:10558000DF9300D01F92CDB7DEB7009709F47AC041
:105590004115510509F476C02091FC0607EF1FEF75
:1055A000222309F44DC03A017B015C0164E070E004
:1055B000CE0101964FDE8C01892B09F041C0098193
:1055C0001A810115110509F45AC0480186E0880EB8
:1055D000911CB701680D791D80919F029091A002E6
:1055E00009DD6C01009709F450C0A70170E060E08C
:1055F0000E94EF3889819A81AB81BC81EC0CFD1C43
:10560000F70181939193A193B1937F0181E090E0A1
:1056100083DDB801C7011EDE892B31F562E070E041
:10562000C701800F911F16DE8C01892BE9F490E0F1
:1056300080E072DDF501D182C082F3019182808227
:10564000C8010F900F900F900F90DF91CF911F9195
:105650000F91FF90EF90DF90CF90BF90AF909F9011
:105660008F907F906F90089590E080E055DDF50178
:1056700011821082F30111821082C6012FDB09EF23
:105680001FEFDECF0FEF1FEFDBCF06EF1FEFD8CFFF
:105690000097A1F04115510589F02115310571F0F0
:1056A000F90136966E177F0748F0DC012D933C9385
:1056B000DA01ED93FC9390E080E008958FEF9FEF87
:1056C0000895AF92BF92CF92DF92EF92FF920F9325
:1056D0001F93CF93DF93009709F45FC041155105E5
:1056E00009F45BC06530710508F457C02091FC06D1
:1056F000C7EFDFEF222391F1DC01CD90DC90119711
:105700001296ED91FC9196012A5F3F4FC9EFDFEFB2
:105710002617370719F5C091FD06D091FE06209790
:1057200049F521E030E03093FE062093FD067A0132
:105730008C01F0930007E093FF065601B4E0AB0E36
:10574000B11CB50176DE0A0D1B1DF80120813181E7
:105750008217930729F5D701CD92DC92CE01DF9114
:10576000CF911F910F91FF90EF90DF90CF90BF905E
:10577000AF9008952091FF06309100072F5F3F4FB3
:10578000CCEFDFEFE217F30790F2CBEFDFEF2E174E
:105790003F0768F2D0E0C0E0CACFCFEFDFEFDECF47
:1057A000C3EFDFEFDBCF84E090E0089582E090E08C
:1057B00008958CEF9FEF089580E290E00895109295
:1057C000020710920107109200071092FF06109234
:1057D000FE061092FD0690E080E008959093A002EE
:1057E00080939F0208958091FC06882391F0C5DD87
:1057F000009789F410920207109201071092000797
:105800001092FF061092FE061092FD061092FC0602
:10581000089590E080E00895009749F061157105C2
:1058200031F0FC0111821082FB0111821082089577
:10583000F3CF26E030E040E855E260E070E090E031
:1058400080E000C08130910571F01CF4892B39F0A3
:1058500008958230910551F0039759F0089580E141
:1058600097E00C94C2358DEA97E0FBCF8AE498E08C
:10587000F8CF87EE98E0F5CF1F920F920FB60F92F8
:1058800011240BB60F922F933F934F935F936F9317
:105890007F938F939F93AF93BF93EF93FF9386E98B
:1058A00097EE9093250180932401BFD0FF91EF9153
:1058B000BF91AF919F918F917F916F915F914F9128
:1058C0003F912F910F900BBE0F900FBE0F901F9026
:1058D000189586E997EE9093250180932401A3E71C
:1058E000B0E08C918E7F8C93E0E2F1E080818C7F40
:1058F0008083E1E2F1E08081877E80838081846023
:10590000808380818C7F80838C9181608C930895CB
:10591000E3E7F0E0808190819E7F9083817008951D
:1059200081E0089510920307089568EE73E080E027
:1059300090E023D690E080E0089526E030E040E05B
:1059400050E16EE070E090E080E07CDF80E197E085
:105950000E94F834892B29F080E197E00E941235EB
:10596000F5CF90E080E00895CF92DF92EF92FF9222
:105970000F931F93CF93DF936B017A01E901198293
:10598000188280E197E00E94F834892B79F1860132
:10599000CC24C39482E0D82E80910307811111C0DA
:1059A00080E197E00E9412350297B1F7C092030799
:1059B000F801D1928F01888199810196998388831A
:1059C000EBCF888199818E159F0580F480E197E067
:1059D0000E9412358F3F9807A1F3F80181938F0140
:1059E00088819981019699838883EBCF90E080E04C
:1059F000DF91CF911F910F91FF90EF90DF90CF90AB
:105A000008950F931F93CF93DF93EA01890180E1FB
:105A100097E00E945238F801D183C08390E080E083
:105A2000DF91CF911F910F9108958091040791E02C
:105A3000980F90930407882349F021E030E03093D9
:105A400006072093050780930407089578940E9421
:105A50007806F894809104078150F5CF0F931F9337
:105A6000CF93DF9310922D0A10922C0ABCD5E1DE61
:105A7000C091C402D091C5021982188264E670E018
:105A800080E090E00E946D0670E060E090E080E0D1
:105A90000E94E804009709F042C00E94F70AF894B7
:105AA0007894BE016A557F4F8A819B810E94EB04E6
:105AB000892B71F46FEF7FEFCB010E947C050E9470
:105AC0006706882329F081E0FE01E455FF4F8083BB
:105AD000F894FFDE0E946A06882311F080E00BC074
