:1000000005C100000C941F350C944A350C947535CD
:100010000C94A0350C94CB350C94F6350C94213609
:100020000C944C3624C1000022C1000020C1000005
:100030001EC100001CC100001AC1000018C1000050
:1000400016C1000014C1000012C1000010C1000060
:100050000EC100000CC100000AC100000C947736EC
:1000600006C100000C944B3A0C94813A00C1000088
:10007000FEC00000FCC00000FAC00000F8C0000094
:10008000F6C00000F4C00000F2C00000F0C00000A4
:100090000C94D73A0C940D3BEAC00000E8C0000075
:1000A000E6C00000E4C00000E2C00000E0C00000C4
:1000B000DEC00000DCC00000DAC00000D8C00000D4
:1000C000D6C00000D4C000000C9409300C94633BEF
:1000D0000C94993BCCC000000C94EF3B0C94253C55
:1000E000C6C0000000000A0B02090C0D0E08070331
:1000F00004010000000000000000000000000000FB
:1001000000000000000000000000000000000000EF
:1001100012111000000000000000000000000000AC
:100120000000000000000000000001021020200874
:100130000810204010204080020102010804020142
:1001400001020408102040808040201008040201B1
:10015000800402018040201008040201080402010A
:100160000102040810204080010204081020408091
:1001700005050505070508080808020202020A0A23
:100180000808040404040101010101010101030341
:10019000030303030303040707070C0C0C0C0C0CEC
:1001A0000C0C0202020206060606060606060B0BE9
:1001B0000B0B0B0B0B0B000020002300260029006B
:1001C0002C002F003200000100000301060109018C
:1001D00000002200250028002B002E0031003400F2
:1001E00002010000050108010B01000021002400AC
:1001F00027002A002D003000330001010000040117
:1002000007010A01AA3A363BC23B4E3C11241FBEED
:10021000CFEFD1E2DEBFCDBF00E00CBF13E0A0E026
:10022000B2E0ECE3FAE700E00BBF02C007900D92EA
:10023000AE32B107D9F72AE0AEE2B3E001C01D92B9
:10024000AC3BB207E1F711E0C6E0D1E000E006C048
:1002500021970109802FFE010E94DF3CC230D107A7
:1002600080E00807A9F70E9458310C941C3DC8CEC5
:10027000FC01A781B0858C9191858923A481B581EA
:100280009C9140815181628173812681922359F032
:1002900081110BC04F5F5F4F6F4F7F4F4083518382
:1002A0006283738308958111F5CF4150510961092B
:1002B0007109F4CF8FE293E0DBCF8AE393E0D8CFEC
:1002C00085E493E0D5CF80E593E0D2CFFC01A48113
:1002D000B5818C9196818923A781B0859C914081BD
:1002E0005181628173812185922359F0882359F0CD
:1002F0004F5F5F4F6F4F7F4F4083518362837383A4
:1003000008958823A9F34150510961097109F4CF77
:100310008FE293E0DBCF8AE393E0D8CF85E493E0EC
:10032000D5CF80E593E0D2CF0F931F93CF93DF9388
:10033000D82FC62F8A01A0912E038BE0A89FD00151
:100340001124A15DBC4F1D921D921D921C9213970A
:1003500081E01A968C931A978D2F90E0FC01E65D50
:10036000FE4FE4911696EC931697FC01E059FE4F70
:10037000E491F0E0EE0FFF1FEA54FE4F8591949157
:1003800015969C938E931497862F90E0FC01E65D62
:10039000FE4FE4911996EC931997FC01E059FE4F3A
:1003A000E491F0E0EE0FFF1FEA54FE4F8591949127
:1003B00018969C938E93179760E08D2F0E94B83803
:1003C00060E08C2F0E94B83880912E03813009F4B0
:1003D0003FC0A8F0823009F462C0833009F486C0BF
:1003E00080912E0391E0980F90932E03F801808363
:1003F00090E080E0DF91CF911F910F91089580E010
:10040000D23049F081E0D33031F08EEE8D0F843060
:10041000D8F487E18D1B41E050E06AE571E00E946D
:10042000A53480E0C23049F081E0C33031F08EEE77
:100430008C0F843058F487E18C1B41E050E068E871
:1004400071E00E94A534CCCF8FEFE5CF8FEFF5CFD1
:1004500080E0D23049F081E0D33031F08EEE8D0F64
:100460008430C8F487E18D1B41E050E06DE571E018
:100470000E94A53480E0C23049F081E0C33031F001
:100480008EEE8C0F843048F487E18C1B41E050E005
:100490006BE871E0D6CF8FEFE7CF8FEFF7CF80E03B
:1004A000D23049F081E0D33031F08EEE8D0F8430C0
:1004B000C8F487E18D1B41E050E060E671E00E94E6
:1004C000A53480E0C23049F081E0C33031F08EEED7
:1004D0008C0F843048F487E18C1B41E050E06EE8DB
:1004E00071E0AFCF8FEFE7CF8FEFF7CF80E0D23063
:1004F00049F081E0D33031F08EEE8D0F8430C8F4B6
:1005000087E18D1B41E050E063E671E00E94A53475
:1005100080E0C23049F081E0C33031F08EEE8C0FC4
:10052000843048F487E18C1B41E050E061E971E0E0
:1005300088CF8FEFE7CF8FEFF7CF9BE0899FF00158
:100540001124E15DFC4F80819181A281B381FB0187
:1005500080839183A283B38390E080E008959BE041
:10056000899FF0011124E15DFC4F108211821282FB
:10057000138290E080E0089590E080E00895CF92AB
:10058000DF92EF92FF92CF93882351F16A017B01B2
:10059000CFEFC80F20E030E0A901CB01B6010E94E7
:1005A0004D3218168CF0C701B60190580E94BE3229
:1005B0009B01AC016C2F70E090E080E0CF91FF9048
:1005C000EF90DF90CF90B2C0C701B6010E94B93260
:1005D0008C2FCF91FF90EF90DF90CF900C947E37CF
:1005E000CF91FF90EF90DF90CF9008950F931F93DE
:1005F0008B019C0183E036952795179507958A9581
:10060000D1F7055A1C4F462F477021E030E0F90121
:1006100002C0EE0FFF1F4A95E2F7AF01F8012081FB
:100620002423CB010196211102C090E080E01F91AC
:100630000F9108950F931F938B019C0183E03695D2
:100640002795179507958A95D1F7677081E090E017
:1006500001C0880F6A95EAF7F801E55AFC4F20813E
:10066000452B31F48095822380831F910F9108954B
:10067000822BFACF2F923F924F925F926F927F928E
:100680008F929F92AF92BF92CF92DF92EF92FF92A2
:100690000F931F93CF93DF93D62EC72E782E692EFC
:1006A00049015A01280161E08D2D0E94B838CD2DF5
:1006B000DC2D8E010F5F1F4FA8016D2D7C2D872D26
:1006C000962DB8DF20E030E0A901C201B7010E94F9
:1006D0003D34181664F4C201B7010E94BE322B01EA
:1006E000C501B4010E94BE32A201CE0123D0C801CF
:1006F000DF91CF911F910F91FF90EF90DF90CF90FE
:10070000BF90AF909F908F907F906F905F904F9031
:100710003F902F900895882341F08150682F70E01A
:1007200090E080E050E040E085CF0895862FB90149
:100730000C947E379C01FC01EC51FF4FE491E15099
:10074000E231E0F4F0E08827E755FC4F8F4F0C943E
:10075000DF3CBB03C203C503DC03F103BE03060495
:10076000120416042D04420457046E048304BE03CD
:100770009804AF04C40484B5806884BD60E0822F0F
:100780000C94F43884B58062F8CF809180008C7F1F
:1007900082608093800080918100807E8061682BE0
:1007A0006093810050938700409386008091800081
:1007B000806880938000E2CF809180008C7F82608F
:1007C0008093800080918100807E8061682B60939F
:1007D0008100509387004093860080918000806262
:1007E000E8CF809180008C7F826080938000809130
:1007F0008100807E8061682B609381005093870028
:1008000040938600809180008860D3CF8091B000B3
:1008100080688093B0008091B100887F682B6093DE
:10082000B100ACCF8091B0008062F3CF8091900096
:100830008C7F82608093900080919100807E8061A7
:10084000682B60939100509397004093960080919D
:10085000900080688093900091CF809190008C7F71
:1008600082608093900080919100807E8061682BEF
:100870006093910050939700409396008091900070
:100880008062E8CF809190008C7F8260809390009E
:1008900080919100807E8061682B609391005093DD
:1008A000970040939600809190008860D3CF80910C
:1008B000A0008C7F82608093A0008091A100807E48
:1008C0008061682B6093A1005093A7004093A6001D
:1008D0008091A00080688093A00050CF8091A000FC
:1008E0008C7F82608093A0008091A100807E8061D7
:1008F000682B6093A1005093A7004093A6008091BD
:10090000A0008062E8CF8091A0008C7F82608093FD
:10091000A0008091A100807E8061682B6093A1007F
:100920005093A7004093A6008091A0008860D3CF89
:10093000809120018C7F8260809320018091210131
:10094000807E8061682B6093210150932701409342
:100950002601809120018068809320010FCF809133
:1009600020018C7F82608093200180912101807E14
:100970008061682B609321015093270140932601E9
:10098000809120018062E8CF809120018C7F82607D
:100990008093200180912101807E8061682B60938B
:1009A0002101509327014093260180912001886006
:1009B000D3CF611102C00C94B8386130E1F362E02A
:1009C000FACF662319F061E00C94F43860E0FCCFB4
:1009D00090E080E008950F931F93009709F489C079
:1009E0006115710509F485C000915C0210915D02EA
:1009F00020915E0230915F020E3F1F4F2F4F3F4FFD
:100A000009F068C04FEF5FEFBA0140935C0250936A
:100A10005D0260935E0270935F0240915C025091B0
:100A20005D0260915E0270915F02DC011296ED91B1
:100A3000FC9180819181A281B3818093B5049093D0
:100A4000B604A093B704B093B80484819581A681BD
:100A5000B7818093B1049093B204A093B304B09390
:100A6000B40480859185A285B3858093AD0490936D
:100A7000AE04A093AF04B093B00484859585A68599
:100A8000B7858093A9049093AA04A093AB04B09374
:100A9000AC041092A5041092A6041092A704109220
:100AA000A8040E94ED1382E194E190936503809382
:100AB000640390936703809366030E94DC1200979F
:100AC00031F421E030E03093BA042093B9041F914F
:100AD0000F91089500915C0210915D0220915E02D9
:100AE00030915F02DB010D931D932D933C9313977F
:100AF00094CF8FEF9FEFEBCF8F929F92AF92BF92E9
:100B0000CF92DF92EF92FF921F93CF93DF934B012F
:100B10005C011091BC0482E090E09093BA04809351
:100B2000B90481149104A104B10441F48091BC047E
:100B3000811104C08091BB04C1E08111C0E0C12CCF
:100B4000D12C76018091BC04811106C08091BB0438
:100B5000811102C0CC23D9F083E090E09093BA04D5
:100B60008093B904CC2381F1CCE9DFEF111102C0ED
:100B70000E947717CE01DF91CF911F91FF90EF90E8
:100B8000DF90CF90BF90AF909F908F9008956AE0D4
:100B900070E080E090E00E94E63680E1C80E87E2D7
:100BA000D81EE11CF11C8FEF88169806A806B8061F
:100BB00031F0C1E08C149D04AE04BF0408F0C0E025
:100BC00080E00E941013BECFD0E0C0E0CFCFCF9224
:100BD000DF92EF92FF920F931F93CF93DF938F3F9C
:100BE000910511F008F051C02091B9043091BA0478
:100BF0002330310539F02091B9043091BA04213005
:100C0000310531F424E030E03093BA042093B90484
:100C10006A017B01EC0182309105A8F011E0AE0180
:100C2000C701B6010E94DB12AB01BC01CE0111234A
:100C3000F9F0DF91CF911F910F91FF90EF90DF902E
:100C4000CF900C94A0198C01000F111F0C591C4F50
:100C5000D8018D919C91892B09F30E94AA190297C2
:100C6000E9F6D801ED91FC91CE011995182FD7CF57
:100C70000E94C21990E080E0DF91CF911F910F9107
:100C8000FF90EF90DF90CF9008958FEF9FEFF4CF1C
:100C900080E00C941013CF93DF9386E090E0909364
:100CA000BA048093B9040E946913EC01E4E6F3E00E
:100CB00084E0DF011D928A95E9F70E940F171092D8
:100CC000BA041092B904CE01DF91CF9108958091BA
:100CD000BB0408958091A404089560935C0270930E
:100CE0005D0280935E0290935F0290E080E0089541
:100CF000FC0191E080916D04811190E09283089550
:100D0000E0911404F0911504A4EFB9E098964D9188
:100D10005D916D917C919B97408351836283738336
:100D20009C968D919D910D90BC91A02D848395836F
:100D3000A683B78308952F923F924F925F926F924E
:100D40007F928F929F92AF92BF92CF92DF92EF925B
:100D5000FF920F931F93CF93DF93CDB7DEB7A0978A
:100D60000FB6F894DEBF0FBECDBFC0907704D09011
:100D7000780420917A0430917B043A83298331E00E
:100D8000C316D10409F076C060915B0470915C04D5
:100D900080915D0490915E046F5F7F4F8F4F9F4FF6
:100DA0000E94EA3220915F04309160044091610416
:100DB000509162040E9441346093960370939703AC
:100DC000809398039093990380916D0490916C04A3
:100DD000911105C091E0811190E090936E048F5FB6
:100DE000823308F46AC610926D04809128029091B3
:100DF0002902A0912A02B0912B028093F4099093CA
:100E0000F509A093F609B093F70980912C0290910F
:100E10002D02A0912E02B0912F028093F809909399
:100E2000F909A093FA09B093FB0980916E04882315
:100E3000A9F18091740A9091750AA091760AB091F7
:100E4000770A8093FC099093FD09A093FE09B09363
:100E5000FF098091780A9091790AA0917A0AB0915D
:100E60007B0A8093000A9093010AA093020AB09330
:100E7000030A14C0C114D10489F4E091C603F091AF
:100E8000C7030190F081E02D80819181A281B3811F
:100E9000E981FA8180839183A283B383A981BA8196
:100EA0008D909D90AD90BC9060907C0A70907D0A72
:100EB000E0907E0AF0907F0AB091880AB983E091B1
:100EC000890AED8310918A0A00918B0AA501940189
:100ED000B301C7010E943D3429813D81412F502F2C
:100EE00087FDAFC0C501B4010E944D3218160CF445
:100EF000E7C51092040A1092050A1092060A109291
:100F0000070A1092080A1092090A10920A0A10920F
:100F10000B0ACA94CD2809F04AC02091940A309156
:100F2000950A4091960A5091970A6091F409709140
:100F3000F5098091F6099091F7090E94E8316B015B
:100F40007C01C0920C0AD0920D0AE0920E0AF09237
:100F50000F0A2091980A3091990A40919A0A50916B
:100F60009B0A6091F8097091F9098091FA099091B2
:100F7000FB090E94E8316093100A7093110A809374
:100F8000120A9093130AA7019601609110027091C2
:100F9000110280911202909113020E9441346093D9
:100FA000140A7093150A8093160A9093170A2091D9
:100FB000EC093091ED094091EE095091EF096091F3
:100FC000140A7091150A8091160A9091170A0E94CE
:100FD000E9310E9427336B017C010E94D8118111F5
:100FE0008AC0C701B6010E949311811184C020E01C
:100FF00030E040E857E4C701B6010E9441336B017D
:101000007C0120E030E0A9010E944D3287FF76C0CC
:10101000C701B60190580E94BE3271956195710961
:101020007093250A6093240A80911C0290911D02FE
:10103000861797070CF067C09093250A8093240ABF
:101040006AC0B301C7010E944D3287FF0BC02981DE
:101050003D81412F502FC501B4010E943D34181627
:101060000CF438C569827D821E2D0F2D30E8E32EE9
:101070003AE0F32E29813D81412F502FC501B40163
:101080000E94E8314B015C01D7012D913D914D91BA
:101090005C916091FC097091FD098091FE0990912D
:1010A000FF090E94E831A50194010E94513260932A
:1010B000040A7093050A8093060A9093070AF701C1
:1010C00024813581468157816091000A7091010A1F
:1010D0008091020A9091030A0E94E831A5019401CF
:1010E0000E9451326093080A7093090A80930A0A99
:1010F00090930B0A0ECFC12CD12C7601C701B601FB
:101100000E94BE328DCF809118029091190268170B
:1011100079070CF491CF809177049091780401972E
:10112000D1F42091100A3091110A4091120A509185
:10113000130A609114027091150280911602909129
:1011400017020E9441346093180A7093190A809321
:101150001A0A90931B0A2091F0093091F1094091ED
:10116000F2095091F3096091180A7091190A80915F
:101170001A0A90911B0A0E94E9310E9427336B01E1
:101180007C010E94D81181112FC0C701B6010E94B5
:101190009311811129C020E030E040E857E4C701F5
:1011A000B6010E9441336B017C0120E030E0A901CF
:1011B0000E944D3287FF1BC0C701B60190580E94A4
:1011C000BE327195619571097093270A6093260A62
:1011D00080911E0290911F02861797076CF49093DE
:1011E000270A8093260A0FC0C12CD12C7601C70193
:1011F000B6010E94BE32E8CF80911A0290911B0284
:101200006817790764F380917704909178040197C7
:1012100081F48091240A9091250A9093290A809361
:10122000280A8091260A9091270A90932B0A80938E
:101230002A0A6CE070E080E090E0D8D99A83898334
:101240009093630A8093620A8091260A9091270AFC
:1012500060915202709153026817790744F06091CF
:10126000540270915502681779070CF4BC0177FF9E
:1012700002C070E060E06F3F710519F014F06FEF8D
:1012800070E0072E000C880B990B0E94EC32AB012A
:10129000BC0189819A8173D96BE070E080E090E0B5
:1012A000A5D99A8389839093530A8093520A809197
:1012B000260A9091270A609156027091570268178A
:1012C000790744F0609158027091590268177907C4
:1012D0000CF4BC0177FF03C07195619571096F3FF4
:1012E000710519F014F06FEF70E0072E000C880BF9
:1012F000990B0E94EC32AB01BC0189819A813FD9E4
:1013000061E02091260A3091270A80915002909145
:1013100051022817390709F460E08DE052DB209173
:101320005A0230915B02A091240AB091250A0E94D2
:10133000E73C4B015C0161E08091380290913902F9
:10134000A0913A02B0913B0288159905AA05BB0508
:1013500009F460E088E035DBC0903C02D0903D02AB
:10136000E0903E02F0903F02C814D904EA04FB0466
:101370007CF0C0904002D0904102E0904202F09098
:101380004302C814D904EA04FB0414F4750164018F
:1013900069E070E080E090E029D99A838983909396
:1013A0005B0A80935A0AC701B60197FF07C0909560
:1013B0008095709561957F4F8F4F9F4F0E94EC32C3
:1013C00020E030E040E858E30E9441346B017C01AA
:1013D00020E030E04FE753E40E944D3218160CF441
:1013E00030C320E030E0A901C701B6010E943D34BE
:1013F00087FD2EC3B701A60189819A81C0D86AE012
:1014000070E080E090E0F2D89A83898390934B0A51
:1014100080934A0A6091440270914502809146028D
:1014200090914702681579058A059B057CF06091CB
:1014300048027091490280914A0290914B026815CE
:1014400079058A059B0514F4C501B4010E94EC32AC
:1014500020E030E040E858E30E9441346B017C0119
:1014600020E030E04FE753E40E944D3218160CF4B0
:10147000F3C220E030E0A901C701B6010E943D346B
:1014800087FDF1C2B701A60189819A8178D8809140
:10149000770490917804019709F0ABC020910C0A71
:1014A00030910D0A40910E0A50910F0A609100028E
:1014B0007091010280910202909103020E944134D6
:1014C00060931C0A70931D0A80931E0A90931F0A52
:1014D0002091100A3091110A4091120A5091130A7A
:1014E00060910402709105028091060290910702BA
:1014F0000E9441346093200A7093210A8093220A4B
:101500009093230A80917C0A90917D0AA0917E0A93
:10151000B0917F0A89839A83AB83BC834090AA0AE7
:101520005090AB0A6090AC0A7090AD0AA0917A041A
:10153000B0917B04BE83AD83A301920169817A815E
:101540008B819C810E944D32ED81FE81C080D180D3
:10155000E280F38081118BC2C0927C0AD0927D0A16
:10156000E0927E0AF0927F0AE0E8FAE08091FC09BE
:101570009091FD09A091FE09B091FF0980839183AC
:10158000A283B3838091000A9091010AA091020A7C
:10159000B091030A84839583A683B7838091040A5C
:1015A0009091050AA091060AB091070A8093940AC7
:1015B0009093950AA093960AB093970A8091080A8F
:1015C0009091090AA0910A0AB0910B0A8093980A97
:1015D0009093990AA0939A0AB0939B0A40915B0456
:1015E00050915C0460915D0470915E0481E090E034
:1015F000EEDA8091770490917804019709F008C29F
:10160000E091C603F091C7030190F081E02D808145
:101610009181A281B3818D839E83AF83B8878091AE
:10162000960390919703A0919803B09199038B8BA7
:101630009C8BAD8BBE8BE0919A03F0919B03C08095
:10164000D180E280F380E091CA03F091CB03608007
:101650007180E0918E03F0918F03008111812280CF
:1016600033804480558096819987A781AD87E0912A
:101670008C03F0918D031182108288E0F301D80170
:1016800001900D928A95E1F7E091C403F091C503B2
:101690003182208235DB20E030E040E05FE3C701AB
:1016A000B6010E9441344B015C01F101208131817E
:1016B000428153810E944134D8012D913D914D9139
:1016C0005C910E94E931F30160837183828393838B
:1016D000D10114962D913D914D915C911797C501C3
:1016E000B4010E944134F80124813581468157813B
:1016F0000E94E931D30114966D937D938D939C9351
:101700001797E091C603F091C703208131813A8396
:101710002983A50194016D817E818F8198850E9426
:10172000E931A981BA816D937D938D939C93139731
:10173000E091C403F091C50351824082FCDAE0DA03
:1017400020E030E0A901C701B6010E9441344B01FD
:101750005C0120E030E040E45FE3C701B6010E9495
:10176000413469837A838B839C83F20120813181A8
:10177000428153810E9441346F87788B898B9A8B89
:10178000D1012D913D914D915C91C501B4010E9413
:1017900041349B01AC016F85788989899A890E94BF
:1017A000E931F80120813181428153810E94E93180
:1017B000D3016D937D938D939C931397F1012481B5
:1017C000358146815781C501B4010E9441344B01E6
:1017D0005C01D20114962D913D914D915C9117972A
:1017E00069817A818B819C810E9441349B01AC018B
:1017F000C501B4010E94E931F80124813581468197
:1018000057810E94E931D30114966D937D938D9396
:101810009C931797E091C603F091C7032081318113
:10182000388B2F8729813A814B815C816D817E8144
:101830008F8198850E94E931AF85B8896D937D933A
:101840008D939C931397E091C403F091C503B985E0
:10185000B0832D8521836FDA53DA29E33EE843E62E
:101860005EE3C701B6010E9441346F87788B898B94
:101870009A8B2BEA3AEA4AEA5EE3C701B6010E9474
:1018800041346F8B788F898F9A8F29E33EE843EE3E
:101890005EE3C701B6010E9441346B8F7C8F8D8F50
:1018A0009E8F18A30F8F5E824D82398539838D8577
:1018B0008A838301AF8DB8A11896BE87AD87EF8D5F
:1018C000F8A181919191A191B191F8A3EF8F8987AE
:1018D0009A87AB87BC87D1016D917D918D919D9148
:1018E0001D01ED81FE814190519061907190FE83C8
:1018F000ED83A981BA81CD90DD90ED90FD90BA8302
:10190000A9832F85388949895A890E9441344B011E
:101910005C012F89388D498D5A8DC301B2010E9417
:1019200041349B01AC01C501B4010E94E9314B0176
:101930005C012B8D3C8D4D8D5E8DC701B6010E94E3
:1019400041349B01AC01C501B4010E94E9312985F4
:101950003A854B855C850E94E931F801619371936A
:10196000819391938F012D853E858F8D98A12817A6
:10197000390709F0A4CFE091C603F091C7030190A5
:10198000F081E02D8B899C89AD89BE89808391830C
:10199000A283B383E0918C03F0918D0381E090E00A
:1019A0009183808380915B0490915C04A0915D049D
:1019B000B0915E040196A11DB11D80935B049093CC
:1019C0005C04A0935D04B0935E04809196039091B3
:1019D0009703A0919803B0919903E0917A04F09154
:1019E0007B0480839183A283B3838091630490916D
:1019F0006404A0916504B09166040196A11DB11D17
:101A00008093630490936404A0936504B093660488
:101A1000A0960FB6F894DEBF0FBECDBFDF91CF9179
:101A20001F910F91FF90EF90DF90CF90BF90AF90FC
:101A30009F908F907F906F905F904F903F902F90EE
:101A40000895C12CD12C9FE7E92E93E4F92ED2CC36
:101A5000C12CD12C7601CECCC12CD12C8FE7E82E15
:101A600083E4F82E0FCDC12CD12C76010BCD8090C4
:101A7000880A9090890AA0908A0AB0908B0AA501E2
:101A80009401C301B2010E944D3281110BC0C0927A
:101A9000880AD092890AE0928A0AF0928B0AECE8CE
:101AA000FAE064CDA501940169817A818B819C81E2
:101AB0000E944D3287FFEBCF4FCD80936D0495C9C7
:101AC00029813D81412F502FB301C7010E944D3222
:101AD00087FDBDCA2CE8E22E2AE0F22ECBCA8F92F7
:101AE0009F92AF92BF92CF92DF92EF92FF92CF93ED
:101AF000DF9300D000D01F921F92CDB7DEB7C09009
:101B00002002D0902102E0902202F0902302A7014F
:101B1000960160913F0A7091400A8091410A90912C
:101B2000420A0E944D32882341F0C0923F0AD0926F
:101B3000400AE092410AF092420A80913E0A8111E5
:101B400010923E0ABE016F5F7F4F8091430A0E9450
:101B50009D02C0902402D0902502E0902602F090D1
:101B60002702A70196016091330A7091340A80918F
:101B7000350A9091360A0E944D32882341F0C09276
:101B8000330AD092340AE092350AF092360A8091F4
:101B9000320A81111092320ABE016B5F7F4F809131
:101BA000370A0E949D0260914C0270914D02809113
:101BB0004E0290914F020E94EC3220E030E040E073
:101BC0005AE20E9441346B017C0169817A818B81E8
:101BD0009C810E94EC32A70196010E9441344B0186
:101BE0005C016D817E818F8198850E94EC32A70116
:101BF00096010E9441346093740A7093750A809331
:101C0000760A9093770A8092780A9092790AA09245
:101C10007A0AB0927B0A8091670490916804A0913F
:101C20006904B0916A040196A11DB11D80936704F7
:101C300090936804A0936904B0936A0428960FB641
:101C4000F894DEBF0FBECDBFDF91CF91FF90EF9034
:101C5000DF90CF90BF90AF909F908F9008954F925C
:101C60005F926F927F92AF92BF92DF92EF92FF925C
:101C70000F931F93CF93DF9384E090E01DD3E6E8AA
:101C8000F3E087E794E097838683CAE7D4E0D093B4
:101C9000C703C093C6030FE514E0158B048B24E142
:101CA00034E037AF26AF6EE074E07093CB036093FF
:101CB000CA0323E534E03093C9032093C80325E524
:101CC00034E03093CD032093CC0320E134E0309313
:101CD000CF032093CE0322E134E03093D10320934D
:101CE000D00346E154E050930D0440930C04F0936C
:101CF000F103E093F003F583E48321E030E0DC01BD
:101D00002D933C938BE394E02BE134E0DC012D93A5
:101D10003C9323E234E030933E0420933D042BE2D5
:101D200034E03093400420933F0423E334E03093C5
:101D30004204209341042CEE39E0DB012D933C93C7
:101D400060EA7AE0DA016D937C9310926F0410924E
:101D5000700410927104109272049187808710921F
:101D6000070485E992E0938782874CE754E0598322
:101D70004883412C512C80E8682E8FEB782E4092BE
:101D800073045092740460927504709276049AE021
:101D9000492E97ED592E93E2692E9CE3792ED801B6
:101DA0004D925D926D927C921397C3E4D4E087EEDE
:101DB0009DEEA3E9B5E588839983AA83BB8386E773
:101DC0009CE9ADEEBEEC8093470490934804A09349
:101DD0004904B0934A0484EE93EAA6EDB4E88093F4
:101DE0004B0490934C04A0934D04B0934E048EE7A3
:101DF00094E3A5ECB8E280934F0490935004A09331
:101E00005104B0935204AAE7B3E0B383A283E8E697
:101E1000F3E01196FC93EE938AE992E0918380833C
:101E20009383828395838483978386839187808736
:101E3000938782879587848797878687918B808B06
:101E400089E594E015969C938E9314971396DC93F2
:101E5000CE93129717965C934E93169740E0A42E5C
:101E600042E0B42EF50180A991A9A2A9B3A9E4EF9B
:101E7000F9E080879187A287B38784879587A687B3
:101E8000B787CCE2DAE08093740A9093750AA09346
:101E9000760AB093770A8093780A9093790AA09390
:101EA0007A0AB0937B0A8091AA0A9091AB0AA0911A
:101EB000AC0AB091AD0A80937C0A90937D0AA093FE
:101EC0007E0AB0937F0A8093880A9093890AA09330
:101ED0008A0AB0938B0AF50184A995A9A6A9B7A986
:101EE0008093940A9093950AA093960AB093970AC8
:101EF0008093980A9093990AA0939A0AB0939B0AA8
:101F000080859185A285B385F90180839183A28321
:101F1000B383F50184859585A685B785F90184830A
:101F20009583A683B78318AA412C512C3201439480
:101F300049AA5AAA6BAA7CAAE12CF12C8701A80114
:101F400097016CE070E080E090E00E943A039FAB64
:101F50008EABDD24D394DDAA18A249A25AA26BA2AB
:101F60007CA2A80197016BE070E080E090E00E9405
:101F70003A039FA38EA3DDA218AE49AE5AAE6BAE54
:101F80007CAE61E08DE00E94D904DDAE10926C0A57
:101F900040926D0A50926E0A60926F0A7092700AB7
:101FA00061E088E00E94D904D092710A18A649A67F
:101FB0005AA66BA67CA6A801970169E070E080E0B4
:101FC00090E00E943A039FA78EA7DDA6188E498E47
:101FD0005A8E6B8E7C8EA80197016AE070E080E0DB
:101FE00090E00E943A039F8F8E8FDD8E1F8A1C86A1
:101FF000F50180A191A1A2A1B3A18B8B9C8BAD8B8C
:10200000BE8B4D865E866F86788A43E45AE063E035
:1020100082E00E949401D98A1A8A8F890E94AF02B5
:102020001B861882F50184A195A1A6A1B7A18F8373
:102030009887A987BA8749825A826B827C8247E354
:102040005AE063E182E10E949401DD821E828B8569
:10205000DF91CF911F910F91FF90EF90DF90BF9094
:10206000AF907F906F905F904F900C94AF028091F3
:102070005C0A81112EC081E080935C0A80915D0A28
:1020800090915E0AA0915F0AB091600A0197A10544
:10209000B105F9F48091610A8823D9F06CE070E011
:1020A00080E090E00E94F6029093630A8093620AB7
:1020B00040E050E0BA010E94BF026CE070E080E0B6
:1020C00090E00E94F6029093630A8093620A0E9455
:1020D0008B0380914C0A81112EC081E080934C0AC1
:1020E00080914D0A90914E0AA0914F0AB091500AEA
:1020F0000197A105B105F9F48091510A8823D9F01F
:102100006BE070E080E090E00E94F6029093530A4A
:102110008093520A40E050E0BA010E94BF026BE097
:1021200070E080E090E00E94F6029093530A809362
:10213000520A0E948B038091640A811103C081E0DE
:102140008093640A80916C0A811103C081E08093BE
:102150006C0A8091540A81112EC081E08093540A48
:102160008091550A9091560AA091570AB091580A49
:102170000197A105B105F9F48091590A8823D9F096
:1021800069E070E080E090E00E94F60290935B0AC4
:1021900080935A0A40E050E0BA010E94BF0269E011
:1021A00070E080E090E00E94F60290935B0A8093DA
:1021B0005A0A0E948B038091440A81112EC081E04B
:1021C0008093440A8091450A9091460AA091470A5B
:1021D000B091480A0197A105B105F9F48091490A27
:1021E0008823D9F06AE070E080E090E00E94F60277
:1021F00090934B0A80934A0A40E050E0BA010E9453
:10220000BF026AE070E080E090E00E94F6029093E6
:102210004B0A80934A0A0E948B038091380A8111ED
:1022200014C081E08093380A8091390A90913A0A6B
:10223000A0913B0AB0913C0A0197A105B10529F490
:1022400080913D0A81110E94BC0280912C0A81116B
:1022500014C081E080932C0A80912D0A90912E0A5F
:10226000A0912F0AB091300A0197A105B10529F478
:102270008091310A81110C94BC02089560E070E0F5
:1022800080E89FE7089560E070E080E89FE70895A8
:1022900060E070E080E89FEF089560E070E080E823
:1022A0009FEF089560E070E080EC9FEF089560E09C
:1022B00070E080EC9FEF0895F5DF6093AE0A7093B5
:1022C000AF0A8093B00A9093B10AF1DF6093A20A3B
:1022D0007093A30A8093A40A9093A50ACFDF60931A
:1022E000AA0A7093AB0A8093AC0A9093AD0ACBDF35
:1022F0006093A60A7093A70A8093A80A9093A90AEC
:10230000C7DF6093B20A7093B30A8093B40A9093C4
:10231000B50AC3DF6093B60A7093B70A8093B80A10
:102320009093B90A0895CF92DF92EF92FF92CF93E4
:102330006B017C01AC019B016091AA0A7091AB0A10
:102340008091AC0A9091AD0A0E944D32C1E0882381
:1023500071F0A70196016091B20A7091B30A809161
:10236000B40A9091B50A0E944D328111C0E08C2FC1
:10237000CF91FF90EF90DF90CF9008950F931F9330
:102380008B019C010027112720783F77011511054B
:1023900020483F4749F4AB01BC016F77772781E0C4
:1023A000452B462B472B09F480E01F910F91089590
:1023B000E5CF4F925F926F927F928F929F92AF92F2
:1023C000BF92CF92DF92EF92FF920F931F93F894F8
:1023D00040909404509095046090960470909704F7
:1023E000C0908804D0908904E0908A04F0908B0417
:1023F0004130510509F0A4C09B01AC0124193509F5
:102400004609570929013A0100919004109191045D
:10241000209192043091930448015901840C951C39
:10242000A61CB71C80169106A206B306A0F4009164
:102430008C0410918D0420918E0430918F040F5FD5
:102440001F4F2F4F3F4F00938C0410938D04209308
:102450008E0430938F048092900490929104A09205
:102460009204B092930400918C0410918D042091F9
:102470008E0430918F048092980490929904A092D7
:102480009A04B0929B0400939C0410939D042093A3
:102490009E0430939F0460939404709395048093FA
:1024A000960490939704A0E1B7E2A30192010E94E1
:1024B000023D6C0D7D1D8E1D9F1D609388047093E1
:1024C000890480938A0490938B0400915C0210919C
:1024D0005D0220915E0230915F020F3F1F4F2F4F30
:1024E0003F4FF1F000915C0210915D0220915E027D
:1024F00030915F020E3F1F4F2F4F3F4F89F0C0902A
:102500005C02D0905D02E0905E02F0905F0221E0FC
:102510008C149D04AE04BF0408F420E02093A404AE
:1025200078941F910F91FF90EF90DF90CF90BF9024
:10253000AF909F908F907F906F905F904F90089595
:102540004B015C0184189508A608B708A301920105
:10255000261B370B480B590B641575058605970527
:10256000D0F082169306A406B50640F420E030E0D1
:10257000A90181149104A104B10491F4A0E1B7E28E
:102580000E94023DA7019601261B370B480B590BF1
:10259000CA01B901C5CF82169306A406B50670F725
:1025A000A0E1B7E2A50194010E94023D6C0D7D1DE2
:1025B0008E1D9F1DB5CFFDCECF93DF9300D01F9210
:1025C000CDB7DEB71C821B821A8219821092A0043A
:1025D0001092A1041092A2041092A304BE016F5F96
:1025E0007F4FCE0103960E94D92F69817A818B811A
:1025F0009C810E94C728009761F4BE016F5F7F4FE6
:10260000CE0103960E94E52F69817A818B819C819E
:102610002FD50F900F900F900F90DF91CF910895CD
:10262000FF920F931F93CF93DF93082F60E070E02A
:10263000CB010E94E636FF24F3940E94B027EC0100
:10264000892B89F010E0CE3F8FEFD80769F0002387
:1026500061F160E070E0CB010E94E63681E090E03D
:10266000892B59F322C011E026D5EC01892B21F0EA
:10267000CE3F8FEFD80759F711111EC011E02296F7
:1026800009F410E00E946027EC01892B21F0CE3F75
:102690008FEFD807E1F6111111C011E0CE3F8FEF97
:1026A000D80709F410E001110BC0CE01DF91CF91E2
:1026B0001F910F91FF90089511E0E4CF11E0F3CF47
:1026C00060E070E0CB010E94E6361F25812F90E08C
:1026D000C7CFCF93DF938091A404882321F060E0DB
:1026E00070E0CB014DD636D6D0E0C0E0892B71F03A
:1026F0006AE070E080E090E00E94E63681E090DFE2
:1027000029D62196C03D27E0D20781F728D60E941E
:102710001B291092BC041092BB041092B5041092B5
:10272000B6041092B7041092B8041092B10410923B
:10273000B2041092B3041092B4041092AD0410923B
:10274000AE041092AF041092B0041092A90410923B
:10275000AA041092AB041092AC041092A50410923B
:10276000A6041092A7041092A8044EEF5FEF6FEF3B
:102770007FEF40935C0250935D0260935E02709322
:102780005F021092A404E8E9F4E028E0DF011D9262
:102790002A95E9F7109294041092950410929604E9
:1027A0001092970410929004109291041092920447
:1027B0001092930410928C0410928D0410928E0447
:1027C00010928F04109288041092890410928A0447
:1027D00010928B04DF91CF9108951092C80410924B
:1027E000C9041092CA041092CB041092C7048091BD
:1027F000D0049091D1049093C6048093C5041092A4
:10280000C4041092C3041092BF041092C00410922A
:10281000C1041092C2041092CD041092CC0490E036
:1028200080E00895CF92DF92EF92FF920F931F9373
:10283000CF938C01019709F055C02091D0043091BD
:10284000D1048091C5049091C6044091D004509168
:10285000D1045093C6044093C5042817390781F06A
:102860001092C4041092C3041092BF041092C004CA
:102870001092C1041092C2041092CD041092CC04A4
:102880008091D0049091D104019761F58091CC049E
:102890009091CD04892B21F480916002811112C0A6
:1028A0008091CC049091CD040197E1F48091BF0414
:1028B0009091C004A091C104B091C2040197A105F8
:1028C000B10581F41092BF041092C0041092C104AB
:1028D0001092C2041092600282E090E09093CD04C6
:1028E0008093CC048091D0049091D104019709F099
:1028F0001CC18091E6049091E7048017910709F0CC
:1029000014C18091E2049091E304A091E404B09199
:10291000E504009709F409C12091E10421110DC0DB
:102920004091E2045091E3046091E4047091E50465
:10293000452B462B472B09F4F8C02091CC0430914D
:10294000CD042230310509F0F0C02091C3042111DB
:10295000ECC0FC01C080D180E280F3808091C7048C
:10296000882309F4D3C08091D3049091D404892B97
:1029700009F4FEC02091D3043091D40481E02230C8
:10298000310509F080E02091D3043091D404C1E0F6
:102990002130310549F02091D3043091D404C1E0B5
:1029A0002230310509F0C0E0882309F456C0209197
:1029B000DD043091DE044091DF045091E004C70152
:1029C000B6010E943D3487FD14C02091DD04309192
:1029D000DE044091DF045091E0046091C8047091DE
:1029E000C9048091CA049091CB040E944D3287FDA6
:1029F00022C02091DD043091DE044091DF0450912B
:102A0000E004C701B6010E943D34181634F5209148
:102A1000DD043091DE044091DF045091E0046091C8
:102A2000C8047091C9048091CA049091CB040E949B
:102A30004D32811112C08091D5049091D604A0919D
:102A4000D704B091D804892B8A2B8B2B19F481E001
:102A50008093C40481E08093C304CC2309F456C05E
:102A60002091DD043091DE044091DF045091E004B8
:102A7000C701B6010E944D3287FF14C02091DD04CA
:102A80003091DE044091DF045091E0046091C8046D
:102A90007091C9048091CA049091CB040E943D3486
:102AA00087FF22C02091DD043091DE044091DF04D5
:102AB0005091E004C701B6010E944D32811126C039
:102AC0002091DD043091DE044091DF045091E00458
:102AD0006091C8047091C9048091CA049091CB049C
:102AE0000E943D34181694F48091D5049091D60438
:102AF000A091D704B091D804892B8A2B8B2B19F481
:102B000081E08093C40481E08093C30481E09091CC
:102B1000C304911180E08093C704C092C804D0928E
:102B2000C904E092CA04F092CB040130110509F007
:102B300067C18091CC049091CD04892BD9F4109277
:102B4000D2041092C30480916002882379F082E05D
:102B500090E09093CD048093CC0410926002209179
:102B6000D0043091D10481E0232BE9F080E01BC038
:102B700081E009CF109260028091D204882349F04D
:102B80001092C4041092CD041092CC041092D2047E
:102B9000EDCF8091D0049091D104892BE1F0809108
:102BA000C3041092C3042091CC043091CD04223090
:102BB000310509F45EC088F42115310509F448C0D7
:102BC0002130310509F4F3C01092C4041092C304FB
:102BD0001092D20438C081E0E6CF2330310509F4E9
:102BE000B1C02430310581F74091BF045091C00439
:102BF0006091C1047091C2044115510561057105D0
:102C000061F041505109610971094093BF0450932B
:102C1000C0046093C1047093C2044091BF045091FA
:102C2000C0046091C1047091C204452B462B472B10
:102C3000D9F42091CE043091CF042130310509F030
:102C400046C01092C4041092CD041092CC040CC063
:102C500080916002882341F082E090E09093CD045F
:102C60008093CC04109260021092BD048091C40441
:102C7000CEC08823C9F38091D5049091D604A09149
:102C8000D704B091D804181619061A061B060CF0C2
:102C90007DC08091D0049091D104019709F076C055
:102CA0008091D5049091D604A091D704B091D80416
:102CB0008093BF049093C004A093C104B093C20456
:102CC00083E090E09093CD048093CC04CDCF4091ED
:102CD000D9045091DA046091DB047091DC04452B37
:102CE000462B472BA9F01092C4048091D9049091EF
:102CF000DA04A091DB04B091DC048093BF049093CC
:102D0000C004A093C104B093C20481E090E0DACF84
:102D1000882399F08091610290916202A0916302F0
:102D2000B09164028093BF049093C004A093C10447
:102D3000B093C20484E090E0C5CF1092C40482E056
:102D400090E0C0CF8091BF049091C004A091C104D5
:102D5000B091C2040097A105B10559F00197A109EE
:102D6000B1098093BF049093C004A093C104B093B1
:102D7000C2048091BF049091C004A091C104B0919D
:102D8000C204892B8A2B8B2B09F06ECF80916102B4
:102D900090916202A0916302B0916402892B8A2B08
:102DA0008B2B09F44ECF81E08093C404B3CF4091C4
:102DB000BF045091C0046091C1047091C2044115D8
:102DC00051056105710561F04150510961097109B1
:102DD0004093BF045093C0046093C1047093C20435
:102DE0004091BF045091C0046091C1047091C2042D
:102DF000452B462B472B09F037CF8111C7CF9FCFEB
:102E00008091BD04882309F431CF8091BE04CF9115
:102E10001F910F91FF90EF90DF90CF900895109247
:102E2000C8041092C9041092CA041092CB041092E4
:102E3000C7041092CD041092CC041092C6041092D4
:102E4000C5041092E7041092E6041092C404109294
:102E5000C3041092BF041092C0041092C1041092D7
:102E6000C2041092BE041092BD041092E2041092AB
:102E7000E3041092E4041092E5041092E10410922D
:102E8000DD041092DE041092DF041092E00488EE5C
:102E900093E0A0E0B0E08093610290936202A0937F
:102EA0006302B09364021092D9041092DA04109273
:102EB000DB041092DC041092D5041092D604109218
:102EC000D7041092D8041092D4041092D30481E055
:102ED000809360021092D2041092D1041092D00418
:102EE0001092CF041092CE0490E080E0089580917B
:102EF000D0049091D104892B19F580916002882328
:102F000051F08091D204811106C081E08093BE040B
:102F10008093BD0408952091D2043091600281E035
:102F200090E0332311F090E080E030E0822393239F
:102F3000892B21F01092BE0481E0EACF1092BD04EB
:102F4000089582E090E0FA01918380838FEF9FEFF4
:102F50000895CF93DF93EA01009711F00E943B2A76
:102F60001982188290E080E0DF91CF910895DB0113
:102F7000009719F48FEF8C9308952EEF2C93FC019A
:102F80003F96EF30F10508F034C08827E553F84E3E
:102F90008F4F0C94DF3CF717F517F317F117EF1766
:102FA000EB17ED17E917E717E517E217DE17DA1742
:102FB000E017F91780E311968C93089589E2FBCF0F
:102FC00082E2F9CF11961C92089583E2F4CF81E258
:102FD000F2CF81E1F0CF87E2EECF8AE2ECCF80E161
:102FE000EACF84E2E8CF88E2E6CF86E2E4CF81E36D
:102FF000E2CF80E2E0CF8091F4049091F50408954F
:103000009093F5048093F40408958091F304089557
:103010009091F304892B8093F3040895982F909551
:103020008091F30489238093F30408958091F2043E
:1030300008958091F0049091F1040895611571054F
:1030400059F0FB0130E020E070E060E02417350724
:1030500019F06115710511F0CB010895A081B181BE
:10306000A817B90709F4BF012F5F3F4F3696EECF7F
:103070008091F60481111CC060D266D29093E9045D
:103080008093E8040E9439220E944B229093ED0421
:103090008093EC040E94C8260E94CF269093EB04F4
:1030A0008093EA0481E08093F60490E080E0089544
:1030B00084EF9FEF08958F929F92AF92BF92CF922D
:1030C000DF92EF92FF920F931F93CF93DF9300D085
:1030D00000D000D01F92CDB7DEB71A8619861886A9
:1030E0001F821E821D821C821B821A82198280917D
:1030F000F60407EF1FEF882309F49CC08E010D5FD3
:103100001F4F9E012B5F3F4FAE01495F5F4FBE01D6
:10311000675F7F4F90E080E00E944C288C01009711
:1031200021F00596029708F0DBC029853A85211524
:10313000310509F402C1ED80FE804B815C81B7014D
:10314000640F751F8F8198858617970708F4F5C05F
:10315000E20EF31ED7019C91903C09F07FC04230F3
:10316000510508F47BC011968C914091F404509164
:10317000F504452B09F49CC0913F08F071C02CE187
:10318000290F2D3008F48BC02DE2290F203108F4CF
:1031900089C0903C21F48150823008F483C088E3D8
:1031A000890F8B3008F481C097EBC92E97E1D92E97
:1031B000E1EAF7E16D817E81AE014F5F5F4F898566
:1031C0009A8519955C01C114D104A1F189809A8076
:1031D0008114910479F18B819C818815990508F4FB
:1031E00087C010E000E04B815C8170E060E0C701C7
:1031F0000E94153D01151105E9F449815A8169853F
:103200007A858D819E81680F791FC501F601199518
:10321000E980FA800D811E812F81388549855A8584
:103220006FEF7FEF81E090E00E94E7278C01892B10
:1032300009F056C0C8012A960FB6F894DEBF0FBE3B
:10324000CDBFDF91CF911F910F91FF90EF90DF9055
:10325000CF90BF90AF909F908F90089580E085CFE2
:1032600030E020E0220F331FF901E851FB4F0190BD
:10327000F081E02D309709F497CF892F90E01995D0
:10328000009709F491CFDC011296ED91FC91139710
:103290001496CD90DC90309709F08CCF1FC021E0C0
:1032A00030E0E0CF22E030E0DDCF23E030E0DACFE5
:1032B000D12CC12CE9EAF7E19F3F09F07BCFE091E7
:1032C000E804F091E904309721F4C90104EF1FEFFD
:1032D0000CC08FEF90E019950097A9F604EF1FEF4F
:1032E00089859A85009709F4A5CF0E943B2AA2CF31
:1032F0000E9416298C0189859A850E943B2A70E0DC
:1033000060E0C4010E94AF2898878F830E94E42761
:103310009E838D836F8178856115710559F0C80191
:103320000E94C72B9A87898706EF1FEF892B09F028
:1033300058CF59CF08EF1FEF56CF08EF1FEFD0CF70
:103340002091F604222319F020E00C94502287EFFC
:103350009FEF08958091F4049091F50408950E94E0
:10336000D4260E942E26F5D0E8EEF4E088E0DF01B6
:103370001D928A95E9F71092F60490E080E0089596
:103380000C948C2421E040E050E0BA010C945022CF
:1033900086E090E0FA019183808390E080E00895D8
:1033A00047E050E06DE972E049CEDF92EF92FF9284
:1033B0000F931F93CF93DF938A01EC01C60FD71FA2
:1033C000E090FA04F090FB04D9800E94FE28D81601
:1033D000190678F082E090E0F801918380838EEF07
:1033E0009FEFDF91CF911F910F91FF90EF90DF90B2
:1033F0000895EF2841F482E090E0F8019183808302
:1034000084EF9FEFEECF89818093F90490E00196DD
:10341000F8019183808390E080E0E3CFCF93DF9346
:10342000EA010E943D25882321F00E940B290E9479
:103430003E2582E090E0998388838BEF9FEFDF91B8
:10344000CF910895CF93DF93EB0186E0FB011192BA
:103450008A95E9F78FEF8883D8DD8983E7DD8A8352
:10346000E8DD9D838C83DF91CF910895CF93DF9327
:10347000EA010E944025811109C082E090E0998311
:10348000888385EF9FEFDF91CF91089590E080E0F2
:10349000B7DD81E090E09983888390E080E0F3CF0E
:1034A0000F931F93CF93DF93EA018C01060F171F31
:1034B0000E94402581110BC082E090E099838883AF
:1034C00085EF9FEFDF91CF911F910F910895F80144
:1034D0008181823038F082E090E0998388838EEF9A
:1034E0009FEFF0CF81E090E08BDD88E090E0998362
:1034F000888390E080E0E6CFCF93DF930097D1F40C
:10350000EB01FB01329686E0DF011D928A95E9F717
:103510008FEF888385E089831A820E94FE288B833F
:103520000E94FD289D838C8381E08E838F83DF91B1
:10353000CF910895DF91CF911ACD80ED99E19093CD
:10354000F8048093F70408958091F7049091F804AB
:1035500008951092F8041092F70408958091FA04E7
:103560009091FB040895411105C061157105810515
:10357000910561F06093FA047093FB048093FC045E
:103580009093FD044093FE0481E0089580E0089547
:10359000FF920F931F93CF93DF938A01EC01C60F25
:1035A000D71FF9800E94FE28F816190668F082E0FD
:1035B00090E0F801918380838EEF9FEFDF91CF91B0
:1035C0001F910F91FF9008956C817D818E819F8165
:1035D0004B81C9DF811108C082E090E0F80191833E
:1035E000808384EF9FEFEACF89818093F90490E094
:1035F0000196F8019183808390E080E0DFCFCF9344
:10360000DF93EA01FC01E60FF71F64817581868173
:1036100097814381A8DF811109C082E090E09983FE
:10362000888384EF9FEFDF91CF91089581E090E050
:103630009983888390E080E0F6CFEAEFF4E0408160
:10364000518162817381480F511D611D711D40833D
:103650005183628373830895CF93C091F9044C2FF3
:1036600050E06091FA047091FB0401960E940C3DB9
:103670008C2FE3DF1092F904CF910895009799F40D
:103680008091FA049091FB042FEFFB012083892B9A
:1036900059F02091F90430E02F5F3F4F2417350790
:1036A00019F4CB01D9CF63CC0895009799F4809198
:1036B000FA049091FB042FEFFB012083892B59F032
:1036C0002091F90430E02F5F3F4F2417350719F49C
:1036D000CB01C2CF4CCC089523E1AC01249FC001A3
:1036E000259F900D1124E0910305F0910405E80F4A
:1036F000F91F238134812250310981E022303105C4
:1037000008F080E008950F931F93CF93DF9300910B
:10371000050510910605D0E0C0E080E00C171D07FC
:1037200049F491E0811190E0892FDF91CF911F91B1
:103730000F9108958111F5CFCE01CEDF2196EECF06
:10374000A0910305B0910405109729F1209105057A
:103750003091060582179307F0F453E1589F9001CA
:10376000599F300D1124A20FB31FED91FC911197B9
:10377000309789F012968C91681768F48DE0689FF5
:10378000E00DF11D112480819181892B21F081E0D0
:103790009281491708F080E008959C0143E1429F1F
:1037A000C001439F900D1124E0910305F0910405A1
:1037B000E80FF91F8385823091F481E090E0658104
:1037C000768140916502509166026417750711F485
:1037D00090E080E0892B19F081E0232B09F080E054
:1037E0000895FC01A081B1818DE0689FA00DB11DFD
:1037F000112413964D915C9185859685489F900183
:10380000499F300D589F300D1124C9010196611157
:1038100003C0478144FD04960895EF92FF920F93F1
:103820001F93CF93DF93EA01FC01E60FF71F02819C
:103830001381E480F5804F2D6E2DC80181DF811149
:103840000DC082E090E0998388838EEF9FEFDF9137
:10385000CF911F910F91FF90EF900895C8013CDF29
:10386000882339F082E090E09983888388EF9FEF86
:10387000EECF10936C0200936B02E0926D02F09217
:103880006E0281E090E09983888390E080E0DFCF52
:10389000CF92DF92EF92FF920F931F93CF93DF931C
:1038A0007A01EC01C60FD71FC0906B02D0906C025A
:1038B00000916D0210916E02412F602FC60140DF12
:1038C000811110C082E090E0F701918380838AEF3C
:1038D0009FEFDF91CF911F910F91FF90EF90DF90BD
:1038E000CF900895C601F8DE882341F082E090E091
:1038F000F7019183808388EF9FEFEBCF4C815D814F
:103900006E817F819A8189818F3F41F082E090E0D2
:10391000F701918380838EEF9FEFDBCFE3E1EC9D96
:103920009001ED9D300D1124E0910305F091040507
:10393000E20FF31F0190F081E02D2DE0029FE00DDA
:10394000F11D11240190F081E02D27E0129FE00D80
:10395000F11D1124808391838B818283438354835F
:10396000658376831F5F10936E0281E090E0F7011C
:103970009183808390E080E0ACCFEF92FF920F9331
:103980001F93CF93DF937A018C01060F171FC0910D
:103990000305D0910405209781F021E030E0F80183
:1039A0008281938140910505509106058417950702
:1039B00010F030E020E0232B71F482E090E0F7017A
:1039C000918380838EEF9FEFDF91CF911F910F91B5
:1039D000FF90EF90089543E1489F9001499F300D7B
:1039E0001124C20FD31F78DE882341F082E090E0DB
:1039F000F7019183808388EF9FEFE6CFF801248160
:103A0000358120383105C8F687818111D6CF4181B3
:103A1000842F90E08F7E009741F082E090E0F701E4
:103A20009183808386EF9FEFCFCF4F833E832D839B
:103A3000268128871986223010F421E0288721E08A
:103A400030E0F70131832083BFCF88E090E0FA01B6
:103A50009183808390E080E00895FB018FEF808365
:103A600081E181838FEF9FEF9383828380E890E0F1
:103A700095838483168217820895FB018FEF8083DC
:103A800091E0918382839383848384E3858381E0BF
:103A900090E0978386830895DF92EF92FF920F93D1
:103AA0001F93CF93DF93EA01FC01E60FF71F81819B
:103AB000813071F082E090E0998388838FEF9FEFEF
:103AC000DF91CF911F910F91FF90EF90DF900895BC
:103AD00082819381D4802581E680F780009103055F
:103AE000109104050115110539F482E090E09983E5
:103AF00088838CEF9FEFE4CF409105055091060538
:103B00008417950738F082E090E0998388838EEFE0
:103B10009FEFD6CF892B39F082E090E0998388839C
:103B200086EF9FEFCDCF8D2D8D7FB1F72130A1F79F
:103B300081E0D11006C091E0E916F10431F080E097
:103B400004C0E2E0EE16F104D0F3882329F390E0FC
:103B500080E0C2DD882339F082E090E09983888399
:103B600088EF9FEFADCFF801D38681E08487F6869A
:103B7000E586108A178681E090E09983888390E03B
:103B800080E09ECF4CE050E067EC72E057CA8F9225
:103B90009F92BF92CF92DF92EF92FF920F931F936B
:103BA000CF93DF93EA01FC01E60FF71F8281938137
:103BB0000481B580E0910305F0910405309791F4FC
:103BC00082E090E0998388838CEF9FEFDF91CF9123
:103BD0001F910F91FF90EF90DF90CF90BF909F903B
:103BE0008F9008952091050530910605821793075F
:103BF00038F082E090E0998388838EEF9FEFE6CFE4
:103C000023E1289F6001299FD00C1124EC0DFD1D9C
:103C1000E080F180E114F10499F28281081748F7FD
:103C20008DE0089F80011124E00EF11EF7018081D4
:103C30009181892B29F6BB20E1F2F7E0BF9E40017C
:103C40001124C4010E94022AF70191838083E0912C
:103C50000305F0910405EC0DFD1D0190F081E02DB0
:103C6000E00FF11F80819181009739F482E090E0AC
:103C7000998388838DEF9FEFA9CFA40170E060E066
:103C80000E94153D8091030590910405C80ED91E30
:103C9000F60180819181080F191FF801B28281E03D
:103CA00090E09983888390E080E090CFAF92BF92BC
:103CB000CF92DF92FF920F931F93CF93DF93EA018E
:103CC000FC01E60FF71F82819381F48000910305C8
:103CD000109104050115110581F482E090E09983AB
:103CE00088838CEF9FEFDF91CF911F910F91FF9011
:103CF000DF90CF90BF90AF9008952091050530914F
:103D000006058217930738F082E090E09983888354
:103D10008EEF9FEFE8CF2FEF2F0D2C3FA8F723E179
:103D2000289F6001299FD00C11240C0D1D1DF80146
:103D300080819181892B89F6FDE0FF9E500111243D
:103D4000C5010E94022AF80191838083E091030556
:103D5000F0910405EC0DFD1D80819181009739F4EF
:103D600082E090E0998388838DEF9FEFBCCFA5011F
:103D700070E060E00E94153DE0910305F0910405BC
:103D8000EC0DFD1DF28281E090E09983888390E044
:103D900080E0A9CFCF92DF92EF92FF920F931F9313
:103DA000CF93DF93860F971FFC01028113818091CF
:103DB000030590910405892B81F082E090E0FA01DF
:103DC000918380838CEF9FEFDF91CF911F910F91B3
:103DD000FF90EF90DF90CF900895C801B0E0A0E091
:103DE0000197A109B1098F3F9F4FA105B10540F08F
:103DF00082E090E0FA01918380838EEF9FEFE4CF21
:103E00007A0183E1809F6001819FD00C1124C6015B
:103E10000E94022AEC01009741F482E090E0F70151
:103E2000918380838DEF9FEFCFCFA60170E060E09C
:103E30000E94153DD0930405C09303051093060519
:103E40000093050590E080E02FEF3FEF41E061E057
:103E500070E08017910741F481E090E0F7019183D1
:103E6000808390E080E0B0CF3A8B298B1B864C8713
:103E70007E876D87188A1F8601966396EACFEF9238
:103E8000FF921F93CF93DF93EC0110E0F12CE12C14
:103E90006A811617B0F083E0689FB0011124AE016B
:103EA0004F5E5F4FC7010E94672A009721F02FEFF6
:103EB0003FEF3A8B298BDF91CF911F91FF90EF90CD
:103EC0000895612FCE018DDC61E070E00E94AF2883
:103ED000E816F90608F47C011F5FDACFF894209108
:103EE00001053091020581E02115310509F080E0DE
:103EF000232B09F0789408952F923F924F925F926E
:103F00006F927F928F929F92AF92BF92CF92DF92E9
:103F1000EF92FF920F931F93CF93DF933C01660EB6
:103F2000771EF301828193814C01B12CA12CC091A9
:103F30000305D0910405209769F021E030E06091FD
:103F40000505709106058617970710F030E020E010
:103F5000232BD1F482E090E0FA01918380838EEFED
:103F60009FEFDF91CF911F910F91FF90EF90DF9026
:103F7000CF90BF90AF909F908F907F906F905F9009
:103F80004F903F902F90089580926F029092700210
:103F9000A0927102B092720263E1689F9001699FE2
:103FA000300D1124C20FD31FF3018181833040F003
:103FB00082E090E0FA019183808386EF9FEFD1CF7A
:103FC0002A012B813C81232BF1F4288139819F81A7
:103FD00091FF2EC0232B09F46FC0209108059A8110
:103FE000422F490F5527551FBA0141E050E0613873
:103FF000710514F050E040E0452B09F45DC02A87BC
:10400000920F909308058150823008F481C066DFDA
:10401000882309F4D8C0F3018181813009F48DC06F
:1040200008F47BC0823009F4C6C090E080E0ADC0E7
:10403000232B09F441C0209107059A81E22FE90F53
:10404000FF27FF1F41E050E0ED3FF10514F050E085
:1040500040E0452B89F12A87920F90930705D3CF33
:10406000A081B181A20FB31F11966C91060F111D93
:104070000196295F3F4F8417950794F38D859E85A0
:10408000089F1001099F300C189F300C1124C11497
:10409000D104D1F48F8184FF17C00E94FD28F5E080
:1040A0002F0E311C21E08215930508F420E0A701B2
:1040B000435F5F4F21110EC082E090E0F2019183D7
:1040C000808387EF9FEF4DCF0E94FD282FEF221AAC
:1040D000320AE8CF88819981E80EF91EF70114832E
:1040E0000383FFEFCF1ADF0A7A018A818C151D0442
:1040F00009F00CF48CCFE881F981EE0DFF1D4281AF
:1041000050E030E020E010E000E090E080E0B3CF4D
:10411000F12CE12CD12CC12CE8CF81E090E09C83E4
:104120008B83F1DA882309F480CF81E090E00E944C
:10413000001880E40E940E1878CF89899A89019628
:1041400061F083E090E09C838B8382E090E00E94AA
:10415000001880E40E94081868CF8D819E8120910C
:1041600065023091660282179307D1F4609169026B
:1041700070916A02AE014F5E5F4F8091670290912D
:1041800068020E94862B0097E1F2789422E030E0EA
:10419000F20131832083892B99F08DEF9FEFE1CEDF
:1041A00089288A288B2869F6039758F6CE0167DE9E
:1041B000188A1F86E8CF82E090E09C838B8335CFFE
:1041C00090E080E0CECE82E090E0F20191838083A7
:1041D00085EF9FEFC6CE8F929F92AF92BF92CF9204
:1041E000DF92EF92FF920F931F93CF93DF93EA0139
:1041F0008C01060F171FF8018181833098F082E04F
:1042000090E09983888386EF9FEFDF91CF911F9194
:104210000F91FF90EF90DF90CF90BF90AF909F9065
:104220008F9008958091030590910405892B61F08A
:1042300081E090E02091050530910605232B11F4D3
:1042400090E080E0892B39F482E090E099838883C4
:104250008EEF9FEFDACF42DE882309F4E0C0F80149
:104260008181813009F496C0E8F0823099F4209180
:10427000050530910605E0910305F091040590E0F5
:1042800080E041E050E02817390709F0BEC03BDA72
:10429000811117C0789481E090E09983888390E041
:1042A00080E0B3CF2091050530910605E09103052C
:1042B000F091040590E080E041E050E028173907D4
:1042C00041F481E090E00E94001880E40E940E1802
:1042D000E1CF63817481672B11F05483438301968E
:1042E0007396ECCFE0910305F0910405E00FF11F08
:1042F0002381348122303105D9F4218932892F3F3D
:104300003F4FB1F42581368140916502509166029C
:104310002417350761F5AF014F5E5F4F6091690269
:1043200070916A0280916702909168020E94862BC8
:10433000EFEFCE1ADE0AEE0AFE0A0D5E1F4F409125
:1043400005055091060570E060E0C416D506E60646
:10435000F70644F5009731F27894892B09F49BCF46
:1043600082E090E0998388838DEF9FEF4ECFC11458
:10437000D104E104F104E1F623303105C8F6CF01A0
:104380007EDDE0910305F0910405E00FF11F108A36
:104390001786CECF10E000E090E080E0C12CD12C59
:1043A0007601CDCF0097C1F610E000E0812C912C72
:1043B000540183E0E82EF12C1AC0E0910305F0913E
:1043C0000405E00FF11F83819481029749F4F48280
:1043D000E38282E090E00E94001880E40E940818C6
:1043E000FFEF8F1A9F0AAF0ABF0A0D5E1F4F809121
:1043F000050590910605B0E0A0E088169906AA068A
:10440000BB06DCF290E080E0A7CF6381748162306C
:10441000710511F4548343830196739634CF82E07F
:1044200090E09983888385EF9FEFEFCE0097B9F4F2
:104430008FEFFB01808320916F023091700243E186
:10444000429FC001439F900D1124E0910305F0911C
:104450000405E80FF91F8285FB01818308950C9400
:10446000B71788E090E0FA019183808390E080E0C4
:1044700008951092020510920105E3E0F5E086E050
:10448000DF011D928A95E9F782EC9DE1909300058A
:104490008093FF0408958091FF0490910005089592
:1044A0002F923F924F925F926F927F928F929F9244
:1044B000AF92BF92CF92DF92EF92FF920F931F9332
:1044C000CF93DF93CDB7DEB72F970FB6F894DEBF4B
:1044D0000FBECDBFF894E0910105F0910205319631
:1044E000F0930205E0930105789440900305509005
:1044F00004054114510409F40CC2E0910505F09142
:104500000605EF2B09F405C22D8749875A876B876B
:104510007C8798878F831201B12CA12C10E000E0DA
:104520008091050590910605A816B90618F40115A5
:10453000110529F1F89480910105909102050197E8
:1045400090930205809301057894C8012F960FB6C9
:10455000F894DEBF0FBECDBFDF91CF911F910F91B9
:10456000FF90EF90DF90CF90BF90AF909F908F9093
:104570007F906F905F904F903F902F9008957101C2
:10458000E418F508D10117968C91179781FD54C056
:1045900013968D919C911497039709F04DC0159631
:1045A0008D919C91EF81F8858E179F0709F044C08B
:1045B000B50190E080E07FD48A832091030530919B
:1045C00004053D832C833D85332309F44CC04C8185
:1045D0005D81452B09F49AC18091050590910605EE
:1045E000A816B90608F092C1C501D7D88823E9F00A
:1045F0006C817D816E0D7F1D7D836C83DB011F9639
:104600008D919C91892B89F0D12CC12CF12CE12C1E
:10461000AC81BD8112968C9112978E151F0409F002
:1046200094F450961C921E921F972A81222321F007
:10463000B50190E080E041D43FEFA31AB30A43E113
:10464000240E311C6DCFAC81BD81ED91FC91EC0D40
:10465000FD1D858196810FD7BFEFEB1AFB0AEDE0B8
:10466000CE0ED11CD5CFEC81FD81309709F44EC11F
:104670008091050590910605A816B90608F046C177
:10468000EE0DFF1DFF87EE87C50187D88B8388233A
:1046900039F1AE85BF851F968D919C9150970196FB
:1046A00021E01D964D915C918417950709F020E05B
:1046B0002E831982712C10E000E0AE85BF85129622
:1046C0008C91781608F45DC0EE85FF85878590890A
:1046D0000196658576850E94A93C908B8787A5CF3A
:1046E000B1E0BE83E6CF992493946BC08BD6F601DC
:1046F0009683858382C0D601ED90FC90B7E06B9ED7
:10470000E00CF11C1124F7016381748180818F3FDB
:1047100061F121E030E002C0220F331F8A95E2F7F9
:10472000C901092E000CAA0BBB0BFB014081518172
:104730006281738184239523A623B72321E0892BEB
:104740008A2B8B2B09F420E0D4012C93D7011196EE
:104750008C91F60123853485820F932F911D880E4D
:10476000991E1486138663949BC0418150E0C40156
:104770000E940C3DEBCF998206EF1FEFC5C0198256
:10478000C3C0F981F111A0CFEDE07E9E700111242C
:10479000AE85BF85CD90DC90CE0CDF1C15D49D83FB
:1047A0008C83BB81BB2309F49ECF81E0EE85FF851E
:1047B00027853089232B09F080E0982E882309F47F
:1047C00058C0672D8E859F850CD8D60118969C936E
:1047D0008E93179761E070E0C2D4EE85FF85218942
:1047E00032892F3F320709F481CFBC01C901CFD7ED
:1047F000D60116969C938E931597D60115968D919A
:104800009C911697009709F4B6CFEC81FD818E0F2D
:104810009F1F1A969C938E931997AE85BF85ED9135
:10482000FC911197EE0EFF1EF7012185328514864B
:1048300013861A968C91870DD9018D93711016C02D
:10484000EE85FF85878184FF11C049855A856B8578
:104850007C85F9014183528363837483F7018385E7
:1048600094850496A80FB91F14861386F701B287A2
:10487000A187D60115968D919C911697892B09F4E5
:1048800043C0EE85FF852581368180916502909138
:1048900066022817390779F019968D909C90612C43
:1048A000D60112968C911297681608F424CF1A96A6
:1048B0009C928E921997BE81BB2309F460CF61E070
:1048C00070E0F601878190854AD4D6011796ED9065
:1048D000FC90189715964D915C91E1E0F0E0BA815B
:1048E000BB2311F0F0E0E0E00C811D819C01B501DB
:1048F000882799278E1B9F0B6AD38C01892B21F067
:10490000F60185819681B7D57394D7CE0FEF1FEF4F
:104910008CCE10E000E00ECE2F923F924F925F922D
:104920006F927F928F929F92AF92BF92CF92DF92BF
:10493000EF92FF920F931F93CF93DF938091030524
:104940009091040510E000E0892BA9F0C7DA0AEF86
:104950001FEF882381F02090050530900605C09157
:104960000305D0910405D12CC12C10E000E02C14DB
:104970003D04A9F47894C801DF91CF911F910F9164
:10498000FF90EF90DF90CF90BF90AF909F908F906F
:104990007F906F905F904F903F902F900895C60149
:1049A0000E94CD1B882309F18B819C810397E9F438
:1049B0008F859889892BC9F0B60190E080E07BD281
:1049C00021E030E0882311F030E020E04424552439
:1049D000421A530AB12CA12C912C812C8A81881562
:1049E000190409F038F4188A1F864FEFC41AD40A44
:1049F0006396BDCFE881F981EA0DFB1D8581968123
:104A0000892BA1F161E070E087819085A8D33C01FA
:104A1000DBD28C01E881F981EA0DFB1D818592854D
:104A200025813681200F311FAC01421B530B9A01A7
:104A300047815085421B530B70E060E00E94153D9A
:104A4000E881F981EA0DFB1DE780F08445815681FC
:104A50009301B601C201BBD28C01892B39F0E881E8
:104A6000F981EA0DFB1D8581968105D55FEF851AD9
:104A7000950A8DE0A80EB11CB1CF30CA7894089584
:104A80002F923F924F925F926F927F929F92AF923E
:104A9000BF92CF92DF92EF92FF920F931F93CF932B
:104AA000DF9300D000D0CDB7DEB7009103051091A1
:104AB0000405992493940115110509F43EC0A090B2
:104AC0000505B09006050ADA982E8823B1F11092F8
:104AD0000405109203051092060510920505109228
:104AE0000705109208058FEF9FEFDC0180936F029E
:104AF00090937002A0937102B093720278947FD366
:104B00001E830D83C12CD12C7601C501B0E0A0E03D
:104B100089839A83AB83BC8322242A94322C898193
:104B20009A81AB81BC81C816D906EA06FB06F4F06F
:104B3000C801A1D480E40E940E18892D26960FB6D4
:104B4000F894DEBF0FBECDBFDF91CF911F910F91C3
:104B5000FF90EF90DF90CF90BF90AF909F907F90AD
:104B60006F905F904F903F902F900895AD81BE81E0
:104B700015968D919C911697209165023091660251
:104B800082179307D1F451968D919C91EED5ED81CA
:104B9000FE8180819181B12CA12C412C512C3201BC
:104BA000892B89F5BFEFCB1ADB0AEB0AFB0AED81F3
:104BB000FE817396FE83ED83B2CFC114D104E1046C
:104BC000F10429F7039718F7ED81FE818189928915
:104BD0008F3F980709F029D5AD81BE8152963C924E
:104BE0002E925197D4CF8A0D9B1DDC018D919C9103
:104BF000009709F040D4BFEF4B1A5B0A6B0A7B0A9F
:104C0000EDE0AE0EB11CAD81BE818D919C911197EE
:104C100012964C9150E070E060E04416550666062E
:104C200077060CF328D4BECFCF93DF93EA0128DFB9
:104C3000811109C082E090E09983888385EF9FEF1E
:104C4000DF91CF91089581E090E00E94001881E00B
:104C500090E09983888390E080E0F2CF11DF10929A
:104C600000051092FF04089542E050E06FE073E009
:104C70000C941E18FF920F931F93CF93DF938A011A
:104C8000EC01C60FD71FF980B9D20897F81619069C
:104C900071F068F082E090E0F801918380838EEFFC
:104CA0009FEFDF91CF911F910F91FF9008956C813D
:104CB0007D818E819F814B810E94B31A811108C032
:104CC00082E090E0F8019183808384EF9FEFE9CF49
:104CD000F9800E94AE1A4F2D50E0BE01685F7F4FF1
:104CE0000E940C3D89810E941D1B81E090E0F8012B
:104CF0009183808390E080E0D4CFDF92EF92FF92A7
:104D00000F931F93CF93DF938A01EC01C60FD71F38
:104D10000E94AE1A7C01D98071D2DD2059F0029731
:104D200021E030E0D816190619F010F030E020E04C
:104D3000232B79F482E090E0F801918380838EEF59
:104D40009FEFDF91CF911F910F91FF90EF90DF9038
:104D50000895EF2841F482E090E0F8019183808388
:104D600084EF9FEFEECFF9800E94AE1A4F2D50E0F6
:104D7000BE016E5F7F4F0E940C3D89810E941D1B0A
:104D800081E090E0F8019183808390E080E0D9CFCA
:104D900084E396E290930A05809309050895809133
:104DA000090590910A0508950895FC011182108269
:104DB000938382830895DB011D921C92DC0112967D
:104DC000ED91FC9113977183608313967C936E939E
:104DD00012970895FC0180819181DB018D939C9352
:104DE000A081B181109741F08D919C919183808336
:104DF000892B11F4F383E2830895FC018081918172
:104E0000DB018D939C93892B11F4738362837183EF
:104E100060830895FC011182108293838283089538
:104E2000CF93DF931F921F92CDB7DEB71A821982FC
:104E3000F894BE016F5F7F4F80E195E0CBDF898101
:104E40009A81009709F017D389819A81892B89F774
:104E5000BE016F5F7F4F84E195E0BCDF89819A815D
:104E6000009709F008D389819A81892B89F7789472
:104E70000F900F90DF91CF910895CF93DF931F9202
:104E80001F92CDB7DEB71A821982F894BE016F5F08
:104E90007F4F8CE095E09EDF89819A81009709F031
:104EA000EAD289819A81892B89F778940F900F90A3
:104EB000DF91CF91089581E0089590E080E008951A
:104EC000EF92FF920F931F93CF93DF931F921F9246
:104ED000CDB7DEB71A82198280910B0507EF1FEF5D
:104EE0008823A1F1F894BE016F5F7F4F84E195E0C4
:104EF00071DF789489819A81EE24E394F12C892BD7
:104F000051F4F894BE016F5F7F4F80E195E062DF5E
:104F10007894F12CE12C89819A810EEF1FEF009794
:104F2000A9F0FC014281538164E070E076D68C01E7
:104F3000892B61F0F89469817A81C701880F991FE4
:104F4000880F991F805F9A4F58DF7894C8010F909F
:104F50000F90DF91CF911F910F91FF90EF900895E7
:104F60000F931F93CF93DF9300D01F92CDB7DEB77F
:104F70001C821B821A82198280910B0507EF1FEF9A
:104F80008823C1F0AE014D5F5F4F64E070E0CE0159
:104F90000196B6D68C01892B69F4E981FA818B815F
:104FA0009C8193838283F89469817A818CE095E077
:104FB00002DF7894C8010F900F900F900F90DF914F
:104FC000CF911F910F910895BBD7049608958F92AA
:104FD0009F92AF92BF92CF92DF92EF92FF920F9388
:104FE0001F93CF93DF931F921F92CDB7DEB71A8224
:104FF0001982BC016F5F7F4F6330710598F0AA245E
:10500000AA94BA2CC5010F900F90DF91CF911F91F8
:105010000F91FF90EF90DF90CF90BF90AF909F9057
:105020008F9008954115510551F3480159018A01A6
:105030006C01CADF8815990511F7E114F104F9F242
:105040008E0D9F1DA816B906D0F280910B058823FE
:10505000F1F0F894B501645071099701AE014F5F0A
:105060005F4FC8010496E1D65C01892B71F48981F8
:105070009A81F80193838283C601880F991F880F54
:10508000991FB801805F9A4F96DE7894BBCF87EF67
:10509000A82EBB24BA94B6CFAF92BF92CF92DF9224
:1050A000EF92FF920F931F93CF93DF931F921F9264
:1050B000CDB7DEB71A821982892B09F047C0611576
:1050C000710509F443C04115510509F43FC021158C
:1050D000310509F43BC001151105C1F180910B05A3
:1050E0008823B9F179016A015B01F894BE016F5F11
:1050F0007F4F8CE095E06EDE789489819A810097ED
:1051000059F1DC0112966D917C91A8010496A6D606
:105110008C01E981FA81D501ED93FC938281938121
:105120000496F601918380834FDFD7018D939C9382
:10513000C8010F900F90DF91CF911F910F91FF90B9
:10514000EF90DF90CF90BF90AF9008950FEF1FEFDB
:10515000EFCF07EF1FEFECCF0EEF1FEFE9CFCF93AD
:10516000DF93EC01672B71F4F4D68C179D0760F088
:10517000E7D62496C80FD91FE6D68C0F9D1FDF9166
:10518000CF910895E3D6F1CF90E080E0F8CF0F9370
:105190001F93CF93DF9320910B0521112BC08B011F
:1051A000EC0180E195E001DE84E195E0FEDD8CE03C
:1051B00095E0FBDD97D00097C1F4CBD670E060E0BE
:1051C000CEDF43E752E062E070E081D1009769F4FE
:1051D0008091730290917402CED6B801CE0103D5AE
:1051E000009719F421E020930B05DF91CF911F91D7
:1051F0000F91089584EF9FEFF8CFA8C6AAC6CF936A
:10520000DF93AAD6EC01892B11F40ADE36DECE013B
:10521000DF91CF910895CF93DF939ED6EC01892B38
:1052200009F4FEDDCE01DF91CF91089580917302E4
:10523000909174020895CF93DF9380910B05D0E095
:10524000C0E08823D1F09CD6EC01892BB1F4E8DDD5
:1052500014DE8091730290917402E7D1E8D2EC01E0
:10526000892B59F480E195E0D5DD84E195E0D2DD2C
:105270008CE095E0CFDD10920B05CE01DF91CF9150
:105280000895EF92FF920F931F93CF93DF93EC015A
:105290007A018B010F5F1F4F0E9DA0010F9D500DD6
:1052A0001E9D500D112470E060E00E94153D90E0BD
:1052B00080E0F0E0E0E02FEFE816F90639F4DF9146
:1052C000CF911F910F91FF90EF9008951A8219824C
:1052D0002883309711F0D283C1830196FE01C00F5D
:1052E000D11FEACFCF92DF92EF92FF920F931F93DD
:1052F000CF93DF930DEA16E00C7F43E050E065E7C3
:1053000072E08BE792E01CD485E7E82E82E0F82E6D
:105310009BE7C92E92E0D92ECCE2D7E0D7014D9180
:105320005D917D01F601619171916F01198308838F
:105330005D834C835B834A837F836E839B012F5FF6
:105340003F4F249FC001259F900D349F900D112445
:10535000998788870115110511F0C80192DF8885AA
:105360009985080F191F2A96FBE7EF16F2E0FF0652
:10537000A9F6EAE1F5E080E991E0DF019C011D92E8
:1053800021503040E1F71092190510921805109243
:105390004B0710924A0710924F0710924E07109237
:1053A0004D0710924C07109251071092500710921F
:1053B00053071092520710925507109254071092FB
:1053C00059071092580710925707109256071092DB
:1053D0005B0710925A0710925D0710925C071092BB
:1053E00029071092280710922B0710922A0790E0A5
:1053F00080E0DF91CF911F910F91FF90EF90DF90B0
:10540000CF9008950097F1F0F894ABE7B2E0ECE2AA
:10541000F7E030E020E04D915D9148175907A8F082
:10542000428153814115510581F08AE0829FF0014C
:10543000839FF00D1124E45DF84F808191810097E6
:1054400059F4789490E080E008952F5F3F4F3A96AA
:105450002330310501F7F5CFDC0111966D917C9178
:10546000718360834150510953834283FC0121932E
:10547000CF0178940895009749F1DC018E91853031
:1054800041F4E0912A07F0912B073097F9F0CD0114
:1054900019948530D8F4282F30E0F8948FEF8C934E
:1054A0008AE0829FF001839FF00D1124E45DF84FA4
:1054B0008081918112969C938E931197B183A083E2
:1054C0008281938101969383828378940895CF9209
:1054D000DF92EF92FF920F931F93CF93DF939C0184
:1054E0008DE195E08C7F4115510509F49BC0211594
:1054F000310509F497C06115710509F493C07A016B
:10550000AB01B9016D5F7F4F6C7F9B012F5F3F4FF8
:10551000249F8001259F100D349F100D1124F894B5
:1055200020914A0730914B07232B59F420915207C1
:10553000309153072115310569F12017310708F023
:1055400058C02091540730915507232B91F4209196
:10555000520730915307820F931F20915C073091BF
:105560005D072115310509F441C02017310708F006
:1055700056C07894CFEFDFEF86EF9FEFF701D1832E
:10558000C083DF91CF911F910F91FF90EF90DF903B
:10559000CF900895C3E0D0E0C0901805D0901905D1
:1055A0002DE831E02C193D092017310710F32AE0CE
:1055B0002C9FF0012D9FF00D1124E45DF84F918395
:1055C0008083558344835383428377836683118723
:1055D0000087009709F055DE0C0D1D1D109319056D
:1055E00000931805789490E080E0C8CFC4E0D0E044
:1055F000D3CFC3E0D0E02AE02C9FF0012D9FF00D27
:105600001124E45DF84F9183808355834483538351
:10561000428377836683009729F333DEE3CFC4E0C8
:10562000D0E0E9CF8FEF9FEFACCF9C0103970297BB
:1056300008F069C0F89484E09AE0482F50E02417FD
:1056400035070CF44DC091E08AE0829FF001839F02
:10565000F00D1124E45DF84F11821082158214823E
:1056600013821282178216829923B1F180914A0720
:1056700090914B07892BA9F4209152073091530741
:105680002115310571F08091180590911905821B43
:10569000930B90931905809318051092530710925D
:1056A00052078091540790915507892BA9F42091B6
:1056B0005C0730915D072115310571F08091180567
:1056C00090911905821B930B9093190580931805EF
:1056D00010925D0710925C07789490E080E0089546
:1056E000949FF001959FF00D1124E45DF84F4081E7
:1056F0005181452B31F440855185452B11F4815062
:105700009CCF90E0A1CF8FEF9FEF089541155105F9
:1057100049F1009739F16115710521F1F894209153
:10572000280730912907232BB9F420912A073091BB
:105730002B07232B89F490932907809328077093D4
:105740002B0760932A07789425E030E090E080E012
:10575000FA0131832083089578942FEF3FEF86EF8D
:105760009FEFF6CF8FEF9FEF0895059769F4F894B8
:10577000109229071092280710922B0710922A07DF
:10578000789490E080E008958FEF9FEF0895611581
:10579000710519F4F0E0E0E011C08530910581F465
:1057A000E0912807F09129073097A1F3CB010196EA
:1057B0001995009779F3FC0185E08193CF01089555
:1057C0009C01235031092230310520F72AE0289F1F
:1057D000D001299FB00D1124A45DB84F2D913C91AB
:1057E0001197232BB9F216962D913C9117972617F6
:1057F000370780F2F89412962D913C91139721155A
:10580000310529F0ED91FC911197309711F47894BE
:10581000C1CF4181528111965C934E932150310941
:1058200013963C932E93129781937894C7CFEAEA0C
:10583000F6E08EE7DF011D928A95E9F7EAE1F5E0EF
:1058400080E991E0DF019C011D9221503040E1F799
:105850001092190510921805ECE2F7E082E3DF01DF
:105860001D928A95E9F7E8E2F7E084E0DF011D92F6
:105870008A95E9F790E080E00895CF93DF93C09197
:105880008102D0918202CF3FDC0759F423D4909358
:1058900082028093810297FF09C0D0938202C09355
:1058A000810284EF9FEFDF91CF91089590E080E037
:1058B000FACF8230910528F480935E0790E080E073
:1058C00008958FEF9FEF08954F925F926F927F92AE
:1058D000AF92BF92CF92DF92EF92FF920F931F93FE
:1058E000CF93DF931F921F92CDB7DEB71A82198232
:1058F000009709F479C06115710509F475C020910C
:1059000081023091820207EF1FEF2F3F3F4F09F4D2
:1059100045C06B015C01412C512C3201F12CE12C72
:1059200010E000E09E012F5F3F4FA6014E195F0976
:10593000B5016E0D7F1D80918102909182022ED45F
:10594000892B09F04BC089819A81009741F4E114B9
:10595000F10429F420915E07222309F442C0E80EE5
:10596000F91EEC14FD04D0F480E8481684E85806CB
:105970008EE16806710420F560E070E0CB010E94C2
:10598000E6362AE0420E511C611C711C0A3F4FEFA3
:10599000140721F0043F8FEF1807A1F4C8010F90FE
:1059A0000F90DF91CF911F910F91FF90EF90DF90BB
:1059B000CF90BF90AF907F906F905F904F90089581
:1059C00001EF1FEF81E090E0013F2FEF120711F090
:1059D00090E080E0892B09F4A5CFE0CF04EF1FEF22
:1059E000DDCF0AEF1FEFDACF0FEF1FEFD7CF4F92C8
:1059F0005F926F927F92AF92BF92CF92DF92EF92BF
:105A0000FF920F931F93CF93DF931F921F92CDB7F7
:105A1000DEB71A821982009709F479C06115710501
:105A200009F475C0209181023091820207EF1FEFC7
:105A30002F3F3F4F09F445C06B015C01412C512CB5
:105A40003201F12CE12C10E000E09E012F5F3F4F6E
:105A5000A6014E195F09B5016E0D7F1D809181026F
:105A6000909182024ED3892B09F04BC089819A8193
:105A7000009741F4E114F10429F420915E072223F8
:105A800009F442C0E80EF91EEC14FD04D0F480E4E1
:105A9000481682E458068FE06806710420F560E03D
:105AA00070E0CB010E94E6362AE0420E511C611CD8
:105AB000711C0E3F4FEF140721F0043F8FEF1807C2
:105AC000A1F4C8010F900F90DF91CF911F910F911A
:105AD000FF90EF90DF90CF90BF90AF907F906F904E
