:1000000005C100000C94C3310C94EE310C941932EC
:100010000C9444320C946F320C949A320C94C53286
:100020000C94F03224C1000022C1000020C1000065
:100030001EC100001CC100001AC1000018C1000050
:1000400016C1000014C1000012C1000010C1000060
:100050000EC100000CC100000AC100000C941B334B
:1000600006C100000C94EF360C94253700C1000047
:10007000FEC00000FCC00000FAC00000F8C0000094
:10008000F6C00000F4C00000F2C00000F0C00000A4
:100090000C947B370C94B137EAC00000E8C0000034
:1000A000E6C00000E4C00000E2C00000E0C00000C4
:1000B000DEC00000DCC00000DAC00000D8C00000D4
:1000C000D6C00000D4C000000C94092D0C94073851
:1000D0000C943D38CCC000000C9493380C94C93873
:1000E000C6C0000000000A0B02090C0D0E08070331
:1000F00004010000000000000000000000000000FB
:1001000000000000000000000000000000000000EF
:1001100012111000000000000000000000000000AC
:100120000000000000000000000001021020200874
:100130000810204010204080020102010804020142
:1001400001020408102040808040201008040201B1
:10015000800402018040201008040201080402010A
:100160000102040810204080010204081020408091
:1001700005050505070508080808020202020A0A23
:100180000808040404040101010101010101030341
:10019000030303030303040707070C0C0C0C0C0CEC
:1001A0000C0C0202020206060606060606060B0BE9
:1001B0000B0B0B0B0B0B000020002300260029006B
:1001C0002C002F003200000100000301060109018C
:1001D00000002200250028002B002E0031003400F2
:1001E00002010000050108010B01000021002400AC
:1001F00027002A002D003000330001010000040117
:1002000007010A014E37DA376638F23811241FBE6B
:10021000CFEFD1E2DEBFCDBF00E00CBF13E0A0E026
:10022000B2E0E2EAF3E700E00BBF02C007900D92F4
:10023000A23CB107D9F72BE0A2ECB3E001C01D92BC
:10024000A632B207E1F711E0C6E0D1E000E006C057
:1002500021970109802FFE010E949239C230D107F7
:1002600080E00807A9F70E94FB2D0C94CF39C8CE77
:10027000FC01A781B0858C9191858923A481B581EA
:100280009C9140815181628173812681922359F032
:1002900081110BC04F5F5F4F6F4F7F4F4083518382
:1002A0006283738308958111F5CF4150510961092B
:1002B0007109F4CF83EC93E0DBCF8EEC93E0D8CFE1
:1002C00089ED93E0D5CF84EE93E0D2CFFC01A481F9
:1002D000B5818C9196818923A781B0859C914081BD
:1002E0005181628173812185922359F0882359F0CD
:1002F0004F5F5F4F6F4F7F4F4083518362837383A4
:1003000008958823A9F34150510961097109F4CF77
:1003100083EC93E0DBCF8EEC93E0D8CF89ED93E0D4
:10032000D5CF84EE93E0D2CF0F931F93CF93DF937B
:10033000D82FC62F8A01A091C2038BE0A89FD001BD
:100340001124AD53BC4F1D921D921D921C92139708
:1003500081E01A968C931A978D2F90E0FC01E65D50
:10036000FE4FE4911696EC931697FC01E059FE4F70
:10037000E491F0E0EE0FFF1FEA54FE4F8591949157
:1003800015969C938E931497862F90E0FC01E65D62
:10039000FE4FE4911996EC931997FC01E059FE4F3A
:1003A000E491F0E0EE0FFF1FEA54FE4F8591949127
:1003B00018969C938E93179760E08D2F0E945C3562
:1003C00060E08C2F0E945C358091C203813009F47B
:1003D0003FC0A8F0823009F462C0833009F486C0BF
:1003E0008091C20391E0980F9093C203F80180833B
:1003F00090E080E0DF91CF911F910F91089580E010
:10040000D23049F081E0D33031F08EEE8D0F843060
:10041000D8F487E18D1B41E050E06AE571E00E946D
:10042000493180E0C23049F081E0C33031F08EEED6
:100430008C0F843058F487E18C1B41E050E068E871
:1004400071E00E944931CCCF8FEFE5CF8FEFF5CF30
:1004500080E0D23049F081E0D33031F08EEE8D0F64
:100460008430C8F487E18D1B41E050E06DE571E018
:100470000E94493180E0C23049F081E0C33031F060
:100480008EEE8C0F843048F487E18C1B41E050E005
:100490006BE871E0D6CF8FEFE7CF8FEFF7CF80E03B
:1004A000D23049F081E0D33031F08EEE8D0F8430C0
:1004B000C8F487E18D1B41E050E060E671E00E94E6
:1004C000493180E0C23049F081E0C33031F08EEE36
:1004D0008C0F843048F487E18C1B41E050E06EE8DB
:1004E00071E0AFCF8FEFE7CF8FEFF7CF80E0D23063
:1004F00049F081E0D33031F08EEE8D0F8430C8F4B6
:1005000087E18D1B41E050E063E671E00E944931D4
:1005100080E0C23049F081E0C33031F08EEE8C0FC4
:10052000843048F487E18C1B41E050E061E971E0E0
:1005300088CF8FEFE7CF8FEFF7CF9BE0899FF00158
:100540001124ED53FC4F80819181A281B381FB0185
:1005500080839183A283B38390E080E008959BE041
:10056000899FF0011124ED53FC4F108211821282F9
:10057000138290E080E0089590E080E00895CF92AB
:10058000DF92EF92FF92CF93882351F16A017B01B2
:10059000CFEFC80F20E030E0A901CB01B6010E94E7
:1005A000F12E18168CF0C701B60190580E94622FE8
:1005B0009B01AC016C2F70E090E080E0CF91FF9048
:1005C000EF90DF90CF90B2C0C701B6010E945D2FBF
:1005D0008C2FCF91FF90EF90DF90CF900C9422342E
:1005E000CF91FF90EF90DF90CF9008950F931F93DE
:1005F0008B019C0183E036952795179507958A9581
:10060000D1F701511C4F462F477021E030E0F9012E
:1006100002C0EE0FFF1F4A95E2F7AF01F8012081FB
:100620002423CB010196211102C090E080E01F91AC
:100630000F9108950F931F938B019C0183E03695D2
:100640002795179507958A95D1F7677081E090E017
:1006500001C0880F6A95EAF7F801E151FC4F20814B
:10066000452B31F48095822380831F910F9108954B
:10067000822BFACF2F923F924F925F926F927F928E
:100680008F929F92AF92BF92CF92DF92EF92FF92A2
:100690000F931F93CF93DF93D62EC72E782E692EFC
:1006A00049015A01280161E08D2D0E945C35CD2D54
:1006B000DC2D8E010F5F1F4FA8016D2D7C2D872D26
:1006C000962DB8DF20E030E0A901C201B7010E94F9
:1006D000E130181664F4C201B7010E94622F2B01A9
:1006E000C501B4010E94622FA201CE0123D0C8012E
:1006F000DF91CF911F910F91FF90EF90DF90CF90FE
:10070000BF90AF909F908F907F906F905F904F9031
:100710003F902F900895882341F08150682F70E01A
:1007200090E080E050E040E085CF0895862FB90149
:100730000C9422349C01FC01EC51FF4FE491E150F8
:10074000E231E0F4F0E08827E755FC4F8F4F0C943E
:100750009239BB03C203C503DC03F103BE030604E5
:10076000120416042D04420457046E048304BE03CD
:100770009804AF04C40484B5806884BD60E0822F0F
:100780000C94983584B58062F8CF809180008C7F7E
:1007900082608093800080918100807E8061682BE0
:1007A0006093810050938700409386008091800081
:1007B000806880938000E2CF809180008C7F82608F
:1007C0008093800080918100807E8061682B60939F
:1007D0008100509387004093860080918000806262
:1007E000E8CF809180008C7F826080938000809130
:1007F0008100807E8061682B609381005093870028
:1008000040938600809180008860D3CF8091B000B3
:1008100080688093B0008091B100887F682B6093DE
:10082000B100ACCF8091B0008062F3CF8091900096
:100830008C7F82608093900080919100807E8061A7
:10084000682B60939100509397004093960080919D
:10085000900080688093900091CF809190008C7F71
:1008600082608093900080919100807E8061682BEF
:100870006093910050939700409396008091900070
:100880008062E8CF809190008C7F8260809390009E
:1008900080919100807E8061682B609391005093DD
:1008A000970040939600809190008860D3CF80910C
:1008B000A0008C7F82608093A0008091A100807E48
:1008C0008061682B6093A1005093A7004093A6001D
:1008D0008091A00080688093A00050CF8091A000FC
:1008E0008C7F82608093A0008091A100807E8061D7
:1008F000682B6093A1005093A7004093A6008091BD
:10090000A0008062E8CF8091A0008C7F82608093FD
:10091000A0008091A100807E8061682B6093A1007F
:100920005093A7004093A6008091A0008860D3CF89
:10093000809120018C7F8260809320018091210131
:10094000807E8061682B6093210150932701409342
:100950002601809120018068809320010FCF809133
:1009600020018C7F82608093200180912101807E14
:100970008061682B609321015093270140932601E9
:10098000809120018062E8CF809120018C7F82607D
:100990008093200180912101807E8061682B60938B
:1009A0002101509327014093260180912001886006
:1009B000D3CF611102C00C945C356130E1F362E089
:1009C000FACF662319F061E00C94983560E0FCCF13
:1009D00090E080E008950F931F93009709F489C079
:1009E0006115710509F485C00091E4021091E502DA
:1009F0002091E6023091E7020E3F1F4F2F4F3F4FED
:100A000009F068C04FEF5FEFBA014093E4025093E2
:100A1000E5026093E6027093E7024091E402509190
:100A2000E5026091E6027091E702DC011296ED9119
:100A3000FC9180819181A281B3818093FE04909387
:100A4000FF04A0930005B093010584819581A681E0
:100A5000B7818093FA049093FB04A093FC04B093B5
:100A6000FD0480859185A285B3858093F6049093DB
:100A7000F704A093F804B093F90484859585A685BE
:100A8000B7858093F2049093F304A093F404B09399
:100A9000F5041092EE041092EF041092F0041092FC
:100AA000F1040E94ED1082E191E19093F9038093AB
:100AB000F8039093FB038093FA030E94DC0F0097E6
:100AC00031F421E030E030930305209302051F91BB
:100AD0000F9108950091E4021091E5022091E60241
:100AE0003091E702DB010D931D932D933C931397F7
:100AF00094CF8FEF9FEFEBCF8F929F92AF92BF92E9
:100B0000CF92DF92EF92FF921F93CF93DF934B012F
:100B10005C011091050582E090E0909303058093BD
:100B2000020581149104A104B10441F480910505EA
:100B3000811104C080910405C1E08111C0E0C12C85
:100B4000D12C760180910505811106C080910405A4
:100B5000811102C0CC23D9F083E090E0909303058B
:100B600080930205CC2381F1CCE9DFEF111102C0A3
:100B70000E947714CE01DF91CF911F91FF90EF90EB
:100B8000DF90CF90BF90AF909F908F9008956AE0D4
:100B900070E080E090E00E948A3380E1C80E87E236
:100BA000D81EE11CF11C8FEF88169806A806B8061F
:100BB00031F0C1E08C149D04AE04BF0408F0C0E025
:100BC00080E00E941010BECFD0E0C0E0CFCFCF9227
:100BD000DF92EF92FF920F931F93CF93DF938F3F9C
:100BE000910511F008F051C02091020530910305E4
:100BF0002330310539F02091020530910305213071
:100C0000310531F424E030E03093030520930205F0
:100C10006A017B01EC0182309105A8F011E0AE0180
:100C2000C701B6010E94DB0FAB01BC01CE0111234D
:100C3000F9F0DF91CF911F910F91FF90EF90DF902E
:100C4000CF900C94A0168C01000F111F08501C4F60
:100C5000D8018D919C91892B09F30E94AA160297C5
:100C6000E9F6D801ED91FC91CE011995182FD7CF57
:100C70000E94C21690E080E0DF91CF911F910F910A
:100C8000FF90EF90DF90CF9008958FEF9FEFF4CF1C
:100C900080E00C941010CF93DF9386E090E0909367
:100CA0000305809302050E946910EC01E8EFF3E070
:100CB00084E0DF011D928A95E9F70E940F141092DB
:100CC000030510920205CE01DF91CF910895809126
:100CD000040508958091ED0408956093E4027093F3
:100CE000E5028093E6029093E70290E080E00895A9
:100CF0002F923F924F925F926F927F928F929F922C
:100D0000AF92BF92CF92DF92EF92FF920F931F9319
:100D1000CF93DF9300D000D0CDB7DEB74B015C019D
:100D20005E834D83190167017801DA014D905D9072
:100D30006D907C90AC019B01C301B2010E94E13037
:100D400087FD53C0A3019201C501B4010E948C2EFE
:100D50006B017C01A3019201ED81FE8164817581AB
:100D6000868197810E948C2E9B01AC01C701B60140
:100D70000E94F52E6B017C0119821A821B821C8253
:100D8000E981FA81EE0FFF1FEE0FFF1FE20DF31D49
:100D900080809180A280B380A501940164817581D7
:100DA000868197810E948C2EA70196010E94E530D2
:100DB000A50194010E948D2E26960FB6F894DEBFF1
:100DC0000FBECDBFDF91CF911F910F91FF90EF909C
:100DD000DF90CF90BF90AF909F908F907F906F905B
:100DE0005F904F903F902F9008958601000F111F44
:100DF000000F111F2D813E81020F131FD8014D904E
:100E00005D906D907C90A5019401C301B2010E9498
:100E1000E13018160CF06DC0260137017694679406
:100E20005794479419821A821B821C82D701C601EB
:100E300029813A814B815C81821B930BA40BB50BFA
:100E40000297A105B10558F5C901880F991F880FB0
:100E5000991F4D815E81480F591F5E834D83DA01D2
:100E6000CD90DD90ED90FC90A7019601C501B401F5
:100E70000E948C2E4B015C01A7019601ED81FE8141
:100E800064817581868197810E948C2E9B01AC01C3
:100E9000C501B4010E94F52E6B017C0171CFF201F6
:100EA000EE0FFF1FEE0FFF1F2D813E81E20FF31F9C
:100EB000A501940160817181828193810E94E1305A
:100EC000181634F049825A826B827C8226013701DF
:100ED00089819A81AB81BC81840D951DA61DB71DAA
:100EE000730162012C013D017694679457944794F5
:100EF0009DCFA7019601215031094109510929834C
:100F00003A834B835C83F8013497C080D180E280C0
:100F1000F380A7019601C501B4010E948C2E4B01FC
:100F20005C01A7019601C301B201AECF4F925F925F
:100F30006F927F928F929F92AF92BF92CF92DF92E9
:100F4000EF92FF920F931F93CF93DF93CDB7DEB74E
:100F50002F970FB6F894DEBF0FBECDBF8091080269
:100F600090910902A0910A02B0910B028093E40AC9
:100F70009093E50AA093E60AB093E70A80910C02E9
:100F800090910D02A0910E02B0910F028093E80A99
:100F90009093E90AA093EA0AB093EB0AC09000028A
:100FA000D0900102E0900202F0900302A7019601A6
:100FB0006091930A7091940A8091950A9091960A93
:100FC0000E94F12E882341F0C092930AD092940A95
:100FD000E092950AF092960A8091920A81111092FD
:100FE000920A68E07BE08091970AA7DAC090040239
:100FF000D0900502E0900602F0900702A70196014A
:101000006091870A7091880A8091890A90918A0A72
:101010000E94F12E882341F0C092870AD092880A5C
:10102000E092890AF0928A0A8091860A81111092D0
:10103000860A64E07BE080918B0A7FDA6091D402BB
:101040007091D5028091D6029091D7020E94902F84
:1010500020E030E040E05AE20E94E5306B017C0184
:101060008091080B9091090BA0910A0BB0910B0B8A
:1010700089839A83AB83BC83BC01CD010E94902FEE
:10108000A70196010E94E53069877A878B879C8744
:101090006093EC0A7093ED0A8093EE0A9093EF0A46
:1010A0008091040B9091050BA091060BB091070B5A
:1010B0008D839E83AF83B887BC01CD010E94902FA2
:1010C000A70196010E94E5302B013C014092F00AF5
:1010D0005092F10A6092F20A7092F30AE091C7040A
:1010E000F091C804C080D180E280F3809091C80A5A
:1010F0009F87A091C90AAD871091CA0A0091CB0AB7
:10110000A7019601692F7A2F812F902F0E94E1303D
:1011100087FD78C2A70196016091D40A7091D50A23
:101120008091D60A9091D70A0E94E13087FD6AC269
:101130001092F40A1092F50A1092F60A1092F70A29
:101140001092F80A1092F90A1092FA0A1092FB0A09
:1011500089819A81AB81BC818093FC0A9093FD0ABE
:10116000A093FE0AB093FF0A8D819E81AF81B8855E
:101170008093000B9093010BA093020BB093030B91
:101180006091E40A7091E50A8091E60A9091E70A7D
:101190001AE0E12EF12C00E010E020E132E04CE317
:1011A00052E0A6DD0E94CB2F6B017C01FBD58111A3
:1011B0009FC2C701B601B1D581119AC220E030E0CB
:1011C00040E857E4C701B6010E94E52F6B017C019E
:1011D00020E030E0A9010E94F12E87FF8CC2C701F8
:1011E000B60190580E94622FAA27BB27A61BB70BF7
:1011F000BA83A9836091E80A7091E90A8091EA0AAA
:101200009091EB0A1AE0E12EF12C00E010E028E6C4
:1012100032E044E952E06CDD0E94CB2F6B017C018F
:10122000C1D581116FC2C701B60177D581116AC2DC
:1012300020E030E040E857E4C701B6010E94E52F06
:101240006B017C0120E030E0A9010E94F12E87FFB4
:101250005CC2C701B60190580E94622F2227332733
:10126000261B370BA091E202B091E3020E949A394B
:101270004B015C0161E08091C0029091C102A0919C
:10128000C202B091C30288159905AA05BB0509F4ED
:1012900060E08DE096DB6CE070E080E090E0A6D945
:1012A0008C019093B70A8093B60A6091C402709142
:1012B000C5028091C6029091C702681579058A051A
:1012C0009B057CF06091C8027091C9028091CA02AE
:1012D0009091CB02681579058A059B0514F4C50128
:1012E000B4010E94902F20E030E040E858E30E94D3
:1012F000E5306B017C0120E030E04FE753E40E94D1
:10130000F12E18160CF407C220E030E0A901C70145
:10131000B6010E94E13087FD05C2B701A601C801F0
:101320002ED9C090CC02D090CD02E090CE02F090A9
:10133000CF02C814D904EA04FB047CF0C090D002A8
:10134000D090D102E090D202F090D302C814D90418
:10135000EA04FB0414F4750164016BE070E080E0C2
:1013600090E044D98C019093A70A8093A60AC70104
:10137000B60197FF07C090958095709561957F4F56
:101380008F4F9F4F0E94902F20E030E040E858E3BD
:101390000E94E5306B017C0120E030E04FE753E430
:1013A0000E94F12E18160CF4C1C120E030E0A90112
:1013B000C701B6010E94E13087FDBFC1B701A60198
:1013C000C801DDD869E070E080E090E00FD98C01C1
:1013D0009093AF0A8093AE0A8091DA029091DB027B
:1013E000E981FA818E179F0744F08091DC02909189
:1013F000DD028E179F070CF4CF0197FF03C0919574
:10140000819591098F3F910519F014F08FEF90E0CD
:10141000BC01990F880B990B0E94902FAB01BC0166
:10142000C801ADD86AE070E080E090E0DFD88C01C0
:1014300090939F0A80939E0A6091DE027091DF0272
:1014400029813A816217730744F06091E00270913C
:10145000E102621773070CF4B90177FF02C070E074
:1014600060E06F3F710519F014F06FEF70E0072E28
:10147000000C880B990B0E94902FAB01BC01C80196
:101480007ED861E08091D8029091D902A981BA8179
:101490008A179B0709F460E088E093DA8091C80A14
:1014A0009091C90AA091CA0AB091CB0A89839A8304
:1014B000AB83BC834090140B5090150B6090160BBF
:1014C0007090170BA3019201BC01CD010E94F12E77
:1014D000E091C704F091C804811133C180819181EA
:1014E000A281B3818093C80A9093C90AA093CA0AC3
:1014F000B093CB0AECECFAE08091EC0A9091ED0A03
:10150000A091EE0AB091EF0A80839183A283B38306
:101510008091F00A9091F10AA091F20AB091F30A39
:1015200084839583A683B7834091B4045091B50416
:101530006091B6047091B70490E080E048DB409180
:10154000BC045091BD046091BE047091BF0481E061
:1015500090E03DDB6091B4047091B5048091B604D5
:101560009091B7046F5F7F4F8F4F9F4F6093B4048C
:101570007093B5048093B6049093B704A091C70408
:10158000B091C804BA83A9830E948E2F9B01AC013D
:101590006091B8047091B9048091BA049091BB0431
:1015A0000E94E530E981FA816083718382839383AD
:1015B0008091BC049091BD04A091BE04B091BF0481
:1015C0000196A11DB11D8093BC049093BD04A0930E
:1015D000BE04B093BF042F960FB6F894DEBF0FBEC3
:1015E000CDBFDF91CF911F910F91FF90EF90DF90D2
:1015F000CF90BF90AF909F908F907F906F905F90B3
:101600004F9008958090D40A9090D50AA090D60A61
:10161000B090D70A9401A5016F857D85812F902F09
:101620000E94F12EA701960187FF47C0B401C501B2
:101630000E94F12E87FD52C08F849D84A12EB02E72
:10164000ECECFAE0FE87ED879401A501C701B60135
:101650000E948C2E6B017C01ED85FE8520813181FD
:101660004281538169857A858B859C850E948C2E69
:10167000A70196010E94F52E6093F40A7093F50A73
:101680008093F60A9093F70AAD85BE8514962D9146
:101690003D914D915C911797C301B2010E948C2E30
:1016A000A70196010E94F52E6093F80A7093F90A3B
:1016B0008093FA0A9093FB0A4BCD6F857D85812F2D
:1016C000902F0E94E13087FF0EC08F849D84A12E51
:1016D000B02E2CEC3AE03E872D87B6CF88ED9AE00D
:1016E0009E878D87B1CFA8EDBAE0BE87AD87ACCF1E
:1016F000C12CD12C7601C701B6010E94622F7A83DA
:10170000698378CDC12CD12C7601C701B6010E9426
:10171000622F9B01A7CDC12CD12C9FE7E92E93E42A
:10172000F92EFBCDC12CD12C7601F7CDC12CD12CBB
:101730008FE7E82E83E4F82E41CEC12CD12C760120
:101740003DCE8090D40A9090D50AA090D60AB09051
:10175000D70AC080D180E280F380A5019401C30143
:10176000B2010E94F12E81110BC0C092D40AD09216
:10177000D50AE092D60AF092D70AE8EDFAE0BCCE9C
:10178000A501940169817A818B819C810E94F12E4F
:1017900087FFEBCFC092C80AD092C90AE092CA0A6A
:1017A000F092CB0AA7CE8F929F92AF92BF92DF9218
:1017B000EF92FF920F931F93CF93DF9384E090E01B
:1017C00075D2EAE1F4E084EC94E097838683C7EC79
:1017D000D4E0D0935B04C0935A0408EB14E0158B5B
:1017E000048BF0938504E0938404F583E48321E083
:1017F00030E0DC012D933C938DE193E09387828769
:1018000029EC34E03983288340E050E060EA70E45A
:101810004093C0045093C1046093C2047093C30406
:101820004DEC5CEC6CEC7DE3D8014D935D936D93D6
:101830007C931397C2EAD4E085E690EEACEEB8E173
:1018400088839983AA83BB8387EB9EE3AFE5B2EBE2
:101850008093A6049093A704A093A804B093A9042E
:101860008EEB95E8A3EEB1E28093AA049093AB04CB
:10187000A093AC04B093AD0484EA9BE2A3E8BCE47B
:101880008093AE049093AF04A093B004B093B104DE
:10189000AEE0B4E0B383A283ECEFF3E01196FC93E7
:1018A000EE938FE293E09183808393838283958389
:1018B00084839783868391878087938782879587A0
:1018C000848797878687918B808B82EB94E015962F
:1018D0009C938E9314971396DC93CE93129717963E
:1018E0003C932E9316978091140B9091150BA09119
:1018F000160BB091170BC0E8DAE08093C80A9093FA
:10190000C90AA093CA0AB093CB0A8093D40A9093D1
:10191000D50AA093D60AB093D70A1F8A1C8600E086
:1019200012E0F80180819181A281B3818B8B9C8B25
:10193000AD8BBE8B812C912C540183948D869E8619
:10194000AF86B88A47E95AE063E182E10E949401D8
:10195000DD24D394D98A1A8A8F890E94AF021B860C
:101960001882F80184819581A681B7818F83988739
:10197000A987BA8789829A82AB82BC824BE85AE0F7
:1019800063E082E00E949401DD821E828B850E94CA
:10199000AF0218AE89AE9AAEABAEBCAE61E08DE0E0
:1019A00008D8DDAE18AA89AA9AAAABAABCAAE12CCB
:1019B000F12C8701A80197016CE070E080E090E0D5
:1019C0000E943A039FAB8EABDDAA18A289A29AA20D
:1019D000ABA2BCA2A80197016BE070E080E090E0B0
:1019E0000E943A039FA38EA3DDA218A689A69AA6F9
:1019F000ABA6BCA6A801970169E070E080E090E08A
:101A00000E943A039FA78EA7DDA6188E898E9A8E14
:101A1000AB8EBC8EA80197016AE070E080E090E098
:101A20000E943A039F8F8E8FDD8E1092C00A8092A3
:101A3000C10A9092C20AA092C30AB092C40A61E09D
:101A400088E00E94D904D092C50ADF91CF911F91FE
:101A50000F91FF90EF90DF90BF90AF909F908F908D
:101A6000089580918C0A811114C081E080938C0AC2
:101A700080918D0A90918E0AA0918F0AB091900A60
:101A80000197A105B10529F48091910A81110E9465
:101A9000BC028091800A811114C081E08093800A89
:101AA0008091810A9091820AA091830AB091840A60
:101AB0000197A105B10529F48091850A81110E9441
:101AC000BC028091B80A811103C081E08093B80AFA
:101AD0008091B00A81112EC081E08093B00A80917C
:101AE000B10A9091B20AA091B30AB091B40A0197D9
:101AF000A105B105F9F48091B50A8823D9F06CE00D
:101B000070E080E090E00E94F6029093B70A809324
:101B1000B60A40E050E0BA010E94BF026CE070E0FB
:101B200080E090E00E94F6029093B70A8093B60A94
:101B30000E948B038091A00A81112EC081E08093C6
:101B4000A00A8091A10A9091A20AA091A30AB09143
:101B5000A40A0197A105B105F9F48091A50A88238B
:101B6000D9F06BE070E080E090E00E94F602909384
:101B7000A70A8093A60A40E050E0BA010E94BF0283
:101B80006BE070E080E090E00E94F6029093A70A7C
:101B90008093A60A0E948B038091A80A81112EC00F
:101BA00081E08093A80A8091A90A9091AA0AA09145
:101BB000AB0AB091AC0A0197A105B105F9F4809187
:101BC000AD0A8823D9F069E070E080E090E00E94DF
:101BD000F6029093AF0A8093AE0A40E050E0BA015B
:101BE0000E94BF0269E070E080E090E00E94F6028F
:101BF0009093AF0A8093AE0A0E948B038091980A5B
:101C000081112EC081E08093980A8091990A909169
:101C10009A0AA0919B0AB0919C0A0197A105B1056F
:101C2000F9F480919D0A8823D9F06AE070E080E0A1
:101C300090E00E94F60290939F0A80939E0A40E0F3
:101C400050E0BA010E94BF026AE070E080E090E0DC
:101C50000E94F60290939F0A80939E0A0E948B0333
:101C60008091C00A811103C081E08093C00A089569
:101C700060E070E080E89FE7089560E070E080E851
:101C80009FE7089560E070E080E89FEF089560E0CE
:101C900070E080E89FEF089560E070E080EC9FEFD7
:101CA000089560E070E080EC9FEF0895F5DF6093A9
:101CB000180B7093190B80931A0B90931B0BF1DF89
:101CC00060930C0B70930D0B80930E0B90930F0B86
:101CD000CFDF6093140B7093150B8093160B9093CA
:101CE000170BCBDF6093100B7093110B8093120BCB
:101CF0009093130BC7DF60931C0B70931D0B8093A5
:101D00001E0B90931F0BC3DF6093200B7093210B6E
:101D10008093220B9093230B0895CF92DF92EF9242
:101D2000FF92CF936B017C01AC019B016091140B7E
:101D30007091150B8091160B9091170B0E94F12E4C
:101D4000C1E0882371F0A701960160911C0B70918E
:101D50001D0B80911E0B90911F0B0E94F12E811183
:101D6000C0E08C2FCF91FF90EF90DF90CF9008953F
:101D70000F931F938B019C010027112720783F7739
:101D80000115110520483F4749F4AB01BC016F77AD
:101D9000772781E0452B462B472B09F480E01F91E4
:101DA0000F910895E5CF4F925F926F927F928F923D
:101DB0009F92AF92BF92CF92DF92EF92FF920F93DA
:101DC0001F93F8944090DD045090DE046090DF048F
:101DD0007090E004C090D104D090D204E090D3047D
:101DE000F090D4044130510509F0A6C09B01AC012C
:101DF000241935094609570929013A010091D904E6
:101E00001091DA042091DB043091DC04480159017F
:101E1000840C951CA61CB71C80169106A206B3065E
:101E2000A0F40091D5041091D6042091D7043091EC
:101E3000D8040F5F1F4F2F4F3F4F0093D5041093CF
:101E4000D6042093D7043093D8048092D90490927A
:101E5000DA04A092DB04B092DC040091D504109166
:101E6000D6042091D7043091D8048092E104909256
:101E7000E204A092E304B092E4040093E50410931A
:101E8000E6042093E7043093E8046093DD04709344
:101E9000DE048093DF049093E004A301920160EAE2
:101EA00076E881E090E00E944D396C0D7D1D8E1D1D
:101EB0009F1D6093D1047093D2048093D3049093B8
:101EC000D4040091E4021091E5022091E6023091E1
:101ED000E7020F3F1F4F2F4F3F4FF1F00091E402F9
:101EE0001091E5022091E6023091E7020E3F1F4F6C
:101EF0002F4F3F4F89F0C090E402D090E502E09070
:101F0000E602F090E70221E08C149D04AE04BF04C9
:101F100008F420E02093ED0478941F910F91FF9036
:101F2000EF90DF90CF90BF90AF909F908F907F9079
:101F30006F905F904F9008954B015C018418950855
:101F4000A608B708A3019201261B370B480B590BB3
:101F50006415750586059705E0F082169306A406BC
:101F6000B50640F420E030E0A90181149104A104F9
:101F7000B104A1F460EA76E881E090E00E944D3976
:101F8000A7019601261B370B480B590BCA01B90153
:101F9000C3CF82169306A406B50660F7A501940187
:101FA00060EA76E881E090E00E944D396C0D7D1D7D
:101FB0008E1D9F1DB1CFF7CECF93DF9300D01F9220
:101FC000CDB7DEB71C821B821A8219821092E904F7
:101FD0001092EA041092EB041092EC04BE016F5FC1
:101FE0007F4FCE0103960E94D92C69817A818B8123
:101FF0009C810E94C725009761F4BE016F5F7F4FEF
:10200000CE0103960E94E52C69817A818B819C81A7
:102010002FD50F900F900F900F90DF91CF910895D3
:10202000FF920F931F93CF93DF93082F60E070E030
:10203000CB010E948A33FF24F3940E94B024EC0168
:10204000892B89F010E0CE3F8FEFD80769F000238D
:1020500061F160E070E0CB010E948A3381E090E0A2
:10206000892B59F322C011E026D5EC01892B21F0F0
:10207000CE3F8FEFD80759F711111EC011E02296FD
:1020800009F410E00E946024EC01892B21F0CE3F7E
:102090008FEFD807E1F6111111C011E0CE3F8FEF9D
:1020A000D80709F410E001110BC0CE01DF91CF91E8
:1020B0001F910F91FF90089511E0E4CF11E0F3CF4D
:1020C00060E070E0CB010E948A331F25812F90E0F1
:1020D000C7CFCF93DF938091ED04882321F060E098
:1020E00070E0CB014DD636D6D0E0C0E0892B71F040
:1020F0006AE070E080E090E00E948A3381E090DF47
:1021000029D62196C03D27E0D20781F728D60E9424
:102110001B2610920505109204051092FE041092E1
:10212000FF0410920005109201051092FA0410921B
:10213000FB041092FC041092FD041092F60410921D
:10214000F7041092F8041092F9041092F20410921D
:10215000F3041092F4041092F5041092EE0410921D
:10216000EF041092F0041092F1044EEF5FEF6FEF66
:102170007FEF4093E4025093E5026093E602709390
:10218000E7021092ED04E1EEF4E028E0DF011D9299
:102190002A95E9F71092DD041092DE041092DF0414
:1021A0001092E0041092D9041092DA041092DB0429
:1021B0001092DC041092D5041092D6041092D70429
:1021C0001092D8041092D1041092D2041092D30429
:1021D0001092D404DF91CF910895109211051092BE
:1021E000120510921305109214051092100580919B
:1021F000190590911A0590930F0580930E05109282
:102200000D0510920C051092080510920905109208
:102210000A0510920B05109216051092150590E014
:1022200080E00895CF92DF92EF92FF920F931F9379
:10223000CF938C01019709F055C020911905309179
:102240001A0580910E0590910F0540911905509146
:102250001A0550930F0540930E052817390781F092
:1022600010920D0510920C051092080510920905A8
:1022700010920A0510920B05109216051092150582
:102280008091190590911A05019761F580911505C6
:1022900090911605892B21F48091E802811112C0DA
:1022A00080911505909116050197E1F4809108053C
:1022B00090910905A0910A05B0910B050197A10520
:1022C000B10581F4109208051092090510920A05D3
:1022D00010920B051092E80282E090E090931605B0
:1022E000809315058091190590911A05019709F0C1
:1022F0001CC180912F05909130058017910709F03E
:1023000014C180912B0590912C05A0912D05B091C1
:102310002E05009709F409C120912A0521110DC04D
:1023200040912B0550912C0560912D0570912E0543
:10233000452B462B472B09F4F8C020911505309109
:1023400016052230310509F0F0C020910C0521114D
:10235000ECC0FC01C080D180E280F3808091100548
:10236000882309F4D3C080911C0590911D05892B09
:1023700009F4FEC020911C0530911D0581E022303A
:10238000310509F080E020911C0530911D05C1E068
:102390002130310549F020911C0530911D05C1E027
:1023A0002230310509F0C0E0882309F456C020919D
:1023B0002605309127054091280550912905C70130
:1023C000B6010E94E13087FD14C0209126053091AE
:1023D00027054091280550912905609111057091BC
:1023E000120580911305909114050E94F12E87FD2E
:1023F00022C0209126053091270540912805509153
:102400002905C701B6010E94E130181634F5209164
:1024100026053091270540912805509129056091A6
:1024200011057091120580911305909114050E9479
:10243000F12E811112C080911E0590911F05A0916F
:102440002005B0912105892B8A2B8B2B19F481E073
:1024500080930D0581E080930C05CC2309F456C0D0
:102460002091260530912705409128055091290596
:10247000C701B6010E94F12E87FF14C020912605E6
:10248000309127054091280550912905609111054B
:102490007091120580911305909114050E94E1300E
:1024A00087FF22C0209126053091270540912805FD
:1024B00050912905C701B6010E94F12E811126C055
:1024C0002091260530912705409128055091290536
:1024D000609111057091120580911305909114057A
:1024E0000E94E130181694F480911E0590911F050A
:1024F000A0912005B0912105892B8A2B8B2B19F4F3
:1025000081E080930D0581E080930C0581E090913E
:102510000C05911180E080931005C0921105D092B6
:102520001205E0921305F09214050130110509F02F
:1025300067C18091150590911605892BD9F41092E9
:102540001B0510920C058091E802882379F082E047
:1025500090E090931605809315051092E802209163
:10256000190530911A0581E0232BE9F080E01BC0AA
:1025700081E009CF1092E80280911B05882349F081
:1025800010920D05109216051092150510921B055C
:10259000EDCF8091190590911A05892BE1F080917A
:1025A0000C0510920C05209115053091160522306E
:1025B000310509F45EC088F42115310509F448C0DD
:1025C0002130310509F4F3C010920D0510920C056D
:1025D00010921B0538C081E0E6CF2330310509F4A5
:1025E000B1C02430310581F74091080550910905AB
:1025F00060910A0570910B05411551056105710542
:1026000061F04150510961097109409308055093E7
:10261000090560930A0570930B05409108055091D8
:10262000090560910A0570910B05452B462B472B38
:10263000D9F420911705309118052130310509F0A2
:1026400046C010920D0510921605109215050CC08B
:102650008091E802882341F082E090E09093160593
:10266000809315051092E8021092060580910D05E1
:10267000CEC08823C9F380911E0590911F05A091BB
:102680002005B0912105181619061A061B060CF034
:102690007DC08091190590911A05019709F076C0C7
:1026A00080911E0590911F05A0912005B0912105F4
:1026B0008093080590930905A0930A05B0930B0534
:1026C00083E090E09093160580931505CDCF40915F
:1026D0002205509123056091240570912505452B15
:1026E000462B472BA9F010920D0580912205909161
:1026F0002305A0912405B0912505809308059093AA
:102700000905A0930A05B0930B0581E090E0DACFAC
:10271000882399F08091E9029091EA02A091EB025E
:10272000B091EC028093080590930905A0930A05E7
:10273000B0930B0584E090E0C5CF10920D0582E0C8
:1027400090E0C0CF8091080590910905A0910A05FD
:10275000B0910B050097A105B10559F00197A109AA
:10276000B1098093080590930905A0930A05B093D9
:102770000B058091080590910905A0910A05B0917B
:102780000B05892B8A2B8B2B09F06ECF8091E902E8
:102790009091EA02A091EB02B091EC02892B8A2B76
:1027A0008B2B09F44ECF81E080930D05B3CF409180
:1027B00008055091090560910A0570910B054115B6
:1027C00051056105710561F04150510961097109B7
:1027D000409308055093090560930A0570930B0513
:1027E000409108055091090560910A0570910B050B
:1027F000452B462B472B09F037CF8111C7CF9FCFF1
:1028000080910605882309F431CF80910705CF9187
:102810001F910F91FF90EF90DF90CF90089510924D
:1028200011051092120510921305109214051092C2
:102830001005109216051092150510920F051092B2
:102840000E051092300510922F0510920D05109272
:102850000C05109208051092090510920A051092B5
:102860000B05109207051092060510922B05109289
:102870002C0510922D0510922E0510922A0510920B
:10288000260510922705109228051092290588EE3A
:1028900093E0A0E0B0E08093E9029093EA02A09375
:1028A000EB02B093EC0210922205109223051092D5
:1028B00024051092250510921E0510921F051092F6
:1028C00020051092210510921D0510921C0581E033
:1028D0008093E80210921B0510921A0510921905B8
:1028E000109218051092170590E080E008958091ED
:1028F000190590911A05892B19F58091E802882312
:1029000051F080911B05811106C081E0809307057D
:1029100080930605089520911B053091E80281E01F
:1029200090E0332311F090E080E030E082239323A5
:10293000892B21F01092070581E0EACF109206055D
:10294000089582E090E0FA01918380838FEF9FEFFA
:102950000895CF93DF93EA01009711F00E943B277F
:102960001982188290E080E0DF91CF910895DB0119
:10297000009719F48FEF8C9308952EEF2C93FC01A0
:102980003F96EF30F10508F034C08827E553FB4E41
:102990008F4F0C949239F714F514F314F114EF14CB
:1029A000EB14ED14E914E714E514E214DE14DA1460
:1029B000E014F91480E311968C93089589E2FBCF1B
:1029C00082E2F9CF11961C92089583E2F4CF81E25E
:1029D000F2CF81E1F0CF87E2EECF8AE2ECCF80E167
:1029E000EACF84E2E8CF88E2E6CF86E2E4CF81E373
:1029F000E2CF80E2E0CF80913D0590913E050895C1
:102A000090933E0580933D05089580913C0508957F
:102A100090913C05892B80933C050895982F9095C3
:102A200080913C05892380933C05089580913B0566
:102A300008958091390590913A05089561157105C1
:102A400059F0FB0130E020E070E060E0241735072A
:102A500019F06115710511F0CB010895A081B181C4
:102A6000A817B90709F4BF012F5F3F4F3696EECF85
:102A700080913F0581111CC060D266D290933205CF
:102A8000809331050E94391F0E944B1F9093360599
:102A9000809335050E94C8230E94CF23909334056C
:102AA0008093330581E080933F0590E080E00895B6
:102AB00084EF9FEF08958F929F92AF92BF92CF9233
:102AC000DF92EF92FF920F931F93CF93DF9300D08B
:102AD00000D000D01F92CDB7DEB71A8619861886AF
:102AE0001F821E821D821C821B821A821982809183
:102AF0003F0507EF1FEF882309F49CC08E010D5F8F
:102B00001F4F9E012B5F3F4FAE01495F5F4FBE01DC
:102B1000675F7F4F90E080E00E944C258C0100971A
:102B200021F00596029708F0DBC029853A8521152A
:102B3000310509F402C1ED80FE804B815C81B70153
:102B4000640F751F8F8198858617970708F4F5C065
:102B5000E20EF31ED7019C91903C09F07FC04230F9
:102B6000510508F47BC011968C9140913D05509120
:102B70003E05452B09F49CC0913F08F071C02CE143
:102B8000290F2D3008F48BC02DE2290F203108F4D5
:102B900089C0903C21F48150823008F483C088E3DE
:102BA000890F8B3008F481C097EBC92E94E1D92EA0
:102BB000E1EAF4E16D817E81AE014F5F5F4F89856F
:102BC0009A8519955C01C114D104A1F189809A807C
:102BD0008114910479F18B819C818815990508F401
:102BE00087C010E000E04B815C8170E060E0C701CD
:102BF0000E94C83901151105E9F449815A81698596
:102C00007A858D819E81680F791FC501F60119951E
:102C1000E980FA800D811E812F81388549855A858A
:102C20006FEF7FEF81E090E00E94E7248C01892B19
:102C300009F056C0C8012A960FB6F894DEBF0FBE41
:102C4000CDBFDF91CF911F910F91FF90EF90DF905B
:102C5000CF90BF90AF909F908F90089580E085CFE8
:102C600030E020E0220F331FF901EF5CFA4F0190B2
:102C7000F081E02D309709F497CF892F90E01995D6
:102C8000009709F491CFDC011296ED91FC91139716
:102C90001496CD90DC90309709F08CCF1FC021E0C6
:102CA00030E0E0CF22E030E0DDCF23E030E0DACFEB
:102CB000D12CC12CE9EAF4E19F3F09F07BCFE091F0
:102CC0003105F0913205309721F4C90104EF1FEF6F
:102CD0000CC08FEF90E019950097A9F604EF1FEF55
:102CE00089859A85009709F4A5CF0E943B27A2CF3A
:102CF0000E9416268C0189859A850E943B2770E0E8
:102D000060E0C4010E94AF2598878F830E94E4246D
:102D10009E838D836F8178856115710559F0C80197
:102D20000E94C7289A87898706EF1FEF892B09F031
:102D300058CF59CF08EF1FEF56CF08EF1FEFD0CF76
:102D400020913F05222319F020E00C94501F87EFBB
:102D50009FEF089580913D0590913E0508950E9452
:102D6000D4230E942E23F5D0E1E3F5E088E0DF01D3
:102D70001D928A95E9F710923F0590E080E0089552
:102D80000C948C2121E040E050E0BA010C94501FDB
:102D900086E090E0FA019183808390E080E00895DE
:102DA00047E050E062E373E049CEDF92EF92FF929A
:102DB0000F931F93CF93DF938A01EC01C60FD71FA8
:102DC000E0904305F0904405D9800E94FE25D81676
:102DD000190678F082E090E0F801918380838EEF0D
:102DE0009FEFDF91CF911F910F91FF90EF90DF90B8
:102DF0000895EF2841F482E090E0F8019183808308
:102E000084EF9FEFEECF89818093420590E0019699
:102E1000F8019183808390E080E0E3CFCF93DF934C
:102E2000EA010E943D22882321F00E940B260E9485
:102E30003E2282E090E0998388838BEF9FEFDF91C1
:102E4000CF910895CF93DF93EB0186E0FB011192C0
:102E50008A95E9F78FEF8883D8DD8983E7DD8A8358
:102E6000E8DD9D838C83DF91CF910895CF93DF932D
:102E7000EA010E944022811109C082E090E099831A
:102E8000888385EF9FEFDF91CF91089590E080E0F8
:102E9000B7DD81E090E09983888390E080E0F3CF14
:102EA0000F931F93CF93DF93EA018C01060F171F37
:102EB0000E94402281110BC082E090E099838883B8
:102EC00085EF9FEFDF91CF911F910F910895F8014A
:102ED0008181823038F082E090E0998388838EEFA0
:102EE0009FEFF0CF81E090E08BDD88E090E0998368
:102EF000888390E080E0E6CFCF93DF930097D1F412
:102F0000EB01FB01329686E0DF011D928A95E9F71D
:102F10008FEF888385E089831A820E94FE258B8348
:102F20000E94FD259D838C8381E08E838F83DF91BA
:102F3000CF910895DF91CF911ACD80ED96E19093D6
:102F40004105809340050895809140059091410589
:102F5000089510924105109240050895809143050F
:102F6000909144050895411105C0611571058105D1
:102F7000910561F060934305709344058093450586
:102F8000909346054093470581E0089580E00895B9
:102F9000FF920F931F93CF93DF938A01EC01C60F2B
:102FA000D71FF9800E94FE25F816190668F082E006
:102FB00090E0F801918380838EEF9FEFDF91CF91B6
:102FC0001F910F91FF9008956C817D818E819F816B
:102FD0004B81C9DF811108C082E090E0F801918344
:102FE000808384EF9FEFEACF89818093420590E050
:102FF0000196F8019183808390E080E0DFCFCF934A
:10300000DF93EA01FC01E60FF71F64817581868179
:1030100097814381A8DF811109C082E090E0998304
:10302000888384EF9FEFDF91CF91089581E090E056
:103030009983888390E080E0F6CFE3E4F5E0408177
:10304000518162817381480F511D611D711D408343
:103050005183628373830895CF93C09142054C2FAF
:1030600050E0609143057091440501960E94BF397C
:103070008C2FE3DF10924205CF910895009799F4C9
:1030800080914305909144052FEFFB012083892B0C
:1030900059F02091420530E02F5F3F4F241735074C
:1030A00019F4CB01D9CF63CC0895009799F480919E
:1030B0004305909144052FEFFB012083892B59F0A4
:1030C0002091420530E02F5F3F4F2417350719F458
:1030D000CB01C2CF4CCC089523E1AC01249FC001A9
:1030E000259F900D1124E0914C05F0914D05E80FBE
:1030F000F91F238134812250310981E022303105CA
:1031000008F080E008950F931F93CF93DF93009111
:103110004E0510914F05D0E0C0E080E00C171D0770
:1031200049F491E0811190E0892FDF91CF911F91B7
:103130000F9108958111F5CFCE01CEDF2196EECF0C
:10314000A0914C05B0914D05109729F120914E05A5
:1031500030914F0582179307F0F453E1589F900187
:10316000599F300D1124A20FB31FED91FC911197BF
:10317000309789F012968C91681768F48DE0689FFB
:10318000E00DF11D112480819181892B21F081E0D6
:103190009281491708F080E008959C0143E1429F25
:1031A000C001439F900D1124E0914C05F0914D0515
:1031B000E80FF91F8385823091F481E090E065810A
:1031C00076814091ED025091EE026417750711F47B
:1031D00090E080E0892B19F081E0232B09F080E05A
:1031E0000895FC01A081B1818DE0689FA00DB11D03
:1031F000112413964D915C9185859685489F900189
:10320000499F300D589F300D1124C901019661115D
:1032100003C0478144FD04960895EF92FF920F93F7
:103220001F93CF93DF93EA01FC01E60FF71F0281A2
:103230001381E480F5804F2D6E2DC80181DF81114F
:103240000DC082E090E0998388838EEF9FEFDF913D
:10325000CF911F910F91FF90EF900895C8013CDF2F
:10326000882339F082E090E09983888388EF9FEF8C
:10327000EECF1093F4020093F302E092F502F09285
:10328000F60281E090E09983888390E080E0DFCFD0
:10329000CF92DF92EF92FF920F931F93CF93DF9322
:1032A0007A01EC01C60FD71FC090F302D090F40250
:1032B0000091F5021091F602412F602FC60140DF08
:1032C000811110C082E090E0F701918380838AEF42
:1032D0009FEFDF91CF911F910F91FF90EF90DF90C3
:1032E000CF900895C601F8DE882341F082E090E097
:1032F000F7019183808388EF9FEFEBCF4C815D8155
:103300006E817F819A8189818F3F41F082E090E0D8
:10331000F701918380838EEF9FEFDBCFE3E1EC9D9C
:103320009001ED9D300D1124E0914C05F0914D057B
:10333000E20FF31F0190F081E02D2DE0029FE00DE0
:10334000F11D11240190F081E02D27E0129FE00D86
:10335000F11D1124808391838B8182834383548365
:10336000658376831F5F1093F60281E090E0F7019A
:103370009183808390E080E0ACCFEF92FF920F9337
:103380001F93CF93DF937A018C01060F171FC09113
:103390004C05D0914D05209781F021E030E0F801F7
:1033A0008281938140914E0550914F058417950776
:1033B00010F030E020E0232B71F482E090E0F70180
:1033C000918380838EEF9FEFDF91CF911F910F91BB
:1033D000FF90EF90089543E1489F9001499F300D81
:1033E0001124C20FD31F78DE882341F082E090E0E1
:1033F000F7019183808388EF9FEFE6CFF801248166
:10340000358120383105C8F687818111D6CF4181B9
:10341000842F90E08F7E009741F082E090E0F701EA
:103420009183808386EF9FEFCFCF4F833E832D83A1
:10343000268128871986223010F421E0288721E090
:1034400030E0F70131832083BFCF88E090E0FA01BC
:103450009183808390E080E00895FB018FEF80836B
:1034600081E181838FEF9FEF9383828380E890E0F7
:1034700095838483168217820895FB018FEF8083E2
:1034800091E0918382839383848384E3858381E0C5
:1034900090E0978386830895DF92EF92FF920F93D7
:1034A0001F93CF93DF93EA01FC01E60FF71F8181A1
:1034B000813071F082E090E0998388838FEF9FEFF5
:1034C000DF91CF911F910F91FF90EF90DF900895C2
:1034D00082819381D4802581E680F78000914C051C
:1034E00010914D050115110539F482E090E09983A2
:1034F00088838CEF9FEFE4CF40914E0550914F05AC
:103500008417950738F082E090E0998388838EEFE6
:103510009FEFD6CF892B39F082E090E099838883A2
:1035200086EF9FEFCDCF8D2D8D7FB1F72130A1F7A5
:1035300081E0D11006C091E0E916F10431F080E09D
:1035400004C0E2E0EE16F104D0F3882329F390E002
:1035500080E0C2DD882339F082E090E0998388839F
:1035600088EF9FEFADCFF801D38681E08487F686A0
:10357000E586108A178681E090E09983888390E041
:1035800080E09ECF4CE050E06CE573E057CA8F922C
:103590009F92BF92CF92DF92EF92FF920F931F9371
:1035A000CF93DF93EA01FC01E60FF71F828193813D
:1035B0000481B580E0914C05F0914D05309791F470
:1035C00082E090E0998388838CEF9FEFDF91CF9129
:1035D0001F910F91FF90EF90DF90CF90BF909F9041
:1035E0008F90089520914E0530914F0582179307D3
:1035F00038F082E090E0998388838EEF9FEFE6CFEA
:1036000023E1289F6001299FD00C1124EC0DFD1DA2
:10361000E080F180E114F10499F28281081748F703
:103620008DE0089F80011124E00EF11EF7018081DA
:103630009181892B29F6BB20E1F2F7E0BF9E400182
:103640001124C4010E940227F70191838083E09135
:103650004C05F0914D05EC0DFD1D0190F081E02D24
:10366000E00FF11F80819181009739F482E090E0B2
:10367000998388838DEF9FEFA9CFA40170E060E06C
:103680000E94C83980914C0590914D05C80ED91EF5
:10369000F60180819181080F191FF801B28281E043
:1036A00090E09983888390E080E090CFAF92BF92C2
:1036B000CF92DF92FF920F931F93CF93DF93EA0194
:1036C000FC01E60FF71F82819381F48000914C0585
:1036D00010914D050115110581F482E090E0998368
:1036E00088838CEF9FEFDF91CF911F910F91FF9017
:1036F000DF90CF90BF90AF90089520914E0530910C
:103700004F058217930738F082E090E09983888311
:103710008EEF9FEFE8CF2FEF2F0D2C3FA8F723E17F
:10372000289F6001299FD00C11240C0D1D1DF8014C
:1037300080819181892B89F6FDE0FF9E5001112443
:10374000C5010E940227F80191838083E0914C0516
:10375000F0914D05EC0DFD1D80819181009739F4AC
:1037600082E090E0998388838DEF9FEFBCCFA50125
:1037700070E060E00E94C839E0914C05F0914D0581
:10378000EC0DFD1DF28281E090E09983888390E04A
:1037900080E0A9CFCF92DF92EF92FF920F931F9319
:1037A000CF93DF93860F971FFC01028113818091D5
:1037B0004C0590914D05892B81F082E090E0FA0153
:1037C000918380838CEF9FEFDF91CF911F910F91B9
:1037D000FF90EF90DF90CF900895C801B0E0A0E097
:1037E0000197A109B1098F3F9F4FA105B10540F095
:1037F00082E090E0FA01918380838EEF9FEFE4CF27
:103800007A0183E1809F6001819FD00C1124C60161
:103810000E940227EC01009741F482E090E0F7015A
:10382000918380838DEF9FEFCFCFA60170E060E0A2
:103830000E94C839D0934D05C0934C0510934F0595
:1038400000934E0590E080E02FEF3FEF41E061E014
:1038500070E08017910741F481E090E0F7019183D7
:10386000808390E080E0B0CF3A8B298B1B864C8719
:103870007E876D87188A1F8601966396EACFEF923E
:10388000FF921F93CF93DF93EC0110E0F12CE12C1A
:103890006A811617B0F083E0689FB0011124AE0171
:1038A0004F5E5F4FC7010E946727009721F02FEFFF
:1038B0003FEF3A8B298BDF91CF911F91FF90EF90D3
:1038C0000895612FCE018DDC61E070E00E94AF258C
:1038D000E816F90608F47C011F5FDACFF89420910E
:1038E0004A0530914B0581E02115310509F080E052
:1038F000232B09F0789408952F923F924F925F9274
:103900006F927F928F929F92AF92BF92CF92DF92EF
:10391000EF92FF920F931F93CF93DF933C01660EBC
:10392000771EF301828193814C01B12CA12CC091AF
:103930004C05D0914D05209769F021E030E0609171
:103940004E0570914F058617970710F030E020E084
:10395000232BD1F482E090E0FA01918380838EEFF3
:103960009FEFDF91CF911F910F91FF90EF90DF902C
:10397000CF90BF90AF909F908F907F906F905F900F
:103980004F903F902F9008958092F7029092F80206
:10399000A092F902B092FA0263E1689F9001699FD8
:1039A000300D1124C20FD31FF3018181833040F009
:1039B00082E090E0FA019183808386EF9FEFD1CF80
:1039C0002A012B813C81232BF1F4288139819F81AD
:1039D00091FF2EC0232B09F46FC0209151059A81CD
:1039E000422F490F5527551FBA0141E050E0613879
:1039F000710514F050E040E0452B09F45DC02A87C2
:103A0000920F909351058150823008F481C066DF97
:103A1000882309F4D8C0F3018181813009F48DC075
:103A200008F47BC0823009F4C6C090E080E0ADC0ED
:103A3000232B09F441C0209150059A81E22FE90F10
:103A4000FF27FF1F41E050E0ED3FF10514F050E08B
:103A500040E0452B89F12A87920F90935005D3CFF0
:103A6000A081B181A20FB31F11966C91060F111D99
:103A70000196295F3F4F8417950794F38D859E85A6
:103A8000089F1001099F300C189F300C1124C1149D
:103A9000D104D1F48F8184FF17C00E94FD25F5E089
:103AA0002F0E311C21E08215930508F420E0A701B8
:103AB000435F5F4F21110EC082E090E0F2019183DD
:103AC000808387EF9FEF4DCF0E94FD252FEF221AB5
:103AD000320AE8CF88819981E80EF91EF701148334
:103AE0000383FFEFCF1ADF0A7A018A818C151D0448
:103AF00009F00CF48CCFE881F981EE0DFF1D4281B5
:103B000050E030E020E010E000E090E080E0B3CF53
:103B1000F12CE12CD12CC12CE8CF81E090E09C83EA
:103B20008B83F1DA882309F480CF81E090E00E9452
:103B3000001580E40E940E1578CF89899A89019634
:103B400061F083E090E09C838B8382E090E00E94B0
:103B5000001580E40E94081568CF8D819E81209118
:103B6000ED023091EE0282179307D1F46091F102D9
:103B70007091F202AE014F5E5F4F8091EF02909123
:103B8000F0020E9486280097E1F2789422E030E06B
:103B9000F20131832083892B99F08DEF9FEFE1CEE5
:103BA00089288A288B2869F6029758F6CE0167DEA5
:103BB000188A1F86E8CF82E090E09C838B8335CF04
:103BC00090E080E0CECE82E090E0F20191838083AD
:103BD00085EF9FEFC6CE8F929F92AF92BF92CF920A
:103BE000DF92EF92FF920F931F93CF93DF93EA013F
:103BF0008C01060F171FF8018181833098F082E055
:103C000090E09983888386EF9FEFDF91CF911F919A
:103C10000F91FF90EF90DF90CF90BF90AF909F906B
:103C20008F90089580914C0590914D05892B61F0FE
:103C300081E090E020914E0530914F05232B11F447
:103C400090E080E0892B39F482E090E099838883CA
:103C50008EEF9FEFDACF42DE882309F4E0C0F8014F
:103C60008181813009F496C0E8F0823099F4209186
:103C70004E0530914F05E0914C05F0914D0590E0D7
:103C800080E041E050E02817390709F0BEC03BDA78
:103C9000811117C0789481E090E09983888390E047
:103CA00080E0B3CF20914E0530914F05E0914C0557
:103CB000F0914D0590E080E041E050E02817390791
:103CC00041F481E090E00E94001580E40E940E150E
:103CD000E1CF63817481672B11F054834383019694
:103CE0007396ECCFE0914C05F0914D05E00FF11F7C
:103CF0002381348122303105D9F4218932892F3F43
:103D00003F4FB1F4258136814091ED025091EE0292
:103D10002417350761F5AF014F5E5F4F6091F102E7
:103D20007091F2028091EF029091F0020E94862839
:103D3000EFEFCE1ADE0AEE0AFE0A0D5E1F4F40912B
:103D40004E0550914F0570E060E0C416D506E606BA
:103D5000F70644F5009731F27894892B09F49BCF4C
:103D600082E090E0998388838DEF9FEF4ECFC1145E
:103D7000D104E104F104E1F622303105C8F6CF01A7
:103D80007EDDE0914C05F0914D05E00FF11F108AAA
:103D90001786CECF10E000E090E080E0C12CD12C5F
:103DA0007601CDCF0097C1F610E000E0812C912C78
:103DB000540183E0E82EF12C1AC0E0914C05F091FB
:103DC0004D05E00FF11F83819481029749F4F4823D
:103DD000E38282E090E00E94001580E40E940815D2
:103DE000FFEF8F1A9F0AAF0ABF0A0D5E1F4F809127
:103DF0004E0590914F05B0E0A0E088169906AA06FE
:103E0000BB06DCF290E080E0A7CF63817481623072
:103E1000710511F4548343830196739634CF82E085
:103E200090E09983888385EF9FEFEFCE0097B9F4F8
:103E30008FEFFB0180832091F7023091F80243E17C
:103E4000429FC001439F900D1124E0914C05F091D9
:103E50004D05E80FF91F8285FB01818308950C94BD
:103E6000B71488E090E0FA019183808390E080E0CD
:103E7000089510924B0510924A05ECE4F5E086E0B7
:103E8000DF011D928A95E9F782EC9AE1909349054A
:103E900080934805089580914805909149050895BB
:103EA0002F923F924F925F926F927F928F929F924A
:103EB000AF92BF92CF92DF92EF92FF920F931F9338
:103EC000CF93DF93CDB7DEB72F970FB6F894DEBF51
:103ED0000FBECDBFF894E0914A05F0914B053196A5
:103EE000F0934B05E0934A05789440904C05509030
:103EF0004D054114510409F40CC2E0914E05F091B6
:103F00004F05EF2B09F405C22D8749875A876B8728
:103F10007C8798878F831201B12CA12C10E000E0E0
:103F200080914E0590914F05A816B90618F4011519
:103F3000110529F1F89480914A0590914B0501975C
:103F400090934B0580934A057894C8012F960FB63D
:103F5000F894DEBF0FBECDBFDF91CF911F910F91BF
:103F6000FF90EF90DF90CF90BF90AF909F908F9099
:103F70007F906F905F904F903F902F9008957101C8
:103F8000E418F508D10117968C91179781FD54C05C
:103F900013968D919C911497039709F04DC0159637
:103FA0008D919C91EF81F8858E179F0709F044C091
:103FB000B50190E080E07FD48A8320914C05309158
:103FC0004D053D832C833D85332309F44CC04C8142
:103FD0005D81452B09F49AC180914E0590914F0562
:103FE000A816B90608F092C1C501D7D88823E9F010
:103FF0006C817D816E0D7F1D7D836C83DB011F963F
:104000008D919C91892B89F0D12CC12CF12CE12C24
:10401000AC81BD8112968C9112978E151F0409F008
:1040200094F450961C921E921F972A81222321F00D
:10403000B50190E080E041D43FEFA31AB30A43E119
:10404000240E311C6DCFAC81BD81ED91FC91EC0D46
:10405000FD1D858196810FD7BFEFEB1AFB0AEDE0BE
:10406000CE0ED11CD5CFEC81FD81309709F44EC125
:1040700080914E0590914F05A816B90608F046C1EB
:10408000EE0DFF1DFF87EE87C50187D88B83882340
:1040900039F1AE85BF851F968D919C915097019601
:1040A00021E01D964D915C918417950709F020E061
:1040B0002E831982712C10E000E0AE85BF85129628
:1040C0008C91781608F45DC0EE85FF858785908910
:1040D0000196658576850E945C39908B8787A5CF90
:1040E000B1E0BE83E6CF992493946BC08BD6F601E2
:1040F0009683858382C0D601ED90FC90B7E06B9EDD
:10410000E00CF11C1124F7016381748180818F3FE1
:1041100061F121E030E002C0220F331F8A95E2F7FF
:10412000C901092E000CAA0BBB0BFB014081518178
:104130006281738184239523A623B72321E0892BF1
:104140008A2B8B2B09F420E0D4012C93D7011196F4
:104150008C91F60123853485820F932F911D880E53
:10416000991E1486138663949BC0418150E0C4015C
:104170000E94BF39EBCF998206EF1FEFC5C01982AD
:10418000C3C0F981F111A0CFEDE07E9E7001112432
:10419000AE85BF85CD90DC90CE0CDF1C15D49D8301
:1041A0008C83BB81BB2309F49ECF81E0EE85FF8524
:1041B00027853089232B09F080E0982E882309F485
:1041C00058C0672D8E859F850CD8D60118969C9374
:1041D0008E93179761E070E0C2D4EE85FF85218948
:1041E00032892F3F320709F481CFBC01C901CFD7F3
:1041F000D60116969C938E931597D60115968D91A0
:104200009C911697009709F4B6CFEC81FD818E0F33
:104210009F1F1A969C938E931997AE85BF85ED913B
:10422000FC911197EE0EFF1EF70121853285148651
:1042300013861A968C91870DD9018D93711016C033
:10424000EE85FF85878184FF11C049855A856B857E
:104250007C85F9014183528363837483F7018385ED
:1042600094850496A80FB91F14861386F701B287A8
:10427000A187D60115968D919C911697892B09F4EB
:1042800043C0EE85FF85258136818091ED029091B6
:10429000EE022817390779F019968D909C90612CC1
:1042A000D60112968C911297681608F424CF1A96AC
:1042B0009C928E921997BE81BB2309F460CF61E076
:1042C00070E0F601878190854AD4D6011796ED906B
:1042D000FC90189715964D915C91E1E0F0E0BA8161
:1042E000BB2311F0F0E0E0E00C811D819C01B501E1
:1042F000882799278E1B9F0B6AD38C01892B21F06D
:10430000F60185819681B7D57394D7CE0FEF1FEF55
:104310008CCE10E000E00ECE2F923F924F925F9233
:104320006F927F928F929F92AF92BF92CF92DF92C5
:10433000EF92FF920F931F93CF93DF9380914C05E1
:1043400090914D0510E000E0892BA9F0C7DA0AEF43
:104350001FEF882381F020904E0530904F05C091CB
:104360004C05D0914D05D12CC12C10E000E02C144F
:104370003D04A9F47894C801DF91CF911F910F916A
:10438000FF90EF90DF90CF90BF90AF909F908F9075
:104390007F906F905F904F903F902F900895C6014F
:1043A0000E94CD18882309F18B819C810397E9F441
:1043B0008F859889892BC9F0B60190E080E07BD287
:1043C00021E030E0882311F030E020E0442455243F
:1043D000421A530AB12CA12C912C812C8A81881568
:1043E000190409F038F4188A1F864FEFC41AD40A4A
:1043F0006396BDCFE881F981EA0DFB1D8581968129
:10440000892BA1F161E070E087819085A8D33C0100
:10441000DBD28C01E881F981EA0DFB1D8185928553
:1044200025813681200F311FAC01421B530B9A01AD
:1044300047815085421B530B70E060E00E94C839F1
:10444000E881F981EA0DFB1DE780F0844581568102
:104450009301B601C201BBD28C01892B39F0E881EE
:10446000F981EA0DFB1D8581968105D55FEF851ADF
:10447000950A8DE0A80EB11CB1CF30CA789408958A
:104480002F923F924F925F926F927F929F92AF9244
:10449000BF92CF92DF92EF92FF920F931F93CF9331
:1044A000DF9300D000D0CDB7DEB700914C0510915E
:1044B0004D05992493940115110509F43EC0A0906F
:1044C0004E05B0904F050ADA982E8823B1F110926C
:1044D0004D0510924C0510924F0510924E0510920A
:1044E0005005109251058FEF9FEFDC018093F7028A
:1044F0009093F802A093F902B093FA0278947FD3D4
:104500001E830D83C12CD12C7601C501B0E0A0E043
:1045100089839A83AB83BC8322242A94322C898199
:104520009A81AB81BC81C816D906EA06FB06F4F075
:10453000C801A1D480E40E940E15892D26960FB6DD
:10454000F894DEBF0FBECDBFDF91CF911F910F91C9
:10455000FF90EF90DF90CF90BF90AF909F907F90B3
:104560006F905F904F903F902F900895AD81BE81E6
:1045700015968D919C9116972091ED023091EE0247
:1045800082179307D1F451968D919C91EED5ED81D0
:10459000FE8180819181B12CA12C412C512C3201C2
:1045A000892B89F5BFEFCB1ADB0AEB0AFB0AED81F9
:1045B000FE817396FE83ED83B2CFC114D104E10472
:1045C000F10429F7029718F7ED81FE81818992891C
:1045D0008F3F980709F029D5AD81BE8152963C9254
:1045E0002E925197D4CF8A0D9B1DDC018D919C9109
:1045F000009709F040D4BFEF4B1A5B0A6B0A7B0AA5
:10460000EDE0AE0EB11CAD81BE818D919C911197F4
:1046100012964C9150E070E060E044165506660634
:1046200077060CF328D4BECFCF93DF93EA0128DFBF
:10463000811109C082E090E09983888385EF9FEF24
:10464000DF91CF91089581E090E00E94001581E014
:1046500090E09983888390E080E0F2CF11DF1092A0
:10466000490510924805089542E050E064EA73E07D
:104670000C941E15FF920F931F93CF93DF938A0123
:10468000EC01C60FD71FF980B9D20897F8161906A2
:1046900071F068F082E090E0F801918380838EEF02
:1046A0009FEFDF91CF911F910F91FF9008956C8143
:1046B0007D818E819F814B810E94B317811108C03B
:1046C00082E090E0F8019183808384EF9FEFE9CF4F
:1046D000F9800E94AE174F2D50E0BE01685F7F4FFA
:1046E0000E94BF3989810E941D1881E090E0F80185
:1046F0009183808390E080E0D4CFDF92EF92FF92AD
:104700000F931F93CF93DF938A01EC01C60FD71F3E
:104710000E94AE177C01D98071D2DD2059F002973A
:1047200021E030E0D816190619F010F030E020E052
:10473000232B79F482E090E0F801918380838EEF5F
:104740009FEFDF91CF911F910F91FF90EF90DF903E
:104750000895EF2841F482E090E0F801918380838E
:1047600084EF9FEFEECFF9800E94AE174F2D50E0FF
:10477000BE016E5F7F4F0E94BF3989810E941D1864
:1047800081E090E0F8019183808390E080E0D9CFD0
:1047900084E393E2909353058093520508958091AA
:1047A00052059091530508950895FC0111821082DD
:1047B000938382830895DB011D921C92DC01129683
:1047C000ED91FC9113977183608313967C936E93A4
:1047D00012970895FC0180819181DB018D939C9358
:1047E000A081B181109741F08D919C91918380833C
:1047F000892B11F4F383E2830895FC018081918178
:10480000DB018D939C93892B11F4738362837183F5
:1048100060830895FC01118210829383828308953E
:10482000CF93DF931F921F92CDB7DEB71A82198202
:10483000F894BE016F5F7F4F89E595E0CBDF8981FA
:104840009A81009709F017D389819A81892B89F77A
:10485000BE016F5F7F4F8DE595E0BCDF89819A8156
:10486000009709F008D389819A81892B89F7789478
:104870000F900F90DF91CF910895CF93DF931F9208
:104880001F92CDB7DEB71A821982F894BE016F5F0E
:104890007F4F85E595E09EDF89819A81009709F039
:1048A000EAD289819A81892B89F778940F900F90A9
:1048B000DF91CF91089581E0089590E080E0089520
:1048C000EF92FF920F931F93CF93DF931F921F924C
:1048D000CDB7DEB71A8219828091540507EF1FEF1A
:1048E0008823A1F1F894BE016F5F7F4F8DE595E0BD
:1048F00071DF789489819A81EE24E394F12C892BDD
:1049000051F4F894BE016F5F7F4F89E595E062DF57
:104910007894F12CE12C89819A810EEF1FEF00979A
:10492000A9F0FC014281538164E070E076D68C01ED
:10493000892B61F0F89469817A81C701880F991FEA
:10494000880F991F875A9A4F58DF7894C8010F90A3
:104950000F90DF91CF911F910F91FF90EF900895ED
:104960000F931F93CF93DF9300D01F92CDB7DEB785
:104970001C821B821A8219828091540507EF1FEF57
:104980008823C1F0AE014D5F5F4F64E070E0CE015F
:104990000196B6D68C01892B69F4E981FA818B8165
:1049A0009C8193838283F89469817A8185E595E07F
:1049B00002DF7894C8010F900F900F900F90DF9155
:1049C000CF911F910F910895BBD7049608958F92B0
:1049D0009F92AF92BF92CF92DF92EF92FF920F938E
:1049E0001F93CF93DF931F921F92CDB7DEB71A822A
:1049F0001982BC016F5F7F4F6330710598F0AA2464
:104A0000AA94BA2CC5010F900F90DF91CF911F91FE
:104A10000F91FF90EF90DF90CF90BF90AF909F905D
:104A20008F9008954115510551F3480159018A01AC
:104A30006C01CADF8815990511F7E114F104F9F248
:104A40008E0D9F1DA816B906D0F2809154058823BB
:104A5000F1F0F894B501645071099701AE014F5F10
:104A60005F4FC8010496E1D65C01892B71F48981FE
:104A70009A81F80193838283C601880F991F880F5A
:104A8000991FB801875A9A4F96DE7894BBCF87EF6B
:104A9000A82EBB24BA94B6CFAF92BF92CF92DF922A
:104AA000EF92FF920F931F93CF93DF931F921F926A
:104AB000CDB7DEB71A821982892B09F047C061157C
:104AC000710509F443C04115510509F43FC0211592
:104AD000310509F43BC001151105C1F18091540560
:104AE0008823B9F179016A015B01F894BE016F5F17
:104AF0007F4F85E595E06EDE789489819A810097F5
:104B000059F1DC0112966D917C91A8010496A6D60C
:104B10008C01E981FA81D501ED93FC938281938127
:104B20000496F601918380834FDFD7018D939C9388
:104B3000C8010F900F90DF91CF911F910F91FF90BF
:104B4000EF90DF90CF90BF90AF9008950FEF1FEFE1
:104B5000EFCF07EF1FEFECCF0EEF1FEFE9CFCF93B3
:104B6000DF93EC01672B71F4F4D68C179D0760F08E
:104B7000E7D62496C80FD91FE6D68C0F9D1FDF916C
:104B8000CF910895E3D6F1CF90E080E0F8CF0F9376
:104B90001F93CF93DF932091540521112BC08B01DC
:104BA000EC0189E595E001DE8DE595E0FEDD85E52A
:104BB00095E0FBDD97D00097C1F4CBD670E060E0C4
:104BC000CEDF4BEF52E062E070E081D1009769F4F4
:104BD0008091FB029091FC02CED6B801CE0103D5A4
:104BE000009719F421E020935405DF91CF911F9194
:104BF0000F91089584EF9FEFF8CFA8C6AAC6CF9370
:104C0000DF93AAD6EC01892B11F40ADE36DECE0141
:104C1000DF91CF910895CF93DF939ED6EC01892B3E
:104C200009F4FEDDCE01DF91CF9108958091FB0262
:104C30009091FC020895CF93DF9380915405D0E0CA
:104C4000C0E08823D1F09CD6EC01892BB1F4E8DDDB
:104C500014DE8091FB029091FC02E7D1E8D2EC01D6
:104C6000892B59F489E595E0D5DD8DE595E0D2DD18
:104C700085E595E0CFDD10925405CE01DF91CF910F
:104C80000895EF92FF920F931F93CF93DF93EC0160
:104C90007A018B010F5F1F4F0E9DA0010F9D500DDC
:104CA0001E9D500D112470E060E00E94C83990E014
:104CB00080E0F0E0E0E02FEFE816F90639F4DF914C
:104CC000CF911F910F91FF90EF9008951A82198252
:104CD0002883309711F0D283C1830196FE01C00F63
:104CE000D11FEACFCF92DF92EF92FF920F931F93E3
:104CF000CF93DF930EE317E00C7F43E050E06DEFBE
:104D000072E083E093E01CD48DEFE82E82E0F82E71
:104D100093E0C92E93E0D92EC5ECD7E0D7014D9191
:104D20005D917D01F601619171916F011983088395
:104D30005D834C835B834A837F836E839B012F5FFC
:104D40003F4F249FC001259F900D349F900D11244B
:104D5000998788870115110511F0C80192DF8885B0
:104D60009985080F191F2A96F3E0EF16F3E0FF0666
:104D7000A9F6E3E6F5E088ED91E0DF019C011D92E4
:104D800021503040E1F710926205109261051092B7
:104D9000E4071092E3071092E8071092E7071092D9
:104DA000E6071092E5071092EA071092E9071092C1
:104DB000EC071092EB071092EE071092ED0710929D
:104DC000F2071092F1071092F0071092EF0710927D
:104DD000F4071092F3071092F6071092F50710925D
:104DE000C2071092C1071092C4071092C30790E047
:104DF00080E0DF91CF911F910F91FF90EF90DF90B6
:104E0000CF9008950097F1F0F894A3E0B3E0E5ECBB
:104E1000F7E030E020E04D915D9148175907A8F088
:104E2000428153814115510581F08AE0829FF00152
:104E3000839FF00D1124EB53F84F808191810097EF
:104E400059F4789490E080E008952F5F3F4F3A96B0
:104E50002330310501F7F5CFDC0111966D917C917E
:104E6000718360834150510953834283FC01219334
:104E7000CF0178940895009749F1DC018E91853037
:104E800041F4E091C307F091C4073097F9F0CD01E8
:104E900019948530D8F4282F30E0F8948FEF8C9354
:104EA0008AE0829FF001839FF00D1124EB53F84FAD
:104EB0008081918112969C938E931197B183A083E8
:104EC0008281938101969383828378940895CF920F
:104ED000DF92EF92FF920F931F93CF93DF939C018A
:104EE00086E695E08C7F4115510509F49BC021159C
:104EF000310509F497C06115710509F493C07A0171
:104F0000AB01B9016D5F7F4F6C7F9B012F5F3F4FFE
:104F1000249F8001259F100D349F100D1124F894BB
:104F20002091E3073091E407232B59F42091EB07FC
:104F30003091EC072115310569F12017310708F090
:104F400058C02091ED073091EE07232B91F420916A
:104F5000EB073091EC07820F931F2091F5073091FA
:104F6000F6072115310509F441C02017310708F073
:104F700056C07894CFEFDFEF86EF9FEFF701D18334
:104F8000C083DF91CF911F910F91FF90EF90DF9041
:104F9000CF900895C3E0D0E0C0906105D090620545
:104FA00025ED31E02C193D092017310710F32AE0D7
:104FB0002C9FF0012D9FF00D1124EB53F84F91839E
:104FC0008083558344835383428377836683118729
:104FD0000087009709F055DE0C0D1D1D109362052A
:104FE00000936105789490E080E0C8CFC4E0D0E001
:104FF000D3CFC3E0D0E02AE02C9FF0012D9FF00D2D
:105000001124EB53F84F918380835583448353835A
:10501000428377836683009729F333DEE3CFC4E0CE
:10502000D0E0E9CF8FEF9FEFACCF9C0103970297C1
:1050300008F069C0F89484E09AE0482F50E0241703
:1050400035070CF44DC091E08AE0829FF001839F08
:10505000F00D1124EB53F84F118210821582148247
:1050600013821282178216829923B1F18091E3078D
:105070009091E407892BA9F42091EB073091EC077C
:105080002115310571F08091610590916205821BB7
:10509000930B90936205809361051092EC07109238
:1050A000EB078091ED079091EE07892BA9F42091F1
:1050B000F5073091F6072115310571F080916105F2
:1050C00090916205821B930B90936205809361051A
:1050D0001092F6071092F507789490E080E008951A
:1050E000949FF001959FF00D1124EB53F84F4081F0
:1050F0005181452B31F440855185452B11F4815068
:105100009CCF90E0A1CF8FEF9FEF089541155105FF
:1051100049F1009739F16115710521F1F894209159
:10512000C1073091C207232BB9F42091C3073091F6
:10513000C407232B89F49093C2078093C10770930F
:10514000C4076093C307789425E030E090E080E0E6
:10515000FA0131832083089578942FEF3FEF86EF93
:105160009FEFF6CF8FEF9FEF0895059769F4F894BE
:105170001092C2071092C1071092C4071092C30781
:10518000789490E080E008958FEF9FEF0895611587
:10519000710519F4F0E0E0E011C08530910581F46B
:1051A000E091C107F091C2073097A1F3CB010196BE
:1051B0001995009779F3FC0185E08193CF0108955B
:1051C0009C01235031092230310520F72AE0289F25
:1051D000D001299FB00D1124AB53B84F2D913C91B4
:1051E0001197232BB9F216962D913C9117972617FC
:1051F000370780F2F89412962D913C911397211560
:10520000310529F0ED91FC911197309711F47894C4
:10521000C1CF4181528111965C934E932150310947
:1052200013963C932E93129781937894C7CFEBE318
:10523000F7E086E8DF011D928A95E9F7E3E6F5E0FD
:1052400088ED91E0DF019C011D9221503040E1F793
:105250001092620510926105E5ECF7E082E3DF0150
:105260001D928A95E9F7E1ECF7E084E0DF011D92F9
:105270008A95E9F790E080E00895CF93DF93C0919D
:105280000903D0910A03CF3FDC0759F423D490934C
:105290000A038093090397FF09C0D0930A03C093C0
:1052A000090384EF9FEFDF91CF91089590E080E0B4
:1052B000FACF8230910528F48093F70790E080E0E0
:1052C00008958FEF9FEF08954F925F926F927F92B4
:1052D000AF92BF92CF92DF92EF92FF920F931F9304
:1052E000CF93DF931F921F92CDB7DEB71A82198238
:1052F000009709F479C06115710509F475C0209112
:10530000090330910A0307EF1FEF2F3F3F4F09F4C6
:1053100045C06B015C01412C512C3201F12CE12C78
:1053200010E000E09E012F5F3F4FA6014E195F097C
:10533000B5016E0D7F1D8091090390910A032ED453
:10534000892B09F04BC089819A81009741F4E114BF
:10535000F10429F42091F707222309F442C0E80E52
:10536000F91EEC14FD04D0F480E8481684E85806D1
:105370008EE16806710420F560E070E0CB010E94C8
:105380008A332AE0420E511C611C711C0A3F4FEF08
:10539000140721F0043F8FEF1807A1F4C8010F9004
:1053A0000F90DF91CF911F910F91FF90EF90DF90C1
:1053B000CF90BF90AF907F906F905F904F90089587
:1053C00001EF1FEF81E090E0013F2FEF120711F096
:1053D00090E080E0892B09F4A5CFE0CF04EF1FEF28
:1053E000DDCF0AEF1FEFDACF0FEF1FEFD7CF4F92CE
:1053F0005F926F927F92AF92BF92CF92DF92EF92C5
:10540000FF920F931F93CF93DF931F921F92CDB7FD
:10541000DEB71A821982009709F479C06115710507
:1054200009F475C02091090330910A0307EF1FEFBB
:105430002F3F3F4F09F445C06B015C01412C512CBB
:105440003201F12CE12C10E000E09E012F5F3F4F74
:10545000A6014E195F09B5016E0D7F1D80910903EC
:1054600090910A034ED3892B09F04BC089819A8110
:10547000009741F4E114F10429F42091F707222365
:1054800009F442C0E80EF91EEC14FD04D0F480E4E7
:10549000481682E458068FE06806710420F560E043
:1054A00070E0CB010E948A332AE0420E511C611C3D
:1054B000711C0E3F4FEF140721F0043F8FEF1807C8
:1054C000A1F4C8010F900F90DF91CF911F910F9120
:1054D000FF90EF90DF90CF90BF90AF907F906F9054
:1054E0005F904F90089502EF1FEF81E090E0023F40
:1054F0002FEF120711F090E080E0892B09F4A5CF7F
:10550000E0CF04EF1FEFDDCF0EEF1FEFDACF0FEF8D
:105510001FEFD7CF8091090390910A038F3F98071F
:1055200049F0D0D2892B49F48FEF9FEF90930A0373
:105530008093090390E080E0089584EF9FEF089541
:10554000CF92DF92EF92FF920F931F93CF93DF934F
:1055500021E04115510509F020E041505109211188
:105560002CC0DC01FB01D12CC12C21E022C03FEF7B
:10557000C31AD30A7D010D911D91E701EA80FB80DA
:10558000E016F106A8F420813181E280F380F182F7
:10559000E08233832283ED90FC9011979D0122508D
:1055A0003109E901F982E88211961C930E9320E0FB
:1055B0003296C416D506D8F2D2CFDF91CF911F9183
:1055C0000F91FF90EF90DF90CF900895FC01680F4E
:1055D000791F90E080E0E617F70709F4089521911C
:1055E000820F911DF8CF2091F807211113C045DEDD
:1055F000009791F41092FE071092FD071092FC079D
:105600001092FB071092FA071092F90721E02093FD
:10561000F807089584EF9FEF0895AF92BF92CF925D
:10562000DF92EF92FF920F931F93CF93DF93009738
:1056300009F460C04630510508F45CC02091F807B9
:10564000C7EFDFEF222309F449C08C01060F171FB3
:10565000F801C080D180C114D10409F44EC0960174
:105660002A5F3F4F4217530708F447C07C018091DF
:10567000FD079091FE0793838283B6016C5F7F4F95
:105680005801A60EB71EC801A1DFF50191838083E2
:1056900064E070E0C80118DEEC01892BF9F481E0C8
:1056A00090E007DEB601C80104960EDEEC01892BFE
:1056B00091F462E070E0C50107DEEC01892B59F43A
:1056C000C701D9DB8091FD079091FE070196909369
:1056D000FE078093FD0790E080E0EBDDCE01DF91D7
:1056E000CF911F910F91FF90EF90DF90CF90BF90DF
:1056F000AF900895CFEFDFEFF1CFC9EFDFEFEECF3F
:105700006F927F928F929F92AF92BF92CF92DF92D1
:10571000EF92FF920F931F93CF93DF9300D01F92CE
:10572000CDB7DEB7009709F47AC04115510509F4E9
:1057300076C02091F80707EF1FEF222309F44DC030
:105740003A017B015C0164E070E0CE0101964FDE1E
:105750008C01892B09F041C009811A8101151105BD
:1057600009F45AC0480186E0880E911CB701680D03
:10577000791D80910B0390910C0309DD6C0100975A
:1057800009F450C0A70170E060E00E94C839898127
:105790009A81AB81BC81EC0CFD1CF7018193919344
:1057A000A193B1937F0181E090E083DDB801C7014F
:1057B0001EDE892B31F562E070E0C701800F911F7A
:1057C00016DE8C01892BE9F490E080E072DDF501B2
:1057D000D182C082F30191828082C8010F900F9024
:1057E0000F900F90DF91CF911F910F91FF90EF904D
:1057F000DF90CF90BF90AF909F908F907F906F90F1
:10580000089590E080E055DDF50111821082F301EA
:1058100011821082C6012FDB09EF1FEFDECF0FEFE1
:105820001FEFDBCF06EF1FEFD8CF0097A1F0411598
:10583000510589F02115310571F0F90136966E1781
:105840007F0748F0DC012D933C93DA01ED93FC9344
:1058500090E080E008958FEF9FEF0895AF92BF92A0
:10586000CF92DF92EF92FF920F931F93CF93DF932C
:10587000009709F45FC04115510509F45BC065301C
:10588000710508F457C02091F807C7EFDFEF222316
:1058900091F1DC01CD90DC9011971296ED91FC9185
:1058A00096012A5F3F4FC9EFDFEF2617370719F53B
:1058B000C091F907D091FA07209749F521E030E02F
:1058C0003093FA072093F9077A018C01F093FC07D3
:1058D000E093FB075601B4E0AB0EB11CB50176DED8
:1058E0000A0D1B1DF801208131818217930729F5CC
:1058F000D701CD92DC92CE01DF91CF911F910F9114
:10590000FF90EF90DF90CF90BF90AF9008952091DF
:10591000FB073091FC072F5F3F4FCCEFDFEFE21723
:10592000F30790F2CBEFDFEF2E173F0768F2D0E0DE
:10593000C0E0CACFCFEFDFEFDECFC3EFDFEFDBCFCB
:1059400084E090E0089582E090E008958CEF9FEF6E
:10595000089580E290E008951092FE071092FD07EE
:105960001092FC071092FB071092FA071092F907A9
:1059700090E080E0089590930C0380930B030895CA
:105980008091F807882391F0C5DD009789F4109283
:10599000FE071092FD071092FC071092FB07109271
:1059A000FA071092F9071092F807089590E080E046
:1059B0000895009749F06115710531F0FC011182DD
:1059C0001082FB01118210820895F3CF26E030E0AF
:1059D00040E855E260E070E090E080E000C0813097
:1059E000910571F01CF4892B39F0089582309105EE
:1059F00051F0039759F008958CE098E00C948F369D
:105A000089EA98E0FBCF86E499E0F8CF83EE99E04D
:105A1000F5CF1F920F920FB60F9211240BB60F9273
:105A20002F933F934F935F936F937F938F939F93A6
:105A3000AF93BF93EF93FF9386E997EE9093250181
:105A400080932401BFD0FF91EF91BF91AF919F91BF
:105A50008F917F916F915F914F913F912F910F9017
:105A60000BBE0F900FBE0F901F90189586E997EE12
:105A70009093250180932401A3E7B0E08C918E7F61
:105A80008C93E0E2F1E080818C7F8083E1E2F1E0C1
:105A90008081877E808380818460808380818C7F09
:105AA00080838C9181608C930895E3E7F0E080819E
:105AB00090819E7F90838170089581E00895109277
:105AC000FF07089568EE73E080E090E023D690E051
:105AD00080E0089526E030E040E050E16EE070E0C4
