:1000000005C100000C94260F0C94510F0C947C0F2A
:100010000C94A70F0C94D20F0C94FD0F0C94281085
:100020000C94531024C1000022C1000020C1000024
:100030001EC100001CC100001AC1000018C1000050
:1000400016C1000014C1000012C1000010C1000060
:100050000EC100000CC100000AC100000C947E100B
:1000600006C100000C94F7130C942D1400C100007D
:10007000FEC00000FCC00000FAC00000F8C0000094
:10008000F6C00000F4C00000F2C00000F0C00000A4
:100090000C9483140C94B914EAC00000E8C000006A
:1000A000E6C00000E4C00000E2C00000E0C00000C4
:1000B000DEC00000DCC00000DAC00000D8C00000D4
:1000C000D6C00000D4C000000C94BB0B0C940F15DC
:1000D0000C944515CCC000000C949B150C94D115C4
:1000E000C6C0000000000A0B02090C0D0E08070331
:1000F00004010000000000000000000000000000FB
:1001000000000000000000000000000000000000EF
:1001100012111000000000000000000000000000AC
:100120000000000000000000000001021020200874
:100130000810204010204080020102010804020142
:1001400001020408102040808040201008040201B1
:10015000800402018040201008040201080402010A
:100160000102040810204080010204081020408091
:1001700005050505070508080808020202020A0A23
:100180000808040404040101010101010101030341
:10019000030303030303040707070C0C0C0C0C0CEC
:1001A0000C0C0202020206060606060606060B0BE9
:1001B0000B0B0B0B0B0B000020002300260029006B
:1001C0002C002F003200000100000301060109018C
:1001D00000002200250028002B002E0031003400F2
:1001E00002010000050108010B01000021002400AC
:1001F00027002A002D003000330001010000040117
:1002000007010A015614E2146E15FA1511241FBED7
:10021000CFEFD1E2DEBFCDBF00E00CBF12E0A0E027
:10022000B2E0E0E0FDE200E00BBF02C007900D92FB
:10023000A43DB107D9F726E0A4EDB2E001C01D92BC
:10024000A231B207E1F711E0C6E0D1E000E006C05C
:1002500021970109802FFE010E947616C230D10736
:1002600080E00807A9F70E94210C0C947E16C8CEE6
:10027000FC01A781B0858C9191858923A481B581EA
:100280009C9140815181628173812681922359F032
:1002900081110BC04F5F5F4F6F4F7F4F4083518382
:1002A0006283738308958111F5CF4150510961092B
:1002B0007109F4CF85ED92E0DBCF80EE92E0D8CFEC
:1002C0008BEE92E0D5CF86EF92E0D2CFFC01A481F5
:1002D000B5818C9196818923A781B0859C914081BD
:1002E0005181628173812185922359F0882359F0CD
:1002F0004F5F5F4F6F4F7F4F4083518362837383A4
:1003000008958823A9F34150510961097109F4CF77
:1003100085ED92E0DBCF80EE92E0D8CF8BEE92E0DD
:10032000D5CF86EF92E0D2CF0F931F93CF93DF9379
:10033000D82FC62F8A01A091D4028BE0A89FD001AC
:100340001124AB52BD4F1D921D921D921C9213970A
:1003500081E01A968C931A978D2F90E0FC01E65D50
:10036000FE4FE4911696EC931697FC01E059FE4F70
:10037000E491F0E0EE0FFF1FEA54FE4F8591949157
:1003800015969C938E931497862F90E0FC01E65D62
:10039000FE4FE4911996EC931997FC01E059FE4F3A
:1003A000E491F0E0EE0FFF1FEA54FE4F8591949127
:1003B00018969C938E93179760E08D2F0E9464127D
:1003C00060E08C2F0E9464128091D402813009F485
:1003D0003FC0A8F0823009F462C0833009F486C0BF
:1003E0008091D40291E0980F9093D402F801808319
:1003F00090E080E0DF91CF911F910F91089580E010
:10040000D23049F081E0D33031F08EEE8D0F843060
:10041000D8F487E18D1B41E050E06AE571E00E946D
:10042000AD0E80E0C23049F081E0C33031F08EEE95
:100430008C0F843058F487E18C1B41E050E068E871
:1004400071E00E94AD0ECCCF8FEFE5CF8FEFF5CFEF
:1004500080E0D23049F081E0D33031F08EEE8D0F64
:100460008430C8F487E18D1B41E050E06DE571E018
:100470000E94AD0E80E0C23049F081E0C33031F01F
:100480008EEE8C0F843048F487E18C1B41E050E005
:100490006BE871E0D6CF8FEFE7CF8FEFF7CF80E03B
:1004A000D23049F081E0D33031F08EEE8D0F8430C0
:1004B000C8F487E18D1B41E050E060E671E00E94E6
:1004C000AD0E80E0C23049F081E0C33031F08EEEF5
:1004D0008C0F843048F487E18C1B41E050E06EE8DB
:1004E00071E0AFCF8FEFE7CF8FEFF7CF80E0D23063
:1004F00049F081E0D33031F08EEE8D0F8430C8F4B6
:1005000087E18D1B41E050E063E671E00E94AD0E93
:1005100080E0C23049F081E0C33031F08EEE8C0FC4
:10052000843048F487E18C1B41E050E061E971E0E0
:1005300088CF8FEFE7CF8FEFF7CF9BE0899FF00158
:100540001124EB52FD4F80819181A281B381FB0187
:1005500080839183A283B38390E080E008959BE041
:10056000899FF0011124EB52FD4F108211821282FB
:10057000138290E080E0089590E080E00895CF92AB
:10058000DF92EF92FF92CF93882351F16A017B01B2
:10059000CFEFC80F20E030E0A901CB01B6010E94E7
:1005A000BD0C18168CF0C701B60190580E94C60CFD
:1005B0009B01AC016C2F70E090E080E0CF91FF9048
:1005C000EF90DF90CF90B2C0C701B6010E94C10C7E
:1005D0008C2FCF91FF90EF90DF90CF900C942A1149
:1005E000CF91FF90EF90DF90CF9008950F931F93DE
:1005F0008B019C0183E036952795179507958A9581
:10060000D1F70F5F1C4F462F477021E030E0F90112
:1006100002C0EE0FFF1F4A95E2F7AF01F8012081FB
:100620002423CB010196211102C090E080E01F91AC
:100630000F9108950F931F938B019C0183E03695D2
:100640002795179507958A95D1F7677081E090E017
:1006500001C0880F6A95EAF7F801EF5FFC4F20812F
:10066000452B31F48095822380831F910F9108954B
:10067000822BFACF2F923F924F925F926F927F928E
:100680008F929F92AF92BF92CF92DF92EF92FF92A2
:100690000F931F93CF93DF93D62EC72E782E692EFC
:1006A00049015A01280161E08D2D0E946412CD2D6F
:1006B000DC2D8E010F5F1F4FA8016D2D7C2D872D26
:1006C000962DB8DF20E030E0A901C201B7010E94F9
:1006D000450E181664F4C201B7010E94C60C2B0126
:1006E000C501B4010E94C60CA201CE0123D0C801ED
:1006F000DF91CF911F910F91FF90EF90DF90CF90FE
:10070000BF90AF909F908F907F906F905F904F9031
:100710003F902F900895882341F08150682F70E01A
:1007200090E080E050E040E085CF0895862FB90149
:100730000C942A119C01FC01EC51FF4FE491E15013
:10074000E231E0F4F0E08827E755FC4F8F4F0C943E
:100750007616BB03C203C503DC03F103BE03060424
:10076000120416042D04420457046E048304BE03CD
:100770009804AF04C40484B5806884BD60E0822F0F
:100780000C94A01284B58062F8CF809180008C7F99
:1007900082608093800080918100807E8061682BE0
:1007A0006093810050938700409386008091800081
:1007B000806880938000E2CF809180008C7F82608F
:1007C0008093800080918100807E8061682B60939F
:1007D0008100509387004093860080918000806262
:1007E000E8CF809180008C7F826080938000809130
:1007F0008100807E8061682B609381005093870028
:1008000040938600809180008860D3CF8091B000B3
:1008100080688093B0008091B100887F682B6093DE
:10082000B100ACCF8091B0008062F3CF8091900096
:100830008C7F82608093900080919100807E8061A7
:10084000682B60939100509397004093960080919D
:10085000900080688093900091CF809190008C7F71
:1008600082608093900080919100807E8061682BEF
:100870006093910050939700409396008091900070
:100880008062E8CF809190008C7F8260809390009E
:1008900080919100807E8061682B609391005093DD
:1008A000970040939600809190008860D3CF80910C
:1008B000A0008C7F82608093A0008091A100807E48
:1008C0008061682B6093A1005093A7004093A6001D
:1008D0008091A00080688093A00050CF8091A000FC
:1008E0008C7F82608093A0008091A100807E8061D7
:1008F000682B6093A1005093A7004093A6008091BD
:10090000A0008062E8CF8091A0008C7F82608093FD
:10091000A0008091A100807E8061682B6093A1007F
:100920005093A7004093A6008091A0008860D3CF89
:10093000809120018C7F8260809320018091210131
:10094000807E8061682B6093210150932701409342
:100950002601809120018068809320010FCF809133
:1009600020018C7F82608093200180912101807E14
:100970008061682B609321015093270140932601E9
:10098000809120018062E8CF809120018C7F82607D
:100990008093200180912101807E8061682B60938B
:1009A0002101509327014093260180912001886006
:1009B000D3CF611102C00C9464126130E1F362E0A4
:1009C000FACF662319F061E00C94A01260E0FCCF2E
:1009D0004F925F926F927F928F929F92AF92BF924F
:1009E000CF92DF92EF92FF92CF93DF93CDB7DEB736
:1009F0006C970FB6F894DEBF0FBECDBF2091EC050B
:100A00003091ED054091EE055091EF056091640243
:100A100070916502809166029091670249D769875B
:100A20007A878B879C872091000230910102409148
:100A30000202509103020E94490E2091D805309184
:100A4000D9054091DA055091DB0532D720912C026F
:100A500030912D0240912E0250912F020E94490E9A
:100A60006D877E878F87988B20913002309131027D
:100A7000409132025091330269857A858B859C853D
:100A80000E94490E2091D4053091D5054091D6059C
:100A90005091D7050ED72D853E854F85588909D7AA
:100AA0006B017C0180905C0290905D02A0905E02E0
:100AB000B0905F0220914C0230914D0240914E0265
:100AC00050914F02C501B4010E94490E2B013C0117
:100AD0002091540230915502409156025091570294
:100AE000C701B6010E94490E9B01AC01C301B201CE
:100AF000E0D62091F0053091F1054091F20550913A
:100B0000F305D6D6698B7A8B8B8B9C8B2091500208
:100B1000309151024091520250915302C501B401EB
:100B20000E94490E4B015C012091580230915902FC
:100B300040915A0250915B02C701B6010E94490ED2
:100B40009B01AC01C501B401B4D62091F4053091EC
:100B5000F5054091F6055091F705AAD66D8B7E8B71
:100B60008F8B988F209138023091390240913A0250
:100B700050913B0269897A898B899C890E94490E30
:100B80002091E0053091E1054091E2055091E305A7
:100B900090D64B015C01C0904002D0904102E090A1
:100BA0004202F09043029B01AC01B601C701E5D6B9
:100BB00087FD12C0C0902802D0902902E0902A023E
:100BC000F0902B029401A501B601C7010E94450EC9
:100BD000181614F064017501B601C70140D76B0106
:100BE0007C01A6D58111E7C2C701B6015ED581118E
:100BF000E2C220E030E040E857E4C701B60149D73F
:100C00006B017C0120E030E0A901B7D687FFD6C296
:100C1000C701B6019058BAD6CC24DD24C61AD70A2B
:100C200020913402309135024091360250913702C2
:100C30006D897E898F89988D0E94490E2091DC05EF
:100C40003091DD054091DE055091DF0532D63B0144
:100C50004C01A0903C02B0903D02E0903E02F0902A
:100C60003F029B01AC01B501C70187D687FD12C0C9
:100C7000A0902402B0902502E0902602F090270276
:100C80009301A401B501C7010E94450E181614F086
:100C900053017401B501C701E2D64B015C0148D58F
:100CA000811191C2C501B40100D581118CC220E02F
:100CB00030E040E857E4C501B401EBD64B015C01DC
:100CC00020E030E0A90159D687FF80C2C501B401F8
:100CD00090585CD6EE24FF24E61AF70A6CE070E028
:100CE00080E090E083DC5C019093C3058093C205B3
:100CF0006091A0027091A1026E157F0544F0609191
:100D0000A2027091A3026E157F050CF4B70177FF64
:100D100002C070E060E06F3F710519F014F06FEFF2
:100D200070E0072E000C880B990B5ED6AB01BC015E
:100D3000C50125DC69E070E080E090E057DC5C01F3
:100D40009093BB058093BA056091A4027091A502AF
:100D50006C157D0544F06091A6027091A7026C1598
:100D60007D050CF4B60177FF03C07195619571099B
:100D70006F3F710519F014F06FEF70E0072E000C53
:100D8000880B990B31D6AB01BC01C501F8DB6BE0D8
:100D900070E080E090E02ADC5C019093B3058093E2
:100DA000B2056091A8027091A9026E157F0544F00A
:100DB0006091AA027091AB026E157F050CF4B70129
:100DC00077FF03C07195619571096F3F710519F047
:100DD00014F06FEF70E0072E000C880B990B04D60F
:100DE000AB01BC01C501CBDB6AE070E080E090E0C4
:100DF000FDDB5C019093AB058093AA056091AC028A
:100E00007091AD026C157D0544F06091AE02709159
:100E1000AF026C157D050CF4B60177FF02C070E0DF
:100E200060E06F3F710519F014F06FEF70E0072E6E
:100E3000000C880B990BD8D5AB01BC01C5019FDB19
:100E400061E080919C0290919D028C159D0509F4B2
:100E500060E088E0B6DD61E080919E0290919F02A3
:100E60008E159F0509F460E08DE0ABDDC090440273
:100E7000D0904502E0904602F0904702A70196010B
:100E800060919F057091A0058091A1059091A205A8
:100E900074D5882341F0C0929F05D092A005E092BE
:100EA000A105F092A20580919E05811110929E05E8
:100EB000BE016F5F7F4F8091A3053FDBC09048026A
:100EC000D0904902E0904A02F0904B02A7019601AF
:100ED0006091930570919405809195059091960588
:100EE0004CD5882341F0C0929305D0929405E092AE
:100EF0009505F092960580919205811110929205C8
:100F0000BE016B5F7F4F8091970517DB6091980260
:100F10007091990280919A0290919B0265D520E090
:100F200030E040E05AE2B5D64B015C01C0908C0243
:100F3000D0908D02E0908E02F0908F0269817A81CC
:100F40008B819C8151D5A5019401A3D6A70196015F
:100F5000A0D6698F7A8F8B8F9C8F6D817E818F81D8
:100F6000988542D5A501940194D69B01AC01C70197
:100F7000B6018FD62B013C012091E4053091E505A7
:100F80004091E6055091E705698D7A8D8B8D9C8D9A
:100F90008FD4209190023091910240919202509111
:100FA000930277D64B015C018092F0059092F10597
:100FB000A092F205B092F3052091E8053091E90581
:100FC0004091EA055091EB05C301B20171D4209123
:100FD000940230919502409196025091970259D611
:100FE0006B017C01C092F405D092F505E092F60504
:100FF000F092F70520910C0230910D0240910E0203
:1010000050910F0269857A858B859C8542D6209107
:10101000600230916102409162025091630239D6C0
:101020002091D4053091D5054091D6055091D70532
:1010300040D46093D4057093D5058093D6059093E2
:10104000D70520916C0230916D0240916E02509153
:101050006F026D857E858F8598891BD62091D80576
:101060003091D9054091DA055091DB0522D4609387
:10107000D8057093D9058093DA059093DB0520910C
:1010800004023091050240910602509107026D89D9
:101090007E898F89988DFDD52091740230917502DB
:1010A0004091760250917702F4D52091DC05309181
:1010B000DD054091DE055091DF05FBD36093DC0533
:1010C0007093DD058093DE059093DF052091080283
:1010D0003091090240910A0250910B0269897A8984
:1010E0008B899C89D6D520917802309179024091E4
:1010F0007A0250917B02CDD52091E0053091E10537
:101100004091E2055091E305D4D36093E0057093DC
:10111000E1058093E2059093E305898D9A8DAB8D6F
:10112000BC8D8093E4059093E505A093E605B0930C
:10113000E7054092E8055092E9056092EA05709251
:10114000EB05209180023091810240918202509102
:101150008302C501B4019DD54B015C012091880239
:101160003091890240918A0250918B02C701B601E9
:1011700090D59B01AC01C501B4019BD36093EC05F4
:101180007093ED058093EE059093EF056C960FB686
:10119000F894DEBF0FBECDBFDF91CF91FF90EF90EF
:1011A000DF90CF90BF90AF909F908F907F906F9087
:1011B0005F904F900895C12CD12C7601C701B601E4
:1011C000E5D36B012DCD812C912C5401C501B401C7
:1011D000DDD37B0183CD8F929F92AF92BF92DF923E
:1011E000EF92FF920F931F93CF93DF9384E090E0F1
:1011F00025D2CCE8D5E0E0E0F2E0808D918DA28DA3
:10120000B38D8093D4059093D505A093D605B09364
:10121000D7058091680290916902A0916A02B0910D
:101220006B028093EC059093ED05A093EE05B093CF
:10123000EF0584899589A689B7898093D80590930D
:10124000D905A093DA05B093DB05848D958DA68D25
:10125000B78D8093DC059093DD05A093DE05B093F8
:10126000DF0580A191A1A2A1B3A18093E005909395
:10127000E105A093E205B093E3054091700250911F
:10128000710260917202709173024093F005509365
:10129000F1056093F2057093F30580899189A28925
:1012A000B3898093E4059093E505A093E605B09398
:1012B000E7054093F4055093F5056093F6057093A8
:1012C000F7058093E8059093E905A093EA05B093AC
:1012D000EB0518AA812C912C5401839489AA9AAA0F
:1012E000ABAABCAAE12CF12C8701A80197016CE004
:1012F00070E080E090E0BED99FAB8EABDD24D3944C
:10130000DDAA18A689A69AA6ABA6BCA6A801970135
:1013100069E070E080E090E0ADD99FA78EA7DDA6E0
:1013200018A289A29AA2ABA2BCA2A80197016BE065
:1013300070E080E090E09ED99FA38EA3DDA2188E7E
:10134000898E9A8EAB8EBC8EA80197016AE070E000
:1013500080E090E08FD99F8F8E8FDD8E1092CC052C
:101360008092CD059092CE05A092CF05B092D00587
:1013700061E088E01EDBD092D10518AE89AE9AAE4E
:10138000ABAEBCAE61E08DE014DBDDAE1F8A1C8627
:101390008091440290914502A0914602B09147028B
:1013A0008B8B9C8BAD8BBE8B8D869E86AF86B88AD1
:1013B00043EA55E063E182E10E949401D98A1A8AE6
:1013C0008F89CDD81B86188280914802909149025E
:1013D000A0914A02B0914B028F839887A987BA8760
:1013E00089829A82AB82BC8247E955E063E082E061
:1013F0000E949401DD821E828B85DF91CF911F9127
:101400000F91FF90EF90DF90BF90AF909F908F90E3
:10141000A6C88091BC0581112AC081E08093BC05DB
:101420008091BD059091BE05A091BF05B091C0050A
:101430000197A105B105D9F48091C1058823B9F0C0
:101440006CE070E080E090E0D1D89093C305809389
:10145000C20540E050E0BA0192D86CE070E080E054
:1014600090E0C4D89093C3058093C20554D980916D
:10147000B40581112AC081E08093B4058091B5053F
:101480009091B605A091B705B091B8050197A10557
:10149000B105D9F48091B9058823B9F069E070E00D
:1014A00080E090E0A3D89093BB058093BA0540E01C
:1014B00050E0BA0164D869E070E080E090E096D82E
:1014C0009093BB058093BA0526D98091AC05811114
:1014D0002AC081E08093AC058091AD059091AE0566
:1014E000A091AF05B091B0050197A105B105D9F460
:1014F0008091B1058823B9F06BE070E080E090E066
:1015000075D89093B3058093B20540E050E0BA01DE
:1015100036D86BE070E080E090E068D89093B30537
:101520008093B205F8D88091A40581112AC081E08A
:101530008093A4058091A5059091A605A091A7058B
:10154000B091A8050197A105B105D9F48091A9052D
:101550008823B9F06AE070E080E090E047D890938B
:10156000AB058093AA0540E050E0BA0108D86AE0D4
:1015700070E080E090E03AD89093AB058093AA05A4
:10158000CAD88091CC05811103C081E08093CC053D
:101590008091C405811103C081E08093C4058091CE
:1015A0009805811114C081E0809398058091990578
:1015B00090919A05A0919B05B0919C050197A1057A
:1015C000B10529F480919D0581110E94BC02809192
:1015D0008C05811114C081E080938C0580918D056C
:1015E00090918E05A0918F05B09190050197A1056E
:1015F000B10529F48091910581110C94BC020895E4
:1016000060E070E080E89FE7089560E070E080E8C7
:101610009FE7089560E070E080E89FEF089560E044
:1016200070E080E89FEF089560E070E080EC9FEF4D
:10163000089560E070E080EC9FEF0895F5DF60931F
:101640000406709305068093060690930706F1DF63
:101650006093F8057093F9058093FA059093FB0564
:10166000CFDF60930006709301068093020690938B
:101670000306CBDF6093FC057093FD058093FE05A8
:101680009093FF05C7DF6093080670930906809367
:101690000A0690930B06C3DF60930C0670930D0649
:1016A00080930E0690930F060895CF92DF92EF92EB
:1016B000FF92CF936B017C01AC019B01609100060E
:1016C00070910106809102069091030656D1C1E007
:1016D000882369F0A70196016091080670910906B8
:1016E00080910A0690910B0648D18111C0E08C2FA1
:1016F000CF91FF90EF90DF90CF9008950F931F93BD
:101700008B019C010027112720783F7701151105D7
:1017100020483F4749F4AB01BC016F77772781E050
:10172000452B462B472B09F480E01F910F9108951C
:10173000E5CF26E030E040E855E260E070E090E080
:1017400080E000C08130910569F01CF4892B39F0EC
:1017500008958230910549F0039751F0089588E18A
:1017600093E0E5C785EB93E0FCCF82E594E0F9CF09
:101770008FEE94E0F6CF1F920F920FB60F921124C6
:101780000BB60F922F933F934F935F936F937F937B
:101790008F939F93AF93BF93EF93FF938FE89DEF4A
:1017A000909325018093240134D0FF91EF91BF9154
:1017B000AF919F918F917F916F915F914F913F91E9
:1017C0002F910F900BBE0F900FBE0F901F9018958A
:1017D0008FE89DEF9093250180932401A3E7B0E06B
:1017E0008C918E7F8C93E0E2F1E080818C7F80830E
:1017F000E1E2F1E08081877E808380818460808364
:1018000080818C7F80838C9181608C93089581E0AE
:10181000089580910C0391E0980F90930C03882316
:1018200049F021E030E030930E0320930D038093C4
:101830000C0308957894CCD8F89480910C038150CF
:10184000F6CFCF93DF931092110610921006A0D41A
:1018500070DFC091C002D091C10219821882BBDC36
:10186000F894B6DF2881398181E0232B09F080E0EC
:10187000809310067894789480911006811107C0A7
:10188000C8DDF89490E080E0DF91CF910895288141
:10189000398181E0232B09F480E080931106909137
:1018A000110681E0911180E080931006B0DFE4CF53
:1018B0005058BB27AA270ED097C188D130F08DD1C0
:1018C00020F031F49F3F11F41EF47DC10EF4E09539
:1018D000E7FB4AC1E92F99D180F3BA176207730772
:1018E0008407950718F071F49EF5C8C10EF4E095D1
:1018F0000B2EBA2FA02D0B01B90190010C01CA01CA
:10190000A0011124FF27591B99F0593F50F4503E74
:1019100068F11A16F040A22F232F342F4427585F66
:10192000F3CF469537952795A795F0405395C9F77E
:101930007EF41F16BA0B620B730B840BBAF0915036
:10194000A1F0FF0FBB1F661F771F881FC2F70EC0D5
:10195000BA0F621F731F841F48F4879577956795A8
:10196000B795F7959E3F08F0B3CF9395880F08F091
:101970009927EE0F979587950895D2D008F481E0C6
:10198000089504D06894B1117AC1089546D188F0C1
:101990009F5790F0B92F9927B751A0F0D1F0660F5B
:1019A000771F881F991F1AF0BA95C9F712C0B13076
:1019B00081F064D1B1E0089561C1672F782F882745
:1019C000B85F39F0B93FCCF3869577956795B395B5
:1019D000D9F73EF490958095709561957F4F8F4F24
:1019E0009F4F0895E89409C097FB3EF49095809529
:1019F000709561957F4F8F4F9F4F9923A9F0F92FD5
:101A000096E9BB279395F695879577956795B79552
:101A1000F111F8CFFAF4BB0F11F460FF1BC06F5F38
:101A20007F4F8F4F9F4F16C0882311F096E911C04A
:101A3000772321F09EE8872F762F05C0662371F06B
:101A400096E8862F70E060E02AF09A95660F771F7F
:101A5000881FDAF7880F9695879597F90895F7D03C
:101A600080F09F3740F491110EF009C160E070E002
:101A700080E89FEB089526F41B16611D711D811DE2
:101A800079C093C0A3D018F011F0A7D038F49BC050
:101A9000F6C0E92FBAD0B0F35523C9F3E7FB6217BC
:101AA000730784079507A8F199F3E92FFF27882387
:101AB0002AF03197660F771F881FDAF7952F552781
:101AC000442332F091505040220F331F441FD2F76D
:101AD000BB27E91BF50B621B730B840BB109C1F229
:101AE00022F4620F731F841FB11D31972AF0660F15
:101AF000771F881FBB1FEFCF915050405AF041F025
:101B0000882332F0660F771F881F91505040C1F72D
:101B100093954BC08695779567959F5FD9F7F8CFDA
:101B2000990F0008550FAA0BE0E8FEEF16161706EE
:101B3000E807F907C0F012161306E407F50798F056
:101B4000621B730B840B950B39F40A2661F0232B6F
:101B5000242B252B21F408950A2609F4A140A695EB
:101B60008FEF811D811D089597F99F6780E870E0D0
:101B700060E00895882371F4772321F09850872B33
:101B8000762F07C0662311F499270DC09051862B3C
:101B900070E060E02AF09A95660F771F881FDAF7E9
:101BA000880F9695879597F908959F3F31F091504A
:101BB00020F4879577956795B795880F911D969531
:101BC000879597F908959FEF80EC089500240A9473
:101BD0001616170618060906089500240A94121608
:101BE0001306140605060895092E0394000C11F43B
:101BF000882352F0BB0F40F4BF2B11F460FF04C0E8
:101C00006F5F7F4F8F4F9F4F089557FD9058440F40
:101C1000551F59F05F3F71F04795880F97FB991F4B
:101C200061F09F3F79F08795089512161306140608
:101C3000551FF2CF4695F1DF08C016161706180695
:101C4000991FF1CF86957105610508940895E5DF28
:101C5000A0F0BEE7B91788F4BB279F3860F41616CA
:101C6000B11D672F782F8827985FF7CF86957795D6
:101C70006795B11D93959639C8F30895E894BB27ED
:101C800066277727CB0197F908954ADF08F48FEF8D
:101C900008950BD0A9CF9ADF28F09FDF18F0952385
:101CA00009F062CF90CF1124EACFAFDFA0F3959F68
:101CB000D1F3950F50E0551F629FF001729FBB2733
:101CC000F00DB11D639FAA27F00DB11DAA1F649FDF
:101CD0006627B00DA11D661F829F2227B00DA11D92
:101CE000621F739FB00DA11D621F839FA00D611D18
:101CF000221F749F3327A00D611D231F849F600D39
:101D0000211D822F762F6A2F11249F5750408AF071
:101D1000E1F088234AF0EE0FFF1FBB1F661F771FFD
:101D2000881F91505040A9F79E3F510570F01CCF7D
:101D3000A6CF5F3FECF3983EDCF3869577956795E9
:101D4000B795F795E7959F5FC1F7FE2B880F911D1B
:101D50009695879597F908950895883008F075C08D
:101D6000E82FF0E0EE0FFF1FE055FD4F7183608319
:101D70008150873008F03CC0E82FF0E08827ED5311
:101D8000F14F8F4FB3C7000FCA0ED20EDE0EEB0E0F
:101D90000C0F190F809169008C7F482B40936900CC
:101DA000E89A089580916900837F440F551F440F7E
:101DB000551F482B40936900E99A08958091690066
:101DC0008F7C74E0440F551F7A95E1F7482B4093C0
:101DD0006900EA9A0895809169008F7366E0440F64
:101DE000551F6A95E1F7482B40936900EB9A0895D7
:101DF00080916A008C7F482B40936A00EC9A08958A
:101E000080916A00837F440F551F440F551F482B54
:101E100040936A00ED9A089580916A008F7C24E0D7
:101E2000440F551F2A95E1F7482B40936A00EE9A1C
:101E3000089580916A008F7396E0440F551F9A951C
:101E4000E1F7482B40936A00EF9A08951F920F9292
:101E50000FB60F9211240BB60F922F933F934F930F
:101E60005F936F937F938F939F93AF93BF93EF9302
:101E7000FF93E091B402F091B5021995FF91EF91B3
:101E8000BF91AF919F918F917F916F915F914F9192
:101E90003F912F910F900BBE0F900FBE0F901F9090
:101EA00018951F920F920FB60F9211240BB60F9236
:101EB0002F933F934F935F936F937F938F939F9352
:101EC000AF93BF93EF93FF93E091B602F091B70207
:101ED0001995FF91EF91BF91AF919F918F917F9154
:101EE0006F915F914F913F912F910F900BBE0F908B
:101EF0000FBE0F901F9018951F920F920FB60F9262
:101F000011240BB60F922F933F934F935F936F93D0
:101F10007F938F939F93AF93BF93EF93FF93E09142
:101F2000B802F091B9021995FF91EF91BF91AF916D
:101F30009F918F917F916F915F914F913F912F91E1
:101F40000F900BBE0F900FBE0F901F9018951F9211
:101F50000F920FB60F9211240BB60F922F933F934F
:101F60004F935F936F937F938F939F93AF93BF93A1
:101F7000EF93FF93E091BA02F091BB021995FF91A4
:101F8000EF91BF91AF919F918F917F916F915F91F1
:101F90004F913F912F910F900BBE0F900FBE0F905E
:101FA0001F9018951F920F920FB60F9211240BB627
:101FB0000F922F933F934F935F936F937F938F93E2
:101FC0009F93AF93BF93EF93FF93E091B002F09193
:101FD000B1021995FF91EF91BF91AF919F918F91B0
:101FE0007F916F915F914F913F912F910F900BBE19
:101FF0000F900FBE0F901F9018951F920F920FB663
:102000000F9211240BB60F922F933F934F935F9330
:102010006F937F938F939F93AF93BF93EF93FF93B0
:10202000E091B202F091B3021995FF91EF91BF9147
:10203000AF919F918F917F916F915F914F913F9160
:102040002F910F900BBE0F900FBE0F901F90189501
:102050001F920F920FB60F9211240BB60F922F936F
:102060003F934F935F936F937F938F939F93AF9320
:10207000BF93EF93FF93E091BC02F091BD021995DD
:10208000FF91EF91BF91AF919F918F917F916F9150
:102090005F914F913F912F910F900BBE0F900FBE0C
:1020A0000F901F9018951F920F920FB60F92112448
:1020B0000BB60F922F933F934F935F936F937F9342
:1020C0008F939F93AF93BF93EF93FF93E091BE02E3
:1020D000F091BF021995FF91EF91BF91AF919F9140
:1020E0008F917F916F915F914F913F912F910F90C1
:1020F0000BBE0F900FBE0F901F9018951F920F925E
:102100000FB60F9211242F933F938F939F93AF930A
:10211000BF938091100390911103A0911203B0918D
:10212000130330910F0323E0230F2D3758F5019649
:10213000A11DB11D20930F038093100390931103F1
:10214000A0931203B093130380911403909115038D
:10215000A0911603B09117030196A11DB11D8093A4
:10216000140390931503A0931603B0931703BF9124
:10217000AF919F918F913F912F910F900FBE0F9034
:102180001F90189526E8230F0296A11DB11DD2CFEE
:10219000789484B5826084BD84B5816084BD85B542
:1021A000826085BD85B5816085BDEEE6F0E0808109
:1021B00081608083E1E8F0E010828081826080832A
:1021C000808181608083E0E8F0E0808181608083AD
:1021D000E1EBF0E0808184608083E0EBF0E08081DF
:1021E00081608083E1E9F0E080818260808380818A
:1021F00081608083E0E9F0E0808181608083E1EAB2
:10220000F0E0808182608083808181608083E0EA69
:10221000F0E0808181608083E1E2F1E08081826092
:102220008083808181608083E0E2F1E08081816051
:102230008083EAE7F0E0808184608083808182602F
:102240008083808181608083808180688083109218
:10225000C10008951F93CF93DF93182FEB0161E026
:1022600033D1209731F460E0812FDF91CF911F911E
:1022700067C1CF3FD10511F461E0F6CFE12FF0E067
:10228000EC51FF4FE491E150E23108F0B2C0F0E0D0
:102290008827E35BFE4E8F4F29C55F1167116C11D4
:1022A00076118011F9118A1192119A11A411AE11AF
:1022B000B811C711D111F911DB11E511EF1184B576
:1022C000806884BDC7BDDF91CF911F91089584B50B
:1022D000806284BDC8BDF7CF809180008068809304
:1022E0008000D0938900C0938800EDCF809180005A
:1022F000806280938000D0938B00C0938A00E3CFEC
:1023000080918000886080938000D0938D00C0937E
:102310008C00D9CF8091B00080688093B000C093CA
:10232000B300D1CF8091B00080628093B000C093A1
:10233000B400C9CF80919000806880939000D093C2
:102340009900C0939800BFCF8091900080628093E5
:102350009000D0939B00C0939A00B5CF80919000DD
:10236000886080939000D0939D00C0939C00ABCF79
:102370008091A00080688093A0008091A0008F7B56
:102380008093A000D093A900C093A8009CCF809117
:10239000A00080628093A000D093AB00C093AA00FD
:1023A00092CF8091A00088608093A000D093AD0070
:1023B000C093AC0088CF8091200180688093200179
:1023C000D0932901C09328017ECF809120018062A3
:1023D00080932001D0932B01C0932A0174CF809168
:1023E0002001886080932001D0932D01C0932C019F
:1023F0006ACFC038D1050CF03FCF35CF8150823144
:1024000008F059C0E82FF0E08827E75FFD4E8F4FB6
:102410006DC429122D121B12211225125B123012CB
:1024200036123A124012441248124E1252125B12E5
:1024300056125C126012809180008F77809380002A
:102440000895809180008F7DF9CF80918000877FF3
:10245000F5CF84B58F7784BD089584B58F7DFBCF8C
:102460008091B0008F778093B00008958091B00084
:102470008F7DF9CF809190008F77809390000895A1
:10248000809190008F7DF9CF80919000877FF5CF6C
:102490008091A0008F778093A00008958091A00084
:1024A0008F7DF9CF8091A000877FF5CF80912001AB
:1024B0008F77809320010895809120018F7DF9CF3F
:1024C00080912001877FF5CFCF93DF9390E0FC01CF
:1024D000E65DFE4F249180599E4FFC018491882334
:1024E000C9F090E0880F991FFC01E651FE4FA591BD
:1024F000B491FC01E053FE4FC591D49161110DC020
:102500009FB7F8948C91209582238C9388812823FF
:1025100028839FBFDF91CF910895623051F49FB718
:10252000F8943C91822F809583238C93E8812E2B05
:10253000EFCF8FB7F894EC912E2B2C938FBFEACF6F
:102540001F93CF93DF93282F30E0F901EC51FF4F19
:102550008491F901E65DFE4FD491F901E059FE4FF7
:10256000C491CC23A1F0162F811148DFEC2FF0E0AD
:10257000EE0FFF1FE053FE4FA591B4918FB7F89473
:10258000EC91111108C0D095DE23DC938FBFDF9151
:10259000CF911F910895DE2BF8CFFC01918D228DF4
:1025A000892F90E0805C9F4F821B91098F73992740
:1025B0000895FC01918D828D981731F0828DE80F7E
:1025C000F11D858D90E008958FEF9FEF0895FC0138
:1025D000918D828D981761F0A28DAE0FBF2FB11D26
:1025E0005D968C91928D9F5F9F73928F90E008957E
:1025F0008FEF9FEF0895FC01538D448D252F30E020
:10260000842F90E0821B930B541710F0CF960895FF
:1026100001970895FC01A48DA80FB92FB11DA35AED
:10262000BF4F2C91848D90E001968F739927848FF2
:10263000A689B7892C93A089B1898C918370806415
:102640008C93938D848D981306C00288F389E02DB6
:1026500080818F7D80830895CF93DF93EC01888DF7
:102660008823B1F0AA89BB89E889F9898C9185FD15
:1026700003C0808186FD0CC00FB607FCF7CF8C919C
:1026800085FFF2CF808185FFEDCFCE01C3DFEACF9A
:10269000DF91CF910895EF92FF920F931F93CF9305
:1026A000DF93EC0181E0888F9B8D8C8D98131AC08D
:1026B000E889F989808185FF15C09FB7F894EE8974
:1026C000FF896083E889F9898081837080648083D1
:1026D0009FBF81E090E0DF91CF911F910F91FF901C
:1026E000EF900895F62E0B8D10E00F5F1F4F0F73C4
:1026F0001127E02E8C8D8E110BC00FB607FCFACF80
:10270000E889F989808185FFF5CFCE0183DFF2CF9B
:10271000EB8DEC0FFD2FF11DE35AFF4FF0829FB7B9
:10272000F8940B8FEA89FB8980818062D0CFCF92A9
:10273000DF92EF92FF921F93CF93DF93EC016A0138
:102740007B01122FE889F98982E08083C11481EE30
:10275000D806E104F10499F060E079E08DE390E0BF
:10276000A7019601A1D2215031094109510956957D
:10277000479537952795211580E1380790F0E8892E
:10278000F989108260E874E88EE190E0A701960173
:102790008BD22150310941095109569547953795FA
:1027A0002795EC85FD853083EE85FF852083188E87
:1027B000EC89FD891083EA89FB89808180618083AF
:1027C000EA89FB89808188608083EA89FB8980812E
:1027D00080688083EA89FB8980818F7D8083DF9197
:1027E000CF911F91FF90EF90DF90CF9008951F92AF
:1027F0000F920FB60F9211240BB60F922F938F9357
:102800009F93EF93FF93E0912803F0912903808138
:10281000E0912E03F0912F0382FD1DC090818091E5
:1028200031038F5F8F7320913203821741F0E09163
:102830003103F0E0E85EFC4F958F80933103FF9108
:10284000EF919F918F912F910F900BBE0F900FBE24
:102850000F901F9018958081F2CF1F920F920FB6A4
:102860000F9211240BB60F922F933F934F935F93C8
:102870006F937F938F939F93AF93BF93EF93FF9348
:1028800088E193E0C7DEFF91EF91BF91AF919F91F7
:102890008F917F916F915F914F913F912F910F9009
:1028A0000BBE0F900FBE0F901F901895E8E1F3E05C
:1028B0001382128288EE93E0A0E0B0E084839583D7
:1028C000A683B78386EC92E09183808385EC90E0C9
:1028D0009587848784EC90E09787868780EC90E0EA
:1028E000918B808B81EC90E0938B828B82EC90E0DB
:1028F000958B848B86EC90E0978B868B118E128E55
:10290000138E148E08951F920F920FB60F921124FA
:102910000BB60F922F938F939F93EF93FF93E091BA
:10292000C503F091C6038081E091CB03F091CC0305
:1029300082FD1DC090818091CE038F5F8F732091A7
:10294000CF03821741F0E091CE03F0E0EB54FC4F4F
:10295000958F8093CE03FF91EF919F918F912F914F
:102960000F900BBE0F900FBE0F901F901895808197
:10297000F2CF1F920F920FB60F9211240BB60F9247
:102980002F933F934F935F936F937F938F939F9377
:10299000AF93BF93EF93FF9385EB93E03BDEFF9103
:1029A000EF91BF91AF919F918F917F916F915F91C7
:1029B0004F913F912F910F900BBE0F900FBE0F9034
:1029C0001F901895E5EBF3E01382128288EE93E0F6
:1029D000A0E0B0E084839583A683B78386EC92E081
:1029E000918380838DEC90E0958784878CEC90E0D8
:1029F0009787868788EC90E0918B808B89EC90E0BC
:102A0000938B828B8AEC90E0958B848B8EEC90E09C
:102A1000978B868B118E128E138E148E08951F92B3
:102A20000F920FB60F9211240BB60F922F938F9324
:102A30009F93EF93FF93E0916204F0916304808190
:102A4000E0916804F091690482FD1DC0908180913D
:102A50006B048F5F8F7320916C04821741F0E091BB
:102A60006B04F0E0EE5AFB4F958F80936B04FF915F
:102A7000EF919F918F912F910F900BBE0F900FBEF2
:102A80000F901F9018958081F2CF1F920F920FB672
:102A90000F9211240BB60F922F933F934F935F9396
:102AA0006F937F938F939F93AF93BF93EF93FF9316
:102AB00082E594E0AFDDFF91EF91BF91AF919F91DF
:102AC0008F917F916F915F914F913F912F910F90D7
:102AD0000BBE0F900FBE0F901F901895E2E5F4E02B
:102AE0001382128288EE93E0A0E0B0E084839583A5
:102AF000A683B78386EC92E09183808385ED90E096
:102B00009587848784ED90E09787868780ED90E0B5
:102B1000918B808B81ED90E0938B828B82ED90E0A6
:102B2000958B848B86ED90E0978B868B118E128E21
:102B3000138E148E08951F920F920FB60F921124C8
:102B40000BB60F922F938F939F93EF93FF93E09188
:102B5000FF04F09100058081E0910505F0910605E4
:102B600082FD1DC09081809108058F5F8F73209139
:102B70000905821741F0E0910805F0E0E151FB4FB3
:102B8000958F80930805FF91EF919F918F912F91E1
:102B90000F900BBE0F900FBE0F901F901895808165
:102BA000F2CF1F920F920FB60F9211240BB60F9215
:102BB0002F933F934F935F936F937F938F939F9345
:102BC000AF93BF93EF93FF938FEE94E023DDFF91DC
:102BD000EF91BF91AF919F918F917F916F915F9195
:102BE0004F913F912F910F900BBE0F900FBE0F9002
:102BF0001F901895EFEEF4E01382128288EE93E0B6
:102C0000A0E0B0E084839583A683B78386EC92E04E
:102C10009183808385E391E09587848784E391E0C5
:102C20009787868780E391E0918B808B81E391E0A9
:102C3000938B828B82E391E0958B848B86E391E08A
:102C4000978B868B118E128E138E148E0895AF92F1
:102C5000BF92CF92DF92EF92FF920F931F93CF9389
:102C6000DF936C017B018B01040F151FEB015E01EB
:102C7000AE18BF08C017D10759F06991D601ED9180
:102C8000FC910190F081E02DC6011995892B79F70F
:102C9000C501DF91CF911F910F91FF90EF90DF90D1
:102CA000CF90BF90AF900895A1E21A2EAA1BBB1B34
:102CB000FD010DC0AA1FBB1FEE1FFF1FA217B30708
:102CC000E407F50720F0A21BB30BE40BF50B661F1E
:102CD000771F881F991F1A9469F7609570958095E2
:102CE00090959B01AC01BD01CF010895EE0FFF1F30
:102CF000881F8BBF0790F691E02D1994F894FFCFB1
:102D00000000000052D27540743276406FE6D54123
:102D100000000000000000000000000000000000B3
:102D20000000000000007FC300007FC30000C84215
:102D3000FAB6293FEF20A7433C27A84300007F4372
:102D400000007F43000080BF000080BF0000803F84
:102D50000000803F14AEC7BD14AEC73D9A99993E9E
:102D60000AD7233C7CD9203F000000000AD7233C2F
:102D7000000000000AD7233C0AD7233C0000003F94
:102D8000421AA4C00000003F421AA4400000C842FA
:102D90007593803F0000803F8883954800000000C5
:102DA000FF000000000001FF000001FFFF00000025
:102DB000AC0EAC0EAC0EAC0EAC0EAC0EAC0EAC0E43
:102DC0000A03000000004B132716FB122C13CD1230
:042DD000E712D9121B
:00000001FF
