:1000000005C100000C94100F0C943B0F0C94660F6C
:100010000C94910F0C94BC0F0C94E70F0C941210DD
:100020000C943D1024C1000022C1000020C100003A
:100030001EC100001CC100001AC1000018C1000050
:1000400016C1000014C1000012C1000010C1000060
:100050000EC100000CC100000AC100000C94681021
:1000600006C100000C94E1130C94171400C10000A9
:10007000FEC00000FCC00000FAC00000F8C0000094
:10008000F6C00000F4C00000F2C00000F0C00000A4
:100090000C946D140C94A314EAC00000E8C0000096
:1000A000E6C00000E4C00000E2C00000E0C00000C4
:1000B000DEC00000DCC00000DAC00000D8C00000D4
:1000C000D6C00000D4C000000C94A50B0C94F91409
:1000D0000C942F15CCC000000C9485150C94BB1506
:1000E000C6C0000000000A0B02090C0D0E08070331
:1000F00004010000000000000000000000000000FB
:1001000000000000000000000000000000000000EF
:1001100012111000000000000000000000000000AC
:100120000000000000000000000001021020200874
:100130000810204010204080020102010804020142
:1001400001020408102040808040201008040201B1
:10015000800402018040201008040201080402010A
:100160000102040810204080010204081020408091
:1001700005050505070508080808020202020A0A23
:100180000808040404040101010101010101030341
:10019000030303030303040707070C0C0C0C0C0CEC
:1001A0000C0C0202020206060606060606060B0BE9
:1001B0000B0B0B0B0B0B000020002300260029006B
:1001C0002C002F003200000100000301060109018C
:1001D00000002200250028002B002E0031003400F2
:1001E00002010000050108010B01000021002400AC
:1001F00027002A002D003000330001010000040117
:1002000007010A014014CC145815E41511241FBE2F
:10021000CFEFD1E2DEBFCDBF00E00CBF12E0A0E027
:10022000B2E0E4EDFCE200E00BBF02C007900D92EB
:10023000A03DB107D9F726E0A0EDB2E001C01D92C4
:10024000AA30B207E1F711E0C6E0D1E000E006C055
:1002500021970109802FFE010E946016C230D1074C
:1002600080E00807A9F70E940B0C0C946816C8CE12
:10027000FC01A781B0858C9191858923A481B581EA
:100280009C9140815181628173812681922359F032
:1002900081110BC04F5F5F4F6F4F7F4F4083518382
:1002A0006283738308958111F5CF4150510961092B
:1002B0007109F4CF81ED92E0DBCF8CED92E0D8CFE5
:1002C00087EE92E0D5CF82EF92E0D2CFFC01A481FD
:1002D000B5818C9196818923A781B0859C914081BD
:1002E0005181628173812185922359F0882359F0CD
:1002F0004F5F5F4F6F4F7F4F4083518362837383A4
:1003000008958823A9F34150510961097109F4CF77
:1003100081ED92E0DBCF8CED92E0D8CF87EE92E0DA
:10032000D5CF82EF92E0D2CF0F931F93CF93DF937D
:10033000D82FC62F8A01A091D0028BE0A89FD001B0
:100340001124AF52BD4F1D921D921D921C92139706
:1003500081E01A968C931A978D2F90E0FC01E65D50
:10036000FE4FE4911696EC931697FC01E059FE4F70
:10037000E491F0E0EE0FFF1FEA54FE4F8591949157
:1003800015969C938E931497862F90E0FC01E65D62
:10039000FE4FE4911996EC931997FC01E059FE4F3A
:1003A000E491F0E0EE0FFF1FEA54FE4F8591949127
:1003B00018969C938E93179760E08D2F0E944E1293
:1003C00060E08C2F0E944E128091D002813009F49F
:1003D0003FC0A8F0823009F462C0833009F486C0BF
:1003E0008091D00291E0980F9093D002F801808321
:1003F00090E080E0DF91CF911F910F91089580E010
:10040000D23049F081E0D33031F08EEE8D0F843060
:10041000D8F487E18D1B41E050E06AE571E00E946D
:10042000970E80E0C23049F081E0C33031F08EEEAB
:100430008C0F843058F487E18C1B41E050E068E871
:1004400071E00E94970ECCCF8FEFE5CF8FEFF5CF05
:1004500080E0D23049F081E0D33031F08EEE8D0F64
:100460008430C8F487E18D1B41E050E06DE571E018
:100470000E94970E80E0C23049F081E0C33031F035
:100480008EEE8C0F843048F487E18C1B41E050E005
:100490006BE871E0D6CF8FEFE7CF8FEFF7CF80E03B
:1004A000D23049F081E0D33031F08EEE8D0F8430C0
:1004B000C8F487E18D1B41E050E060E671E00E94E6
:1004C000970E80E0C23049F081E0C33031F08EEE0B
:1004D0008C0F843048F487E18C1B41E050E06EE8DB
:1004E00071E0AFCF8FEFE7CF8FEFF7CF80E0D23063
:1004F00049F081E0D33031F08EEE8D0F8430C8F4B6
:1005000087E18D1B41E050E063E671E00E94970EA9
:1005100080E0C23049F081E0C33031F08EEE8C0FC4
:10052000843048F487E18C1B41E050E061E971E0E0
:1005300088CF8FEFE7CF8FEFF7CF9BE0899FF00158
:100540001124EF52FD4F80819181A281B381FB0183
:1005500080839183A283B38390E080E008959BE041
:10056000899FF0011124EF52FD4F108211821282F7
:10057000138290E080E0089590E080E00895CF92AB
:10058000DF92EF92FF92CF93882351F16A017B01B2
:10059000CFEFC80F20E030E0A901CB01B6010E94E7
:1005A000A70C18168CF0C701B60190580E94B00C29
:1005B0009B01AC016C2F70E090E080E0CF91FF9048
:1005C000EF90DF90CF90B2C0C701B6010E94AB0C94
:1005D0008C2FCF91FF90EF90DF90CF900C9414115F
:1005E000CF91FF90EF90DF90CF9008950F931F93DE
:1005F0008B019C0183E036952795179507958A9581
:10060000D1F703501D4F462F477021E030E0F9012C
:1006100002C0EE0FFF1F4A95E2F7AF01F8012081FB
:100620002423CB010196211102C090E080E01F91AC
:100630000F9108950F931F938B019C0183E03695D2
:100640002795179507958A95D1F7677081E090E017
:1006500001C0880F6A95EAF7F801E350FD4F208149
:10066000452B31F48095822380831F910F9108954B
:10067000822BFACF2F923F924F925F926F927F928E
:100680008F929F92AF92BF92CF92DF92EF92FF92A2
:100690000F931F93CF93DF93D62EC72E782E692EFC
:1006A00049015A01280161E08D2D0E944E12CD2D85
:1006B000DC2D8E010F5F1F4FA8016D2D7C2D872D26
:1006C000962DB8DF20E030E0A901C201B7010E94F9
:1006D0002F0E181664F4C201B7010E94B00C2B0152
:1006E000C501B4010E94B00CA201CE0123D0C80103
:1006F000DF91CF911F910F91FF90EF90DF90CF90FE
:10070000BF90AF909F908F907F906F905F904F9031
:100710003F902F900895882341F08150682F70E01A
:1007200090E080E050E040E085CF0895862FB90149
:100730000C9414119C01FC01EC51FF4FE491E15029
:10074000E231E0F4F0E08827E755FC4F8F4F0C943E
:100750006016BB03C203C503DC03F103BE0306043A
:10076000120416042D04420457046E048304BE03CD
:100770009804AF04C40484B5806884BD60E0822F0F
:100780000C948A1284B58062F8CF809180008C7FAF
:1007900082608093800080918100807E8061682BE0
:1007A0006093810050938700409386008091800081
:1007B000806880938000E2CF809180008C7F82608F
:1007C0008093800080918100807E8061682B60939F
:1007D0008100509387004093860080918000806262
:1007E000E8CF809180008C7F826080938000809130
:1007F0008100807E8061682B609381005093870028
:1008000040938600809180008860D3CF8091B000B3
:1008100080688093B0008091B100887F682B6093DE
:10082000B100ACCF8091B0008062F3CF8091900096
:100830008C7F82608093900080919100807E8061A7
:10084000682B60939100509397004093960080919D
:10085000900080688093900091CF809190008C7F71
:1008600082608093900080919100807E8061682BEF
:100870006093910050939700409396008091900070
:100880008062E8CF809190008C7F8260809390009E
:1008900080919100807E8061682B609391005093DD
:1008A000970040939600809190008860D3CF80910C
:1008B000A0008C7F82608093A0008091A100807E48
:1008C0008061682B6093A1005093A7004093A6001D
:1008D0008091A00080688093A00050CF8091A000FC
:1008E0008C7F82608093A0008091A100807E8061D7
:1008F000682B6093A1005093A7004093A6008091BD
:10090000A0008062E8CF8091A0008C7F82608093FD
:10091000A0008091A100807E8061682B6093A1007F
:100920005093A7004093A6008091A0008860D3CF89
:10093000809120018C7F8260809320018091210131
:10094000807E8061682B6093210150932701409342
:100950002601809120018068809320010FCF809133
:1009600020018C7F82608093200180912101807E14
:100970008061682B609321015093270140932601E9
:10098000809120018062E8CF809120018C7F82607D
:100990008093200180912101807E8061682B60938B
:1009A0002101509327014093260180912001886006
:1009B000D3CF611102C00C944E126130E1F362E0BA
:1009C000FACF662319F061E00C948A1260E0FCCF44
:1009D0004F925F926F927F928F929F92AF92BF924F
:1009E000CF92DF92EF92FF920F931F93CF93DF93FB
:1009F000CDB7DEB768970FB6F894DEBF0FBECDBF98
:100A00002091D4053091D5054091D6055091D70558
:100A10006091600270916102809162029091630224
:100A200031D72B013C0120912802309129024091BD
:100A30002A0250912B020E94330E2091D005309152
:100A4000D1054091D2055091D3051DD75B016C01B2
:100A5000E0903402F0903502009136021091370296
:100A60009B01AC01B701C80172D787FD12C0E090AD
:100A70001C02F0901D0200911E0210911F029501B0
:100A8000A601B701C8010E942F0E181614F07501B7
:100A900086018090580290905902A0905A02B0901E
:100AA0005B02209148023091490240914A025091E4
:100AB0004B02C501B4010E94330E69877A878B8788
:100AC0009C872091500230915102409152025091E6
:100AD0005302B701C8010E94330E9B01AC01698526
:100AE0007A858B859C85CFD62091E8053091E905E4
:100AF0004091EA055091EB05C5D669877A878B87C7
:100B00009C8720914C0230914D0240914E025091B1
:100B10004F02C501B4010E94330E4B015C012091CC
:100B20005402309155024091560250915702B7013C
:100B3000C8010E94330E9B01AC01C501B401A3D6CC
:100B40002091EC053091ED054091EE055091EF05B7
:100B500099D66D877E878F87988B20913002309150
:100B60003102409132025091330269857A858B853A
:100B70009C850E94330E2091DC053091DD0540916B
:100B8000DE055091DF057FD65B016C01E0903C02F1
:100B9000F0903D0200913E0210913F029B01AC019A
:100BA000B701C801D4D687FD12C0E0902402F090AE
:100BB000250200912602109127029501A601B70196
:100BC000C8010E942F0E181614F075018601B70196
:100BD000C8012FD76B017C0195D58111E2C2C701F5
:100BE000B6014DD58111DDC220E030E040E857E488
:100BF000C701B60138D76B017C0120E030E0A901C4
:100C0000A6D687FFD1C2C701B6019058A9D6EE2457
:100C1000FF24E61AF70A20912C0230912D02409110
:100C20002E0250912F026D857E858F8598890E94B6
:100C3000330E2091D8053091D9054091DA055091B5
:100C4000DB0521D64B015C01C0903802D0903902FF
:100C500000913A0210913B029B01AC01B601C80120
:100C600076D687FD11C0C0902002D090210200915D
:100C70002202109123029401A501B601C801EFD709
:100C8000181614F064018501B601C801D2D64B01D3
:100C90005C0138D581118DC2C501B401F0D4811138
:100CA00088C220E030E040E857E4C501B401DBD65B
:100CB0004B015C0120E030E0A90149D687FF7CC2EE
:100CC000C501B40190584CD600271127061B170BFD
:100CD0006CE070E080E090E089DC6C019093BF05EF
:100CE0008093BE0560919C0270919D026017710710
:100CF00044F060919E0270919F02601771070CF49E
:100D0000B80177FF02C070E060E06F3F710519F035
:100D100014F06FEF70E0072E000C880B990B4ED685
:100D2000AB01BC01C6012BDC69E070E080E090E023
:100D30005DDC6C019093B7058093B6056091A002CD
:100D40007091A1026E157F0544F06091A20270912E
:100D5000A3026E157F050CF4B70177FF03C07195F0
:100D6000619571096F3F710519F014F06FEF70E034
:100D7000072E000C880B990B21D6AB01BC01C601D4
:100D8000FEDB6BE070E080E090E030DC6C01909383
:100D9000AF058093AE056091A4027091A502601723
:100DA000710744F06091A6027091A7026017710765
:100DB0000CF4B80177FF03C07195619571096F3F1D
:100DC000710519F014F06FEF70E0072E000C880B1E
:100DD000990BF4D5AB01BC01C601D1DB6AE070E030
:100DE00080E090E003DC6C019093A7058093A6055A
:100DF0006091A8027091A9026E157F0544F0609180
:100E0000AA027091AB026E157F050CF4B70177FF53
:100E100002C070E060E06F3F710519F014F06FEFF1
:100E200070E0072E000C880B990BC8D5AB01BC01F4
:100E3000C601A5DB61E080919802909199028E1520
:100E40009F0509F460E088E0BCDD61E080919A02D2
:100E500090919B028017910709F460E08DE0B1DD6D
:100E6000C0904002D0904102E0904202F0904302D4
:100E7000A701960160919B0570919C0580919D054D
:100E800090919E0564D5882341F0C0929B05D09235
:100E90009C05E0929D05F0929E0580919A05811136
:100EA00010929A05BE016F5F7F4F80919F0545DBD1
:100EB000C0904402D0904502E0904602F090470274
:100EC000A701960160918F05709190058091910521
:100ED000909192053CD5882341F0C0928F05D09225
:100EE0009005E0929105F092920580918E05811116
:100EF00010928E05BE016B5F7F4F809193051DDBC5
:100F0000609194027091950280919602909197025F
:100F100055D520E030E040E05AE2A5D64B015C0117
:100F2000C0908802D0908902E0908A02F0908B02F3
:100F300069817A818B819C8141D5A501940193D6E9
:100F4000A701960190D6698B7A8B8B8B9C8B6D81D8
:100F50007E818F81988532D5A501940184D69B012D
:100F6000AC01C701B6017FD66D8B7E8B8F8B988FBE
:100F70002091E0053091E1054091E2055091E305B3
:100F800069897A898B899C897DD420918C023091E2
:100F90008D0240918E0250918F0265D64B015C010B
:100FA0008092E8059092E905A092EA05B092EB05DF
:100FB0002091E4053091E5054091E6055091E70563
:100FC0006D897E898F89988D5DD4209190023091B2
:100FD0009102409192025091930245D66B017C019F
:100FE000C092EC05D092ED05E092EE05F092EF058F
:100FF000209108023091090240910A0250910B029F
:10100000C301B20130D620915C0230915D02409163
:101010005E0250915F0227D62091D0053091D10514
:101020004091D2055091D3052ED46093D005709392
:10103000D1058093D2059093D30520910002309181
:10104000010240910202509103026D857E858F85D9
:10105000988909D6209170023091710240917202F4
:101060005091730200D62091D8053091D905409156
:10107000DA055091DB0507D46093D8057093D90544
:101080008093DA059093DB052091040230910502EC
:10109000409106025091070269857A858B859C856F
:1010A000E2D5209174023091750240917602509100
:1010B0007702D9D52091DC053091DD054091DE0520
:1010C0005091DF05E0D36093DC057093DD058093DC
:1010D000DE059093DF0589899A89AB89BC89809365
:1010E000E0059093E105A093E205B093E3058D89B7
:1010F0009E89AF89B88D8093E4059093E505A09310
:10110000E605B093E70520917C0230917D02409185
:101110007E0250917F02C501B401A5D54B015C014F
:10112000209184023091850240918602509187027D
:10113000C701B60198D59B01AC01C501B401A3D389
:1011400020916402309165024091660250916702DD
:101150008AD52091D4053091D5054091D60550917E
:10116000D70591D36093D4057093D5058093D605A8
:101170009093D70568960FB6F894DEBF0FBECDBF2B
:10118000DF91CF911F910F91FF90EF90DF90CF9063
:10119000BF90AF909F908F907F906F905F904F9097
:1011A0000895C12CD12C7601C701B601D9D37B019A
:1011B00032CD812C912C5401C501B401D1D38B01C6
:1011C00087CD8F929F92AF92BF92DF92EF92FF9264
:1011D0000F931F93CF93DF9384E090E019D2C8E878
:1011E000D5E0E0E0F2E080899189A289B38980931B
:1011F000D0059093D105A093D205B093D3058091EB
:10120000680290916902A0916A02B0916B0280938A
:10121000D4059093D505A093D605B093D7058489BE
:101220009589A689B7898093D8059093D905A0930D
:10123000DA05B093DB05808D918DA28DB38D8093FF
:10124000DC059093DD05A093DE05B093DF054091AA
:101250006C0250916D0260916E0270916F0240932A
:10126000E8055093E9056093EA057093EB058485E2
:101270009585A685B7858093E0059093E105A093B9
:10128000E205B093E3054093EC055093ED056093C0
:10129000EE057093EF058093E4059093E505A09328
:1012A000E605B093E70518AA812C912C540183948C
:1012B00089AA9AAAABAABCAAE12CF12C8701A801A1
:1012C00097016CE070E080E090E0D4D99FAB8EABEA
:1012D000DD24D394DDAA18A689A69AA6ABA6BCA63F
:1012E000A801970169E070E080E090E0C3D99FA772
:1012F0008EA7DDA618A289A29AA2ABA2BCA2A801C1
:1013000097016BE070E080E090E0B4D99FA38EA3DA
:10131000DDA2188E898E9A8EAB8EBC8EA8019701A5
:101320006AE070E080E090E0A5D99F8F8E8FDD8E1F
:101330001092C8058092C9059092CA05A092CB056B
:10134000B092CC0561E088E034DBD092CD0518AED8
:1013500089AE9AAEABAEBCAE61E08DE02ADBDDAE0D
:101360001F8A1C868091400290914102A091420206
:10137000B09143028B8B9C8BAD8BBE8B8D869E86F2
:10138000AF86B88A4FE955E063E182E10E9494019B
:10139000D98A1A8A8F89E3D81B86188280914402E1
:1013A00090914502A0914602B09147028F839887A1
:1013B000A987BA8789829A82AB82BC8243E955E0C9
:1013C00063E082E00E949401DD821E828B85DF91C2
:1013D000CF911F910F91FF90EF90DF90BF90AF9052
:1013E0009F908F90BCC88091B80581112AC081E080
:1013F0008093B8058091B9059091BA05A091BB057D
:10140000B091BC050197A105B105D9F48091BD0546
:101410008823B9F06CE070E080E090E0E7D890932A
:10142000BF058093BE0540E050E0BA01A8D86CE04B
:1014300070E080E090E0DAD89093BF058093BE051D
:101440006AD98091B00581112AC081E08093B005EE
:101450008091B1059091B205A091B305B091B4050A
:101460000197A105B105D9F48091B5058823B9F09C
:1014700069E070E080E090E0B9D89093B705809380
:10148000B60540E050E0BA017AD869E070E080E04B
:1014900090E0ACD89093B7058093B6053CD9809185
:1014A000A80581112AC081E08093A8058091A90533
:1014B0009091AA05A091AB05B091AC050197A1054B
:1014C000B105D9F48091AD058823B9F06BE070E0E7
:1014D00080E090E08BD89093AF058093AE0540E01C
:1014E00050E0BA014CD86BE070E080E090E07ED82C
:1014F0009093AF058093AE050ED98091A005811120
:101500002AC081E08093A0058091A1059091A20559
:10151000A091A305B091A4050197A105B105D9F447
:101520008091A5058823B9F06AE070E080E090E042
:101530005DD89093A7058093A60540E050E0BA01DE
:101540001ED86AE070E080E090E050D89093A70544
:101550008093A605E0D88091C805811103C081E081
:101560008093C8058091C005811103C081E08093FC
:10157000C00580919405811114C081E08093940589
:101580008091950590919605A0919705B091980549
:101590000197A105B10529F48091990581110E9457
:1015A000BC0280918805811114C081E08093880578
:1015B0008091890590918A05A0918B05B0918C0549
:1015C0000197A105B10529F480918D0581110C9435
:1015D000BC02089560E070E080E89FE7089560E055
:1015E00070E080E89FE7089560E070E080E89FEF9A
:1015F000089560E070E080E89FEF089560E070E09B
:1016000080EC9FEF089560E070E080EC9FEF08951C
:10161000F5DF6093FC057093FD058093FE059093C4
:10162000FF05F1DF6093F0057093F1058093F205FB
:101630009093F305CFDF6093F8057093F9058093DD
:10164000FA059093FB05CBDF6093F4057093F505E5
:101650008093F6059093F705C7DF609300067093BB
:1016600001068093020690930306C3DF609304068D
:101670007093050680930606909307060895CF920F
:10168000DF92EF92FF92CF936B017C01AC019B0143
:101690006091F8057091F9058091FA059091FB052C
:1016A00056D1C1E0882369F0A70196016091000638
:1016B00070910106809102069091030648D1811134
:1016C000C0E08C2FCF91FF90EF90DF90CF900895E6
:1016D0000F931F938B019C010027112720783F77E0
:1016E0000115110520483F4749F4AB01BC016F7754
:1016F000772781E0452B462B472B09F480E01F918B
:101700000F910895E5CF26E030E040E855E260E033
:1017100070E090E080E000C08130910569F01CF439
:10172000892B39F008958230910549F0039751F0E3
:10173000089584E193E0E5C781EB93E0FCCF8EE46C
:1017400094E0F9CF8BEE94E0F6CF1F920F920FB694
:101750000F9211240BB60F922F933F934F935F93E9
:101760006F937F938F939F93AF93BF93EF93FF9369
:101770008FE89DEF909325018093240134D0FF9151
:10178000EF91BF91AF919F918F917F916F915F91F9
:101790004F913F912F910F900BBE0F900FBE0F9066
:1017A0001F9018958FE89DEF909325018093240159
:1017B000A3E7B0E08C918E7F8C93E0E2F1E0808132
:1017C0008C7F8083E1E2F1E08081877E808380816D
:1017D0008460808380818C7F80838C9181608C93F6
:1017E000089581E008958091080391E0980F909307
:1017F0000803882349F021E030E030930A03209366
:1018000009038093080308957894E2D8F8948091AE
:1018100008038150F6CFCF93DF9310920906109200
:101820000806A0D470DFC091BC02D091BD0219821D
:101830001882C7DCF894B6DF2881398181E0232B38
:1018400009F080E0809308067894789480910806E7
:10185000811107C0C8DDF89490E080E0DF91CF915E
:1018600008952881398181E0232B09F480E0809359
:1018700009069091090681E0911180E080930806A5
:10188000B0DFE4CF5058BB27AA270ED097C188D12C
:1018900030F08DD120F031F49F3F11F41EF47DC162
:1018A0000EF4E095E7FB4AC1E92F99D180F3BA170E
:1018B000620773078407950718F071F49EF5C8C195
:1018C0000EF4E0950B2EBA2FA02D0B01B90190015B
:1018D0000C01CA01A0011124FF27591B99F0593F9F
:1018E00050F4503E68F11A16F040A22F232F342FE7
:1018F0004427585FF3CF469537952795A795F04035
:101900005395C9F77EF41F16BA0B620B730B840B49
:10191000BAF09150A1F0FF0FBB1F661F771F881F01
:10192000C2F70EC0BA0F621F731F841F48F4879559
:1019300077956795B795F7959E3F08F0B3CF939548
:10194000880F08F09927EE0F979587950895D2D0C4
:1019500008F481E0089504D06894B1117AC1089523
:1019600046D188F09F5790F0B92F9927B751A0F032
:10197000D1F0660F771F881F991F1AF0BA95C9F723
:1019800012C0B13081F064D1B1E0089561C1672F18
:10199000782F8827B85F39F0B93FCCF386957795D3
:1019A0006795B395D9F73EF49095809570956195BC
:1019B0007F4F8F4F9F4F0895E89409C097FB3EF4E7
:1019C00090958095709561957F4F8F4F9F4F99238C
:1019D000A9F0F92F96E9BB279395F695879577950A
:1019E0006795B795F111F8CFFAF4BB0F11F460FFCA
:1019F0001BC06F5F7F4F8F4F9F4F16C0882311F022
:101A000096E911C0772321F09EE8872F762F05C035
:101A1000662371F096E8862F70E060E02AF09A95D0
:101A2000660F771F881FDAF7880F9695879597F9C5
:101A30000895F7D080F09F3740F491110EF009C15E
:101A400060E070E080E89FEB089526F41B16611DAE
:101A5000711D811D79C093C0A3D018F011F0A7D0DB
:101A600038F49BC0F6C0E92FBAD0B0F35523C9F3C0
:101A7000E7FB6217730784079507A8F199F3E92F2D
:101A8000FF2788232AF03197660F771F881FDAF720
:101A9000952F5527442332F091505040220F331F89
:101AA000441FD2F7BB27E91BF50B621B730B840B9A
:101AB000B109C1F222F4620F731F841FB11D319767
:101AC0002AF0660F771F881FBB1FEFCF9150504041
:101AD0005AF041F0882332F0660F771F881F91502B
:101AE0005040C1F793954BC08695779567959F5F5A
:101AF000D9F7F8CF990F0008550FAA0BE0E8FEEFD1
:101B000016161706E807F907C0F012161306E407C1
:101B1000F50798F0621B730B840B950B39F40A26BA
:101B200061F0232B242B252B21F408950A2609F498
:101B3000A140A6958FEF811D811D089597F99F679C
:101B400080E870E060E00895882371F4772321F045
:101B50009850872B762F07C0662311F499270DC064
:101B60009051862B70E060E02AF09A95660F771FFF
:101B7000881FDAF7880F9695879597F908959F3F04
:101B800031F0915020F4879577956795B795880F38
:101B9000911D9695879597F908959FEF80EC08958C
:101BA00000240A941616170618060906089500243C
:101BB0000A9412161306140605060895092E0394B6
:101BC000000C11F4882352F0BB0F40F4BF2B11F42A
:101BD00060FF04C06F5F7F4F8F4F9F4F089557FD89
:101BE0009058440F551F59F05F3F71F04795880F8B
:101BF00097FB991F61F09F3F79F087950895121622
:101C000013061406551FF2CF4695F1DF08C01616CD
:101C100017061806991FF1CF86957105610508947E
:101C20000895E5DFA0F0BEE7B91788F4BB279F3819
:101C300060F41616B11D672F782F8827985FF7CFAD
:101C4000869577956795B11D93959639C8F3089554
:101C5000E894BB2766277727CB0197F908954ADFD9
:101C600008F48FEF08950BD0A9CF9ADF28F09FDFFB
:101C700018F0952309F062CF90CF1124EACFAFDF9F
:101C8000A0F3959FD1F3950F50E0551F629FF0018F
:101C9000729FBB27F00DB11D639FAA27F00DB11DE8
:101CA000AA1F649F6627B00DA11D661F829F222771
:101CB000B00DA11D621F739FB00DA11D621F839FF8
:101CC000A00D611D221F749F3327A00D611D231FCE
:101CD000849F600D211D822F762F6A2F11249F571C
:101CE00050408AF0E1F088234AF0EE0FFF1FBB1F3F
:101CF000661F771F881F91505040A9F79E3F5105DE
:101D000070F01CCFA6CF5F3FECF3983EDCF38695D6
:101D100077956795B795F795E7959F5FC1F7FE2B88
:101D2000880F911D9695879597F9089508958830A5
:101D300008F075C0E82FF0E0EE0FFF1FE455FD4FEF
:101D4000718360838150873008F03CC0E82FF0E059
:101D50008827E355F14F8F4FB3C7EA0EB40EBC0E80
:101D6000C80ED50EF60E030F809169008C7F482BAC
:101D700040936900E89A089580916900837F440F39
:101D8000551F440F551F482B40936900E99A089549
:101D9000809169008F7C74E0440F551F7A95E1F7BC
:101DA000482B40936900EA9A0895809169008F73E7
:101DB00066E0440F551F6A95E1F7482B4093690090
:101DC000EB9A089580916A008C7F482B40936A00BB
:101DD000EC9A089580916A00837F440F551F440F49
:101DE000551F482B40936A00ED9A089580916A0030
:101DF0008F7C24E0440F551F2A95E1F7482B409330
:101E00006A00EE9A089580916A008F7396E0440FFD
:101E1000551F9A95E1F7482B40936A00EF9A089571
:101E20001F920F920FB60F9211240BB60F922F93A1
:101E30003F934F935F936F937F938F939F93AF9352
:101E4000BF93EF93FF93E091B002F091B102199527
:101E5000FF91EF91BF91AF919F918F917F916F9182
:101E60005F914F913F912F910F900BBE0F900FBE3E
:101E70000F901F9018951F920F920FB60F9211247A
:101E80000BB60F922F933F934F935F936F937F9374
:101E90008F939F93AF93BF93EF93FF93E091B20221
:101EA000F091B3021995FF91EF91BF91AF919F917E
:101EB0008F917F916F915F914F913F912F910F90F3
:101EC0000BBE0F900FBE0F901F9018951F920F9290
:101ED0000FB60F9211240BB60F922F933F934F938F
:101EE0005F936F937F938F939F93AF93BF93EF9382
:101EF000FF93E091B402F091B5021995FF91EF9133
:101F0000BF91AF919F918F917F916F915F914F9111
:101F10003F912F910F900BBE0F900FBE0F901F900F
:101F200018951F920F920FB60F9211240BB60F92B5
:101F30002F933F934F935F936F937F938F939F93D1
:101F4000AF93BF93EF93FF93E091B602F091B70286
:101F50001995FF91EF91BF91AF919F918F917F91D3
:101F60006F915F914F913F912F910F900BBE0F900A
:101F70000FBE0F901F9018951F920F920FB60F92E1
:101F800011240BB60F922F933F934F935F936F9350
:101F90007F938F939F93AF93BF93EF93FF93E091C2
:101FA000AC02F091AD021995FF91EF91BF91AF9105
:101FB0009F918F917F916F915F914F913F912F9161
:101FC0000F900BBE0F900FBE0F901F9018951F9291
:101FD0000F920FB60F9211240BB60F922F933F93CF
:101FE0004F935F936F937F938F939F93AF93BF9321
:101FF000EF93FF93E091AE02F091AF021995FF913C
:10200000EF91BF91AF919F918F917F916F915F9170
:102010004F913F912F910F900BBE0F900FBE0F90DD
:102020001F9018951F920F920FB60F9211240BB6A6
:102030000F922F933F934F935F936F937F938F9361
:102040009F93AF93BF93EF93FF93E091B802F0910A
:10205000B9021995FF91EF91BF91AF919F918F9127
:102060007F916F915F914F913F912F910F900BBE98
:102070000F900FBE0F901F9018951F920F920FB6E2
:102080000F9211240BB60F922F933F934F935F93B0
:102090006F937F938F939F93AF93BF93EF93FF9330
:1020A000E091BA02F091BB021995FF91EF91BF91B7
:1020B000AF919F918F917F916F915F914F913F91E0
:1020C0002F910F900BBE0F900FBE0F901F90189581
:1020D0001F920F920FB60F9211242F933F938F935D
:1020E0009F93AF93BF9380910C0390910D03A091A8
:1020F0000E03B0910F0330910B0323E0230F2D3714
:1021000058F50196A11DB11D20930B0380930C037C
:1021100090930D03A0930E03B0930F0380911003CF
:1021200090911103A0911203B09113030196A11D88
:10213000B11D8093100390931103A0931203B093E9
:102140001303BF91AF919F918F913F912F910F906A
:102150000FBE0F901F90189526E8230F0296A11D21
:10216000B11DD2CF789484B5826084BD84B581607E
:1021700084BD85B5826085BD85B5816085BDEEE68F
:10218000F0E0808181608083E1E8F0E0108280816E
:1021900082608083808181608083E0E8F0E08081DC
:1021A00081608083E1EBF0E0808184608083E0EBFC
:1021B000F0E0808181608083E1E9F0E080818260ED
:1021C0008083808181608083E0E9F0E080818160AC
:1021D0008083E1EAF0E08081826080838081816099
:1021E0008083E0EAF0E0808181608083E1E2F1E0D9
:1021F000808182608083808181608083E0E2F1E081
:10220000808181608083EAE7F0E080818460808360
:10221000808182608083808181608083808180680A
:1022200080831092C10008951F93CF93DF93182FDE
:10223000EB0161E033D1209731F460E0812FDF9131
:10224000CF911F9167C1CF3FD10511F461E0F6CF67
:10225000E12FF0E0EC51FF4FE491E150E23108F062
:10226000B2C0F0E08827E95CFE4E8F4F29C54911C6
:102270005111561160116A11E31174117C1184110E
:102280008E119811A211B111BB11E311C511CF111B
:10229000D91184B5806884BDC7BDDF91CF911F91EE
:1022A000089584B5806284BDC8BDF7CF8091800059
:1022B000806880938000D0938900C0938800EDCF20
:1022C00080918000806280938000D0938B00C093C7
:1022D0008A00E3CF80918000886080938000D09353
:1022E0008D00C0938C00D9CF8091B000806880931E
:1022F000B000C093B300D1CF8091B00080628093D2
:10230000B000C093B400C9CF8091900080688093E2
:102310009000D0939900C0939800BFCF8091900017
:10232000806280939000D0939B00C0939A00B5CFB9
:1023300080919000886080939000D0939D00C0931E
:102340009C00ABCF8091A00080688093A00080911A
:10235000A0008F7B8093A000D093A900C093A80019
:102360009CCF8091A00080628093A000D093AB00AE
:10237000C093AA0092CF8091A00088608093A000B3
:10238000D093AD00C093AC0088CF809120018068CD
:1023900080932001D0932901C09328017ECF8091A2
:1023A0002001806280932001D0932B01C0932A01E9
:1023B00074CF80912001886080932001D0932D01FB
:1023C000C0932C016ACFC038D1050CF03FCF35CF78
:1023D0008150823108F059C0E82FF0E08827ED5095
:1023E000FE4E8F4F6DC41312171205120B120F12EF
:1023F00045121A12201224122A122E1232123812E8
:102400003C124512401246124A12809180008F778A
:10241000809380000895809180008F7DF9CF809116
:102420008000877FF5CF84B58F7784BD089584B50C
:102430008F7DFBCF8091B0008F778093B00008959F
:102440008091B0008F7DF9CF809190008F7780933D
:1024500090000895809190008F7DF9CF8091900039
:10246000877FF5CF8091A0008F778093A00008959B
:102470008091A0008F7DF9CF8091A000877FF5CF5C
:10248000809120018F778093200108958091200111
:102490008F7DF9CF80912001877FF5CFCF93DF9398
:1024A00090E0FC01E65DFE4F249180599E4FFC01B7
:1024B00084918823C9F090E0880F991FFC01E651B0
:1024C000FE4FA591B491FC01E053FE4FC591D4910C
:1024D00061110DC09FB7F8948C91209582238C9345
:1024E0008881282328839FBFDF91CF910895623090
:1024F00051F49FB7F8943C91822F809583238C935D
:10250000E8812E2BEFCF8FB7F894EC912E2B2C93E4
:102510008FBFEACF1F93CF93DF93282F30E0F901CD
:10252000EC51FF4F8491F901E65DFE4FD491F90122
:10253000E059FE4FC491CC23A1F0162F811148DF42
:10254000EC2FF0E0EE0FFF1FE053FE4FA591B4918A
:102550008FB7F894EC91111108C0D095DE23DC936D
:102560008FBFDF91CF911F910895DE2BF8CFFC0133
:10257000918D228D892F90E0805C9F4F821B910965
:102580008F7399270895FC01918D828D981731F0F2
:10259000828DE80FF11D858D90E008958FEF9FEFFC
:1025A0000895FC01918D828D981761F0A28DAE0F78
:1025B000BF2FB11D5D968C91928D9F5F9F73928FFF
:1025C00090E008958FEF9FEF0895FC01538D448DA7
:1025D000252F30E0842F90E0821B930B541710F0CE
:1025E000CF96089501970895FC01A48DA80FB92FE7
:1025F000B11DA35ABF4F2C91848D90E001968F732B
:102600009927848FA689B7892C93A089B1898C9149
:10261000837080648C93938D848D981306C0028898
:10262000F389E02D80818F7D80830895CF93DF93A0
:10263000EC01888D8823B1F0AA89BB89E889F989E2
:102640008C9185FD03C0808186FD0CC00FB607FC10
:10265000F7CF8C9185FFF2CF808185FFEDCFCE0142
:10266000C3DFEACFDF91CF910895EF92FF920F93EE
:102670001F93CF93DF93EC0181E0888F9B8D8C8D2E
:1026800098131AC0E889F989808185FF15C09FB722
:10269000F894EE89FF896083E889F98980818370E5
:1026A000806480839FBF81E090E0DF91CF911F9194
:1026B0000F91FF90EF900895F62E0B8D10E00F5FB5
:1026C0001F4F0F731127E02E8C8D8E110BC00FB68C
:1026D00007FCFACFE889F989808185FFF5CFCE0123
:1026E00083DFF2CFEB8DEC0FFD2FF11DE35AFF4F8F
:1026F000F0829FB7F8940B8FEA89FB898081806212
:10270000D0CFCF92DF92EF92FF921F93CF93DF93C0
:10271000EC016A017B01122FE889F98982E080834C
:10272000C11481EED806E104F10499F060E079E08B
:102730008DE390E0A7019601A1D221503109410912
:1027400051095695479537952795211580E138070A
:1027500090F0E889F989108260E874E88EE190E0F1
:10276000A70196018BD22150310941095109569593
:10277000479537952795EC85FD853083EE85FF8558
:102780002083188EEC89FD891083EA89FB8980817A
:1027900080618083EA89FB89808188608083EA89FF
:1027A000FB89808180688083EA89FB8980818F7DB5
:1027B0008083DF91CF911F91FF90EF90DF90CF90BA
:1027C00008951F920F920FB60F9211240BB60F921D
:1027D0002F938F939F93EF93FF93E0912403F091B6
:1027E00025038081E0912A03F0912B0382FD1DC017
:1027F000908180912D038F5F8F7320912E0382171C
:1028000041F0E0912D03F0E0EC5EFC4F958F80935A
:102810002D03FF91EF919F918F912F910F900BBE00
:102820000F900FBE0F901F9018958081F2CF1F92CE
:102830000F920FB60F9211240BB60F922F933F9366
:102840004F935F936F937F938F939F93AF93BF93B8
:10285000EF93FF9384E193E0C7DEFF91EF91BF9187
:10286000AF919F918F917F916F915F914F913F9128
:102870002F910F900BBE0F900FBE0F901F901895C9
:10288000E4E1F3E01382128288EE93E0A0E0B0E08E
:1028900084839583A683B78382EC92E091838083BF
:1028A00085EC90E09587848784EC90E09787868715
:1028B00080EC90E0918B808B81EC90E0938B828B0D
:1028C00082EC90E0958B848B86EC90E0978B868BE6
:1028D000118E128E138E148E08951F920F920FB6C2
:1028E0000F9211240BB60F922F938F939F93EF9318
:1028F000FF93E091C103F091C2038081E091C7038F
:10290000F091C80382FD1DC090818091CA038F5F42
:102910008F732091CB03821741F0E091CA03F0E05E
:10292000EF54FC4F958F8093CA03FF91EF919F91D5
:102930008F912F910F900BBE0F900FBE0F901F9095
:1029400018958081F2CF1F920F920FB60F9211242B
:102950000BB60F922F933F934F935F936F937F9399
:102960008F939F93AF93BF93EF93FF9381EB93E08C
:102970003BDEFF91EF91BF91AF919F918F917F913E
:102980006F915F914F913F912F910F900BBE0F90E0
:102990000FBE0F901F901895E1EBF3E013821282A7
:1029A00088EE93E0A0E0B0E084839583A683B783AC
:1029B00082EC92E0918380838DEC90E09587848710
:1029C0008CEC90E09787868788EC90E0918B808BE9
:1029D00089EC90E0938B828B8AEC90E0958B848BD2
:1029E0008EEC90E0978B868B118E128E138E148E48
:1029F00008951F920F920FB60F9211240BB60F92EB
:102A00002F938F939F93EF93FF93E0915E04F09148
:102A10005F048081E0916404F091650482FD1DC033
:102A20009081809167048F5F8F7320916804821773
:102A300041F0E0916704F0E0E25BFB4F958F8093FB
:102A40006704FF91EF919F918F912F910F900BBE93
:102A50000F900FBE0F901F9018958081F2CF1F929C
:102A60000F920FB60F9211240BB60F922F933F9334
:102A70004F935F936F937F938F939F93AF93BF9386
:102A8000EF93FF938EE494E0AFDDFF91EF91BF9160
:102A9000AF919F918F917F916F915F914F913F91F6
:102AA0002F910F900BBE0F900FBE0F901F90189597
:102AB000EEE4F4E01382128288EE93E0A0E0B0E04E
:102AC00084839583A683B78382EC92E0918380838D
:102AD00085ED90E09587848784ED90E097878687E1
:102AE00080ED90E0918B808B81ED90E0938B828BD9
:102AF00082ED90E0958B848B86ED90E0978B868BB2
:102B0000118E128E138E148E08951F920F920FB68F
:102B10000F9211240BB60F922F938F939F93EF93E5
:102B2000FF93E091FB04F091FC048081E0910105AA
:102B3000F091020582FD1DC09081809104058F5F98
:102B40008F7320910505821741F0E0910405F0E0B4
:102B5000E551FB4F958F80930405FF91EF919F9175
:102B60008F912F910F900BBE0F900FBE0F901F9063
:102B700018958081F2CF1F920F920FB60F921124F9
:102B80000BB60F922F933F934F935F936F937F9367
:102B90008F939F93AF93BF93EF93FF938BEE94E04C
:102BA00023DDFF91EF91BF91AF919F918F917F9125
:102BB0006F915F914F913F912F910F900BBE0F90AE
:102BC0000FBE0F901F901895EBEEF4E01382128267
:102BD00088EE93E0A0E0B0E084839583A683B7837A
:102BE00082EC92E09183808385E391E095878487EE
:102BF00084E391E09787868780E391E0918B808BD7
:102C000081E391E0938B828B82E391E0958B848BBF
:102C100086E391E0978B868B118E128E138E148E25
:102C20000895AF92BF92CF92DF92EF92FF920F93EF
:102C30001F93CF93DF936C017B018B01040F151F52
:102C4000EB015E01AE18BF08C017D10759F06991BA
:102C5000D601ED91FC910190F081E02DC60119950E
:102C6000892B79F7C501DF91CF911F910F91FF90CB
:102C7000EF90DF90CF90BF90AF900895A1E21A2E11
:102C8000AA1BBB1BFD010DC0AA1FBB1FEE1FFF1F10
:102C9000A217B307E407F50720F0A21BB30BE40B60
:102CA000F50B661F771F881F991F1A9469F76095A7
:102CB0007095809590959B01AC01BD01CF01089561
:102CC000EE0FFF1F881F8BBF0790F691E02D199420
:042CD000F894FFCFA6
:102CD40052D275407432764028317D3E00000000A7
:102CE400000000000000000000000000DB0FC9BF6E
:102CF40000007FC300007FC3F442BF40EF20A7431E
:102D04003C27A843DB0FC93F00007F4300007F43FB
:102D1400000080BF000080BF0000803F0000803FB3
:102D240014AEC7BD14AEC73D000000000AD7233C53
:102D3400DB0FC9400AD7233C00000000000000005C
:102D44000AD7233C0AD7233C0000003F421AA4C000
:102D54000000003F421AA4400000C8427593803F1F
:102D64000000803F8883954800000000FF000000B9
:102D7400000001FF000001FFFF000000960E960E08
:102D8400960E960E960E960E960E960E060300005E
:102D9400000035131116E5121613B712D112C3121F
:00000001FF
