:1000000014C100000C9485320C94B0320C94DB3295
:100010000C9406330C9431330C945C330C9487337A
:100020000C94B23333C1000031C100002FC1000075
:100030002DC100002BC1000029C1000027C1000014
:1000400025C1000023C1000021C100001FC1000024
:100050001DC100001BC1000019C100000C94DD335C
:1000600015C100000C94B1370C94E7370FC10000A4
:100070000DC100000BC1000009C1000007C1000054
:1000800005C1000003C1000001C10000FFC0000065
:100090000C943D380C947338F9C00000F7C0000090
:1000A000F5C00000F3C00000F1C00000EFC0000088
:1000B000EDC00000EBC00000E9C00000E7C0000098
:1000C000E5C00000E3C000000C94AD2D0C94C938CD
:1000D0000C94FF38DBC000000C9455390C948B391C
:1000E000D5C0000005A84CCDB2D44EB93836A9020F
:1000F0000C50B9918688083CA6AAAA2ABE00000026
:10010000803F00000A0B02090C0D0E0807030401D2
:1001100000000000000000000000000000000000DF
:1001200000000000000000000000000000001211AC
:1001300010000000000000000000000000000000AF
:10014000000000000000000001021020200808103C
:100150002040102040800201020108040201010237
:100160000408102040808040201008040201800410
:10017000020180402010080402010804020101026B
:10018000040810204080010204081020408005056A
:100190000505070508080808020202020A0A0808FD
:1001A000040404040101010101010101030303032B
:1001B00003030303040707070C0C0C0C0C0C0C0CBA
:1001C0000202020206060606060606060B0B0B0BCB
:1001D0000B0B0B0B000020002300260029002C0035
:1001E0002F00320000010000030106010901000098
:1001F0002200250028002B002E00310034000201CF
:100200000000050108010B01000021002400270067
:100210002A002D0030003300010100000401070115
:100220000A0110389C382839B43911241FBECFEF89
:10023000D1E2DEBFCDBF00E00CBF13E0A0E0B2E032
:10024000E0EFF4E700E00BBF02C007900D92A43787
:10025000B107D9F72CE0A4E7B3E001C01D92AA359D
:10026000B207E1F711E0C5E1D1E000E006C0219757
:100270000109802FFE010E94453AC131D10780E07B
:100280000807A9F70E94B52E0C94763AB9CEFC0166
:10029000A781B0858C9191858923A481B5819C919A
:1002A00040815181628173812681922359F08111AD
:1002B0000BC04F5F5F4F6F4F7F4F4083518362830F
:1002C000738308958111F5CF415051096109710976
:1002D000F4CF85E793E0DBCF80E893E0D8CF8BE8DD
:1002E00093E0D5CF86E993E0D2CFFC01A481B5811C
:1002F0008C9196818923A781B0859C914081518101
:10030000628173812185922359F0882359F04F5FD0
:100310005F4F6F4F7F4F4083518362837383089594
:100320008823A9F34150510961097109F4CF85E788
:1003300093E0DBCF80E893E0D8CF8BE893E0D5CF94
:1003400086E993E0D2CF0F931F93CF93DF93D82FFB
:10035000C62F8A01A09174038BE0A89FD0011124BD
:10036000AB58BC4F1D921D921D921C92139781E0B9
:100370001A968C931A978D2F90E0FC01E85BFE4F44
:10038000E4911696EC931697FC01E257FE4FE49128
:10039000F0E0EE0FFF1FEC52FE4F85919491159601
:1003A0009C938E931497862F90E0FC01E85BFE4FA0
:1003B000E4911996EC931997FC01E257FE4FE491F2
:1003C000F0E0EE0FFF1FEC52FE4F859194911896CE
:1003D0009C938E93179760E08D2F0E941E3660E0ED
:1003E0008C2F0E941E3680917403813009F43FC027
:1003F000A8F0823009F462C0833009F486C080918D
:10040000740391E0980F90937403F801808390E057
:1004100080E0DF91CF911F910F91089580E0D2305D
:1004200049F081E0D33031F08EEE8D0F8430D8F476
:1004300087E18D1B41E050E069E671E00E940B32DC
:1004400080E0C23049F081E0C33031F08EEE8C0F95
:10045000843058F487E18C1B41E050E067E971E09B
:100460000E940B32CCCF8FEFE5CF8FEFF5CF80E03E
:10047000D23049F081E0D33031F08EEE8D0F8430F0
:10048000C8F487E18D1B41E050E06CE671E00E940A
:100490000B3280E0C23049F081E0C33031F08EEEA3
:1004A0008C0F843048F487E18C1B41E050E06AE90E
:1004B00071E0D6CF8FEFE7CF8FEFF7CF80E0D2306C
:1004C00049F081E0D33031F08EEE8D0F8430C8F4E6
:1004D00087E18D1B41E050E06FE671E00E940B3236
:1004E00080E0C23049F081E0C33031F08EEE8C0FF5
:1004F000843048F487E18C1B41E050E06DE971E005
:10050000AFCF8FEFE7CF8FEFF7CF80E0D23049F05A
:1005100081E0D33031F08EEE8D0F8430C8F487E166
:100520008D1B41E050E062E771E00E940B3280E0F9
:10053000C23049F081E0C33031F08EEE8C0F843050
:1005400048F487E18C1B41E050E060EA71E088CF1D
:100550008FEFE7CF8FEFF7CF9BE0899FF00111245A
:10056000EB58FC4F80819181A281B381FB01808394
:100570009183A283B38390E080E008959BE0899FFC
:10058000F0011124EB58FC4F108211821282138269
:1005900090E080E0089590E080E00895CF92DF92AF
:1005A000EF92FF92CF93882351F16A017B01CFEF45
:1005B000C80F20E030E0A901CB01B6010E94A32FB3
:1005C00018168CF0C701B60190580E94AF2F9B01FE
:1005D000AC016C2F70E090E080E0CF91FF90EF9045
:1005E000DF90CF90B2C0C701B6010E94AA2F8C2F16
:1005F000CF91FF90EF90DF90CF900C94E434CF91A7
:10060000FF90EF90DF90CF9008950F931F938B0191
:100610009C0183E036952795179507958A95D1F724
:100620000F551C4F462F477021E030E0F90102C002
:10063000EE0FFF1F4A95E2F7AF01F8012081242356
:10064000CB010196211102C090E080E01F910F9133
:1006500008950F931F938B019C0183E03695279596
:10066000179507958A95D1F7677081E090E001C0F2
:10067000880F6A95EAF7F801EF55FC4F2081452B6A
:1006800031F48095822380831F910F910895822BEE
:10069000FACF2F923F924F925F926F927F928F92FA
:1006A0009F92AF92BF92CF92DF92EF92FF920F9301
:1006B0001F93CF93DF93D62EC72E782E692E490134
:1006C0005A01280161E08D2D0E941E36CD2DDC2DB2
:1006D0008E010F5F1F4FA8016D2D7C2D872D962D4C
:1006E000B8DF20E030E0A901C201B7010E94673104
:1006F000181664F4C201B7010E94AF2F2B01C50187
:10070000B4010E94AF2FA201CE0123D0C801DF9116
:10071000CF911F910F91FF90EF90DF90CF90BF90FE
:10072000AF909F908F907F906F905F904F903F9091
:100730002F900895882341F08150682F70E090E059
:1007400080E050E040E085CF0895862FB9010C94F9
:10075000E4349C01FC01EE5FFE4FE491E150E23194
:10076000E0F4F0E08827E854FC4F8F4F0C94453AB2
:10077000CA03D103D403EB030004CD031504210401
:1007800025043C04510466047D049204CD03A704AF
:10079000BE04D30484B5806884BD60E0822F0C94CD
:1007A0005A3684B58062F8CF809180008C7F826059
:1007B0008093800080918100807E8061682B6093AF
:1007C000810050938700409386008091800080686C
:1007D00080938000E2CF809180008C7F8260809344
:1007E000800080918100807E8061682B6093810011
:1007F0005093870040938600809180008062E8CF0C
:10080000809180008C7F8260809380008091810045
:10081000807E8061682B60938100509387004093B5
:100820008600809180008860D3CF8091B00080687E
:100830008093B0008091B100887F682B6093B100F5
:10084000ACCF8091B0008062F3CF809190008C7F1C
:1008500082608093900080919100807E8061682BFF
:100860006093910050939700409396008091900080
:1008700080688093900091CF809190008C7F8260FF
:100880008093900080919100807E8061682B6093BE
:100890009100509397004093960080919000806261
:1008A000E8CF809190008C7F82608093900080914F
:1008B0009100807E8061682B609391005093970037
:1008C00040939600809190008860D3CF8091A000E3
:1008D0008C7F82608093A0008091A100807E8061E7
:1008E000682B6093A1005093A7004093A6008091CD
:1008F000A00080688093A00050CF8091A0008C7FE2
:1009000082608093A0008091A100807E8061682B2E
:100910006093A1005093A7004093A6008091A0008F
:100920008062E8CF8091A0008C7F82608093A000DD
:100930008091A100807E8061682B6093A10050931C
:10094000A7004093A6008091A0008860D3CF80913B
:1009500020018C7F82608093200180912101807E24
:100960008061682B609321015093270140932601F9
:10097000809120018068809320010FCF8091200119
:100980008C7F82608093200180912101807E806134
:10099000682B609321015093270140932601809199
:1009A00020018062E8CF809120018C7F826080935B
:1009B000200180912101807E8061682B609321015C
:1009C0005093270140932601809120018860D3CF66
:1009D000611102C00C941E366130E1F362E0FACF7F
:1009E000662319F061E00C945A3660E0FCCF90E089
:1009F00080E008950F931F93009709F489C0611553
:100A0000710509F485C00091A8021091A9022091F6
:100A1000AA023091AB020E3F1F4F2F4F3F4F09F0FC
:100A200068C04FEF5FEFBA014093A8025093A9024C
:100A30006093AA027093AB024091A8025091A90260
:100A40006091AA027091AB02DC011296ED91FC91CB
:100A500080819181A281B3818093200490932104AD
:100A6000A0932204B093230484819581A681B78149
:100A700080931C0490931D04A0931E04B0931F0444
:100A800080859185A285B38580931804909319047D
:100A9000A0931A04B0931B0484859585A685B78519
:100AA0008093140490931504A0931604B093170434
:100AB0001092100410921104109212041092130458
:100AC0000E94931188EB91E19093AB038093AA036A
:100AD0009093AD038093AC030E948210009731F491
:100AE00021E030E030932504209324041F910F91DE
:100AF00008950091A8021091A9022091AA023091B4
:100B0000AB02DB010D931D932D933C93139794CF70
:100B10008FEF9FEFEBCF8F929F92AF92BF92CF92CA
:100B2000DF92EF92FF921F93CF93DF934B015C0113
:100B30001091270482E090E0909325048093240490
:100B400081149104A104B10441F48091270481111E
:100B500004C080912604C1E08111C0E0C12CD12CD9
:100B6000760180912704811106C0809126048111AD
:100B700002C0CC23D9F083E090E0909325048093C9
:100B80002404CC2381F1CCE9DFEF111102C00E94D3
:100B90001C15CE01DF91CF911F91FF90EF90DF9058
:100BA000CF90BF90AF909F908F9008956AE070E0D3
:100BB00080E090E00E944C3480E1C80E87E2D81EAD
:100BC000E11CF11C8FEF88169806A806B80631F0D4
:100BD000C1E08C149D04AE04BF0408F0C0E080E0C6
:100BE0000E94B610BECFD0E0C0E0CFCFCF92DF9250
:100BF000EF92FF920F931F93CF93DF938F3F910557
:100C000011F008F051C020912404309125042330C4
:100C1000310539F02091240430912504213031052B
:100C200031F424E030E030932504209324046A0159
:100C30007B01EC0182309105A8F011E0AE01C70103
:100C4000B6010E948110AB01BC01CE011123F9F065
:100C5000DF91CF911F910F91FF90EF90DF90CF9098
:100C60000C9445178C01000F111F06551C4FD8011D
:100C70008D919C91892B09F30E944F170297E9F6F9
:100C8000D801ED91FC91CE011995182FD7CF0E9474
:100C9000671790E080E0DF91CF911F910F91FF9057
:100CA000EF90DF90CF9008958FEF9FEFF4CF80E02B
:100CB0000C94B610CF93DF9386E090E090932504D8
:100CC000809324040E940F11EC01EAEAF3E084E02F
:100CD000DF011D928A95E9F70E94B4141092250451
:100CE00010922404CE01DF91CF91089580912604C3
:100CF000089580910F0408956093A8027093A9024B
:100D00008093AA029093AB0290E080E008954F9206
:100D10005F926F927F928F929F92AF92BF92CF928B
:100D2000DF92EF92FF92CF93DF93CDB7DEB76C9750
:100D30000FB6F894DEBF0FBECDBF2091160C3091D8
:100D4000170C4091180C5091190C6091540270913D
:100D5000550280915602909157020E943E2F209199
:100D600020023091210240912202509123020E94E0
:100D70006B314B015C01C0902C02D0902D02E090B1
:100D80002E02F0902F029B01AC01B601C7010E9418
:100D9000A32F87FD12C0C0901402D0901502E090DE
:100DA0001602F09017029401A501B601C7010E9436
:100DB0006731181614F0640175014090500250908C
:100DC0005102609052027090530220914002309183
:100DD00041024091420250914302C301B2010E947C
:100DE0006B314B015C0120914802309149024091E6
:100DF0004A0250914B02B601C7010E946B319B0120
:100E0000AC01C501B4010E943F2F4B015C018092EF
:100E10006A0B90926B0BA0926C0BB0926D0B2091B1
:100E20004402309145024091460250914702C3016D
:100E3000B2010E946B312B013C0120914C02309198
:100E40004D0240914E0250914F02B601C7010E94DF
:100E50006B319B01AC01C301B2010E943F2F2B01FA
:100E60003C0140926E0B50926F0B6092700B70922F
:100E7000710B2091360C3091370C4091380C509109
:100E8000390C2093720B3093730B4093740B509377
:100E9000750BC501B4010E943E2F6B017C01C0920D
:100EA0007A0BD0927B0BE0927C0BF0927D0B209121
:100EB0003A0C30913B0C40913C0C50913D0C2093EE
:100EC000760B3093770B4093780B5093790BC301DB
:100ED000B2010E943E2F4B015C0180927E0B9092EA
:100EE0007F0BA092800BB092810B20912402309155
:100EF00025024091260250912702C701B6010E94A7
:100F00006B3120911A0C30911B0C40911C0C5091AC
:100F10001D0C0E943F2F6B017C01C092820BD0926E
:100F2000830BE092840BF092850B4090300250903E
:100F300031026090320270903302A30192010E944C
:100F4000673118164CF44092820B5092830B6092DA
:100F5000840B7092850B10C04090180250901902BB
:100F600060901A0270901B02A3019201C701B601A2
:100F70000E94A32F87FDE7CF2091280230912902FC
:100F800040912A0250912B02C501B4010E946B319D
:100F900020911E0C30911F0C4091200C5091210C7F
:100FA0000E943F2F6B017C01C092860BD092870B71
:100FB000E092880BF092890B809034029090350279
:100FC000A0903602B0903702A50194010E946731CB
:100FD00018164CF48092860B9092870BA092880B87
:100FE000B092890B10C080901C0290901D02A090BE
:100FF0001E02B0901F02A5019401C701B6010E9414
:10100000A32F87FDE7CF6091820B7091830B8091B6
:10101000840B9091850B60938A0B70938B0B80935C
:101020008C0B90938D0BC090860BD090870BE0902B
:10103000880BF090890BC0928E0BD0928F0BE092B0
:10104000900BF092910B0E9418306B017C0157D7E6
:10105000811112C4C701B6010DD781110DC420E062
:1010600030E040E857E4C701B6010E9432306B011E
:101070007C0120E030E0A9010E94A32F87FFFFC37D
:10108000C701B60190580E94AF2FCC24DD24C61AA8
:10109000D70A60918E0B70918F0B8091900B90917D
:1010A000910B0E9418304B015C0129D78111EDC3CF
:1010B000C501B401DFD68111E8C320E030E040E88B
:1010C00057E4C501B4010E9432304B015C0120E0BD
:1010D00030E0A9010E94A32F87FFDAC3C501B40144
:1010E00090580E94AF2FEE24FF24E61AF70A6CE016
:1010F00070E080E090E089DA5C019093050C8093C9
:10110000040C60919802709199026E157F0544F06D
:1011100060919A0270919B026E157F050CF4B701E5
:1011200077FF02C070E060E06F3F710519F014F0C6
:101130006FEF70E0072E000C880B990B0E94DD2FDB
:10114000AB01BC01C5012ADA69E070E080E090E003
:101150005CDA5C019093FD0B8093FC0B60919C0228
:1011600070919D026C157D0544F060919E02709116
:101170009F026C157D050CF4B60177FF03C07195D5
:10118000619571096F3F710519F014F06FEF70E010
:10119000072E000C880B990B0E94DD2FAB01BC01C0
:1011A000C501FCD96BE070E080E090E02EDA5C01D4
:1011B0009093F50B8093F40B6091A0027091A102C3
:1011C0006E157F0544F06091A2027091A3026E1526
:1011D0007F050CF4B70177FF03C071956195710924
:1011E0006F3F710519F014F06FEF70E0072E000CDF
:1011F000880B990B0E94DD2FAB01BC01C501CED934
:101200006AE070E080E090E000DA5C019093ED0B22
:101210008093EC0B6091A4027091A5026C157D0582
:1012200044F06091A6027091A7026C157D050CF444
:10123000B60177FF02C070E060E06F3F710519F002
:1012400014F06FEF70E0072E000C880B990B0E94D2
:10125000DD2FAB01BC01C501A1D961E080919402F1
:10126000909195028C159D0509F460E088E0B8DB4B
:1012700061E080919602909197028E159F0509F486
:1012800060E08DE0ADDB8091220C9091230CA09169
:10129000240CB091250C8093920B9093930BA09308
:1012A000940BB093950B8091260C9091270CA091F4
:1012B000280CB091290C8093960B9093970BA093D8
:1012C000980BB093990B80912A0C90912B0CA091C4
:1012D0002C0CB0912D0C80939A0B90939B0BA093A8
:1012E0009C0BB0939D0BC0903802D0903902E090D7
:1012F0003A02F0903B02A70196016091E10B7091D8
:10130000E20B8091E30B9091E40B0E94A32F8823C2
:1013100041F0C092E10BD092E20BE092E30BF0922D
:10132000E40B8091E00B81111092E00B6AEC7BE002
:101330008091E50B11D9C0903C02D0903D02E09025
:101340003E02F0903F02A70196016091D50B70918B
:10135000D60B8091D70B9091D80B0E94A32F882396
:1013600041F0C092D50BD092D60BE092D70BF09201
:10137000D80B8091D40B81111092D40B66EC7BE0DA
:101380008091D90BE9D8C090CA0BD090CB0BE090DC
:10139000CC0BF090CD0BC092BE0BD092BF0BE09265
:1013A000C00BF092C10B4090C60B5090C70B6090E1
:1013B000C80B7090C90B4092C20B5092C30B609245
:1013C000C40B7092C50B6091900270919102809154
:1013D0009202909193020E94DD2F20E030E040E0E5
:1013E0005AE20E946B314B015C01C701B6010E94B9
:1013F000DD2FA50194010E946B319B01AC0120936C
:101400009E0B30939F0B4093A00B5093A10BC09069
:101410008402D0908502E0908602F0908702C70196
:10142000B6010E946B316D877E878F87988B2091E4
:101430002E0C30912F0C4091300C5091310C0E94A9
:101440003E2F6093A60B7093A70B8093A80B9093ED
:10145000A90B209188023091890240918A02509113
:101460008B020E946B3169837A838B839C836093A8
:10147000AE0B7093AF0B8093B00B9093B10BC30185
:10148000B2010E94DD2FA50194010E946B319B01E6
:10149000AC012093A20B3093A30B4093A40B509369
:1014A000A50BC701B6010E946B31698B7A8B8B8BC0
:1014B0009C8B2091320C3091330C4091340C509124
:1014C000350C0E943E2F6093AA0B7093AB0B809358
:1014D000AC0B9093AD0B20918C0230918D0240911A
:1014E0008E0250918F020E946B312B013C01409281
:1014F000B20B5092B30B6092B40B7092B50B20916B
:101500006C0230916D0240916E0250916F026981C0
:101510007A818B819C810E946B316B017C012091CF
:101520007402309175024091760250917702C301A6
:10153000B2010E946B319B01AC01C701B6010E9450
:101540003F2F4B015C018092B60B9092B70BA0929B
:10155000B80BB092B90B209170023091710240919A
:1015600072025091730269817A818B819C810E9401
:101570006B316B017C0120917802309179024091AE
:101580007A0250917B02C301B2010E946B319B0130
:10159000AC01C701B6010E943F2F6D837E838F830C
:1015A00098876093BA0B7093BB0B8093BC0B90939E
:1015B000BD0B209158023091590240915A0250912E
:1015C0005B020E946B312091160C3091170C4091F8
:1015D000180C5091190C0E943F2F6093160C7093B9
:1015E000170C8093180C9093190C20917A0B309162
:1015F0007B0B40917C0B50917D0B609104027091AC
:10160000050280910602909107020E946B312091A1
:1016100064023091650240916602509167020E9417
:101620006B3120911A0C30911B0C40911C0C509185
:101630001D0C0E943F2F60931A0C70931B0C80931B
:101640001C0C90931D0C20917E0B30917F0B4091D0
:10165000800B5091810B609100027091010280918A
:101660000202909103020E946B3120916802309136
:10167000690240916A0250916B020E946B31209185
:101680001E0C30911F0C4091200C5091210C0E9497
:101690003F2F60931E0C70931F0C8093200C90932F
:1016A000210C8091260C9091270CA091280CB091D0
:1016B000290C8D8B9E8BAF8BB88F80912A0C9091CB
:1016C0002B0CA0912C0CB0912D0C898F9A8FAB8F85
:1016D000BC8F80919A0B90919B0BA0919C0BB09129
:1016E0009D0B89879A87AB87BC87BC01CD010E947F
:1016F000A72F9B01AC01C0907C02D0907D02E090AE
:101700007E02F0907F02C501B4010E946B31A701F7
:1017100096010E946B312091220C3091230C409154
:10172000240C5091250C0E943F2F6093220C709343
:10173000230C8093240C9093250C69857A858B85E6
:101740009C850E94CE319B01AC01C501B4010E9471
:101750006B31A70196010E946B312D893E894F891B
:10176000588D0E943F2F6093260C7093270C809316
:10177000280C9093290CA70196016D817E818F81A1
:1017800098850E946B31298D3A8D4B8D5C8D0E941E
:101790003F2F60932A0C70932B0C80932C0C90930A
:1017A0002D0C89819A81AB81BC818093360C9093FA
:1017B000370CA093380CB093390C8D859E85AF857E
:1017C000B88980932E0C90932F0CA093300CB0937B
:1017D000310C40923A0C50923B0C60923C0C70924F
:1017E0003D0C89899A89AB89BC898093320C90938E
:1017F000330CA093340CB093350C6091E6037091D8
:10180000E7038091E8039091E9036F5F7F4F8F4F6B
:101810009F4F6093E6037093E7038093E8039093F0
:10182000E9030E94DB2F9B01AC016091EA037091F8
:10183000EB038091EC039091ED030E946B31609378
:10184000E2037093E3038093E4039093E5036C96C3
:101850000FB6F894DEBF0FBECDBFDF91CF91FF90E2
:10186000EF90DF90CF90BF90AF909F908F907F9040
:101870006F905F904F900895C12CD12C7601C701D5
:10188000B6010E94AF2F6B0104CC812C912C540126
:10189000C501B4010E94AF2F7B0129CC4F925F920A
:1018A0006F927F92AF92BF92DF92EF92FF920F936F
:1018B0001F93CF93DF9384E090E0A5D2ECECF3E0AC
:1018C00080E090E0A0E2B1E482A393A3A4A3B5A337
:1018D0008AE097EDA3E2BCE3868F978FA0A3B1A324
:1018E00083EA99E8ABE4B0E184839583A683B78368
:1018F0008AE699E6A1ECB3E280879187A287B38755
:101900008BEC97EAA3E9B9E184879587A687B78727
:101910008DEF90EBABE7BCE6808B918BA28BB38B0A
:10192000A0ECB3E0B383A283EEEAF3E01196FC935C
:10193000EE9381EE92E091838083938382839583FB
:10194000848397838683918780879387828795870F
:10195000848797878687918B808B80EE93E015969E
:101960009C938E93149780ED93E013969C938E93A3
:10197000129782EE93E017969C938E931697CEEC77
:10198000DBE080E0A82E82E0B82E80915C0290918E
:101990005D02A0915E02B0915F028093160C90935D
:1019A000170CA093180CB093190C809160029091C1
:1019B0006102A0916202B09163028093360C909311
:1019C000370CA093380CB093390C80933A0C909359
:1019D0003B0CA0933C0CB0933D0CF50184859585A0
:1019E000A685B78580931A0C90931B0CA0931C0CB2
:1019F000B0931D0C80899189A289B38980931E0CB4
:101A000090931F0CA093200CB093210C8091800226
:101A100090918102A0918202B09183028093220C66
:101A20009093230CA093240CB093250C8093260C48
:101A30009093270CA093280CB093290C80932A0C28
:101A400090932B0CA0932C0CB0932D0C808591853A
:101A5000A285B38580932E0C90932F0CA093300C0D
:101A6000B093310C8093320C9093330CA093340CD0
:101A7000B093350C18AA412C512C3201439449AA39
:101A80005AAA6BAA7CAAE12CF12C8701A801970124
:101A90006CE070E080E090E00E9449039FAB8EAB69
:101AA000DD24D394DDAA18A649A65AA66BA67CA667
:101AB000A801970169E070E080E090E00E9449038E
:101AC0009FA78EA7DDA618A249A25AA26BA27CA24C
:101AD000A80197016BE070E080E090E00E9449036C
:101AE0009FA38EA3DDA2188E498E5A8E6B8E7C8E9C
:101AF000A80197016AE070E080E090E00E9449034D
:101B00009F8F8E8FDD8E10920E0C40920F0C509294
:101B1000100C6092110C7092120C61E088E00E942F
:101B2000E804D092130C18AE49AE5AAE6BAE7CAE40
:101B300061E08DE00E94E804DDAE1F8A1C86F5019D
:101B400080AD91ADA2ADB3AD8B8B9C8BAD8BBE8BBD
:101B50004D865E866F86788A45EE5BE063E182E1C2
:101B60000E94A301D98A1A8A8F890E94BE021B860D
:101B70001882F50184AD95ADA6ADB7AD8F8398877A
:101B8000A987BA8749825A826B827C8249ED5BE0E1
:101B900063E082E00E94A301DD821E828B85DF91DB
:101BA000CF911F910F91FF90EF90DF90BF90AF907A
:101BB0007F906F905F904F900C94BE028091FE0BCF
:101BC00081112EC081E08093FE0B8091FF0B9091DC
:101BD000000CA091010CB091020C0197A105B10578
:101BE000F9F48091030C8823D9F06CE070E080E078
:101BF00090E00E9405039093050C8093040C40E054
:101C000050E0BA010E94CE026CE070E080E090E00B
:101C10000E9405039093050C8093040C0E949A0384
:101C20008091F60B81112EC081E08093F60B80919C
:101C3000F70B9091F80BA091F90BB091FA0B01976B
:101C4000A105B105F9F48091FB0B8823D9F069E077
:101C500070E080E090E00E9405039093FD0B80937C
:101C6000FC0B40E050E0BA010E94CE0269E070E057
:101C700080E090E00E9405039093FD0B8093FC0BA5
:101C80000E949A038091EE0B81112EC081E0809317
:101C9000EE0B8091EF0B9091F00BA091F10BB091B6
:101CA000F20B0197A105B105F9F48091F30B88239C
:101CB000D9F06BE070E080E090E00E940503909323
:101CC000F50B8093F40B40E050E0BA010E94CE0285
:101CD0006BE070E080E090E00E9405039093F50BCC
:101CE0008093F40B0E949A038091E60B81112EC021
:101CF00081E08093E60B8091E70B9091E80BA09137
:101D0000E90BB091EA0B0197A105B105F9F48091B7
:101D1000EB0B8823D9F06AE070E080E090E00E944D
:101D200005039093ED0B8093EC0B40E050E0BA017B
:101D30000E94CE026AE070E080E090E00E9405031D
:101D40009093ED0B8093EC0B0E949A0380910E0C04
:101D5000811103C081E080930E0C8091060C8111EB
:101D600003C081E08093060C8091DA0B811114C0CE
:101D700081E08093DA0B8091DB0B9091DC0BA091DA
:101D8000DD0BB091DE0B0197A105B10529F480911F
:101D9000DF0B81110E94CB028091CE0B811114C008
:101DA00081E08093CE0B8091CF0B9091D00BA091CE
:101DB000D10BB091D20B0197A105B10529F4809107
:101DC000D30B81110C94CB02089560E070E080E8A1
:101DD0009FE7089560E070E080E89FE7089560E085
:101DE00070E080E89FEF089560E070E080E89FEF8A
:101DF000089560E070E080EC9FEF089560E070E08F
:101E000080EC9FEF0895F5DF60934C0C70934D0CC0
:101E100080934E0C90934F0CF1DF6093400C7093C5
:101E2000410C8093420C9093430CCFDF6093480C9D
:101E30007093490C80934A0C90934B0CCBDF6093CA
:101E4000440C7093450C8093460C9093470CC7DF6D
:101E50006093500C7093510C8093520C9093530CE0
:101E6000C3DF6093540C7093550C8093560C909381
:101E7000570C0895CF92DF92EF92FF92CF936B01B0
:101E80007C01AC019B016091480C7091490C8091E0
:101E90004A0C90914B0C0E94A32FC1E0882371F053
:101EA000A70196016091500C7091510C8091520CD9
:101EB0009091530C0E94A32F8111C0E08C2FCF91E1
:101EC000FF90EF90DF90CF9008950F931F938B01B9
:101ED0009C010027112720783F7701151105204824
:101EE0003F4749F4AB01BC016F77772781E0452B71
:101EF000462B472B09F480E01F910F910895E5CF01
:101F00004F925F926F927F928F929F92AF92BF9209
:101F1000CF92DF92EF92FF920F931F93F89440902D
:101F2000FF03509000046090010470900204C09080
:101F3000F303D090F403E090F503F090F603452B03
:101F400009F0A4C09B01AC012419350946095709C1
:101F500029013A010091FB031091FC032091FD033C
:101F60003091FE0348015901840C951CA61CB71C36
:101F700080169106A206B306A0F40091F703109113
:101F8000F8032091F9033091FA030F5F1F4F2F4F91
:101F90003F4F0093F7031093F8032093F903309316
:101FA000FA038092FB039092FC03A092FD03B0928F
:101FB000FE030091F7031091F8032091F90330918B
:101FC000FA038092030490920404A0920504B09254
:101FD0000604009307041093080420930904309327
:101FE0000A046093FF0370930004809301049093AC
:101FF0000204A0E1B7E2A30192010E944D3A6C0DE8
:102000007D1D8E1D9F1D6093F3037093F4038093D9
:10201000F5039093F6030091A8021091A902209174
:10202000AA023091AB020F3F1F4F2F4F3F4FF1F0ED
:102030000091A8021091A9022091AA023091AB024E
:102040000E3F1F4F2F4F3F4F89F0C090A802D090F6
:10205000A902E090AA02F090AB0221E08C149D044A
:10206000AE04BF0408F420E020930F0478941F917D
:102070000F91FF90EF90DF90CF90BF90AF909F9027
:102080008F907F906F905F904F9008954B015C010F
:1020900084189508A608B708A3019201261B370BE0
:1020A000480B590B6415750586059705D0F0821607
:1020B0009306A406B50640F420E030E0A90181149F
:1020C0009104A104B10491F4A0E1B7E20E944D3A59
:1020D000A7019601261B370B480B590BCA01B90102
:1020E000C5CF82169306A406B50670F7A0E1B7E245
:1020F000A50194010E944D3A6C0D7D1D8E1D9F1D02
:10210000B5CFFECECF93DF9300D01F92CDB7DEB711
:102110001C821B821A82198210920B0410920C04EA
:1021200010920D0410920E04BE016F5F7F4FCE011E
:1021300003960E947D2D69817A818B819C810E940A
:102140006B26009761F4BE016F5F7F4FCE0103964F
:102150000E94892D69817A818B819C812ED50F9077
:102160000F900F900F90DF91CF910895FF920F93F2
:102170001F93CF93DF93082F60E070E0CB010E94A4
:102180004C34FF24F3940E945425EC01892B89F0F0
:1021900010E0CE3F8FEFD80769F0002361F160E0D7
:1021A00070E0CB010E944C3481E090E0892B59F320
:1021B00022C011E025D5EC01892B21F0CE3F8FEF15
:1021C000D80759F711111EC011E0229609F410E04A
:1021D0000E940425EC01892B21F0CE3F8FEFD80718
:1021E000E1F6111111C011E0CE3F8FEFD80709F4CD
:1021F00010E001110BC0CE01DF91CF911F910F9123
:10220000FF90089511E0E4CF11E0F3CF60E070E0BB
:10221000CB010E944C341F25812F90E0C7CFCF9374
:10222000DF9380910F04882321F060E070E0CB0100
:102230004CD635D6D0E0C0E0892B71F06AE070E072
:1022400080E090E00E944C3481E090DF28D6219617
:10225000C03D27E0D20781F727D60E94BF26109203
:102260002704109226041092200410922104109248
:1022700022041092230410921C0410921D04109248
:102280001E0410921F041092180410921904109248
:102290001A0410921B041092140410921504109248
:1022A0001604109217041092100410921104109248
:1022B0001204109213044EEF5FEF6FEF7FEF409325
:1022C000A8025093A9026093AA027093AB021092E5
:1022D0000F04E3E0F4E028E0DF011D922A95E9F71E
:1022E0001092FF0310920004109201041092020455
:1022F0001092FB031092FC031092FD031092FE0358
:102300001092F7031092F8031092F9031092FA0357
:102310001092F3031092F4031092F5031092F60357
:10232000DF91CF91089510923304109234041092EB
:102330003504109236041092320480913B0490913F
:102340003C04909331048093300410922F04109237
:102350002E0410922A0410922B0410922C04109236
:102360002D04109238041092370490E080E0089514
:10237000CF92DF92EF92FF920F931F93CF938C0136
:10238000892B09F055C020913B0430913C04809189
:1023900030049091310440913B0450913C0450939F
:1023A0003104409330042817390781F010922F042C
:1023B00010922E0410922A0410922B0410922C04D6
:1023C00010922D04109238041092370480913B042F
:1023D00090913C04019761F5809137049091380405
:1023E000892B21F48091AC02811112C080913704B5
:1023F000909138040197E1F480912A0490912B0484
:10240000A0912C04B0912D040197A105B10581F490
:1024100010922A0410922B0410922C0410922D0476
:102420001092AC0282E090E09093380480933704DD
:1024300080913B0490913C04019709F01CC180916C
:102440005104909152048017910709F014C18091B2
:102450004D0490914E04A0914F04B0915004009708
:1024600009F409C120914C0421110DC040914D0483
:1024700050914E0460914F0470915004452B462BAF
:10248000472B09F4F8C020913704309138042230EA
:10249000310509F0F0C020912E042111ECC0FC019F
:1024A000C080D180E280F38080913204882309F4D7
:1024B000D3C080913E0490913F04892B09F4FDC064
:1024C00020913E0430913F0481E02230310509F033
:1024D00080E020913E0430913F04C1E0213031057D
:1024E00049F020913E0430913F04C1E02230310593
:1024F00009F0C0E0882309F456C0209148043091C7
:10250000490440914A0450914B04C701B6010E940E
:10251000673187FD14C020914804309149044091EF
:102520004A0450914B0460913304709134048091BB
:102530003504909136040E94A32F87FD22C020917C
:1025400048043091490440914A0450914B04C7011A
:10255000B6010E946731181634F520914804309175
:10256000490440914A0450914B04609133047091A6
:10257000340480913504909136040E94A32F811178
:1025800012C08091400490914104A0914204B09106
:102590004304892B8A2B8B2B19F481E080932F0421
:1025A00081E080932E04CC2309F456C02091480486
:1025B0003091490440914A0450914B04C701B6013F
:1025C0000E94A32F87FF14C0209148043091490432
:1025D00040914A0450914B0460913304709134044B
:1025E00080913504909136040E94673187FF22C0A4
:1025F000209148043091490440914A0450914B0481
:10260000C701B6010E94A32F811126C02091480462
:102610003091490440914A0450914B046091330435
:102620007091340480913504909136040E94673192
:10263000181694F48091400490914104A0914204B2
:10264000B0914304892B8A2B8B2B19F481E0809362
:102650002F0481E080932E0481E090912E0491114B
:1026600080E080933204C0923304D0923404E0922C
:102670003504F0923604012B09F067C180913704CC
:1026800090913804892BD9F410923D0410922E04B5
:102690008091AC02882379F082E090E09093380436
:1026A000809337041092AC0220913B0430913C049B
:1026B00081E0232BE9F080E01BC081E00ACF10927B
:1026C000AC0280913D04882349F010922F041092AF
:1026D00038041092370410923D04EDCF80913B04F2
:1026E00090913C04892BE1F080912E0410922E04ED
:1026F00020913704309138042230310509F45EC04E
:1027000088F42115310509F448C02130310509F458
:10271000F3C010922F0410922E0410923D0438C082
:1027200081E0E6CF2330310509F4B1C02430310512
:1027300081F740912A0450912B0460912C047091F0
:102740002D04411551056105710561F04150510994
:102750006109710940932A0450932B0460932C045F
:1027600070932D0440912A0450912B0460912C0405
:1027700070912D04452B462B472BD9F42091390419
:1027800030913A042130310509F046C010922F04EF
:1027900010923804109237040CC08091AC02882348
:1027A00041F082E090E090933804809337041092D7
:1027B000AC021092280480912F04CEC08823C9F364
:1027C0008091400490914104A0914204B09143044F
:1027D000181619061A061B060CF07DC080913B04E2
:1027E00090913C04019709F076C08091400490914B
:1027F0004104A0914204B091430480932A04909331
:102800002B04A0932C04B0932D0483E090E09093CC
:10281000380480933704CDCF40914404509145044F
:102820006091460470914704452B462B472BA9F035
:1028300010922F048091440490914504A091460485
:10284000B091470480932A0490932B04A0932C0406
:10285000B0932D0481E090E0DACF882399F0809145
:10286000AD029091AE02A091AF02B091B002809300
:102870002A0490932B04A0932C04B0932D0484E09D
:1028800090E0C5CF10922F0482E090E0C0CF8091FD
:102890002A0490912B04A0912C04B0912D04009750
:1028A000A105B10559F00197A109B10980932A0446
:1028B00090932B04A0932C04B0932D0480912A04B0
:1028C00090912B04A0912C04B0912D04892B8A2B7C
:1028D0008B2B09F06ECF8091AD029091AE02A0914A
:1028E000AF02B091B002892B8A2B8B2B09F44ECF0B
:1028F00081E080932F04B3CF40912A0450912B04A0
:1029000060912C0470912D044115510561057105EC
:1029100061F0415051096109710940932A045093B3
:102920002B0460932C0470932D0440912A04509141
:102930002B0460912C0470912D04452B462B472BC2
:1029400009F037CF8111C7CF9FCF8091280488230A
:1029500009F431CF80912904CF911F910F91FF90FD
:10296000EF90DF90CF9008951092330410923404CA
:1029700010923504109236041092320410923804EA
:1029800010923704109231041092300410925204C5
:102990001092510410922F0410922E0410922A04C7
:1029A00010922B0410922C0410922D0410922904E2
:1029B0001092280410924D0410924E0410924F046D
:1029C0001092500410924C04109248041092490442
:1029D00010924A0410924B0488EE93E0A0E0B0E01D
:1029E0008093AD029093AE02A093AF02B093B00279
:1029F0001092440410924504109246041092470429
:102A00001092400410924104109242041092430428
:102A100010923F0410923E0481E08093AC02109229
:102A20003D0410923C0410923B0410923A04109220
:102A3000390490E080E0089580913B0490913C043B
:102A4000892B19F58091AC02882351F080913D04C7
:102A5000811106C081E080932904809328040895A1
:102A600020913D043091AC0281E090E0332311F0DD
:102A700090E080E030E082239323892B21F01092B4
:102A8000290481E0EACF10922804089582E090E0C2
:102A9000FA01918380838FEF9FEF0895CF93DF93A7
:102AA000EA01009711F00E94DF271982188290E056
:102AB00080E0DF91CF910895DB01009719F48FEF4B
:102AC0008C9308952EEF2C93FC013F96EF30F10587
:102AD00008F034C08827E059FA4E8F4F0C94453ADD
:102AE0009C159A15981596159415901592158E1596
:102AF0008C158A15871583157F1585159E1580E31E
:102B000011968C93089589E2FBCF82E2F9CF11965A
:102B10001C92089583E2F4CF81E2F2CF81E1F0CFFD
:102B200087E2EECF8AE2ECCF80E1EACF84E2E8CF21
:102B300088E2E6CF86E2E4CF81E3E2CF80E2E0CF35
:102B400080915F0490916004089590936004809355
:102B50005F04089580915E04089590915E04892B2E
:102B600080935E040895982F909580915E04892348
:102B700080935E04089580915D04089580915B04C4
:102B800090915C0408956115710559F0FB0130E0E6
:102B900020E070E060E02417350719F06115710539
:102BA00011F0CB010895A081B181A817B90709F4EC
:102BB000BF012F5F3F4F3696EECF809161048111A8
:102BC0001CC060D266D290935404809353040E9438
:102BD000DD1F0E94EF1F90935804809357040E94BA
:102BE0006C240E947324909356048093550481E0D2
:102BF0008093610490E080E0089584EF9FEF089552
:102C00008F929F92AF92BF92CF92DF92EF92FF92FC
:102C10000F931F93CF93DF9300D000D000D01F926B
:102C2000CDB7DEB71A86198618861F821E821D82CE
:102C30001C821B821A8219828091610407EF1FEFA8
:102C4000882309F49CC08E010D5F1F4F9E012B5FEE
:102C50003F4FAE01495F5F4FBE01675F7F4F90E01E
:102C600080E00E94F0258C01009721F005960297E4
:102C700008F0DBC029853A852115310509F402C128
:102C8000ED80FE804B815C81B701640F751F8F81E1
:102C900098858617970708F4F5C0E20EF31ED70152
:102CA0009C91903C09F07FC04230510508F47BC0F4
:102CB00011968C9140915F0450916004452B09F46A
:102CC0009CC0913F08F071C02CE1290F2D3008F411
:102CD0008BC02DE2290F203108F489C0903C21F4EB
:102CE0008150823008F483C088E3890F8B3008F468
:102CF00081C09CE5C92E95E1D92EE6E4F5E16D8110
:102D00007E81AE014F5F5F4F89859A8519955C0181
:102D1000C114D104A1F189809A808114910479F1C0
:102D20008B819C818815990508F487C010E000E02C
:102D30004B815C8170E060E0C7010E946F3A011531
:102D40001105E9F449815A8169857A858D819E81D1
:102D5000680F791FC501F6011995E980FA800D8188
:102D60001E812F81388549855A856FEF7FEF81E07D
:102D700090E00E948B258C01892B09F056C0C80178
:102D80002A960FB6F894DEBF0FBECDBFDF91CF916C
:102D90001F910F91FF90EF90DF90CF90BF90AF9079
:102DA0009F908F90089580E085CF30E020E0220F43
:102DB000331FF901ED5AFB4F0190F081E02D309760
:102DC00009F497CF892F90E01995009709F491CFD6
:102DD000DC011296ED91FC9113971496CD90DC9046
:102DE000309709F08CCF1FC021E030E0E0CF22E027
:102DF00030E0DDCF23E030E0DACFD12CC12CEEE49F
:102E0000F5E19F3F09F07BCFE0915304F09154042A
:102E1000309721F4C90104EF1FEF0CC08FEF90E051
:102E200019950097A9F604EF1FEF89859A850097F9
:102E300009F4A5CF0E94DF27A2CF0E94BA268C01F9
:102E400089859A850E94DF2770E060E0C4010E94B6
:102E5000532698878F830E9488259E838D836F8158
:102E600078856115710559F0C8010E946B299A8710
:102E7000898706EF1FEF892B09F058CF59CF08EF4C
:102E80001FEF56CF08EF1FEFD0CF20916104222310
:102E900019F020E00C94F41F87EF9FEF08958091C4
:102EA0005F049091600408950E9478240E94D223C8
:102EB000F5D0E3E5F4E088E0DF011D928A95E9F7BB
:102EC0001092610490E080E008950C94302221E09B
:102ED00040E050E0BA010C94F41F86E090E0FA0163
:102EE0009183808390E080E0089547E050E064EEB5
:102EF00072E049CEDF92EF92FF920F931F93CF9330
:102F0000DF938A01EC01C60FD71FE0906504F090B3
:102F10006604D9800E94A226D816190678F082E0AD
:102F200090E0F801918380838EEF9FEFDF91CF9146
:102F30001F910F91FF90EF90DF900895EF2841F4DB
:102F400082E090E0F8019183808384EF9FEFEECFE1
:102F500089818093640490E00196F80191838083D5
:102F600090E080E0E3CFCF93DF93EA010E94E1227B
:102F7000882321F00E94AF260E94E22282E090E0A6
:102F8000998388838BEF9FEFDF91CF910895CF9343
:102F9000DF93EB0186E0FB0111928A95E9F78FEF51
:102FA0008883D8DD8983E7DD8A83E8DD9D838C8390
:102FB000DF91CF910895CF93DF93EA010E94E4223D
:102FC000811109C082E090E09983888385EF9FEFAB
:102FD000DF91CF91089590E080E0B7DD81E090E04F
:102FE0009983888390E080E0F3CF0F931F93CF9372
:102FF000DF93EA018C01060F171F0E94E422811162
:103000000BC082E090E09983888385EF9FEFDF918A
:10301000CF911F910F910895F8018181823038F08E
:1030200082E090E0998388838EEF9FEFF0CF81E07C
:1030300090E08BDD88E090E09983888390E080E0E9
:10304000E6CFCF93DF930097D1F4EB01FB013296EB
:1030500086E0DF011D928A95E9F78FEF888385E08E
:1030600089831A820E94A2268B830E94A1269D83B7
:103070008C8381E08E838F83DF91CF910895DF91E0
:10308000CF911ACD85E797E1909363048093620412
:1030900008958091620490916304089510926304EE
:1030A00010926204089580916504909166040895D9
:1030B000411105C0611571058105910561F06093AD
:1030C000650470936604809367049093680440934A
:1030D000690481E0089580E00895FF920F931F93A3
:1030E000CF93DF938A01EC01C60FD71FF9800E94AE
:1030F000A226F816190668F082E090E0F8019183A4
:1031000080838EEF9FEFDF91CF911F910F91FF9002
:1031100008956C817D818E819F814B81C9DF8111F2
:1031200008C082E090E0F8019183808384EF9FEFF4
:10313000EACF89818093640490E00196F80191833D
:10314000808390E080E0DFCFCF93DF93EA01FC0142
:10315000E60FF71F64817581868197814381A8DF1F
:10316000811109C082E090E09983888384EF9FEF0A
:10317000DF91CF91089581E090E09983888390E07A
:1031800080E0F6CFE5E6F4E0408151816281738111
:10319000480F511D611D711D4083518362837383EC
:1031A0000895CF93C09164044C2F50E06091650462
:1031B0007091660401960E94663A8C2FE3DF1092AC
:1031C0006404CF910895009799F4809165049091DB
:1031D00066042FEFFB012083892B59F020916404B2
:1031E00030E02F5F3F4F2417350719F4CB01D9CFBB
:1031F00063CC0895009799F48091650490916604DA
:103200002FEFFB012083892B59F02091640430E0DB
:103210002F5F3F4F2417350719F4CB01C2CF4CCC99
:10322000089523E1AC01249FC001259F900D112436
:10323000E0916E04F0916F04E80FF91F238134814F
:103240002250310981E02230310508F080E00895F4
:103250000F931F93CF93DF9300917004109171042B
:10326000D0E0C0E080E00C171D0749F491E0811127
:1032700090E0892FDF91CF911F910F9108958111D7
:10328000F5CFCE01CEDF2196EECFA0916E04B091A6
:103290006F04109729F12091700430917104821706
:1032A0009307F0F453E1589F9001599F300D11247A
:1032B000A20FB31FED91FC911197309789F01296F0
:1032C0008C91681768F48DE0689FE00DF11D112462
:1032D00080819181892B21F081E09281491708F04A
:1032E00080E008959C0143E1429FC001439F900DFF
:1032F0001124E0916E04F0916F04E80FF91F8385AB
:10330000823091F481E090E0658176814091B10254
:103310005091B2026417750711F490E080E0892B98
:1033200019F081E0232B09F080E00895FC01A081D1
:10333000B1818DE0689FA00DB11D112413964D91B0
:103340005C9185859685489F9001499F300D589FD7
:10335000300D1124C9010196611103C0478144FD5C
:1033600004960895EF92FF920F931F93CF93DF93EC
:10337000EA01FC01E60FF71F02811381E480F5806A
:103380004F2D6E2DC80181DF81110DC082E090E0CC
:10339000998388838EEF9FEFDF91CF911F910F91DB
:1033A000FF90EF900895C8013CDF882339F082E058
:1033B00090E09983888388EF9FEFEECF1093B80257
:1033C0000093B702E092B902F092BA0281E090E075
:1033D0009983888390E080E0DFCFCF92DF92EF92F5
:1033E000FF920F931F93CF93DF937A01EC01C60FE7
:1033F000D71FC090B702D090B8020091B9021091C7
:10340000BA02412F602FC60140DF811110C082E057
:1034100090E0F701918380838AEF9FEFDF91CF9156
:103420001F910F91FF90EF90DF90CF900895C6010C
:10343000F8DE882341F082E090E0F70191838083F9
:1034400088EF9FEFEBCF4C815D816E817F819A8108
:1034500089818F3F41F082E090E0F7019183808382
:103460008EEF9FEFDBCFE3E1EC9D9001ED9D300D02
:103470001124E0916E04F0916F04E20FF31F0190AC
:10348000F081E02D2DE0029FE00DF11D112401904F
:10349000F081E02D27E0129FE00DF11D11248083C3
:1034A00091838B81828343835483658376831F5FFB
:1034B0001093BA0281E090E0F7019183808390E05D
:1034C00080E0ACCFEF92FF920F931F93CF93DF93E7
:1034D0007A018C01060F171FC0916E04D0916F0402
:1034E000209781F021E030E0F801828193814091C2
:1034F0007004509171048417950710F030E020E0BB
:10350000232B71F482E090E0F701918380838EEFAA
:103510009FEFDF91CF911F910F91FF90EF90089552
:1035200043E1489F9001499F300D1124C20FD31FE2
:1035300078DE882341F082E090E0F7019183808378
:1035400088EF9FEFE6CFF8012481358120383105DF
:10355000C8F687818111D6CF4181842F90E08F7E7C
:10356000009741F082E090E0F7019183808386EF3D
:103570009FEFCFCF4F833E832D83268128871986E7
:10358000223010F421E0288721E030E0F701318378
:103590002083BFCF88E090E0FA019183808390E0A0
:1035A00080E00895FB018FEF808381E181838FEFBD
:1035B0009FEF9383828380E890E0958384831682D3
:1035C00017820895FB018FEF808391E091838283BE
:1035D0009383848384E3858381E090E0978386836B
:1035E0000895DF92EF92FF920F931F93CF93DF9393
:1035F000EA01FC01E60FF71F8181813071F082E062
:1036000090E0998388838FEF9FEFDF91CF911F9197
:103610000F91FF90EF90DF90089582819381D48085
:103620002581E680F78000916E0410916F040115EA
:10363000110539F482E090E0998388838CEF9FEF45
:10364000E4CF40917004509171048417950738F0CD
:1036500082E090E0998388838EEF9FEFD6CF892B0D
:1036600039F082E090E09983888386EF9FEFCDCF99
:103670008D2D8D7FB1F72130A1F781E0D11006C0EB
:1036800091E0E916F10431F080E004C0E2E0EE16CA
:10369000F104D0F3882329F390E080E0C2DD882391
:1036A00039F082E090E09983888388EF9FEFADCF77
:1036B000F801D38681E08487F686E586108A17862E
:1036C00081E090E09983888390E080E09ECF4CE099
:1036D00050E06EE073E057CA8F929F92BF92CF92F4
:1036E000DF92EF92FF920F931F93CF93DF93EA0144
:1036F000FC01E60FF71F828193810481B580E09180
:103700006E04F0916F04309791F482E090E0998319
:1037100088838CEF9FEFDF91CF911F910F91FF90E6
:10372000EF90DF90CF90BF909F908F900895209161
:103730007004309171048217930738F082E090E0B2
:10374000998388838EEF9FEFE6CF23E1289F600166
:10375000299FD00C1124EC0DFD1DE080F180E114B7
:10376000F10499F28281081748F78DE0089F8001E3
:103770001124E00EF11EF70180819181892B29F639
:10378000BB20E1F2F7E0BF9E40011124C4010E947A
:10379000A627F70191838083E0916E04F0916F0476
:1037A000EC0DFD1D0190F081E02DE00FF11F8081F7
:1037B0009181009739F482E090E0998388838DEFBE
:1037C0009FEFA9CFA40170E060E00E946F3A809162
:1037D0006E0490916F04C80ED91EF601808191810C
:1037E000080F191FF801B28281E090E09983888365
:1037F00090E080E090CFAF92BF92CF92DF92FF92A5
:103800000F931F93CF93DF93EA01FC01E60FF71F9D
:1038100082819381F48000916E0410916F040115F0
:10382000110581F482E090E0998388838CEF9FEF0B
:10383000DF91CF911F910F91FF90DF90CF90BF90BC
:10384000AF9008952091700430917104821793070E
:1038500038F082E090E0998388838EEF9FEFE8CF85
:103860002FEF2F0D2C3FA8F723E1289F6001299F00
:10387000D00C11240C0D1D1DF80180819181892B24
:1038800089F6FDE0FF9E50011124C5010E94A62784
:10389000F80191838083E0916E04F0916F04EC0D48
:1038A000FD1D80819181009739F482E090E0998339
:1038B00088838DEF9FEFBCCFA50170E060E00E9490
:1038C0006F3AE0916E04F0916F04EC0DFD1DF282F1
:1038D00081E090E09983888390E080E0A9CFCF9247
:1038E000DF92EF92FF920F931F93CF93DF93860F98
:1038F000971FFC010281138180916E0490916F04E7
:10390000892B81F082E090E0FA01918380838CEF33
:103910009FEFDF91CF911F910F91FF90EF90DF907C
:10392000CF900895C801B0E0A0E00197A109B109C6
:103930008F3F9F4FA105B10540F082E090E0FA0172
:10394000918380838EEF9FEFE4CF7A0183E1809FA4
:103950006001819FD00C1124C6010E94A627EC01B2
:10396000009741F482E090E0F701918380838DEF2E
:103970009FEFCFCFA60170E060E00E946F3AD09336
:103980006F04C0936E04109371040093700490E070
:1039900080E02FEF3FEF41E061E070E0801791079A
:1039A00041F481E090E0F7019183808390E080E032
:1039B000B0CF3A8B298B1B864C877E876D87188A00
:1039C0001F8601966396EACFEF92FF921F93CF93E3
:1039D000DF93EC0110E0F12CE12C6A811617B0F0B6
:1039E00083E0689FB0011124AE014F5E5F4FC701B5
:1039F0000E940B28009721F02FEF3FEF3A8B298B85
:103A0000DF91CF911F91FF90EF900895612FCE012C
:103A10008DDC61E070E00E945326E816F90608F498
:103A20007C011F5FDACFF89420916C0430916D0413
:103A300081E02115310509F080E0232B09F078940D
:103A400008952F923F924F925F926F927F928F9242
:103A50009F92AF92BF92CF92DF92EF92FF920F931D
:103A60001F93CF93DF933C01660E771EF301828193
:103A700093814C01B12CA12CC0916E04D0916F04A4
:103A8000209769F021E030E060917004709171043A
:103A90008617970710F030E020E0232BD1F482E066
:103AA00090E0FA01918380838EEF9FEFDF91CF91B9
:103AB0001F910F91FF90EF90DF90CF90BF90AF904C
:103AC0009F908F907F906F905F904F903F902F903E
:103AD00008958092BB029092BC02A092BD02B09267
:103AE000BE0263E1689F9001699F300D1124C20FEF
:103AF000D31FF3018181833040F082E090E0FA012E
:103B00009183808386EF9FEFD1CF2A012B813C8167
:103B1000232BF1F4288139819F8191FF2EC0232B23
:103B200009F46FC0209173049A81422F490F5527E1
:103B3000551FBA0141E050E06138710514F050E0C2
:103B400040E0452B09F45DC02A87920F90937304DF
:103B50008150823008F481C066DF882309F4D8C020
:103B6000F3018181813009F48DC008F47BC082307B
:103B700009F4C6C090E080E0ADC0232B09F441C039
:103B8000209172049A81E22FE90FFF27FF1F41E085
:103B900050E0ED3FF10514F050E040E0452B89F195
:103BA0002A87920F90937204D3CFA081B181A20F84
:103BB000B31F11966C91060F111D0196295F3F4F9F
:103BC0008417950794F38D859E85089F1001099FA2
:103BD000300C189F300C1124C114D104D1F48F8102
:103BE00084FF17C00E94A126F5E02F0E311C21E0B2
:103BF0008215930508F420E0A701435F5F4F211170
:103C00000EC082E090E0F2019183808387EF9FEF06
:103C10004DCF0E94A1262FEF221A320AE8CF8881C9
:103C20009981E80EF91EF70114830383FFEFCF1A81
:103C3000DF0A7A018A818C151D0409F00CF48CCFFF
:103C4000E881F981EE0DFF1D428150E030E020E077
:103C500010E000E090E080E0B3CFF12CE12CD12C1B
:103C6000C12CE8CF81E090E09C838B83F1DA88233C
:103C700009F480CF81E090E00E94A51580E40E94C5
:103C8000B31578CF89899A89019661F083E090E035
:103C90009C838B8382E090E00E94A51580E40E94C3
:103CA000AD1568CF8D819E812091B1023091B20215
:103CB00082179307D1F46091B5027091B602AE01FC
:103CC0004F5E5F4F8091B3029091B4020E942A2907
:103CD0000097E1F2789422E030E0F2013183208312
:103CE000892B99F08DEF9FEFE1CE89288A288B28C8
:103CF00069F6892B59F6CE0167DE188A1F86E8CF50
:103D000082E090E09C838B8335CF90E080E0CECE44
:103D100082E090E0F2019183808385EF9FEFC6CE31
:103D20008F929F92AF92BF92CF92DF92EF92FF92CB
:103D30000F931F93CF93DF93EA018C01060F171F98
:103D4000F8018181833098F082E090E09983888344
:103D500086EF9FEFDF91CF911F910F91FF90EF9032
:103D6000DF90CF90BF90AF909F908F9008958091FB
:103D70006E0490916F04892B61F081E090E02091B6
:103D8000700430917104232B11F490E080E0892BB2
:103D900039F482E090E0998388838EEF9FEFDACF49
:103DA00042DE882309F4DFC0F8018181813009F403
:103DB00095C0E8F0823099F420917004309171043C
:103DC000E0916E04F0916F0490E080E041E050E0FB
:103DD0002817390709F0BDC03BDA811117C0789464
:103DE00081E090E09983888390E080E0B3CF2091D8
:103DF000700430917104E0916E04F0916F0490E0D2
:103E000080E041E050E02817390741F481E090E07C
:103E10000E94A51580E40E94B315E1CF63817481EF
:103E2000672B11F05483438301967396ECCFE09196
:103E30006E04F0916F04E00FF11F23813481223072
:103E40003105D9F4218932892F3F3F4FB1F42581C3
:103E500036814091B1025091B2022417350761F5C5
:103E6000AF014F5E5F4F6091B5027091B6028091D5
:103E7000B3029091B4020E942A29EFEFCE1ADE0A13
:103E8000EE0AFE0A0D5E1F4F4091700450917104BE
:103E900070E060E0C416D506E606F7063CF500972C
:103EA00031F27894892B09F49BCF82E090E09983DA
:103EB00088838DEF9FEF4ECFC114D104E104F1044C
:103EC000E1F6232BD1F6CF017FDDE0916E04F09176
:103ED0006F04E00FF11F108A1786CFCF10E000E0CB
:103EE00090E080E0C12CD12C7601CECF0097C9F6AE
:103EF00010E000E0812C912C540183E0E82EF12C9D
:103F00001AC0E0916E04F0916F04E00FF11F8381FD
:103F10009481029749F4F482E38282E090E00E9467
:103F2000A51580E40E94AD15FFEF8F1A9F0AAF0A16
:103F3000BF0A0D5E1F4F8091700490917104B0E034
:103F4000A0E088169906AA06BB06DCF290E080E0A5
:103F5000A8CF638174816230710511F45483438367
:103F60000196739635CF82E090E09983888385EF40
:103F70009FEFF0CE0097B9F48FEFFB018083209183
:103F8000BB023091BC0243E1429FC001439F900DB0
:103F90001124E0916E04F0916F04E80FF91F8285FF
:103FA000FB01818308950C945C1588E090E0FA0190
:103FB0009183808390E080E0089510926D041092C8
:103FC0006C04EEE6F4E086E0DF011D928A95E9F7E5
:103FD00087E69BE190936B0480936A040895809137
:103FE0006A0490916B0408952F923F924F925F92D2
:103FF0006F927F928F929F92AF92BF92CF92DF92F9
:10400000EF92FF920F931F93CF93DF93CDB7DEB75D
:104010002F970FB6F894DEBF0FBECDBFF894E09196
:104020006C04F0916D043196F0936D04E0936C0490
:10403000789440906E0450906F044114510409F438
:104040000CC2E0917004F0917104EF2B09F405C2E9
:104050002D8749875A876B877C8798878F831201C2
:10406000B12CA12C10E000E08091700490917104BB
:10407000A816B90618F40115110529F1F8948091D4
:104080006C0490916D04019790936D0480936C047F
:104090007894C8012F960FB6F894DEBF0FBECDBF3F
:1040A000DF91CF911F910F91FF90EF90DF90CF9014
:1040B000BF90AF909F908F907F906F905F904F9048
:1040C0003F902F9008957101E418F508D1011796DB
:1040D0008C91179781FD54C013968D919C911497E4
:1040E000039709F04DC015968D919C91EF81F8854D
:1040F0008E179F0709F044C0B50190E080E07FD49F
:104100008A8320916E0430916F043D832C833D851A
:10411000332309F44CC04C815D81452B09F49AC1CD
:104120008091700490917104A816B90608F092C1AC
:10413000C501D8D88823E9F06C817D816E0D7F1D83
:104140007D836C83DB011F968D919C91892B89F077
:10415000D12CC12CF12CE12CAC81BD8112968C911B
:1041600012978E151F0409F094F450961C921E921B
:104170001F972A81222321F0B50190E080E041D4ED
:104180003FEFA31AB30A43E1240E311C6DCFAC817B
:10419000BD81ED91FC91EC0DFD1D858196810FD7C0
:1041A000BFEFEB1AFB0AEDE0CE0ED11CD5CFEC81B0
:1041B000FD81309709F44EC1809170049091710493
:1041C000A816B90608F046C1EE0DFF1DFF87EE8761
:1041D000C50188D88B83882339F1AE85BF851F96AA
:1041E0008D919C915097019621E01D964D915C9187
:1041F0008417950709F020E02E831982712C10E0B6
:1042000000E0AE85BF8512968C91781608F45DC0EB
:10421000EE85FF85878590890196658576850E9464
:104220000F3A908B8787A5CFB1E0BE83E6CF992464
:1042300093946BC08BD6F6019683858382C0D6019A
:10424000ED90FC90B7E06B9EE00CF11C1124F7019F
:104250006381748180818F3F61F121E030E002C091
:10426000220F331F8A95E2F7C901092E000CAA0B11
:10427000BB0BFB01408151816281738184239523B3
:10428000A623B72321E0892B8A2B8B2B09F420E06E
:10429000D4012C93D70111968C91F6012385348596
:1042A000820F932F911D880E991E14861386639496
:1042B0009BC0418150E0C4010E94663AEBCF9982D5
:1042C00006EF1FEFC5C01982C3C0F981F111A0CF5D
:1042D000EDE07E9E70011124AE85BF85CD90DC900F
:1042E000CE0CDF1C15D49D838C83BB81BB2309F4CA
:1042F0009ECF81E0EE85FF8527853089232B09F04D
:1043000080E0982E882309F458C0672D8E859F85FC
:104310000DD8D60118969C938E93179761E070E0A4
:10432000C2D4EE85FF85218932892F3F320709F4F7
:1043300081CFBC01C901CFD7D60116969C938E932D
:104340001597D60115968D919C911697009709F4B3
:10435000B6CFEC81FD818E0F9F1F1A969C938E9392
:104360001997AE85BF85ED91FC911197EE0EFF1E5A
:10437000F70121853285148613861A968C91870D54
:10438000D9018D93711016C0EE85FF85878184FF5A
:1043900011C049855A856B857C85F901418352831B
:1043A00063837483F701838594850496A80FB91FEE
:1043B00014861386F701B287A187D60115968D91D1
:1043C0009C911697892B09F443C0EE85FF852581C2
:1043D00036818091B1029091B2022817390779F0A5
:1043E00019968D909C90612CD60112968C91129703
:1043F000681608F424CF1A969C928E921997BE8163
:10440000BB2309F460CF61E070E0F60187819085FD
:104410004AD4D6011796ED90FC90189715964D91B9
:104420005C91E1E0F0E0BA81BB2311F0F0E0E0E064
:104430000C811D819C01B501882799278E1B9F0B3C
:104440006AD38C01892B21F0F60185819681B7D53D
:104450007394D7CE0FEF1FEF8CCE10E000E00ECE9E
:104460002F923F924F925F926F927F928F929F9284
:10447000AF92BF92CF92DF92EF92FF920F931F9372
:10448000CF93DF9380916E0490916F0410E000E071
:10449000892BA9F0C8DA0AEF1FEF882381F020905A
:1044A000700430907104C0916E04D0916F04D12CCF
:1044B000C12C10E000E02C143D04A9F47894C8014C
:1044C000DF91CF911F910F91FF90EF90DF90CF90F0
:1044D000BF90AF909F908F907F906F905F904F9024
:1044E0003F902F900895C6010E947219882309F108
:1044F0008B819C810397E9F48F859889892BC9F07A
:10450000B60190E080E07BD221E030E0882311F01A
:1045100030E020E044245524421A530AB12CA12C47
:10452000912C812C8A818815190409F038F4188A95
:104530001F864FEFC41AD40A6396BDCFE881F98174
:10454000EA0DFB1D85819681892BA1F161E070E068
:1045500087819085A8D33C01DBD28C01E881F98169
:10456000EA0DFB1D8185928525813681200F311F43
:10457000AC01421B530B9A0147815085421B530BE0
:1045800070E060E00E946F3AE881F981EA0DFB1D5E
:10459000E780F084458156819301B601C201BBD208
:1045A0008C01892B39F0E881F981EA0DFB1D8581A9
:1045B000968105D55FEF851A950A8DE0A80EB11C8E
:1045C000B1CF31CA789408952F923F924F925F9263
:1045D0006F927F929F92AF92BF92CF92DF92EF92B3
:1045E000FF920F931F93CF93DF9300D000D0CDB7EE
:1045F000DEB700916E0410916F0499249394011515
:10460000110509F43EC0A0907004B09071040BDA5B
:10461000982E8823B1F110926F0410926E041092BC
:1046200071041092700410927204109273048FEF50
:104630009FEFDC018093BB029093BC02A093BD026C
:10464000B093BE0278947FD31E830D83C12CD12CEE
:104650007601C501B0E0A0E089839A83AB83BC8377
:1046600022242A94322C89819A81AB81BC81C8167C
:10467000D906EA06FB06F4F0C801A1D480E40E9442
:10468000B315892D26960FB6F894DEBF0FBECDBFA9
:10469000DF91CF911F910F91FF90EF90DF90CF901E
:1046A000BF90AF909F907F906F905F904F903F90A2
:1046B0002F900895AD81BE8115968D919C9116978E
:1046C0002091B1023091B20282179307D1F4519632
:1046D0008D919C91EED5ED81FE8180819181B12CEF
:1046E000A12C412C512C3201892B89F5BFEFCB1A1B
:1046F000DB0AEB0AFB0AED81FE817396FE83ED83F4
:10470000B2CFC114D104E104F10429F7892B19F7C0
:10471000ED81FE81818992898F3F980709F029D523
:10472000AD81BE8152963C922E925197D4CF8A0D84
:104730009B1DDC018D919C91009709F040D4BFEF47
:104740004B1A5B0A6B0A7B0AEDE0AE0EB11CAD8121
:10475000BE818D919C91119712964C9150E070E022
:1047600060E044165506660677060CF328D4BECFE3
:10477000CF93DF93EA0128DF811109C082E090E046
:104780009983888385EF9FEFDF91CF91089581E032
:1047900090E00E94A51581E090E09983888390E0E5
:1047A00080E0F2CF11DF10926B0410926A0408953A
:1047B00042E050E066E573E00C94C315FF920F935E
:1047C0001F93CF93DF938A01EC01C60FD71FF980A7
:1047D000B9D20897F816190671F068F082E090E0F7
:1047E000F801918380838EEF9FEFDF91CF911F912E
:1047F0000F91FF9008956C817D818E819F814B8107
:104800000E945818811108C082E090E0F80191835D
:10481000808384EF9FEFE9CFF9800E9453184F2DDA
:1048200050E0BE01685F7F4F0E94663A89810E9416
:10483000C21881E090E0F8019183808390E080E0ED
:10484000D4CFDF92EF92FF920F931F93CF93DF931A
:104850008A01EC01C60FD71F0E9453187C01D98032
:1048600071D2DD2059F0029721E030E0D816190608
:1048700019F010F030E020E0232B79F482E090E092
:10488000F801918380838EEF9FEFDF91CF911F918D
:104890000F91FF90EF90DF900895EF2841F482E0B0
:1048A00090E0F8019183808384EF9FEFEECFF98051
:1048B0000E9453184F2D50E0BE016E5F7F4F0E9443
:1048C000663A89810E94C21881E090E0F8019183E4
:1048D000808390E080E0D9CF88ED93E290937504D7
:1048E00080937404089580917404909175040895E0
:1048F0000895FC0111821082938382830895DB0165
:104900001D921C92DC011296ED91FC91139771831C
:10491000608313967C936E9312970895FC018081B7
:104920009181DB018D939C93A081B181109741F01F
:104930008D919C9191838083892B11F4F383E28381
:104940000895FC0180819181DB018D939C93892BDB
:1049500011F473836283718360830895FC01118273
:104960001082938382830895CF93DF931F921F92C7
:10497000CDB7DEB71A821982F894BE016F5F7F4F00
:104980008BE794E0CBDF89819A81009709F017D3F8
:1049900089819A81892B89F7BE016F5F7F4F8FE7ED
:1049A00094E0BCDF89819A81009709F008D389815E
:1049B0009A81892B89F778940F900F90DF91CF918E
:1049C0000895CF93DF931F921F92CDB7DEB71A825F
:1049D0001982F894BE016F5F7F4F87E794E09EDFF6
:1049E00089819A81009709F0EAD289819A81892B7D
:1049F00089F778940F900F90DF91CF91089581E01F
:104A0000089590E080E00895EF92FF920F931F9336
:104A1000CF93DF931F921F92CDB7DEB71A82198210
:104A20008091760407EF1FEF8823A1F1F894BE016F
:104A30006F5F7F4F8FE794E071DF789489819A816F
:104A4000EE24E394F12C892B51F4F894BE016F5FAE
:104A50007F4F8BE794E062DF7894F12CE12C898121
:104A60009A810EEF1FEF0097A9F0FC01428153815C
:104A700064E070E076D68C01892B61F0F89469814E
:104A80007A81C701880F991F880F991F85589B4FFE
:104A900058DF7894C8010F900F90DF91CF911F914C
:104AA0000F91FF90EF9008950F931F93CF93DF9393
:104AB00000D01F92CDB7DEB71C821B821A821982EA
:104AC0008091760407EF1FEF8823C1F0AE014D5FA0
:104AD0005F4F64E070E0CE010196B6D68C01892B61
:104AE00069F4E981FA818B819C8193838283F894B4
:104AF00069817A8187E794E002DF7894C8010F909A
:104B00000F900F900F90DF91CF911F910F9108950B
:104B1000BBD7049608958F929F92AF92BF92CF9287
:104B2000DF92EF92FF920F931F93CF93DF931F9229
:104B30001F92CDB7DEB71A821982BC016F5F7F4F1B
:104B40006330710598F0AA24AA94BA2CC5010F907D
:104B50000F90DF91CF911F910F91FF90EF90DF9019
:104B6000CF90BF90AF909F908F90089541155105C1
:104B700051F3480159018A016C01CADF8815990572
:104B800011F7E114F104F9F28E0D9F1DA816B90674
:104B9000D0F2809176048823F1F0F894B501645046
:104BA00071099701AE014F5F5F4FC8010496E1D6CE
:104BB0005C01892B71F489819A81F8019383828346
:104BC000C601880F991F880F991FB80185589B4F00
:104BD00096DE7894BBCF87EFA82EBB24BA94B6CFCD
:104BE000AF92BF92CF92DF92EF92FF920F931F93FB
:104BF000CF93DF931F921F92CDB7DEB71A8219822F
:104C0000892B09F047C06115710509F443C04115AE
:104C1000510509F43FC02115310509F43BC00115C8
:104C20001105C1F1809176048823B9F179016A01F7
:104C30005B01F894BE016F5F7F4F87E794E06EDE03
:104C4000789489819A81009759F1DC0112966D91CF
:104C50007C91A8010496A6D68C01E981FA81D50140
:104C6000ED93FC93828193810496F6019183808376
:104C70004FDFD7018D939C93C8010F900F90DF9168
:104C8000CF911F910F91FF90EF90DF90CF90BF9049
:104C9000AF9008950FEF1FEFEFCF07EF1FEFECCFAF
:104CA0000EEF1FEFE9CFCF93DF93EC01672B71F489
:104CB000F4D68C179D0760F0E7D62496C80FD91F4D
:104CC000E6D68C0F9D1FDF91CF910895E3D6F1CFEB
:104CD00090E080E0F8CF0F931F93CF93DF93209164
:104CE000760421112BC08B01EC018BE794E001DEEF
:104CF0008FE794E0FEDD87E794E0FBDD97D0009737
:104D0000C1F4CBD670E060E0CEDF4FEB52E062E062
:104D100070E081D1009769F48091BF029091C00248
:104D2000CED6B801CE0103D5009719F421E0209327
:104D30007604DF91CF911F910F91089584EF9FEF3B
:104D4000F8CFA8C6AAC6CF93DF93AAD6EC01892BC9
:104D500011F40ADE36DECE01DF91CF910895CF93B4
:104D6000DF939ED6EC01892B09F4FEDDCE01DF91A5
:104D7000CF9108958091BF029091C0020895CF9382
:104D8000DF9380917604D0E0C0E08823D1F09CD6F8
:104D9000EC01892BB1F4E8DD14DE8091BF02909123
:104DA000C002E7D1E8D2EC01892B59F48BE794E0FB
:104DB000D5DD8FE794E0D2DD87E794E0CFDD109278
:104DC0007604CE01DF91CF910895EF92FF920F9379
:104DD0001F93CF93DF93EC017A018B010F5F1F4F7D
:104DE0000E9DA0010F9D500D1E9D500D112470E0D1
:104DF00060E00E946F3A90E080E0F0E0E0E02FEFAA
:104E0000E816F90639F4DF91CF911F910F91FF90C9
:104E1000EF9008951A8219822883309711F0D28377
:104E2000C1830196FE01C00FD11FEACFCF92DF925E
:104E3000EF92FF920F931F93CF93DF9300EE17E053
:104E40000C7F43E050E061EC72E087EC92E01CD410
:104E500081ECE82E82E0F82E97ECC92E92E0D92E54
:104E6000CFEAD8E0D7014D915D917D01F6016191C6
:104E700071916F01198308835D834C835B834A833F
:104E80007F836E839B012F5F3F4F249FC001259F2F
:104E9000900D349F900D1124998788870115110575
:104EA00011F0C80192DF88859985080F191F2A968D
:104EB000F7ECEF16F2E0FF06A9F6E5E8F4E088E586
:104EC00093E0DF019C011D9221503040E1F71092E8
:104ED0008404109283041092CE081092CD08109290
:104EE000D2081092D1081092D0081092CF081092D8
:104EF000D4081092D3081092D6081092D5081092B8
:104F0000D8081092D7081092DC081092DB08109293
:104F1000DA081092D9081092DE081092DD0810927B
:104F2000E0081092DF081092AC081092AB081092C3
:104F3000AE081092AD0890E080E0DF91CF911F9114
:104F40000F91FF90EF90DF90CF9008950097F1F0D0
:104F5000F894A7ECB2E0EFEAF8E030E020E04D9101
:104F60005D9148175907A8F04281538141155105B9
:104F700081F08AE0829FF001839FF00D1124E155BA
:104F8000F74F80819181009759F4789490E080E008
:104F900008952F5F3F4F3A962330310501F7F5CF43
:104FA000DC0111966D917C917183608341505109B0
:104FB00053834283FC012193CF0178940895009795
:104FC00049F1DC018E91853041F4E091AD08F0911A
:104FD000AE083097F9F0CD0119948530D8F4282F18
:104FE00030E0F8948FEF8C938AE0829FF001839FEA
:104FF000F00D1124E155F74F8081918112969C9319
:105000008E931197B183A0838281938101969383BC
:10501000828378940895CF92DF92EF92FF920F935C
:105020001F93CF93DF939C0188E894E08C7F411518
:10503000510509F49BC02115310509F497C061158C
:10504000710509F493C07A01AB01B9016D5F7F4F1F
:105050006C7F9B012F5F3F4F249F8001259F100D88
:10506000349F100D1124F8942091CD083091CE0872
:10507000232B59F42091D5083091D60821153105FC
:1050800069F12017310708F058C02091D7083091F6
:10509000D808232B91F42091D5083091D608820F9F
:1050A000931F2091DF083091E0082115310509F4A4
:1050B00041C02017310708F056C07894CFEFDFEFDA
:1050C00086EF9FEFF701D183C083DF91CF911F91CE
:1050D0000F91FF90EF90DF90CF900895C3E0D0E064
:1050E000C0908304D090840425E533E02C193D0959
:1050F0002017310710F32AE02C9FF0012D9FF00DAF
:105100001124E155F74F9183808355834483538362
:1051100042837783668311870087009709F055DE05
:105120000C0D1D1D1093840400938304789490E06B
:1051300080E0C8CFC4E0D0E0D3CFC3E0D0E02AE025
:105140002C9FF0012D9FF00D1124E155F74F918315
:105150008083558344835383428377836683009798
:1051600029F333DEE3CFC4E0D0E0E9CF8FEF9FEF48
:10517000ACCF9C010397029708F069C0F89484E0D3
:105180009AE0482F50E0241735070CF44DC091E009
:105190008AE0829FF001839FF00D1124E155F74FC3
:1051A0001182108215821482138212821782168253
:1051B0009923B1F18091CD089091CE08892BA9F463
:1051C0002091D5083091D6082115310571F08091D4
:1051D000830490918404821B930B909384048093A6
:1051E00083041092D6081092D5088091D708909128
:1051F000D808892BA9F42091DF083091E008211507
:10520000310571F08091830490918404821B930B8B
:1052100090938404809383041092E0081092DF0836
:10522000789490E080E00895949FF001959FF00DB0
:105230001124E155F74F40815181452B31F44085D0
:105240005185452B11F481509CCF90E0A1CF8FEF79
:105250009FEF08954115510549F1009739F1611506
:10526000710521F1F8942091AB083091AC08232B03
:10527000B9F42091AD083091AE08232B89F49093B6
:10528000AC088093AB087093AE086093AD08789437
:1052900025E030E090E080E0FA013183208308953A
:1052A00078942FEF3FEF86EF9FEFF6CF8FEF9FEFD2
:1052B0000895059769F4F8941092AC081092AB0821
:1052C0001092AE081092AD08789490E080E00895B6
:1052D0008FEF9FEF08956115710519F4F0E0E0E09C
:1052E00011C08530910581F4E091AB08F091AC08D4
:1052F0003097A1F3CB0101961995009779F3FC0142
:1053000085E08193CF0108959C012350310922301B
:10531000310520F72AE0289FD001299FB00D1124E4
:10532000A155B74F2D913C911197232BB9F21696A9
:105330002D913C9117972617370780F2F894129613
:105340002D913C9113972115310529F0ED91FC9198
:105350001197309711F47894C1CF41815281119601
:105360005C934E932150310913963C932E931297E0
:1053700081937894C7CFEDEDF7E08EECDF011D92BD
:105380008A95E9F7E5E8F4E088E593E0DF019C0120
:105390001D9221503040E1F7109284041092830452
:1053A000EFEAF8E082E3DF011D928A95E9F7EBEA84
:1053B000F8E084E0DF011D928A95E9F790E080E053
:1053C0000895CF93DF93C091CD02D091CE02CF3F0D
:1053D000DC0759F423D49093CE028093CD0297FF3B
:1053E00009C0D093CE02C093CD0284EF9FEFDF912E
:1053F000CF91089590E080E0FACF8230910528F4B3
:105400008093E10890E080E008958FEF9FEF08958A
:105410004F925F926F927F92AF92BF92CF92DF9244
:10542000EF92FF920F931F93CF93DF931F921F92E0
:10543000CDB7DEB71A821982009709F479C06115D9
:10544000710509F475C02091CD023091CE0207EFAD
:105450001FEF2F3F3F4F09F445C06B015C01412C0A
:10546000512C3201F12CE12C10E000E09E012F5F65
:105470003F4FA6014E195F09B5016E0D7F1D80914A
:10548000CD029091CE022ED4892B09F04BC0898198
:105490009A81009741F4E114F10429F42091E10884
:1054A000222309F442C0E80EF91EEC14FD04D0F4E6
:1054B00080E8481684E858068EE16806710420F5F5
:1054C00060E070E0CB010E944C342AE0420E511C97
:1054D000611C711C0A3F4FEF140721F0043F8FEF4E
:1054E0001807A1F4C8010F900F90DF91CF911F9181
:1054F0000F91FF90EF90DF90CF90BF90AF907F9093
:105500006F905F904F90089501EF1FEF81E090E062
:10551000013F2FEF120711F090E080E0892B09F492
:10552000A5CFE0CF04EF1FEFDDCF0AEF1FEFDACFFB
:105530000FEF1FEFD7CF4F925F926F927F92AF9294
:10554000BF92CF92DF92EF92FF920F931F93CF9370
:10555000DF931F921F92CDB7DEB71A821982009790
:1055600009F479C06115710509F475C02091CD0267
:105570003091CE0207EF1FEF2F3F3F4F09F445C098
:105580006B015C01412C512C3201F12CE12C10E01B
:1055900000E09E012F5F3F4FA6014E195F09B50144
:1055A0006E0D7F1D8091CD029091CE024ED3892B3E
:1055B00009F04BC089819A81009741F4E114F1040C
:1055C00029F42091E108222309F442C0E80EF91ED3
:1055D000EC14FD04D0F480E4481682E458068FE011
:1055E0006806710420F560E070E0CB010E944C3445
:1055F0002AE0420E511C611C711C0E3F4FEF140734
:1056000021F0043F8FEF1807A1F4C8010F900F900D
:10561000DF91CF911F910F91FF90EF90DF90CF908E
:10562000BF90AF907F906F905F904F90089502EF82
:105630001FEF81E090E0023F2FEF120711F090E0A2
:1056400080E0892B09F4A5CFE0CF04EF1FEFDDCF79
:105650000EEF1FEFDACF0FEF1FEFD7CF8091CD0204
:105660009091CE028F3F980749F0D0D2892B49F410
:105670008FEF9FEF9093CE028093CD0290E080E079
:10568000089584EF9FEF0895CF92DF92EF92FF92FB
:105690000F931F93CF93DF9321E04115510509F03C
:1056A00020E04150510921112CC0DC01FB01D12C1B
:1056B000C12C21E022C03FEFC31AD30A7D010D9116
:1056C0001D91E701EA80FB80E016F106A8F4208135
:1056D0003181E280F380F182E08233832283ED9096
:1056E000FC9011979D0122503109E901F982E8826D
:1056F00011961C930E9320E03296C416D506D8F26C
:10570000D2CFDF91CF911F910F91FF90EF90DF905B
:10571000CF900895FC01680F791F90E080E0E617B4
:10572000F70709F408952191820F911DF8CF209178
:10573000E208211113C045DE009791F41092E808A9
:105740001092E7081092E6081092E5081092E4081B
:105750001092E30821E02093E208089584EF9FEF80
:105760000895AF92BF92CF92DF92EF92FF920F9384
:105770001F93CF93DF93009709F460C04630510523
:1057800008F45CC02091E208C7EFDFEF222309F4A0
:1057900049C08C01060F171FF801C080D180C114C9
:1057A000D10409F44EC096012A5F3F4F42175307B8
:1057B00008F447C07C018091E7089091E808938342
:1057C0008283B6016C5F7F4F5801A60EB71EC801D9
:1057D000A1DFF5019183808364E070E0C80118DEE9
:1057E000EC01892BF9F481E090E007DEB601C801F5
:1057F00004960EDEEC01892B91F462E070E0C501A5
:1058000007DEEC01892B59F4C701D9DB8091E70849
:105810009091E80801969093E8088093E70890E05B
:1058200080E0EBDDCE01DF91CF911F910F91FF90D2
:10583000EF90DF90CF90BF90AF900895CFEFDFEF64
:10584000F1CFC9EFDFEFEECF6F927F928F929F92F1
:10585000AF92BF92CF92DF92EF92FF920F931F937E
:10586000CF93DF9300D01F92CDB7DEB7009709F436
:105870007AC04115510509F476C02091E20807EF7E
:105880001FEF222309F44DC03A017B015C0164E063
:1058900070E0CE0101964FDE8C01892B09F041C0EA
:1058A00009811A810115110509F45AC0480186E0E1
:1058B000880E911CB701680D791D8091CF029091DF
:1058C000D00209DD6C01009709F450C0A70170E017
:1058D00060E00E946F3A89819A81AB81BC81EC0CB7
:1058E000FD1CF70181939193A193B1937F0181E016
:1058F00090E083DDB801C7011EDE892B31F562E03F
:1059000070E0C701800F911F16DE8C01892BE9F42E
:1059100090E080E072DDF501D182C082F3019182D6
:105920008082C8010F900F900F900F90DF91CF9160
:105930001F910F91FF90EF90DF90CF90BF90AF90AD
:105940009F908F907F906F90089590E080E055DD5C
:10595000F50111821082F30111821082C6012FDB42
:1059600009EF1FEFDECF0FEF1FEFDBCF06EF1FEFCB
:10597000D8CF0097A1F04115510589F021153105C7
:1059800071F0F90136966E177F0748F0DC012D9310
:105990003C93DA01ED93FC9390E080E008958FEF63
:1059A0009FEF0895AF92BF92CF92DF92EF92FF9256
:1059B0000F931F93CF93DF93009709F45FC04115B6
:1059C000510509F45BC06530710508F457C020919A
:1059D000E208C7EFDFEF222391F1DC01CD90DC90EC
:1059E00011971296ED91FC9196012A5F3F4FC9EFF6
:1059F000DFEF2617370719F5C091E308D091E408C7
:105A0000209749F521E030E03093E4082093E30843
:105A10007A018C01F093E608E093E5085601B4E0C2
:105A2000AB0EB11CB50176DE0A0D1B1DF8012081FD
:105A300031818217930729F5D701CD92DC92CE01EF
:105A4000DF91CF911F910F91FF90EF90DF90CF905A
:105A5000BF90AF9008952091E5083091E6082F5F40
:105A60003F4FCCEFDFEFE217F30790F2CBEFDFEF22
:105A70002E173F0768F2D0E0C0E0CACFCFEFDFEFCC
:105A8000DECFC3EFDFEFDBCF84E090E0089582E06C
:105A900090E008958CEF9FEF089580E290E00895E4
:105AA0001092E8081092E7081092E6081092E508B4
:105AB0001092E4081092E30890E080E0089590933B
:105AC000D0028093CF0208958091E208882391F05C
:105AD000C5DD009789F41092E8081092E70810924B
