:1000000005C100000C9401100C942C100C94571096
:100010000C9482100C94AD100C94D8100C94031115
:100020000C942E1124C1000022C1000020C1000048
:100030001EC100001CC100001AC1000018C1000050
:1000400016C1000014C1000012C1000010C1000060
:100050000EC100000CC100000AC100000C9459112F
:1000600006C100000C94D2140C94081500C10000C5
:10007000FEC00000FCC00000FAC00000F8C0000094
:10008000F6C00000F4C00000F2C00000F0C00000A4
:100090000C945E150C949415EAC00000E8C00000B2
:1000A000E6C00000E4C00000E2C00000E0C00000C4
:1000B000DEC00000DCC00000DAC00000D8C00000D4
:1000C000D6C00000D4C000000C942E0C0C94EA158D
:1000D0000C942016CCC000000C9476160C94AC1630
:1000E000C6C0000000000A0B02090C0D0E08070331
:1000F00004010000000000000000000000000000FB
:1001000000000000000000000000000000000000EF
:1001100012111000000000000000000000000000AC
:100120000000000000000000000001021020200874
:100130000810204010204080020102010804020142
:1001400001020408102040808040201008040201B1
:10015000800402018040201008040201080402010A
:100160000102040810204080010204081020408091
:1001700005050505070508080808020202020A0A23
:100180000808040404040101010101010101030341
:10019000030303030303040707070C0C0C0C0C0CEC
:1001A0000C0C0202020206060606060606060B0BE9
:1001B0000B0B0B0B0B0B000020002300260029006B
:1001C0002C002F003200000100000301060109018C
:1001D00000002200250028002B002E0031003400F2
:1001E00002010000050108010B01000021002400AC
:1001F00027002A002D003000330001010000040117
:1002000007010A013115BD154916D51611241FBE67
:10021000CFEFD1E2DEBFCDBF00E00CBF12E0A0E027
:10022000B2E0E6EBFEE200E00BBF02C007900D92E9
:10023000AE39B107D9F726E0AEE9B2E001C01D92B0
:10024000AC38B207E1F711E0C6E0D1E000E006C04B
:1002500021970109802FFE010E945117C230D1075A
:1002600080E00807A9F70E94940C0C945917C8CE97
:10027000FC01A781B0858C9191858923A481B581EA
:100280009C9140815181628173812681922359F032
:1002900081110BC04F5F5F4F6F4F7F4F4083518382
:1002A0006283738308958111F5CF4150510961092B
:1002B0007109F4CF8FE992E0DBCF8AEA92E0D8CFE0
:1002C00085EB92E0D5CF80EC92E0D2CFFC01A48107
:1002D000B5818C9196818923A781B0859C914081BD
:1002E0005181628173812185922359F0882359F0CD
:1002F0004F5F5F4F6F4F7F4F4083518362837383A4
:1003000008958823A9F34150510961097109F4CF77
:100310008FE992E0DBCF8AEA92E0D8CF85EB92E0DA
:10032000D5CF80EC92E0D2CF0F931F93CF93DF9382
:10033000D82FC62F8A01A0919E028BE0A89FD001E2
:100340001124A156BD4F1D921D921D921C92139710
:1003500081E01A968C931A978D2F90E0FC01E65D50
:10036000FE4FE4911696EC931697FC01E059FE4F70
:10037000E491F0E0EE0FFF1FEA54FE4F8591949157
:1003800015969C938E931497862F90E0FC01E65D62
:10039000FE4FE4911996EC931997FC01E059FE4F3A
:1003A000E491F0E0EE0FFF1FEA54FE4F8591949127
:1003B00018969C938E93179760E08D2F0E943F13A1
:1003C00060E08C2F0E943F1380919E02813009F4DF
:1003D0003FC0A8F0823009F462C0833009F486C0BF
:1003E00080919E0291E0980F90939E02F801808385
:1003F00090E080E0DF91CF911F910F91089580E010
:10040000D23049F081E0D33031F08EEE8D0F843060
:10041000D8F487E18D1B41E050E06AE571E00E946D
:10042000880F80E0C23049F081E0C33031F08EEEB9
:100430008C0F843058F487E18C1B41E050E068E871
:1004400071E00E94880FCCCF8FEFE5CF8FEFF5CF13
:1004500080E0D23049F081E0D33031F08EEE8D0F64
:100460008430C8F487E18D1B41E050E06DE571E018
:100470000E94880F80E0C23049F081E0C33031F043
:100480008EEE8C0F843048F487E18C1B41E050E005
:100490006BE871E0D6CF8FEFE7CF8FEFF7CF80E03B
:1004A000D23049F081E0D33031F08EEE8D0F8430C0
:1004B000C8F487E18D1B41E050E060E671E00E94E6
:1004C000880F80E0C23049F081E0C33031F08EEE19
:1004D0008C0F843048F487E18C1B41E050E06EE8DB
:1004E00071E0AFCF8FEFE7CF8FEFF7CF80E0D23063
:1004F00049F081E0D33031F08EEE8D0F8430C8F4B6
:1005000087E18D1B41E050E063E671E00E94880FB7
:1005100080E0C23049F081E0C33031F08EEE8C0FC4
:10052000843048F487E18C1B41E050E061E971E0E0
:1005300088CF8FEFE7CF8FEFF7CF9BE0899FF00158
:100540001124E156FD4F80819181A281B381FB018D
:1005500080839183A283B38390E080E008959BE041
:10056000899FF0011124E156FD4F10821182128201
:10057000138290E080E0089590E080E00895CF92AB
:10058000DF92EF92FF92CF93882351F16A017B01B2
:10059000CFEFC80F20E030E0A901CB01B6010E94E7
:1005A000300D18168CF0C701B60190580E94A10DAD
:1005B0009B01AC016C2F70E090E080E0CF91FF9048
:1005C000EF90DF90CF90B2C0C701B6010E949C0DA2
:1005D0008C2FCF91FF90EF90DF90CF900C9405126D
:1005E000CF91FF90EF90DF90CF9008950F931F93DE
:1005F0008B019C0183E036952795179507958A9581
:10060000D1F705531D4F462F477021E030E0F90127
:1006100002C0EE0FFF1F4A95E2F7AF01F8012081FB
:100620002423CB010196211102C090E080E01F91AC
:100630000F9108950F931F938B019C0183E03695D2
:100640002795179507958A95D1F7677081E090E017
:1006500001C0880F6A95EAF7F801E553FD4F208144
:10066000452B31F48095822380831F910F9108954B
:10067000822BFACF2F923F924F925F926F927F928E
:100680008F929F92AF92BF92CF92DF92EF92FF92A2
:100690000F931F93CF93DF93D62EC72E782E692EFC
:1006A00049015A01280161E08D2D0E943F13CD2D93
:1006B000DC2D8E010F5F1F4FA8016D2D7C2D872D26
:1006C000962DB8DF20E030E0A901C201B7010E94F9
:1006D000200F181664F4C201B7010E94A10D2B016E
:1006E000C501B4010E94A10DA201CE0123D0C80111
:1006F000DF91CF911F910F91FF90EF90DF90CF90FE
:10070000BF90AF909F908F907F906F905F904F9031
:100710003F902F900895882341F08150682F70E01A
:1007200090E080E050E040E085CF0895862FB90149
:100730000C9405129C01FC01EC51FF4FE491E15037
:10074000E231E0F4F0E08827E755FC4F8F4F0C943E
:100750005117BB03C203C503DC03F103BE03060448
:10076000120416042D04420457046E048304BE03CD
:100770009804AF04C40484B5806884BD60E0822F0F
:100780000C947B1384B58062F8CF809180008C7FBD
:1007900082608093800080918100807E8061682BE0
:1007A0006093810050938700409386008091800081
:1007B000806880938000E2CF809180008C7F82608F
:1007C0008093800080918100807E8061682B60939F
:1007D0008100509387004093860080918000806262
:1007E000E8CF809180008C7F826080938000809130
:1007F0008100807E8061682B609381005093870028
:1008000040938600809180008860D3CF8091B000B3
:1008100080688093B0008091B100887F682B6093DE
:10082000B100ACCF8091B0008062F3CF8091900096
:100830008C7F82608093900080919100807E8061A7
:10084000682B60939100509397004093960080919D
:10085000900080688093900091CF809190008C7F71
:1008600082608093900080919100807E8061682BEF
:100870006093910050939700409396008091900070
:100880008062E8CF809190008C7F8260809390009E
:1008900080919100807E8061682B609391005093DD
:1008A000970040939600809190008860D3CF80910C
:1008B000A0008C7F82608093A0008091A100807E48
:1008C0008061682B6093A1005093A7004093A6001D
:1008D0008091A00080688093A00050CF8091A000FC
:1008E0008C7F82608093A0008091A100807E8061D7
:1008F000682B6093A1005093A7004093A6008091BD
:10090000A0008062E8CF8091A0008C7F82608093FD
:10091000A0008091A100807E8061682B6093A1007F
:100920005093A7004093A6008091A0008860D3CF89
:10093000809120018C7F8260809320018091210131
:10094000807E8061682B6093210150932701409342
:100950002601809120018068809320010FCF809133
:1009600020018C7F82608093200180912101807E14
:100970008061682B609321015093270140932601E9
:10098000809120018062E8CF809120018C7F82607D
:100990008093200180912101807E8061682B60938B
:1009A0002101509327014093260180912001886006
:1009B000D3CF611102C00C943F136130E1F362E0C8
:1009C000FACF662319F061E00C947B1360E0FCCF52
:1009D0002F923F924F925F926F927F928F929F924F
:1009E000AF92BF92CF92DF92EF92FF920F931F933D
:1009F000CF93DF93CDB7DEB76A970FB6F894DEBF1B
:100A00000FBECDBF20913A0630913B0640913C0687
:100A100050913D0660913002709131028091320216
:100A200090913302B8D769877A878B879C8720910A
:100A30003E0630913F06409140065091410660913C
:100A40003402709135028091360290913702A3D71B
:100A50002B013C0120911C0230911D0240911E028D
:100A600050911F0269857A858B859C850E94240F91
:100A7000209146063091470640914806509149061C
:100A80008BD71B016C01E0902402F09025020091AD
:100A90002602109127029B01AC01B701C801E0D7E3
:100AA00087FD12C0E0901402F0901502009116022A
:100AB000109117029101A601B701C8010E94200FF1
:100AC000181614F071018601B701C8010E940A0EC0
:100AD0006B017C019FD6811153C3C701B60157D664
:100AE00081114EC320E030E040E857E4C701B60171
:100AF0000E94240E6B017C0120E030E0A901B0D7F8
:100B000087FF41C3C701B60190580E94A10DEE2492
:100B1000FF24E61AF70A2091180230911902409139
:100B20001A0250911B02C301B2010E94240F2091AE
:100B300042063091430640914406509145062CD719
:100B40001B016C010091200210912102A090220251
:100B5000B09023029B01AC01B801C50181D787FD8C
:100B600012C00091100210911102A0901202B090D8
:100B700013029101A601B801C5010E94200F1816A9
:100B800014F081015601B801C5010E940A0E4B0103
:100B90005C0140D68111FCC2C501B401F8D58111B8
:100BA000F7C220E030E040E857E4C501B4010E94FC
:100BB000240E4B015C0120E030E0A90151D787FFF2
:100BC000EAC2C501B4019058BCD700271127061B03
:100BD000170B6CE070E080E090E008DD6C01909312
:100BE0002906809328066091580270915902601777
:100BF000710744F060915A0270915B0260177107AF
:100C00000CF4B80177FF02C070E060E06F3F71053F
:100C100019F014F06FEF70E0072E000C880B990BA1
:100C2000BED7AB01BC01C601AADC69E070E080E080
:100C300090E0DCDC6C0190932106809320066091AB
:100C40005C0270915D026E157F0544F060915E025A
:100C500070915F026E157F050CF4B70177FF03C03A
:100C60007195619571096F3F710519F014F06FEF7F
:100C700070E0072E000C880B990B91D7AB01BC01DB
:100C8000C6017DDC6BE070E080E090E0AFDC6C01E1
:100C9000909319068093180660916002709161022A
:100CA0006017710744F060916202709163026017EF
:100CB00071070CF4B80177FF03C071956195710954
:100CC0006F3F710519F014F06FEF70E0072E000C04
:100CD000880B990B64D7AB01BC01C60150DC6AE0FC
:100CE00070E080E090E082DC6C01909311068093CC
:100CF000100660916402709165026E157F0544F0E4
:100D000060916602709167026E157F050CF4B70161
:100D100077FF02C070E060E06F3F710519F014F0DA
:100D20006FEF70E0072E000C880B990B38D7AB01E2
:100D3000BC01C60124DC61E080915402909155020F
:100D40008E159F0509F460E088E03BDE61E080914C
:100D50005602909157028017910709F460E08DE0E8
:100D600030DE209100023091010240910202509148
:100D70000302C301B2010E94240F6B8B7C8B8D8B0D
:100D80009E8B209104023091050240910602509101
:100D9000070269857A858B859C850E94240F6F8B5D
:100DA000788F898F9A8FC0902802D0902902E09086
:100DB0002A02F0902B02A70196016091050670911E
:100DC000060680910706909108064AD6882341F0CE
:100DD000C0920506D0920606E0920706F092080639
:100DE00080910406811110920406BE016F5F7F4F4F
:100DF00080910906A2DBC0902C02D0902D02E090D9
:100E00002E02F0902F02A70196016091F9057091D2
:100E1000FA058091FB059091FC0522D6882341F0CC
:100E2000C092F905D092FA05E092FB05F092FC051C
:100E30008091F80581111092F805BE016B5F7F4F1C
:100E40008091FD057ADB6091500270915102809192
:100E5000520290915302A3D620E030E040E05AE2E3
:100E6000F3D76B017C0169817A818B819C8197D654
:100E7000A7019601E9D769877A878B879C8760935A
:100E800062067093630680936406909365066D8195
:100E90007E818F81988583D6A7019601D5D76D87EE
:100EA0007E878F87988B6093660670936706809322
:100EB00068069093690680916803909169039A8B04
:100EC000898BDC01CD90DD90ED90FC9030904A064E
:100ED00020904B0600914C0610914D06A7019601FB
:100EE000632D722DC801ACD787FD5AC1A7019601A9
:100EF0006091560670915706809158069091590658
:100F00009FD787FD4DC110926A0610926B06109212
:100F10006C0610926D0610926E0610926F0610927B
:100F2000700610927106209148023091490240915A
:100F30004A0250914B0260916A0670916B06809153
:100F40006C0690916D0680D72B013C0140926A0699
:100F500050926B0660926C0670926D0620914C0266
:100F600030914D0240914E0250914F0260916E06B9
:100F700070916F06809170069091710665D76B0134
:100F80007C01C0926E06D0926F06E0927006F092DD
:100F900071068090380290903902A0903A02B09089
:100FA0003B02A5019401C301B2014ED79B01AC01E4
:100FB00060913A0670913B0680913C0690913D0607
:100FC000EBD460933A0670933B0680933C06909373
:100FD0003D06A5019401C701B60136D79B01AC01BE
:100FE00060913E0670913F068091400690914106C7
:100FF000D3D460933E0670933F068093400690934F
:1010000041062091400230914102409142025091AC
:1010100043026B897C898D899E8916D7209142066F
:10102000309143064091440650914506B5D46093F3
:1010300042067093430680934406909345062091A0
:1010400044023091450240914602509147026F8917
:10105000788D898D9A8DF8D6209146063091470675
:10106000409148065091490697D460934606709384
:101070004706809348069093490640907A06509020
:101080007B0660907C0670907D06A3019201632D23
:10109000722DC801E5D4E989FA89C080D180E28047
:1010A000F3808111DEC0C0924A06D0924B06E092D6
:1010B0004C06F0924D06EEE4F6E089859A85AB8504
:1010C000BC8580839183A283B3838D859E85AF8504
:1010D000B88984839583A683B78360915A037091FE
:1010E0005B0380915C0390915D036F5F7F4F8F4F37
:1010F0009F4F60935A0370935B0380935C039093BC
:101100005D034BD59B01AC0160915E0370915F0361
:10111000809160039091610397D6A989BA896D93F4
:101120007D938D939C9313978091620390916303B9
:10113000A0916403B09165030196A11DB11D809338
:10114000620390936303A0936403B09365036A966C
:101150000FB6F894DEBF0FBECDBFDF91CF911F91C8
:101160000F91FF90EF90DF90CF90BF90AF909F9046
:101170008F907F906F905F904F903F902F90089549
:10118000C12CD12C7601C701B601DBD47B01C3CCC5
:10119000812C912C5401C501B401D3D48B0119CDFC
:1011A0006090560670905706B0905806A090590669
:1011B00093014B2D5A2D632D722DC80151D4A701D7
:1011C000960187FF43C0B3018B2D9A2D49D487FD2B
:1011D00043C0632C722CB02EA12E9EE4892E96E083
:1011E000992E93014B2D5A2DC701B601D4D36B0113
:1011F0007C01F401208131814281538169857A85A6
:101200008B859C85C8D3A70196012ED460936A066E
:1012100070936B0680936C0690936D06D4011496C0
:101220002D913D914D915C9117976D857E858F85B0
:101230009889B1D3A701960117D460936E06709375
:101240006F0680937006909371066DCE632D722D9C
:10125000C801F6D587FDBDCF8AE5882E86E0982E99
:10126000C0CF8090560690905706A0905806B09038
:101270005906A5019401C301B201F2D381110BC03B
:10128000C0925606D0925706E0925806F092590640
:10129000EAE5F6E012CFA5019401632D722DC80195
:1012A000DFD387FFEDCFFFCE4F925F926F927F9299
:1012B000AF92BF92DF92EF92FF920F931F93CF9363
:1012C000DF9384E090E02CD2E4EDF2E086E693E058
:1012D00095838483C8E6D3E0D7AFC6AF0EE513E0AD
:1012E000138B028BF0933D03E0933C03F383E28383
:1012F00021E030E0DC012D933C9388E792E0918778
:1013000080878AE693E0998388834AE057ED63E219
:101310007CE3F801408351836283738380E0A82ECD
:1013200082E0B82EF50184AD95ADA6ADB7ADC2EFA4
:10133000D5E080933A0690933B06A0933C06B09389
:101340003D0680933E0690933F06A0934006B093DF
:10135000410680859185A285B3858093420690934E
:101360004306A0934406B093450684859585A685DB
:10137000B7858093460690934706A0934806B0939E
:10138000490680917A0690917B06A0917C06B091E7
:101390007D0680934A0690934B06A0934C06B0932B
:1013A0004D068093560690935706A0935806B09327
:1013B000590618AA412C512C3201439449AA5AAA21
:1013C0006BAA7CAAE12CF12C8701A80197016CE0A3
:1013D00070E080E090E04ED99FAB8EABDD24D394DB
:1013E000DDAA18A649A65AA66BA67CA6A801970155
:1013F00069E070E080E090E03DD99FA78EA7DDA670
:1014000018A249A25AA26BA27CA2A80197016BE084
:1014100070E080E090E02ED99FA38EA3DDA2188E0D
:10142000498E5A8E6B8E7C8EA80197016AE070E01F
:1014300080E090E01FD99F8F8E8FDD8E1092320654
:10144000409233065092340660923506709236060A
:1014500061E088E0AEDAD092370618AE49AE5AAEF7
:101460006BAE7CAE61E08DE0A4DADDAE1F8A1C8637
:10147000F50180A591A5A2A5B3A58B8B9C8BAD8B07
:10148000BE8B4D865E866F86788A49E056E063E1C2
:1014900082E10E949401D98A1A8A8F8960D81B86BA
:1014A0001882F50184A595A5A6A5B7A58F83988771
:1014B000A987BA8749825A826B827C824DEF55E0B8
:1014C00063E082E00E949401DD821E828B85DF91C1
:1014D000CF911F910F91FF90EF90DF90BF90AF9051
:1014E0007F906F905F904F903AC880912206811153
:1014F0002AC081E0809322068091230690912406E1
:10150000A0912506B09126060197A105B105D9F451
:10151000809127068823B9F06CE070E080E090E0CD
:1015200065D8909329068093280640E050E0BA01E0
:1015300026D86CE070E080E090E058D890932906BF
:1015400080932806E8D880911A0681112BC081E08B
:1015500080931A0680911B0690911C06A0911D068F
:10156000B0911E060197A105B105E1F480911F0617
:101570008823C1F069E070E080E090E037D8909374
:1015800021068093200640E050E0BA010E94BF028D
:1015900069E070E080E090E029D890932106809384
:1015A0002006B9D88091120681112CC081E0809369
:1015B00012068091130690911406A0911506B09121
:1015C00016060197A105B105E9F480911706882355
:1015D000C9F06BE070E080E090E008D890931906C5
:1015E0008093180640E050E0BA010E94BF026BE011
:1015F00070E080E090E00E94F602909319068093DC
:10160000180689D880910A0681112DC081E0809347
:101610000A0680910B0690910C06A0910D06B091E0
:101620000E060197A105B105F1F480910F068823FC
:10163000D1F06AE070E080E090E00E94F6029093C2
:1016400011068093100640E050E0BA010E94BF02EC
:101650006AE070E080E090E00E94F602909311064C
:101660008093100658D880913206811103C081E022
:101670008093320680912A06811103C081E0809315
:101680002A068091FE05811114C081E08093FE0539
:101690008091FF0590910006A0910106B09102068D
:1016A0000197A105B10529F48091030681110E94DB
:1016B000BC028091F205811114C081E08093F20593
:1016C0008091F3059091F405A091F505B091F60590
:1016D0000197A105B10529F48091F70581110C94BA
:1016E000BC02089560E070E080E89FE7089560E044
:1016F00070E080E89FE7089560E070E080E89FEF89
:10170000089560E070E080E89FEF089560E070E089
:1017100080EC9FEF089560E070E080EC9FEF08950B
:10172000F5DF60937E0670937F068093800690932A
:101730008106F1DF609372067093730680937406DE
:1017400090937506CFDF60937A0670937B06809343
:101750007C0690937D06CBDF6093760670937706C8
:101760008093780690937906C7DF60938206709322
:1017700083068093840690938506C3DF6093860674
:101780007093870680938806909389060895CF9278
:10179000DF92EF92FF92CF936B017C01AC019B0132
:1017A00060917A0670917B0680917C0690917D060F
:1017B00057D1C1E0882369F0A701960160918206A4
:1017C00070918306809184069091850649D181119C
:1017D000C0E08C2FCF91FF90EF90DF90CF900895D5
:1017E0000F931F938B019C010027112720783F77CF
:1017F0000115110520483F4749F4AB01BC016F7743
:10180000772781E0452B462B472B09F480E01F9179
:101810000F910895E5CF26E030E040E855E260E022
:1018200070E090E080E000C08130910571F01CF420
:10183000892B39F008958230910551F0039759F0C2
:1018400008958EE793E00C9472148BE194E0FBCF43
:1018500088EB94E0F8CF85E595E0F5CF1F920F92E5
:101860000FB60F9211240BB60F922F933F934F9305
:101870005F936F937F938F939F93AF93BF93EF93F8
:10188000FF938FE89DEF909325018093240134D03E
:10189000FF91EF91BF91AF919F918F917F916F9148
:1018A0005F914F913F912F910F900BBE0F900FBE04
:1018B0000F901F9018958FE89DEF909325018093CE
:1018C0002401A3E7B0E08C918E7F8C93E0E2F1E0FD
:1018D00080818C7F8083E1E2F1E08081877E80835C
:1018E00080818460808380818C7F80838C91816003
:1018F0008C93089581E008958091720391E0980F90
:1019000090937203882349F021E030E03093740310
:1019100020937303809372030895789459D8F894B0
:10192000809172038150F6CFCF93DF9310928B0694
:1019300010928A0608D56FDFC0918A02D0918B027F
:1019400019821882B1DCF894B6DF81E028813981F0
:10195000232B09F080E080938A0678947894809114
:101960008A06811107C0C1DDF89490E080E0DF9124
:10197000CF91089581E028813981232B09F480E0FB
:1019800080938B0690918B0681E0911180E080938B
:101990008A06B0DFE4CF5058BB27AA270ED0FFC17C
:1019A000F0D130F0F5D120F031F49F3F11F41EF466
:1019B000E5C10EF4E095E7FBB2C1E92F01D280F357
:1019C000BA17620773078407950718F071F49EF53C
:1019D00030C20EF4E0950B2EBA2FA02D0B01B901E9
:1019E00090010C01CA01A0011124FF27591B99F095
:1019F000593F50F4503E68F11A16F040A22F232FA1
:101A0000342F4427585FF3CF469537952795A795F0
:101A1000F0405395C9F77EF41F16BA0B620B730B97
:101A2000840BBAF09150A1F0FF0FBB1F661F771F08
:101A3000881FC2F70EC0BA0F621F731F841F48F4BD
:101A4000879577956795B795F7959E3F08F0B3CF43
:101A50009395880F08F09927EE0F9795879508952D
:101A60003AD108F481E008950CD099C191D140F0A9
:101A700088D130F021F45F3F19F051C15111DAC122
:101A80007DC19ED198F39923C9F35523B1F3951BDA
:101A9000550BBB27AA2762177307840738F09F5F8F
:101AA0005F4F220F331F441FAA1FA9F333D00E2EFE
:101AB0003AF0E0E830D091505040E695001CCAF76B
:101AC00029D0FE2F27D0660F771F881FBB1F261730
:101AD00037074807AB07B0E809F0BB0B802DBF0103
:101AE000FF2793585F4F2AF09E3F510568F017C1BA
:101AF000A1C15F3FECF3983EDCF38695779567953F
:101B0000B795F7959F5FC9F7880F911D96958795B3
:101B100097F90895E1E0660F771F881FBB1F6217D2
:101B200073078407BA0720F0621B730B840BBA0B90
:101B3000EE1F88F7E095089504D06894B1117AC13A
:101B4000089546D188F09F5790F0B92F9927B75143
:101B5000A0F0D1F0660F771F881F991F1AF0BA9571
:101B6000C9F712C0B13081F064D1B1E0089561C10C
:101B7000672F782F8827B85F39F0B93FCCF3869567
:101B800077956795B395D9F73EF4909580957095C4
:101B900061957F4F8F4F9F4F0895E89409C097FB41
:101BA0003EF490958095709561957F4F8F4F9F4F34
:101BB0009923A9F0F92F96E9BB279395F695879578
:101BC00077956795B795F111F8CFFAF4BB0F11F43B
:101BD00060FF1BC06F5F7F4F8F4F9F4F16C08823E2
:101BE00011F096E911C0772321F09EE8872F762F18
:101BF00005C0662371F096E8862F70E060E02AF059
:101C00009A95660F771F881FDAF7880F9695879544
:101C100097F90895F7D080F09F3740F491110EF0B6
:101C200009C160E070E080E89FEB089526F41B1680
:101C3000611D711D811D79C093C0A3D018F011F0F2
:101C4000A7D038F49BC0F6C0E92FBAD0B0F3552323
:101C5000C9F3E7FB6217730784079507A8F199F3A7
:101C6000E92FFF2788232AF03197660F771F881FF7
:101C7000DAF7952F5527442332F091505040220F28
:101C8000331F441FD2F7BB27E91BF50B621B730BF5
:101C9000840BB109C1F222F4620F731F841FB11DBE
:101CA00031972AF0660F771F881FBB1FEFCF915027
:101CB00050405AF041F0882332F0660F771F881F9A
:101CC00091505040C1F793954BC086957795679595
:101CD0009F5FD9F7F8CF990F0008550FAA0BE0E8DE
:101CE000FEEF16161706E807F907C0F012161306DE
:101CF000E407F50798F0621B730B840B950B39F41E
:101D00000A2661F0232B242B252B21F408950A2683
:101D100009F4A140A6958FEF811D811D089597F9C3
:101D20009F6780E870E060E00895882371F477236E
:101D300021F09850872B762F07C0662311F499273E
:101D40000DC09051862B70E060E02AF09A95660FE6
:101D5000771F881FDAF7880F9695879597F908956A
:101D60009F3F31F0915020F4879577956795B7950F
:101D7000880F911D9695879597F908959FEF80ECB0
:101D8000089500240A9416161706180609060895E1
:101D900000240A9412161306140605060895092E47
:101DA0000394000C11F4882352F0BB0F40F4BF2BB6
:101DB00011F460FF04C06F5F7F4F8F4F9F4F0895F6
:101DC00057FD9058440F551F59F05F3F71F04795EC
:101DD000880F97FB991F61F09F3F79F087950895D1
:101DE000121613061406551FF2CF4695F1DF08C0F0
:101DF000161617061806991FF1CF8695710561050D
:101E000008940895E5DFA0F0BEE7B91788F4BB2772
:101E10009F3860F41616B11D672F782F8827985FBA
:101E2000F7CF869577956795B11D93959639C8F349
:101E30000895E894BB2766277727CB0197F9089583
:101E40004ADF08F48FEF08950BD0A9CF9ADF28F06E
:101E50009FDF18F0952309F062CF90CF1124EACFCD
:101E6000AFDFA0F3959FD1F3950F50E0551F629F10
:101E7000F001729FBB27F00DB11D639FAA27F00DE3
:101E8000B11DAA1F649F6627B00DA11D661F829F0A
:101E90002227B00DA11D621F739FB00DA11D621FEF
:101EA000839FA00D611D221F749F3327A00D611D0C
:101EB000231F849F600D211D822F762F6A2F1124EE
:101EC0009F5750408AF0E1F088234AF0EE0FFF1F41
:101ED000BB1F661F771F881F91505040A9F79E3F78
:101EE000510570F01CCFA6CF5F3FECF3983EDCF3BA
:101EF000869577956795B795F795E7959F5FC1F7B5
:101F0000FE2B880F911D9695879597F90895089552
:101F1000883008F075C0E82FF0E0EE0FFF1FE85999
:101F2000FD4F718360838150873008F03CC0E82FFB
:101F3000F0E08827E256F04F8F4FB3C7DB0FA50FB5
:101F4000AD0FB90FC60FE70FF40F809169008C7FBA
:101F5000482B40936900E89A089580916900837F37
:101F6000440F551F440F551F482B40936900E99AB1
:101F70000895809169008F7C74E0440F551F7A9515
:101F8000E1F7482B40936900EA9A0895809169002F
:101F90008F7366E0440F551F6A95E1F7482B409315
:101FA0006900EB9A089580916A008C7F482B4093DA
:101FB0006A00EC9A089580916A00837F440F551F50
:101FC000440F551F482B40936A00ED9A0895809165
:101FD0006A008F7C24E0440F551F2A95E1F7482BB7
:101FE00040936A00EE9A089580916A008F7396E09C
:101FF000440F551F9A95E1F7482B40936A00EF9ADA
:1020000008951F920F920FB60F9211240BB60F92E4
:102010002F933F934F935F936F937F938F939F93F0
:10202000AF93BF93EF93FF93E0916C02F0916D0239
:102030001995FF91EF91BF91AF919F918F917F91F2
:102040006F915F914F913F912F910F900BBE0F9029
:102050000FBE0F901F9018951F920F920FB60F9200
:1020600011240BB60F922F933F934F935F936F936F
:102070007F938F939F93AF93BF93EF93FF93E091E1
:102080006E02F0916F021995FF91EF91BF91AF91A0
:102090009F918F917F916F915F914F913F912F9180
:1020A0000F900BBE0F900FBE0F901F9018951F92B0
:1020B0000F920FB60F9211240BB60F922F933F93EE
:1020C0004F935F936F937F938F939F93AF93BF9340
:1020D000EF93FF93E0917002F09171021995FF91D7
:1020E000EF91BF91AF919F918F917F916F915F9190
:1020F0004F913F912F910F900BBE0F900FBE0F90FD
:102100001F9018951F920F920FB60F9211240BB6C5
:102110000F922F933F934F935F936F937F938F9380
:102120009F93AF93BF93EF93FF93E0917202F0916F
:1021300073021995FF91EF91BF91AF919F918F918C
:102140007F916F915F914F913F912F910F900BBEB7
:102150000F900FBE0F901F9018951F920F920FB601
:102160000F9211240BB60F922F933F934F935F93CF
:102170006F937F938F939F93AF93BF93EF93FF934F
:10218000E0916802F09169021995FF91EF91BF917A
:10219000AF919F918F917F916F915F914F913F91FF
:1021A0002F910F900BBE0F900FBE0F901F901895A0
:1021B0001F920F920FB60F9211240BB60F922F930E
:1021C0003F934F935F936F937F938F939F93AF93BF
:1021D000BF93EF93FF93E0916A02F0916B02199520
:1021E000FF91EF91BF91AF919F918F917F916F91EF
:1021F0005F914F913F912F910F900BBE0F900FBEAB
:102200000F901F9018951F920F920FB60F921124E6
:102210000BB60F922F933F934F935F936F937F93E0
:102220008F939F93AF93BF93EF93FF93E0917402CB
:10223000F09175021995FF91EF91BF91AF919F9128
:102240008F917F916F915F914F913F912F910F905F
:102250000BBE0F900FBE0F901F9018951F920F92FC
:102260000FB60F9211240BB60F922F933F934F93FB
:102270005F936F937F938F939F93AF93BF93EF93EE
:10228000FF93E0917602F09177021995FF91EF911B
:10229000BF91AF919F918F917F916F915F914F917E
:1022A0003F912F910F900BBE0F900FBE0F901F907C
:1022B00018951F920F920FB60F9211242F933F93F0
:1022C0008F939F93AF93BF93809176039091770301
:1022D000A0917803B09179033091750323E0230F27
:1022E0002D3758F50196A11DB11D209375038093DC
:1022F000760390937703A0937803B093790380914A
:102300007A0390917B03A0917C03B0917D030196A9
:10231000A11DB11D80937A0390937B03A0937C034E
:10232000B0937D03BF91AF919F918F913F912F917A
:102330000F900FBE0F901F90189526E8230F02965E
:10234000A11DB11DD2CF789484B5826084BD84B5BF
:10235000816084BD85B5826085BD85B5816085BDA0
:10236000EEE6F0E0808181608083E1E8F0E01082B9
:10237000808182608083808181608083E0E8F0E0FA
:10238000808181608083E1EBF0E0808184608083E4
:10239000E0EBF0E0808181608083E1E9F0E0808122
:1023A00082608083808181608083E0E9F0E08081C9
:1023B00081608083E1EAF0E08081826080838081B7
:1023C00081608083E0EAF0E0808181608083E1E2E7
:1023D000F1E0808182608083808181608083E0E29F
:1023E000F1E0808181608083EAE7F0E080818460B1
:1023F000808380818260808380818160808380810E
:10240000806880831092C10008951F93CF93DF935B
:10241000182FEB0161E033D1209731F460E0812F78
:10242000DF91CF911F9167C1CF3FD10511F461E0DA
:10243000F6CFE12FF0E0EC51FF4FE491E150E231B3
:1024400008F0B2C0F0E08827E85DFD4E8F4F29C547
:102450003A124212471251125B12D41265126D12D7
:1024600075127F1289129312A212AC12D412B612F4
:10247000C012CA1284B5806884BDC7BDDF91CF91F8
:102480001F91089584B5806284BDC8BDF7CF809147
:102490008000806880938000D0938900C09388007A
:1024A000EDCF80918000806280938000D0938B007C
:1024B000C0938A00E3CF8091800088608093800081
:1024C000D0938D00C0938C00D9CF8091B0008068EC
:1024D0008093B000C093B300D1CF8091B0008062F0
:1024E0008093B000C093B400C9CF80919000806801
:1024F00080939000D0939900C0939800BFCF8091B3
:102500009000806280939000D0939B00C0939A00CB
:10251000B5CF80919000886080939000D0939D000B
:10252000C0939C00ABCF8091A00080688093A000F6
:102530008091A0008F7B8093A000D093A900C093CE
:10254000A8009CCF8091A00080628093A000D093CF
:10255000AB00C093AA0092CF8091A00088608093C6
:10256000A000D093AD00C093AC0088CF8091200133
:10257000806880932001D0932901C09328017ECFE9
:1025800080912001806280932001D0932B01C09321
:102590002A0174CF80912001886080932001D0931C
:1025A0002D01C0932C016ACFC038D1050CF03FCF6C
:1025B00035CF8150823108F059C0E82FF0E08827EC
:1025C000EC51FD4E8F4F6DC404130813F612FC122C
:1025D000001336130B13111315131B131F1323139F
:1025E00029132D133613311337133B1380918000B9
:1025F0008F77809380000895809180008F7DF9CF40
:1026000080918000877FF5CF84B58F7784BD089552
:1026100084B58F7DFBCF8091B0008F778093B00021
:1026200008958091B0008F7DF9CF809190008F77D1
:10263000809390000895809190008F7DF9CF8091D4
:102640009000877FF5CF8091A0008F778093A000C6
:1026500008958091A0008F7DF9CF8091A000877FA1
:10266000F5CF809120018F7780932001089580918C
:1026700020018F7DF9CF80912001877FF5CFCF9307
:10268000DF9390E0FC01E65DFE4F249180599E4F60
:10269000FC0184918823C9F090E0880F991FFC0108
:1026A000E651FE4FA591B491FC01E053FE4FC59158
:1026B000D49161110DC09FB7F8948C91209582231D
:1026C0008C938881282328839FBFDF91CF91089521
:1026D000623051F49FB7F8943C91822F8095832308
:1026E0008C93E8812E2BEFCF8FB7F894EC912E2BA3
:1026F0002C938FBFEACF1F93CF93DF93282F30E027
:10270000F901EC51FF4F8491F901E65DFE4FD49140
:10271000F901E059FE4FC491CC23A1F0162F81118D
:1027200048DFEC2FF0E0EE0FFF1FE053FE4FA591C6
:10273000B4918FB7F894EC91111108C0D095DE23B5
:10274000DC938FBFDF91CF911F910895DE2BF8CFDF
:10275000FC01918D228D892F90E0805C9F4F821B20
:1027600091098F7399270895FC01918D828D981797
:1027700031F0828DE80FF11D858D90E008958FEF87
:102780009FEF0895FC01918D828D981761F0A28DC5
:10279000AE0FBF2FB11D5D968C91928D9F5F9F7381
:1027A000928F90E008958FEF9FEF0895FC01538D75
:1027B000448D252F30E0842F90E0821B930B54171B
:1027C00010F0CF96089501970895FC01A48DA80FED
:1027D000B92FB11DA35ABF4F2C91848D90E0019663
:1027E0008F739927848FA689B7892C93A089B18983
:1027F0008C91837080648C93938D848D981306C024
:102800000288F389E02D80818F7D80830895CF93A6
:10281000DF93EC01888D8823B1F0AA89BB89E88910
:10282000F9898C9185FD03C0808186FD0CC00FB6AF
:1028300007FCF7CF8C9185FFF2CF808185FFEDCF2C
:10284000CE01C3DFEACFDF91CF910895EF92FF92DF
:102850000F931F93CF93DF93EC0181E0888F9B8DC3
:102860008C8D98131AC0E889F989808185FF15C07D
:102870009FB7F894EE89FF896083E889F9898081A0
:102880008370806480839FBF81E090E0DF91CF916F
:102890001F910F91FF90EF900895F62E0B8D10E091
:1028A0000F5F1F4F0F731127E02E8C8D8E110BC001
:1028B0000FB607FCFACFE889F989808185FFF5CF4B
:1028C000CE0183DFF2CFEB8DEC0FFD2FF11DE35A2C
:1028D000FF4FF0829FB7F8940B8FEA89FB898081C4
:1028E0008062D0CFCF92DF92EF92FF921F93CF936F
:1028F000DF93EC016A017B01122FE889F98982E0FC
:102900008083C11481EED806E104F10499F060E0FF
:1029100079E08DE390E0A7019601A1D22150310921
:10292000410951095695479537952795211580E11D
:10293000380790F0E889F989108260E874E88EE140
:1029400090E0A70196018BD221503109410951092C
:102950005695479537952795EC85FD853083EE850F
:10296000FF852083188EEC89FD891083EA89FB8915
:10297000808180618083EA89FB898081886080838F
:10298000EA89FB89808180688083EA89FB8980816C
:102990008F7D8083DF91CF911F91FF90EF90DF902B
:1029A000CF9008951F920F920FB60F9211240BB67D
:1029B0000F922F938F939F93EF93FF93E0918E034A
:1029C000F0918F038081E0919403F091950382FD53
:1029D0001DC09081809197038F5F8F732091980322
:1029E000821741F0E0919703F0E0E258FC4F958F99
:1029F00080939703FF91EF919F918F912F910F906B
:102A00000BBE0F900FBE0F901F9018958081F2CFD4
:102A10001F920F920FB60F9211240BB60F922F93A5
:102A20003F934F935F936F937F938F939F93AF9356
:102A3000BF93EF93FF938EE793E0C7DEFF91EF9193
:102A4000BF91AF919F918F917F916F915F914F91C6
:102A50003F912F910F900BBE0F900FBE0F901F90C4
:102A60001895EEE7F3E01382128288EE93E0A0E07F
:102A7000B0E084839583A683B78380E992E0918355
:102A8000808385EC90E09587848784EC90E097873D
:102A9000868780EC90E0918B808B81EC90E0938B2B
:102AA000828B82EC90E0958B848B86EC90E0978B08
:102AB000868B118E128E138E148E08951F920F9294
:102AC0000FB60F9211240BB60F922F938F939F93F3
:102AD000EF93FF93E0912B04F0912C048081E0911F
:102AE0003104F091320482FD1DC090818091340444
:102AF0008F5F8F7320913504821741F0E091340489
:102B0000F0E0E55EFB4F958F80933404FF91EF91E9
:102B10009F918F912F910F900BBE0F900FBE0F9032
:102B20001F9018958081F2CF1F920F920FB60F92CF
:102B300011240BB60F922F933F934F935F936F9394
:102B40007F938F939F93AF93BF93EF93FF938BE10B
:102B500094E03BDEFF91EF91BF91AF919F918F91F8
:102B60007F916F915F914F913F912F910F900BBE8D
:102B70000F900FBE0F901F901895EBE1F4E01382B9
:102B8000128288EE93E0A0E0B0E084839583A68370
:102B9000B78380E992E0918380838DEC90E0958704
:102BA00084878CEC90E09787868788EC90E0918B07
:102BB000808B89EC90E0938B828B8AEC90E0958BF4
:102BC000848B8EEC90E0978B868B118E128E138EF9
:102BD000148E08951F920F920FB60F9211240BB608
:102BE0000F922F938F939F93EF93FF93E091C804DD
:102BF000F091C9048081E091CE04F091CF0482FD70
:102C00001DC090818091D1048F5F8F732091D20479
:102C1000821741F0E091D104F0E0E854FB4F958F2A
:102C20008093D104FF91EF919F918F912F910F90FD
:102C30000BBE0F900FBE0F901F9018958081F2CFA2
:102C40001F920F920FB60F9211240BB60F922F9373
:102C50003F934F935F936F937F938F939F93AF9324
:102C6000BF93EF93FF9388EB94E0AFDDFF91EF917B
:102C7000BF91AF919F918F917F916F915F914F9194
:102C80003F912F910F900BBE0F900FBE0F901F9092
:102C90001895E8EBF4E01382128288EE93E0A0E04E
:102CA000B0E084839583A683B78380E992E0918323
:102CB000808385ED90E09587848784ED90E0978709
:102CC000868780ED90E0918B808B81ED90E0938BF7
:102CD000828B82ED90E0958B848B86ED90E0978BD4
:102CE000868B118E128E138E148E08951F920F9262
:102CF0000FB60F9211240BB60F922F938F939F93C1
:102D0000EF93FF93E0916505F09166058081E09176
:102D10006B05F0916C0582FD1DC0908180916E0560
:102D20008F5F8F7320916F05821741F0E0916E05E0
:102D3000F0E0EB5AFA4F958F80936E05FF91EF917B
:102D40009F918F912F910F900BBE0F900FBE0F9000
:102D50001F9018958081F2CF1F920F920FB60F929D
:102D600011240BB60F922F933F934F935F936F9362
:102D70007F938F939F93AF93BF93EF93FF9385E5DB
:102D800095E023DDFF91EF91BF91AF919F918F91DE
:102D90007F916F915F914F913F912F910F900BBE5B
:102DA0000F900FBE0F901F901895E5E5F5E0138288
:102DB000128288EE93E0A0E0B0E084839583A6833E
:102DC000B78380E992E09183808385E391E09587E2
:102DD000848784E391E09787868780E391E0918BF5
:102DE000808B81E391E0938B828B82E391E0958BE2
:102DF000848B86E391E0978B868B118E128E138ED7
:102E0000148E0895AF92BF92CF92DF92EF92FF920D
:102E10000F931F93CF93DF936C017B018B01040F02
:102E2000151FEB015E01AE18BF08C017D10759F09E
:102E30006991D601ED91FC910190F081E02DC601E0
:102E40001995892B79F7C501DF91CF911F910F91CA
:102E5000FF90EF90DF90CF90BF90AF900895A1E2E8
:102E60001A2EAA1BBB1BFD010DC0AA1FBB1FEE1F04
:102E7000FF1FA217B307E407F50720F0A21BB30B4F
:102E8000E40BF50B661F771F881F991F1A9469F7CB
:102E900060957095809590959B01AC01BD01CF0127
:102EA0000895EE0FFF1F881F8BBF0790F691E02D4E
:062EB0001994F894FFCF15
:102EB60052D2754018C37B4000000000000000009D
:102EC60000007FC300007FC3EF20A7432D0BAA435A
:102ED60000007F4300007F43000080BF000080BFEA
:102EE600CDCC8C3FCDCC8C3F0AD7233C00000000D4
:102EF6000AD7233C0AD7233C0000803F0000803FCE
:102F06008883954800000000FF000000000001FFD4
:102F1600000001FFFF000000870F870F870F870F54
:102F2600870F870F870F870F466978656453746527
:102F360070446973637265746500D4020000000012
:0E2F460026140217D6130714A813C213B413CF
:00000001FF
