:1000000005C100000C942B110C9456110C94811115
:100010000C94AC110C94D7110C9402120C942D1268
:100020000C94581224C1000022C1000020C100001D
:100030001EC100001CC100001AC1000018C1000050
:1000400016C1000014C1000012C1000010C1000060
:100050000EC100000CC100000AC100000C94831204
:1000600006C100000C94FC150C94321600C100006F
:10007000FEC00000FCC00000FAC00000F8C0000094
:10008000F6C00000F4C00000F2C00000F0C00000A4
:100090000C9488160C94BE16EAC00000E8C000005C
:1000A000E6C00000E4C00000E2C00000E0C00000C4
:1000B000DEC00000DCC00000DAC00000D8C00000D4
:1000C000D6C00000D4C000000C94BF0D0C941417CF
:1000D0000C944A17CCC000000C94A0170C94D617AF
:1000E000C6C0000000000A0B02090C0D0E08070331
:1000F00004010000000000000000000000000000FB
:1001000000000000000000000000000000000000EF
:1001100012111000000000000000000000000000AC
:100120000000000000000000000001021020200874
:100130000810204010204080020102010804020142
:1001400001020408102040808040201008040201B1
:10015000800402018040201008040201080402010A
:100160000102040810204080010204081020408091
:1001700005050505070508080808020202020A0A23
:100180000808040404040101010101010101030341
:10019000030303030303040707070C0C0C0C0C0CEC
:1001A0000C0C0202020206060606060606060B0BE9
:1001B0000B0B0B0B0B0B000020002300260029006B
:1001C0002C002F003200000100000301060109018C
:1001D00000002200250028002B002E0031003400F2
:1001E00002010000050108010B01000021002400AC
:1001F00027002A002D003000330001010000040117
:1002000007010A015B16E7167317FF1711241FBEBB
:10021000CFEFD1E2DEBFCDBF00E00CBF13E0A0E026
:10022000B2E0EAE0F1E300E00BBF02C007900D92FC
:10023000A233B107D9F727E0A2E3B3E001C01D92D2
:10024000A833B207E1F711E0C6E0D1E000E006C054
:1002500021970109802FFE010E947B18C230D1072F
:1002600080E00807A9F70E94260E0C948318C8CED8
:10027000FC01A781B0858C9191858923A481B581EA
:100280009C9140815181628173812681922359F032
:1002900081110BC04F5F5F4F6F4F7F4F4083518382
:1002A0006283738308958111F5CF4150510961092B
:1002B0007109F4CF83E393E0DBCF8EE393E0D8CFF3
:1002C00089E493E0D5CF84E593E0D2CFFC01A4810B
:1002D000B5818C9196818923A781B0859C914081BD
:1002E0005181628173812185922359F0882359F0CD
:1002F0004F5F5F4F6F4F7F4F4083518362837383A4
:1003000008958823A9F34150510961097109F4CF77
:1003100083E393E0DBCF8EE393E0D8CF89E493E0EF
:10032000D5CF84E593E0D2CF0F931F93CF93DF9384
:10033000D82FC62F8A01A09132038BE0A89FD0014D
:100340001124AD5CBC4F1D921D921D921C921397FF
:1003500081E01A968C931A978D2F90E0FC01E65D50
:10036000FE4FE4911696EC931697FC01E059FE4F70
:10037000E491F0E0EE0FFF1FEA54FE4F8591949157
:1003800015969C938E931497862F90E0FC01E65D62
:10039000FE4FE4911996EC931997FC01E059FE4F3A
:1003A000E491F0E0EE0FFF1FEA54FE4F8591949127
:1003B00018969C938E93179760E08D2F0E94691476
:1003C00060E08C2F0E94691480913203813009F41F
:1003D0003FC0A8F0823009F462C0833009F486C0BF
:1003E0008091320391E0980F90933203F80180835B
:1003F00090E080E0DF91CF911F910F91089580E010
:10040000D23049F081E0D33031F08EEE8D0F843060
:10041000D8F487E18D1B41E050E06AE571E00E946D
:10042000B21080E0C23049F081E0C33031F08EEE8E
:100430008C0F843058F487E18C1B41E050E068E871
:1004400071E00E94B210CCCF8FEFE5CF8FEFF5CFE8
:1004500080E0D23049F081E0D33031F08EEE8D0F64
:100460008430C8F487E18D1B41E050E06DE571E018
:100470000E94B21080E0C23049F081E0C33031F018
:100480008EEE8C0F843048F487E18C1B41E050E005
:100490006BE871E0D6CF8FEFE7CF8FEFF7CF80E03B
:1004A000D23049F081E0D33031F08EEE8D0F8430C0
:1004B000C8F487E18D1B41E050E060E671E00E94E6
:1004C000B21080E0C23049F081E0C33031F08EEEEE
:1004D0008C0F843048F487E18C1B41E050E06EE8DB
:1004E00071E0AFCF8FEFE7CF8FEFF7CF80E0D23063
:1004F00049F081E0D33031F08EEE8D0F8430C8F4B6
:1005000087E18D1B41E050E063E671E00E94B2108C
:1005100080E0C23049F081E0C33031F08EEE8C0FC4
:10052000843048F487E18C1B41E050E061E971E0E0
:1005300088CF8FEFE7CF8FEFF7CF9BE0899FF00158
:100540001124ED5CFC4F80819181A281B381FB017C
:1005500080839183A283B38390E080E008959BE041
:10056000899FF0011124ED5CFC4F108211821282F0
:10057000138290E080E0089590E080E00895CF92AB
:10058000DF92EF92FF92CF93882351F16A017B01B2
:10059000CFEFC80F20E030E0A901CB01B6010E94E7
:1005A000C20E18168CF0C701B60190580E94CB0EEF
:1005B0009B01AC016C2F70E090E080E0CF91FF9048
:1005C000EF90DF90CF90B2C0C701B6010E94C60E77
:1005D0008C2FCF91FF90EF90DF90CF900C942F1342
:1005E000CF91FF90EF90DF90CF9008950F931F93DE
:1005F0008B019C0183E036952795179507958A9581
:10060000D1F7015A1C4F462F477021E030E0F90125
:1006100002C0EE0FFF1F4A95E2F7AF01F8012081FB
:100620002423CB010196211102C090E080E01F91AC
:100630000F9108950F931F938B019C0183E03695D2
:100640002795179507958A95D1F7677081E090E017
:1006500001C0880F6A95EAF7F801E15AFC4F208142
:10066000452B31F48095822380831F910F9108954B
:10067000822BFACF2F923F924F925F926F927F928E
:100680008F929F92AF92BF92CF92DF92EF92FF92A2
:100690000F931F93CF93DF93D62EC72E782E692EFC
:1006A00049015A01280161E08D2D0E946914CD2D68
:1006B000DC2D8E010F5F1F4FA8016D2D7C2D872D26
:1006C000962DB8DF20E030E0A901C201B7010E94F9
:1006D0004A10181664F4C201B7010E94CB0E2B0118
:1006E000C501B4010E94CB0EA201CE0123D0C801E6
:1006F000DF91CF911F910F91FF90EF90DF90CF90FE
:10070000BF90AF909F908F907F906F905F904F9031
:100710003F902F900895882341F08150682F70E01A
:1007200090E080E050E040E085CF0895862FB90149
:100730000C942F139C01FC01EC51FF4FE491E1500C
:10074000E231E0F4F0E08827E755FC4F8F4F0C943E
:100750007B18BB03C203C503DC03F103BE0306041D
:10076000120416042D04420457046E048304BE03CD
:100770009804AF04C40484B5806884BD60E0822F0F
:100780000C94A51484B58062F8CF809180008C7F92
:1007900082608093800080918100807E8061682BE0
:1007A0006093810050938700409386008091800081
:1007B000806880938000E2CF809180008C7F82608F
:1007C0008093800080918100807E8061682B60939F
:1007D0008100509387004093860080918000806262
:1007E000E8CF809180008C7F826080938000809130
:1007F0008100807E8061682B609381005093870028
:1008000040938600809180008860D3CF8091B000B3
:1008100080688093B0008091B100887F682B6093DE
:10082000B100ACCF8091B0008062F3CF8091900096
:100830008C7F82608093900080919100807E8061A7
:10084000682B60939100509397004093960080919D
:10085000900080688093900091CF809190008C7F71
:1008600082608093900080919100807E8061682BEF
:100870006093910050939700409396008091900070
:100880008062E8CF809190008C7F8260809390009E
:1008900080919100807E8061682B609391005093DD
:1008A000970040939600809190008860D3CF80910C
:1008B000A0008C7F82608093A0008091A100807E48
:1008C0008061682B6093A1005093A7004093A6001D
:1008D0008091A00080688093A00050CF8091A000FC
:1008E0008C7F82608093A0008091A100807E8061D7
:1008F000682B6093A1005093A7004093A6008091BD
:10090000A0008062E8CF8091A0008C7F82608093FD
:10091000A0008091A100807E8061682B6093A1007F
:100920005093A7004093A6008091A0008860D3CF89
:10093000809120018C7F8260809320018091210131
:10094000807E8061682B6093210150932701409342
:100950002601809120018068809320010FCF809133
:1009600020018C7F82608093200180912101807E14
:100970008061682B609321015093270140932601E9
:10098000809120018062E8CF809120018C7F82607D
:100990008093200180912101807E8061682B60938B
:1009A0002101509327014093260180912001886006
:1009B000D3CF611102C00C9469146130E1F362E09D
:1009C000FACF662319F061E00C94A51460E0FCCF27
:1009D0002F923F924F925F926F927F928F929F924F
:1009E000AF92BF92CF92DF92EF92FF920F931F933D
:1009F000CF93DF93CDB7DEB76C970FB6F894DEBF19
:100A00000FBECDBF2090FC033090FD03D1014D906F
:100A10005D906D907C9080900E0790900F07A301E1
:100A20009201F40160817181828193810E944A1058
:100A300018160CF412C5A0901007B0901107D4013D
:100A40005C96CD90DD90ED90FC905F97A3019201B4
:100A5000C701B6010E94C20E8111ACC4F501648DBC
:100A6000758D868D978D2091F2063091F306409119
:100A7000F4065091F5060E945D0E4B015C018092D8
:100A80009E0690929F06A092A006B092A106F10148
:100A90004080518062807380209014073090150749
:100AA000A3019201D1016D917D918D919C910E9444
:100AB0004A1018160CF42AC5E0911607F091170792
:100AC000FA87E987D1011C96CD90DD90ED90FC90DE
:100AD0001F97A3019201C701B6010E94C20E8111A6
:100AE000C0C4E985FA85448455846684778420915E
:100AF0008402309185024091860250918702C5019F
:100B0000B4010E944E102091EE063091EF06409104
:100B1000F0065091F1060E945E0E4B015C0120919F
:100B2000A0023091A1024091A2025091A302C30100
:100B3000B2010E944E106B017C012091A8023091FD
:100B4000A9024091AA025091AB02C501B4010E94D2
:100B50004E109B01AC01C701B6010E945E0E2091B0
:100B600006073091070740910807509109070E9436
:100B70005D0E6B017C01C092A206D092A306E092AA
:100B8000A406F092A5062091A4023091A5024091FE
:100B9000A6025091A702C301B2010E944E102B0180
:100BA0003C012091AC023091AD024091AE025091D7
:100BB000AF02C501B4010E944E109B01AC01C301FC
:100BC000B2010E945E0E20910A0730910B074091FE
:100BD0000C0750910D070E945D0E4B015C012091A6
:100BE0008C0230918D0240918E0250918F02C7018C
:100BF000B6010E944E102091FA063091FB064091FA
:100C0000FC065091FD060E945E0E3B016C01E090D7
:100C10009402F090950200919602109197029B0128
:100C2000AC01B701C8010E94C20E87FD12C0E0905E
:100C30008002F09081020091820210918302930160
:100C4000A601B701C8010E944A10181614F07301DA
:100C50008601B701C8010E94340F6B017C016CD77B
:100C6000811158C4C701B60124D7811153C420E0B3
:100C700030E040E857E4C701B6010E944E0F6B0117
:100C80007C0120E030E0A9010E94C20E87FF45C42C
:100C9000C701B60190580E94CB0EEE24FF24E61A3D
:100CA000F70A209188023091890240918A0250917E
:100CB0008B02C501B4010E944E102091F6063091BE
:100CC000F7064091F8065091F906F8D72B013C0140
:100CD000C0909002D09091020091920210919302E4
:100CE0009B01AC01B601C8010E94C20E87FD12C073
:100CF000C0907C02D0907D0200917E0210917F0214
:100D00009201A301B601C8010E944A10181614F0FE
:100D100062018301B601C8010E94340F2B013C011E
:100D20000BD78111FFC3C301B201C3D68111FAC32E
:100D300020E030E040E857E4C301B2010E944E0FCA
:100D40002B013C0120E030E0A9010E94C20E87FF88
:100D5000ECC3C301B20190580E94CB0E00271127AB
:100D6000061B170B6CE070E080E090E03FDC6C014C
:100D70009093DD068093DC066091EC027091ED02A9
:100D80006017710744F06091EE027091EF026017F6
:100D900071070CF4B80177FF02C070E060E06F3FAC
:100DA000710519F014F06FEF70E0072E000C880B3E
:100DB000990B0E94F90EAB01BC01C601E0DB69E0B2
:100DC00070E080E090E012DC6C019093D506809397
:100DD000D4066091F0027091F1026E157F0544F027
:100DE0006091F2027091F3026E157F050CF4B70169
:100DF00077FF03C07195619571096F3F710519F017
:100E000014F06FEF70E0072E000C880B990BF1D7F0
:100E1000AB01BC01C601B3DB6BE070E080E090E0A9
:100E2000E5DB6C019093CD068093CC066091F402D3
:100E30007091F5026017710744F06091F6027091AD
:100E4000F702601771070CF4B80177FF03C07195C2
:100E5000619571096F3F710519F014F06FEF70E043
:100E6000072E000C880B990BC4D7AB01BC01C6013F
:100E700086DB6AE070E080E090E0B8DB6C01909384
:100E8000C5068093C4066091F8027091F9026E1550
:100E90007F0544F06091FA027091FB026E157F05A8
:100EA0000CF4B70177FF02C070E060E06F3F71059E
:100EB00019F014F06FEF70E0072E000C880B990BFF
:100EC00098D7AB01BC01C6015ADB61E08091E80212
:100ED0009091E9028E159F0509F460E088E071DDCC
:100EE00061E08091EA029091EB028017910709F48A
:100EF00060E08DE066DD20916002309161024091FA
:100F0000620250916302C501B4010E944E10698BC8
:100F10007A8B8B8B9C8B2091A2063091A3064091FB
:100F2000A4065091A50660916402709165028091BB
:100F30006602909167020E944E106D8B7E8B8F8BA4
:100F4000988F20919E0630919F064091A006509167
:100F5000A106609168027091690280916A02909185
:100F60006B020E944E10698F7A8F8B8F9C8FC0907E
:100F70009802D0909902E0909A02F0909B02A7010B
:100F800096016091B9067091BA068091BB06909166
:100F9000BC06F8D6882341F0C092B906D092BA06B2
:100FA000E092BB06F092BC068091B80681111092C7
:100FB000B806BE016F5F7F4F8091BD06BEDAC0905C
:100FC0009C02D0909D02E0909E02F0909F02A701AB
:100FD00096016091AD067091AE068091AF0690913A
:100FE000B006D0D6882341F0C092AD06D092AE06AE
:100FF000E092AF06F092B0068091AC06811110929B
:10100000AC06BE016B5F7F4F8091B10696DA6091AE
:10101000E4027091E5028091E6029091E702E9D640
:1010200020E030E040E05AE20E944E106B017C016B
:10103000C0929E06D0929F06E092A006F092A10672
:101040008090D8029090D902A090DA02B090DB0292
:1010500069817A818B819C81CCD6A70196010E94FF
:101060004E10A50194010E944E1069877A878B87E4
:101070009C8760938606709387068093880690937A
:1010800089066D817E818F819885B3D6A7019601EF
:101090000E944E10A50194010E944E106D877E871C
:1010A0008F87988B60938A0670938B0680938C064B
:1010B00090938D062091FE063091FF064091000727
:1010C0005091010769857A858B859C85F6D520919D
:1010D000DC023091DD024091DE025091DF02DED76A
:1010E0002B013C014092960650929706609298061A
:1010F00070929906209102073091030740910407EE
:10110000509105076D857E858F859889D6D520916C
:10111000E0023091E1024091E2025091E302BED739
:101120006B017C01C0929A06D0929B06E0929C06CD
:10113000F0929D062091C8023091C9024091CA02E6
:101140005091CB02C301B201A9D74B015C012091A0
:10115000D0023091D1024091D2025091D302C70106
:10116000B6019CD79B01AC01C501B401A7D5609322
:101170008E0670938F06809390069093910620912F
:10118000CC023091CD024091CE025091CF02C301EA
:10119000B20184D74B015C012091D4023091D50279
:1011A0004091D6025091D702C701B60177D79B0173
:1011B000AC01C501B40182D54B015C01809292065D
:1011C00090929306A0929406B09295062091B00258
:1011D0003091B1024091B2025091B302698D7A8D83
:1011E0008B8D9C8D5BD72091EE063091EF06409160
:1011F000F0065091F10662D56093EE067093EF060B
:101200008093F0069093F1062091B4023091B502DC
:101210004091B6025091B702C501B4013FD7209169
:10122000F2063091F3064091F4065091F50646D54A
:101230006093F2067093F3068093F4069093F5069C
:101240002091C0023091C1024091C2025091C3026C
:1012500069897A898B899C8921D72091F6063091FA
:10126000F7064091F8065091F90628D56093F606E6
:101270007093F7068093F8069093F9062091C402C4
:101280003091C5024091C6025091C7026D897E8996
:101290008F89988D03D72091FA063091FB064091F3
:1012A000FC065091FD060AD56093FA067093FB0682
:1012B0008093FC069093FD06409206075092070724
:1012C000609208077092090789859A85AB85BC856D
:1012D0008093FE069093FF06A0930007B09301074A
:1012E000C0920A07D0920B07E0920C07F0920D070C
:1012F0008D859E85AF85B8898093020790930307FB
:10130000A0930407B09305076091EE037091EF037B
:101310008091F0039091F1036F5F7F4F8F4F9F4F4C
:101320006093EE037093EF038093F0039093F103C7
:101330000091FC031091FD035AD59B01AC01609113
:10134000F2037091F3038091F4039091F503A6D614
:10135000D8016D937D938D939C9313978091F603A1
:101360009091F703A091F803B091F9030196A11DA4
:10137000B11D8093F6039093F703A093F803B09305
:10138000F9036C960FB6F894DEBF0FBECDBFDF91A8
:10139000CF911F910F91FF90EF90DF90CF90BF9072
:1013A000AF909F908F907F906F905F904F903F9005
:1013B0002F900895A3019201C701B601E3D487FDE0
:1013C0004CC000911A0710911B077801EE0CFF1C0E
:1013D000EE0CFF1C6401CE0CDF1CA3019201D601B0
:1013E0006D917D918D919C9155D6B4E0EB0EF11CE1
:1013F0008E0C9F1C18162CF5E4E0CE1AD108A30120
:101400009201D60114966D917D918D919C911797C3
:1014100041D618168CF0C801880F991F880F991FA4
:10142000A80EB91ED5016D917D918D919C9110935F
:101430001B0700931A0717CB01501109DDCF0F5F6F
:101440001F4FF40161917191819191914F01A3011D
:10145000920198D418169CF7DECF60E070E0CB01C3
:1014600002CBA3019201C701B6018CD487FD4EC007
:10147000C0901C07D0901D078601000F111F000FA0
:10148000111F7101E00EF11EA3019201D7016D91B0
:101490007D918D919C91FED50C5F1F4F020D131D08
:1014A000181644F5E4E0EE1AF108A3019201D70101
:1014B00014966D917D918D919C911797EBD518168F
:1014C00094F0F601EE0FFF1FEE0FFF1F89859A853E
:1014D000E80FF91F4080518062807380D0921D0711
:1014E000C0921C0704CBB1E0CB1AD108DBCFBFEF11
:1014F000CB1ADB0AF80161917191819191918F0171
:10150000A30192013FD4181694F7DBCF412C512C44
:101510003201EDCAC12CD12C7601C701B6013BD4F2
:101520007B01BFCB412C512C3201C301B20133D41A
:101530008B0118CC4F925F926F927F92AF92BF92C5
:10154000DF92EF92FF920F931F93CF93DF9384E08C
:1015500090E078D2E8E6F3E08AEF93E09583848325
:10156000CCEFD3E0D7AFC6AF02EF13E0138B028B03
:10157000F093D103E093D003F383E28321E030E0E2
:10158000DC012D933C938CE093E0918780878EEF74
:1015900093E0998388834AE057ED63E27CE3F801A6
:1015A0004083518362837383C6EAD6E080E492E08D
:1015B00090930F0780930E0780E292E090931107BB
:1015C0008093100710921B0710921A0780E192E097
:1015D000909315078093140780E092E0909317078B
:1015E0008093160710921D0710921C0780E6A82E04
:1015F00082E0B82EF50180899189A289B389809310
:10160000EE069093EF06A093F006B093F10680915A
:10161000B8029091B902A091BA02B091BB02809336
:10162000F2069093F306A093F406B093F50684892E
:101630009589A689B7898093F6069093F706A093BB
:10164000F806B093F906808D918DA28DB38D8093AD
:10165000FA069093FB06A093FC06B093FD0640911A
:10166000BC025091BD026091BE027091BF024093D6
:10167000060750930707609308077093090784854E
:101680009585A685B7858093FE069093FF06A09367
:101690000007B093010740930A0750930B0760932C
:1016A0000C0770930D078093020790930307A09394
:1016B0000407B093050718AA412C512C320143941A
:1016C00049AA5AAA6BAA7CAAE12CF12C8701A8018D
:1016D00097016CE070E080E090E00E943A039FABDD
:1016E0008EABDD24D394DDAA18A649A65AA66BA614
:1016F0007CA6A801970169E070E080E090E00E947C
:101700003A039FA78EA7DDA618A249A25AA26BA2F0
:101710007CA2A80197016BE070E080E090E00E945D
:101720003A039FA38EA3DDA2188E498E5A8E6B8E2C
:101730007C8EA80197016AE070E080E090E00E9452
:101740003A039F8F8E8FDD8E1092E6064092E70659
:101750005092E8066092E9067092EA0661E088E03D
:1017600028D9D092EB0618AE49AE5AAE6BAE7CAE1D
:1017700061E08DE01ED9DDAE1F8A1C86F50180ADCB
:1017800091ADA2ADB3AD8B8B9C8BAD8BBE8B4D86DB
:101790005E866F86788A4DEB56E063E182E10E94B7
:1017A0009401D98A1A8A8F890E94AF021B861882F7
:1017B000F50184AD95ADA6ADB7AD8F839887A987A8
:1017C000BA8749825A826B827C8241EB56E063E0A1
:1017D00082E00E949401DD821E828B85DF91CF9191
:1017E0001F910F91FF90EF90DF90BF90AF907F908F
:1017F0006F905F904F900C94AF028091D60681114C
:101800002EC081E08093D6068091D7069091D806AD
:10181000A091D906B091DA060197A105B105F9F4B6
:101820008091DB068823D9F06CE070E080E090E0E6
:101830000E94F6029093DD068093DC0640E050E0C3
:10184000BA010E94BF026CE070E080E090E00E946C
:10185000F6029093DD068093DC060E948B03809154
:10186000CE0681112EC081E08093CE068091CF06F6
:101870009091D006A091D106B091D2060197A10512
:10188000B105F9F48091D3068823D9F069E070E0BE
:1018900080E090E00E94F6029093D5068093D406F3
:1018A00040E050E0BA010E94BF0269E070E080E0D1
:1018B00090E00E94F6029093D5068093D4060E9491
:1018C0008B038091C60681112EC081E08093C606ED
:1018D0008091C7069091C806A091C906B091CA062A
:1018E0000197A105B105F9F48091CB068823D9F0C1
:1018F0006BE070E080E090E00E94F6029093CD06ED
:101900008093CC0640E050E0BA010E94BF026BE039
:1019100070E080E090E00E94F6029093CD06809304
:10192000CC060E948B038091BE0681112EC081E0FF
:101930008093BE068091BF069091C006A091C1061B
:10194000B091C2060197A105B105F9F48091C306D3
:101950008823D9F06AE070E080E090E00E94F6020F
:101960009093C5068093C40640E050E0BA010E94FF
:10197000BF026AE070E080E090E00E94F60290937F
:10198000C5068093C4060E948B038091E6068111F0
:1019900003C081E08093E6068091DE06811103C0DA
:1019A00081E08093DE068091B206811114C081E04F
:1019B0008093B2068091B3069091B406A091B506CB
:1019C000B091B6060197A105B10529F48091B7063B
:1019D00081110E94BC028091A606811114C081E091
:1019E0008093A6068091A7069091A806A091A906CB
:1019F000B091AA060197A105B10529F48091AB0623
:101A000081110C94BC02089560E070E080E89FE7CB
:101A1000089560E070E080E89FE7089560E070E07E
:101A200080E89FEF089560E070E080E89FEF089500
:101A300060E070E080EC9FEF089560E070E080EC83
:101A40009FEF0895F5DF60932A0770932B0780932B
:101A50002C0790932D07F1DF60931E0770931F07EB
:101A60008093200790932107CFDF60932607709320
:101A700027078093280790932907CBDF60932207DD
:101A8000709323078093240790932507C7DF609303
:101A90002E0770932F078093300790933107C3DF91
:101AA0006093320770933307809334079093350720
:101AB0000895CF92DF92EF92FF92CF936B017C015A
:101AC000AC019B0160912607709127078091280740
:101AD0009091290757D1C1E0882369F0A7019601A9
:101AE00060912E0770912F078091300790913107F8
:101AF00049D18111C0E08C2FCF91FF90EF90DF9002
:101B0000CF9008950F931F938B019C0100271127FD
:101B100020783F770115110520483F4749F4AB0174
:101B2000BC016F77772781E0452B462B472B09F4C3
:101B300080E01F910F910895E5CF26E030E040E866
:101B400055E260E070E090E080E000C081309105F7
:101B500069F01CF4892B39F008958230910549F021
:101B6000039751F0089582E194E0E6C78FEA94E08C
:101B7000FCCF8CE495E0F9CF89EE95E0F6CF1F928B
:101B80000F920FB60F9211240BB60F922F933F9323
:101B90004F935F936F937F938F939F93AF93BF9375
:101BA000EF93FF938FE89DEF90932501809324019D
:101BB00034D0FF91EF91BF91AF919F918F917F9121
:101BC0006F915F914F913F912F910F900BBE0F90AE
:101BD0000FBE0F901F9018958FE89DEF90932501F1
:101BE00080932401A3E7B0E08C918E7F8C93E0E298
:101BF000F1E080818C7F8083E1E2F1E08081877E6B
:101C0000808380818460808380818C7F80838C91BD
:101C100081608C93089581E008958091060491E09D
:101C2000980F90930604882349F021E030E0309328
:101C300008042093070480930604089578940E9472
:101C4000E804F894809106048150F5CFCF93DF9398
:101C50001092370710923607A0D46FDFC0911E0391
:101C6000D0911F031982188265DCF894B5DF81E0FA
:101C700028813981232B09F080E0809336077894FE
:101C8000789480913607811107C0B7DDF89490E011
:101C900080E0DF91CF91089581E028813981232B65
:101CA00009F480E0809337079091370781E0911124
:101CB00080E080933607AFDFE4CF5058BB27AA27D8
:101CC0000ED097C188D130F08DD120F031F49F3FF4
:101CD00011F41EF47DC10EF4E095E7FB4AC1E92F33
:101CE00099D180F3BA17620773078407950718F034
:101CF00071F49EF5C8C10EF4E0950B2EBA2FA02DFD
:101D00000B01B90190010C01CA01A0011124FF27A8
:101D1000591B99F0593F50F4503E68F11A16F040A3
:101D2000A22F232F342F4427585FF3CF46953795A2
:101D30002795A795F0405395C9F77EF41F16BA0B67
:101D4000620B730B840BBAF09150A1F0FF0FBB1F15
:101D5000661F771F881FC2F70EC0BA0F621F731F5E
:101D6000841F48F4879577956795B795F7959E3FBB
:101D700008F0B3CF9395880F08F09927EE0F979549
:101D800087950895D2D008F481E0089504D068942E
:101D9000B1117AC1089546D188F09F5790F0B92FBC
:101DA0009927B751A0F0D1F0660F771F881F991FB0
:101DB0001AF0BA95C9F712C0B13081F064D1B1E020
:101DC000089561C1672F782F8827B85F39F0B93F30
:101DD000CCF3869577956795B395D9F73EF49095B2
:101DE0008095709561957F4F8F4F9F4F0895E89430
:101DF00009C097FB3EF490958095709561957F4F53
:101E00008F4F9F4F9923A9F0F92F96E9BB27939500
:101E1000F695879577956795B795F111F8CFFAF410
:101E2000BB0F11F460FF1BC06F5F7F4F8F4F9F4F41
:101E300016C0882311F096E911C0772321F09EE89F
:101E4000872F762F05C0662371F096E8862F70E005
:101E500060E02AF09A95660F771F881FDAF7880FDF
:101E60009695879597F90895F7D080F09F3740F4BD
:101E700091110EF009C160E070E080E89FEB0895D9
:101E800026F41B16611D711D811D79C093C0A3D05E
:101E900018F011F0A7D038F49BC0F6C0E92FBAD0E3
:101EA000B0F35523C9F3E7FB62177307840795075F
:101EB000A8F199F3E92FFF2788232AF03197660FBD
:101EC000771F881FDAF7952F5527442332F091505A
:101ED0005040220F331F441FD2F7BB27E91BF50BDD
:101EE000621B730B840BB109C1F222F4620F731FE2
:101EF000841FB11D31972AF0660F771F881FBB1F03
:101F0000EFCF915050405AF041F0882332F0660FE5
:101F1000771F881F91505040C1F793954BC086950D
:101F2000779567959F5FD9F7F8CF990F0008550F00
:101F3000AA0BE0E8FEEF16161706E807F907C0F04F
:101F400012161306E407F50798F0621B730B840B57
:101F5000950B39F40A2661F0232B242B252B21F431
:101F600008950A2609F4A140A6958FEF811D811DD1
:101F7000089597F99F6780E870E060E008958823EE
:101F800071F4772321F09850872B762F07C06623B2
:101F900011F499270DC09051862B70E060E02AF073
:101FA0009A95660F771F881FDAF7880F96958795A1
:101FB00097F908959F3F31F0915020F487957795D8
:101FC0006795B795880F911D9695879597F9089510
:101FD0009FEF80EC089500240A9416161706180641
:101FE0000906089500240A9412161306140605061D
:101FF0000895092E0394000C11F4882352F0BB0FAE
:1020000040F4BF2B11F460FF04C06F5F7F4F8F4F10
:102010009F4F089557FD9058440F551F59F05F3F4B
:1020200071F04795880F97FB991F61F09F3F79F0FA
:1020300087950895121613061406551FF2CF46957C
:10204000F1DF08C0161617061806991FF1CF8695FE
:102050007105610508940895E5DFA0F0BEE7B917A2
:1020600088F4BB279F3860F41616B11D672F782FB0
:102070008827985FF7CF869577956795B11D9395DB
:102080009639C8F30895E894BB2766277727CB01D4
:1020900097F908954ADF08F48FEF08950BD0A9CF80
:1020A0009ADF28F09FDF18F0952309F062CF90CFD8
:1020B0001124EACFAFDFA0F3959FD1F3950F50E045
:1020C000551F629FF001729FBB27F00DB11D639FEA
:1020D000AA27F00DB11DAA1F649F6627B00DA11D90
:1020E000661F829F2227B00DA11D621F739FB00D36
:1020F000A11D621F839FA00D611D221F749F3327A6
:10210000A00D611D231F849F600D211D822F762F3E
:102110006A2F11249F5750408AF0E1F088234AF03B
:10212000EE0FFF1FBB1F661F771F881F9150504087
:10213000A9F79E3F510570F01CCFA6CF5F3FECF38F
:10214000983EDCF3869577956795B795F795E79573
:102150009F5FC1F7FE2B880F911D9695879597F984
:1021600008950895883008F075C0E82FF0E0EE0F6C
:10217000FF1FE450FD4F718360838150873008F06A
:102180003CC0E82FF0E08827E853FF4E8F4FB3C7DD
:102190000511CF10D710E310F01011111E1180910E
:1021A00069008C7F482B40936900E89A08958091DC
:1021B0006900837F440F551F440F551F482B4093E0
:1021C0006900E99A0895809169008F7C74E0440F5A
:1021D000551F7A95E1F7482B40936900EA9A0895D4
:1021E000809169008F7366E0440F551F6A95E1F78F
:1021F000482B40936900EB9A089580916A008C7F88
:10220000482B40936A00EC9A089580916A00837F7E
:10221000440F551F440F551F482B40936A00ED9AF9
:10222000089580916A008F7C24E0440F551F2A9501
:10223000E1F7482B40936A00EE9A089580916A0076
:102240008F7396E0440F551F9A95E1F7482B409302
:102250006A00EF9A08951F920F920FB60F92112401
:102260000BB60F922F933F934F935F936F937F9390
:102270008F939F93AF93BF93EF93FF93E0910003EE
:10228000F09101031995FF91EF91BF91AF919F914B
:102290008F917F916F915F914F913F912F910F900F
:1022A0000BBE0F900FBE0F901F9018951F920F92AC
:1022B0000FB60F9211240BB60F922F933F934F93AB
:1022C0005F936F937F938F939F93AF93BF93EF939E
:1022D000FF93E0910203F09103031995FF91EF91B1
:1022E000BF91AF919F918F917F916F915F914F912E
:1022F0003F912F910F900BBE0F900FBE0F901F902C
:1023000018951F920F920FB60F9211240BB60F92D1
:102310002F933F934F935F936F937F938F939F93ED
:10232000AF93BF93EF93FF93E0910403F091050304
:102330001995FF91EF91BF91AF919F918F917F91EF
:102340006F915F914F913F912F910F900BBE0F9026
:102350000FBE0F901F9018951F920F920FB60F92FD
:1023600011240BB60F922F933F934F935F936F936C
:102370007F938F939F93AF93BF93EF93FF93E091DE
:102380000603F09107031995FF91EF91BF91AF916B
:102390009F918F917F916F915F914F913F912F917D
:1023A0000F900BBE0F900FBE0F901F9018951F92AD
:1023B0000F920FB60F9211240BB60F922F933F93EB
:1023C0004F935F936F937F938F939F93AF93BF933D
:1023D000EF93FF93E091FC02F091FD021995FF91BC
:1023E000EF91BF91AF919F918F917F916F915F918D
:1023F0004F913F912F910F900BBE0F900FBE0F90FA
:102400001F9018951F920F920FB60F9211240BB6C2
:102410000F922F933F934F935F936F937F938F937D
:102420009F93AF93BF93EF93FF93E091FE02F091E0
:10243000FF021995FF91EF91BF91AF919F918F91FD
:102440007F916F915F914F913F912F910F900BBEB4
:102450000F900FBE0F901F9018951F920F920FB6FE
:102460000F9211240BB60F922F933F934F935F93CC
:102470006F937F938F939F93AF93BF93EF93FF934C
:10248000E0910803F09109031995FF91EF91BF9135
:10249000AF919F918F917F916F915F914F913F91FC
:1024A0002F910F900BBE0F900FBE0F901F9018959D
:1024B0001F920F920FB60F9211240BB60F922F930B
:1024C0003F934F935F936F937F938F939F93AF93BC
:1024D000BF93EF93FF93E0910A03F0910B031995DB
:1024E000FF91EF91BF91AF919F918F917F916F91EC
:1024F0005F914F913F912F910F900BBE0F900FBEA8
:102500000F901F9018951F920F920FB60F921124E3
:102510002F933F938F939F93AF93BF9380910A0420
:1025200090910B04A0910C04B0910D04309109041A
:1025300023E0230F2D3758F50196A11DB11D2093DF
:10254000090480930A0490930B04A0930C04B093A5
:102550000D0480910E0490910F04A0911004B0918D
:1025600011040196A11DB11D80930E0490930F04D8
:10257000A0931004B0931104BF91AF919F918F91DC
:102580003F912F910F900FBE0F901F90189526E846
:10259000230F0296A11DB11DD2CF789484B582601D
:1025A00084BD84B5816084BD85B5826085BD85B5F7
:1025B000816085BDEEE6F0E0808181608083E1E8A6
:1025C000F0E01082808182608083808181608083DE
:1025D000E0E8F0E0808181608083E1EBF0E08081E1
:1025E00084608083E0EBF0E0808181608083E1E9BA
:1025F000F0E0808182608083808181608083E0E977
:10260000F0E0808181608083E1EAF0E08081826097
:102610008083808181608083E0EAF0E08081816056
:102620008083E1E2F1E0808182608083808181604B
:102630008083E0E2F1E0808181608083EAE7F0E07E
:1026400080818460808380818260808380818160DA
:1026500080838081806880831092C10008951F93D9
:10266000CF93DF93182FEB0161E033D1209731F442
:1026700060E0812FDF91CF911F9167C1CF3FD105DE
:1026800011F461E0F6CFE12FF0E0EC51FF4FE4915F
:10269000E150E23108F0B2C0F0E08827EE5AFC4E7B
:1026A0008F4F29C564136C1371137B138513FE13AD
:1026B0008F1397139F13A913B313BD13CC13D61302
:1026C000FE13E013EA13F41384B5806884BDC7BD1C
:1026D000DF91CF911F91089584B5806284BDC8BDFC
:1026E000F7CF80918000806880938000D09389002C
:1026F000C0938800EDCF809180008062809380003D
:10270000D0938B00C0938A00E3CF809180008860D3
:1027100080938000D0938D00C0938C00D9CF80919E
:10272000B00080688093B000C093B300D1CF809197
:10273000B00080628093B000C093B400C9CF809194
:102740009000806880939000D0939900C093980087
:10275000BFCF80919000806280939000D0939B00C7
:10276000C0939A00B5CF80919000886080939000CC
:10277000D0939D00C0939C00ABCF8091A000806857
:102780008093A0008091A0008F7B8093A000D093C5
:10279000A900C093A8009CCF8091A0008062809384
:1027A000A000D093AB00C093AA0092CF8091A0006C
:1027B00088608093A000D093AD00C093AC0088CF18
:1027C00080912001806880932001D0932901C093DB
:1027D00028017ECF80912001806280932001D093D8
:1027E0002B01C0932A0174CF8091200188608093CF
:1027F0002001D0932D01C0932C016ACFC038D105A0
:102800000CF03FCF35CF8150823108F059C0E82F0E
:10281000F0E08827E25FFB4E8F4F6DC42E14321418
:10282000201426142A14601435143B143F14451444
:1028300049144D145314571460145B146114651437
:10284000809180008F778093800008958091800030
:102850008F7DF9CF80918000877FF5CF84B58F770A
:1028600084BD089584B58F7DFBCF8091B0008F77B4
:102870008093B00008958091B0008F7DF9CF809152
:1028800090008F77809390000895809190008F7DC5
:10289000F9CF80919000877FF5CF8091A0008F774E
:1028A0008093A00008958091A0008F7DF9CF809142
:1028B000A000877FF5CF809120018F778093200142
:1028C0000895809120018F7DF9CF80912001877F2D
:1028D000F5CFCF93DF9390E0FC01E65DFE4F2491AE
:1028E00080599E4FFC0184918823C9F090E0880FA5
:1028F000991FFC01E651FE4FA591B491FC01E053F4
:10290000FE4FC591D49161110DC09FB7F8948C9181
:10291000209582238C938881282328839FBFDF9171
:10292000CF910895623051F49FB7F8943C91822F73
:10293000809583238C93E8812E2BEFCF8FB7F8946B
:10294000EC912E2B2C938FBFEACF1F93CF93DF9365
:10295000282F30E0F901EC51FF4F8491F901E65D39
:10296000FE4FD491F901E059FE4FC491CC23A1F060
:10297000162F811148DFEC2FF0E0EE0FFF1FE05320
:10298000FE4FA591B4918FB7F894EC91111108C046
:10299000D095DE23DC938FBFDF91CF911F910895F7
:1029A000DE2BF8CFFC01918D228D892F90E0805C89
:1029B0009F4F821B91098F7399270895FC01918D78
:1029C000828D981731F0828DE80FF11D858D90E092
:1029D00008958FEF9FEF0895FC01918D828D9817D8
:1029E00061F0A28DAE0FBF2FB11D5D968C91928DBF
:1029F0009F5F9F73928F90E008958FEF9FEF0895F0
:102A0000FC01538D448D252F30E0842F90E0821BF4
:102A1000930B541710F0CF96089501970895FC0179
:102A2000A48DA80FB92FB11DA35ABF4F2C91848D2F
:102A300090E001968F739927848FA689B7892C938C
:102A4000A089B1898C91837080648C93938D848DDF
:102A5000981306C00288F389E02D80818F7D8083E2
:102A60000895CF93DF93EC01888D8823B1F0AA8974
:102A7000BB89E889F9898C9185FD03C0808186FD39
:102A80000CC00FB607FCF7CF8C9185FFF2CF808189
:102A900085FFEDCFCE01C3DFEACFDF91CF9108955F
:102AA000EF92FF920F931F93CF93DF93EC0181E09E
:102AB000888F9B8D8C8D98131AC0E889F989808145
:102AC00085FF15C09FB7F894EE89FF896083E88978
:102AD000F98980818370806480839FBF81E090E06A
:102AE000DF91CF911F910F91FF90EF900895F62EF7
:102AF0000B8D10E00F5F1F4F0F731127E02E8C8D91
:102B00008E110BC00FB607FCFACFE889F9898081D6
:102B100085FFF5CFCE0183DFF2CFEB8DEC0FFD2FDC
:102B2000F11DE35AFF4FF0829FB7F8940B8FEA89AB
:102B3000FB8980818062D0CFCF92DF92EF92FF92AB
:102B40001F93CF93DF93EC016A017B01122FE88979
:102B5000F98982E08083C11481EED806E104F10492
:102B600099F060E079E08DE390E0A7019601A1D2B1
:102B700021503109410951095695479537952795B7
:102B8000211580E1380790F0E889F989108260E822
:102B900074E88EE190E0A70196018BD221503109B3
:102BA000410951095695479537952795EC85FD853F
:102BB0003083EE85FF852083188EEC89FD89108394
:102BC000EA89FB89808180618083EA89FB89808131
:102BD00088608083EA89FB89808180688083EA89B4
:102BE000FB8980818F7D8083DF91CF911F91FF9042
:102BF000EF90DF90CF9008951F920F920FB60F9233
:102C000011240BB60F922F938F939F93EF93FF9303
:102C1000E0912204F09123048081E0912804F09156
:102C2000290482FD1DC0908180912B048F5F8F73DA
:102C300020912C04821741F0E0912B04F0E0EE5E2D
:102C4000FB4F958F80932B04FF91EF919F918F9174
:102C50002F910F900BBE0F900FBE0F901F901895E5
:102C60008081F2CF1F920F920FB60F9211240BB6F4
:102C70000F922F933F934F935F936F937F938F9315
:102C80009F93AF93BF93EF93FF9382E194E0C7DEEE
:102C9000FF91EF91BF91AF919F918F917F916F9134
:102CA0005F914F913F912F910F900BBE0F900FBEF0
:102CB0000F901F901895E2E1F4E01382128288EEE3
:102CC00093E0A0E0B0E084839583A683B78384E299
:102CD00093E09183808385EC90E09587848784ECF2
:102CE00090E09787868780EC90E0918B808B81ECD9
:102CF00090E0938B828B82EC90E0958B848B86ECBA
:102D000090E0978B868B118E128E138E148E089501
:102D10001F920F920FB60F9211240BB60F922F93A2
:102D20008F939F93EF93FF93E091BF04F091C004C2
:102D30008081E091C504F091C60482FD1DC09081A0
:102D40008091C8048F5F8F732091C904821741F06E
:102D5000E091C804F0E0E155FB4F958F8093C804E3
:102D6000FF91EF919F918F912F910F900BBE0F903C
:102D70000FBE0F901F9018958081F2CF1F920F9277
:102D80000FB60F9211240BB60F922F933F934F93D0
:102D90005F936F937F938F939F93AF93BF93EF93C3
:102DA000FF938FEA94E03BDEFF91EF91BF91AF91EB
:102DB0009F918F917F916F915F914F913F912F9153
:102DC0000F900BBE0F900FBE0F901F901895EFEA5B
:102DD000F4E01382128288EE93E0A0E0B0E08483F6
:102DE0009583A683B78384E293E0918380838DECFF
:102DF00090E0958784878CEC90E09787868788ECB5
:102E000090E0918B808B89EC90E0938B828B8AECA5
:102E100090E0958B848B8EEC90E0978B868B118E57
:102E2000128E138E148E08951F920F920FB60F926A
:102E300011240BB60F922F938F939F93EF93FF93D1
:102E4000E0915C05F0915D058081E0916205F09173
:102E5000630582FD1DC09081809165058F5F8F7332
:102E600020916605821741F0E0916505F0E0E45B92
:102E7000FA4F958F80936505FF91EF919F918F9108
:102E80002F910F900BBE0F900FBE0F901F901895B3
:102E90008081F2CF1F920F920FB60F9211240BB6C2
:102EA0000F922F933F934F935F936F937F938F93E3
:102EB0009F93AF93BF93EF93FF938CE495E0AFDDC7
:102EC000FF91EF91BF91AF919F918F917F916F9102
:102ED0005F914F913F912F910F900BBE0F900FBEBE
:102EE0000F901F901895ECE4F5E01382128288EEA3
:102EF00093E0A0E0B0E084839583A683B78384E267
:102F000093E09183808385ED90E09587848784EDBD
:102F100090E09787868780ED90E0918B808B81EDA4
:102F200090E0938B828B82ED90E0958B848B86ED85
:102F300090E0978B868B118E128E138E148E0895CF
:102F40001F920F920FB60F9211240BB60F922F9370
:102F50008F939F93EF93FF93E091F905F091FA051A
:102F60008081E091FF05F091000682FD1DC09081F7
:102F7000809102068F5F8F7320910306821741F0C4
:102F8000E0910206F0E0E751FA4F958F8093020638
:102F9000FF91EF919F918F912F910F900BBE0F900A
:102FA0000FBE0F901F9018958081F2CF1F920F9245
:102FB0000FB60F9211240BB60F922F933F934F939E
:102FC0005F936F937F938F939F93AF93BF93EF9391
:102FD000FF9389EE95E023DDFF91EF91BF91AF91D3
:102FE0009F918F917F916F915F914F913F912F9121
:102FF0000F900BBE0F900FBE0F901F901895E9EE2B
:10300000F5E01382128288EE93E0A0E0B0E08483C2
:103010009583A683B78384E293E09183808385E3DD
:1030200091E09587848784E391E09787868780E3A2
:1030300091E0918B808B81E391E0938B828B82E393
:1030400091E0958B848B86E391E0978B868B118E34
:10305000128E138E148E0895AF92BF92CF92DF928C
:10306000EF92FF920F931F93CF93DF936C017B013D
:103070008B01040F151FEB015E01AE18BF08C017CE
:10308000D10759F06991D601ED91FC910190F08141
:10309000E02DC6011995892B79F7C501DF91CF91F4
:1030A0001F910F91FF90EF90DF90CF90BF90AF9066
:1030B0000895A1E21A2EAA1BBB1BFD010DC0AA1F79
:1030C000BB1FEE1FFF1FA217B307E407F50720F091
:1030D000A21BB30BE40BF50B661F771F881F991F0C
:1030E0001A9469F760957095809590959B01AC0155
:1030F000BD01CF010895EE0FFF1F881F8BBF079002
:0A310000F691E02D1994F894FFCF2A
:10310A00CDCCCC3ECDCCCC3E00000000000000006F
:10311A00000000000000C0420000C0420000C84297
:10312A000000000000000000DB0FC93FDB0FC93FB1
:10313A000000000000000000DB0FC93FDB0FC93FA1
:10314A000000000000007041000070410000804251
:10315A00000080429A9981429A9981420000CA42AB
:10316A0052D275407432764028317D3E000000000C
:10317A0000000000000000000000000000007FC303
:10318A0000007FC3F442BF40EF20A7433C27A84377
:10319A0000007F4300007F43000080BF000080BF23
:1031AA000000803F0000803F14AEC7BD14AEC73D8B
:1031BA000AD7233C0AD7233C000000000000000085
:1031CA000AD7233C0AD7233C0000003F421AA4C076
:1031DA000000003F421AA4400000C8427593803F95
:1031EA000000803F8883954800000000FF0000002F
:1031FA00000001FF000001FFFF000000B110B11044
:10320A00B110B110B110B110B110B11046697865A2
:10321A006453746570446973637265746500680306
:10322A000000000050152C1800153115D214EC14AA
:02323A00DE14A0
:00000001FF
