:1000000005C100000C94B0310C94DB310C94063225
:100010000C9431320C945C320C9487320C94B232D2
:100020000C94DD3224C1000022C1000020C1000078
:100030001EC100001CC100001AC1000018C1000050
:1000400016C1000014C1000012C1000010C1000060
:100050000EC100000CC100000AC100000C9408335E
:1000600006C100000C94DC360C94123700C100006D
:10007000FEC00000FCC00000FAC00000F8C0000094
:10008000F6C00000F4C00000F2C00000F0C00000A4
:100090000C9468370C949E37EAC00000E8C000005A
:1000A000E6C00000E4C00000E2C00000E0C00000C4
:1000B000DEC00000DCC00000DAC00000D8C00000D4
:1000C000D6C00000D4C000000C94F62C0C94F43779
:1000D0000C942A38CCC000000C9480380C94B638AC
:1000E000C6C0000000000A0B02090C0D0E08070331
:1000F00004010000000000000000000000000000FB
:1001000000000000000000000000000000000000EF
:1001100012111000000000000000000000000000AC
:100120000000000000000000000001021020200874
:100130000810204010204080020102010804020142
:1001400001020408102040808040201008040201B1
:10015000800402018040201008040201080402010A
:100160000102040810204080010204081020408091
:1001700005050505070508080808020202020A0A23
:100180000808040404040101010101010101030341
:10019000030303030303040707070C0C0C0C0C0CEC
:1001A0000C0C0202020206060606060606060B0BE9
:1001B0000B0B0B0B0B0B000020002300260029006B
:1001C0002C002F003200000100000301060109018C
:1001D00000002200250028002B002E0031003400F2
:1001E00002010000050108010B01000021002400AC
:1001F00027002A002D003000330001010000040117
:1002000007010A013B37C7375338DF3811241FBEB7
:10021000CFEFD1E2DEBFCDBF00E00CBF13E0A0E026
:10022000B2E0EEE5F3E700E00BBF02C007900D92ED
:10023000A234B107D9F72BE0A2E4B3E001C01D92CC
:10024000AA30B207E1F711E0C6E0D1E000E006C055
:1002500021970109802FFE010E947039C230D10719
:1002600080E00807A9F70E94E82D0C94AD39C8CEAC
:10027000FC01A781B0858C9191858923A481B581EA
:100280009C9140815181628173812681922359F032
:1002900081110BC04F5F5F4F6F4F7F4F4083518382
:1002A0006283738308958111F5CF4150510961092B
:1002B0007109F4CF83E493E0DBCF8EE493E0D8CFF1
:1002C00089E593E0D5CF84E693E0D2CFFC01A48109
:1002D000B5818C9196818923A781B0859C914081BD
:1002E0005181628173812185922359F0882359F0CD
:1002F0004F5F5F4F6F4F7F4F4083518362837383A4
:1003000008958823A9F34150510961097109F4CF77
:1003100083E493E0DBCF8EE493E0D8CF89E593E0EC
:10032000D5CF84E693E0D2CF0F931F93CF93DF9383
:10033000D82FC62F8A01A09142038BE0A89FD0013D
:100340001124AD5BBC4F1D921D921D921C92139700
:1003500081E01A968C931A978D2F90E0FC01E65D50
:10036000FE4FE4911696EC931697FC01E059FE4F70
:10037000E491F0E0EE0FFF1FEA54FE4F8591949157
:1003800015969C938E931497862F90E0FC01E65D62
:10039000FE4FE4911996EC931997FC01E059FE4F3A
:1003A000E491F0E0EE0FFF1FEA54FE4F8591949127
:1003B00018969C938E93179760E08D2F0E94493575
:1003C00060E08C2F0E94493580914203813009F40E
:1003D0003FC0A8F0823009F462C0833009F486C0BF
:1003E0008091420391E0980F90934203F80180833B
:1003F00090E080E0DF91CF911F910F91089580E010
:10040000D23049F081E0D33031F08EEE8D0F843060
:10041000D8F487E18D1B41E050E06AE571E00E946D
:10042000363180E0C23049F081E0C33031F08EEEE9
:100430008C0F843058F487E18C1B41E050E068E871
:1004400071E00E943631CCCF8FEFE5CF8FEFF5CF43
:1004500080E0D23049F081E0D33031F08EEE8D0F64
:100460008430C8F487E18D1B41E050E06DE571E018
:100470000E94363180E0C23049F081E0C33031F073
:100480008EEE8C0F843048F487E18C1B41E050E005
:100490006BE871E0D6CF8FEFE7CF8FEFF7CF80E03B
:1004A000D23049F081E0D33031F08EEE8D0F8430C0
:1004B000C8F487E18D1B41E050E060E671E00E94E6
:1004C000363180E0C23049F081E0C33031F08EEE49
:1004D0008C0F843048F487E18C1B41E050E06EE8DB
:1004E00071E0AFCF8FEFE7CF8FEFF7CF80E0D23063
:1004F00049F081E0D33031F08EEE8D0F8430C8F4B6
:1005000087E18D1B41E050E063E671E00E943631E7
:1005100080E0C23049F081E0C33031F08EEE8C0FC4
:10052000843048F487E18C1B41E050E061E971E0E0
:1005300088CF8FEFE7CF8FEFF7CF9BE0899FF00158
:100540001124ED5BFC4F80819181A281B381FB017D
:1005500080839183A283B38390E080E008959BE041
:10056000899FF0011124ED5BFC4F108211821282F1
:10057000138290E080E0089590E080E00895CF92AB
:10058000DF92EF92FF92CF93882351F16A017B01B2
:10059000CFEFC80F20E030E0A901CB01B6010E94E7
:1005A000DE2E18168CF0C701B60190580E944F2F0E
:1005B0009B01AC016C2F70E090E080E0CF91FF9048
:1005C000EF90DF90CF90B2C0C701B6010E944A2FD2
:1005D0008C2FCF91FF90EF90DF90CF900C940F3441
:1005E000CF91FF90EF90DF90CF9008950F931F93DE
:1005F0008B019C0183E036952795179507958A9581
:10060000D1F701591C4F462F477021E030E0F90126
:1006100002C0EE0FFF1F4A95E2F7AF01F8012081FB
:100620002423CB010196211102C090E080E01F91AC
:100630000F9108950F931F938B019C0183E03695D2
:100640002795179507958A95D1F7677081E090E017
:1006500001C0880F6A95EAF7F801E159FC4F208143
:10066000452B31F48095822380831F910F9108954B
:10067000822BFACF2F923F924F925F926F927F928E
:100680008F929F92AF92BF92CF92DF92EF92FF92A2
:100690000F931F93CF93DF93D62EC72E782E692EFC
:1006A00049015A01280161E08D2D0E944935CD2D67
:1006B000DC2D8E010F5F1F4FA8016D2D7C2D872D26
:1006C000962DB8DF20E030E0A901C201B7010E94F9
:1006D000CE30181664F4C201B7010E944F2F2B01CF
:1006E000C501B4010E944F2FA201CE0123D0C80141
:1006F000DF91CF911F910F91FF90EF90DF90CF90FE
:10070000BF90AF909F908F907F906F905F904F9031
:100710003F902F900895882341F08150682F70E01A
:1007200090E080E050E040E085CF0895862FB90149
:100730000C940F349C01FC01EC51FF4FE491E1500B
:10074000E231E0F4F0E08827E755FC4F8F4F0C943E
:100750007039BB03C203C503DC03F103BE03060407
:10076000120416042D04420457046E048304BE03CD
:100770009804AF04C40484B5806884BD60E0822F0F
:100780000C94853584B58062F8CF809180008C7F91
:1007900082608093800080918100807E8061682BE0
:1007A0006093810050938700409386008091800081
:1007B000806880938000E2CF809180008C7F82608F
:1007C0008093800080918100807E8061682B60939F
:1007D0008100509387004093860080918000806262
:1007E000E8CF809180008C7F826080938000809130
:1007F0008100807E8061682B609381005093870028
:1008000040938600809180008860D3CF8091B000B3
:1008100080688093B0008091B100887F682B6093DE
:10082000B100ACCF8091B0008062F3CF8091900096
:100830008C7F82608093900080919100807E8061A7
:10084000682B60939100509397004093960080919D
:10085000900080688093900091CF809190008C7F71
:1008600082608093900080919100807E8061682BEF
:100870006093910050939700409396008091900070
:100880008062E8CF809190008C7F8260809390009E
:1008900080919100807E8061682B609391005093DD
:1008A000970040939600809190008860D3CF80910C
:1008B000A0008C7F82608093A0008091A100807E48
:1008C0008061682B6093A1005093A7004093A6001D
:1008D0008091A00080688093A00050CF8091A000FC
:1008E0008C7F82608093A0008091A100807E8061D7
:1008F000682B6093A1005093A7004093A6008091BD
:10090000A0008062E8CF8091A0008C7F82608093FD
:10091000A0008091A100807E8061682B6093A1007F
:100920005093A7004093A6008091A0008860D3CF89
:10093000809120018C7F8260809320018091210131
:10094000807E8061682B6093210150932701409342
:100950002601809120018068809320010FCF809133
:1009600020018C7F82608093200180912101807E14
:100970008061682B609321015093270140932601E9
:10098000809120018062E8CF809120018C7F82607D
:100990008093200180912101807E8061682B60938B
:1009A0002101509327014093260180912001886006
:1009B000D3CF611102C00C9449356130E1F362E09C
:1009C000FACF662319F061E00C94853560E0FCCF26
:1009D00090E080E008950F931F93009709F489C079
:1009E0006115710509F485C00091640210916502DA
:1009F00020916602309167020E3F1F4F2F4F3F4FED
:100A000009F068C04FEF5FEFBA0140936402509362
:100A10006502609366027093670240916402509190
:100A200065026091660270916702DC011296ED9199
:100A3000FC9180819181A281B38180937E04909307
:100A40007F04A0938004B093810484819581A68162
:100A5000B78180937A0490937B04A0937C04B09335
:100A60007D0480859185A285B385809376049093DB
:100A70007704A0937804B093790484859585A6853E
:100A8000B7858093720490937304A0937404B09319
:100A9000750410926E0410926F04109270041092FC
:100AA00071040E94DA108FEF90E1909379038093A4
:100AB000780390937B0380937A030E94C90F009779
:100AC00031F421E030E030938304209382041F91BD
:100AD0000F910895009164021091650220916602C1
:100AE00030916702DB010D931D932D933C93139777
:100AF00094CF8FEF9FEFEBCF8F929F92AF92BF92E9
:100B0000CF92DF92EF92FF921F93CF93DF934B012F
:100B10005C011091850482E090E0909383048093BF
:100B2000820481149104A104B10441F480918504EC
:100B3000811104C080918404C1E08111C0E0C12C06
:100B4000D12C760180918504811106C080918404A6
:100B5000811102C0CC23D9F083E090E0909383040C
:100B600080938204CC2381F1CCE9DFEF111102C024
:100B70000E946414CE01DF91CF911F91FF90EF90FE
:100B8000DF90CF90BF90AF909F908F9008956AE0D4
:100B900070E080E090E00E94773380E1C80E87E249
:100BA000D81EE11CF11C8FEF88169806A806B8061F
:100BB00031F0C1E08C149D04AE04BF0408F0C0E025
:100BC00080E00E94FD0FBECFD0E0C0E0CFCFCF923B
:100BD000DF92EF92FF920F931F93CF93DF938F3F9C
:100BE000910511F008F051C02091820430918304E6
:100BF0002330310539F02091820430918304213073
:100C0000310531F424E030E03093830420938204F2
:100C10006A017B01EC0182309105A8F011E0AE0180
:100C2000C701B6010E94C80FAB01BC01CE01112360
:100C3000F9F0DF91CF911F910F91FF90EF90DF902E
:100C4000CF900C948D168C01000F111F08581C4F6B
:100C5000D8018D919C91892B09F30E9497160297D8
:100C6000E9F6D801ED91FC91CE011995182FD7CF57
:100C70000E94AF1690E080E0DF91CF911F910F911D
:100C8000FF90EF90DF90CF9008958FEF9FEFF4CF1C
:100C900080E00C94FD0FCF93DF9386E090E090937B
:100CA0008304809382040E945610EC01E8E7F3E08D
:100CB00084E0DF011D928A95E9F70E94FC131092EF
:100CC000830410928204CE01DF91CF910895809128
:100CD0008404089580916D04089560936402709374
:100CE0006502809366029093670290E080E0089529
:100CF0002F923F924F925F926F927F928F929F922C
:100D0000AF92BF92CF92DF92EF92FF920F931F9319
:100D1000CF93DF93CDB7DEB72D970FB6F894DEBF34
:100D20000FBECDBFC0903802D0903902E0903A0299
:100D3000F0903B02A70196016091630A7091640AEA
:100D40008091650A9091660A0E94DE2E882341F008
:100D5000C092630AD092640AE092650AF092660A31
:100D60008091620A81111092620A6CEE7AE08091A1
:100D7000670AE3DBC0903C02D0903D02E0903E0267
:100D8000F0903F02A70196016091570A7091580AAE
:100D90008091590A90915A0A0E94DE2E882341F0D0
:100DA000C092570AD092580AE092590AF0925A0A11
:100DB0008091560A81111092560A68EE7AE080916D
:100DC0005B0ABBDB60915402709155028091560220
:100DD000909157020E947D2F20E030E040E05AE2DF
:100DE0000E94D2306B017C016091EC0A7091ED0A97
:100DF0008091EE0A9091EF0A0E947D2FA701960143
:100E00000E94D2302B013C014092BC0A5092BD0A94
:100E10006092BE0A7092BF0A6091E80A7091E90A76
:100E20008091EA0A9091EB0A0E947D2FA70196011A
:100E30000E94D2304B015C018092C00A9092C10A9C
:100E4000A092C20AB092C30A20914704309148048C
:100E50003A872987D901CD90DD90ED90FC902090C4
:100E6000980A3090990AB0919A0ABD87E0919B0A3E
:100E7000EB87A7019601B1018B2F9E2F0E94CE30E8
:100E800087FD93C2A70196016091A40A7091A50AFB
:100E90008091A60A9091A70A0E94CE3087FD85C254
:100EA0001092C40A1092C50A1092C60A1092C70A7C
:100EB0001092C80A1092C90A1092CA0A1092CB0A5C
:100EC0000091B00A1091B10AE985FA85C080D180FD
:100ED000E280F380D80158968D909D90AD90BC90A3
:100EE0005B97A7019601C501B4010E94DE2E87FF22
:100EF000D3C21092CC0A1092CD0A1092CE0A109250
:100F0000CF0A6091CC0A7091CD0A8091CE0A90915F
:100F1000CF0A6093D00A7093D10A8093D20A90933B
:100F2000D30A6093D40A7093D50A8093D60A90931B
:100F3000D70A0091C40A1091C50A2091C60A3091BF
:100F4000C70A0093D80A1093D90A2093DA0A30937B
:100F5000DB0A0091C80A1091C90A2091CA0A30918F
:100F6000CB0A0093DC0A1093DD0A2093DE0A30934B
:100F7000DF0A0E94B82F6B017C0107D78111A4C33F
:100F8000C701B601BDD681119FC320E030E040E823
:100F900057E4C701B6010E94D22F6B017C0120E00B
:100FA00030E0A9010E94DE2E87FF91C3C701B60180
:100FB00090580E944F2FEE27FF27E61BF70BFA836E
:100FC000E9838091EC0A9091ED0AA091EE0AB0912C
:100FD000EF0A8093E00A9093E10AA093E20AB093AB
:100FE000E30A8091E80A9091E90AA091EA0AB09197
:100FF000EB0A8093E40A9093E50AA093E60AB09383
:10100000E70AA0916202B091630229813A810E94AD
:1010100078394B015C0161E080914002909141027E
:10102000A0914202B091430288159905AA05BB051B
:1010300009F460E08DE0C5DC6CE070E080E090E0F9
:10104000D5DA8C019093870A8093860A60914402D6
:10105000709145028091460290914702681579058A
:101060008A059B057CF0609148027091490280914D
:101070004A0290914B02681579058A059B0514F484
:10108000C501B4010E947D2F20E030E040E858E324
:101090000E94D2306B017C0120E030E04FE753E446
:1010A0000E94DE2E18160CF419C320E030E0A901CE
:1010B000C701B6010E94CE3087FD17C3B701A60154
:1010C000C8015DDAC0904C02D0904D02E0904E0213
:1010D000F0904F02C814D904EA04FB047CF0C090DD
:1010E0005002D0905102E0905202F0905302C81486
:1010F000D904EA04FB0414F4750164016BE070E0A8
:1011000080E090E073DA8C019093770A8093760AFE
:10111000C701B60197FF07C09095809570956195BE
:101120007F4F8F4F9F4F0E947D2F20E030E040E89F
:1011300058E30E94D2306B017C0120E030E04FE7A1
:1011400053E40E94DE2E18160CF4D3C220E030E0E7
:10115000A901C701B6010E94CE3087FDD1C2B701F7
:10116000A601C8010CDA69E070E080E090E03EDAA8
:101170008C0190937F0A80937E0A80915A0290910D
:101180005B0229813A818217930744F080915C02C7
:1011900090915D02821793070CF4C90197FF03C079
:1011A0009195819591098F3F910519F014F08FEF7A
:1011B00090E0BC01990F880B990B0E947D2FAB0129
:1011C000BC01C801DCD96AE070E080E090E00EDA92
:1011D0008C0190936F0A80936E0A60915E02709109
:1011E0005F0289819A816817790744F060916002F3
:1011F00070916102681779070CF4BC0177FF02C097
:1012000070E060E06F3F710519F014F06FEF70E06F
:10121000072E000C880B990B0E947D2FAB01BC019F
:10122000C801ADD961E08091580290915902A9811D
:10123000BA818A179B0709F460E088E0C2DB8091DD
:10124000980A9091990AA0919A0AB0919B0A898371
:101250009A83AB83BC834090F80A5090F90A60905F
:10126000FA0A7090FB0AA3019201BC01CD010E9411
:10127000DE2EE0914704F0914804811145C280813F
:101280009181A281B3818093980A9093990AA09347
:101290009A0AB0939B0AECE9FAE08091BC0A90911B
:1012A000BD0AA091BE0AB091BF0A80839183A28338
:1012B000B3838091C00A9091C10AA091C20AB091F3
:1012C000C30A84839583A683B783409134045091E5
:1012D0003504609136047091370490E080E077DC4B
:1012E00040913C0450913D0460913E0470913F0454
:1012F00081E090E06CDC6091340470913504809161
:101300003604909137046F5F7F4F8F4F9F4F6093EC
:101310003404709335048093360490933704A0917D
:101320004704B0914804BA83A9830E947B2F9B0194
:10133000AC01609138047091390480913A04909125
:101340003B040E94D230E981FA81608371838283F9
:10135000938380913C0490913D04A0913E04B09110
:101360003F040196A11DB11D80933C0490933D0460
:10137000A0933E04B0933F042D960FB6F894DEBFC1
:101380000FBECDBFDF91CF911F910F91FF90EF90D6
:10139000DF90CF90BF90AF909F908F907F906F9095
:1013A0005F904F903F902F9008950091A40A109164
:1013B000A50AF091A60AF9832091A70A2D83980126
:1013C0004F2F5D81B1018D859B850E94DE2EA70187
:1013D000960187FF11C0B80189819D810E94DE2E90
:1013E00087FD52C081013D8539838B858D83ACE9B2
:1013F000BAE0BC87AB8710C0B1018D859B850E9488
:10140000CE3087FF46C08101BD85B983EB85ED8372
:101410002CE93AE03C872B87980149815D81C7011F
:10142000B6010E94792E6B017C01EB85FC85208141
:10143000318142815381C301B2010E94792EA701FB
:1014400096010E94E22E6093C40A7093C50A8093AD
:10145000C60A9093C70AAB85BC8514962D913D9121
:101460004D915C911797C501B4010E94792EA70197
:1014700096010E94E22E6093C80A7093C90A809375
:10148000CA0A9093CB0A1CCD88EA9AE09C878B8786
:10149000C3CFA8EABAE0ADCFA7019601F8016081F9
:1014A0007181828193810E94CE3087FF9BC0A7010A
:1014B0009601C501B4010E94DE2E18160CF095C0ED
:1014C0002091BA0A3091BB0A3A8329835901AA0CA8
:1014D000BB1CAA0CBB1C48018A0C9B1CA7019601D3
:1014E000D4016D917D918D919C910E94CE30B4E09C
:1014F000AB0EB11CA00EB11E18160CF066C0F4E0C5
:101500008F1A9108A7019601D40114966D917D91CF
:101510008D919C9117970E94CE3018160CF44AC0FA
:101520002090B20A3090B30A29813A813093BB0AE5
:101530002093BA0A220F331F220F331F3A872987BD
:10154000F901E00FF11F40805180628073802C5FB1
:101550003F4F3A832983F901E00FF11F8081918188
:10156000A281B3818D839E83AF83B8879C01AD0137
:10157000C301B2010E94DE2E811146C0A301920177
:10158000C701B6010E94DE2E87FF34C0A985BA8547
:10159000A20DB31DBA83A9838D919D910D90BC912D
:1015A000A02D8093CC0A9093CD0AA093CE0AB0933D
:1015B000CF0AA7CCE981FA813197FA83E9839FCFDB
:1015C000E981FA813196FA83E983D5016D917D91A4
:1015D0008D919D915D01A70196010E94DE2E181646
:1015E0007CF79ECF1A8219829BCFE5E0F0E0FA8368
:1015F000E98396CFE981FA812E0E3F1EF1018081A9
:101600009181A281B381CDCF29853A85220D331DE9
:10161000D9018D909D90AD90BC90E981FA812E0EFC
:101620003F1ED1018D919D910D90BC91A02D89837C
:101630009A83AB83BC839C01AD01C501B4010E94B8
:10164000DE2E8823C1F1A70196016D817E818F81F5
:1016500098850E94792E6B017C01A30192016D8116
:101660007E818F8198850E94792E9B01AC01C701F4
:10167000B6010E94E22E6B017C01AC019B0160E08F
:1016800070E080E89FE30E94792E29813A814B81A6
:101690005C810E94D2302B013C01A5019401C7015D
:1016A000B6010E94D2309B01AC01C301B2010E947D
:1016B0007A2E4B015C018092CC0A9092CD0AA092C6
:1016C000CE0AB092CF0A1DCCC12CD12C7601C70115
:1016D000B6010E944F2F7A83698373CCC12CD12C21
:1016E0009FE7E92E93E4F92EE9CCC12CD12C7601A9
:1016F000E5CCC12CD12C8FE7E82E83E4F82E2FCD3A
:10170000C12CD12C76012BCD8090A40A9090A50AF3
:10171000A090A60AB090A70AC080D180E280F38092
:10172000A5019401C301B2010E94DE2E81110BC0FC
:10173000C092A40AD092A50AE092A60AF092A70A43
:10174000E8EAFAE0AACDA501940169817A818B814A
:101750009C810E94DE2E87FFEBCFC092980AD09228
:10176000990AE0929A0AF0929B0A95CD8F929F92E5
:10177000AF92BF92DF92EF92FF920F931F93CF939E
:10178000DF9384E090E085D2EAE9F3E084E494E03A
:1017900097838683C7E4D4E0D093DB03C093DA0356
:1017A00008E314E0158B048BF0930504E093040424
:1017B000F583E48321E030E0DC012D933C938DE957
:1017C00092E09387828729E434E03983288340E0DC
:1017D00050E060E271E44093400450934104609310
:1017E0004204709343044AE057ED63E27CE3D8017E
:1017F0004D935D936D937C931397C2E2D4E08CE498
:101800009EECA6EEBEEB88839983AA83BB8383E913
:1018100096E8ABE7B3EA8093260490932704A0935D
:101820002804B093290483E694E8A0EAB5EB8093FA
:101830002A0490932B04A0932C04B0932D0485E0EC
:1018400099ECAEE5BBE380932E0490932F04A09314
:101850003004B0933104AEE8B3E0B383A283ECE785
:10186000F3E01196FC93EE938FEA92E091838083EC
:1018700093838283958384839783868391878087EC
:10188000938782879587848797878687918B808BBC
:1018900082E394E015969C938E9314971396DC93B1
:1018A000CE93129717963C932E931697C0E5DAE0E5
:1018B0008CE192E09093B10A8093B00A80E092E0CC
:1018C0009093B30A8093B20A1092BB0A1092BA0A9C
:1018D0008091F80A9091F90AA091FA0AB091FB0A56
:1018E0008093980A9093990AA0939A0AB0939B0ABE
:1018F0008093A40A9093A50AA093A60AB093A70A7E
:101900001F8A1C8608E312E0F80180819181A28180
:10191000B3818B8B9C8BAD8BBE8B812C912C540116
:1019200083948D869E86AF86B88A47E65AE063E147
:1019300082E10E949401DD24D394D98A1A8A8F8986
:101940000E94AF021B861882F80184819581A681CE
:10195000B7818F839887A987BA8789829A82AB8259
:10196000BC824BE55AE063E082E00E949401DD8294
:101970001E828B850E94AF0218AE89AE9AAEABAEC6
:10198000BCAE61E08DE015D8DDAE18AA89AA9AAA8E
:10199000ABAABCAAE12CF12C8701A80197016CE04D
:1019A00070E080E090E00E943A039FAB8EABDDAA2E
:1019B00018A289A29AA2ABA2BCA2A80197016BE0CF
:1019C00070E080E090E00E943A039FA38EA3DDA226
:1019D00018A689A69AA6ABA6BCA6A801970169E09D
:1019E00070E080E090E00E943A039FA78EA7DDA6FA
:1019F000188E898E9A8EAB8EBC8EA80197016AE0F4
:101A000070E080E090E00E943A039F8F8E8FDD8E21
:101A10001092900A8092910A9092920AA092930A50
:101A2000B092940A61E088E00E94D904D092950AAD
:101A3000DF91CF911F910F91FF90EF90DF90BF90BA
:101A4000AF909F908F90089580915C0A811114C08F
:101A500081E080935C0A80915D0A90915E0AA0917A
:101A60005F0AB091600A0197A105B10529F4809140
:101A7000610A81110E94BC028091500A811114C038
:101A800081E08093500A8091510A9091520AA0916E
:101A9000530AB091540A0197A105B10529F4809128
:101AA000550A81110E94BC028091880A811103C0ED
:101AB00081E08093880A8091800A81112EC081E0A4
:101AC0008093800A8091810A9091820AA091830A72
:101AD000B091840A0197A105B105F9F48091850AB6
:101AE0008823D9F06CE070E080E090E00E94F6027C
:101AF0009093870A8093860A40E050E0BA010E94E2
:101B0000BF026CE070E080E090E00E94F6029093EB
:101B1000870A8093860A0E948B038091700A811144
:101B20002EC081E08093700A8091710A9091720AB0
:101B3000A091730AB091740A0197A105B105F9F457
:101B40008091750A8823D9F06BE070E080E090E026
:101B50000E94F6029093770A8093760A40E050E064
:101B6000BA010E94BF026BE070E080E090E00E944A
:101B7000F6029093770A8093760A0E948B038091F5
:101B8000780A81112EC081E08093780A8091790AC9
:101B900090917A0AA0917B0AB0917C0A0197A105E5
:101BA000B105F9F480917D0A8823D9F069E070E0ED
:101BB00080E090E00E94F60290937F0A80937E0A74
:101BC00040E050E0BA010E94BF0269E070E080E0AE
:101BD00090E00E94F60290937F0A80937E0A0E9412
:101BE0008B038091680A81112EC081E08093680A7E
:101BF0008091690A90916A0AA0916B0AB0916C0A6F
:101C00000197A105B105F9F480916D0A8823D9F0F7
:101C10006AE070E080E090E00E94F60290936F0A24
:101C200080936E0A40E050E0BA010E94BF026AE071
:101C300070E080E090E00E94F60290936F0A80933B
:101C40006E0A0E948B038091900A811103C081E08B
:101C50008093900A089560E070E080E89FE708951F
:101C600060E070E080E89FE7089560E070E080E861
:101C70009FEF089560E070E080E89FEF089560E0D6
:101C800070E080EC9FEF089560E070E080EC9FEFE3
:101C90000895F5DF6093FC0A7093FD0A8093FE0AB5
:101CA0009093FF0AF1DF6093F00A7093F10A80933A
:101CB000F20A9093F30ACFDF6093F80A7093F90A5F
:101CC0008093FA0A9093FB0ACBDF6093F40A709337
:101CD000F50A8093F60A9093F70AC7DF6093000B2A
:101CE0007093010B8093020B9093030BC3DF6093FF
:101CF000040B7093050B8093060B9093070B0895CC
:101D0000CF92DF92EF92FF92CF936B017C01AC01F7
:101D10009B016091F80A7091F90A8091FA0A9091FA
:101D2000FB0A0E94DE2EC1E0882371F0A701960114
:101D30006091000B7091010B8091020B9091030B4D
:101D40000E94DE2E8111C0E08C2FCF91FF90EF908A
:101D5000DF90CF9008950F931F938B019C01002774
:101D6000112720783F770115110520483F4749F496
:101D7000AB01BC016F77772781E0452B462B472BC2
:101D800009F480E01F910F910895E5CF4F925F9283
:101D90006F927F928F929F92AF92BF92CF92DF927B
:101DA000EF92FF920F931F93F89440905D04509030
:101DB0005E0460905F0470906004C0905104D09005
:101DC0005204E0905304F09054044130510509F05E
:101DD000A4C09B01AC012419350946095709290102
:101DE0003A010091590410915A0420915B043091FA
:101DF0005C0448015901840C951CA61CB71C801674
:101E00009106A206B306A0F4009155041091560461
:101E100020915704309158040F5F1F4F2F4F3F4FB1
:101E2000009355041093560420935704309358049C
:101E30008092590490925A04A0925B04B0925C0480
:101E40000091550410915604209157043091580484
:101E50008092610490926204A0926304B092640440
:101E6000009365041093660420936704309368041C
:101E700060935D0470935E0480935F0490936004AC
:101E8000A0E1B7E2A30192010E9493396C0D7D1D80
:101E90008E1D9F1D609351047093520480935304D0
:101EA000909354040091640210916502209166029F
:101EB000309167020F3F1F4F2F4F3F4FF1F00091BE
:101EC00064021091650220916602309167020E3F14
:101ED0001F4F2F4F3F4F89F0C0906402D090650292
:101EE000E0906602F090670221E08C149D04AE043D
:101EF000BF0408F420E020936D0478941F910F91A3
:101F0000FF90EF90DF90CF90BF90AF909F908F9019
:101F10007F906F905F904F9008954B015C01841803
:101F20009508A608B708A3019201261B370B480B9A
:101F3000590B6415750586059705D0F08216930632
:101F4000A406B50640F420E030E0A9018114910414
:101F5000A104B10491F4A0E1B7E20E949339A70172
:101F60009601261B370B480B590BCA01B901C5CF87
:101F700082169306A406B50670F7A0E1B7E2A501A4
:101F800094010E9493396C0D7D1D8E1D9F1DB5CF50
:101F9000FDCECF93DF9300D01F92CDB7DEB71C826A
:101FA0001B821A8219821092690410926A0410929C
:101FB0006B0410926C04BE016F5F7F4FCE010396DD
:101FC0000E94C62C69817A818B819C810E94B425F4
:101FD000009761F4BE016F5F7F4FCE0103960E94B0
:101FE000D22C69817A818B819C812FD50F900F90A3
:101FF0000F900F90DF91CF910895FF920F931F9351
:10200000CF93DF93082F60E070E0CB010E9477331D
:10201000FF24F3940E949D24EC01892B89F010E0A9
:10202000CE3F8FEFD80769F0002361F160E070E0E8
:10203000CB010E94773381E090E0892B59F322C0D5
:1020400011E026D5EC01892B21F0CE3F8FEFD80788
:1020500059F711111EC011E0229609F410E00E94F8
:102060004D24EC01892B21F0CE3F8FEFD807E1F60C
:10207000111111C011E0CE3F8FEFD80709F410E025
:1020800001110BC0CE01DF91CF911F910F91FF90F5
:10209000089511E0E4CF11E0F3CF60E070E0CB01F0
:1020A0000E9477331F25812F90E0C7CFCF93DF9316
:1020B00080916D04882321F060E070E0CB014DD663
:1020C00036D6D0E0C0E0892B71F06AE070E080E0A5
:1020D00090E00E94773381E090DF29D62196C03DC1
:1020E00027E0D20781F728D60E940826109285049F
:1020F0001092840410927E0410927F041092800447
:102100001092810410927A0410927B0410927C0445
:1021100010927D0410927604109277041092780445
:102120001092790410927204109273041092740445
:102130001092750410926E0410926F041092700445
:10214000109271044EEF5FEF6FEF7FEF40936402E8
:1021500050936502609366027093670210926D045B
:10216000E1E6F4E028E0DF011D922A95E9F71092FC
:102170005D0410925E0410925F041092600410924D
:10218000590410925A0410925B0410925C0410924D
:10219000550410925604109257041092580410924D
:1021A0005104109252041092530410925404DF917F
:1021B000CF9108951092910410929204109293047A
:1021C00010929404109290048091990490919A0432
:1021D00090938F0480938E0410928D0410928C043F
:1021E000109288041092890410928A0410928B0431
:1021F000109296041092950490E080E00895CF929A
:10220000DF92EF92FF920F931F93CF938C01019770
:1022100009F055C02091990430919A0480918E0460
:1022200090918F044091990450919A0450938F0497
:1022300040938E042817390781F010928D04109274
:102240008C04109288041092890410928A041092CF
:102250008B041092960410929504809199049091A9
:102260009A04019761F58091950490919604892BC9
:1022700021F480916802811112C08091950490919F
:1022800096040197E1F48091880490918904A091CB
:102290008A04B0918B040197A105B10581F41092D5
:1022A00088041092890410928A0410928B04109270
:1022B000680282E090E09093960480939504809168
:1022C000990490919A04019709F01CC18091AF0480
:1022D0009091B0048017910709F014C18091AB046C
:1022E0009091AC04A091AD04B091AE04009709F4B4
:1022F00009C12091AA0421110DC04091AB04509155
:10230000AC046091AD047091AE04452B462B472B75
:1023100009F4F8C0209195043091960422303105DB
:1023200009F0F0C020918C042111ECC0FC01C080A8
:10233000D180E280F38080919004882309F4D3C097
:1023400080919C0490919D04892B09F4FEC02091FA
:102350009C0430919D0481E02230310509F080E039
:1023600020919C0430919D04C1E02130310549F059
:1023700020919C0430919D04C1E02230310509F088
:10238000C0E0882309F456C02091A6043091A70428
:102390004091A8045091A904C701B6010E94CE3013
:1023A00087FD14C02091A6043091A7044091A80491
:1023B0005091A904609191047091920480919304CA
:1023C000909194040E94DE2E87FD22C02091A604E5
:1023D0003091A7044091A8045091A904C701B60107
:1023E0000E94CE30181634F52091A6043091A7042F
:1023F0004091A8045091A9046091910470919204B5
:1024000080919304909194040E94DE2E811112C059
:1024100080919E0490919F04A091A004B091A1048A
:10242000892B8A2B8B2B19F481E080938D0481E01A
:1024300080938C04CC2309F456C02091A6043091DB
:10244000A7044091A8045091A904C701B6010E94B5
:10245000DE2E87FF14C02091A6043091A70440917E
:10246000A8045091A9046091910470919204809104
:102470009304909194040E94CE3087FF22C0209153
:10248000A6043091A7044091A8045091A904C70163
:10249000B6010E94DE2E811126C02091A604309143
:1024A000A7044091A8045091A904609191047091EF
:1024B000920480919304909194040E94CE30181657
:1024C00094F480919E0490919F04A091A004B091F7
:1024D000A104892B8A2B8B2B19F481E080938D0426
:1024E00081E080938C0481E090918C04911180E0D4
:1024F00080939004C0929104D0929204E09293044D
:10250000F09294040130110509F067C1809195049F
:1025100090919604892BD9F410929B0410928C040C
:1025200080916802882379F082E090E0909396048D
:1025300080939504109268022091990430919A0436
:1025400081E0232BE9F080E01BC081E009CF1092ED
:10255000680280919B04882349F010928D041092A8
:1025600096041092950410929B04EDCF80919904EB
:1025700090919A04892BE1F080918C0410928C0444
:1025800020919504309196042230310509F45EC003
:1025900088F42115310509F448C02130310509F4CA
:1025A000F3C010928D0410928C0410929B0438C0DA
:1025B00081E0E6CF2330310509F4B1C02430310584
:1025C00081F7409188045091890460918A04709148
:1025D0008B04411551056105710561F041505109A8
:1025E00061097109409388045093890460938A04B7
:1025F00070938B04409188045091890460918A04FF
:1026000070918B04452B462B472BD9F420919704CE
:10261000309198042130310509F046C010928D04A4
:1026200010929604109295040CC080916802882341
:1026300041F082E090E0909396048093950410928C
:1026400068021092860480918D04CEC08823C9F35D
:1026500080919E0490919F04A091A004B091A10448
:10266000181619061A061B060CF07DC080919904F5
:1026700090919A04019709F076C080919E04909100
:102680009F04A091A004B091A1048093880490932A
:102690008904A0938A04B0938B0483E090E0909324
:1026A000960480939504CDCF4091A2045091A30449
:1026B0006091A4047091A504452B462B472BA9F0EB
:1026C00010928D048091A2049091A304A091A4047F
:1026D000B091A5048093880490938904A0938A0400
:1026E000B0938B0481E090E0DACF882399F0809159
:1026F000690290916A02A0916B02B0916C02809382
:10270000880490938904A0938A04B0938B0484E096
:1027100090E0C5CF10928D0482E090E0C0CF809110
:10272000880490918904A0918A04B0918B04009749
:10273000A105B10559F00197A109B1098093880459
:1027400090938904A0938A04B0938B0480918804A9
:1027500090918904A0918A04B0918B04892B8A2BD3
:102760008B2B09F06ECF8091690290916A02A09143
:102770006B02B0916C02892B8A2B8B2B09F44ECF04
:1027800081E080938D04B3CF4091880450918904F7
:1027900060918A0470918B044115510561057105A2
:1027A00061F04150510961097109409388045093C7
:1027B000890460938A0470938B044091880450913B
:1027C000890460918A0470918B04452B462B472B1A
:1027D00009F037CF8111C7CF9FCF8091860488231E
:1027E00009F431CF80918704CF911F910F91FF9011
:1027F000EF90DF90CF900895109291041092920480
:1028000010929304109294041092900410929604E3
:102810001092950410928F0410928E041092B004BE
:102820001092AF0410928D0410928C0410928804C0
:102830001092890410928A0410928B0410928704DB
:10284000109286041092AB041092AC041092AD0466
:102850001092AE041092AA041092A6041092A7043B
:102860001092A8041092A90488EE93E0A0E0B0E0D2
:102870008093690290936A02A0936B02B0936C02FA
:102880001092A2041092A3041092A4041092A50422
:1028900010929E0410929F041092A0041092A10422
:1028A00010929D0410929C0481E080936802109223
:1028B0009B0410929A04109299041092980410921A
:1028C000970490E080E008958091990490919A0493
:1028D000892B19F580916802882351F080919B041F
:1028E000811106C081E08093870480938604089557
:1028F00020919B043091680281E090E0332311F035
:1029000090E080E030E082239323892B21F0109225
:10291000870481E0EACF10928604089582E090E077
:10292000FA01918380838FEF9FEF0895CF93DF9318
:10293000EA01009711F00E9428271982188290E07E
:1029400080E0DF91CF910895DB01009719F48FEFBC
:102950008C9308952EEF2C93FC013F96EF30F105F8
:1029600008F034C08827E854FB4E8F4F0C94703920
:10297000E414E214E014DE14DC14D814DA14D614CF
:10298000D414D214CF14CB14C714CD14E61480E39E
:1029900011968C93089589E2FBCF82E2F9CF1196CC
:1029A0001C92089583E2F4CF81E2F2CF81E1F0CF6F
:1029B00087E2EECF8AE2ECCF80E1EACF84E2E8CF93
:1029C00088E2E6CF86E2E4CF81E3E2CF80E2E0CFA7
:1029D0008091BD049091BE0408959093BE048093AD
:1029E000BD0408958091BC0408959091BC04892B86
:1029F0008093BC040895982F90958091BC048923FE
:102A00008093BC0408958091BB0408958091B9041B
:102A10009091BA0408956115710559F0FB0130E0F9
:102A200020E070E060E02417350719F061157105AA
:102A300011F0CB010895A081B181A817B90709F45D
:102A4000BF012F5F3F4F3696EECF8091BF048111BB
:102A50001CC060D266D29093B2048093B1040E94ED
:102A6000261F0E94381F9093B6048093B5040E94DD
:102A7000B5230E94BC239093B4048093B30481E0F7
:102A80008093BF0490E080E0089584EF9FEF089565
:102A90008F929F92AF92BF92CF92DF92EF92FF926E
:102AA0000F931F93CF93DF9300D000D000D01F92DD
:102AB000CDB7DEB71A86198618861F821E821D8240
:102AC0001C821B821A8219828091BF0407EF1FEFBC
:102AD000882309F49CC08E010D5F1F4F9E012B5F60
:102AE0003F4FAE01495F5F4FBE01675F7F4F90E090
:102AF00080E00E9439258C01009721F0059602970D
:102B000008F0DBC029853A852115310509F402C199
:102B1000ED80FE804B815C81B701640F751F8F8152
:102B200098858617970708F4F5C0E20EF31ED701C3
:102B30009C91903C09F07FC04230510508F47BC065
:102B400011968C914091BD045091BE04452B09F41F
:102B50009CC0913F08F071C02CE1290F2D3008F482
:102B60008BC02DE2290F203108F489C0903C21F45C
:102B70008150823008F483C088E3890F8B3008F4D9
:102B800081C094EAC92E94E1D92EEEE8F4E16D817A
:102B90007E81AE014F5F5F4F89859A8519955C01F3
:102BA000C114D104A1F189809A808114910479F132
:102BB0008B819C818815990508F487C010E000E09E
:102BC0004B815C8170E060E0C7010E94A63901156D
:102BD0001105E9F449815A8169857A858D819E8143
:102BE000680F791FC501F6011995E980FA800D81FA
:102BF0001E812F81388549855A856FEF7FEF81E0EF
:102C000090E00E94D4248C01892B09F056C0C801A1
:102C10002A960FB6F894DEBF0FBECDBFDF91CF91DD
:102C20001F910F91FF90EF90DF90CF90BF90AF90EA
:102C30009F908F90089580E085CF30E020E0220FB4
:102C4000331FF901EF54FB4F0190F081E02D3097D5
:102C500009F497CF892F90E01995009709F491CF47
:102C6000DC011296ED91FC9113971496CD90DC90B7
:102C7000309709F08CCF1FC021E030E0E0CF22E098
:102C800030E0DDCF23E030E0DACFD12CC12CE6E913
:102C9000F4E19F3F09F07BCFE091B104F091B204E1
:102CA000309721F4C90104EF1FEF0CC08FEF90E0C3
:102CB00019950097A9F604EF1FEF89859A8500976B
:102CC00009F4A5CF0E942827A2CF0E9403268C01D9
:102CD00089859A850E94282770E060E0C4010E94DF
:102CE0009C2598878F830E94D1249E838D836F813A
:102CF00078856115710559F0C8010E94B4289A873A
:102D0000898706EF1FEF892B09F058CF59CF08EFBD
:102D10001FEF56CF08EF1FEFD0CF2091BF04222323
:102D200019F020E00C943D1F87EF9FEF08958091EC
:102D3000BD049091BE0408950E94C1230E941B23EC
:102D4000F5D0E1EBF4E088E0DF011D928A95E9F728
:102D50001092BF0490E080E008950C94792121E066
:102D600040E050E0BA010C943D1F86E090E0FA018B
:102D70009183808390E080E0089547E050E062EB2B
:102D800072E049CEDF92EF92FF920F931F93CF93A1
:102D9000DF938A01EC01C60FD71FE090C304F090C7
:102DA000C404D9800E94EB25D816190678F082E079
:102DB00090E0F801918380838EEF9FEFDF91CF91B8
:102DC0001F910F91FF90EF90DF900895EF2841F44D
:102DD00082E090E0F8019183808384EF9FEFEECF53
:102DE00089818093C20490E00196F80191838083E9
:102DF00090E080E0E3CFCF93DF93EA010E942A22A4
:102E0000882321F00E94F8250E942B2282E090E086
:102E1000998388838BEF9FEFDF91CF910895CF93B4
:102E2000DF93EB0186E0FB0111928A95E9F78FEFC2
:102E30008883D8DD8983E7DD8A83E8DD9D838C8301
:102E4000DF91CF910895CF93DF93EA010E942D2265
:102E5000811109C082E090E09983888385EF9FEF1C
:102E6000DF91CF91089590E080E0B7DD81E090E0C0
:102E70009983888390E080E0F3CF0F931F93CF93E3
:102E8000DF93EA018C01060F171F0E942D2281118A
:102E90000BC082E090E09983888385EF9FEFDF91FC
:102EA000CF911F910F910895F8018181823038F000
:102EB00082E090E0998388838EEF9FEFF0CF81E0EE
:102EC00090E08BDD88E090E09983888390E080E05B
:102ED000E6CFCF93DF930097D1F4EB01FB0132965D
:102EE00086E0DF011D928A95E9F78FEF888385E000
:102EF00089831A820E94EB258B830E94EA259D8399
:102F00008C8381E08E838F83DF91CF910895DF9151
:102F1000CF911ACD8DEB96E19093C1048093C004BC
:102F200008958091C0049091C10408951092C10445
:102F30001092C00408958091C3049091C404089530
:102F4000411105C0611571058105910561F060931E
:102F5000C3047093C4048093C5049093C604409343
:102F6000C70481E0089580E00895FF920F931F93B6
:102F7000CF93DF938A01EC01C60FD71FF9800E941F
:102F8000EB25F816190668F082E090E0F8019183CD
:102F900080838EEF9FEFDF91CF911F910F91FF9074
:102FA00008956C817D818E819F814B81C9DF811164
:102FB00008C082E090E0F8019183808384EF9FEF66
:102FC000EACF89818093C20490E00196F801918351
:102FD000808390E080E0DFCFCF93DF93EA01FC01B4
:102FE000E60FF71F64817581868197814381A8DF91
:102FF000811109C082E090E09983888384EF9FEF7C
:10300000DF91CF91089581E090E09983888390E0EB
:1030100080E0F6CFE3ECF4E040815181628173817E
:10302000480F511D611D711D40835183628373835D
:103030000895CF93C091C2044C2F50E06091C30417
:103040007091C40401960E949D398C2FE3DF109289
:10305000C204CF910895009799F48091C304909190
:10306000C4042FEFFB012083892B59F02091C20467
:1030700030E02F5F3F4F2417350719F4CB01D9CF2C
:1030800063CC0895009799F48091C3049091C4048F
:103090002FEFFB012083892B59F02091C20430E0EF
:1030A0002F5F3F4F2417350719F4CB01C2CF4CCC0B
:1030B000089523E1AC01249FC001259F900D1124A8
:1030C000E091CC04F091CD04E80FF91F2381348105
:1030D0002250310981E02230310508F080E0089566
:1030E0000F931F93CF93DF930091CE041091CF04E1
:1030F000D0E0C0E080E00C171D0749F491E0811199
:1031000090E0892FDF91CF911F910F910895811148
:10311000F5CFCE01CEDF2196EECFA091CC04B091B9
:10312000CD04109729F12091CE043091CF0482175D
:103130009307F0F453E1589F9001599F300D1124EB
:10314000A20FB31FED91FC911197309789F0129661
:103150008C91681768F48DE0689FE00DF11D1124D3
:1031600080819181892B21F081E09281491708F0BB
:1031700080E008959C0143E1429FC001439F900D70
:103180001124E091CC04F091CD04E80FF91F838560
:10319000823091F481E090E06581768140916D020A
:1031A00050916E026417750711F490E080E0892B4E
:1031B00019F081E0232B09F080E00895FC01A08143
:1031C000B1818DE0689FA00DB11D112413964D9122
:1031D0005C9185859685489F9001499F300D589F49
:1031E000300D1124C9010196611103C0478144FDCE
:1031F00004960895EF92FF920F931F93CF93DF935E
:10320000EA01FC01E60FF71F02811381E480F580DB
:103210004F2D6E2DC80181DF81110DC082E090E03D
:10322000998388838EEF9FEFDF91CF911F910F914C
:10323000FF90EF900895C8013CDF882339F082E0C9
:1032400090E09983888388EF9FEFEECF109374020C
:1032500000937302E0927502F092760281E090E0B2
:103260009983888390E080E0DFCFCF92DF92EF9266
:10327000FF920F931F93CF93DF937A01EC01C60F58
:10328000D71FC0907302D090740200917502109104
:103290007602412F602FC60140DF811110C082E00D
:1032A00090E0F701918380838AEF9FEFDF91CF91C8
:1032B0001F910F91FF90EF90DF90CF900895C6017E
:1032C000F8DE882341F082E090E0F701918380836B
:1032D00088EF9FEFEBCF4C815D816E817F819A817A
:1032E00089818F3F41F082E090E0F70191838083F4
:1032F0008EEF9FEFDBCFE3E1EC9D9001ED9D300D74
:103300001124E091CC04F091CD04E20FF31F019061
:10331000F081E02D2DE0029FE00DF11D11240190C0
:10332000F081E02D27E0129FE00DF11D1124808334
:1033300091838B81828343835483658376831F5F6C
:103340001093760281E090E0F7019183808390E012
:1033500080E0ACCFEF92FF920F931F93CF93DF9358
:103360007A018C01060F171FC091CC04D091CD04B7
:10337000209781F021E030E0F80182819381409133
:10338000CE045091CF048417950710F030E020E070
:10339000232B71F482E090E0F701918380838EEF1C
:1033A0009FEFDF91CF911F910F91FF90EF900895C4
:1033B00043E1489F9001499F300D1124C20FD31F54
:1033C00078DE882341F082E090E0F70191838083EA
:1033D00088EF9FEFE6CFF801248135812038310551
:1033E000C8F687818111D6CF4181842F90E08F7EEE
:1033F000009741F082E090E0F7019183808386EFAF
:103400009FEFCFCF4F833E832D8326812887198658
:10341000223010F421E0288721E030E0F7013183E9
:103420002083BFCF88E090E0FA019183808390E011
:1034300080E00895FB018FEF808381E181838FEF2E
:103440009FEF9383828380E890E095838483168244
:1034500017820895FB018FEF808391E0918382832F
:103460009383848384E3858381E090E097838683DC
:103470000895DF92EF92FF920F931F93CF93DF9304
:10348000EA01FC01E60FF71F8181813071F082E0D3
:1034900090E0998388838FEF9FEFDF91CF911F9109
:1034A0000F91FF90EF90DF90089582819381D480F7
:1034B0002581E680F7800091CC041091CD040115A0
:1034C000110539F482E090E0998388838CEF9FEFB7
:1034D000E4CF4091CE045091CF048417950738F083
:1034E00082E090E0998388838EEF9FEFD6CF892B7F
:1034F00039F082E090E09983888386EF9FEFCDCF0B
:103500008D2D8D7FB1F72130A1F781E0D11006C05C
:1035100091E0E916F10431F080E004C0E2E0EE163B
:10352000F104D0F3882329F390E080E0C2DD882302
:1035300039F082E090E09983888388EF9FEFADCFE8
:10354000F801D38681E08487F686E586108A17869F
:1035500081E090E09983888390E080E09ECF4CE00A
:1035600050E06CED72E057CA8F929F92BF92CF925B
:10357000DF92EF92FF920F931F93CF93DF93EA01B5
:10358000FC01E60FF71F828193810481B580E091F1
:10359000CC04F091CD04309791F482E090E09983CF
:1035A00088838CEF9FEFDF91CF911F910F91FF9058
:1035B000EF90DF90CF90BF909F908F9008952091D3
:1035C000CE043091CF048217930738F082E090E068
:1035D000998388838EEF9FEFE6CF23E1289F6001D8
:1035E000299FD00C1124EC0DFD1DE080F180E11429
:1035F000F10499F28281081748F78DE0089F800155
:103600001124E00EF11EF70180819181892B29F6AA
:10361000BB20E1F2F7E0BF9E40011124C4010E94EB
:10362000EF26F70191838083E091CC04F091CD04E3
:10363000EC0DFD1D0190F081E02DE00FF11F808168
:103640009181009739F482E090E0998388838DEF2F
:103650009FEFA9CFA40170E060E00E94A63980919D
:10366000CC049091CD04C80ED91EF60180819181C1
:10367000080F191FF801B28281E090E099838883D6
:1036800090E080E090CFAF92BF92CF92DF92FF9216
:103690000F931F93CF93DF93EA01FC01E60FF71F0F
:1036A00082819381F4800091CC041091CD040115A6
:1036B000110581F482E090E0998388838CEF9FEF7D
:1036C000DF91CF911F910F91FF90DF90CF90BF902E
:1036D000AF9008952091CE043091CF0482179307C4
:1036E00038F082E090E0998388838EEF9FEFE8CFF7
:1036F0002FEF2F0D2C3FA8F723E1289F6001299F72
:10370000D00C11240C0D1D1DF80180819181892B95
:1037100089F6FDE0FF9E50011124C5010E94EF26AD
:10372000F80191838083E091CC04F091CD04EC0DFD
:10373000FD1D80819181009739F482E090E09983AA
:1037400088838DEF9FEFBCCFA50170E060E00E9401
:10375000A639E091CC04F091CD04EC0DFD1DF28270
:1037600081E090E09983888390E080E0A9CFCF92B8
:10377000DF92EF92FF920F931F93CF93DF93860F09
:10378000971FFC01028113818091CC049091CD049C
:10379000892B81F082E090E0FA01918380838CEFA5
:1037A0009FEFDF91CF911F910F91FF90EF90DF90EE
:1037B000CF900895C801B0E0A0E00197A109B10938
:1037C0008F3F9F4FA105B10540F082E090E0FA01E4
:1037D000918380838EEF9FEFE4CF7A0183E1809F16
:1037E0006001819FD00C1124C6010E94EF26EC01DC
:1037F000009741F482E090E0F701918380838DEFA0
:103800009FEFCFCFA60170E060E00E94A639D09371
:10381000CD04C093CC041093CF040093CE0490E069
:1038200080E02FEF3FEF41E061E070E0801791070B
:1038300041F481E090E0F7019183808390E080E0A3
:10384000B0CF3A8B298B1B864C877E876D87188A71
:103850001F8601966396EACFEF92FF921F93CF9354
:10386000DF93EC0110E0F12CE12C6A811617B0F027
:1038700083E0689FB0011124AE014F5E5F4FC70126
:103880000E945427009721F02FEF3FEF3A8B298BAE
:10389000DF91CF911F91FF90EF900895612FCE019E
:1038A0008DDC61E070E00E949C25E816F90608F4C2
:1038B0007C011F5FDACFF8942091CA043091CB04C9
:1038C00081E02115310509F080E0232B09F078947F
:1038D00008952F923F924F925F926F927F928F92B4
:1038E0009F92AF92BF92CF92DF92EF92FF920F938F
:1038F0001F93CF93DF933C01660E771EF301828105
:1039000093814C01B12CA12CC091CC04D091CD0459
:10391000209769F021E030E06091CE047091CF04EF
:103920008617970710F030E020E0232BD1F482E0D7
:1039300090E0FA01918380838EEF9FEFDF91CF912A
:103940001F910F91FF90EF90DF90CF90BF90AF90BD
:103950009F908F907F906F905F904F903F902F90AF
:1039600008958092770290927802A0927902B092A4
:103970007A0263E1689F9001699F300D1124C20FA4
:10398000D31FF3018181833040F082E090E0FA019F
:103990009183808386EF9FEFD1CF2A012B813C81D9
:1039A000232BF1F4288139819F8191FF2EC0232B95
:1039B00009F46FC02091D1049A81422F490F5527F5
:1039C000551FBA0141E050E06138710514F050E034
:1039D00040E0452B09F45DC02A87920F9093D104F3
:1039E0008150823008F481C066DF882309F4D8C092
:1039F000F3018181813009F48DC008F47BC08230ED
:103A000009F4C6C090E080E0ADC0232B09F441C0AA
:103A10002091D0049A81E22FE90FFF27FF1F41E098
:103A200050E0ED3FF10514F050E040E0452B89F106
:103A30002A87920F9093D004D3CFA081B181A20F97
:103A4000B31F11966C91060F111D0196295F3F4F10
:103A50008417950794F38D859E85089F1001099F13
:103A6000300C189F300C1124C114D104D1F48F8173
:103A700084FF17C00E94EA25F5E02F0E311C21E0DB
:103A80008215930508F420E0A701435F5F4F2111E1
:103A90000EC082E090E0F2019183808387EF9FEF78
:103AA0004DCF0E94EA252FEF221A320AE8CF8881F3
:103AB0009981E80EF91EF70114830383FFEFCF1AF3
:103AC000DF0A7A018A818C151D0409F00CF48CCF71
:103AD000E881F981EE0DFF1D428150E030E020E0E9
:103AE00010E000E090E080E0B3CFF12CE12CD12C8D
:103AF000C12CE8CF81E090E09C838B83F1DA8823AE
:103B000009F480CF81E090E00E94ED1480E40E94EF
:103B1000FB1478CF89899A89019661F083E090E05F
:103B20009C838B8382E090E00E94ED1480E40E94ED
:103B3000F51468CF8D819E8120916D0230916E02C7
:103B400082179307D1F46091710270917202AE01F5
:103B50004F5E5F4F80916F02909170020E947328B8
:103B60000097E1F2789422E030E0F2013183208383
:103B7000892B99F08DEF9FEFE1CE89288A288B2839
:103B800069F6029758F6CE0167DE188A1F86E8CFDD
:103B900082E090E09C838B8335CF90E080E0CECEB6
:103BA00082E090E0F2019183808385EF9FEFC6CEA3
:103BB0008F929F92AF92BF92CF92DF92EF92FF923D
:103BC0000F931F93CF93DF93EA018C01060F171F0A
:103BD000F8018181833098F082E090E099838883B6
:103BE00086EF9FEFDF91CF911F910F91FF90EF90A4
:103BF000DF90CF90BF90AF909F908F90089580916D
:103C0000CC049091CD04892B61F081E090E020916B
:103C1000CE043091CF04232B11F490E080E0892B67
:103C200039F482E090E0998388838EEF9FEFDACFBA
:103C300042DE882309F4E0C0F8018181813009F473
:103C400096C0E8F0823099F42091CE043091CF04F0
:103C5000E091CC04F091CD0490E080E041E050E0B0
:103C60002817390709F0BEC03BDA811117C07894D4
:103C700081E090E09983888390E080E0B3CF209149
:103C8000CE043091CF04E091CC04F091CD0490E0CB
:103C900080E041E050E02817390741F481E090E0EE
:103CA0000E94ED1480E40E94FB14E1CF63817481D3
:103CB000672B11F05483438301967396ECCFE09108
:103CC000CC04F091CD04E00FF11F23813481223028
:103CD0003105D9F4218932892F3F3F4FB1F4258135
:103CE000368140916D0250916E022417350761F5BF
:103CF000AF014F5E5F4F60917102709172028091CF
:103D00006F02909170020E947328EFEFCE1ADE0AC4
:103D1000EE0AFE0A0D5E1F4F4091CE045091CF0473
:103D200070E060E0C416D506E606F70644F5009795
:103D300031F27894892B09F49BCF82E090E099834B
:103D400088838DEF9FEF4ECFC114D104E104F104BD
:103D5000E1F622303105C8F6CF017EDDE091CC04DA
:103D6000F091CD04E00FF11F108A1786CECF10E03E
:103D700000E090E080E0C12CD12C7601CDCF0097FF
:103D8000C1F610E000E0812C912C540183E0E82E74
:103D9000F12C1AC0E091CC04F091CD04E00FF11F9A
:103DA00083819481029749F4F482E38282E090E077
:103DB0000E94ED1480E40E94F514FFEF8F1A9F0A11
:103DC000AF0ABF0A0D5E1F4F8091CE049091CF04C1
:103DD000B0E0A0E088169906AA06BB06DCF290E0E7
:103DE00080E0A7CF638174816230710511F4548340
:103DF00043830196739634CF82E090E09983888361
:103E000085EF9FEFEFCE0097B9F48FEFFB01808332
:103E1000209177023091780243E1429FC001439F95
:103E2000900D1124E091CC04F091CD04E80FF91F1E
:103E30008285FB01818308950C94A41488E090E0AE
:103E4000FA019183808390E080E008951092CB0482
:103E50001092CA04ECECF4E086E0DF011D928A9532
:103E6000E9F78FEA9AE19093C9048093C804089512
:103E70008091C8049091C90408952F923F924F9267
:103E80005F926F927F928F929F92AF92BF92CF92EA
:103E9000DF92EF92FF920F931F93CF93DF93CDB7F3
:103EA000DEB72F970FB6F894DEBF0FBECDBFF894E4
:103EB000E091CA04F091CB043196F093CB04E093E7
:103EC000CA0478944090CC045090CD04411451041D
:103ED00009F40CC2E091CE04F091CF04EF2B09F469
:103EE00005C22D8749875A876B877C8798878F8380
:103EF0001201B12CA12C10E000E08091CE04909131
:103F0000CF04A816B90618F40115110529F1F89483
:103F10008091CA049091CB0401979093CB04809335
:103F2000CA047894C8012F960FB6F894DEBF0FBE6E
:103F3000CDBFDF91CF911F910F91FF90EF90DF9058
:103F4000CF90BF90AF909F908F907F906F905F9039
:103F50004F903F902F9008957101E418F508D1011A
:103F600017968C91179781FD54C013968D919C9153
:103F70001497039709F04DC015968D919C91EF8190
:103F8000F8858E179F0709F044C0B50190E080E0E6
:103F90007FD48A832091CC043091CD043D832C833F
:103FA0003D85332309F44CC04C815D81452B09F4D8
:103FB0009AC18091CE049091CF04A816B90608F05A
:103FC00092C1C501D7D88823E9F06C817D816E0D3F
:103FD0007F1D7D836C83DB011F968D919C91892BC6
:103FE00089F0D12CC12CF12CE12CAC81BD81129631
:103FF0008C9112978E151F0409F094F450961C9220
:104000001E921F972A81222321F0B50190E080E0C3
:1040100041D43FEFA31AB30A43E1240E311C6DCF04
:10402000AC81BD81ED91FC91EC0DFD1D85819681EA
:104030000FD7BFEFEB1AFB0AEDE0CE0ED11CD5CFA8
:10404000EC81FD81309709F44EC18091CE049091AE
:10405000CF04A816B90608F046C1EE0DFF1DFF8774
:10406000EE87C50187D88B83882339F1AE85BF855C
:104070001F968D919C915097019621E01D964D9130
:104080005C918417950709F020E02E831982712C2A
:1040900010E000E0AE85BF8512968C91781608F48A
:1040A0005DC0EE85FF85878590890196658576855B
:1040B0000E943A39908B8787A5CFB1E0BE83E6CFC7
:1040C000992493946BC08BD6F6019683858382C026
:1040D000D601ED90FC90B7E06B9EE00CF11C112432
:1040E000F7016381748180818F3F61F121E030E0CD
:1040F00002C0220F331F8A95E2F7C901092E000C76
:10410000AA0BBB0BFB014081518162817381842327
:104110009523A623B72321E0892B8A2B8B2B09F427
:1041200020E0D4012C93D70111968C91F6012385C0
:104130003485820F932F911D880E991E1486138645
:1041400063949BC0418150E0C4010E949D39EBCF34
:10415000998206EF1FEFC5C01982C3C0F981F11122
:10416000A0CFEDE07E9E70011124AE85BF85CD907D
:10417000DC90CE0CDF1C15D49D838C83BB81BB23CC
:1041800009F49ECF81E0EE85FF8527853089232BBA
:1041900009F080E0982E882309F458C0672D8E8599
:1041A0009F850CD8D60118969C938E93179761E043
:1041B00070E0C2D4EE85FF85218932892F3F320716
:1041C00009F481CFBC01C901CFD7D60116969C93C3
:1041D0008E931597D60115968D919C911697009701
:1041E00009F4B6CFEC81FD818E0F9F1F1A969C9328
:1041F0008E931997AE85BF85ED91FC911197EE0EC8
:10420000FF1EF70121853285148613861A968C913C
:10421000870DD9018D93711016C0EE85FF858781BA
:1042200084FF11C049855A856B857C85F9014183DE
:10423000528363837483F701838594850496A80F62
:10424000B91F14861386F701B287A187D601159688
:104250008D919C911697892B09F443C0EE85FF85BB
:104260002581368180916D0290916E022817390761
:1042700079F019968D909C90612CD60112968C91B4
:104280001297681608F424CF1A969C928E9219976A
:10429000BE81BB2309F460CF61E070E0F601878145
:1042A00090854AD4D6011796ED90FC9018971596F4
:1042B0004D915C91E1E0F0E0BA81BB2311F0F0E0B8
:1042C000E0E00C811D819C01B501882799278E1B98
:1042D0009F0B6AD38C01892B21F0F6018581968191
:1042E000B7D57394D7CE0FEF1FEF8CCE10E000E060
:1042F0000ECE2F923F924F925F926F927F928F924B
:104300009F92AF92BF92CF92DF92EF92FF920F9364
:104310001F93CF93DF938091CC049091CD0410E054
:1043200000E0892BA9F0C7DA0AEF1FEF882381F09C
:104330002090CE043090CF04C091CC04D091CD0415
:10434000D12CC12C10E000E02C143D04A9F4789489
:10435000C801DF91CF911F910F91FF90EF90DF90F7
:10436000CF90BF90AF909F908F907F906F905F9015
:104370004F903F902F900895C6010E94BA1888234D
:1043800009F18B819C810397E9F48F859889892BAA
:10439000C9F0B60190E080E07BD221E030E08823D4
:1043A00011F030E020E044245524421A530AB12C85
:1043B000A12C912C812C8A818815190409F038F4DC
:1043C000188A1F864FEFC41AD40A6396BDCFE881BE
:1043D000F981EA0DFB1D85819681892BA1F161E0B0
:1043E00070E087819085A8D33C01DBD28C01E88105
:1043F000F981EA0DFB1D8185928525813681200F8B
:10440000311FAC01421B530B9A0147815085421B5F
:10441000530B70E060E00E94A639E881F981EA0D53
:10442000FB1DE780F084458156819301B601C201EE
:10443000BBD28C01892B39F0E881F981EA0DFB1D93
:104440008581968105D55FEF851A950A8DE0A80EC6
:10445000B11CB1CF30CA789408952F923F924F92F9
:104460005F926F927F929F92AF92BF92CF92DF92B4
:10447000EF92FF920F931F93CF93DF9300D000D062
:10448000CDB7DEB70091CC041091CD04992493945C
:104490000115110509F43EC0A090CE04B090CF04E0
:1044A0000ADA982E8823B1F11092CD041092CC0430
:1044B0001092CF041092CE041092D0041092D10426
:1044C0008FEF9FEFDC018093770290937802A093A7
:1044D0007902B0937A0278947FD31E830D83C12C26
:1044E000D12C7601C501B0E0A0E089839A83AB832B
:1044F000BC8322242A94322C89819A81AB81BC818D
:10450000C816D906EA06FB06F4F0C801A1D480E477
:104510000E94FB14892D26960FB6F894DEBF0FBEBD
:10452000CDBFDF91CF911F910F91FF90EF90DF9062
:10453000CF90BF90AF909F907F906F905F904F9083
:104540003F902F900895AD81BE8115968D919C91DD
:10455000169720916D0230916E0282179307D1F465
:1045600051968D919C91EED5ED81FE818081918156
:10457000B12CA12C412C512C3201892B89F5BFEF94
:10458000CB1ADB0AEB0AFB0AED81FE817396FE83F0
:10459000ED83B2CFC114D104E104F10429F70297ED
:1045A00018F7ED81FE81818992898F3F980709F084
:1045B00029D5AD81BE8152963C922E925197D4CF8F
:1045C0008A0D9B1DDC018D919C91009709F040D4D0
:1045D000BFEF4B1A5B0A6B0A7B0AEDE0AE0EB11C13
:1045E000AD81BE818D919C91119712964C9150E0B6
:1045F00070E060E044165506660677060CF328D492
:10460000BECFCF93DF93EA0128DF811109C082E09A
:1046100090E09983888385EF9FEFDF91CF91089594
:1046200081E090E00E94ED1481E090E0998388831E
:1046300090E080E0F2CF11DF1092C9041092C8041C
:10464000089542E050E064E273E00C940B15FF9291
:104650000F931F93CF93DF938A01EC01C60FD71FEF
:10466000F980B9D20897F816190671F068F082E05F
:1046700090E0F801918380838EEF9FEFDF91CF91DF
:104680001F910F91FF9008956C817D818E819F8194
:104690004B810E94A017811108C082E090E0F801D0
:1046A0009183808384EF9FEFE9CFF9800E949B176D
:1046B0004F2D50E0BE01685F7F4F0E949D39898178
:1046C0000E940A1881E090E0F8019183808390E0D5
:1046D00080E0D4CFDF92EF92FF920F931F93CF939E
:1046E000DF938A01EC01C60FD71F0E949B177C0144
:1046F000D98071D2DD2059F0029721E030E0D81640
:10470000190619F010F030E020E0232B79F482E054
:1047100090E0F801918380838EEF9FEFDF91CF913E
:104720001F910F91FF90EF90DF900895EF2841F4D3
:1047300082E090E0F8019183808384EF9FEFEECFD9
:10474000F9800E949B174F2D50E0BE016E5F7F4F96
:104750000E949D3989810E940A1881E090E0F80149
:104760009183808390E080E0D9CF81E293E29093BF
:10477000D3048093D20408958091D2049091D304FD
:1047800008950895FC011182108293838283089515
:10479000DB011D921C92DC011296ED91FC911397A6
:1047A0007183608313967C936E9312970895FC0136
:1047B00080819181DB018D939C93A081B1811097C1
:1047C00041F08D919C9191838083892B11F4F38327
:1047D000E2830895FC0180819181DB018D939C939C
:1047E000892B11F473836283718360830895FC01C4
:1047F00011821082938382830895CF93DF931F9257
:104800001F92CDB7DEB71A821982F894BE016F5F8E
:104810007F4F89ED94E0CBDF89819A81009709F081
:1048200017D389819A81892B89F7BE016F5F7F4FEA
:104830008DED94E0BCDF89819A81009709F008D35F
:1048400089819A81892B89F778940F900F90DF9155
:10485000CF910895CF93DF931F921F92CDB7DEB70C
:104860001A821982F894BE016F5F7F4F85ED94E044
:104870009EDF89819A81009709F0EAD289819A8125
:10488000892B89F778940F900F90DF91CF9108953D
:1048900081E0089590E080E00895EF92FF920F93F9
:1048A0001F93CF93DF931F921F92CDB7DEB71A826B
:1048B00019828091D40407EF1FEF8823A1F1F894A7
:1048C000BE016F5F7F4F8DED94E071DF7894898139
:1048D0009A81EE24E394F12C892B51F4F894BE01D3
:1048E0006F5F7F4F89ED94E062DF7894F12CE12CCB
:1048F00089819A810EEF1FEF0097A9F0FC01428198
:10490000538164E070E076D68C01892B61F0F894D5
:1049100069817A81C701880F991F880F991F875273
:104920009B4F58DF7894C8010F900F90DF91CF9183
:104930001F910F91FF90EF9008950F931F93CF93C6
:10494000DF9300D01F92CDB7DEB71C821B821A8284
:1049500019828091D40407EF1FEF8823C1F0AE01C4
:104960004D5F5F4F64E070E0CE010196B6D68C01DA
:10497000892B69F4E981FA818B819C8193838283FD
:10498000F89469817A8185ED94E002DF7894C8011A
:104990000F900F900F900F90DF91CF911F910F917B
:1049A0000895BBD7049608958F929F92AF92BF92BD
:1049B000CF92DF92EF92FF920F931F93CF93DF93EB
:1049C0001F921F92CDB7DEB71A821982BC016F5FAA
:1049D0007F4F6330710598F0AA24AA94BA2CC501C0
:1049E0000F900F90DF91CF911F910F91FF90EF905B
:1049F000DF90CF90BF90AF909F908F90089541151A
:104A0000510551F3480159018A016C01CADF88152B
:104A1000990511F7E114F104F9F28E0D9F1DA81606
:104A2000B906D0F28091D4048823F1F0F894B5014E
:104A3000645071099701AE014F5F5F4FC801049642
:104A4000E1D65C01892B71F489819A81F801938305
:104A50008283C601880F991F880F991FB80187525A
:104A60009B4F96DE7894BBCF87EFA82EBB24BA94D9
:104A7000B6CFAF92BF92CF92DF92EF92FF920F9399
:104A80001F93CF93DF931F921F92CDB7DEB71A8289
:104A90001982892B09F047C06115710509F443C0DB
:104AA0004115510509F43FC02115310509F43BC0FA
:104AB00001151105C1F18091D4048823B9F1790160
:104AC0006A015B01F894BE016F5F7F4F85ED94E052
:104AD0006EDE789489819A81009759F1DC011296F3
:104AE0006D917C91A8010496A6D68C01E981FA818A
:104AF000D501ED93FC93828193810496F601918315
:104B000080834FDFD7018D939C93C8010F900F9046
:104B1000DF91CF911F910F91FF90EF90DF90CF9099
:104B2000BF90AF9008950FEF1FEFEFCF07EF1FEF8C
:104B3000ECCF0EEF1FEFE9CFCF93DF93EC01672BA4
:104B400071F4F4D68C179D0760F0E7D62496C80F51
:104B5000D91FE6D68C0F9D1FDF91CF910895E3D624
:104B6000F1CF90E080E0F8CF0F931F93CF93DF93C6
:104B70002091D40421112BC08B01EC0189ED94E02C
:104B800001DE8DED94E0FEDD85ED94E0FBDD97D058
:104B90000097C1F4CBD670E060E0CEDF4BE752E087
:104BA00062E070E081D1009769F480917B0290917E
:104BB0007C02CED6B801CE0103D5009719F421E0CE
:104BC0002093D404DF91CF911F910F91089584EF2A
:104BD0009FEFF8CFA8C6AAC6CF93DF93AAD6EC0161
:104BE000892B11F40ADE36DECE01DF91CF910895D4
:104BF000CF93DF939ED6EC01892B09F4FEDDCE0125
:104C0000DF91CF91089580917B0290917C0208956D
:104C1000CF93DF938091D404D0E0C0E08823D1F01B
:104C20009CD6EC01892BB1F4E8DD14DE80917B0287
:104C300090917C02E7D1E8D2EC01892B59F489EDFF
:104C400094E0D5DD8DED94E0D2DD85ED94E0CFDD0F
:104C50001092D404CE01DF91CF910895EF92FF928C
:104C60000F931F93CF93DF93EC017A018B010F5FBA
:104C70001F4F0E9DA0010F9D500D1E9D500D112424
:104C800070E060E00E94A63990E080E0F0E0E0E0B3
:104C90002FEFE816F90639F4DF91CF911F910F91AC
:104CA000FF90EF9008951A8219822883309711F0AF
:104CB000D283C1830196FE01C00FD11FEACFCF92EC
:104CC000DF92EF92FF920F931F93CF93DF9306E053
:104CD00017E00C7F43E050E06DE772E083E892E07C
:104CE0001CD48DE7E82E82E0F82E93E8C92E92E0DE
:104CF000D92EC5E9D7E0D7014D915D917D01F6012F
:104D0000619171916F01198308835D834C835B838B
:104D10004A837F836E839B012F5F3F4F249FC00197
:104D2000259F900D349F900D112499878887011538
:104D3000110511F0C80192DF88859985080F191FA8
:104D40002A96F3E8EF16F2E0FF06A9F6E3EEF4E0A8
:104D500080E292E0DF019C011D9221503040E1F79A
:104D60001092E2041092E1041092B4071092B3077B
:104D70001092B8071092B7071092B6071092B507B5
:104D80001092BA071092B9071092BC071092BB0795
:104D90001092BE071092BD071092C2071092C10771
:104DA0001092C0071092BF071092C4071092C30759
:104DB0001092C6071092C5071092920710929107A1
:104DC000109294071092930790E080E0DF91CF91CA
:104DD0001F910F91FF90EF90DF90CF900895009773
:104DE000F1F0F894A3E8B2E0E5E9F7E030E020E084
:104DF0004D915D9148175907A8F0428153814115A3
:104E0000510581F08AE0829FF001839FF00D11240B
:104E1000EB56F84F80819181009759F4789490E097
:104E200080E008952F5F3F4F3A962330310501F718
:104E3000F5CFDC0111966D917C91718360834150B7
:104E4000510953834283FC012193CF017894089543
:104E5000009749F1DC018E91853041F4E091930790
:104E6000F09194073097F9F0CD0119948530D8F47A
:104E7000282F30E0F8948FEF8C938AE0829FF00126
:104E8000839FF00D1124EB56F84F8081918112968B
:104E90009C938E931197B183A08382819381019615
:104EA0009383828378940895CF92DF92EF92FF925A
:104EB0000F931F93CF93DF939C0186EE94E08C7F3A
:104EC0004115510509F49BC02115310509F497C01E
:104ED0006115710509F493C07A01AB01B9016D5FE9
:104EE0007F4F6C7F9B012F5F3F4F249F8001259F49
:104EF000100D349F100D1124F8942091B3073091B8
:104F0000B407232B59F42091BB073091BC0721151E
:104F1000310569F12017310708F058C02091BD070D
:104F20003091BE07232B91F42091BB073091BC0731
:104F3000820F931F2091C5073091C60721153105B7
:104F400009F441C02017310708F056C07894CFEF1C
:104F5000DFEF86EF9FEFF701D183C083DF91CF9121
:104F60001F910F91FF90EF90DF90CF900895C3E0D5
:104F7000D0E0C090E104D090E2042DE132E02C19A1
:104F80003D092017310710F32AE02C9FF0012D9FD7
:104F9000F00D1124EB56F84F9183808355834483A1
:104FA000538342837783668311870087009709F0D4
:104FB00055DE0C0D1D1D1093E2040093E10478945E
:104FC00090E080E0C8CFC4E0D0E0D3CFC3E0D0E031
:104FD0002AE02C9FF0012D9FF00D1124EB56F84F85
:104FE000918380835583448353834283778366838D
:104FF000009729F333DEE3CFC4E0D0E0E9CF8FEFB1
:105000009FEFACCF9C010397029708F069C0F8941A
:1050100084E09AE0482F50E0241735070CF44DC087
:1050200091E08AE0829FF001839FF00D1124EB56FE
:10503000F84F118210821582148213821282178215
:1050400016829923B1F18091B3079091B407892B0F
:10505000A9F42091BB073091BC072115310571F0EF
:105060008091E1049091E204821B930B9093E204FF
:105070008093E1041092BC071092BB078091BD079A
:105080009091BE07892BA9F42091C5073091C607DE
:105090002115310571F08091E1049091E204821BA9
:1050A000930B9093E2048093E1041092C607109250
:1050B000C507789490E080E00895949FF001959F53
:1050C000F00D1124EB56F84F40815181452B31F4FE
:1050D00040855185452B11F481509CCF90E0A1CFA4
:1050E0008FEF9FEF08954115510549F1009739F170
:1050F0006115710521F1F894209191073091920783
:10510000232BB9F42091930730919407232B89F432
:1051100090939207809391077093940760939307FD
:10512000789425E030E090E080E0FA01318320833C
:10513000089578942FEF3FEF86EF9FEFF6CF8FEF34
:105140009FEF0895059769F4F894109292071092D2
:1051500091071092940710929307789490E080E062
:1051600008958FEF9FEF08956115710519F4F0E030
:10517000E0E011C08530910581F4E0919107F09154
:1051800092073097A1F3CB0101961995009779F317
:10519000FC0185E08193CF0108959C0123503109E2
:1051A0002230310520F72AE0289FD001299FB00D39
:1051B0001124AB56B84F2D913C911197232BB9F286
:1051C00016962D913C9117972617370780F2F89481
:1051D00012962D913C9113972115310529F0ED91EF
:1051E000FC911197309711F47894C1CF418152818D
:1051F00011965C934E932150310913963C932E9354
:10520000129781937894C7CFE3E0F7E08EE8DF014F
:105210001D928A95E9F7E3EEF4E080E292E0DF0187
:105220009C011D9221503040E1F71092E20410924F
:10523000E104E5E9F7E082E3DF011D928A95E9F7F1
:10524000E1E9F7E084E0DF011D928A95E9F790E05B
:1052500080E00895CF93DF93C0918902D0918A02B4
:10526000CF3FDC0759F423D490938A0280938902BC
:1052700097FF09C0D0938A02C093890284EF9FEF01
:10528000DF91CF91089590E080E0FACF82309105D0
:1052900028F48093C70790E080E008958FEF9FEF98
:1052A00008954F925F926F927F92AF92BF92CF928A
:1052B000DF92EF92FF920F931F93CF93DF931F9292
:1052C0001F92CDB7DEB71A821982009709F479C010
:1052D0006115710509F475C02091890230918A0227
:1052E00007EF1FEF2F3F3F4F09F445C06B015C01F3
:1052F000412C512C3201F12CE12C10E000E09E01F8
:105300002F5F3F4FA6014E195F09B5016E0D7F1D3E
:105310008091890290918A022ED4892B09F04BC08A
:1053200089819A81009741F4E114F10429F42091D4
:10533000C707222309F442C0E80EF91EEC14FD044D
:10534000D0F480E8481684E858068EE168067104B7
:1053500020F560E070E0CB010E9477332AE0420E36
:10536000511C611C711C0A3F4FEF140721F0043FD0
:105370008FEF1807A1F4C8010F900F90DF91CF9124
:105380001F910F91FF90EF90DF90CF90BF90AF9063
:105390007F906F905F904F90089501EF1FEF81E035
:1053A00090E0013F2FEF120711F090E080E0892B91
:1053B00009F4A5CFE0CF04EF1FEFDDCF0AEF1FEF19
:1053C000DACF0FEF1FEFD7CF4F925F926F927F929E
:1053D000AF92BF92CF92DF92EF92FF920F931F9303
:1053E000CF93DF931F921F92CDB7DEB71A82198237
:1053F000009709F479C06115710509F475C0209111
:10540000890230918A0207EF1FEF2F3F3F4F09F4C7
:1054100045C06B015C01412C512C3201F12CE12C77
:1054200010E000E09E012F5F3F4FA6014E195F097B
:10543000B5016E0D7F1D8091890290918A024ED335
:10544000892B09F04BC089819A81009741F4E114BE
:10545000F10429F42091C707222309F442C0E80E81
:10546000F91EEC14FD04D0F480E4481682E45806DA
:105470008FE06806710420F560E070E0CB010E94C7
:1054800077332AE0420E511C611C711C0E3F4FEF16
:10549000140721F0043F8FEF1807A1F4C8010F9003
:1054A0000F90DF91CF911F910F91FF90EF90DF90C0
:1054B000CF90BF90AF907F906F905F904F90089586
:1054C00002EF1FEF81E090E0023F2FEF120711F093
:1054D00090E080E0892B09F4A5CFE0CF04EF1FEF27
:1054E000DDCF0EEF1FEFDACF0FEF1FEFD7CF809199
:1054F000890290918A028F3F980749F0D0D2892B78
:1055000049F48FEF9FEF90938A028093890290E095
:1055100080E0089584EF9FEF0895CF92DF92EF929D
:10552000FF920F931F93CF93DF9321E04115510515
:1055300009F020E04150510921112CC0DC01FB0190
:10554000D12CC12C21E022C03FEFC31AD30A7D0128
:105550000D911D91E701EA80FB80E016F106A8F4A9
:1055600020813181E280F380F182E08233832283E3
:10557000ED90FC9011979D0122503109E901F982CB
:10558000E88211961C930E9320E03296C416D5063D
:10559000D8F2D2CFDF91CF911F910F91FF90EF9072
:1055A000DF90CF900895FC01680F791F90E080E0B4
:1055B000E617F70709F408952191820F911DF8CF9E
:1055C0002091C807211113C045DE009791F4109275
:1055D000CE071092CD071092CC071092CB071092F5
:1055E000CA071092C90721E02093C807089584EFE5
:1055F0009FEF0895AF92BF92CF92DF92EF92FF920A
:105600000F931F93CF93DF93009709F460C0463048
:10561000510508F45CC02091C807C7EFDFEF2223D3
:1056200009F449C08C01060F171FF801C080D18012
:10563000C114D10409F44EC096012A5F3F4F4217AE
:10564000530708F447C07C018091CD079091CE07A5
:1056500093838283B6016C5F7F4F5801A60EB71EFD
:10566000C801A1DFF5019183808364E070E0C80187
:1056700018DEEC01892BF9F481E090E007DEB60139
:10568000C80104960EDEEC01892B91F462E070E013
:10569000C50107DEEC01892B59F4C701D9DB8091E4
:1056A000CD079091CE0701969093CE078093CD07BA
:1056B00090E080E0EBDDCE01DF91CF911F910F9163
:1056C000FF90EF90DF90CF90BF90AF900895CFEF15
:1056D000DFEFF1CFC9EFDFEFEECF6F927F928F92C6
:1056E0009F92AF92BF92CF92DF92EF92FF920F9371
:1056F0001F93CF93DF9300D01F92CDB7DEB70097F3
:1057000009F47AC04115510509F476C02091C80703
:1057100007EF1FEF222309F44DC03A017B015C0122
:1057200064E070E0CE0101964FDE8C01892B09F018
:1057300041C009811A810115110509F45AC04801B7
:1057400086E0880E911CB701680D791D80918B024F
:1057500090918C0209DD6C01009709F450C0A701FB
:1057600070E060E00E94A63989819A81AB81BC819A
:10577000EC0CFD1CF70181939193A193B1937F01F0
:1057800081E090E083DDB801C7011EDE892B31F591
:1057900062E070E0C701800F911F16DE8C01892B3B
:1057A000E9F490E080E072DDF501D182C082F3017E
:1057B00091828082C8010F900F900F900F90DF911F
:1057C000CF911F910F91FF90EF90DF90CF90BF90FE
:1057D000AF909F908F907F906F90089590E080E0C1
:1057E00055DDF50111821082F30111821082C6018C
:1057F0002FDB09EF1FEFDECF0FEF1FEFDBCF06EF41
:105800001FEFD8CF0097A1F04115510589F0211560
:10581000310571F0F90136966E177F0748F0DC010B
:105820002D933C93DA01ED93FC9390E080E0089592
:105830008FEF9FEF0895AF92BF92CF92DF92EF92DA
:10584000FF920F931F93CF93DF93009709F45FC0EC
:105850004115510509F45BC06530710508F457C066
:105860002091C807C7EFDFEF222391F1DC01CD9033
:10587000DC9011971296ED91FC9196012A5F3F4FB3
:10588000C9EFDFEF2617370719F5C091C907D09187
:10589000CA07209749F521E030E03093CA072093EA
:1058A000C9077A018C01F093CC07E093CB0756012E
:1058B000B4E0AB0EB11CB50176DE0A0D1B1DF8017C
:1058C000208131818217930729F5D701CD92DC928F
:1058D000CE01DF91CF911F910F91FF90EF90DF905C
:1058E000CF90BF90AF9008952091CB073091CC0717
:1058F0002F5F3F4FCCEFDFEFE217F30790F2CBEFD4
:10590000DFEF2E173F0768F2D0E0C0E0CACFCFEF3D
:10591000DFEFDECFC3EFDFEFDBCF84E090E0089571
:1059200082E090E008958CEF9FEF089580E290E090
:1059300008951092CE071092CD071092CC071092C6
:10594000CB071092CA071092C90790E080E0089533
:1059500090938C0280938B0208958091C8078823CE
:1059600091F0C5DD009789F41092CE071092CD0713
:105970001092CC071092CB071092CA071092C90759
:105980001092C807089590E080E00895009749F0CC
:105990006115710531F0FC0111821082FB01118249
:1059A00010820895F3CF26E030E040E855E260E051
:1059B00070E090E080E000C08130910571F01CF44F
:1059C000892B39F008958230910551F0039759F0F1
:1059D00008958CED97E00C947C3689E798E0FBCF36
:1059E00086E199E0F8CF83EB99E0F5CF1F920F9213
:1059F0000FB60F9211240BB60F922F933F934F9334
:105A00005F936F937F938F939F93AF93BF93EF9326
:105A1000FF938FE89DEF9093250180932401BFD0E1
:105A2000FF91EF91BF91AF919F918F917F916F9176
:105A30005F914F913F912F910F900BBE0F900FBE32
:105A40000F901F9018958FE89DEF909325018093FC
:105A50002401A3E7B0E08C918E7F8C93E0E2F1E02B
:105A600080818C7F8083E1E2F1E08081877E80838A
:105A700080818460808380818C7F80838C91816031
:105A80008C930895E3E7F0E0808190819E7F90837E
:105A90008170089581E008951092CF07089568EE0F
:105AA00073E080E090E023D690E080E0089526E067
:105AB00030E040E050E16EE070E090E080E07CDFBC
:105AC0008CED97E00E94B235892B29F08CED97E0A0
:105AD0000E94CC35F5CF90E080E00895CF92DF9220
