:1000000005C100000C9403320C942E320C9459322A
:100010000C9484320C94AF320C94DA320C94053385
:100020000C94303324C1000022C1000020C1000024
:100030001EC100001CC100001AC1000018C1000050
:1000400016C1000014C1000012C1000010C1000060
:100050000EC100000CC100000AC100000C945B330B
:1000600006C100000C942F370C94653700C10000C6
:10007000FEC00000FCC00000FAC00000F8C0000094
:10008000F6C00000F4C00000F2C00000F0C00000A4
:100090000C94BB370C94F137EAC00000E8C00000B4
:1000A000E6C00000E4C00000E2C00000E0C00000C4
:1000B000DEC00000DCC00000DAC00000D8C00000D4
:1000C000D6C00000D4C000000C94D92C0C94473842
:1000D0000C947D38CCC000000C94D3380C940939B2
:1000E000C6C0000000000A0B02090C0D0E08070331
:1000F00004010000000000000000000000000000FB
:1001000000000000000000000000000000000000EF
:1001100012111000000000000000000000000000AC
:100120000000000000000000000001021020200874
:100130000810204010204080020102010804020142
:1001400001020408102040808040201008040201B1
:10015000800402018040201008040201080402010A
:100160000102040810204080010204081020408091
:1001700005050505070508080808020202020A0A23
:100180000808040404040101010101010101030341
:10019000030303030303040707070C0C0C0C0C0CEC
:1001A0000C0C0202020206060606060606060B0BE9
:1001B0000B0B0B0B0B0B000020002300260029006B
:1001C0002C002F003200000100000301060109018C
:1001D00000002200250028002B002E0031003400F2
:1001E00002010000050108010B01000021002400AC
:1001F00027002A002D003000330001010000040117
:1002000007010A018E371A38A638323911241FBE69
:10021000CFEFD1E2DEBFCDBF00E00CBF13E0A0E026
:10022000B2E0ECEEF3E700E00BBF02C007900D92E6
:10023000AA30B107D9F72AE0AAE0B3E001C01D92C5
:10024000AB33B207E1F711E0C6E0D1E000E006C051
:1002500021970109802FFE010E94C339C230D107C6
:1002600080E00807A9F70E943B2E0C94F439C8CE11
:10027000FC01A781B0858C9191858923A481B581EA
:100280009C9140815181628173812681922359F032
:1002900081110BC04F5F5F4F6F4F7F4F4083518382
:1002A0006283738308958111F5CF4150510961092B
:1002B0007109F4CF8BE093E0DBCF86E193E0D8CFF8
:1002C00081E293E0D5CF8CE293E0D2CFFC01A48110
:1002D000B5818C9196818923A781B0859C914081BD
:1002E0005181628173812185922359F0882359F0CD
:1002F0004F5F5F4F6F4F7F4F4083518362837383A4
:1003000008958823A9F34150510961097109F4CF77
:100310008BE093E0DBCF86E193E0D8CF81E293E0FE
:10032000D5CF8CE293E0D2CF0F931F93CF93DF937F
:10033000D82FC62F8A01A0910A038BE0A89FD00175
:100340001124A55FBC4F1D921D921D921C92139704
:1003500081E01A968C931A978D2F90E0FC01E65D50
:10036000FE4FE4911696EC931697FC01E059FE4F70
:10037000E491F0E0EE0FFF1FEA54FE4F8591949157
:1003800015969C938E931497862F90E0FC01E65D62
:10039000FE4FE4911996EC931997FC01E059FE4F3A
:1003A000E491F0E0EE0FFF1FEA54FE4F8591949127
:1003B00018969C938E93179760E08D2F0E949C3522
:1003C00060E08C2F0E949C3580910A03813009F4F3
:1003D0003FC0A8F0823009F462C0833009F486C0BF
:1003E00080910A0391E0980F90930A03F8018083AB
:1003F00090E080E0DF91CF911F910F91089580E010
:10040000D23049F081E0D33031F08EEE8D0F843060
:10041000D8F487E18D1B41E050E06AE571E00E946D
:10042000893180E0C23049F081E0C33031F08EEE96
:100430008C0F843058F487E18C1B41E050E068E871
:1004400071E00E948931CCCF8FEFE5CF8FEFF5CFF0
:1004500080E0D23049F081E0D33031F08EEE8D0F64
:100460008430C8F487E18D1B41E050E06DE571E018
:100470000E94893180E0C23049F081E0C33031F020
:100480008EEE8C0F843048F487E18C1B41E050E005
:100490006BE871E0D6CF8FEFE7CF8FEFF7CF80E03B
:1004A000D23049F081E0D33031F08EEE8D0F8430C0
:1004B000C8F487E18D1B41E050E060E671E00E94E6
:1004C000893180E0C23049F081E0C33031F08EEEF6
:1004D0008C0F843048F487E18C1B41E050E06EE8DB
:1004E00071E0AFCF8FEFE7CF8FEFF7CF80E0D23063
:1004F00049F081E0D33031F08EEE8D0F8430C8F4B6
:1005000087E18D1B41E050E063E671E00E94893194
:1005100080E0C23049F081E0C33031F08EEE8C0FC4
:10052000843048F487E18C1B41E050E061E971E0E0
:1005300088CF8FEFE7CF8FEFF7CF9BE0899FF00158
:100540001124E55FFC4F80819181A281B381FB0181
:1005500080839183A283B38390E080E008959BE041
:10056000899FF0011124E55FFC4F108211821282F5
:10057000138290E080E0089590E080E00895CF92AB
:10058000DF92EF92FF92CF93882351F16A017B01B2
:10059000CFEFC80F20E030E0A901CB01B6010E94E7
:1005A000312F18168CF0C701B60190580E94A22F67
:1005B0009B01AC016C2F70E090E080E0CF91FF9048
:1005C000EF90DF90CF90B2C0C701B6010E949D2F7F
:1005D0008C2FCF91FF90EF90DF90CF900C946234EE
:1005E000CF91FF90EF90DF90CF9008950F931F93DE
:1005F0008B019C0183E036952795179507958A9581
:10060000D1F7095C1C4F462F477021E030E0F9011B
:1006100002C0EE0FFF1F4A95E2F7AF01F8012081FB
:100620002423CB010196211102C090E080E01F91AC
:100630000F9108950F931F938B019C0183E03695D2
:100640002795179507958A95D1F7677081E090E017
:1006500001C0880F6A95EAF7F801E95CFC4F208138
:10066000452B31F48095822380831F910F9108954B
:10067000822BFACF2F923F924F925F926F927F928E
:100680008F929F92AF92BF92CF92DF92EF92FF92A2
:100690000F931F93CF93DF93D62EC72E782E692EFC
:1006A00049015A01280161E08D2D0E949C35CD2D14
:1006B000DC2D8E010F5F1F4FA8016D2D7C2D872D26
:1006C000962DB8DF20E030E0A901C201B7010E94F9
:1006D0002131181664F4C201B7010E94A22F2B0128
:1006E000C501B4010E94A22FA201CE0123D0C801EE
:1006F000DF91CF911F910F91FF90EF90DF90CF90FE
:10070000BF90AF909F908F907F906F905F904F9031
:100710003F902F900895882341F08150682F70E01A
:1007200090E080E050E040E085CF0895862FB90149
:100730000C9462349C01FC01EC51FF4FE491E150B8
:10074000E231E0F4F0E08827E755FC4F8F4F0C943E
:10075000C339BB03C203C503DC03F103BE030604B4
:10076000120416042D04420457046E048304BE03CD
:100770009804AF04C40484B5806884BD60E0822F0F
:100780000C94D83584B58062F8CF809180008C7F3E
:1007900082608093800080918100807E8061682BE0
:1007A0006093810050938700409386008091800081
:1007B000806880938000E2CF809180008C7F82608F
:1007C0008093800080918100807E8061682B60939F
:1007D0008100509387004093860080918000806262
:1007E000E8CF809180008C7F826080938000809130
:1007F0008100807E8061682B609381005093870028
:1008000040938600809180008860D3CF8091B000B3
:1008100080688093B0008091B100887F682B6093DE
:10082000B100ACCF8091B0008062F3CF8091900096
:100830008C7F82608093900080919100807E8061A7
:10084000682B60939100509397004093960080919D
:10085000900080688093900091CF809190008C7F71
:1008600082608093900080919100807E8061682BEF
:100870006093910050939700409396008091900070
:100880008062E8CF809190008C7F8260809390009E
:1008900080919100807E8061682B609391005093DD
:1008A000970040939600809190008860D3CF80910C
:1008B000A0008C7F82608093A0008091A100807E48
:1008C0008061682B6093A1005093A7004093A6001D
:1008D0008091A00080688093A00050CF8091A000FC
:1008E0008C7F82608093A0008091A100807E8061D7
:1008F000682B6093A1005093A7004093A6008091BD
:10090000A0008062E8CF8091A0008C7F82608093FD
:10091000A0008091A100807E8061682B6093A1007F
:100920005093A7004093A6008091A0008860D3CF89
:10093000809120018C7F8260809320018091210131
:10094000807E8061682B6093210150932701409342
:100950002601809120018068809320010FCF809133
:1009600020018C7F82608093200180912101807E14
:100970008061682B609321015093270140932601E9
:10098000809120018062E8CF809120018C7F82607D
:100990008093200180912101807E8061682B60938B
:1009A0002101509327014093260180912001886006
:1009B000D3CF611102C00C949C356130E1F362E049
:1009C000FACF662319F061E00C94D83560E0FCCFD3
:1009D00090E080E008950F931F93009709F489C079
:1009E0006115710509F485C000912C0210912D024A
:1009F00020912E0230912F020E3F1F4F2F4F3F4F5D
:100A000009F068C04FEF5FEFBA0140932C0250939A
:100A10002D0260932E0270932F0240912C02509170
:100A20002D0260912E0270912F02DC011296ED9141
:100A3000FC9180819181A281B38180935A0490932B
:100A40005B04A0935C04B0935D0484819581A681CE
:100A5000B7818093560490935704A0935804B093A1
:100A6000590480859185A285B38580935204909323
:100A70005304A0935404B093550484859585A685AA
:100A8000B78580934E0490934F04A0935004B09385
:100A9000510410924A0410924B0410924C0410928C
:100AA0004D040E94BD1082EE90E19093410380932B
:100AB000400390934303809342030E94AC0F00973E
:100AC00031F421E030E030935F0420935E041F9105
:100AD0000F91089500912C0210912D0220912E0269
:100AE00030912F02DB010D931D932D933C931397AF
:100AF00094CF8FEF9FEFEBCF8F929F92AF92BF92E9
:100B0000CF92DF92EF92FF921F93CF93DF934B012F
:100B10005C011091610482E090E090935F04809307
:100B20005E0481149104A104B10441F48091610434
:100B3000811104C080916004C1E08111C0E0C12C2A
:100B4000D12C760180916104811106C080916004EE
:100B5000811102C0CC23D9F083E090E090935F0430
:100B600080935E04CC2381F1CCE9DFEF111102C048
:100B70000E944714CE01DF91CF911F91FF90EF901B
:100B8000DF90CF90BF90AF909F908F9008956AE0D4
:100B900070E080E090E00E94CA3380E1C80E87E2F6
:100BA000D81EE11CF11C8FEF88169806A806B8061F
:100BB00031F0C1E08C149D04AE04BF0408F0C0E025
:100BC00080E00E94E00FBECFD0E0C0E0CFCFCF9258
:100BD000DF92EF92FF920F931F93CF93DF938F3F9C
:100BE000910511F008F051C020915E0430915F042E
:100BF0002330310539F020915E0430915F042130BB
:100C0000310531F424E030E030935F0420935E043A
:100C10006A017B01EC0182309105A8F011E0AE0180
:100C2000C701B6010E94AB0FAB01BC01CE0111237D
:100C3000F9F0DF91CF911F910F91FF90EF90DF902E
:100C4000CF900C9470168C01000F111F005C1C4F8C
:100C5000D8018D919C91892B09F30E947A160297F5
:100C6000E9F6D801ED91FC91CE011995182FD7CF57
:100C70000E94921690E080E0DF91CF911F910F913A
:100C8000FF90EF90DF90CF9008958FEF9FEFF4CF1C
:100C900080E00C94E00FCF93DF9386E090E0909398
:100CA0005F0480935E040E943910EC01E0E4F3E0FD
:100CB00084E0DF011D928A95E9F70E94DF1310920C
:100CC0005F0410925E04CE01DF91CF910895809170
:100CD0006004089580914904089560932C027093F4
:100CE0002D0280932E0290932F0290E080E00895D1
:100CF000FC0191E080911604811190E092830895A7
:100D00002F923F924F925F926F927F928F929F921B
:100D1000AF92BF92CF92DF92EF92FF920F931F9309
:100D2000CF93DF9300D000D01F921F92CDB7DEB7D4
:100D30008091160490911504911105C091E08111E4
:100D400090E0909317048F5F8A3008F058C2809328
:100D5000160480911704882301F18091D1099091A4
:100D6000D209A091D309B091D4098093FD09909341
:100D7000FE09A093FF09B093000A8091D5099091D4
:100D8000D609A091D709B091D8098093010A909310
:100D9000020AA093030AB093040AC0901F04D090E3
:100DA0002004D6018D909D90AD90BC906090D909A3
:100DB0007090DA09E090DB09F090DC09B091E50968
:100DC000B983E091E609ED831091E7090091E80904
:100DD000A5019401B301C7010E94213129813D8100
:100DE000412F502F87FD0EC2C501B4010E94312F43
:100DF00018160CF4ACC31092050A1092060A109251
:100E0000070A1092080A1092090A10920A0A109210
:100E10000B0A10920C0A0091F1091091F209D60107
:100E2000CD90DD90ED90FC90F80184809580A680B7
:100E3000B780A7019601C501B4010E94312F87FF39
:100E40003BC210920D0A10920E0A10920F0A1092D5
:100E5000100A60910D0A70910E0A80910F0A90910C
:100E6000100A6093110A7093120A8093130A9093E8
:100E7000140A6093150A7093160A8093170A9093C8
:100E8000180A0091050A1091060A2091070A30916C
:100E9000080A0093190A10931A0A20931B0A309328
:100EA0001C0A0091090A10910A0A20910B0A30913C
:100EB0000C0A00931D0A10931E0A20931F0A3093F8
:100EC000200A0E940B306B017C0142D7811101C3C3
:100ED000C701B601F8D68111FCC220E030E040E83D
:100EE00057E4C701B6010E9425306B017C0120E068
:100EF00030E0A9010E94312F87FFEEC2C701B60181
:100F000090580E94A22FEE27FF27E61BF70BFA83CB
:100F1000E9836CE070E080E090E068DB8C01909306
:100F2000C0098093BF0960911C0270911D02298144
:100F30003A816217730744F060911E0270911F029C
:100F4000621773070CF4B90177FF02C070E060E02C
:100F50006F3F710519F014F06FEF70E0072E000C71
:100F6000880B990B0E94D02FAB01BC01C80107DB95
:100F700069E070E080E090E039DB8C019093B80983
:100F80008093B709609120027091210289819A8132
:100F90006817790744F06091220270912302681764
:100FA00079070CF4BC0177FF03C071956195710955
:100FB0006F3F710519F014F06FEF70E0072E000C11
:100FC000880B990B0E94D02FAB01BC01C801D7DA66
:100FD0006BE070E080E090E009DB8C019093B00959
:100FE0008093AF096091240270912502A981BA8192
:100FF0006A177B0744F060912602709127026A17F6
:101000007B070CF4BD0177FF03C0719561957109F1
:101010006F3F710519F014F06FEF70E0072E000CB0
:10102000880B990B0E94D02FAB01BC01C801A7DA35
:101030006AE070E080E090E0D9DA8C019093A80932
:101040008093A7096091280270912902E981FA81B1
:101050006E177F0744F060912A0270912B026E1781
:101060007F070CF4BF0177FF02C070E060E06F3FC4
:10107000710519F014F06FEF70E0072E000C880B6B
:10108000990B0E94D02FAB01BC01C80178DA61E056
:10109000809118029091190229813A818217930751
:1010A00009F460E088E08DDC61E080911A029091A3
:1010B0001B02A981BA818A179B0709F460E08DE0C1
:1010C00080DC8091D9099091DA09A091DB09B09177
:1010D000DC0989839A83AB83BC834090290A5090B2
:1010E0002A0A60902B0A70902C0AA3019201BC017D
:1010F000CD010E94312FA0911F04B0912004BE8326
:10110000AD838111F0C18D919D910D90BC91A02D69
:101110008093D9099093DA09A093DB09B093DC0995
:10112000EDEDF9E08091FD099091FE09A091FF0994
:10113000B091000A80839183A283B3838091010AD6
:101140009091020AA091030AB091040A84839583C6
:10115000A683B7836091040470910504809106040E
:10116000909107046F5F7F4F8F4F9F4F60930404F0
:101170007093050480930604909307040E94CE2F79
:101180009B01AC01609108047091090480910A04EC
:1011900090910B040E942531AD81BE816D937D93AA
:1011A0008D939C93139780910C0490910D04A091C2
:1011B0000E04B0910F040196A11DB11D80930C0483
:1011C00090930D04A0930E04B0930F0428960FB6CD
:1011D000F894DEBF0FBECDBFDF91CF911F910F916D
:1011E000FF90EF90DF90CF90BF90AF909F908F9047
:1011F0007F906F905F904F903F902F900895109246
:101200001604A7CDB301C7010E94312F87FF0BC081
:1012100029813D81412F502FC501B4010E94213108
:1012200018160CF49EC169827D821E2D0F2D3DED96
:10123000E32E39E0F32E29813D81412F502FC50146
:10124000B4010E94CC2E4B015C01D7012D913D9140
:101250004D915C916091FD097091FE098091FF09AB
:101260009091000A0E94CC2EA50194010E94352F76
:101270006093050A7093060A8093070A9093080A00
:10128000F70124813581468157816091010A70916F
:10129000020A8091030A9091040A0E94CC2EA501B3
:1012A00094010E94352F6093090A70930A0A809373
:1012B0000B0A90930C0AAFCDA7019601D8016D914E
:1012C0007D918D919C910E94213187FF98C0A7014B
:1012D0009601C501B4010E94312F18160CF08FC081
:1012E000A090FB09B090FC094501880C991C880C62
:1012F000991CF801E80DF91DFA83E983A70196010D
:1013000060817181828193810E9421311816ECF0F5
:10131000F4E08F0E911C9801280D391D3A83298322
:10132000E981FA816191719181919191FA83E983C7
:10133000A70196010E94312F1816CCF0BFEFAB1A0F
:10134000BB0AEECF31E0A31AB10889819A810497D4
:101350009A838983A7019601DC0114966D917D9192
:101360008D919C9117970E94213118165CF3209162
:10137000F3093091F4093E832D83B092FC09A092C9
:10138000FB09AA0CBB1CAA0CBB1CF801EA0DFB1D37
:101390004080518062807380150134E0230E311C3F
:1013A000F801E20DF31D80819181A281B3818983CF
:1013B0009A83AB83BC839C01AD01C301B2010E943F
:1013C000312F811128C0A3019201C701B6010E94EB
:1013D000312F87FF17C0AD81BE81AA0DBB1DBA8317
:1013E000A9838D919D910D90BC91A02D80930D0AA4
:1013F00090930E0AA0930F0AB093100A2ACDB12C35
:10140000A12CB5CFED81FE81E20DF31D808191818C
:10141000A281B381EBCF2D813E81A20EB31ED501F7
:101420008D909D90AD90BC90220D331DD9018D9172
:101430009D910D90BC91A02D8D839E83AF83B88725
:101440009C01AD01C501B4010E94312F8823C1F177
:10145000A701960169817A818B819C810E94CC2EA3
:101460006B017C01A301920169817A818B819C814E
:101470000E94CC2E9B01AC01C701B6010E94352F02
:101480006B017C01AC019B0160E070E080E89FE3B0
:101490000E94CC2E2D813E814F8158850E9425319E
:1014A0002B013C01A5019401C701B6010E94253121
:1014B0009B01AC01C301B2010E94CD2E4B015C0126
:1014C00080920D0A90920E0AA0920F0AB092100A12
:1014D000C0CCC12CD12C7601C701B6010E94A22F2D
:1014E0007A83698316CD8090E5099090E609A090F3
:1014F000E709B090E809ED81FE81C080D180E280EB
:10150000F380A5019401C301B2010E94312F811122
:101510000BC0C092E509D092E609E092E709F0928B
:10152000E809E9EEF9E0FECDA501940169817A812F
:101530008B819C810E94312F87FFEBCFC092D9090C
:10154000D092DA09E092DB09F092DC09E9CD298139
:101550003D81412F502FB301C7010E94312F87FDDC
:1015600057CE29EEE22E29E0F22E65CE8F929F9281
:10157000AF92BF92CF92DF92EF92FF92CF93DF9321
:1015800000D000D01F921F92CDB7DEB7C0900802E6
:10159000D0900902E0900A02F0900B02A701960198
:1015A00060919C0970919D0980919E0990919F097D
:1015B0000E94312F882341F0C0929C09D0929D094E
:1015C000E0929E09F0929F0980919B0981111092EF
:1015D0009B09BE016F5F7F4F8091A0090E949D0211
:1015E000C0900C02D0900D02E0900E02F0900F021D
:1015F000A7019601609190097091910980919209DB
:10160000909193090E94312F882341F0C092900954
:10161000D0929109E0929209F092930980918F09FA
:10162000811110928F09BE016B5F7F4F80919409E9
:101630000E949D0260911402709115028091160221
:10164000909117020E94D02F20E030E040E05AE253
:101650000E9425316B017C016D817E818F8198858F
:101660000E94D02FA70196010E9425314B015C01F9
:1016700069817A818B819C810E94D02FA70196017C
:101680000E9425316093D1097093D2098093D309C8
:101690009093D4098092D5099092D609A092D70947
:1016A000B092D8098091100490911104A091120475
:1016B000B09113040196A11DB11D80931004909365
:1016C0001104A0931204B093130428960FB6F89453
:1016D000DEBF0FBECDBFDF91CF91FF90EF90DF90C7
:1016E000CF90BF90AF909F908F9008954F925F9250
:1016F0006F927F92AF92BF92DF92EF92FF920F9321
:101700001F93CF93DF9384E090E0A6D2EAE6F3E064
:101710008CE194E097838683CFE1D4E0D093AB0350
:10172000C093AA0308E014E0158B048BF093D50353
:10173000E093D403F583E48321E030E0DC012D93D2
:101740003C9385E692E09387828721E234E03983F7
:10175000288340E050E060E271E440931804509325
:10176000190460931A0470931B044AE057ED63E276
:101770007CE3D8014D935D936D937C931397C2EFF7
:10178000D3E089ED90E8A4E7BCE988839983AA8334
:10179000BB8389EC95EAA5EDB4E38093F6039093BF
:1017A000F703A093F803B093F9038AEE91E8AAEA4D
:1017B000B7E88093FA039093FB03A093FC03B093E4
:1017C000FD038CE492ECABE1B9E68093FE039093C9
:1017D000FF03A0930004B0930104AEE5B3E0B3832C
:1017E000A283ECE4F3E01196FC93EE9387E792E09A
:1017F0009183808393838283958384839783868375
:101800009187808793878287958784879787868744
:10181000918B808B82E094E015969C938E93149725
:101820001396DC93CE93129717963C932E931697AC
:1018300088E0A82E82E0B82EF50180859185A285EA
:10184000B385EDEFF9E080839183A283B383848332
:101850009583A683B783C9E8D9E020E032E03093CE
:10186000F2092093F10924E433E03093F409209342
:10187000F3091092FC091092FB098093D10990930F
:10188000D209A093D309B093D4098093D50990933A
:10189000D609A093D709B093D8098091290A9091CD
:1018A0002A0AA0912B0AB0912C0A8093D90990930F
:1018B000DA09A093DB09B093DC098093E5099093E2
:1018C000E609A093E709B093E80918AA412C512C26
:1018D0003201439449AA5AAA6BAA7CAAE12CF12CA2
:1018E0008701A80197016CE070E080E090E00E9421
:1018F0003A039FAB8EABDD24D394DDAA18A649A68C
:101900005AA66BA67CA6A801970169E070E080E06A
:1019100090E00E943A039FA78EA7DDA618A249A2D5
:101920005AA26BA27CA2A80197016BE070E080E054
:1019300090E00E943A039FA38EA3DDA2188E498EE9
:101940005A8E6B8E7C8EA80197016AE070E080E071
:1019500090E00E943A039F8F8E8FDD8E1092C9090E
:101960004092CA095092CB096092CC097092CD097D
:1019700061E088E01ED8D092CE0918AE49AE5AAECA
:101980006BAE7CAE61E08DE014D8DDAE1F8A1C86A4
:10199000F50180819181A281B3818B8B9C8BAD8B72
:1019A000BE8B4D865E866F86788A40EA59E063E199
:1019B00082E10E949401D98A1A8A8F890E94AF021B
:1019C0001B861882F50184819581A681B7818F835A
:1019D0009887A987BA8749825A826B827C8244E9B8
:1019E00059E063E082E00E949401DD821E828B85D3
:1019F000DF91CF911F910F91FF90EF90DF90BF90FB
:101A0000AF907F906F905F904F900C94AF02809159
:101A1000B90981112EC081E08093B9098091BA097A
:101A20009091BB09A091BC09B091BD090197A10596
:101A3000B105F9F48091BE098823D9F06CE070E01B
:101A400080E090E00E94F6029093C0098093BF0965
:101A500040E050E0BA010E94BF026CE070E080E01C
:101A600090E00E94F6029093C0098093BF090E9403
:101A70008B038091B10981112EC081E08093B1095F
:101A80008091B2099091B309A091B409B091B509C0
:101A90000197A105B105F9F48091B6098823D9F021
:101AA00069E070E080E090E00E94F6029093B8094F
:101AB0008093B70940E050E0BA010E94BF0269E09C
:101AC00070E080E090E00E94F6029093B809809365
:101AD000B7090E948B038091A90981112EC081E072
:101AE0008093A9098091AA099091AB09A091AC09B2
:101AF000B091AD090197A105B105F9F48091AE0946
:101B00008823D9F06BE070E080E090E00E94F6025C
:101B10009093B0098093AF0940E050E0BA010E9471
:101B2000BF026BE070E080E090E00E94F6029093CC
:101B3000B0098093AF090E948B038091A1098111A4
:101B40002EC081E08093A1098091A2099091A30900
:101B5000A091A409B091A5090197A105B105F9F4D7
:101B60008091A6098823D9F06AE070E080E090E0D7
:101B70000E94F6029093A8098093A70940E050E0E4
:101B8000BA010E94BF026AE070E080E090E00E942B
:101B9000F6029093A8098093A7090E948B03809175
:101BA000C909811103C081E08093C9098091C109ED
:101BB000811103C081E08093C10980919509811151
:101BC00014C081E0809395098091960990919709BE
:101BD000A0919809B09199090197A105B10529F43F
:101BE00080919A0981110E94BC028091890981111A
:101BF00014C081E08093890980918A0990918B09B2
:101C0000A0918C09B0918D090197A105B10529F426
:101C100080918E0981110C94BC02089560E070E0FF
:101C200080E89FE7089560E070E080E89FE708950E
:101C300060E070E080E89FEF089560E070E080E889
:101C40009FEF089560E070E080EC9FEF089560E002
:101C500070E080EC9FEF0895F5DF60932D0A70939C
:101C60002E0A80932F0A9093300AF1DF6093210AA5
:101C70007093220A8093230A9093240ACFDF609303
:101C8000290A70932A0A80932B0A90932C0ACBDF9F
:101C90006093250A7093260A8093270A9093280A56
:101CA000C7DF6093310A7093320A8093330A9093AE
:101CB000340AC3DF6093350A7093360A8093370A7B
:101CC0009093380A0895CF92DF92EF92FF92CF93CC
:101CD0006B017C01AC019B016091290A70912A0A79
:101CE00080912B0A90912C0A0E94312FC1E0882309
:101CF00071F0A70196016091310A7091320A8091CA
:101D0000330A9091340A0E94312F8111C0E08C2F48
:101D1000CF91FF90EF90DF90CF9008950F931F9396
:101D20008B019C010027112720783F7701151105B1
:101D300020483F4749F4AB01BC016F77772781E02A
:101D4000452B462B472B09F480E01F910F910895F6
:101D5000E5CF4F925F926F927F928F929F92AF9258
:101D6000BF92CF92DF92EF92FF920F931F93F8945E
:101D70004090390450903A0460903B0470903C04C9
:101D8000C0902D04D0902E04E0902F04F0903004E9
:101D90004130510509F0A4C09B01AC01241935095B
:101DA0004609570929013A0100913504109136047A
:101DB000209137043091380448015901840C951C56
:101DC000A61CB71C80169106A206B306A0F40091CB
:101DD00031041091320420913304309134040F5FA8
:101DE0001F4F2F4F3F4F0093310410933204209325
:101DF0003304309334048092350490923604A092D8
:101E00003704B092380400913104109132042091CB
:101E100033043091340480923D0490923E04A092A9
:101E20003F04B09240040093410410934204209375
:101E30004304309344046093390470933A048093CC
:101E40003B0490933C04A0E1B7E2A30192010E94FD
:101E5000CB396C0D7D1D8E1D9F1D60932D047093DD
:101E60002E0480932F049093300400912C02109143
:101E70002D0220912E0230912F020F3F1F4F2F4F26
:101E80003F4FF1F000912C0210912D0220912E0273
:101E900030912F020E3F1F4F2F4F3F4F89F0C090C0
:101EA0002C02D0902D02E0902E02F0902F0221E023
:101EB0008C149D04AE04BF0408F420E02093490470
:101EC00078941F910F91FF90EF90DF90CF90BF908B
:101ED000AF909F908F907F906F905F904F900895FC
:101EE0004B015C0184189508A608B708A30192016C
:101EF000261B370B480B590B64157505860597058E
:101F0000D0F082169306A406B50640F420E030E037
:101F1000A90181149104A104B10491F4A0E1B7E2F4
:101F20000E94CB39A7019601261B370B480B590B92
:101F3000CA01B901C5CF82169306A406B50670F78B
:101F4000A0E1B7E2A50194010E94CB396C0D7D1D83
:101F50008E1D9F1DB5CFFDCECF93DF9300D01F9276
:101F6000CDB7DEB71C821B821A82198210924504FB
:101F7000109246041092470410924804BE016F5F0D
:101F80007F4FCE0103960E94A92C69817A818B81B3
:101F90009C810E949725009761F4BE016F5F7F4F7F
:101FA000CE0103960E94B52C69817A818B819C8138
:101FB0002FD50F900F900F900F90DF91CF91089534
:101FC000FF920F931F93CF93DF93082F60E070E091
:101FD000CB010E94CA33FF24F3940E948024EC01B9
:101FE000892B89F010E0CE3F8FEFD80769F00023EE
:101FF00061F160E070E0CB010E94CA3381E090E0C3
:10200000892B59F322C011E026D5EC01892B21F050
:10201000CE3F8FEFD80759F711111EC011E022965D
:1020200009F410E00E943024EC01892B21F0CE3F0E
:102030008FEFD807E1F6111111C011E0CE3F8FEFFD
:10204000D80709F410E001110BC0CE01DF91CF9148
:102050001F910F91FF90089511E0E4CF11E0F3CFAD
:1020600060E070E0CB010E94CA331F25812F90E011
:10207000C7CFCF93DF9380914904882321F060E09C
:1020800070E0CB014DD636D6D0E0C0E0892B71F0A0
:102090006AE070E080E090E00E94CA3381E090DF67
:1020A00029D62196C03D27E0D20781F728D60E9485
:1020B000EB25109261041092600410925A04109261
:1020C0005B0410925C0410925D041092560410920E
:1020D000570410925804109259041092520410920E
:1020E0005304109254041092550410924E0410920E
:1020F0004F04109250041092510410924A0410920E
:102100004B0410924C0410924D044EEF5FEF6FEFB2
:102110007FEF40932C0250932D0260932E02709318
:102120002F0210924904EDE3F4E028E0DF011D9254
:102130002A95E9F71092390410923A0410923B0460
:1021400010923C0410923504109236041092370419
:102150001092380410923104109232041092330419
:102160001092340410922D0410922E0410922F0419
:1021700010923004DF91CF91089510926D04109267
:102180006E0410926F041092700410926C0480918F
:1021900075049091760490936B0480936A04109276
:1021A00069041092680410926404109265041092FD
:1021B000660410926704109272041092710490E009
:1021C00080E00895CF92DF92EF92FF920F931F93DA
:1021D000CF938C01019709F055C02091750430917F
:1021E000760480916A0490916B044091750450913B
:1021F000760450936B0440936A042817390781F0E2
:10220000109269041092680410926404109265049C
:102210001092660410926704109272041092710476
:102220008091750490917604019761F58091710415
:1022300090917204892B21F480913002811112C097
:1022400080917104909172040197E1F4809164048B
:1022500090916504A0916604B09167040197A1056F
:10226000B10581F410926404109265041092660422
:10227000109267041092300282E090E09093720412
:10228000809371048091750490917604019709F010
:102290001CC180918B0490918C048017910709F0E8
:1022A00014C18091870490918804A0918904B09111
:1022B0008A04009709F409C12091860421110DC0F8
:1022C00040918704509188046091890470918A0438
:1022D000452B462B472B09F4F8C02091710430910F
:1022E00072042230310509F0F0C0209168042111F8
:1022F000ECC0FC01C080D180E280F38080916C044E
:10230000882309F4D3C08091780490917904892BB3
:1023100009F4FEC0209178043091790481E02230E4
:10232000310509F080E02091780430917904C1E012
:102330002130310549F02091780430917904C1E0D1
:102340002230310509F0C0E0882309F456C02091FD
:102350008204309183044091840450918504C70124
:10236000B6010E94213187FD14C020918204309172
:102370008304409184045091850460916D047091B0
:102380006E0480916F04909170040E94312F87FD3C
:1023900022C02091820430918304409184045091A2
:1023A0008504C701B6010E942131181634F5209129
:1023B000820430918304409184045091850460919B
:1023C0006D0470916E0480916F04909170040E946E
:1023D000312F811112C080917A0490917B04A091D9
:1023E0007C04B0917D04892B8A2B8B2B19F481E01E
:1023F0008093690481E080936804CC2309F456C07B
:10240000209182043091830440918404509185048A
:10241000C701B6010E94312F87FF14C020918204AA
:1024200030918304409184045091850460916D043F
:1024300070916E0480916F04909170040E9421311C
:1024400087FF22C02091820430918304409184044C
:1024500050918504C701B6010E94312F811126C019
:10246000209182043091830440918404509185042A
:1024700060916D0470916E0480916F04909170046E
:102480000E942131181694F480917A0490917B0473
:10249000A0917C04B0917D04892B8A2B8B2B19F49D
:1024A00081E08093690481E08093680481E09091E9
:1024B0006804911180E080936C04C0926D04D09206
:1024C0006E04E0926F04F09270040130110509F07F
:1024D00067C18091710490917204892BD9F4109294
:1024E00077041092680480913002882379F082E0AA
:1024F00090E09093720480937104109230022091C6
:1025000075043091760481E0232BE9F080E01BC054
:1025100081E009CF1092300280917704882349F03E
:102520001092690410927204109271041092770450
:10253000EDCF8091750490917604892BE1F0809124
:102540006804109268042091710430917204223062
:10255000310509F45EC088F42115310509F448C03D
:102560002130310509F4F3C0109269041092680417
:102570001092770438C081E0E6CF2330310509F4AA
:10258000B1C02430310581F7409164045091650455
:1025900060916604709167044115510561057105EC
:1025A00061F04150510961097109409364045093ED
:1025B00065046093660470936704409164045091CD
:1025C00065046091660470916704452B462B472B88
:1025D000D9F420917304309174042130310509F04D
:1025E00046C01092690410927204109271040CC0DB
:1025F00080913002882341F082E090E09093720451
:1026000080937104109230021092620480916904E8
:10261000CEC08823C9F380917A0490917B04A09165
:102620007C04B0917D04181619061A061B060CF0DE
:102630007DC08091750490917604019709F076C071
:1026400080917A0490917B04A0917C04B0917D04E8
:102650008093640490936504A0936604B093670428
:1026600083E090E09093720480937104CDCF409109
:102670007E0450917F046091800470918104452B09
:10268000462B472BA9F01092690480917E0490910B
:102690007F04A0918004B09181048093640490939E
:1026A0006504A0936604B093670481E090E0DACFFC
:1026B000882399F08091310290913202A0913302E7
:1026C000B09134028093640490936504A0936604EF
:1026D000B093670484E090E0C5CF1092690482E073
:1026E00090E0C0CF8091640490916504A09166044D
:1026F000B09167040097A105B10559F00197A109B0
:10270000B1098093640490936504A0936604B09328
:1027100067048091640490916504A0916604B0916F
:102720006704892B8A2B8B2B09F06ECF80913102A5
:1027300090913202A0913302B0913402892B8A2BFE
:102740008B2B09F44ECF81E080936904B3CF409185
:1027500064045091650460916604709167044115AA
:1027600051056105710561F0415051096109710917
:102770004093640450936504609366047093670407
:1027800040916404509165046091660470916704FF
:10279000452B462B472B09F037CF8111C7CF9FCF51
:1027A00080916204882309F431CF80916304CF9132
:1027B0001F910F91FF90EF90DF90CF9008951092AE
:1027C0006D0410926E0410926F04109270041092B7
:1027D0006C04109272041092710410926B041092A7
:1027E0006A0410928C0410928B0410926904109267
:1027F00068041092640410926504109266041092AA
:10280000670410926304109262041092870410927D
:1028100088041092890410928A04109286041092FF
:10282000820410928304109284041092850488EE2E
:1028300093E0A0E0B0E08093310290933202A09345
:102840003302B093340210927E0410927F041092EF
:1028500080041092810410927A0410927B041092EA
:102860007C0410927D04109279041092780481E027
:1028700080933002109277041092760410927504BF
:10288000109274041092730490E080E00895809197
:10289000750490917604892B19F580913002882374
:1028A00051F080917704811106C081E08093630428
:1028B000809362040895209177043091300281E082
:1028C00090E0332311F090E080E030E08223932306
:1028D000892B21F01092630481E0EACF1092620408
:1028E000089582E090E0FA01918380838FEF9FEF5B
:1028F0000895CF93DF93EA01009711F00E940B2710
:102900001982188290E080E0DF91CF910895DB0179
:10291000009719F48FEF8C9308952EEF2C93FC0100
:102920003F96EF30F10508F034C08827E556FB4E9E
:102930008F4F0C94C339C714C514C314C114BF14EA
:10294000BB14BD14B914B714B514B214AE14AA1440
:10295000B014C91480E311968C93089589E2FBCFDB
:1029600082E2F9CF11961C92089583E2F4CF81E2BE
:10297000F2CF81E1F0CF87E2EECF8AE2ECCF80E1C7
:10298000EACF84E2E8CF88E2E6CF86E2E4CF81E3D3
:10299000E2CF80E2E0CF8091990490919A0408956B
:1029A00090939A04809399040895809198040895CF
:1029B00090919804892B809398040895982F90956E
:1029C00080919804892380939804089580919704B6
:1029D000089580919504909196040895611571056C
:1029E00059F0FB0130E020E070E060E0241735078B
:1029F00019F06115710511F0CB010895A081B18125
:102A0000A817B90709F4BF012F5F3F4F3696EECFE5
:102A100080919B0481111CC060D266D290938E0479
:102A200080938D040E94091F0E941B1F90939204A3
:102A3000809391040E9498230E949F239093900476
:102A400080938F0481E080939B0490E080E0089560
:102A500084EF9FEF08958F929F92AF92BF92CF9293
:102A6000DF92EF92FF920F931F93CF93DF9300D0EB
:102A700000D000D01F92CDB7DEB71A86198618860F
:102A80001F821E821D821C821B821A8219828091E3
:102A90009B0407EF1FEF882309F49CC08E010D5F94
:102AA0001F4F9E012B5F3F4FAE01495F5F4FBE013D
:102AB000675F7F4F90E080E00E941C258C010097AB
:102AC00021F00596029708F0DBC029853A8521158B
:102AD000310509F402C1ED80FE804B815C81B701B4
:102AE000640F751F8F8198858617970708F4F5C0C6
:102AF000E20EF31ED7019C91903C09F07FC042305A
:102B0000510508F47BC011968C9140919904509125
:102B10009A04452B09F49CC0913F08F071C02CE148
:102B2000290F2D3008F48BC02DE2290F203108F435
:102B300089C0903C21F48150823008F483C088E33E
:102B4000890F8B3008F481C097E8C92E94E1D92E03
:102B5000E1E7F4E16D817E81AE014F5F5F4F8985D2
:102B60009A8519955C01C114D104A1F189809A80DC
:102B70008114910479F18B819C818815990508F461
:102B800087C010E000E04B815C8170E060E0C7012D
:102B90000E94ED3901151105E9F449815A816985D1
:102BA0007A858D819E81680F791FC501F60119957F
:102BB000E980FA800D811E812F81388549855A85EB
:102BC0006FEF7FEF81E090E00E94B7248C01892BAA
:102BD00009F056C0C8012A960FB6F894DEBF0FBEA2
:102BE000CDBFDF91CF911F910F91FF90EF90DF90BC
:102BF000CF90BF90AF909F908F90089580E085CF49
:102C000030E020E0220F331FF901E357FB4F019022
:102C1000F081E02D309709F497CF892F90E0199536
:102C2000009709F491CFDC011296ED91FC91139776
:102C30001496CD90DC90309709F08CCF1FC021E026
:102C400030E0E0CF22E030E0DDCF23E030E0DACF4B
:102C5000D12CC12CE9E7F4E19F3F09F07BCFE09153
:102C60008D04F0918E04309721F4C90104EF1FEF19
:102C70000CC08FEF90E019950097A9F604EF1FEFB5
:102C800089859A85009709F4A5CF0E940B27A2CFCA
:102C90000E94E6258C0189859A850E940B2770E0A9
:102CA00060E0C4010E947F2598878F830E94B4242E
:102CB0009E838D836F8178856115710559F0C801F8
:102CC0000E9497289A87898706EF1FEF892B09F0C2
:102CD00058CF59CF08EF1FEF56CF08EF1FEFD0CFD7
:102CE00020919B04222319F020E00C94201F87EFF1
:102CF0009FEF08958091990490919A0408950E94FD
:102D0000A4230E94FE22F5D0EDE8F4E088E0DF0184
:102D10001D928A95E9F710929B0490E080E0089557
:102D20000C945C2121E040E050E0BA010C94201F9B
:102D300086E090E0FA019183808390E080E008953E
:102D400047E050E06AE772E049CEDF92EF92FF92EF
:102D50000F931F93CF93DF938A01EC01C60FD71F08
:102D6000E0909F04F090A004D9800E94CE25D81650
:102D7000190678F082E090E0F801918380838EEF6D
:102D80009FEFDF91CF911F910F91FF90EF90DF9018
:102D90000895EF2841F482E090E0F8019183808368
:102DA00084EF9FEFEECF898180939E0490E001969F
:102DB000F8019183808390E080E0E3CFCF93DF93AD
:102DC000EA010E940D22882321F00E94DB250E9447
:102DD0000E2282E090E0998388838BEF9FEFDF9152
:102DE000CF910895CF93DF93EB0186E0FB01119221
:102DF0008A95E9F78FEF8883D8DD8983E7DD8A83B9
:102E0000E8DD9D838C83DF91CF910895CF93DF938D
:102E1000EA010E941022811109C082E090E09983AA
:102E2000888385EF9FEFDF91CF91089590E080E058
:102E3000B7DD81E090E09983888390E080E0F3CF74
:102E40000F931F93CF93DF93EA018C01060F171F97
:102E50000E94102281110BC082E090E09983888348
:102E600085EF9FEFDF91CF911F910F910895F801AA
:102E70008181823038F082E090E0998388838EEF00
:102E80009FEFF0CF81E090E08BDD88E090E09983C8
:102E9000888390E080E0E6CFCF93DF930097D1F472
:102EA000EB01FB01329686E0DF011D928A95E9F77E
:102EB0008FEF888385E089831A820E94CE258B83D9
:102EC0000E94CD259D838C8381E08E838F83DF914B
:102ED000CF910895DF91CF911ACD80EA96E190933A
:102EE0009D0480939C04089580919C0490919D047E
:102EF000089510929D0410929C04089580919F045F
:102F00009091A0040895411105C0611571058105D6
:102F1000910561F060939F047093A0048093A104D5
:102F20009093A2044093A30481E0089580E0089563
:102F3000FF920F931F93CF93DF938A01EC01C60F8B
:102F4000D71FF9800E94CE25F816190668F082E096
:102F500090E0F801918380838EEF9FEFDF91CF9116
:102F60001F910F91FF9008956C817D818E819F81CB
:102F70004B81C9DF811108C082E090E0F8019183A4
:102F8000808384EF9FEFEACF898180939E0490E055
:102F90000196F8019183808390E080E0DFCFCF93AA
:102FA000DF93EA01FC01E60FF71F648175818681DA
:102FB00097814381A8DF811109C082E090E0998365
:102FC000888384EF9FEFDF91CF91089581E090E0B7
:102FD0009983888390E080E0F6CFEFE9F4E04081C8
:102FE000518162817381480F511D611D711D4083A4
:102FF0005183628373830895CF93C0919E044C2FB5
:1030000050E060919F047091A00401960E94E43901
:103010008C2FE3DF10929E04CF910895009799F4CE
:1030200080919F049091A0042FEFFB012083892BB6
:1030300059F020919E0430E02F5F3F4F2417350751
:1030400019F4CB01D9CF63CC0895009799F48091FE
:103050009F049091A0042FEFFB012083892B59F04E
:1030600020919E0430E02F5F3F4F2417350719F45D
:10307000CB01C2CF4CCC089523E1AC01249FC00109
:10308000259F900D1124E091A804F091A904E80F68
:10309000F91F238134812250310981E0223031052A
:1030A00008F080E008950F931F93CF93DF93009172
:1030B000AA041091AB04D0E0C0E080E00C171D071B
:1030C00049F491E0811190E0892FDF91CF911F9118
:1030D0000F9108958111F5CFCE01CEDF2196EECF6D
:1030E000A091A804B091A904109729F12091AA04F5
:1030F0003091AB0482179307F0F453E1589F90018D
:10310000599F300D1124A20FB31FED91FC9111971F
:10311000309789F012968C91681768F48DE0689F5B
:10312000E00DF11D112480819181892B21F081E036
:103130009281491708F080E008959C0143E1429F85
:10314000C001439F900D1124E091A804F091A904BF
:10315000E80FF91F8385823091F481E090E065816A
:10316000768140913502509136026417750711F44B
:1031700090E080E0892B19F081E0232B09F080E0BA
:103180000895FC01A081B1818DE0689FA00DB11D63
:10319000112413964D915C9185859685489F9001E9
:1031A000499F300D589F300D1124C90101966111BE
:1031B00003C0478144FD04960895EF92FF920F9358
:1031C0001F93CF93DF93EA01FC01E60FF71F028103
:1031D0001381E480F5804F2D6E2DC80181DF8111B0
:1031E0000DC082E090E0998388838EEF9FEFDF919E
:1031F000CF911F910F91FF90EF900895C8013CDF90
:10320000882339F082E090E09983888388EF9FEFEC
:10321000EECF10933C0200933B02E0923D02F0920D
:103220003E0281E090E09983888390E080E0DFCFE8
:10323000CF92DF92EF92FF920F931F93CF93DF9382
:103240007A01EC01C60FD71FC0903B02D0903C0220
:1032500000913D0210913E02412F602FC60140DFD8
:10326000811110C082E090E0F701918380838AEFA2
:103270009FEFDF91CF911F910F91FF90EF90DF9023
:10328000CF900895C601F8DE882341F082E090E0F7
:10329000F7019183808388EF9FEFEBCF4C815D81B5
:1032A0006E817F819A8189818F3F41F082E090E039
:1032B000F701918380838EEF9FEFDBCFE3E1EC9DFD
:1032C0009001ED9D300D1124E091A804F091A90426
:1032D000E20FF31F0190F081E02D2DE0029FE00D41
:1032E000F11D11240190F081E02D27E0129FE00DE7
:1032F000F11D1124808391838B81828343835483C6
:10330000658376831F5F10933E0281E090E0F701B2
:103310009183808390E080E0ACCFEF92FF920F9397
:103320001F93CF93DF937A018C01060F171FC09173
:10333000A804D091A904209781F021E030E0F801A1
:10334000828193814091AA045091AB048417950720
:1033500010F030E020E0232B71F482E090E0F701E0
:10336000918380838EEF9FEFDF91CF911F910F911B
:10337000FF90EF90089543E1489F9001499F300DE1
:103380001124C20FD31F78DE882341F082E090E041
:10339000F7019183808388EF9FEFE6CFF8012481C6
:1033A000358120383105C8F687818111D6CF41811A
:1033B000842F90E08F7E009741F082E090E0F7014B
:1033C0009183808386EF9FEFCFCF4F833E832D8302
:1033D000268128871986223010F421E0288721E0F1
:1033E00030E0F70131832083BFCF88E090E0FA011D
:1033F0009183808390E080E00895FB018FEF8083CC
:1034000081E181838FEF9FEF9383828380E890E057
:1034100095838483168217820895FB018FEF808342
:1034200091E0918382839383848384E3858381E025
:1034300090E0978386830895DF92EF92FF920F9337
:103440001F93CF93DF93EA01FC01E60FF71F818101
:10345000813071F082E090E0998388838FEF9FEF55
:10346000DF91CF911F910F91FF90EF90DF90089522
:1034700082819381D4802581E680F7800091A80421
:103480001091A9040115110539F482E090E09983A7
:1034900088838CEF9FEFE4CF4091AA045091AB0456
:1034A0008417950738F082E090E0998388838EEF47
:1034B0009FEFD6CF892B39F082E090E09983888303
:1034C00086EF9FEFCDCF8D2D8D7FB1F72130A1F706
:1034D00081E0D11006C091E0E916F10431F080E0FE
:1034E00004C0E2E0EE16F104D0F3882329F390E063
:1034F00080E0C2DD882339F082E090E09983888300
:1035000088EF9FEFADCFF801D38681E08487F68600
:10351000E586108A178681E090E09983888390E0A1
:1035200080E09ECF4CE050E064EA72E057CA8F9290
:103530009F92BF92CF92DF92EF92FF920F931F93D1
:10354000CF93DF93EA01FC01E60FF71F828193819D
:103550000481B580E091A804F091A904309791F41A
:1035600082E090E0998388838CEF9FEFDF91CF9189
:103570001F910F91FF90EF90DF90CF90BF909F90A1
:103580008F9008952091AA043091AB04821793077D
:1035900038F082E090E0998388838EEF9FEFE6CF4A
:1035A00023E1289F6001299FD00C1124EC0DFD1D03
:1035B000E080F180E114F10499F28281081748F764
:1035C0008DE0089F80011124E00EF11EF70180813B
:1035D0009181892B29F6BB20E1F2F7E0BF9E4001E3
:1035E0001124C4010E94D226F70191838083E091C7
:1035F000A804F091A904EC0DFD1D0190F081E02DCF
:10360000E00FF11F80819181009739F482E090E012
:10361000998388838DEF9FEFA9CFA40170E060E0CC
:103620000E94ED398091A8049091A904C80ED91E7A
:10363000F60180819181080F191FF801B28281E0A3
:1036400090E09983888390E080E090CFAF92BF9222
:10365000CF92DF92FF920F931F93CF93DF93EA01F4
:10366000FC01E60FF71F82819381F4800091A8048A
:103670001091A9040115110581F482E090E099836D
:1036800088838CEF9FEFDF91CF911F910F91FF9077
:10369000DF90CF90BF90AF9008952091AA04309111
:1036A000AB048217930738F082E090E09983888317
:1036B0008EEF9FEFE8CF2FEF2F0D2C3FA8F723E1E0
:1036C000289F6001299FD00C11240C0D1D1DF801AD
:1036D00080819181892B89F6FDE0FF9E50011124A4
:1036E000C5010E94D226F80191838083E091A8044D
:1036F000F091A904EC0DFD1D80819181009739F4B2
:1037000082E090E0998388838DEF9FEFBCCFA50185
:1037100070E060E00E94ED39E091A804F091A90406
:10372000EC0DFD1DF28281E090E09983888390E0AA
:1037300080E0A9CFCF92DF92EF92FF920F931F9379
:10374000CF93DF93860F971FFC0102811381809135
:10375000A8049091A904892B81F082E090E0FA01FD
:10376000918380838CEF9FEFDF91CF911F910F9119
:10377000FF90EF90DF90CF900895C801B0E0A0E0F7
:103780000197A109B1098F3F9F4FA105B10540F0F5
:1037900082E090E0FA01918380838EEF9FEFE4CF87
:1037A0007A0183E1809F6001819FD00C1124C601C2
:1037B0000E94D226EC01009741F482E090E0F701EC
:1037C000918380838DEF9FEFCFCFA60170E060E003
:1037D0000E94ED39D093A904C093A8041093AB04C0
:1037E0000093AA0490E080E02FEF3FEF41E061E01A
:1037F00070E08017910741F481E090E0F701918338
:10380000808390E080E0B0CF3A8B298B1B864C8779
:103810007E876D87188A1F8601966396EACFEF929E
:10382000FF921F93CF93DF93EC0110E0F12CE12C7A
:103830006A811617B0F083E0689FB0011124AE01D1
:103840004F5E5F4FC7010E943727009721F02FEF8F
:103850003FEF3A8B298BDF91CF911F91FF90EF9033
:103860000895612FCE018DDC61E070E00E947F251C
:10387000E816F90608F47C011F5FDACFF89420916E
:10388000A6043091A70481E02115310509F080E0FC
:10389000232B09F0789408952F923F924F925F92D4
:1038A0006F927F928F929F92AF92BF92CF92DF9250
:1038B000EF92FF920F931F93CF93DF933C01660E1D
:1038C000771EF301828193814C01B12CA12CC09110
:1038D000A804D091A904209769F021E030E060911C
:1038E000AA047091AB048617970710F030E020E02F
:1038F000232BD1F482E090E0FA01918380838EEF54
:103900009FEFDF91CF911F910F91FF90EF90DF908C
:10391000CF90BF90AF909F908F907F906F905F906F
:103920004F903F902F90089580923F0290924002D6
:10393000A0924102B092420263E1689F9001699FA8
:10394000300D1124C20FD31FF3018181833040F069
:1039500082E090E0FA019183808386EF9FEFD1CFE0
:103960002A012B813C81232BF1F4288139819F810D
:1039700091FF2EC0232B09F46FC02091AD049A81D2
:10398000422F490F5527551FBA0141E050E06138D9
:10399000710514F050E040E0452B09F45DC02A8722
:1039A000920F9093AD048150823008F481C066DF9D
:1039B000882309F4D8C0F3018181813009F48DC0D6
:1039C00008F47BC0823009F4C6C090E080E0ADC04E
:1039D000232B09F441C02091AC049A81E22FE90F16
:1039E000FF27FF1F41E050E0ED3FF10514F050E0EC
:1039F00040E0452B89F12A87920F9093AC04D3CFF6
:103A0000A081B181A20FB31F11966C91060F111DF9
:103A10000196295F3F4F8417950794F38D859E8506
:103A2000089F1001099F300C189F300C1124C114FD
:103A3000D104D1F48F8184FF17C00E94CD25F5E019
:103A40002F0E311C21E08215930508F420E0A70118
:103A5000435F5F4F21110EC082E090E0F20191833D
:103A6000808387EF9FEF4DCF0E94CD252FEF221A45
:103A7000320AE8CF88819981E80EF91EF701148394
:103A80000383FFEFCF1ADF0A7A018A818C151D04A8
:103A900009F00CF48CCFE881F981EE0DFF1D428115
:103AA00050E030E020E010E000E090E080E0B3CFB4
:103AB000F12CE12CD12CC12CE8CF81E090E09C834B
:103AC0008B83F1DA882309F480CF81E090E00E94B3
:103AD000D01480E40E94DE1478CF89899A890196F7
:103AE00061F083E090E09C838B8382E090E00E9411
:103AF000D01480E40E94D81468CF8D819E812091DB
:103B000035023091360282179307D1F46091390261
:103B100070913A02AE014F5E5F4F809137029091F3
:103B200038020E9456280097E1F2789422E030E0B3
:103B3000F20131832083892B99F08DEF9FEFE1CE45
:103B400089288A288B2869F6039758F6CE0167DE04
:103B5000188A1F86E8CF82E090E09C838B8335CF64
:103B600090E080E0CECE82E090E0F201918380830D
:103B700085EF9FEFC6CE8F929F92AF92BF92CF926A
:103B8000DF92EF92FF920F931F93CF93DF93EA019F
:103B90008C01060F171FF8018181833098F082E0B5
:103BA00090E09983888386EF9FEFDF91CF911F91FB
:103BB0000F91FF90EF90DF90CF90BF90AF909F90CC
:103BC0008F9008958091A8049091A904892B61F0A9
:103BD00081E090E02091AA043091AB04232B11F4F2
:103BE00090E080E0892B39F482E090E0998388832B
:103BF0008EEF9FEFDACF42DE882309F4E0C0F801B0
:103C00008181813009F496C0E8F0823099F42091E6
:103C1000AA043091AB04E091A804F091A90490E0CB
:103C200080E041E050E02817390709F0BEC03BDAD8
:103C3000811117C0789481E090E09983888390E0A7
:103C400080E0B3CF2091AA043091AB04E091A804A6
:103C5000F091A90490E080E041E050E02817390796
:103C600041F481E090E00E94D01480E40E94DE14D0
:103C7000E1CF63817481672B11F0548343830196F4
:103C80007396ECCFE091A804F091A904E00FF11F26
:103C90002381348122303105D9F4218932892F3FA3
:103CA0003F4FB1F425813681409135025091360263
:103CB0002417350761F5AF014F5E5F4F6091390200
:103CC00070913A0280913702909138020E945628F2
:103CD000EFEFCE1ADE0AEE0AFE0A0D5E1F4F40918C
:103CE000AA045091AB0470E060E0C416D506E60665
:103CF000F70644F5009731F27894892B09F49BCFAD
:103D000082E090E0998388838DEF9FEF4ECFC114BE
:103D1000D104E104F104E1F623303105C8F6CF0106
:103D20007EDDE091A804F091A904E00FF11F108A54
:103D30001786CECF10E000E090E080E0C12CD12CBF
:103D40007601CDCF0097C1F610E000E0812C912CD8
:103D5000540183E0E82EF12C1AC0E091A804F09100
:103D6000A904E00FF11F83819481029749F4F48242
:103D7000E38282E090E00E94D01480E40E94D81494
:103D8000FFEF8F1A9F0AAF0ABF0A0D5E1F4F809187
:103D9000AA049091AB04B0E0A0E088169906AA06A8
:103DA000BB06DCF290E080E0A7CF638174816230D3
:103DB000710511F4548343830196739634CF82E0E6
:103DC00090E09983888385EF9FEFEFCE0097B9F459
:103DD0008FEFFB01808320913F023091400243E14D
:103DE000429FC001439F900D1124E091A804F091DF
:103DF000A904E80FF91F8285FB01818308950C94C3
:103E0000871488E090E0FA019183808390E080E05D
:103E100008951092A7041092A604E8EAF4E086E060
:103E2000DF011D928A95E9F782E99AE19093A50452
:103E30008093A40408958091A4049091A50408950A
:103E40002F923F924F925F926F927F928F929F92AA
:103E5000AF92BF92CF92DF92EF92FF920F931F9398
:103E6000CF93DF93CDB7DEB72F970FB6F894DEBFB1
:103E70000FBECDBFF894E091A604F091A70431964F
:103E8000F093A704E093A60478944090A80450907F
:103E9000A9044114510409F40CC2E091AA04F09160
:103EA000AB04EF2B09F405C22D8749875A876B872E
:103EB0007C8798878F831201B12CA12C10E000E041
:103EC0008091AA049091AB04A816B90618F40115C4
:103ED000110529F1F8948091A6049091A704019707
:103EE0009093A7048093A6047894C8012F960FB6E8
:103EF000F894DEBF0FBECDBFDF91CF911F910F9120
:103F0000FF90EF90DF90CF90BF90AF909F908F90F9
:103F10007F906F905F904F903F902F900895710128
:103F2000E418F508D10117968C91179781FD54C0BC
:103F300013968D919C911497039709F04DC0159697
:103F40008D919C91EF81F8858E179F0709F044C0F1
:103F5000B50190E080E07FD48A832091A80430915D
:103F6000A9043D832C833D85332309F44CC04C8147
:103F70005D81452B09F49AC18091AA049091AB040C
:103F8000A816B90608F092C1C501D7D88823E9F070
:103F90006C817D816E0D7F1D7D836C83DB011F969F
:103FA0008D919C91892B89F0D12CC12CF12CE12C85
:103FB000AC81BD8112968C9112978E151F0409F069
:103FC00094F450961C921E921F972A81222321F06E
:103FD000B50190E080E041D43FEFA31AB30A43E17A
:103FE000240E311C6DCFAC81BD81ED91FC91EC0DA7
:103FF000FD1D858196810FD7BFEFEB1AFB0AEDE01F
:10400000CE0ED11CD5CFEC81FD81309709F44EC185
:104010008091AA049091AB04A816B90608F046C195
:10402000EE0DFF1DFF87EE87C50187D88B838823A0
:1040300039F1AE85BF851F968D919C915097019661
:1040400021E01D964D915C918417950709F020E0C1
:104050002E831982712C10E000E0AE85BF85129688
:104060008C91781608F45DC0EE85FF858785908970
:104070000196658576850E948D39908B8787A5CFBF
:10408000B1E0BE83E6CF992493946BC08BD6F60142
:104090009683858382C0D601ED90FC90B7E06B9E3D
:1040A000E00CF11C1124F7016381748180818F3F42
:1040B00061F121E030E002C0220F331F8A95E2F760
:1040C000C901092E000CAA0BBB0BFB0140815181D9
:1040D0006281738184239523A623B72321E0892B52
:1040E0008A2B8B2B09F420E0D4012C93D701119655
:1040F0008C91F60123853485820F932F911D880EB4
:10410000991E1486138663949BC0418150E0C401BC
:104110000E94E439EBCF998206EF1FEFC5C01982E8
:10412000C3C0F981F111A0CFEDE07E9E7001112492
:10413000AE85BF85CD90DC90CE0CDF1C15D49D8361
:104140008C83BB81BB2309F49ECF81E0EE85FF8584
:1041500027853089232B09F080E0982E882309F4E5
:1041600058C0672D8E859F850CD8D60118969C93D4
:104170008E93179761E070E0C2D4EE85FF852189A8
:1041800032892F3F320709F481CFBC01C901CFD753
:10419000D60116969C938E931597D60115968D9100
:1041A0009C911697009709F4B6CFEC81FD818E0F94
:1041B0009F1F1A969C938E931997AE85BF85ED919C
:1041C000FC911197EE0EFF1EF701218532851486B2
:1041D00013861A968C91870DD9018D93711016C094
:1041E000EE85FF85878184FF11C049855A856B85DF
:1041F0007C85F9014183528363837483F70183854E
:1042000094850496A80FB91F14861386F701B28708
:10421000A187D60115968D919C911697892B09F44B
:1042200043C0EE85FF8525813681809135029091CE
:1042300036022817390779F019968D909C90612CD9
:10424000D60112968C911297681608F424CF1A960C
:104250009C928E921997BE81BB2309F460CF61E0D6
:1042600070E0F601878190854AD4D6011796ED90CB
:10427000FC90189715964D915C91E1E0F0E0BA81C1
:10428000BB2311F0F0E0E0E00C811D819C01B50141
:10429000882799278E1B9F0B6AD38C01892B21F0CD
:1042A000F60185819681B7D57394D7CE0FEF1FEFB6
:1042B0008CCE10E000E00ECE2F923F924F925F9294
:1042C0006F927F928F929F92AF92BF92CF92DF9226
:1042D000EF92FF920F931F93CF93DF938091A804E7
:1042E0009091A90410E000E0892BA9F0C7DA0AEF49
:1042F0001FEF882381F02090AA043090AB04C09176
:10430000A804D091A904D12CC12C10E000E02C14F9
:104310003D04A9F47894C801DF91CF911F910F91CA
:10432000FF90EF90DF90CF90BF90AF909F908F90D5
:104330007F906F905F904F903F902F900895C601AF
:104340000E949D18882309F18B819C810397E9F4D1
:104350008F859889892BC9F0B60190E080E07BD2E7
:1043600021E030E0882311F030E020E0442455249F
:10437000421A530AB12CA12C912C812C8A818815C8
:10438000190409F038F4188A1F864FEFC41AD40AAA
:104390006396BDCFE881F981EA0DFB1D8581968189
:1043A000892BA1F161E070E087819085A8D33C0161
:1043B000DBD28C01E881F981EA0DFB1D81859285B4
:1043C00025813681200F311FAC01421B530B9A010E
:1043D00047815085421B530B70E060E00E94ED392D
:1043E000E881F981EA0DFB1DE780F0844581568163
:1043F0009301B601C201BBD28C01892B39F0E8814F
:10440000F981EA0DFB1D8581968105D55FEF851A3F
:10441000950A8DE0A80EB11CB1CF30CA78940895EA
:104420002F923F924F925F926F927F929F92AF92A4
:10443000BF92CF92DF92EF92FF920F931F93CF9391
:10444000DF9300D000D0CDB7DEB70091A804109163
:10445000A904992493940115110509F43EC0A09074
:10446000AA04B090AB040ADA982E8823B1F1109216
:10447000A9041092A8041092AB041092AA041092FE
:10448000AC041092AD048FEF9FEFDC0180933F02EC
:1044900090934002A0934102B093420278947FD35C
:1044A0001E830D83C12CD12C7601C501B0E0A0E0A4
:1044B00089839A83AB83BC8322242A94322C8981FA
:1044C0009A81AB81BC81C816D906EA06FB06F4F0D6
:1044D000C801A1D480E40E94DE14892D26960FB66F
:1044E000F894DEBF0FBECDBFDF91CF911F910F912A
:1044F000FF90EF90DF90CF90BF90AF909F907F9014
:104500006F905F904F903F902F900895AD81BE8146
:1045100015968D919C911697209135023091360217
:1045200082179307D1F451968D919C91EED5ED8130
:10453000FE8180819181B12CA12C412C512C320122
:10454000892B89F5BFEFCB1ADB0AEB0AFB0AED8159
:10455000FE817396FE83ED83B2CFC114D104E104D2
:10456000F10429F7039718F7ED81FE81818992897B
:104570008F3F980709F029D5AD81BE8152963C92B4
:104580002E925197D4CF8A0D9B1DDC018D919C9169
:10459000009709F040D4BFEF4B1A5B0A6B0A7B0A05
:1045A000EDE0AE0EB11CAD81BE818D919C91119755
:1045B00012964C9150E070E060E044165506660695
:1045C00077060CF328D4BECFCF93DF93EA0128DF20
:1045D000811109C082E090E09983888385EF9FEF85
:1045E000DF91CF91089581E090E00E94D01481E0A6
:1045F00090E09983888390E080E0F2CF11DF109201
:10460000A5041092A404089542E050E06CEE72E01C
:104610000C94EE14FF920F931F93CF93DF938A01B4
:10462000EC01C60FD71FF980B9D20897F816190602
:1046300071F068F082E090E0F801918380838EEF62
:104640009FEFDF91CF911F910F91FF9008956C81A3
:104650007D818E819F814B810E948317811108C0CB
:1046600082E090E0F8019183808384EF9FEFE9CFAF
:10467000F9800E947E174F2D50E0BE01685F7F4F8A
:104680000E94E43989810E94ED1781E090E0F801F1
:104690009183808390E080E0D4CFDF92EF92FF920D
:1046A0000F931F93CF93DF938A01EC01C60FD71F9F
:1046B0000E947E177C01D98071D2DD2059F00297CB
:1046C00021E030E0D816190619F010F030E020E0B3
:1046D000232B79F482E090E0F801918380838EEFC0
:1046E0009FEFDF91CF911F910F91FF90EF90DF909F
:1046F0000895EF2841F482E090E0F80191838083EF
:1047000084EF9FEFEECFF9800E947E174F2D50E08F
:10471000BE016E5F7F4F0E94E43989810E94ED17D0
:1047200081E090E0F8019183808390E080E0D9CF30
:1047300084E093E29093AF048093AE040895809157
:10474000AE049091AF0408950895FC011182108287
:10475000938382830895DB011D921C92DC011296E3
:10476000ED91FC9113977183608313967C936E9304
:1047700012970895FC0180819181DB018D939C93B8
:10478000A081B181109741F08D919C91918380839C
:10479000892B11F4F383E2830895FC0180819181D8
:1047A000DB018D939C93892B11F473836283718356
:1047B00060830895FC01118210829383828308959F
:1047C000CF93DF931F921F92CDB7DEB71A82198263
:1047D000F894BE016F5F7F4F85EB94E0CBDF89815A
:1047E0009A81009709F017D389819A81892B89F7DB
:1047F000BE016F5F7F4F89EB94E0BCDF89819A81B6
:10480000009709F008D389819A81892B89F77894D8
:104810000F900F90DF91CF910895CF93DF931F9268
:104820001F92CDB7DEB71A821982F894BE016F5F6E
:104830007F4F81EB94E09EDF89819A81009709F098
:10484000EAD289819A81892B89F778940F900F9009
:10485000DF91CF91089581E0089590E080E0089580
:10486000EF92FF920F931F93CF93DF931F921F92AC
:10487000CDB7DEB71A8219828091B00407EF1FEF1F
:104880008823A1F1F894BE016F5F7F4F89EB94E01C
:1048900071DF789489819A81EE24E394F12C892B3D
:1048A00051F4F894BE016F5F7F4F85EB94E062DFB7
:1048B0007894F12CE12C89819A810EEF1FEF0097FB
:1048C000A9F0FC014281538164E070E076D68C014E
:1048D000892B61F0F89469817A81C701880F991F4B
:1048E000880F991F8B549B4F58DF7894C8010F9005
:1048F0000F90DF91CF911F910F91FF90EF9008954E
:104900000F931F93CF93DF9300D01F92CDB7DEB7E5
:104910001C821B821A8219828091B00407EF1FEF5C
:104920008823C1F0AE014D5F5F4F64E070E0CE01BF
:104930000196B6D68C01892B69F4E981FA818B81C5
:104940009C8193838283F89469817A8181EB94E0DE
:1049500002DF7894C8010F900F900F900F90DF91B5
:10496000CF911F910F910895BBD7049608958F9210
:104970009F92AF92BF92CF92DF92EF92FF920F93EE
:104980001F93CF93DF931F921F92CDB7DEB71A828A
:104990001982BC016F5F7F4F6330710598F0AA24C4
:1049A000AA94BA2CC5010F900F90DF91CF911F915F
:1049B0000F91FF90EF90DF90CF90BF90AF909F90BE
:1049C0008F9008954115510551F3480159018A010D
:1049D0006C01CADF8815990511F7E114F104F9F2A9
:1049E0008E0D9F1DA816B906D0F28091B0048823C1
:1049F000F1F0F894B501645071099701AE014F5F71
:104A00005F4FC8010496E1D65C01892B71F489815E
:104A10009A81F80193838283C601880F991F880FBA
:104A2000991FB8018B549B4F96DE7894BBCF87EFCC
:104A3000A82EBB24BA94B6CFAF92BF92CF92DF928A
:104A4000EF92FF920F931F93CF93DF931F921F92CA
:104A5000CDB7DEB71A821982892B09F047C06115DC
:104A6000710509F443C04115510509F43FC02115F2
:104A7000310509F43BC001151105C1F18091B00465
:104A80008823B9F179016A015B01F894BE016F5F77
:104A90007F4F81EB94E06EDE789489819A81009754
:104AA00059F1DC0112966D917C91A8010496A6D66D
:104AB0008C01E981FA81D501ED93FC938281938188
:104AC0000496F601918380834FDFD7018D939C93E9
:104AD000C8010F900F90DF91CF911F910F91FF9020
:104AE000EF90DF90CF90BF90AF9008950FEF1FEF42
:104AF000EFCF07EF1FEFECCF0EEF1FEFE9CFCF9314
:104B0000DF93EC01672B71F4F4D68C179D0760F0EE
:104B1000E7D62496C80FD91FE6D68C0F9D1FDF91CC
:104B2000CF910895E3D6F1CF90E080E0F8CF0F93D6
:104B30001F93CF93DF932091B00421112BC08B01E1
:104B4000EC0185EB94E001DE89EB94E0FEDD81EB86
:104B500094E0FBDD97D00097C1F4CBD670E060E025
:104B6000CEDF43E452E062E070E081D1009769F467
:104B70008091430290914402CED6B801CE0103D574
:104B8000009719F421E02093B004DF91CF911F9199
:104B90000F91089584EF9FEFF8CFA8C6AAC6CF93D0
:104BA000DF93AAD6EC01892B11F40ADE36DECE01A2
:104BB000DF91CF910895CF93DF939ED6EC01892B9F
:104BC00009F4FEDDCE01DF91CF910895809143027B
:104BD000909144020895CF93DF938091B004D0E088
:104BE000C0E08823D1F09CD6EC01892BB1F4E8DD3C
:104BF00014DE8091430290914402E7D1E8D2EC01A7
:104C0000892B59F485EB94E0D5DD89EB94E0D2DD76
:104C100081EB94E0CFDD1092B004CE01DF91CF9113
:104C20000895EF92FF920F931F93CF93DF93EC01C0
:104C30007A018B010F5F1F4F0E9DA0010F9D500D3C
:104C40001E9D500D112470E060E00E94ED3990E04F
:104C500080E0F0E0E0E02FEFE816F90639F4DF91AC
:104C6000CF911F910F91FF90EF9008951A821982B2
:104C70002883309711F0D283C1830196FE01C00FC3
:104C8000D11FEACFCF92DF92EF92FF920F931F9343
:104C9000CF93DF9302E516E00C7F43E050E065E43C
:104CA00072E08BE492E01CD485E4E82E82E0F82EDA
:104CB0009BE4C92E92E0D92EC9ECD6E0D7014D91E4
:104CC0005D917D01F601619171916F0119830883F6
:104CD0005D834C835B834A837F836E839B012F5F5D
:104CE0003F4F249FC001259F900D349F900D1124AC
:104CF000998788870115110511F0C80192DF888511
:104D00009985080F191F2A96FBE4EF16F2E0FF06BB
:104D1000A9F6EFEBF4E080E991E0DF019C011D9240
:104D200021503040E1F71092BE041092BD04109261
:104D3000E8061092E7061092EC061092EB0610922D
:104D4000EA061092E9061092EE061092ED06109215
:104D5000F0061092EF061092F2061092F1061092F1
:104D6000F6061092F5061092F4061092F3061092D1
:104D7000F8061092F7061092FA061092F9061092B1
:104D8000C6061092C5061092C8061092C70690E09B
:104D900080E0DF91CF911F910F91FF90EF90DF9016
:104DA000CF9008950097F1F0F894ABE4B2E0E9EC0D
:104DB000F6E030E020E04D915D9148175907A8F0EA
:104DC000428153814115510581F08AE0829FF001B3
:104DD000839FF00D1124E753F94F80819181009753
:104DE00059F4789490E080E008952F5F3F4F3A9611
:104DF0002330310501F7F5CFDC0111966D917C91DF
:104E0000718360834150510953834283FC01219394
:104E1000CF0178940895009749F1DC018E91853097
:104E200041F4E091C706F091C8063097F9F0CD0142
:104E300019948530D8F4282F30E0F8948FEF8C93B4
:104E40008AE0829FF001839FF00D1124E753F94F10
:104E50008081918112969C938E931197B183A08348
:104E60008281938101969383828378940895CF926F
:104E7000DF92EF92FF920F931F93CF93DF939C01EA
:104E800082EC94E08C7F4115510509F49BC02115FB
:104E9000310509F497C06115710509F493C07A01D1
:104EA000AB01B9016D5F7F4F6C7F9B012F5F3F4F5F
:104EB000249F8001259F100D349F100D1124F8941C
:104EC0002091E7063091E806232B59F42091EF0654
:104ED0003091F0062115310569F12017310708F0EE
:104EE00058C02091F1063091F206232B91F42091C5
:104EF000EF063091F006820F931F2091F906309152
:104F0000FA062115310509F441C02017310708F0D0
:104F100056C07894CFEFDFEF86EF9FEFF701D18394
:104F2000C083DF91CF911F910F91FF90EF90DF90A1
:104F3000CF900895C3E0D0E0C090BD04D090BE04EF
:104F40002DE831E02C193D092017310710F32AE034
:104F50002C9FF0012D9FF00D1124E753F94F918301
:104F60008083558344835383428377836683118789
:104F70000087009709F055DE0C0D1D1D1093BE042F
:104F80000093BD04789490E080E0C8CFC4E0D0E006
:104F9000D3CFC3E0D0E02AE02C9FF0012D9FF00D8D
:104FA0001124E753F94F91838083558344835383BE
:104FB000428377836683009729F333DEE3CFC4E02F
:104FC000D0E0E9CF8FEF9FEFACCF9C010397029722
:104FD00008F069C0F89484E09AE0482F50E0241764
:104FE00035070CF44DC091E08AE0829FF001839F69
:104FF000F00D1124E753F94F1182108215821482AB
:1050000013821282178216829923B1F18091E706EA
:105010009091E806892BA9F42091EF063091F006D3
:105020002115310571F08091BD049091BE04821B61
:10503000930B9093BE048093BD041092F0061092DF
:10504000EF068091F1069091F206892BA9F4209148
:10505000F9063091FA062115310571F08091BD04F1
:105060009091BE04821B930B9093BE048093BD0469
:105070001092FA061092F906789490E080E0089574
:10508000949FF001959FF00D1124E753F94F408153
:105090005181452B31F440855185452B11F48150C8
:1050A0009CCF90E0A1CF8FEF9FEF08954115510560
:1050B00049F1009739F16115710521F1F8942091BA
:1050C000C5063091C606232BB9F42091C70630914E
:1050D000C806232B89F49093C6068093C506709367
:1050E000C8066093C706789425E030E090E080E041
:1050F000FA0131832083089578942FEF3FEF86EFF4
:105100009FEFF6CF8FEF9FEF0895059769F4F8941E
:105110001092C6061092C5061092C8061092C706D5
:10512000789490E080E008958FEF9FEF08956115E7
:10513000710519F4F0E0E0E011C08530910581F4CB
:10514000E091C506F091C6063097A1F3CB01019618
:105150001995009779F3FC0185E08193CF010895BB
:105160009C01235031092230310520F72AE0289F85
:10517000D001299FB00D1124A753B94F2D913C9117
:105180001197232BB9F216962D913C91179726175C
:10519000370780F2F89412962D913C9113972115C0
:1051A000310529F0ED91FC911197309711F4789425
:1051B000C1CF4181528111965C934E9321503109A8
:1051C00013963C932E93129781937894C7CFEFE474
:1051D000F6E086E7DF011D928A95E9F7EFEBF4E050
:1051E00080E991E0DF019C011D9221503040E1F700
:1051F0001092BE041092BD04E9ECF6E082E3DF01F8
:105200001D928A95E9F7E5ECF6E084E0DF011D9256
:105210008A95E9F790E080E00895CF93DF93C091FD
:105220005102D0915202CF3FDC0759F423D490931E
:1052300052028093510297FF09C0D0935202C0934B
:10524000510284EF9FEFDF91CF91089590E080E0CD
:10525000FACF8230910528F48093FB0690E080E03D
:1052600008958FEF9FEF08954F925F926F927F9214
:10527000AF92BF92CF92DF92EF92FF920F931F9364
:10528000CF93DF931F921F92CDB7DEB71A82198298
:10529000009709F479C06115710509F475C0209172
:1052A00051023091520207EF1FEF2F3F3F4F09F499
:1052B00045C06B015C01412C512C3201F12CE12CD9
:1052C00010E000E09E012F5F3F4FA6014E195F09DD
:1052D000B5016E0D7F1D80915102909152022ED426
:1052E000892B09F04BC089819A81009741F4E11420
:1052F000F10429F42091FB06222309F442C0E80EB0
:10530000F91EEC14FD04D0F480E8481684E8580631
:105310008EE16806710420F560E070E0CB010E9428
:10532000CA332AE0420E511C611C711C0A3F4FEF28
:10533000140721F0043F8FEF1807A1F4C8010F9064
:105340000F90DF91CF911F910F91FF90EF90DF9021
:10535000CF90BF90AF907F906F905F904F900895E7
:1053600001EF1FEF81E090E0013F2FEF120711F0F6
:1053700090E080E0892B09F4A5CFE0CF04EF1FEF88
:10538000DDCF0AEF1FEFDACF0FEF1FEFD7CF4F922E
:105390005F926F927F92AF92BF92CF92DF92EF9225
:1053A000FF920F931F93CF93DF931F921F92CDB75E
:1053B000DEB71A821982009709F479C06115710568
:1053C00009F475C0209151023091520207EF1FEF8E
:1053D0002F3F3F4F09F445C06B015C01412C512C1C
:1053E0003201F12CE12C10E000E09E012F5F3F4FD5
:1053F000A6014E195F09B5016E0D7F1D8091510206
:10540000909152024ED3892B09F04BC089819A8129
:10541000009741F4E114F10429F42091FB062223C2
:1054200009F442C0E80EF91EEC14FD04D0F480E447
:10543000481682E458068FE06806710420F560E0A3
:1054400070E0CB010E94CA332AE0420E511C611C5D
:10545000711C0E3F4FEF140721F0043F8FEF180728
:10546000A1F4C8010F900F90DF91CF911F910F9180
:10547000FF90EF90DF90CF90BF90AF907F906F90B4
:105480005F904F90089502EF1FEF81E090E0023FA0
:105490002FEF120711F090E080E0892B09F4A5CFDF
:1054A000E0CF04EF1FEFDDCF0EEF1FEFDACF0FEFEE
:1054B0001FEFD7CF80915102909152028F3F9807F2
:1054C00049F0D0D2892B49F48FEF9FEF909352028D
:1054D0008093510290E080E0089584EF9FEF08955B
:1054E000CF92DF92EF92FF920F931F93CF93DF93B0
:1054F00021E04115510509F020E0415051092111E9
:105500002CC0DC01FB01D12CC12C21E022C03FEFDB
:10551000C31AD30A7D010D911D91E701EA80FB803A
:10552000E016F106A8F420813181E280F380F18257
:10553000E08233832283ED90FC9011979D012250ED
:105540003109E901F982E88211961C930E9320E05B
:105550003296C416D506D8F2D2CFDF91CF911F91E3
:105560000F91FF90EF90DF90CF900895FC01680FAE
:10557000791F90E080E0E617F70709F4089521917C
:10558000820F911DF8CF2091FC06211113C045DE3A
:10559000009791F4109202071092010710920007F1
:1055A0001092FF061092FE061092FD0621E0209355
:1055B000FC06089584EF9FEF0895AF92BF92CF92BB
:1055C000DF92EF92FF920F931F93CF93DF93009799
:1055D00009F460C04630510508F45CC02091FC0617
:1055E000C7EFDFEF222309F449C08C01060F171F14
:1055F000F801C080D180C114D10409F44EC09601D5
:105600002A5F3F4F4217530708F447C07C0180913F
:1056100001079091020793838283B6016C5F7F4FED
:105620005801A60EB71EC801A1DFF5019183808342
:1056300064E070E0C80118DEEC01892BF9F481E028
:1056400090E007DEB601C80104960EDEEC01892B5E
:1056500091F462E070E0C50107DEEC01892B59F49A
:10566000C701D9DB809101079091020701969093C1
:1056700002078093010790E080E0EBDDCE01DF912F
:10568000CF911F910F91FF90EF90DF90CF90BF903F
:10569000AF900895CFEFDFEFF1CFC9EFDFEFEECF9F
:1056A0006F927F928F929F92AF92BF92CF92DF9232
:1056B000EF92FF920F931F93CF93DF9300D01F922F
:1056C000CDB7DEB7009709F47AC04115510509F44A
:1056D00076C02091FC0607EF1FEF222309F44DC08E
:1056E0003A017B015C0164E070E0CE0101964FDE7F
:1056F0008C01892B09F041C009811A81011511051E
:1057000009F45AC0480186E0880E911CB701680D63
:10571000791D809153029091540209DD6C0100972C
:1057200009F450C0A70170E060E00E94ED39898162
:105730009A81AB81BC81EC0CFD1CF70181939193A4
:10574000A193B1937F0181E090E083DDB801C701AF
:105750001EDE892B31F562E070E0C701800F911FDA
:1057600016DE8C01892BE9F490E080E072DDF50112
:10577000D182C082F30191828082C8010F900F9084
:105780000F900F90DF91CF911F910F91FF90EF90AD
:10579000DF90CF90BF90AF909F908F907F906F9051
:1057A000089590E080E055DDF50111821082F3014B
:1057B00011821082C6012FDB09EF1FEFDECF0FEF42
:1057C0001FEFDBCF06EF1FEFD8CF0097A1F04115F9
:1057D000510589F02115310571F0F90136966E17E2
:1057E0007F0748F0DC012D933C93DA01ED93FC93A5
:1057F00090E080E008958FEF9FEF0895AF92BF9201
:10580000CF92DF92EF92FF920F931F93CF93DF938C
:10581000009709F45FC04115510509F45BC065307C
:10582000710508F457C02091FC06C7EFDFEF222373
:1058300091F1DC01CD90DC9011971296ED91FC91E5
:1058400096012A5F3F4FC9EFDFEF2617370719F59B
:10585000C091FD06D091FE06209749F521E030E089
:105860003093FE062093FD067A018C01F093000729
:10587000E093FF065601B4E0AB0EB11CB50176DE35
:105880000A0D1B1DF801208131818217930729F52C
:10589000D701CD92DC92CE01DF91CF911F910F9174
:1058A000FF90EF90DF90CF90BF90AF900895209140
:1058B000FF06309100072F5F3F4FCCEFDFEFE2177D
:1058C000F30790F2CBEFDFEF2E173F0768F2D0E03F
:1058D000C0E0CACFCFEFDFEFDECFC3EFDFEFDBCF2C
:1058E00084E090E0089582E090E008958CEF9FEFCF
:1058F000089580E290E00895109202071092010747
:10590000109200071092FF061092FE061092FD06FC
:1059100090E080E00895909354028093530208959C
:105920008091FC06882391F0C5DD009789F41092E0
:10593000020710920107109200071092FF061092C2
:10594000FE061092FD061092FC06089590E080E09D
:105950000895009749F06115710531F0FC0111823D
:105960001082FB01118210820895F3CF26E030E00F
:1059700040E855E260E070E090E080E000C08130F7
:10598000910571F01CF4892B39F00895823091054E
:1059900051F0039759F0089585E197E00C94CF36C4
:1059A00082EB97E0FBCF8FE498E0F8CF8CEE98E0A5
:1059B000F5CF1F920F920FB60F9211240BB60F92D4
:1059C0002F933F934F935F936F937F938F939F9307
:1059D000AF93BF93EF93FF938FE89DEF90932501D3
:1059E00080932401BFD0FF91EF91BF91AF919F9120
:1059F0008F917F916F915F914F913F912F910F9078
:105A00000BBE0F900FBE0F901F9018958FE89DEF63
:105A10009093250180932401A3E7B0E08C918E7FC1
:105A20008C93E0E2F1E080818C7F8083E1E2F1E021
:105A30008081877E808380818460808380818C7F69
:105A400080838C9181608C930895E3E7F0E08081FE
:105A500090819E7F90838170089581E008951092D7
:105A60000307089568EE73E080E090E093D690E03D
:105A700080E0089526E030E040E050E16EE070E024
:105A800090E080E07CDF85E197E00E940536892B7D
:105A900029F085E197E00E941F36F5CF90E080E085
:105AA0000895CF92DF92EF92FF920F931F93CF93BF
:105AB000DF936B017A01E9011982188285E197E091
:105AC0000E940536892B79F18601CC24C39482E0AB
:105AD000D82E80910307811111C085E197E00E94C3
