:1000000014C100000C94D0330C94FB330C942634B0
:100010000C9451340C947C340C94A7340C94D2344A
:100020000C94FD3433C1000031C100002FC1000029
:100030002DC100002BC1000029C1000027C1000014
:1000400025C1000023C1000021C100001FC1000024
:100050001DC100001BC1000019C100000C9428350F
:1000600015C100000C94FC380C9432390FC100000B
:100070000DC100000BC1000009C1000007C1000054
:1000800005C1000003C1000001C10000FFC0000065
:100090000C9488390C94BE39F9C00000F7C00000F8
:1000A000F5C00000F3C00000F1C00000EFC0000088
:1000B000EDC00000EBC00000E9C00000E7C0000098
:1000C000E5C00000E3C000000C949E2E0C94143A8E
:1000D0000C944A3ADBC000000C94A03A0C94D63A37
:1000E000D5C0000005A84CCDB2D44EB93836A9020F
:1000F0000C50B9918688083CA6AAAA2ABE00000026
:10010000803F00000A0B02090C0D0E0807030401D2
:1001100000000000000000000000000000000000DF
:1001200000000000000000000000000000001211AC
:1001300010000000000000000000000000000000AF
:10014000000000000000000001021020200808103C
:100150002040102040800201020108040201010237
:100160000408102040808040201008040201800410
:10017000020180402010080402010804020101026B
:10018000040810204080010204081020408005056A
:100190000505070508080808020202020A0A0808FD
:1001A000040404040101010101010101030303032B
:1001B00003030303040707070C0C0C0C0C0C0C0CBA
:1001C0000202020206060606060606060B0B0B0BCB
:1001D0000B0B0B0B000020002300260029002C0035
:1001E0002F00320000010000030106010901000098
:1001F0002200250028002B002E00310034000201CF
:100200000000050108010B01000021002400270067
:100210002A002D0030003300010100000401070115
:100220000A015B39E739733AFF3A11241FBECFEF59
:10023000D1E2DEBFCDBF00E00CBF13E0A0E0B2E032
:10024000E6E8F7E700E00BBF02C007900D92A23688
:10025000B107D9F72CE0A2E6B3E001C01D92AA3F96
:10026000B207E1F711E0C5E1D1E000E006C0219757
:100270000109802FFE010E94903BC131D10780E02F
:100280000807A9F70E94902F0C94C13BB9CEFC013E
:10029000A781B0858C9191858923A481B5819C919A
:1002A00040815181628173812681922359F08111AD
:1002B0000BC04F5F5F4F6F4F7F4F4083518362830F
:1002C000738308958111F5CF415051096109710976
:1002D000F4CF83E693E0DBCF8EE693E0D8CF89E7D7
:1002E00093E0D5CF84E893E0D2CFFC01A481B5811F
:1002F0008C9196818923A781B0859C914081518101
:10030000628173812185922359F0882359F04F5FD0
:100310005F4F6F4F7F4F4083518362837383089594
:100320008823A9F34150510961097109F4CF83E68B
:1003300093E0DBCF8EE693E0D8CF89E793E0D5CF8B
:1003400084E893E0D2CF0F931F93CF93DF93D82FFE
:10035000C62F8A01A09162038BE0A89FD0011124CF
:10036000AD59BC4F1D921D921D921C92139781E0B6
:100370001A968C931A978D2F90E0FC01E85BFE4F44
:10038000E4911696EC931697FC01E257FE4FE49128
:10039000F0E0EE0FFF1FEC52FE4F85919491159601
:1003A0009C938E931497862F90E0FC01E85BFE4FA0
:1003B000E4911996EC931997FC01E257FE4FE491F2
:1003C000F0E0EE0FFF1FEC52FE4F859194911896CE
:1003D0009C938E93179760E08D2F0E94693760E0A1
:1003E0008C2F0E94693780916203813009F43FC0ED
:1003F000A8F0823009F462C0833009F486C080918D
:10040000620391E0980F90936203F801808390E07B
:1004100080E0DF91CF911F910F91089580E0D2305D
:1004200049F081E0D33031F08EEE8D0F8430D8F476
:1004300087E18D1B41E050E069E671E00E94563390
:1004400080E0C23049F081E0C33031F08EEE8C0F95
:10045000843058F487E18C1B41E050E067E971E09B
:100460000E945633CCCF8FEFE5CF8FEFF5CF80E0F2
:10047000D23049F081E0D33031F08EEE8D0F8430F0
:10048000C8F487E18D1B41E050E06CE671E00E940A
:10049000563380E0C23049F081E0C33031F08EEE57
:1004A0008C0F843048F487E18C1B41E050E06AE90E
:1004B00071E0D6CF8FEFE7CF8FEFF7CF80E0D2306C
:1004C00049F081E0D33031F08EEE8D0F8430C8F4E6
:1004D00087E18D1B41E050E06FE671E00E945633EA
:1004E00080E0C23049F081E0C33031F08EEE8C0FF5
:1004F000843048F487E18C1B41E050E06DE971E005
:10050000AFCF8FEFE7CF8FEFF7CF80E0D23049F05A
:1005100081E0D33031F08EEE8D0F8430C8F487E166
:100520008D1B41E050E062E771E00E94563380E0AD
:10053000C23049F081E0C33031F08EEE8C0F843050
:1005400048F487E18C1B41E050E060EA71E088CF1D
:100550008FEFE7CF8FEFF7CF9BE0899FF00111245A
:10056000ED59FC4F80819181A281B381FB01808391
:100570009183A283B38390E080E008959BE0899FFC
:10058000F0011124ED59FC4F108211821282138266
:1005900090E080E0089590E080E00895CF92DF92AF
:1005A000EF92FF92CF93882351F16A017B01CFEF45
:1005B000C80F20E030E0A901CB01B6010E948630CF
:1005C00018168CF0C701B60190580E94FA309B01B2
:1005D000AC016C2F70E090E080E0CF91FF90EF9045
:1005E000DF90CF90B2C0C701B6010E94F5308C2FCA
:1005F000CF91FF90EF90DF90CF900C942F36CF915A
:10060000FF90EF90DF90CF9008950F931F938B0191
:100610009C0183E036952795179507958A95D1F724
:1006200001571C4F462F477021E030E0F90102C00E
:10063000EE0FFF1F4A95E2F7AF01F8012081242356
:10064000CB010196211102C090E080E01F910F9133
:1006500008950F931F938B019C0183E03695279596
:10066000179507958A95D1F7677081E090E001C0F2
:10067000880F6A95EAF7F801E157FC4F2081452B76
:1006800031F48095822380831F910F910895822BEE
:10069000FACF2F923F924F925F926F927F928F92FA
:1006A0009F92AF92BF92CF92DF92EF92FF920F9301
:1006B0001F93CF93DF93D62EC72E782E692E490134
:1006C0005A01280161E08D2D0E946937CD2DDC2D66
:1006D0008E010F5F1F4FA8016D2D7C2D872D962D4C
:1006E000B8DF20E030E0A901C201B7010E94B232B8
:1006F000181664F4C201B7010E94FA302B01C5013B
:10070000B4010E94FA30A201CE0123D0C801DF91CA
:10071000CF911F910F91FF90EF90DF90CF90BF90FE
:10072000AF909F908F907F906F905F904F903F9091
:100730002F900895882341F08150682F70E090E059
:1007400080E050E040E085CF0895862FB9010C94F9
:100750002F369C01FC01EE5FFE4FE491E150E23147
:10076000E0F4F0E08827E854FC4F8F4F0C94903B66
:10077000CA03D103D403EB030004CD031504210401
:1007800025043C04510466047D049204CD03A704AF
:10079000BE04D30484B5806884BD60E0822F0C94CD
:1007A000A53784B58062F8CF809180008C7F82600D
:1007B0008093800080918100807E8061682B6093AF
:1007C000810050938700409386008091800080686C
:1007D00080938000E2CF809180008C7F8260809344
:1007E000800080918100807E8061682B6093810011
:1007F0005093870040938600809180008062E8CF0C
:10080000809180008C7F8260809380008091810045
:10081000807E8061682B60938100509387004093B5
:100820008600809180008860D3CF8091B00080687E
:100830008093B0008091B100887F682B6093B100F5
:10084000ACCF8091B0008062F3CF809190008C7F1C
:1008500082608093900080919100807E8061682BFF
:100860006093910050939700409396008091900080
:1008700080688093900091CF809190008C7F8260FF
:100880008093900080919100807E8061682B6093BE
:100890009100509397004093960080919000806261
:1008A000E8CF809190008C7F82608093900080914F
:1008B0009100807E8061682B609391005093970037
:1008C00040939600809190008860D3CF8091A000E3
:1008D0008C7F82608093A0008091A100807E8061E7
:1008E000682B6093A1005093A7004093A6008091CD
:1008F000A00080688093A00050CF8091A0008C7FE2
:1009000082608093A0008091A100807E8061682B2E
:100910006093A1005093A7004093A6008091A0008F
:100920008062E8CF8091A0008C7F82608093A000DD
:100930008091A100807E8061682B6093A10050931C
:10094000A7004093A6008091A0008860D3CF80913B
:1009500020018C7F82608093200180912101807E24
:100960008061682B609321015093270140932601F9
:10097000809120018068809320010FCF8091200119
:100980008C7F82608093200180912101807E806134
:10099000682B609321015093270140932601809199
:1009A00020018062E8CF809120018C7F826080935B
:1009B000200180912101807E8061682B609321015C
:1009C0005093270140932601809120018860D3CF66
:1009D000611102C00C9469376130E1F362E0FACF33
:1009E000662319F061E00C94A53760E0FCCF90E03D
:1009F00080E008950F931F93009709F489C0611553
:100A0000710509F485C0009184021091850220913E
:100A10008602309187020E3F1F4F2F4F3F4F09F044
:100A200068C04FEF5FEFBA01409384025093850294
:100A300060938602709387024091840250918502F0
:100A40006091860270918702DC011296ED91FC9113
:100A500080819181A281B38180939E0490939F04B1
:100A6000A093A004B093A10484819581A681B7814D
:100A700080939A0490939B04A0939C04B0939D044C
:100A800080859185A285B385809396049093970481
:100A9000A0939804B093990484859585A685B7851D
:100AA0008093920490939304A0939404B09395043C
:100AB00010928E0410928F04109290041092910460
:100AC0000E94821287EA92E190939903809398039F
:100AD00090939B0380939A030E947111009731F4C5
:100AE00021E030E03093A3042093A2041F910F91E2
:100AF0000895009184021091850220918602309120
:100B00008702DB010D931D932D933C93139794CF94
:100B10008FEF9FEFEBCF8F929F92AF92BF92CF92CA
:100B2000DF92EF92FF921F93CF93DF934B015C0113
:100B30001091A50482E090E09093A3048093A20416
:100B400081149104A104B10441F48091A5048111A0
:100B500004C08091A404C1E08111C0E0C12CD12C5B
:100B600076018091A504811106C08091A4048111B1
:100B700002C0CC23D9F083E090E09093A30480934B
:100B8000A204CC2381F1CCE9DFEF111102C00E9455
:100B90000C16CE01DF91CF911F91FF90EF90DF9067
:100BA000CF90BF90AF909F908F9008956AE070E0D3
:100BB00080E090E00E94973580E1C80E87E2D81E61
:100BC000E11CF11C8FEF88169806A806B80631F0D4
:100BD000C1E08C149D04AE04BF0408F0C0E080E0C6
:100BE0000E94A511BECFD0E0C0E0CFCFCF92DF9260
:100BF000EF92FF920F931F93CF93DF938F3F910557
:100C000011F008F051C02091A2043091A3042330C8
:100C1000310539F02091A2043091A304213031052F
:100C200031F424E030E03093A3042093A2046A015D
:100C30007B01EC0182309105A8F011E0AE01C70103
:100C4000B6010E947011AB01BC01CE011123F9F075
:100C5000DF91CF911F910F91FF90EF90DF90CF9098
:100C60000C9435188C01000F111F08561C4FD80129
:100C70008D919C91892B09F30E943F180297E9F608
:100C8000D801ED91FC91CE011995182FD7CF0E9474
:100C9000571890E080E0DF91CF911F910F91FF9066
:100CA000EF90DF90CF9008958FEF9FEFF4CF80E02B
:100CB0000C94A511CF93DF9386E090E09093A3046A
:100CC0008093A2040E94FE11EC01E8E9F3E084E0C5
:100CD000DF011D928A95E9F70E94A4151092A304E2
:100CE0001092A204CE01DF91CF9108958091A404C7
:100CF000089580918D040895609384027093850215
:100D0000809386029093870290E080E008952F926E
:100D10003F924F925F926F927F928F929F92AF928B
:100D2000BF92CF92DF92EF92FF920F931F93CF93D8
:100D3000DF93CDB7DEB7A2970FB6F894DEBF0FBE34
:100D4000CDBF8090400290904102A0904202B090AE
:100D500043028092000C9092010CA092020CB0927F
:100D6000030CC0904402D0904502E0904602F090FF
:100D70004702C092040CD092050CE092060CF0924F
:100D8000070C209130023091310240913202509193
:100D90003302C501B4010E94B6322B013C012091FF
:100DA00038023091390240913A0250913B02C7011A
:100DB000B6010E94B6329B01AC01C301B2010E9490
:100DC00022302B013C014092080C5092090C609299
:100DD0000A0C70920B0C2091340230913502409134
:100DE000360250913702C501B4010E94B6324B0160
:100DF0005C0120913C0230913D0240913E025091B5
:100E00003F02C701B6010E94B6329B01AC01C50189
:100E1000B4010E9422304B015C0180920C0C909234
:100E20000D0CA0920E0CB0920F0C2091C00C3091C2
:100E3000C10C4091C20C5091C30CC301B2010E947D
:100E400021306B017C01C092100CD092110CE09209
:100E5000120CF092130C2091C40C3091C50C4091EF
:100E6000C60C5091C70CC501B4010E9421304B0142
:100E70005C018092140C9092150CA092160CB0920A
:100E8000170C209118023091190240911A025091CA
:100E90001B02C701B6010E94B6322091AC0C309102
:100EA000AD0C4091AE0C5091AF0C0E9422306B0102
:100EB0007C01C092180CD092190CE0921A0CF0929E
:100EC0001B0C4090200250902102609022027090F2
:100ED0002302A30192010E94B23218164CF44092F0
:100EE000180C5092190C60921A0C70921B0C10C0C6
:100EF0004090100250901102609012027090130204
:100F0000A3019201C701B6010E94863087FDE7CF99
:100F100020911C0230911D0240911E0250911F022F
:100F2000C501B4010E94B6322091B00C3091B10CD1
:100F30004091B20C5091B30C0E9422306B017C01A5
:100F4000C0921C0CD0921D0CE0921E0CF0921F0C53
:100F50008090240290902502A0902602B090270253
:100F6000A50194010E94B23218164CF480921C0C18
:100F700090921D0CA0921E0CB0921F0C10C080907D
:100F8000140290901502A0901602B0901702A501CD
:100F90009401C701B6010E94863087FDE7CF6091BA
:100FA000180C7091190C80911A0C90911B0C609385
:100FB000200C7093210C8093220C9093230C0091B1
:100FC0001C0C10911D0C20911E0C30911F0C0093D5
:100FD000240C1093250C2093260C3093270C0E9490
:100FE00063316B017C010E946D1081116FC4C701D8
:100FF000B6010E942810811169C420E030E040E869
:1010000057E4C701B6010E947D316B017C0120E0ED
:1010100030E0A9010E94863087FF5BC4C701B6019A
:1010200090580E94FA3000271127061B170B609179
:10103000240C7091250C8091260C9091270C0E9415
:1010400063316B017C010E946D10811148C4C7019E
:10105000B601FED7811143C420E030E040E857E4F8
:10106000C701B6010E947D316B017C0120E030E0B8
:10107000A9010E94863087FF35C4C701B601905888
:101080000E94FA3022273327261B370B3A83298305
:101090006CE070E080E090E0B8DA7C0190939B0C0B
:1010A00080939A0C609174027091750289819A8183
:1010B0006817790744F0609176027091770268179B
:1010C00079070CF4BC0177FF02C070E060E06F3F6D
:1010D000710519F014F06FEF70E0072E000C880B0B
:1010E000990B0E942831AB01BC01C70157DA69E0B6
:1010F00070E080E090E089DA7C019093930C80931B
:10110000920C60917802709179026017710744F037
:1011100060917A0270917B02601771070CF4B8013C
:1011200077FF03C07195619571096F3F710519F0E3
:1011300014F06FEF70E0072E000C880B990B0E94E3
:101140002831AB01BC01C70129DA6BE070E080E017
:1011500090E05BDA7C0190938B0C80938A0C609119
:101160007C0270917D02A981BA816A177B0744F0E5
:1011700060917E0270917F026A177B070CF4BD01BB
:1011800077FF03C07195619571096F3F710519F083
:1011900014F06FEF70E0072E000C880B990B0E9483
:1011A0002831AB01BC01C701F9D96AE070E080E0E9
:1011B00090E02BDA7C019093830C8093820C6091F9
:1011C0008002709181026017710744F06091820281
:1011D00070918302601771070CF4B80177FF02C0A9
:1011E00070E060E06F3F710519F014F06FEF70E090
:1011F000072E000C880B990B0E942831AB01BC0113
:10120000C701CCD961E08091700290917102801782
:10121000910709F460E088E0E3DB61E0809172020D
:1012200090917302E981FA818E179F0709F460E0BB
:101230008DE0D6DB2091140C3091150C4091160CEA
:101240005091170C6091000270910102809102028E
:10125000909103020E94B6326B8F7C8F8D8F9E8F90
:101260002091100C3091110C4091120C5091130CE4
:10127000609104027091050280910602909107022C
:101280000E94B6326F8F78A389A39AA38091B40C81
:101290009091B50CA091B60CB091B70C8093280C2E
:1012A0009093290CA0932A0CB0932B0C8091B80C2E
:1012B0009091B90CA091BA0CB091BB0C80932C0CFE
:1012C00090932D0CA0932E0CB0932F0C8091BC0CFE
:1012D0009091BD0CA091BE0CB091BF0C8093300CCE
:1012E0009093310CA093320CB093330CC090280231
:1012F000D0902902E0902A02F0902B02A7019601DB
:101300006091770C7091780C8091790C90917A0CA7
:101310000E948630882341F0C092770CD092780CDE
:10132000E092790CF0927A0C8091760C81111092F7
:10133000760C60E67CE080917B0C0ED9C0902C028C
:10134000D0902D02E0902E02F0902F02A70196017E
:1013500060916B0C70916C0C80916D0C90916E0C87
:101360000E948630882341F0C0926B0CD0926C0CA6
:10137000E0926D0CF0926E0C80916A0C81111092CB
:101380006A0C6CE57CE080916F0CE6D860916C0291
:1013900070916D0280916E0290916F020E942831CF
:1013A00020E030E040E05AE20E94B6326B017C015E
:1013B0004090600C5090610C6090620C7090630CD7
:1013C000C301B2010E942831A70196010E94B632E2
:1013D00069877A878B879C876093340C7093350C70
:1013E0008093360C9093370C80915C0C90915D0C3F
:1013F000A0915E0CB0915F0C898B9A8BAB8BBC8BF0
:10140000BC01CD010E942831A70196010E94B6328D
:101410006D877E878F87988B6093380C7093390C1B
:1014200080933A0C90933B0CA0916704B0916804B0
:10143000BE8BAD8BCD90DD90ED90FC902090C80CD4
:101440001091C90C0091CA0C3090CB0CA7019601E9
:10145000622D712F802F932D0E94B23287FD49C2D9
:10146000A70196016091D40C7091D50C8091D60C97
:101470009091D70C0E94B23287FD3BC210923C0C77
:1014800010923D0C10923E0C10923F0C1092400CAA
:101490001092410C1092420C1092430C80913C0C23
:1014A00090913D0CA0913E0CB0913F0C89839A83A2
:1014B000AB83BC838091400C9091410CA091420C75
:1014C000B091430C8D839E83AF83B88720915402E3
:1014D00030915502409156025091570269817A81AC
:1014E0008B819C810E94B6326B017C0120915C0251
:1014F00030915D0240915E0250915F026D817E816C
:101500008F8198850E94B6329B01AC01C701B6015C
:101510000E9422306B017C01C092440CD092450C99
:10152000E092460CF092470C2091580230915902FB
:1015300040915A0250915B0269817A818B819C8132
:101540000E94B6324B015C01209160023091610231
:1015500040916202509163026D817E818F819885F6
:101560000E94B6329B01AC01C501B4010E94223039
:101570006F8B788F898F9A8F6093480C7093490C8A
:1015800080934A0C90934B0C4092540C5092550C03
:101590006092560C7092570C89899A89AB89BC89E4
:1015A0008093580C9093590CA0935A0CB0935B0CF9
:1015B0008090300C9090310CA090320CB090330C95
:1015C000C501B4010E948A309B01AC01C701B6017C
:1015D0000E94B6322B013C0140924C0C50924D0CB3
:1015E00060924E0C70924F0CC501B4010E941933E9
:1015F0009B01AC01C701B6010E94B6324B015C01F0
:101600008092500C9092510CA092520CB092530CBC
:1016100089819A81AB81BC818093C00C9093C10C6D
:10162000A093C20CB093C30C8D819E81AF81B8850D
:101630008093C40C9093C50CA093C60CB093C70CB8
:1016400020914C0230914D0240914E0250914F0238
:101650006F8D78A189A19AA10E94B6322091AC0C1D
:101660003091AD0C4091AE0C5091AF0C0E942230E5
:101670006093AC0C7093AD0C8093AE0C9093AF0C58
:1016800020915002309151024091520250915302E8
:101690006B8D7C8D8D8D9E8D0E94B6322091B00C0D
:1016A0003091B10C4091B20C5091B30C0E94223099
:1016B0006093B00C7093B10C8093B20C9093B30C08
:1016C0008091B80C9091B90CA091BA0CB091BB0C60
:1016D00089839A83AB83BC838091BC0C9091BD0CB1
:1016E000A091BE0CB091BF0C8D839E83AF83B88751
:1016F000C0906402D0906502E0906602F0906702AC
:10170000A7019601C301B2010E94B6329B01AC0150
:101710006091B40C7091B50C8091B60C9091B70C9F
:101720000E9422306093B40C7093B50C8093B60C79
:101730009093B70CA7019601C501B4010E94B6327F
:1017400029813A814B815C810E9422306093B80CE0
:101750007093B90C8093BA0C9093BB0CA7019601BF
:101760006F89788D898D9A8D0E94B6322D813E8148
:101770004F8158850E9422306093BC0C7093BD0C41
:101780008093BE0C9093BF0C4090E80C5090E90CF5
:101790006090EA0C7090EB0CA3019201622D712F06
:1017A000802F932D0E948630AD89BE89CD90DD902B
:1017B000ED90FC90811115C1C092C80CD092C90C5B
:1017C000E092CA0CF092CB0CECECFCE089859A8597
:1017D000AB85BC8580839183A283B3838D859E85F1
:1017E000AF85B88984839583A683B78340915404D9
:1017F00050915504609156047091570490E080E038
:10180000F5D940915C0450915D0460915E04709143
:101810005F0481E090E0EAD960915404709155042E
:1018200080915604909157046F5F7F4F8F4F9F4F69
:101830006093540470935504809356049093570416
:10184000A0916704B0916804BA83A9830E942631ED
:101850009B01AC01609158047091590480915A0425
:1018600090915B040E94B632E981FA8160837183B2
:101870008283938380915C0490915D04A0915E04C7
:10188000B0915F040196A11DB11D80935C049093FB
:101890005D04A0935E04B0935F04A2960FB6F89423
:1018A000DEBF0FBECDBFDF91CF911F910F91FF9093
:1018B000EF90DF90CF90BF90AF909F908F907F90F0
:1018C0006F905F904F903F902F900895C12CD12C36
:1018D0007601C701B6010E94FA308B01A8CBC12C5A
:1018E000D12C7601C701B6010E94FA307A83698350
:1018F000CFCB8090D40C9090D50CA090D60CB0900B
:10190000D70C9401A501622D712F802F932D0E9479
:101910008630A701960187FF49C0B401C5010E9426
:10192000863087FD54C0822C912EA02EB32CECEC77
:10193000FCE0FA83E9839401A501C701B6010E9486
:1019400021306B017C01E981FA8120813181428162
:10195000538169857A858B859C850E942130A701FA
:1019600096010E948D3060933C0C70933D0C8093E7
:101970003E0C90933F0CA981BA8114962D913D9114
:101980004D915C9117976D857E858F8598890E9412
:101990002130A70196010E948D306093400C709316
:1019A000410C8093420C9093430C78CD622D712FA3
:1019B000802F932D0E94B23287FF0EC0822C912E71
:1019C000A02EB32C2CEC3CE03A832983B4CF88EDD5
:1019D0009CE09A838983AFCFA8EDBCE0BA83A9834A
:1019E000AACF8090D40C9090D50CA090D60CB0903B
:1019F000D70CA5019401C301B2010E948630811168
:101A00000BC0C092D40CD092D50CE092D60CF092C0
:101A1000D70CE8EDFCE0DACEA5019401622D712F20
:101A2000802F932D0E94863087FFEBCFC5CE4F923B
:101A30005F926F927F92AF92BF92DF92EF92FF928E
:101A40000F931F93CF93DF9384E090E0CAD2EAEB29
:101A5000F3E084E694E097838683C7E6D4E0D093EE
:101A6000FB03C093FA0308E514E0158B048BF09395
:101A70002504E0932404F583E48321E030E0DC01D5
:101A80002D933C938DEB92E09387828729E634E097
:101A90003983288340E050E060E271E440936004C1
:101AA0005093610460936204709363044AE057EDBD
:101AB00063E27CE3D8014D935D936D937C93139720
:101AC000C2E4D4E083E792ECAAECB0EF8883998378
:101AD000AA83BB8380EC90E5AEEBB0E7809346042D
:101AE00090934704A0934804B09349048AEE92E08F
:101AF000A9E5B9EE80934A0490934B04A0934C045B
:101B0000B0934D0489EB92ECABE0BBE180934E04C3
:101B100090934F04A0935004B0935104AEEAB3E005
:101B2000B383A283ECE9F3E01196FC93EE938FEC80
:101B300092E09183808393838283958384839783C8
:101B40008683918780879387828795878487978705
:101B50008687918B808B82E594E015969C938E937B
:101B600014971396DC93CE93129717963C932E936B
:101B7000169780E0A82E82E0B82E809148029091BE
:101B80004902A0914A02B0914B02C4E6DCE0809386
:101B9000C00C9093C10CA093C20CB093C30C809363
:101BA000C40C9093C50CA093C60CB093C70CF50160
:101BB00080859185A285B3858093AC0C9093AD0C04
:101BC000A093AE0CB093AF0C84859585A685B785A0
:101BD0008093B00C9093B10CA093B20CB093B30C63
:101BE0008091680290916902A0916A02B0916B02A3
:101BF0008093B40C9093B50CA093B60CB093B70C33
:101C00008093B80C9093B90CA093BA0CB093BB0C12
:101C10008093BC0C9093BD0CA093BE0CB093BF0CF2
:101C20008091E80C9091E90CA091EA0CB091EB0C3A
:101C30008093C80C9093C90CA093CA0CB093CB0CA2
:101C40008093D40C9093D50CA093D60CB093D70C62
:101C500018AA412C512C3201439449AA5AAA6BAAC2
:101C60007CAAE12CF12C8701A80197016CE070E0BF
:101C700080E090E00E9449039FAB8EABDD24D394BB
:101C8000DDAA18A649A65AA66BA67CA6A8019701AC
:101C900069E070E080E090E00E9449039FA78EA772
:101CA000DDA618A249A25AA26BA27CA2A8019701A4
:101CB0006BE070E080E090E00E9449039FA38EA358
:101CC000DDA2188E498E5A8E6B8E7C8EA8019701EC
:101CD0006AE070E080E090E00E9449039F8F8E8F61
:101CE000DD8E1092A40C4092A50C5092A60C60922E
:101CF000A70C7092A80C61E088E00E94E804D092E2
:101D0000A90C18AE49AE5AAE6BAE7CAE61E08DE068
:101D10000E94E804DDAE1F8A1C86F50180A591A50E
:101D2000A2A5B3A58B8B9C8BAD8BBE8B4D865E869F
:101D30006F86788A4BE75CE063E182E10E94A30151
:101D4000D98A1A8A8F890E94BE021B861882F501E1
:101D500084A595A5A6A5B7A58F839887A987BA87D7
:101D600049825A826B827C824FE65CE063E082E0CB
:101D70000E94A301DD821E828B85DF91CF911F918E
:101D80000F91FF90EF90DF90BF90AF907F906F909A
:101D90005F904F900C94BE028091940C81112EC0E4
:101DA00081E08093940C8091950C9091960CA09179
:101DB000970CB091980C0197A105B105F9F48091A9
:101DC000990C8823D9F06CE070E080E090E00E94EC
:101DD000050390939B0C80939A0C40E050E0BA016D
:101DE0000E94CE026CE070E080E090E00E9405036B
:101DF00090939B0C80939A0C0E949A0380918C0C78
:101E000081112EC081E080938C0C80918D0C90917B
:101E10008E0CA0918F0CB091900C0197A105B1058B
:101E2000F9F48091910C8823D9F069E070E080E0AA
:101E300090E00E9405039093930C8093920C40E0F5
:101E400050E0BA010E94CE0269E070E080E090E0CC
:101E50000E9405039093930C8093920C0E949A0326
:101E60008091840C81112EC081E08093840C80913C
:101E7000850C9091860CA091870CB091880C0197ED
:101E8000A105B105F9F48091890C8823D9F06BE0A4
:101E900070E080E090E00E94050390938B0C8093AB
:101EA0008A0C40E050E0BA010E94CE026BE070E084
:101EB00080E090E00E94050390938B0C80938A0C45
:101EC0000E949A0380917C0C81112EC081E0809346
:101ED0007C0C80917D0C90917E0CA0917F0CB09138
:101EE000800C0197A105B105F9F48091810C88233C
:101EF000D9F06AE070E080E090E00E9405039093E2
:101F0000830C8093820C40E050E0BA010E94CE0224
:101F10006AE070E080E090E00E9405039093830CFB
:101F20008093820C0E949A038091A40C811103C0BB
:101F300081E08093A40C80919C0C811103C081E00E
:101F400080939C0C8091700C811114C081E080936F
:101F5000700C8091710C9091720CA091730CB091E7
:101F6000740C0197A105B10529F48091750C8111BC
:101F70000E94CB028091640C811114C081E0809397
:101F8000640C8091650C9091660CA091670CB091E7
:101F9000680C0197A105B10529F48091690C8111A4
:101FA0000C94CB02089560E070E080E89FE708950C
:101FB00060E070E080E89FE7089560E070E080E80E
:101FC0009FEF089560E070E080E89FEF089560E083
:101FD00070E080EC9FEF089560E070E080EC9FEF90
:101FE0000895F5DF6093EC0C7093ED0C8093EE0C8C
:101FF0009093EF0CF1DF6093E00C7093E10C809311
:10200000E20C9093E30CCFDF6093E80C7093E90C43
:102010008093EA0C9093EB0CCBDF6093E40C70930D
:10202000E50C8093E60C9093E70CC7DF6093F00C0F
:102030007093F10C8093F20C9093F30CC3DF6093D8
:10204000F40C7093F50C8093F60C9093F70C0895B4
:10205000CF92DF92EF92FF92CF936B017C01AC01A4
:102060009B016091E80C7091E90C8091EA0C9091D1
:10207000EB0C0E948630C1E0882371F0A701960125
:102080006091F00C7091F10C8091F20C9091F30C36
:102090000E9486308111C0E08C2FCF91FF90EF908D
:1020A000DF90CF9008950F931F938B019C01002721
:1020B000112720783F770115110520483F4749F443
:1020C000AB01BC016F77772781E0452B462B472B6F
:1020D00009F480E01F910F910895E5CF4F925F9230
:1020E0006F927F928F929F92AF92BF92CF92DF9228
:1020F000EF92FF920F931F93F89440907D045090BD
:102100007E0460907F0470908004C0907104D09031
:102110007204E0907304F09074044130510509F0AA
:10212000A4C09B01AC0124193509460957092901AE
:102130003A010091790410917A0420917B04309146
:102140007C0448015901840C951CA61CB71C801600
:102150009106A206B306A0F40091750410917604CE
:1021600020917704309178040F5F1F4F2F4F3F4F1E
:1021700000937504109376042093770430937804C9
:102180008092790490927A04A0927B04B0927C04AD
:1021900000917504109176042091770430917804B1
:1021A0008092810490928204A0928304B09284046D
:1021B0000093850410938604209387043093880449
:1021C00060937D0470937E0480937F0490938004D9
:1021D000A0E1B7E2A30192010E94983B6C0D7D1D26
:1021E0008E1D9F1D6093710470937204809373041D
:1021F00090937404009184021091850220918602CC
:10220000309187020F3F1F4F2F4F3F4FF1F000914A
:1022100084021091850220918602309187020E3F40
:102220001F4F2F4F3F4F89F0C0908402D0908502FE
:10223000E0908602F090870221E08C149D04AE04A9
:10224000BF0408F420E020938D0478941F910F912F
:10225000FF90EF90DF90CF90BF90AF909F908F90C6
:102260007F906F905F904F9008954B015C018418B0
:102270009508A608B708A3019201261B370B480B47
:10228000590B6415750586059705D0F082169306DF
:10229000A406B50640F420E030E0A90181149104C1
:1022A000A104B10491F4A0E1B7E20E94983BA70118
:1022B0009601261B370B480B590BCA01B901C5CF34
:1022C00082169306A406B50670F7A0E1B7E2A50151
:1022D00094010E94983B6C0D7D1D8E1D9F1DB5CFF6
:1022E000FDCECF93DF9300D01F92CDB7DEB71C8217
:1022F0001B821A8219821092890410928A04109209
:102300008B0410928C04BE016F5F7F4FCE01039649
:102310000E946E2E69817A818B819C810E945C274C
:10232000009761F4BE016F5F7F4FCE0103960E945C
:102330007A2E69817A818B819C812FD50F900F90A5
:102340000F900F90DF91CF910895FF920F931F93FD
:10235000CF93DF93082F60E070E0CB010E949735A8
:10236000FF24F3940E944526EC01892B89F010E0AC
:10237000CE3F8FEFD80769F0002361F160E070E095
:10238000CB010E94973581E090E0892B59F322C060
:1023900011E026D5EC01892B21F0CE3F8FEFD80735
:1023A00059F711111EC011E0229609F410E00E94A5
:1023B000F525EC01892B21F0CE3F8FEFD807E1F610
:1023C000111111C011E0CE3F8FEFD80709F410E0D2
:1023D00001110BC0CE01DF91CF911F910F91FF90A2
:1023E000089511E0E4CF11E0F3CF60E070E0CB019D
:1023F0000E9497351F25812F90E0C7CFCF93DF93A1
:1024000080918D04882321F060E070E0CB014DD6EF
:1024100036D6D0E0C0E0892B71F06AE070E080E051
:1024200090E00E94973581E090DF29D62196C03D4B
:1024300027E0D20781F728D60E94B0271092A50482
:102440001092A40410929E0410929F041092A00473
:102450001092A10410929A0410929B0410929C0472
:1024600010929D0410929604109297041092980472
:102470001092990410929204109293041092940472
:102480001092950410928E0410928F041092900472
:10249000109291044EEF5FEF6FEF7FEF4093840255
:1024A00050938502609386027093870210928D0488
:1024B000E1E8F4E028E0DF011D922A95E9F71092A7
:1024C0007D0410927E0410927F041092800410927A
:1024D000790410927A0410927B0410927C0410927A
:1024E000750410927604109277041092780410927A
:1024F0007104109272041092730410927404DF91AC
:10250000CF9108951092B1041092B2041092B304C6
:102510001092B4041092B0048091B9049091BA045E
:102520009093AF048093AE041092AD041092AC046B
:102530001092A8041092A9041092AA041092AB045D
:102540001092B6041092B50490E080E00895CF9206
:10255000DF92EF92FF920F931F93CF938C0101971D
:1025600009F055C02091B9043091BA048091AE04AD
:102570009091AF044091B9045091BA045093AF04C4
:102580004093AE042817390781F01092AD041092E1
:10259000AC041092A8041092A9041092AA041092FC
:1025A000AB041092B6041092B5048091B9049091D6
:1025B000BA04019761F58091B5049091B604892B16
:1025C00021F480918802811112C08091B50490910C
:1025D000B6040197E1F48091A8049091A904A09118
:1025E000AA04B091AB040197A105B10581F4109242
:1025F000A8041092A9041092AA041092AB0410929D
:10260000880282E090E09093B6048093B5048091B4
:10261000B9049091BA04019709F01CC18091CF04CC
:102620009091D0048017910709F014C18091CB04D8
:102630009091CC04A091CD04B091CE04009709F400
:1026400009C12091CA0421110DC04091CB045091C1
:10265000CC046091CD047091CE04452B462B472BC2
:1026600009F4F8C02091B5043091B6042230310548
:1026700009F0F0C02091AC042111ECC0FC01C08035
:10268000D180E280F3808091B004882309F4D3C024
:102690008091BC049091BD04892B09F4FEC0209167
:1026A000BC043091BD0481E02230310509F080E0A6
:1026B0002091BC043091BD04C1E02130310549F0C6
:1026C0002091BC043091BD04C1E02230310509F0F5
:1026D000C0E0882309F456C02091C6043091C70495
:1026E0004091C8045091C904C701B6010E94B2329A
:1026F00087FD14C02091C6043091C7044091C804DE
:102700005091C9046091B1047091B2048091B304F6
:102710009091B4040E94863087FD22C02091C604A7
:102720003091C7044091C8045091C904C701B60153
:102730000E94B232181634F52091C6043091C704B5
:102740004091C8045091C9046091B1047091B204E1
:102750008091B3049091B4040E948630811112C01C
:102760008091BE049091BF04A091C004B091C104B7
:10277000892B8A2B8B2B19F481E08093AD0481E0A7
:102780008093AC04CC2309F456C02091C604309148
:10279000C7044091C8045091C904C701B6010E9402
:1027A000863087FF14C02091C6043091C704409141
:1027B000C8045091C9046091B1047091B204809131
:1027C000B3049091B4040E94B23287FF22C02091DA
:1027D000C6043091C7044091C8045091C904C70190
:1027E000B6010E948630811126C02091C604309126
:1027F000C7044091C8045091C9046091B10470911C
:10280000B2048091B3049091B4040E94B2321816BD
:1028100094F48091BE049091BF04A091C004B09143
:10282000C104892B8A2B8B2B19F481E08093AD0492
:1028300081E08093AC0481E09091AC04911180E040
:102840008093B004C092B104D092B204E092B30479
:10285000F092B4040130110509F067C18091B5040C
:102860009091B604892BD9F41092BB041092AC0459
:1028700080918802882379F082E090E09093B604FA
:102880008093B504109288022091B9043091BA0463
:1028900081E0232BE9F080E01BC081E009CF10929A
:1028A00088028091BB04882349F01092AD041092F5
:1028B000B6041092B5041092BB04EDCF8091B90418
:1028C0009091BA04892BE1F08091AC041092AC0491
:1028D0002091B5043091B6042230310509F45EC070
:1028E00088F42115310509F448C02130310509F477
:1028F000F3C01092AD041092AC041092BB0438C027
:1029000081E0E6CF2330310509F4B1C02430310530
:1029100081F74091A8045091A9046091AA04709194
:10292000AB04411551056105710561F04150510934
:10293000610971094093A8045093A9046093AA0403
:102940007093AB044091A8045091A9046091AA042B
:102950007091AB04452B462B472BD9F42091B7043B
:102960003091B8042130310509F046C01092AD0411
:102970001092B6041092B5040CC08091880288238E
:1029800041F082E090E09093B6048093B5041092F9
:1029900088021092A6048091AD04CEC08823C9F3AA
:1029A0008091BE049091BF04A091C004B091C10475
:1029B000181619061A061B060CF07DC08091B90482
:1029C0009091BA04019709F076C08091BE0490916D
:1029D000BF04A091C004B091C1048093A804909357
:1029E000A904A093AA04B093AB0483E090E0909371
:1029F000B6048093B504CDCF4091C2045091C30476
:102A00006091C4047091C504452B462B472BA9F057
:102A10001092AD048091C2049091C304A091C404AB
:102A2000B091C5048093A8049093A904A093AA042C
:102A3000B093AB0481E090E0DACF882399F08091E5
:102A4000890290918A02A0918B02B0918C028093AE
:102A5000A8049093A904A093AA04B093AB0484E0C3
:102A600090E0C5CF1092AD0482E090E0C0CF80919D
:102A7000A8049091A904A091AA04B091AB04009776
:102A8000A105B10559F00197A109B1098093A804E6
:102A90009093A904A093AA04B093AB048091A804D6
:102AA0009091A904A091AA04B091AB04892B8A2B20
:102AB0008B2B09F06ECF8091890290918A02A091B0
:102AC0008B02B0918C02892B8A2B8B2B09F44ECF71
:102AD00081E08093AD04B3CF4091A8045091A90444
:102AE0006091AA047091AB0441155105610571050F
:102AF00061F041505109610971094093A804509354
:102B0000A9046093AA047093AB044091A804509167
:102B1000A9046091AA047091AB04452B462B472B66
:102B200009F037CF8111C7CF9FCF8091A6048823AA
:102B300009F431CF8091A704CF911F910F91FF909D
:102B4000EF90DF90CF9008951092B1041092B204EC
:102B50001092B3041092B4041092B0041092B60410
:102B60001092B5041092AF041092AE041092D004EB
:102B70001092CF041092AD041092AC041092A804ED
:102B80001092A9041092AA041092AB041092A70408
:102B90001092A6041092CB041092CC041092CD0493
:102BA0001092CE041092CA041092C6041092C70468
:102BB0001092C8041092C90488EE93E0A0E0B0E03F
:102BC0008093890290938A02A0938B02B0938C0227
:102BD0001092C2041092C3041092C4041092C5044F
:102BE0001092BE041092BF041092C0041092C1044F
:102BF0001092BD041092BC0481E080938802109270
:102C0000BB041092BA041092B9041092B804109246
:102C1000B70490E080E008958091B9049091BA04DF
:102C2000892B19F580918802882351F08091BB048B
:102C3000811106C081E08093A7048093A6040895C3
:102C40002091BB043091880281E090E0332311F0A1
:102C500090E080E030E082239323892B21F01092D2
:102C6000A70481E0EACF1092A604089582E090E0E4
:102C7000FA01918380838FEF9FEF0895CF93DF93C5
:102C8000EA01009711F00E94D0281982188290E082
:102C900080E0DF91CF910895DB01009719F48FEF69
:102CA0008C9308952EEF2C93FC013F96EF30F105A5
:102CB00008F034C08827E05AF94E8F4F0C94903BAF
:102CC0008C168A16881686168416801682167E162C
:102CD0007C167A16771673166F1675168E1680E3A5
:102CE00011968C93089589E2FBCF82E2F9CF119679
:102CF0001C92089583E2F4CF81E2F2CF81E1F0CF1C
:102D000087E2EECF8AE2ECCF80E1EACF84E2E8CF3F
:102D100088E2E6CF86E2E4CF81E3E2CF80E2E0CF53
:102D20008091DD049091DE0408959093DE048093F9
:102D3000DD0408958091DC0408959091DC04892BD2
:102D40008093DC040895982F90958091DC0489236A
:102D50008093DC0408958091DB0408958091D90468
:102D60009091DA0408956115710559F0FB0130E086
:102D700020E070E060E02417350719F06115710557
:102D800011F0CB010895A081B181A817B90709F40A
:102D9000BF012F5F3F4F3696EECF8091DF04811148
:102DA0001CC060D266D29093D2048093D1040E945A
:102DB000CE200E94E0209093D6048093D5040E94F8
:102DC0005D250E9464259093D4048093D30481E010
:102DD0008093DF0490E080E0089584EF9FEF0895F2
:102DE0008F929F92AF92BF92CF92DF92EF92FF921B
:102DF0000F931F93CF93DF9300D000D000D01F928A
:102E0000CDB7DEB71A86198618861F821E821D82EC
:102E10001C821B821A8219828091DF0407EF1FEF48
:102E2000882309F49CC08E010D5F1F4F9E012B5F0C
:102E30003F4FAE01495F5F4FBE01675F7F4F90E03C
:102E400080E00E94E1268C01009721F00596029710
:102E500008F0DBC029853A852115310509F402C146
:102E6000ED80FE804B815C81B701640F751F8F81FF
:102E700098858617970708F4F5C0E20EF31ED70170
:102E80009C91903C09F07FC04230510508F47BC012
:102E900011968C914091DD045091DE04452B09F48C
:102EA0009CC0913F08F071C02CE1290F2D3008F42F
:102EB0008BC02DE2290F203108F489C0903C21F409
:102EC0008150823008F483C088E3890F8B3008F486
:102ED00081C09CE4C92E96E1D92EE6E3F6E16D812E
:102EE0007E81AE014F5F5F4F89859A8519955C01A0
:102EF000C114D104A1F189809A808114910479F1DF
:102F00008B819C818815990508F487C010E000E04A
:102F10004B815C8170E060E0C7010E94BA3B011503
:102F20001105E9F449815A8169857A858D819E81EF
:102F3000680F791FC501F6011995E980FA800D81A6
:102F40001E812F81388549855A856FEF7FEF81E09B
:102F500090E00E947C268C01892B09F056C0C801A4
:102F60002A960FB6F894DEBF0FBECDBFDF91CF918A
:102F70001F910F91FF90EF90DF90CF90BF90AF9097
:102F80009F908F90089580E085CF30E020E0220F61
:102F9000331FF901EF52FB4F0190F081E02D309784
:102FA00009F497CF892F90E01995009709F491CFF4
:102FB000DC011296ED91FC9113971496CD90DC9064
:102FC000309709F08CCF1FC021E030E0E0CF22E045
:102FD00030E0DDCF23E030E0DACFD12CC12CEEE3BE
:102FE000F6E19F3F09F07BCFE091D104F091D2044C
:102FF000309721F4C90104EF1FEF0CC08FEF90E070
:1030000019950097A9F604EF1FEF89859A85009717
:1030100009F4A5CF0E94D028A2CF0E94AB278C0133
:1030200089859A850E94D02870E060E0C4010E94E2
:10303000442798878F830E9479269E838D836F8192
:1030400078856115710559F0C8010E945C2A9A873C
:10305000898706EF1FEF892B09F058CF59CF08EF6A
:103060001FEF56CF08EF1FEFD0CF2091DF042223B0
:1030700019F020E00C94E52087EF9FEF08958091F0
:10308000DD049091DE0408950E9469250E94C32406
:10309000F5D0E1EDF4E088E0DF011D928A95E9F7D3
:1030A0001092DF0490E080E008950C94212321E049
:1030B00040E050E0BA010C94E52086E090E0FA018F
:1030C0009183808390E080E0089547E050E062EDD6
:1030D00072E049CEDF92EF92FF920F931F93CF934E
:1030E000DF938A01EC01C60FD71FE090E304F09054
:1030F000E404D9800E949327D816190678F082E05C
:1031000090E0F801918380838EEF9FEFDF91CF9164
:103110001F910F91FF90EF90DF900895EF2841F4F9
:1031200082E090E0F8019183808384EF9FEFEECFFF
:1031300089818093E20490E00196F8019183808375
:1031400090E080E0E3CFCF93DF93EA010E94D223A7
:10315000882321F00E94A0270E94D32382E090E0E0
:10316000998388838BEF9FEFDF91CF910895CF9361
:10317000DF93EB0186E0FB0111928A95E9F78FEF6F
:103180008883D8DD8983E7DD8A83E8DD9D838C83AE
:10319000DF91CF910895CF93DF93EA010E94D52369
:1031A000811109C082E090E09983888385EF9FEFC9
:1031B000DF91CF91089590E080E0B7DD81E090E06D
:1031C0009983888390E080E0F3CF0F931F93CF9390
:1031D000DF93EA018C01060F171F0E94D52381118E
:1031E0000BC082E090E09983888385EF9FEFDF91A9
:1031F000CF911F910F910895F8018181823038F0AD
:1032000082E090E0998388838EEF9FEFF0CF81E09A
:1032100090E08BDD88E090E09983888390E080E007
:10322000E6CFCF93DF930097D1F4EB01FB01329609
:1032300086E0DF011D928A95E9F78FEF888385E0AC
:1032400089831A820E9493278B830E9492279D83F1
:103250008C8381E08E838F83DF91CF910895DF91FE
:10326000CF911ACD85E698E19093E1048093E00434
:1032700008958091E0049091E10408951092E10492
:103280001092E00408958091E3049091E40408957D
:10329000411105C0611571058105910561F06093CB
:1032A000E3047093E4048093E5049093E604409370
:1032B000E70481E0089580E00895FF920F931F9343
:1032C000CF93DF938A01EC01C60FD71FF9800E94CC
:1032D0009327F816190668F082E090E0F8019183D0
:1032E00080838EEF9FEFDF91CF911F910F91FF9021
:1032F00008956C817D818E819F814B81C9DF811111
:1033000008C082E090E0F8019183808384EF9FEF12
:10331000EACF89818093E20490E00196F8019183DD
:10332000808390E080E0DFCFCF93DF93EA01FC0160
:10333000E60FF71F64817581868197814381A8DF3D
:10334000811109C082E090E09983888384EF9FEF28
:10335000DF91CF91089581E090E09983888390E098
:1033600080E0F6CFE3EEF4E0408151816281738129
:10337000480F511D611D711D40835183628373830A
:103380000895CF93C091E2044C2F50E06091E30484
:103390007091E40401960E94B13B8C2FE3DF109200
:1033A000E204CF910895009799F48091E3049091FD
:1033B000E4042FEFFB012083892B59F02091E204D4
:1033C00030E02F5F3F4F2417350719F4CB01D9CFD9
:1033D00063CC0895009799F48091E3049091E404FC
:1033E0002FEFFB012083892B59F02091E20430E07C
:1033F0002F5F3F4F2417350719F4CB01C2CF4CCCB8
:10340000089523E1AC01249FC001259F900D112454
:10341000E091EC04F091ED04E80FF91F2381348171
:103420002250310981E02230310508F080E0089512
:103430000F931F93CF93DF930091EE041091EF044D
:10344000D0E0C0E080E00C171D0749F491E0811145
:1034500090E0892FDF91CF911F910F9108958111F5
:10346000F5CFCE01CEDF2196EECFA091EC04B09146
:10347000ED04109729F12091EE043091EF048217AA
:103480009307F0F453E1589F9001599F300D112498
:10349000A20FB31FED91FC911197309789F012960E
:1034A0008C91681768F48DE0689FE00DF11D112480
:1034B00080819181892B21F081E09281491708F068
:1034C00080E008959C0143E1429FC001439F900D1D
:1034D0001124E091EC04F091ED04E80FF91F8385CD
:1034E000823091F481E090E06581768140918D0297
:1034F00050918E026417750711F490E080E0892BDB
:1035000019F081E0232B09F080E00895FC01A081EF
:10351000B1818DE0689FA00DB11D112413964D91CE
:103520005C9185859685489F9001499F300D589FF5
:10353000300D1124C9010196611103C0478144FD7A
:1035400004960895EF92FF920F931F93CF93DF930A
:10355000EA01FC01E60FF71F02811381E480F58088
:103560004F2D6E2DC80181DF81110DC082E090E0EA
:10357000998388838EEF9FEFDF91CF911F910F91F9
:10358000FF90EF900895C8013CDF882339F082E076
:1035900090E09983888388EF9FEFEECF1093940299
:1035A00000939302E0929502F092960281E090E0FF
:1035B0009983888390E080E0DFCFCF92DF92EF9213
:1035C000FF920F931F93CF93DF937A01EC01C60F05
:1035D000D71FC0909302D090940200919502109151
:1035E0009602412F602FC60140DF811110C082E09A
:1035F00090E0F701918380838AEF9FEFDF91CF9175
:103600001F910F91FF90EF90DF90CF900895C6012A
:10361000F8DE882341F082E090E0F7019183808317
:1036200088EF9FEFEBCF4C815D816E817F819A8126
:1036300089818F3F41F082E090E0F70191838083A0
:103640008EEF9FEFDBCFE3E1EC9D9001ED9D300D20
:103650001124E091EC04F091ED04E20FF31F0190CE
:10366000F081E02D2DE0029FE00DF11D112401906D
:10367000F081E02D27E0129FE00DF11D11248083E1
:1036800091838B81828343835483658376831F5F19
:103690001093960281E090E0F7019183808390E09F
:1036A00080E0ACCFEF92FF920F931F93CF93DF9305
:1036B0007A018C01060F171FC091EC04D091ED0424
:1036C000209781F021E030E0F801828193814091E0
:1036D000EE045091EF048417950710F030E020E0DD
:1036E000232B71F482E090E0F701918380838EEFC9
:1036F0009FEFDF91CF911F910F91FF90EF90089571
:1037000043E1489F9001499F300D1124C20FD31F00
:1037100078DE882341F082E090E0F7019183808396
:1037200088EF9FEFE6CFF8012481358120383105FD
:10373000C8F687818111D6CF4181842F90E08F7E9A
:10374000009741F082E090E0F7019183808386EF5B
:103750009FEFCFCF4F833E832D8326812887198605
:10376000223010F421E0288721E030E0F701318396
:103770002083BFCF88E090E0FA019183808390E0BE
:1037800080E00895FB018FEF808381E181838FEFDB
:103790009FEF9383828380E890E0958384831682F1
:1037A00017820895FB018FEF808391E091838283DC
:1037B0009383848384E3858381E090E09783868389
:1037C0000895DF92EF92FF920F931F93CF93DF93B1
:1037D000EA01FC01E60FF71F8181813071F082E080
:1037E00090E0998388838FEF9FEFDF91CF911F91B6
:1037F0000F91FF90EF90DF90089582819381D480A4
:103800002581E680F7800091EC041091ED0401150C
:10381000110539F482E090E0998388838CEF9FEF63
:10382000E4CF4091EE045091EF048417950738F0EF
:1038300082E090E0998388838EEF9FEFD6CF892B2B
:1038400039F082E090E09983888386EF9FEFCDCFB7
:103850008D2D8D7FB1F72130A1F781E0D11006C009
:1038600091E0E916F10431F080E004C0E2E0EE16E8
:10387000F104D0F3882329F390E080E0C2DD8823AF
:1038800039F082E090E09983888388EF9FEFADCF95
:10389000F801D38681E08487F686E586108A17864C
:1038A00081E090E09983888390E080E09ECF4CE0B7
:1038B00050E06CEF72E057CA8F929F92BF92CF9206
:1038C000DF92EF92FF920F931F93CF93DF93EA0162
:1038D000FC01E60FF71F828193810481B580E0919E
:1038E000EC04F091ED04309791F482E090E099833C
:1038F00088838CEF9FEFDF91CF911F910F91FF9005
:10390000EF90DF90CF90BF909F908F90089520917F
:10391000EE043091EF048217930738F082E090E0D4
:10392000998388838EEF9FEFE6CF23E1289F600184
:10393000299FD00C1124EC0DFD1DE080F180E114D5
:10394000F10499F28281081748F78DE0089F800101
:103950001124E00EF11EF70180819181892B29F657
:10396000BB20E1F2F7E0BF9E40011124C4010E9498
:103970009728F70191838083E091EC04F091ED04A6
:10398000EC0DFD1D0190F081E02DE00FF11F808115
:103990009181009739F482E090E0998388838DEFDC
:1039A0009FEFA9CFA40170E060E00E94BA3B809134
:1039B000EC049091ED04C80ED91EF601808191812E
:1039C000080F191FF801B28281E090E09983888383
:1039D00090E080E090CFAF92BF92CF92DF92FF92C3
:1039E0000F931F93CF93DF93EA01FC01E60FF71FBC
:1039F00082819381F4800091EC041091ED04011513
:103A0000110581F482E090E0998388838CEF9FEF29
:103A1000DF91CF911F910F91FF90DF90CF90BF90DA
:103A2000AF9008952091EE043091EF048217930730
:103A300038F082E090E0998388838EEF9FEFE8CFA3
:103A40002FEF2F0D2C3FA8F723E1289F6001299F1E
:103A5000D00C11240C0D1D1DF80180819181892B42
:103A600089F6FDE0FF9E50011124C5010E949728B0
:103A7000F80191838083E091EC04F091ED04EC0D6A
:103A8000FD1D80819181009739F482E090E0998357
:103A900088838DEF9FEFBCCFA50170E060E00E94AE
:103AA000BA3BE091EC04F091ED04EC0DFD1DF282C7
:103AB00081E090E09983888390E080E0A9CFCF9265
:103AC000DF92EF92FF920F931F93CF93DF93860FB6
:103AD000971FFC01028113818091EC049091ED0409
:103AE000892B81F082E090E0FA01918380838CEF52
:103AF0009FEFDF91CF911F910F91FF90EF90DF909B
:103B0000CF900895C801B0E0A0E00197A109B109E4
:103B10008F3F9F4FA105B10540F082E090E0FA0190
:103B2000918380838EEF9FEFE4CF7A0183E1809FC2
:103B30006001819FD00C1124C6010E949728EC01DE
:103B4000009741F482E090E0F701918380838DEF4C
:103B50009FEFCFCFA60170E060E00E94BA3BD09308
:103B6000ED04C093EC041093EF040093EE0490E096
:103B700080E02FEF3FEF41E061E070E080179107B8
:103B800041F481E090E0F7019183808390E080E050
:103B9000B0CF3A8B298B1B864C877E876D87188A1E
:103BA0001F8601966396EACFEF92FF921F93CF9301
:103BB000DF93EC0110E0F12CE12C6A811617B0F0D4
:103BC00083E0689FB0011124AE014F5E5F4FC701D3
:103BD0000E94FC28009721F02FEF3FEF3A8B298BB2
:103BE000DF91CF911F91FF90EF900895612FCE014B
:103BF0008DDC61E070E00E944427E816F90608F4C5
:103C00007C011F5FDACFF8942091EA043091EB0435
:103C100081E02115310509F080E0232B09F078942B
:103C200008952F923F924F925F926F927F928F9260
:103C30009F92AF92BF92CF92DF92EF92FF920F933B
:103C40001F93CF93DF933C01660E771EF3018281B1
:103C500093814C01B12CA12CC091EC04D091ED04C6
:103C6000209769F021E030E06091EE047091EF045C
:103C70008617970710F030E020E0232BD1F482E084
:103C800090E0FA01918380838EEF9FEFDF91CF91D7
:103C90001F910F91FF90EF90DF90CF90BF90AF906A
:103CA0009F908F907F906F905F904F903F902F905C
:103CB00008958092970290929802A0929902B092F1
:103CC0009A0263E1689F9001699F300D1124C20F31
:103CD000D31FF3018181833040F082E090E0FA014C
:103CE0009183808386EF9FEFD1CF2A012B813C8186
:103CF000232BF1F4288139819F8191FF2EC0232B42
:103D000009F46FC02091F1049A81422F490F552781
:103D1000551FBA0141E050E06138710514F050E0E0
:103D200040E0452B09F45DC02A87920F9093F1047F
:103D30008150823008F481C066DF882309F4D8C03E
:103D4000F3018181813009F48DC008F47BC0823099
:103D500009F4C6C090E080E0ADC0232B09F441C057
:103D60002091F0049A81E22FE90FFF27FF1F41E025
:103D700050E0ED3FF10514F050E040E0452B89F1B3
:103D80002A87920F9093F004D3CFA081B181A20F24
:103D9000B31F11966C91060F111D0196295F3F4FBD
:103DA0008417950794F38D859E85089F1001099FC0
:103DB000300C189F300C1124C114D104D1F48F8120
:103DC00084FF17C00E949227F5E02F0E311C21E0DE
:103DD0008215930508F420E0A701435F5F4F21118E
:103DE0000EC082E090E0F2019183808387EF9FEF25
:103DF0004DCF0E9492272FEF221A320AE8CF8881F6
:103E00009981E80EF91EF70114830383FFEFCF1A9F
:103E1000DF0A7A018A818C151D0409F00CF48CCF1D
:103E2000E881F981EE0DFF1D428150E030E020E095
:103E300010E000E090E080E0B3CFF12CE12CD12C39
:103E4000C12CE8CF81E090E09C838B83F1DA88235A
:103E500009F480CF81E090E00E94951680E40E94F2
:103E6000A31678CF89899A89019661F083E090E062
:103E70009C838B8382E090E00E94951680E40E94F0
:103E80009D1668CF8D819E8120918D0230918E028A
:103E900082179307D1F46091910270919202AE0162
:103EA0004F5E5F4F80918F02909190020E941B2A7B
:103EB0000097E1F2789422E030E0F2013183208330
:103EC000892B99F08DEF9FEFE1CE89288A288B28E6
:103ED00069F6029758F6CE0167DE188A1F86E8CF8A
:103EE00082E090E09C838B8335CF90E080E0CECE63
:103EF00082E090E0F2019183808385EF9FEFC6CE50
:103F00008F929F92AF92BF92CF92DF92EF92FF92E9
:103F10000F931F93CF93DF93EA018C01060F171FB6
:103F2000F8018181833098F082E090E09983888362
:103F300086EF9FEFDF91CF911F910F91FF90EF9050
:103F4000DF90CF90BF90AF909F908F900895809119
:103F5000EC049091ED04892B61F081E090E02091D8
:103F6000EE043091EF04232B11F490E080E0892BD4
:103F700039F482E090E0998388838EEF9FEFDACF67
:103F800042DE882309F4E0C0F8018181813009F420
:103F900096C0E8F0823099F42091EE043091EF045D
:103FA000E091EC04F091ED0490E080E041E050E01D
:103FB0002817390709F0BEC03BDA811117C0789481
:103FC00081E090E09983888390E080E0B3CF2091F6
:103FD000EE043091EF04E091EC04F091ED0490E0F8
:103FE00080E041E050E02817390741F481E090E09B
:103FF0000E94951680E40E94A316E1CF638174812C
:10400000672B11F05483438301967396ECCFE091B4
:10401000EC04F091ED04E00FF11F23813481223094
:104020003105D9F4218932892F3F3F4FB1F42581E1
:10403000368140918D0250918E022417350761F52B
:10404000AF014F5E5F4F609191027091920280913B
:104050008F02909190020E941B2AEFEFCE1ADE0A87
:10406000EE0AFE0A0D5E1F4F4091EE045091EF04E0
:1040700070E060E0C416D506E606F70644F5009742
:1040800031F27894892B09F49BCF82E090E09983F8
:1040900088838DEF9FEF4ECFC114D104E104F1046A
:1040A000E1F622303105C8F6CF017EDDE091EC0467
:1040B000F091ED04E00FF11F108A1786CECF10E0CB
:1040C00000E090E080E0C12CD12C7601CDCF0097AC
:1040D000C1F610E000E0812C912C540183E0E82E21
:1040E000F12C1AC0E091EC04F091ED04E00FF11F07
:1040F00083819481029749F4F482E38282E090E024
:104100000E94951680E40E949D16FFEF8F1A9F0A69
:10411000AF0ABF0A0D5E1F4F8091EE049091EF042D
:10412000B0E0A0E088169906AA06BB06DCF290E093
:1041300080E0A7CF638174816230710511F45483EC
:1041400043830196739634CF82E090E0998388830D
:1041500085EF9FEFEFCE0097B9F48FEFFB018083DF
:10416000209197023091980243E1429FC001439F02
:10417000900D1124E091EC04F091ED04E80FF91F8B
:104180008285FB01818308950C944C1688E090E0B1
:10419000FA019183808390E080E008951092EB040F
:1041A0001092EA04ECEEF4E086E0DF011D928A95BD
:1041B000E9F787E59CE19093E9048093E80408958A
:1041C0008091E8049091E90408952F923F924F92D4
:1041D0005F926F927F928F929F92AF92BF92CF9297
:1041E000DF92EF92FF920F931F93CF93DF93CDB7A0
:1041F000DEB72F970FB6F894DEBF0FBECDBFF89491
:10420000E091EA04F091EB043196F093EB04E09333
:10421000EA0478944090EC045090ED044114510469
:1042200009F40CC2E091EE04F091EF04EF2B09F4D5
:1042300005C22D8749875A876B877C8798878F832C
:104240001201B12CA12C10E000E08091EE049091BD
:10425000EF04A816B90618F40115110529F1F89410
:104260008091EA049091EB0401979093EB04809382
:10427000EA047894C8012F960FB6F894DEBF0FBEFB
:10428000CDBFDF91CF911F910F91FF90EF90DF9005
:10429000CF90BF90AF909F908F907F906F905F90E6
:1042A0004F903F902F9008957101E418F508D101C7
:1042B00017968C91179781FD54C013968D919C9100
:1042C0001497039709F04DC015968D919C91EF813D
:1042D000F8858E179F0709F044C0B50190E080E093
:1042E0007FD48A832091EC043091ED043D832C83AC
:1042F0003D85332309F44CC04C815D81452B09F485
:104300009AC18091EE049091EF04A816B90608F0C6
:1043100092C1C501D7D88823E9F06C817D816E0DEB
:104320007F1D7D836C83DB011F968D919C91892B72
:1043300089F0D12CC12CF12CE12CAC81BD811296DD
:104340008C9112978E151F0409F094F450961C92CC
:104350001E921F972A81222321F0B50190E080E070
:1043600041D43FEFA31AB30A43E1240E311C6DCFB1
:10437000AC81BD81ED91FC91EC0DFD1D8581968197
:104380000FD7BFEFEB1AFB0AEDE0CE0ED11CD5CF55
:10439000EC81FD81309709F44EC18091EE0490913B
:1043A000EF04A816B90608F046C1EE0DFF1DFF8701
:1043B000EE87C50187D88B83882339F1AE85BF8509
:1043C0001F968D919C915097019621E01D964D91DD
:1043D0005C918417950709F020E02E831982712CD7
:1043E00010E000E0AE85BF8512968C91781608F437
:1043F0005DC0EE85FF858785908901966585768508
:104400000E945A3B908B8787A5CFB1E0BE83E6CF51
:10441000992493946BC08BD6F6019683858382C0D2
:10442000D601ED90FC90B7E06B9EE00CF11C1124DE
:10443000F7016381748180818F3F61F121E030E079
:1044400002C0220F331F8A95E2F7C901092E000C22
:10445000AA0BBB0BFB0140815181628173818423D4
:104460009523A623B72321E0892B8A2B8B2B09F4D4
:1044700020E0D4012C93D70111968C91F60123856D
:104480003485820F932F911D880E991E14861386F2
:1044900063949BC0418150E0C4010E94B13BEBCFCB
:1044A000998206EF1FEFC5C01982C3C0F981F111CF
:1044B000A0CFEDE07E9E70011124AE85BF85CD902A
:1044C000DC90CE0CDF1C15D49D838C83BB81BB2379
:1044D00009F49ECF81E0EE85FF8527853089232B67
:1044E00009F080E0982E882309F458C0672D8E8546
:1044F0009F850CD8D60118969C938E93179761E0F0
:1045000070E0C2D4EE85FF85218932892F3F3207C2
:1045100009F481CFBC01C901CFD7D60116969C936F
:104520008E931597D60115968D919C9116970097AD
:1045300009F4B6CFEC81FD818E0F9F1F1A969C93D4
:104540008E931997AE85BF85ED91FC911197EE0E74
:10455000FF1EF70121853285148613861A968C91E9
:10456000870DD9018D93711016C0EE85FF85878167
:1045700084FF11C049855A856B857C85F90141838B
:10458000528363837483F701838594850496A80F0F
:10459000B91F14861386F701B287A187D601159635
:1045A0008D919C911697892B09F443C0EE85FF8568
:1045B0002581368180918D0290918E0228173907CE
:1045C00079F019968D909C90612CD60112968C9161
:1045D0001297681608F424CF1A969C928E92199717
:1045E000BE81BB2309F460CF61E070E0F6018781F2
:1045F00090854AD4D6011796ED90FC9018971596A1
:104600004D915C91E1E0F0E0BA81BB2311F0F0E064
:10461000E0E00C811D819C01B501882799278E1B44
:104620009F0B6AD38C01892B21F0F601858196813D
:10463000B7D57394D7CE0FEF1FEF8CCE10E000E00C
:104640000ECE2F923F924F925F926F927F928F92F7
:104650009F92AF92BF92CF92DF92EF92FF920F9311
:104660001F93CF93DF938091EC049091ED0410E0C1
:1046700000E0892BA9F0C7DA0AEF1FEF882381F049
:104680002090EE043090EF04C091EC04D091ED0442
:10469000D12CC12C10E000E02C143D04A9F4789436
:1046A000C801DF91CF911F910F91FF90EF90DF90A4
:1046B000CF90BF90AF909F908F907F906F905F90C2
:1046C0004F903F902F900895C6010E94621A882350
:1046D00009F18B819C810397E9F48F859889892B57
:1046E000C9F0B60190E080E07BD221E030E0882381
:1046F00011F030E020E044245524421A530AB12C32
:10470000A12C912C812C8A818815190409F038F488
:10471000188A1F864FEFC41AD40A6396BDCFE8816A
:10472000F981EA0DFB1D85819681892BA1F161E05C
:1047300070E087819085A8D33C01DBD28C01E881B1
:10474000F981EA0DFB1D8185928525813681200F37
:10475000311FAC01421B530B9A0147815085421B0C
:10476000530B70E060E00E94BA3BE881F981EA0DEA
:10477000FB1DE780F084458156819301B601C2019B
:10478000BBD28C01892B39F0E881F981EA0DFB1D40
:104790008581968105D55FEF851A950A8DE0A80E73
:1047A000B11CB1CF30CA789408952F923F924F92A6
:1047B0005F926F927F929F92AF92BF92CF92DF9261
:1047C000EF92FF920F931F93CF93DF9300D000D00F
:1047D000CDB7DEB70091EC041091ED0499249394C9
:1047E0000115110509F43EC0A090EE04B090EF044D
:1047F0000ADA982E8823B1F11092ED041092EC049D
:104800001092EF041092EE041092F0041092F10452
:104810008FEF9FEFDC018093970290939802A09313
:104820009902B0939A0278947FD31E830D83C12C92
:10483000D12C7601C501B0E0A0E089839A83AB83D7
:10484000BC8322242A94322C89819A81AB81BC8139
:10485000C816D906EA06FB06F4F0C801A1D480E424
:104860000E94A316892D26960FB6F894DEBF0FBEC0
:10487000CDBFDF91CF911F910F91FF90EF90DF900F
:10488000CF90BF90AF909F907F906F905F904F9030
:104890003F902F900895AD81BE8115968D919C918A
:1048A000169720918D0230918E0282179307D1F4D2
:1048B00051968D919C91EED5ED81FE818081918103
:1048C000B12CA12C412C512C3201892B89F5BFEF41
:1048D000CB1ADB0AEB0AFB0AED81FE817396FE839D
:1048E000ED83B2CFC114D104E104F10429F702979A
:1048F00018F7ED81FE81818992898F3F980709F031
:1049000029D5AD81BE8152963C922E925197D4CF3B
:104910008A0D9B1DDC018D919C91009709F040D47C
:10492000BFEF4B1A5B0A6B0A7B0AEDE0AE0EB11CBF
:10493000AD81BE818D919C91119712964C9150E062
:1049400070E060E044165506660677060CF328D43E
:10495000BECFCF93DF93EA0128DF811109C082E047
:1049600090E09983888385EF9FEFDF91CF91089541
:1049700081E090E00E94951681E090E09983888321
:1049800090E080E0F2CF11DF1092E9041092E80489
:10499000089542E050E064E473E00C94B316FF9293
:1049A0000F931F93CF93DF938A01EC01C60FD71F9C
:1049B000F980B9D20897F816190671F068F082E00C
:1049C00090E0F801918380838EEF9FEFDF91CF918C
:1049D0001F910F91FF9008956C817D818E819F8141
:1049E0004B810E944819811108C082E090E0F801D3
:1049F0009183808384EF9FEFE9CFF9800E94431970
:104A00004F2D50E0BE01685F7F4F0E94B13B89810E
:104A10000E94B21981E090E0F8019183808390E0D8
:104A200080E0D4CFDF92EF92FF920F931F93CF934A
:104A3000DF938A01EC01C60FD71F0E9443197C0146
:104A4000D98071D2DD2059F0029721E030E0D816EC
:104A5000190619F010F030E020E0232B79F482E001
:104A600090E0F801918380838EEF9FEFDF91CF91EB
:104A70001F910F91FF90EF90DF900895EF2841F480
:104A800082E090E0F8019183808384EF9FEFEECF86
:104A9000F9800E9443194F2D50E0BE016E5F7F4F99
:104AA0000E94B13B89810E94B21981E090E0F80137
:104AB0009183808390E080E0D9CF89EC94E2909359
:104AC000F3048093F20408958091F2049091F3042A
:104AD00008950895FC0111821082938382830895C2
:104AE000DB011D921C92DC011296ED91FC91139753
:104AF0007183608313967C936E9312970895FC01E3
:104B000080819181DB018D939C93A081B18110976D
:104B100041F08D919C9191838083892B11F4F383D3
:104B2000E2830895FC0180819181DB018D939C9348
:104B3000892B11F473836283718360830895FC0170
:104B400011821082938382830895CF93DF931F9203
:104B50001F92CDB7DEB71A821982F894BE016F5F3B
:104B60007F4F89EF94E0CBDF89819A81009709F02C
:104B700017D389819A81892B89F7BE016F5F7F4F97
:104B80008DEF94E0BCDF89819A81009709F008D30A
:104B900089819A81892B89F778940F900F90DF9102
:104BA000CF910895CF93DF931F921F92CDB7DEB7B9
:104BB0001A821982F894BE016F5F7F4F85EF94E0EF
:104BC0009EDF89819A81009709F0EAD289819A81D2
:104BD000892B89F778940F900F90DF91CF910895EA
:104BE00081E0089590E080E00895EF92FF920F93A6
:104BF0001F93CF93DF931F921F92CDB7DEB71A8218
:104C000019828091F40407EF1FEF8823A1F1F89433
:104C1000BE016F5F7F4F8DEF94E071DF78948981E3
:104C20009A81EE24E394F12C892B51F4F894BE017F
:104C30006F5F7F4F89EF94E062DF7894F12CE12C75
:104C400089819A810EEF1FEF0097A9F0FC01428144
:104C5000538164E070E076D68C01892B61F0F89482
:104C600069817A81C701880F991F880F991F875022
:104C70009B4F58DF7894C8010F900F90DF91CF9130
:104C80001F910F91FF90EF9008950F931F93CF9373
:104C9000DF9300D01F92CDB7DEB71C821B821A8231
:104CA00019828091F40407EF1FEF8823C1F0AE0151
:104CB0004D5F5F4F64E070E0CE010196B6D68C0187
:104CC000892B69F4E981FA818B819C8193838283AA
:104CD000F89469817A8185EF94E002DF7894C801C5
:104CE0000F900F900F900F90DF91CF911F910F9128
:104CF0000895BBD7049608958F929F92AF92BF926A
:104D0000CF92DF92EF92FF920F931F93CF93DF9397
:104D10001F921F92CDB7DEB71A821982BC016F5F56
:104D20007F4F6330710598F0AA24AA94BA2CC5016C
:104D30000F900F90DF91CF911F910F91FF90EF9007
:104D4000DF90CF90BF90AF909F908F9008954115C6
:104D5000510551F3480159018A016C01CADF8815D8
:104D6000990511F7E114F104F9F28E0D9F1DA816B3
:104D7000B906D0F28091F4048823F1F0F894B501DB
:104D8000645071099701AE014F5F5F4FC8010496EF
:104D9000E1D65C01892B71F489819A81F8019383B2
:104DA0008283C601880F991F880F991FB801875009
:104DB0009B4F96DE7894BBCF87EFA82EBB24BA9486
:104DC000B6CFAF92BF92CF92DF92EF92FF920F9346
:104DD0001F93CF93DF931F921F92CDB7DEB71A8236
:104DE0001982892B09F047C06115710509F443C088
:104DF0004115510509F43FC02115310509F43BC0A7
:104E000001151105C1F18091F4048823B9F17901EC
:104E10006A015B01F894BE016F5F7F4F85EF94E0FC
:104E20006EDE789489819A81009759F1DC0112969F
:104E30006D917C91A8010496A6D68C01E981FA8136
:104E4000D501ED93FC93828193810496F6019183C1
:104E500080834FDFD7018D939C93C8010F900F90F3
:104E6000DF91CF911F910F91FF90EF90DF90CF9046
:104E7000BF90AF9008950FEF1FEFEFCF07EF1FEF39
:104E8000ECCF0EEF1FEFE9CFCF93DF93EC01672B51
:104E900071F4F4D68C179D0760F0E7D62496C80FFE
:104EA000D91FE6D68C0F9D1FDF91CF910895E3D6D1
:104EB000F1CF90E080E0F8CF0F931F93CF93DF9373
:104EC0002091F40421112BC08B01EC0189EF94E0B7
:104ED00001DE8DEF94E0FEDD85EF94E0FBDD97D001
:104EE0000097C1F4CBD670E060E0CEDF4BE952E032
:104EF00062E070E081D1009769F480919B0290910B
:104F00009C02CED6B801CE0103D5009719F421E05A
:104F10002093F404DF91CF911F910F91089584EFB6
:104F20009FEFF8CFA8C6AAC6CF93DF93AAD6EC010D
:104F3000892B11F40ADE36DECE01DF91CF91089580
:104F4000CF93DF939ED6EC01892B09F4FEDDCE01D1
:104F5000DF91CF91089580919B0290919C020895DA
:104F6000CF93DF938091F404D0E0C0E08823D1F0A8
:104F70009CD6EC01892BB1F4E8DD14DE80919B0214
:104F800090919C02E7D1E8D2EC01892B59F489EF8A
:104F900094E0D5DD8DEF94E0D2DD85EF94E0CFDDB8
:104FA0001092F404CE01DF91CF910895EF92FF9219
:104FB0000F931F93CF93DF93EC017A018B010F5F67
:104FC0001F4F0E9DA0010F9D500D1E9D500D1124D1
:104FD00070E060E00E94BA3B90E080E0F0E0E0E04A
:104FE0002FEFE816F90639F4DF91CF911F910F9159
:104FF000FF90EF9008951A8219822883309711F05C
:10500000D283C1830196FE01C00FD11FEACFCF9298
:10501000DF92EF92FF920F931F93CF93DF9306E7F8
:1050200018E00C7F43E050E06DE972E083EA92E023
:105030001CD48DE9E82E82E0F82E93EAC92E92E086
:10504000D92EC5E4D9E0D7014D915D917D01F601DE
:10505000619171916F01198308835D834C835B8338
:105060004A837F836E839B012F5F3F4F249FC00144
:10507000259F900D349F900D1124998788870115E5
:10508000110511F0C80192DF88859985080F191F55
:105090002A96F3EAEF16F2E0FF06A9F6E3E0F5E060
:1050A00080E793E0DF019C011D9221503040E1F741
:1050B0001092020510920105109264091092630982
:1050C000109268091092670910926609109265099A
:1050D00010926A091092690910926C0910926B097A
:1050E00010926E0910926D09109272091092710956
:1050F0001092700910926F0910927409109273093E
:105100001092760910927509109242091092410985
:10511000109244091092430990E080E0DF91CF9112
:105120001F910F91FF90EF90DF90CF90089500971F
:10513000F1F0F894A3EAB2E0E5E4F9E030E020E031
:105140004D915D9148175907A8F04281538141154F
:10515000510581F08AE0829FF001839FF00D1124B8
:10516000EB5BF64F80819181009759F4789490E041
:1051700080E008952F5F3F4F3A962330310501F7C5
:10518000F5CFDC0111966D917C9171836083415064
:10519000510953834283FC012193CF0178940895F0
:1051A000009749F1DC018E91853041F4E09143098B
:1051B000F09144093097F9F0CD0119948530D8F475
:1051C000282F30E0F8948FEF8C938AE0829FF001D3
:1051D000839FF00D1124EB5BF64F80819181129635
:1051E0009C938E931197B183A083828193810196C2
:1051F0009383828378940895CF92DF92EF92FF9207
:105200000F931F93CF93DF939C0186E095E08C7FF3
:105210004115510509F49BC02115310509F497C0CA
:105220006115710509F493C07A01AB01B9016D5F95
:105230007F4F6C7F9B012F5F3F4F249F8001259FF5
:10524000100D349F100D1124F894209163093091B2
:105250006409232B59F420916B0930916C092115B5
:10526000310569F12017310708F058C020916D0908
:1052700030916E09232B91F420916B0930916C09C8
:10528000820F931F20917509309176092115310500
:1052900009F441C02017310708F056C07894CFEFC9
:1052A000DFEF86EF9FEFF701D183C083DF91CF91CE
:1052B0001F910F91FF90EF90DF90CF900895C3E082
:1052C000D0E0C0900105D09002052DE633E02C1906
:1052D0003D092017310710F32AE02C9FF0012D9F84
:1052E000F00D1124EB5BF64F91838083558344834B
:1052F000538342837783668311870087009709F081
:1053000055DE0C0D1D1D10930205009301057894C8
:1053100090E080E0C8CFC4E0D0E0D3CFC3E0D0E0DD
:105320002AE02C9FF0012D9FF00D1124EB5BF64F2E
:105330009183808355834483538342837783668339
:10534000009729F333DEE3CFC4E0D0E0E9CF8FEF5D
:105350009FEFACCF9C010397029708F069C0F894C7
:1053600084E09AE0482F50E0241735070CF44DC034
:1053700091E08AE0829FF001839FF00D1124EB5BA6
:10538000F64F1182108215821482138212821782C4
:1053900016829923B1F18091630990916409892B58
:1053A000A9F420916B0930916C092115310571F038
:1053B0008091010590910205821B930B9093020549
:1053C0008093010510926C0910926B0980916D0910
:1053D00090916E09892BA9F4209175093091760975
:1053E0002115310571F08091010590910205821B14
:1053F000930B909302058093010510927609109209
:105400007509789490E080E00895949FF001959F4D
:10541000F00D1124EB5BF64F40815181452B31F4A7
:1054200040855185452B11F481509CCF90E0A1CF50
:105430008FEF9FEF08954115510549F1009739F11C
:105440006115710521F1F8942091410930914209CB
:10545000232BB9F42091430930914409232B89F47B
:1054600090934209809341097093440960934309E2
:10547000789425E030E090E080E0FA0131832083E9
:10548000089578942FEF3FEF86EF9FEFF6CF8FEFE1
:105490009FEF0895059769F4F894109242091092CD
:1054A00041091092440910924309789490E080E0F9
:1054B00008958FEF9FEF08956115710519F4F0E0DD
:1054C000E0E011C08530910581F4E0914109F0914F
:1054D00042093097A1F3CB0101961995009779F312
:1054E000FC0185E08193CF0108959C01235031098F
:1054F0002230310520F72AE0289FD001299FB00DE6
:105500001124AB5BB64F2D913C911197232BB9F22F
:1055100016962D913C9117972617370780F2F8942D
:1055200012962D913C9113972115310529F0ED919B
:10553000FC911197309711F47894C1CF4181528139
:1055400011965C934E932150310913963C932E9300
:10555000129781937894C7CFE3E7F8E08EECDF01F0
:105560001D928A95E9F7E3E0F5E080E793E0DF013B
:105570009C011D9221503040E1F7109202051092DB
:105580000105E5E4F9E082E3DF011D928A95E9F780
:10559000E1E4F9E084E0DF011D928A95E9F790E00B
:1055A00080E00895CF93DF93C091A902D091AA0221
:1055B000CF3FDC0759F423D49093AA028093A90229
:1055C00097FF09C0D093AA02C093A90284EF9FEF6E
:1055D000DF91CF91089590E080E0FACF823091057D
:1055E00028F48093770990E080E008958FEF9FEF93
:1055F00008954F925F926F927F92AF92BF92CF9237
:10560000DF92EF92FF920F931F93CF93DF931F923E
:105610001F92CDB7DEB71A821982009709F479C0BC
:105620006115710509F475C02091A9023091AA0293
:1056300007EF1FEF2F3F3F4F09F445C06B015C019F
:10564000412C512C3201F12CE12C10E000E09E01A4
:105650002F5F3F4FA6014E195F09B5016E0D7F1DEB
:105660008091A9029091AA022ED4892B09F04BC0F7
:1056700089819A81009741F4E114F10429F4209181
:105680007709222309F442C0E80EF91EEC14FD0448
:10569000D0F480E8481684E858068EE16806710464
:1056A00020F560E070E0CB010E9497352AE0420EC1
:1056B000511C611C711C0A3F4FEF140721F0043F7D
:1056C0008FEF1807A1F4C8010F900F90DF91CF91D1
:1056D0001F910F91FF90EF90DF90CF90BF90AF9010
:1056E0007F906F905F904F90089501EF1FEF81E0E2
:1056F00090E0013F2FEF120711F090E080E0892B3E
:1057000009F4A5CFE0CF04EF1FEFDDCF0AEF1FEFC5
:10571000DACF0FEF1FEFD7CF4F925F926F927F924A
:10572000AF92BF92CF92DF92EF92FF920F931F93AF
:10573000CF93DF931F921F92CDB7DEB71A821982E3
:10574000009709F479C06115710509F475C02091BD
:10575000A9023091AA0207EF1FEF2F3F3F4F09F434
:1057600045C06B015C01412C512C3201F12CE12C24
:1057700010E000E09E012F5F3F4FA6014E195F0928
:10578000B5016E0D7F1D8091A9029091AA024ED3A2
:10579000892B09F04BC089819A81009741F4E1146B
:1057A000F10429F420917709222309F442C0E80E7C
:1057B000F91EEC14FD04D0F480E4481682E4580687
:1057C0008FE06806710420F560E070E0CB010E9474
:1057D00097352AE0420E511C611C711C0E3F4FEFA1
:1057E000140721F0043F8FEF1807A1F4C8010F90B0
:1057F0000F90DF91CF911F910F91FF90EF90DF906D
:10580000CF90BF90AF907F906F905F904F90089532
:1058100002EF1FEF81E090E0023F2FEF120711F03F
:1058200090E080E0892B09F4A5CFE0CF04EF1FEFD3
:10583000DDCF0EEF1FEFDACF0FEF1FEFD7CF809145
:10584000A9029091AA028F3F980749F0D0D2892BE4
:1058500049F48FEF9FEF9093AA028093A90290E002
:1058600080E0089584EF9FEF0895CF92DF92EF924A
:10587000FF920F931F93CF93DF9321E041155105C2
:1058800009F020E04150510921112CC0DC01FB013D
:10589000D12CC12C21E022C03FEFC31AD30A7D01D5
:1058A0000D911D91E701EA80FB80E016F106A8F456
:1058B00020813181E280F380F182E0823383228390
:1058C000ED90FC9011979D0122503109E901F98278
:1058D000E88211961C930E9320E03296C416D506EA
:1058E000D8F2D2CFDF91CF911F910F91FF90EF901F
:1058F000DF90CF900895FC01680F791F90E080E061
:10590000E617F70709F408952191820F911DF8CF4A
:1059100020917809211113C045DE009791F410926F
:105920007E0910927D0910927C0910927B091092D9
:105930007A091092790921E020937809089584EF7B
:105940009FEF0895AF92BF92CF92DF92EF92FF92B6
:105950000F931F93CF93DF93009709F460C04630F5
:10596000510508F45CC020917809C7EFDFEF2223CE
:1059700009F449C08C01060F171FF801C080D180BF
:10598000C114D10409F44EC096012A5F3F4F42175B
:10599000530708F447C07C0180917D0990917E09EE
:1059A00093838283B6016C5F7F4F5801A60EB71EAA
:1059B000C801A1DFF5019183808364E070E0C80134
:1059C00018DEEC01892BF9F481E090E007DEB601E6
:1059D000C80104960EDEEC01892B91F462E070E0C0
:1059E000C50107DEEC01892B59F4C701D9DB809191
:1059F0007D0990917E09019690937E0980937D099F
:105A000090E080E0EBDDCE01DF91CF911F910F910F
:105A1000FF90EF90DF90CF90BF90AF900895CFEFC1
:105A2000DFEFF1CFC9EFDFEFEECF6F927F928F9272
:105A30009F92AF92BF92CF92DF92EF92FF920F931D
:105A40001F93CF93DF9300D01F92CDB7DEB700979F
:105A500009F47AC04115510509F476C020917809FE
:105A600007EF1FEF222309F44DC03A017B015C01CF
:105A700064E070E0CE0101964FDE8C01892B09F0C5
:105A800041C009811A810115110509F45AC0480164
:105A900086E0880E911CB701680D791D8091AB02DC
:105AA0009091AC0209DD6C01009709F450C0A70188
:105AB00070E060E00E94BA3B89819A81AB81BC8131
:105AC000EC0CFD1CF70181939193A193B1937F019D
:105AD00081E090E083DDB801C7011EDE892B31F53E
