:1000000014C100000C94CE360C94F9360C942437AD
:100010000C944F370C947A370C94A5370C94D03746
:100020000C94FB3733C1000031C100002FC1000028
:100030002DC100002BC1000029C1000027C1000014
:1000400025C1000023C1000021C100001FC1000024
:100050001DC100001BC1000019C100000C9426380E
:1000600015C100000C94FA3B0C94303C0FC1000009
:100070000DC100000BC1000009C1000007C1000054
:1000800005C1000003C1000001C10000FFC0000065
:100090000C94863C0C94BC3CF9C00000F7C00000F6
:1000A000F5C00000F3C00000F1C00000EFC0000088
:1000B000EDC00000EBC00000E9C00000E7C0000098
:1000C000E5C00000E3C000000C949D310C94123D8B
:1000D0000C94483DDBC000000C949E3D0C94D43D34
:1000E000D5C0000005A84CCDB2D44EB93836A9020F
:1000F0000C50B9918688083CA6AAAA2ABE00000026
:10010000803F00000A0B02090C0D0E0807030401D2
:1001100000000000000000000000000000000000DF
:1001200000000000000000000000000000001211AC
:1001300010000000000000000000000000000000AF
:10014000000000000000000001021020200808103C
:100150002040102040800201020108040201010237
:100160000408102040808040201008040201800410
:10017000020180402010080402010804020101026B
:10018000040810204080010204081020408005056A
:100190000505070508080808020202020A0A0808FD
:1001A000040404040101010101010101030303032B
:1001B00003030303040707070C0C0C0C0C0C0C0CBA
:1001C0000202020206060606060606060B0B0B0BCB
:1001D0000B0B0B0B000020002300260029002C0035
:1001E0002F00320000010000030106010901000098
:1001F0002200250028002B002E00310034000201CF
:100200000000050108010B01000021002400270067
:100210002A002D0030003300010100000401070115
:100220000A01593CE53C713DFD3D11241FBECFEF55
:10023000D1E2DEBFCDBF00E00CBF13E0A0E0B2E032
:10024000EAE9FDE700E00BBF02C007900D92A83677
:10025000B107D9F72CE0A8E6B3E001C01D92AD3498
:10026000B207E1F711E0C5E1D1E000E006C0219757
:100270000109802FFE010E948E3EC131D10780E02E
:100280000807A9F70E948F320C94CB3EB9CEFC012F
:10029000A781B0858C9191858923A481B5819C919A
:1002A00040815181628173812681922359F08111AD
:1002B0000BC04F5F5F4F6F4F7F4F4083518362830F
:1002C000738308958111F5CF415051096109710976
:1002D000F4CF89E693E0DBCF84E793E0D8CF8FE7D4
:1002E00093E0D5CF8AE893E0D2CFFC01A481B58119
:1002F0008C9196818923A781B0859C914081518101
:10030000628173812185922359F0882359F04F5FD0
:100310005F4F6F4F7F4F4083518362837383089594
:100320008823A9F34150510961097109F4CF89E685
:1003300093E0DBCF84E793E0D8CF8FE793E0D5CF8E
:100340008AE893E0D2CF0F931F93CF93DF93D82FF8
:10035000C62F8A01A09168038BE0A89FD0011124C9
:10036000A759BC4F1D921D921D921C92139781E0BC
:100370001A968C931A978D2F90E0FC01E85BFE4F44
:10038000E4911696EC931697FC01E257FE4FE49128
:10039000F0E0EE0FFF1FEC52FE4F85919491159601
:1003A0009C938E931497862F90E0FC01E85BFE4FA0
:1003B000E4911996EC931997FC01E257FE4FE491F2
:1003C000F0E0EE0FFF1FEC52FE4F859194911896CE
:1003D0009C938E93179760E08D2F0E94673A60E0A0
:1003E0008C2F0E94673A80916803813009F43FC0E6
:1003F000A8F0823009F462C0833009F486C080918D
:10040000680391E0980F90936803F801808390E06F
:1004100080E0DF91CF911F910F91089580E0D2305D
:1004200049F081E0D33031F08EEE8D0F8430D8F476
:1004300087E18D1B41E050E069E671E00E9454368F
:1004400080E0C23049F081E0C33031F08EEE8C0F95
:10045000843058F487E18C1B41E050E067E971E09B
:100460000E945436CCCF8FEFE5CF8FEFF5CF80E0F1
:10047000D23049F081E0D33031F08EEE8D0F8430F0
:10048000C8F487E18D1B41E050E06CE671E00E940A
:10049000543680E0C23049F081E0C33031F08EEE56
:1004A0008C0F843048F487E18C1B41E050E06AE90E
:1004B00071E0D6CF8FEFE7CF8FEFF7CF80E0D2306C
:1004C00049F081E0D33031F08EEE8D0F8430C8F4E6
:1004D00087E18D1B41E050E06FE671E00E945436E9
:1004E00080E0C23049F081E0C33031F08EEE8C0FF5
:1004F000843048F487E18C1B41E050E06DE971E005
:10050000AFCF8FEFE7CF8FEFF7CF80E0D23049F05A
:1005100081E0D33031F08EEE8D0F8430C8F487E166
:100520008D1B41E050E062E771E00E94543680E0AC
:10053000C23049F081E0C33031F08EEE8C0F843050
:1005400048F487E18C1B41E050E060EA71E088CF1D
:100550008FEFE7CF8FEFF7CF9BE0899FF00111245A
:10056000E759FC4F80819181A281B381FB01808397
:100570009183A283B38390E080E008959BE0899FFC
:10058000F0011124E759FC4F10821182128213826C
:1005900090E080E0089590E080E00895CF92DF92AF
:1005A000EF92FF92CF93882351F16A017B01CFEF45
:1005B000C80F20E030E0A901CB01B6010E948433CE
:1005C00018168CF0C701B60190580E94F8339B01B1
:1005D000AC016C2F70E090E080E0CF91FF90EF9045
:1005E000DF90CF90B2C0C701B6010E94F3338C2FC9
:1005F000CF91FF90EF90DF90CF900C942D39CF9159
:10060000FF90EF90DF90CF9008950F931F938B0191
:100610009C0183E036952795179507958A95D1F724
:100620000B561C4F462F477021E030E0F90102C005
:10063000EE0FFF1F4A95E2F7AF01F8012081242356
:10064000CB010196211102C090E080E01F910F9133
:1006500008950F931F938B019C0183E03695279596
:10066000179507958A95D1F7677081E090E001C0F2
:10067000880F6A95EAF7F801EB56FC4F2081452B6D
:1006800031F48095822380831F910F910895822BEE
:10069000FACF2F923F924F925F926F927F928F92FA
:1006A0009F92AF92BF92CF92DF92EF92FF920F9301
:1006B0001F93CF93DF93D62EC72E782E692E490134
:1006C0005A01280161E08D2D0E94673ACD2DDC2D65
:1006D0008E010F5F1F4FA8016D2D7C2D872D962D4C
:1006E000B8DF20E030E0A901C201B7010E94B035B7
:1006F000181664F4C201B7010E94F8332B01C5013A
:10070000B4010E94F833A201CE0123D0C801DF91C9
:10071000CF911F910F91FF90EF90DF90CF90BF90FE
:10072000AF909F908F907F906F905F904F903F9091
:100730002F900895882341F08150682F70E090E059
:1007400080E050E040E085CF0895862FB9010C94F9
:100750002D399C01FC01EE5FFE4FE491E150E23146
:10076000E0F4F0E08827E854FC4F8F4F0C948E3E65
:10077000CA03D103D403EB030004CD031504210401
:1007800025043C04510466047D049204CD03A704AF
:10079000BE04D30484B5806884BD60E0822F0C94CD
:1007A000A33A84B58062F8CF809180008C7F82600C
:1007B0008093800080918100807E8061682B6093AF
:1007C000810050938700409386008091800080686C
:1007D00080938000E2CF809180008C7F8260809344
:1007E000800080918100807E8061682B6093810011
:1007F0005093870040938600809180008062E8CF0C
:10080000809180008C7F8260809380008091810045
:10081000807E8061682B60938100509387004093B5
:100820008600809180008860D3CF8091B00080687E
:100830008093B0008091B100887F682B6093B100F5
:10084000ACCF8091B0008062F3CF809190008C7F1C
:1008500082608093900080919100807E8061682BFF
:100860006093910050939700409396008091900080
:1008700080688093900091CF809190008C7F8260FF
:100880008093900080919100807E8061682B6093BE
:100890009100509397004093960080919000806261
:1008A000E8CF809190008C7F82608093900080914F
:1008B0009100807E8061682B609391005093970037
:1008C00040939600809190008860D3CF8091A000E3
:1008D0008C7F82608093A0008091A100807E8061E7
:1008E000682B6093A1005093A7004093A6008091CD
:1008F000A00080688093A00050CF8091A0008C7FE2
:1009000082608093A0008091A100807E8061682B2E
:100910006093A1005093A7004093A6008091A0008F
:100920008062E8CF8091A0008C7F82608093A000DD
:100930008091A100807E8061682B6093A10050931C
:10094000A7004093A6008091A0008860D3CF80913B
:1009500020018C7F82608093200180912101807E24
:100960008061682B609321015093270140932601F9
:10097000809120018068809320010FCF8091200119
:100980008C7F82608093200180912101807E806134
:10099000682B609321015093270140932601809199
:1009A00020018062E8CF809120018C7F826080935B
:1009B000200180912101807E8061682B609321015C
:1009C0005093270140932601809120018860D3CF66
:1009D000611102C00C94673A6130E1F362E0FACF32
:1009E000662319F061E00C94A33A60E0FCCF90E03C
:1009F00080E008950F931F93009709F489C0611553
:100A0000710509F485C0009184021091850220913E
:100A10008602309187020E3F1F4F2F4F3F4F09F044
:100A200068C04FEF5FEFBA01409384025093850294
:100A300060938602709387024091840250918502F0
:100A40006091860270918702DC011296ED91FC9113
:100A500080819181A281B3818093130590931405C5
:100A6000A0931505B093160584819581A681B78161
:100A700080930F0590931005A0931105B093120574
:100A800080859185A285B38580930B0590930C0595
:100A9000A0930D05B0930E0584859585A685B78531
:100AA0008093070590930805A0930905B0930A0564
:100AB0001092030510920405109205051092060588
:100AC0000E94811586EA95E190939F0380939E038F
:100AD0009093A1038093A0030E947014009731F4B7
:100AE00021E030E030931805209317051F910F91F6
:100AF0000895009184021091850220918602309120
:100B00008702DB010D931D932D933C93139794CF94
:100B10008FEF9FEFEBCF8F929F92AF92BF92CF92CA
:100B2000DF92EF92FF921F93CF93DF934B015C0113
:100B300010911A0582E090E09093180580931705B4
:100B400081149104A104B10441F480911A0581112A
:100B500004C080911905C1E08111C0E0C12CD12CE5
:100B6000760180911A05811106C0809119058111C5
:100B700002C0CC23D9F083E090E0909318058093D5
:100B80001705CC2381F1CCE9DFEF111102C00E94DF
:100B90000B19CE01DF91CF911F91FF90EF90DF9065
:100BA000CF90BF90AF909F908F9008956AE070E0D3
:100BB00080E090E00E94953880E1C80E87E2D81E60
:100BC000E11CF11C8FEF88169806A806B80631F0D4
:100BD000C1E08C149D04AE04BF0408F0C0E080E0C6
:100BE0000E94A414BECFD0E0C0E0CFCFCF92DF925E
:100BF000EF92FF920F931F93CF93DF938F3F910557
:100C000011F008F051C020911705309118052330DC
:100C1000310539F020911705309118052130310543
:100C200031F424E030E030931805209317056A0171
:100C30007B01EC0182309105A8F011E0AE01C70103
:100C4000B6010E946F14AB01BC01CE011123F9F073
:100C5000DF91CF911F910F91FF90EF90DF90CF9098
:100C60000C94341B8C01000F111F02561C4FD8012D
:100C70008D919C91892B09F30E943E1B0297E9F606
:100C8000D801ED91FC91CE011995182FD7CF0E9474
:100C9000561B90E080E0DF91CF911F910F91FF9064
:100CA000EF90DF90CF9008958FEF9FEFF4CF80E02B
:100CB0000C94A414CF93DF9386E090E090931805F2
:100CC000809317050E94FD14EC01EEE9F3E084E047
:100CD000DF011D928A95E9F70E94A318109218056A
:100CE00010921705CE01DF91CF91089580911905DB
:100CF000089580910205089560938402709385029F
:100D0000809386029093870290E080E00895E091BE
:100D10004E04F0914F04AAECBBE098964D915D9182
:100D20006D917C919B9740835183628373839C96E2
:100D30008D919D910D90BC91A02D84839583A68368
:100D4000B7838091160C9091170CA091180CB0915C
:100D5000190C80879187A287B38780911A0C909194
:100D60001B0CA0911C0CB0911D0C84879587A68745
:100D7000B78780911E0C90911F0CA091200CB09110
:100D8000210C808B918BA28BB38B08952F923F9275
:100D90004F925F926F927F928F929F92AF92BF928B
:100DA000CF92DF92EF92FF920F931F93CF93DF9337
:100DB000CDB7DEB7AA970FB6F894DEBF0FBECDBF92
:100DC0008091D9049091DA048130910509F014C121
:100DD0006091C5047091C6048091C7049091C804C5
:100DE0006F5F7F4F8F4F9F4F0E9424342091C90423
:100DF0003091CA044091CB045091CC040E94B43588
:100E00006093D0037093D1038093D2039093D30364
:100E10008090400290904102A0904202B090430224
:100E20008092CA0B9092CB0BA092CC0BB092CD0BC0
:100E3000C0904402D0904502E0904602F0904702F4
:100E4000C092CE0BD092CF0BE092D00BF092D10B90
:100E500020913002309131024091320250913302A0
:100E6000C501B4010E94B4352B013C012091380228
:100E70003091390240913A0250913B02C701B601CC
:100E80000E94B4359B01AC01C301B2010E94203322
:100E90002091920B3091930B4091940B5091950BB4
:100EA0000E941F332B013C014092D20B5092D30B76
:100EB0006092D40B7092D50B2091340230913502A0
:100EC0004091360250913702C501B4010E94B435F9
:100ED0004B015C0120913C0230913D0240913E0269
:100EE00050913F02C701B6010E94B4359B01AC018D
:100EF000C501B4010E9420332091960B3091970BCD
:100F00004091980B5091990B0E941F336093D60B20
:100F10007093D70B8093D80B9093D90BA3019201B8
:100F2000609118027091190280911A0290911B022F
:100F30000E94B4356093DA0B7093DB0B8093DC0B6B
:100F40009093DD0BE091C603F091C70380819181FE
:100F5000019721F0809141048823D9F020E030E00E
:100F6000A90162E37CE081E090E00E940813892BF4
:100F700081F08091080290910902A0910A02B0913B
:100F80000B028093B60B9093B70BA093B80BB09362
:100F9000B90B2091B60B3091B70B4091B80B509123
:100FA000B90B6091DA0B7091DB0B8091DC0B9091A7
:100FB000DD0B0E9420336B017C01C092DE0BD092CE
:100FC000DF0BE092E00BF092E10B8090200290901A
:100FD0002102A0902202B0902302A50194010E9458
:100FE000B035181604F58092DE0B9092DF0BA092BC
:100FF000E00BB092E10B27C0892B09F0A3CFE09161
:101000000004F09101040190F081E02D8081918134
:10101000A281B381E091DC04F091DD0480839183AF
:10102000A283B3838FCF8090100290901102A09082
:101030001202B0901302A5019401C701B6010E94EB
:10104000843387FDD0CF2091D9043091DA043A83DC
:10105000298321303105D1F42091D60B3091D70B63
:101060004091D80B5091D90B60911C0270911D02D8
:1010700080911E0290911F020E94B4356093E20B92
:101080007093E30B8093E40B9093E50B2091BA0BE4
:101090003091BB0B4091BC0B5091BD0B6091E20BAA
:1010A0007091E30B8091E40B9091E50B0E9420334B
:1010B0006B017C01C092E60BD092E70BE092E80B4B
:1010C000F092E90B8090240290902502A0902602D5
:1010D000B0902702A50194010E94B03518164CF477
:1010E0008092E60B9092E70BA092E80BB092E90B8E
:1010F00010C08090140290901502A0901602B0903B
:101100001702A5019401C701B6010E94843387FD2F
:10111000E7CF6091DE0B7091DF0B8091E00B909137
:10112000E10BA981BA811197C1F46093EA0B709326
:10113000EB0B8093EC0B9093ED0B0091E60B109171
:10114000E70B2091E80B3091E90B0093EE0B109325
:10115000EF0B2093F00B3093F10B0E9461346B0185
:101160007C010E940713882309F4D9C5C12CD12C16
:1011700076016091E60B7091E70B8091E80B9091FE
:10118000E90B0E9461344B015C010E94071381113D
:10119000D6C5C501B4010E94C2128111D0C520E09C
:1011A00030E040E857E4C501B4010E947B344B01B4
:1011B0005C0120E030E0A9010E94843387FFC2C5B2
:1011C000C501B40190580E94F833EE27FF27E61BB3
:1011D000F70BFA83E9836CE070E080E090E015DAC9
:1011E0008C019093810B8093800B60917A027091B7
:1011F0007B0229813A816217730744F060917C0277
:1012000070917D02621773070CF4B90177FF02C079
:1012100070E060E06F3F710519F014F06FEF70E05F
:10122000072E000C880B990B0E942634AB01BC01E1
:10123000C801B4D920E030E0A901C701B6010E947D
:10124000843387FF86C5C701B60190580E94F833E2
:1012500022273327261B370BA0918202B0918302ED
:101260000E94963E4B015C0161E08091600290918A
:101270006102A0916202B091630288159905AA05E6
:10128000BB0509F460E088E0ABDBC0906402D0905D
:101290006502E0906602F0906702C814D904EA047F
:1012A000FB047CF0C0906802D0906902E0906A0272
:1012B000F0906B02C814D904EA04FB0414F475011D
:1012C000640169E070E080E090E09FD98C01909328
:1012D000790B8093780BC701B60197FF07C09095F3
:1012E0008095709561957F4F8F4F9F4F0E94263458
:1012F00020E030E040E858E30E94B4356B017C0107
:1013000020E030E04FE753E40E94843318160CF4D9
:1013100026C520E030E0A901C701B6010E94B03522
:1013200087FD24C5B701A601C80138D96AE070E07D
:1013300080E090E06AD98C019093690B8093680BF0
:1013400060916C0270916D0280916E0290916F02BB
:10135000681579058A059B057CF060917002709193
:1013600071028091720290917302681579058A0565
:101370009B0514F4C501B4010E94263420E030E03E
:1013800040E858E30E94B4356B017C0120E030E076
:101390004FE753E40E94843318160CF4EBC420E0AA
:1013A00030E0A901C701B6010E94B03587FDE9C44C
:1013B000B701A601C801F2D86BE070E080E090E0D0
:1013C00024D98C019093710B8093700B80917E02D5
:1013D00090917F02A981BA818A179B0744F080917E
:1013E0008002909181028A179B070CF4CD0197FF30
:1013F00003C09195819591098F3F910519F014F0E3
:101400008FEF90E0BC01990F880B990B0E94263456
:10141000AB01BC01C801C2D861E080917802909113
:101420007902E981FA818E179F0709F460E08DE067
:10143000D7DA8091BE0B9091BF0BA091C00BB091F9
:10144000C10B8093FA0B9093FB0BA093FC0BB09312
:10145000FD0B8091C20B9091C30BA091C40BB09176
:10146000C50B8093FE0B9093FF0BA093000CB093E1
:10147000010C8091C60B9091C70BA091C80BB09145
:10148000C90B8093020C9093030CA093040CB093AF
:10149000050C8091D9049091DA040197A1F520916F
:1014A000D20B3091D30B4091D40B5091D50B60915E
:1014B00000027091010280910202909103020E9449
:1014C000B4356093F20B7093F30B8093F40B90930D
:1014D000F50B2091D60B3091D70B4091D80B509142
:1014E000D90B6091040270910502809106029091DF
:1014F00007020E94B4356093F60B7093F70B80934C
:10150000F80B9093F90BC0902802D0902902E0903C
:101510002A02F0902B02A701960160915D0B709159
:101520005E0B80915F0B9091600B0E948433882347
:1015300041F0C0925D0BD0925E0BE0925F0BF09297
:10154000600B80915C0B811110925C0B6EE27CE071
:101550008091610B01D8C0902C02D0902D02E090B8
:101560002E02F0902F02A70196016091510B70910D
:10157000520B8091530B9091540B0E94843388231B
:1015800041F0C092510BD092520BE092530BF0926B
:10159000540B8091500B81111092500B6AE27CE049
:1015A0008091550B0E94AC0260917402709175029B
:1015B00080917602909177020E94263420E030E0FC
:1015C00040E05AE20E94B4356B017C0160912E0C20
:1015D00070912F0C8091300C9091310C0E94263428
:1015E000A70196010E94B4352B013C014092060CE4
:1015F0005092070C6092080C7092090C60912A0CB2
:1016000070912B0C80912C0C90912D0C0E94263403
:10161000A70196010E94B4354B015C0180920A0C2F
:1016200090920B0CA0920C0CB0920D0C2091DC044B
:101630003091DD04388B2F87D901CD90DD90ED906E
:10164000FC90B0919A0BB98BE0919B0BED8B309095
:101650009C0B20909D0BA70196016B2F7E2F832D55
:10166000922D0E94B03587FD90C3A701960160912D
:10167000A60B7091A70B8091A80B9091A90B0E94CB
:10168000B03587FD82C310920E0C10920F0C109291
:10169000100C1092110C1092120C1092130C10924C
:1016A000140C1092150CC0900E0CD0900F0CE09002
:1016B000100CF090110C4090120C5090130C609094
:1016C000140C7090150C20914C0230914D024091F9
:1016D0004E0250914F02C701B6010E94B4354B0132
:1016E0005C01209154023091550240915602509174
:1016F0005702C301B2010E94B4359B01AC01C50180
:10170000B4010E9420334B015C018091020C909146
:10171000030CA091040CB091050C89839A83AB83D0
:10172000BC83BC01CD010E948833A50194010E94B5
:10173000B4356093160C7093170C8093180C90932B
:10174000190C69817A818B819C810E941736A501D1
:1017500094010E94B43560931A0C70931B0C809313
:101760001C0C90931D0C209150023091510240911D
:10177000520250915302C701B6010E94B4354B0189
:101780005C01209158023091590240915A025091C7
:101790005B02C301B2010E94B4359B01AC01C501DB
:1017A000B4010E94203360931E0C70931F0C809331
:1017B000200C9093210C8091D9049091DA04019728
:1017C00009F094C280912E0C90912F0CA091300CB6
:1017D000B091310C8093220C9093230CA093240C95
:1017E000B093250C80912A0C90912B0CA0912C0C7D
:1017F000B0912D0C8093260C9093270CA093280C6D
:10180000B093290CC092920BD092930BE092940B60
:10181000F092950B4092960B5092970B6092980B1A
:101820007092990B40903B0C50903C0C60903D0C9A
:1018300070903E0CA301920169897D89832D922DC0
:101840000E948433AF85B889CD90DD90ED90FC90F7
:1018500081110AC3C0929A0BD0929B0BE0929C0B11
:10186000F0929D0BEEE9FBE08091060C9091070C45
:10187000A091080CB091090C80839183A283B3835B
:1018800080910A0C90910B0CA0910C0CB0910D0C56
:1018900084839583A683B7834091C5045091C60481
:1018A0006091C7047091C80490E080E09FD9809156
:1018B000D9049091DA04019709F018C24091CD043F
:1018C0005091CE046091CF047091D00481E090E0FB
:1018D0008DD98091D9049091DA04019709F006C25C
:1018E000E0910004F09101040190F081E02D8081ED
:1018F0009181A281B3818D8B9E8BAF8BB88F8091AC
:10190000D0039091D103A091D203B091D3038D8FD6
:101910009E8FAF8FB8A3E091D403F091D503808060
:101920009180A280B380E0910404F09105041081BD
:101930000181E091C803F091C90320803180728059
:1019400063805480458096819B8FA781AC8FE09106
:10195000C603F091C7031182108284E1E12FF02FBA
:10196000D10101900D928A95E1F7E091FE03F0918B
:10197000FF0370826182CBD920E030E040E05FE37A
:10198000C501B4010E94B4356B017C013A8E298EE9
:101990007F86688A1D870E87F1017496FA8BE98B22
:1019A00019A30AA379826A823A862986E985FA858B
:1019B00081919191A191B191FA87E9878D839E835D
:1019C000AF83B887A981BA812D913D914D915D91E9
:1019D000BA83A983C701B6010E94B4352D813E8127
:1019E0004F8158850E942033E9A1FAA16193719338
:1019F00081939193FAA3E9A329893A8989859A85E4
:101A00002817390799F6E0910004F0910104A081AC
:101A1000B181BA83A983A70196016D897E898F89D7
:101A2000988D0E942033E981FA81608371838283DB
:101A30009383E091FE03F091FF0350824182A6D987
:101A400066D920E030E0A901C501B4010E94B43597
:101A500069A37AA38BA39CA320E030E040E45FE37A
:101A6000C501B4010E94B4356B017C0159824A82E0
:101A700019A70AA709811A817D826E82F1018191DD
:101A80009191A191B1911F01898B9A8BAB8BBC8BEA
:101A9000AD81BE816D917D918D919D91BE83AD8310
:101AA000F80141905190619071908F0129A13AA164
:101AB0004BA15CA10E94B4356DA37EA38FA398A710
:101AC000A7019601C301B2010E94B4359B01AC018C
:101AD0006DA17EA18FA198A50E94203329893A8902
:101AE0004B895C890E942033A9A5BAA56D937D938B
:101AF0008D939D93BAA7A9A7E985FA85E215F30509
:101B000009F0BCCFE0910004F09101042081318103
:101B10003E832D83A70196016D897E898F89988DDB
:101B20000E942033AD81BE816D937D938D939C93F4
:101B30001397E091FE03F091FF03BB8DB0832C8DD2
:101B4000218324D9E4D829E33EE843E65EE3C501D6
:101B5000B4010E94B4356D837E838F8398872BEA0E
:101B60003AEA4AEA5EE3C501B4010E94B4356D8BDE
:101B70007E8B8F8B988F29E33EE843EE5EE3C501B1
:101B8000B4010E94B435698B7A8B8B8B9C8B3B8D17
:101B900039A38C8D8AA3E98DFA8D81919191A191C0
:101BA000B191FA8FE98F89879A87AB87BC87AF8518
:101BB000B8896D917D918D919D91B88BAF87E981A9
:101BC000FA814190519061907190FA83E983A9A1C3
:101BD000BAA1CD90DD90ED90FD90BAA3A9A32D817F
:101BE0003E814F8158850E94B4354B015C012D899F
:101BF0003E894F89588DC301B2010E94B4359B01C3
:101C0000AC01C501B4010E9420334B015C0129895C
:101C10003A894B895C89C701B6010E94B4359B01A2
:101C2000AC01C501B4010E94203329853A854B855A
:101C30005C850E942033ED85FE85619371938193CD
:101C40009193FE87ED87298D3A8D2216330609F090
:101C5000A2CFE0910004F09101040190F081E02D09
:101C60008D8D9E8DAF8DB8A180839183A283B38328
:101C7000E091C603F091C70381E090E091838083F7
:101C80008091C5049091C604A091C704B091C80486
:101C90000196A11DB11D8093C5049093C604A09325
:101CA000C704B093C8048091D0039091D103A09150
:101CB000D203B091D303E091DC04F091DD04808382
:101CC0009183A283B3838091CD049091CE04A0919F
:101CD000CF04B091D0040196A11DB11D8093CD0415
:101CE0009093CE04A093CF04B093D004AA960FB6DD
:101CF000F894DEBF0FBECDBFDF91CF911F910F9142
:101D0000FF90EF90DF90CF90BF90AF909F908F901B
:101D10007F906F905F904F903F902F900895C701F4
:101D2000B60130D4811122CA20E030E040E857E407
:101D3000C701B6010E947B346B017C011ACA812C59
:101D4000912C5401C501B4010E94F8337A83698350
:101D500042CAC701B6010E94F8339B017DCAC12C5B
:101D6000D12C9FE7E92E93E4F92EDCCAC12CD12CAB
:101D70007601D8CAC12CD12C8FE7E82E83E4F82E47
:101D800017CBC12CD12C760113CBF091A60BF98384
:101D90002091A70B29873091A80B3D838091A90B37
:101DA0008D872F2F39854D81582F69897D89832D06
:101DB000922D0E948433A701960187FF45C0698157
:101DC00079858D819D850E94843387FD4AC09989DC
:101DD0009983AD89A9873D822D860EE91BE0298173
:101DE00039854D815D85C701B6010E941F336B01A6
:101DF0007C01D8012D913D914D915C91C301B201BF
:101E00000E941F33A70196010E948B3360930E0C32
:101E100070930F0C8093100C9093110CF801248197
:101E2000358146815781C501B4010E941F33A70146
:101E300096010E948B336093120C7093130C809365
:101E4000140C9093150C2FCC69897D89832D922DCC
:101E50000E94B03587FF05C0B989B983ED89E9874C
:101E6000BACF0AEA1BE0BBCF8090A60B9090A70BDD
:101E7000A090A80BB090A90BA5019401C301B201D9
:101E80000E94843381110BC0C092A60BD092A70B85
:101E9000E092A80BF092A90BEAEAFBE0E5CCA501E1
:101EA000940169897D89832D922D0E94843387FF57
:101EB000EBCFD0CC4F925F926F927F92AF92BF9256
:101EC000DF92EF92FF920F931F93CF93DF9384E003
:101ED00090E021D3E0ECF3E0A9EDB4E0B783A68372
:101EE0008CED94E0909301048093000409EC14E0DD
:101EF000158B048B2EE434E037AF26AF68E474E032
:101F000070930504609304042DEB34E030930304D4
:101F1000209302042FEB34E030930704209306044F
:101F20002AE434E030930904209308042CE434E0DC
:101F300030930B0420930A0440E554E05093470487
:101F400040934604F0932B04E0932A04F583E48342
:101F500021E030E02D933C9325EA34E0C5E5D4E060
:101F6000D901CD93DC93A9E6B4E0B093A804A09383
:101F7000A704ADE7B4E0B093AA04A093A904A1E933
:101F8000B4E0B093AC04A093AB04A6EBBBE0EB01D0
:101F9000B983A88365E47BE0EA01798368831092C2
:101FA000D1041092D2041092D3041092D404318739
:101FB0002087109241042DEB32E0338722872EEDEB
:101FC00034E0EC013983288340E050E060E87FEBA7
:101FD0004093D5045093D6046093D7047093D804EB
:101FE0004AE057ED63E27CE3E801488359836A8362
:101FF0007B834DEA54E083E0482E8AEE582E84E637
:10200000682E87EE782EEA01488259826A827B82A6
:1020100091E3492E9AEF592E612C91E9792E409245
:10202000B1045092B2046092B3047092B40462E4BA
:10203000462E62E1562E65E0662E77247394409218
:10204000B5045092B6046092B7047092B8047AEA6C
:10205000472E75EE572E7CE1672E78EC772E409256
:10206000B9045092BA046092BB047092BC04C4EBF1
:10207000D3E0D383C283E2EAF3E0F983E88382EC1E
:1020800092E0918380839383828395838483978373
:1020900086839187808793878287958784879787B0
:1020A0008687918B808B83EC94E09D838C835B830C
:1020B0004A833F832E8383E08093320CE0E0AE2E90
:1020C000E2E0BE2E409148025091490260914A02DE
:1020D00070914B02CAE4DBE04093920B5093930B58
:1020E0006093940B7093950B4093960B5093970BC2
:1020F0006093980B7093990BF5014085518562852B
:1021000073854D935D936D937C93139744855585AB
:102110006685778514964D935D936D937C931797A1
:1021200040915C0250915D0260915E0270915F028D
:1021300018964D935D936D937C931B971C964D93CE
:102140005D936D937C931F9750964D935D936D9324
:102150007C93539780913B0C90913C0CA0913D0C4B
:10216000B0913E0C80939A0B90939B0BA0939C0B89
:10217000B0939D0B8093A60B9093A70BA093A80BF5
:10218000B093A90B18AA412C512C3201439449AAAF
:102190005AAA6BAA7CAAE12CF12C8701A80197010D
:1021A0006CE070E080E090E00E9449039FAB8EAB52
:1021B000DD24D394DDAA10928A0B40928B0B5092AF
:1021C0008C0B60928D0B70928E0B61E088E00E9408
:1021D000E804D0928F0B18A649A65AA66BA67CA637
:1021E000A801970169E070E080E090E00E94490357
:1021F0009FA78EA7DDA6188E498E5A8E6B8E7C8E79
:10220000A80197016AE070E080E090E00E94490335
:102210009F8F8E8FDD8E18A249A25AA26BA27CA23C
:10222000A80197016BE070E080E090E00E94490314
:102230009FA38EA3DDA218AE49AE5AAE6BAE7CAEA4
:1022400061E08DE00E94E804DDAE1F8A1C86F50186
:1022500080A591A5A2A5B3A58B8B9C8BAD8BBE8BC6
:102260004D865E866F86788A41E65BE063E182E1B7
:102270000E94A301D98A1A8A8F890E94BE021B86F6
:102280001882F50184A595A5A6A5B7A58F83988783
:10229000A987BA8749825A826B827C8245E55BE0D6
:1022A00063E082E00E94A301DD821E828B85DF91C4
:1022B000CF911F910F91FF90EF90DF90BF90AF9063
:1022C0007F906F905F904F900C94BE0280917A0B3C
:1022D00081112EC081E080937A0B80917B0B9091CD
:1022E0007C0BA0917D0BB0917E0B0197A105B105F0
:1022F000F9F480917F0B8823D9F06CE070E080E0E6
:1023000090E00E9405039093810B8093800B40E046
:1023100050E0BA010E94CE026CE070E080E090E0F4
:102320000E9405039093810B8093800B0E949A0377
:1023300080918A0B811103C081E080938A0B809188
:10234000720B81112EC081E08093720B8091730B10
:102350009091740BA091750BB091760B0197A1052C
:10236000B105F9F48091770B8823D9F069E070E02A
:1023700080E090E00E9405039093790B8093780BA6
:1023800040E050E0BA010E94CE0269E070E080E0D7
:1023900090E00E9405039093790B8093780B0E9444
:1023A0009A038091620B81112EC081E08093620BB1
:1023B0008091630B9091640BA091650BB091660BBB
:1023C0000197A105B105F9F48091670B8823D9F035
:1023D0006AE070E080E090E00E9405039093690B52
:1023E0008093680B40E050E0BA010E94CE026AE0A0
:1023F00070E080E090E00E9405039093690B809369
:10240000680B0E949A0380916A0B81112EC081E0B3
:1024100080936A0B80916B0B90916C0BA0916D0B6C
:10242000B0916E0B0197A105B105F9F480916F0B86
:102430008823D9F06BE070E080E090E00E94050313
:102440009093710B8093700B40E050E0BA010E94B2
:10245000CE026BE070E080E090E00E940503909374
:10246000710B8093700B0E949A038091820B8111F3
:1024700003C081E08093820B8091560B811114C0C0
:1024800081E08093560B8091570B9091580BA0914F
:10249000590BB0915A0B0197A105B10529F4809110
:1024A0005B0B81110E94CB0280914A0B811114C0F9
:1024B00081E080934A0B80914B0B90914C0BA09143
:1024C0004D0BB0914E0B0197A105B10529F48091F8
:1024D0004F0B81110C94CB02089560E070E080E80E
:1024E0009FE7089560E070E080E89FE7089560E06E
:1024F00070E080E89FEF089560E070E080E89FEF73
:10250000089560E070E080EC9FEF089560E070E077
:1025100080EC9FEF0895F5DF60933F0C7093400CC3
:102520008093410C9093420CF1DF6093330C7093D5
:10253000340C8093350C9093360CCFDF60933B0CBA
:1025400070933C0C80933D0C90933E0CCBDF6093DA
:10255000370C7093380C8093390C90933A0CC7DF8A
:102560006093430C7093440C8093450C9093460CFD
:10257000C3DF6093470C7093480C8093490C909391
:102580004A0C0895CF92DF92EF92FF92CF936B01A6
:102590007C01AC019B0160913B0C70913C0C8091E3
:1025A0003D0C90913E0C0E948433C1E0882371F071
:1025B000A70196016091430C7091440C8091450CE9
:1025C0009091460C0E9484338111C0E08C2FCF91F2
:1025D000FF90EF90DF90CF9008950F931F938B01A2
:1025E0009C010027112720783F770115110520480D
:1025F0003F4749F4AB01BC016F77772781E0452B5A
:10260000462B472B09F480E01F910F910895E5CFE9
:102610008F929F92AF92BF92EF92FF920F931F9370
:10262000CF93DF93EC018B0149015A01FB01E0805C
:10263000FE2DF370FF2E20E030E0A901C501B401AA
:102640000E94B03518160CF441C020E030E0A9011A
:10265000C501B4010E94843387FD3AC080E094E054
:10266000F99EF0011124E853FD4FE80FF11D908110
:10267000219620E0C330D10518F4CB53DD4F2881DB
:10268000292349F0E694E694E1FE02C092FD03C0DE
:10269000E4FE02C095FD90E0292F220F220F822B2D
:1026A000F8018083892F8873A9F4977081E020E076
:1026B00009F480E0922FDF91CF911F910F91FF904D
:1026C000EF90BF90AF909F908F90089581E0C7CF1B
:1026D00082E0C5CF8FEF9FEFEECF4F925F926F9268
:1026E0007F928F929F92AF92BF92CF92DF92EF92A2
:1026F000FF920F931F93F8944090F2045090F304CC
:102700006090F4047090F504C090E604D090E70463
:10271000E090E804F090E9044130510509F0A4C0CC
:102720009B01AC01241935094609570929013A01D1
:102730000091EE041091EF042091F0043091F10427
:1027400048015901840C951CA61CB71C80169106E3
:10275000A206B306A0F40091EA041091EB042091C4
:10276000EC043091ED040F5F1F4F2F4F3F4F00934C
:10277000EA041093EB042093EC043093ED04809270
:10278000EE049092EF04A092F004B092F104009154
:10279000EA041091EB042091EC043091ED04809256
:1027A000F6049092F704A092F804B092F904009312
:1027B000FA041093FB042093FC043093FD0460930F
:1027C000F2047093F3048093F4049093F504A0E171
:1027D000B7E2A30192010E94B13E6C0D7D1D8E1DDA
:1027E0009F1D6093E6047093E7048093E804909340
:1027F000E9040091840210918502209186023091B3
:1028000087020F3F1F4F2F4F3F4FF1F0009184027F
:102810001091850220918602309187020E3F1F4F52
:102820002F4F3F4F89F0C0908402D0908502E090F6
:102830008602F090870221E08C149D04AE04BF0450
:1028400008F420E02093020578941F910F91FF90E7
:10285000EF90DF90CF90BF90AF909F908F907F9040
:102860006F905F904F9008954B015C01841895081C
:10287000A608B708A3019201261B370B480B590B7A
:102880006415750586059705D0F082169306A40693
:10289000B50640F420E030E0A90181149104A104C0
:1028A000B10491F4A0E1B7E20E94B13EA701960104
:1028B000261B370B480B590BCA01B901C5CF82162D
:1028C0009306A406B50670F7A0E1B7E2A50194014E
:1028D0000E94B13E6C0D7D1D8E1D9F1DB5CFFDCE9E
:1028E000CF93DF9300D01F92CDB7DEB71C821B823F
:1028F0001A8219821092FE041092FF0410920005B1
:1029000010920105BE016F5F7F4FCE0103960E94BA
:102910006D3169817A818B819C810E945B2A00974D
:1029200061F4BE016F5F7F4FCE0103960E94793143
:1029300069817A818B819C812FD50F900F900F90A8
:102940000F90DF91CF910895FF920F931F93CF9334
:10295000DF93082F60E070E0CB010E949538FF24E0
:10296000F3940E944429EC01892B89F010E0CE3FBA
:102970008FEFD80769F0002361F160E070E0CB01D0
:102980000E94953881E090E0892B59F322C011E034
:1029900026D5EC01892B21F0CE3F8FEFD80759F7D0
:1029A00011111EC011E0229609F410E00E94F428D3
:1029B000EC01892B21F0CE3F8FEFD807E1F6111102
:1029C00011C011E0CE3F8FEFD80709F410E00111DC
:1029D0000BC0CE01DF91CF911F910F91FF90089511
:1029E00011E0E4CF11E0F3CF60E070E0CB010E9492
:1029F00095381F25812F90E0C7CFCF93DF9380912B
:102A00000205882321F060E070E0CB014DD636D678
:102A1000D0E0C0E0892B71F06AE070E080E090E0E7
:102A20000E94953881E090DF29D62196C03D27E0AD
:102A3000D20781F728D60E94AF2A10921A05109269
:102A40001905109213051092140510921505109295
:102A5000160510920F051092100510921105109294
:102A6000120510920B0510920C0510920D05109294
:102A70000E05109207051092080510920905109294
:102A80000A05109203051092040510920505109294
:102A900006054EEF5FEF6FEF7FEF40938402509398
:102AA0008502609386027093870210920205E6EF1A
:102AB000F4E028E0DF011D922A95E9F71092F20474
:102AC0001092F3041092F4041092F5041092EE04A4
:102AD0001092EF041092F0041092F1041092EA04A4
:102AE0001092EB041092EC041092ED041092E604A4
:102AF0001092E7041092E8041092E904DF91CF915C
:102B0000089510922605109227051092280510921C
:102B100029051092250580912E0590912F059093FF
:102B2000240580932305109222051092210510920E
:102B30001D0510921E0510921F051092200510927F
:102B40002B0510922A0590E080E00895CF92DF9245
:102B5000EF92FF920F931F93CF938C01019709F08F
:102B600055C020912E0530912F058091230590911D
:102B7000240540912E0550912F0550932405409334
:102B800023052817390781F010922205109221059C
:102B900010921D0510921E0510921F05109220051F
:102BA00010922B0510922A0580912E0590912F05E9
:102BB000019761F580912A0590912B05892B21F4CD
:102BC00080918802811112C080912A0590912B0575
:102BD0000197E1F480911D0590911E05A0911F05BC
:102BE000B09120050197A105B10581F410921D0552
:102BF00010921E0510921F05109220051092880257
:102C000082E090E090932B0580932A0580912E0519
:102C100090912F05019709F01CC180914405909176
:102C200045058017910709F014C1809140059091E6
:102C30004105A0914205B0914305009709F409C1EF
:102C400020913F0521110DC0409140055091410553
:102C50006091420570914305452B462B472B09F4A3
:102C6000F8C020912A0530912B052230310509F05A
:102C7000F0C0209121052111ECC0FC01C080D18061
:102C8000E280F38080912505882309F4D3C08091E8
:102C9000310590913205892B09F4FEC02091310550
:102CA0003091320581E02230310509F080E0209139
:102CB000310530913205C1E02130310549F02091D4
:102CC000310530913205C1E02230310509F0C0E014
:102CD000882309F456C020913B0530913C05409172
:102CE0003D0550913E05C701B6010E94B03587FDF4
:102CF00014C020913B0530913C0540913D05509119
:102D00003E056091260570912705809128059091D8
:102D100029050E94843387FD22C020913B05309114
:102D20003C0540913D0550913E05C701B6010E940A
:102D3000B035181634F520913B0530913C05409193
:102D40003D0550913E0560912605709127058091C3
:102D50002805909129050E948433811112C0809129
:102D6000330590913405A0913505B0913605892B36
:102D70008A2B8B2B19F481E08093220581E08093CC
:102D80002105CC2309F456C020913B0530913C0528
:102D900040913D0550913E05C701B6010E94843324
:102DA00087FF14C020913B0530913C0540913D05C3
:102DB00050913E0560912605709127058091280568
:102DC000909129050E94B03587FF22C020913B05D4
:102DD00030913C0540913D0550913E05C701B6013B
:102DE0000E948433811126C020913B0530913C051F
:102DF00040913D0550913E05609126057091270553
:102E000080912805909129050E94B035181694F4F8
:102E10008091330590913405A0913505B091360528
:102E2000892B8A2B8B2B19F481E08093220581E07A
:102E30008093210581E090912105911180E080939C
:102E40002505C0922605D0922705E0922805F0922C
:102E500029050130110509F067C180912A0590917B
:102E60002B05892BD9F41092300510922105809101
:102E70008802882379F082E090E090932B0580937C
:102E80002A051092880220912E0530912F0581E0AD
:102E9000232BE9F080E01BC081E009CF109288026B
:102EA00080913005882349F01092220510922B055D
:102EB00010922A0510923005EDCF80912E05909149
:102EC0002F05892BE1F08091210510922105209199
:102ED0002A0530912B052230310509F45EC088F4B3
:102EE0002115310509F448C02130310509F4F3C03A
:102EF00010922205109221051092300538C081E011
:102F0000E6CF2330310509F4B1C02430310581F713
:102F100040911D0550911E0560911F05709120057F
:102F2000411551056105710561F041505109610973
:102F3000710940931D0550931E0560931F05709302
:102F4000200540911D0550911E0560911F0570914F
:102F50002005452B462B472BD9F420912C05309189
:102F60002D052130310509F046C01092220510923E
:102F70002B0510922A050CC080918802882341F00D
:102F800082E090E090932B0580932A0510928802AE
:102F900010921B0580912205CEC08823C9F3809131
:102FA000330590913405A0913505B091360518167A
:102FB00019061A061B060CF07DC080912E05909113
:102FC0002F05019709F076C0809133059091340563
:102FD000A0913505B091360580931D0590931E058F
:102FE000A0931F05B093200583E090E090932B05FC
:102FF00080932A05CDCF40913705509138056091D7
:10300000390570913A05452B462B472BA9F01092B4
:1030100022058091370590913805A0913905B0912E
:103020003A0580931D0590931E05A0931F05B0934C
:10303000200581E090E0DACF882399F08091890221
:1030400090918A02A0918B02B0918C0280931D0511
:1030500090931E05A0931F05B093200584E090E097
:10306000C5CF1092220582E090E0C0CF80911D056F
:1030700090911E05A0911F05B09120050097A10514
:10308000B10559F00197A109B10980931D059093ED
:103090001E05A0931F05B093200580911D059091FA
:1030A0001E05A0911F05B0912005892B8A2B8B2B23
:1030B00009F06ECF8091890290918A02A0918B02D3
:1030C000B0918C02892B8A2B8B2B09F44ECF81E097
:1030D00080932205B3CF40911D0550911E0560914C
:1030E0001F0570912005411551056105710561F0BD
:1030F000415051096109710940931D0550931E0506
:1031000060931F057093200540911D0550911E0589
:1031100060911F0570912005452B462B472B09F028
:1031200037CF8111C7CF9FCF80911B05882309F42A
:1031300031CF80911C05CF911F910F91FF90EF909F
:10314000DF90CF90089510922605109227051092D7
:103150002805109229051092250510922B05109232
:103160002A0510922405109223051092450510920D
:103170004405109222051092210510921D0510920F
:103180001E0510921F051092200510921C0510922A
:103190001B051092400510924105109242051092B5
:1031A000430510923F0510923B0510923C0510928A
:1031B0003D0510923E0588EE93E0A0E0B0E08093DC
:1031C000890290938A02A0938B02B0938C02109292
:1031D0003705109238051092390510923A05109271
:1031E0003305109234051092350510923605109271
:1031F00032051092310581E08093880210923005EB
:1032000010922F0510922E0510922D0510922C056C
:1032100090E080E0089580912E0590912F05892BF4
:1032200019F580918802882351F080913005811131
:1032300006C081E080931C0580931B0508952091B2
:1032400030053091880281E090E0332311F090E066
:1032500080E030E082239323892B21F010921C051B
:1032600081E0EACF10921B05089582E090E0FA0118
:10327000918380838FEF9FEF0895CF93DF93EA01CF
:10328000009711F00E94CF2B1982188290E080E005
:10329000DF91CF910895DB01009719F48FEF8C93A4
:1032A00008952EEF2C93FC013F96EF30F10508F0C6
:1032B00034C08827E15AF64E8F4F0C948E3E8B19FE
:1032C00089198719851983197F1981197D197B1926
:1032D0007919761972196E1974198D1980E311967E
:1032E0008C93089589E2FBCF82E2F9CF11961C926C
:1032F000089583E2F4CF81E2F2CF81E1F0CF87E25B
:10330000EECF8AE2ECCF80E1EACF84E2E8CF88E238
:10331000E6CF86E2E4CF81E3E2CF80E2E0CF8091A6
:10332000520590915305089590935305809352054B
:10333000089580915105089590915105892B8093AE
:1033400051050895982F9095809151058923809378
:103350005105089580915005089580914E059091F2
:103360004F0508956115710559F0FB0130E020E02B
:1033700070E060E02417350719F06115710511F050
:10338000CB010895A081B181A817B90709F4BF0145
:103390002F5F3F4F3696EECF8091540581111CC0B0
:1033A00060D266D290934705809346050E94CD2354
:1033B0000E94DF2390934B0580934A050E945C286E
:1033C0000E946328909349058093480581E080938B
:1033D000540590E080E0089584EF9FEF08958F9268
:1033E0009F92AF92BF92CF92DF92EF92FF920F9394
:1033F0001F93CF93DF9300D000D000D01F92CDB7A2
:10340000DEB71A86198618861F821E821D821C82CC
:103410001B821A8219828091540507EF1FEF8823BF
:1034200009F49CC08E010D5F1F4F9E012B5F3F4F23
:10343000AE01495F5F4FBE01675F7F4F90E080E064
:103440000E94E0298C01009721F00596029708F070
:10345000DBC029853A852115310509F402C1ED80CB
:10346000FE804B815C81B701640F751F8F81988549
:103470008617970708F4F5C0E20EF31ED7019C915A
:10348000903C09F07FC04230510508F47BC0119692
:103490008C914091520550915305452B09F49CC0E5
:1034A000913F08F071C02CE1290F2D3008F48BC03A
:1034B0002DE2290F203108F489C0903C21F481507D
:1034C000823008F483C088E3890F8B3008F481C010
:1034D0009BE4C92E99E1D92EE5E3F9E16D817E8166
:1034E000AE014F5F5F4F89859A8519955C01C114C4
:1034F000D104A1F189809A808114910479F18B81A2
:103500009C818815990508F487C010E000E04B8184
:103510005C8170E060E0C7010E94C43E01151105A6
:10352000E9F449815A8169857A858D819E81680F88
:10353000791FC501F6011995E980FA800D811E8178
:103540002F81388549855A856FEF7FEF81E090E0C4
:103550000E947B298C01892B09F056C0C8012A964C
:103560000FB6F894DEBF0FBECDBFDF91CF911F9194
:103570000F91FF90EF90DF90CF90BF90AF909F9012
:103580008F90089580E085CF30E020E0220F331F38
:10359000F901EA5BFA4F0190F081E02D309709F4D0
:1035A00097CF892F90E01995009709F491CFDC010E
:1035B0001296ED91FC9113971496CD90DC90309774
:1035C00009F08CCF1FC021E030E0E0CF22E030E0F6
:1035D000DDCF23E030E0DACFD12CC12CEDE3F9E1EF
:1035E0009F3F09F07BCFE0914605F091470530976A
:1035F00021F4C90104EF1FEF0CC08FEF90E0199583
:103600000097A9F604EF1FEF89859A85009709F4C2
:10361000A5CF0E94CF2BA2CF0E94AA2A8C01898518
:103620009A850E94CF2B70E060E0C4010E94432A7B
:1036300098878F830E9478299E838D836F817885F8
:103640006115710559F0C8010E945B2D9A87898721
:1036500006EF1FEF892B09F058CF59CF08EF1FEF66
:1036600056CF08EF1FEFD0CF20915405222319F039
:1036700020E00C94E42387EF9FEF0895809152059A
:103680009091530508950E9468280E94C227F5D0A2
:10369000E6E4F5E088E0DF011D928A95E9F71092F3
:1036A000540590E080E008950C94202621E040E04D
:1036B00050E0BA010C94E42386E090E0FA01918393
:1036C000808390E080E0089547E050E068ED72E08C
:1036D00049CEDF92EF92FF920F931F93CF93DF9328
:1036E0008A01EC01C60FD71FE0905805F0905905EC
:1036F000D9800E94922AD816190678F082E090E0CC
:10370000F801918380838EEF9FEFDF91CF911F911E
:103710000F91FF90EF90DF900895EF2841F482E041
:1037200090E0F8019183808384EF9FEFEECF898151
:103730008093570590E00196F8019183808390E093
:1037400080E0E3CFCF93DF93EA010E94D126882364
:1037500021F00E949F2A0E94D22682E090E0998365
:1037600088838BEF9FEFDF91CF910895CF93DF9305
:10377000EB0186E0FB0111928A95E9F78FEF8883D0
:10378000D8DD8983E7DD8A83E8DD9D838C83DF9143
:10379000CF910895CF93DF93EA010E94D42681113F
:1037A00009C082E090E09983888385EF9FEFDF91E5
:1037B000CF91089590E080E0B7DD81E090E09983BB
:1037C000888390E080E0F3CF0F931F93CF93DF9334
:1037D000EA018C01060F171F0E94D42681110BC02D
:1037E00082E090E09983888385EF9FEFDF91CF910E
:1037F0001F910F910895F8018181823038F082E0A5
:1038000090E0998388838EEF9FEFF0CF81E090E086
:103810008BDD88E090E09983888390E080E0E6CFBC
:10382000CF93DF930097D1F4EB01FB01329686E052
:10383000DF011D928A95E9F78FEF888385E0898300
:103840001A820E94922A8B830E94912A9D838C83E4
:1038500081E08E838F83DF91CF910895DF91CF91A7
:103860001ACD84E69BE19093560580935505089503
:103870008091550590915605089510925605109225
:103880005505089580915805909159050895411165
:1038900005C0611571058105910561F060935805BA
:1038A0007093590580935A0590935B0540935C058E
:1038B00081E0089580E00895FF920F931F93CF93C6
:1038C000DF938A01EC01C60FD71FF9800E94922A6C
:1038D000F816190668F082E090E0F8019183808381
:1038E0008EEF9FEFDF91CF911F910F91FF90089581
:1038F0006C817D818E819F814B81C9DF811108C0E0
:1039000082E090E0F8019183808384EF9FEFEACF1B
:1039100089818093570590E00196F8019183808317
:1039200090E080E0DFCFCF93DF93EA01FC01E60F68
:10393000F71F64817581868197814381A8DF81119A
:1039400009C082E090E09983888384EF9FEFDF9144
:10395000CF91089581E090E09983888390E080E0A2
:10396000F6CFE8E5F5E04081518162817381480F2F
:10397000511D611D711D40835183628373830895BE
:10398000CF93C09157054C2F50E06091580570912E
:10399000590501960E94BB3E8C2FE3DF109257051C
:1039A000CF910895009799F4809158059091590509
:1039B0002FEFFB012083892B59F02091570530E030
:1039C0002F5F3F4F2417350719F4CB01D9CF63CCB4
:1039D0000895009799F480915805909159052FEF1B
:1039E000FB012083892B59F02091570530E02F5F90
:1039F0003F4F2417350719F4CB01C2CF4CCC0895A3
:103A000023E1AC01249FC001259F900D1124E0917A
:103A10006105F0916205E80FF91F2381348122507E
:103A2000310981E02230310508F080E008950F93DC
:103A30001F93CF93DF930091630510916405D0E04D
:103A4000C0E080E00C171D0749F491E0811190E07F
:103A5000892FDF91CF911F910F9108958111F5CF9B
:103A6000CE01CEDF2196EECFA0916105B091620527
:103A7000109729F12091630530916405821793070F
:103A8000F0F453E1589F9001599F300D1124A20F7B
:103A9000B31FED91FC911197309789F012968C919C
:103AA000681768F48DE0689FE00DF11D1124808196
:103AB0009181892B21F081E09281491708F080E003
:103AC00008959C0143E1429FC001439F900D112442
:103AD000E0916105F0916205E80FF91F838582305E
:103AE00091F481E090E06581768140918D02509162
:103AF0008E026417750711F490E080E0892B19F0AD
:103B000081E0232B09F080E00895FC01A081B181C0
:103B10008DE0689FA00DB11D112413964D915C910D
:103B200085859685489F9001499F300D589F300D9F
:103B30001124C9010196611103C0478144FD049617
:103B40000895EF92FF920F931F93CF93DF93EA01B3
:103B5000FC01E60FF71F02811381E480F5804F2DF1
:103B60006E2DC80181DF81110DC082E090E0998344
:103B700088838EEF9FEFDF91CF911F910F91FF9080
:103B8000EF900895C8013CDF882339F082E090E08F
:103B90009983888388EF9FEFEECF10939402009370
:103BA0009302E0929502F092960281E090E0998370
:103BB000888390E080E0DFCFCF92DF92EF92FF9298
:103BC0000F931F93CF93DF937A01EC01C60FD71F9A
:103BD000C0909302D09094020091950210919602A9
:103BE000412F602FC60140DF811110C082E090E0BC
:103BF000F701918380838AEF9FEFDF91CF911F912F
:103C00000F91FF90EF90DF90CF900895C601F8DEFE
:103C1000882341F082E090E0F7019183808388EF70
:103C20009FEFEBCF4C815D816E817F819A8189818D
:103C30008F3F41F082E090E0F701918380838EEF27
:103C40009FEFDBCFE3E1EC9D9001ED9D300D112462
:103C5000E0916105F0916205E20FF31F0190F081A0
:103C6000E02D2DE0029FE00DF11D11240190F08167
:103C7000E02D27E0129FE00DF11D11248083918338
:103C80008B81828343835483658376831F5F109384
:103C9000960281E090E0F7019183808390E080E0DC
:103CA000ACCFEF92FF920F931F93CF93DF937A01E4
:103CB0008C01060F171FC0916105D09162052097F6
:103CC00081F021E030E0F801828193814091630529
:103CD000509164058417950710F030E020E0232B05
:103CE00071F482E090E0F701918380838EEF9FEF83
:103CF000DF91CF911F910F91FF90EF90089543E1D5
:103D0000489F9001499F300D1124C20FD31F78DEC8
:103D1000882341F082E090E0F7019183808388EF6F
:103D20009FEFE6CFF8012481358120383105C8F6B0
:103D300087818111D6CF4181842F90E08F7E0097BB
:103D400041F082E090E0F7019183808386EF9FEF5E
:103D5000CFCF4F833E832D8326812887198622303B
:103D600010F421E0288721E030E0F701318320833F
:103D7000BFCF88E090E0FA019183808390E080E0FB
:103D80000895FB018FEF808381E181838FEF9FEFA7
:103D90009383828380E890E09583848316821782E0
:103DA0000895FB018FEF808391E091838283938359
:103DB000848384E3858381E090E0978386830895FC
:103DC000DF92EF92FF920F931F93CF93DF93EA015D
:103DD000FC01E60FF71F8181813071F082E090E0F5
:103DE000998388838FEF9FEFDF91CF911F910F9180
:103DF000FF90EF90DF90089582819381D480258198
:103E0000E680F780009161051091620501151105AA
:103E100039F482E090E0998388838CEF9FEFE4CFC0
:103E200040916305509164058417950738F082E04E
:103E300090E0998388838EEF9FEFD6CF892B39F05E
:103E400082E090E09983888386EF9FEFCDCF8D2D20
:103E50008D7FB1F72130A1F781E0D11006C091E04C
:103E6000E916F10431F080E004C0E2E0EE16F1045E
:103E7000D0F3882329F390E080E0C2DD882339F075
:103E800082E090E09983888388EF9FEFADCFF801BF
:103E9000D38681E08487F686E586108A178681E0DE
:103EA00090E09983888390E080E09ECF4CE050E0E2
:103EB00062E073E057CA8F929F92BF92CF92DF92D7
:103EC000EF92FF920F931F93CF93DF93EA01FC01D0
:103ED000E60FF71F828193810481B580E09161052F
:103EE000F0916205309791F482E090E099838883A5
:103EF0008CEF9FEFDF91CF911F910F91FF90EF908B
:103F0000DF90CF90BF909F908F9008952091630590
:103F1000309164058217930738F082E090E099832E
:103F200088838EEF9FEFE6CF23E1289F6001299FD2
:103F3000D00C1124EC0DFD1DE080F180E114F104A2
:103F400099F28281081748F78DE0089F80011124BB
:103F5000E00EF11EF70180819181892B29F6BB20AB
:103F6000E1F2F7E0BF9E40011124C4010E94962BAC
:103F7000F70191838083E0916105F0916205EC0D7A
:103F8000FD1D0190F081E02DE00FF11F80819181F6
:103F9000009739F482E090E0998388838DEF9FEF5A
:103FA000A9CFA40170E060E00E94C43E8091610549
:103FB00090916205C80ED91EF60180819181080F8B
:103FC000191FF801B28281E090E09983888390E024
:103FD00080E090CFAF92BF92CF92DF92FF920F938B
:103FE0001F93CF93DF93EA01FC01E60FF71F828155
:103FF0009381F4800091610510916205011511050E
:1040000081F482E090E0998388838CEF9FEFDF91C9
:10401000CF911F910F91FF90DF90CF90BF90AF9005
:10402000089520916305309164058217930738F055
:1040300082E090E0998388838EEF9FEFE8CF2FEFA7
:104040002F0D2C3FA8F723E1289F6001299FD00C5A
:1040500011240C0D1D1DF80180819181892B89F699
:10406000FDE0FF9E50011124C5010E94962BF8012E
:1040700091838083E0916105F0916205EC0DFD1D57
:1040800080819181009739F482E090E09983888360
:104090008DEF9FEFBCCFA50170E060E00E94C43EB1
:1040A000E0916105F0916205EC0DFD1DF28281E069
:1040B00090E09983888390E080E0A9CFCF92DF924F
:1040C000EF92FF920F931F93CF93DF93860F971F6B
:1040D000FC01028113818091610590916205892B19
:1040E00081F082E090E0FA01918380838CEF9FEF72
:1040F000DF91CF911F910F91FF90EF90DF90CF90C4
:104100000895C801B0E0A0E00197A109B1098F3F6F
:104110009F4FA105B10540F082E090E0FA01918344
:1041200080838EEF9FEFE4CF7A0183E1809F60016F
:10413000819FD00C1124C6010E94962BEC010097A0
:1041400041F482E090E0F701918380838DEF9FEF4F
:10415000CFCFA60170E060E00E94C43ED09362051C
:10416000C0936105109364050093630590E080E0BF
:104170002FEF3FEF41E061E070E08017910741F4DD
:1041800081E090E0F7019183808390E080E0B0CF00
:104190003A8B298B1B864C877E876D87188A1F86F2
:1041A00001966396EACFEF92FF921F93CF93DF932E
:1041B000EC0110E0F12CE12C6A811617B0F083E0DD
:1041C000689FB0011124AE014F5E5F4FC7010E948E
:1041D000FB2B009721F02FEF3FEF3A8B298BDF91DC
:1041E000CF911F91FF90EF900895612FCE018DDC4C
:1041F00061E070E00E94432AE816F90608F47C01A9
:104200001F5FDACFF89420915F053091600581E05F
:104210002115310509F080E0232B09F078940895E9
:104220002F923F924F925F926F927F928F929F92C6
:10423000AF92BF92CF92DF92EF92FF920F931F93B4
:10424000CF93DF933C01660E771EF3018281938149
:104250004C01B12CA12CC0916105D0916205209731
:1042600069F021E030E06091630570916405861784
:10427000970710F030E020E0232BD1F482E090E0AB
:10428000FA01918380838EEF9FEFDF91CF911F9191
:104290000F91FF90EF90DF90CF90BF90AF909F90E5
:1042A0008F907F906F905F904F903F902F900895E8
:1042B0008092970290929802A0929902B0929A02EC
:1042C00063E1689F9001699F300D1124C20FD31FD5
:1042D000F3018181833040F082E090E0FA01918324
:1042E000808386EF9FEFD1CF2A012B813C81232B46
:1042F000F1F4288139819F8191FF2EC0232B09F48D
:104300006FC0209166059A81422F490F5527551F8E
:10431000BA0141E050E06138710514F050E040E02E
:10432000452B09F45DC02A87920F90936605815052
:10433000823008F481C066DF882309F4D8C0F30115
:104340008181813009F48DC008F47BC0823009F48A
:10435000C6C090E080E0ADC0232B09F441C020919D
:1043600065059A81E22FE90FFF27FF1F41E050E02A
:10437000ED3FF10514F050E040E0452B89F12A872C
:10438000920F90936505D3CFA081B181A20FB31F87
:1043900011966C91060F111D0196295F3F4F8417EE
:1043A000950794F38D859E85089F1001099F300C19
:1043B000189F300C1124C114D104D1F48F8184FFD3
:1043C00017C00E94912AF5E02F0E311C21E08215C2
:1043D000930508F420E0A701435F5F4F21110EC051
:1043E00082E090E0F2019183808387EF9FEF4DCFD1
:1043F0000E94912A2FEF221A320AE8CF88819981F0
:10440000E80EF91EF70114830383FFEFCF1ADF0ACA
:104410007A018A818C151D0409F00CF48CCFE88197
:10442000F981EE0DFF1D428150E030E020E010E008
:1044300000E090E080E0B3CFF12CE12CD12CC12C36
:10444000E8CF81E090E09C838B83F1DA882309F444
:1044500080CF81E090E00E94941980E40E94A2192C
:1044600078CF89899A89019661F083E090E09C83F6
:104470008B8382E090E00E94941980E40E949C1952
:1044800068CF8D819E8120918D0230918E0282179E
:104490009307D1F46091910270919202AE014F5E48
:1044A0005F4F80918F02909190020E941A2D009789
:1044B000E1F2789422E030E0F20131832083892B0D
:1044C00099F08DEF9FEFE1CE89288A288B2869F635
:1044D000029758F6CE0167DE188A1F86E8CF82E081
:1044E00090E09C838B8335CF90E080E0CECE82E05D
:1044F00090E0F2019183808385EF9FEFC6CE8F928B
:104500009F92AF92BF92CF92DF92EF92FF920F9362
:104510001F93CF93DF93EA018C01060F171FF80159
:104520008181833098F082E090E09983888386EFE0
:104530009FEFDF91CF911F910F91FF90EF90DF9050
:10454000CF90BF90AF909F908F900895809161051C
:1045500090916205892B61F081E090E020916305E4
:1045600030916405232B11F490E080E0892B39F41D
:1045700082E090E0998388838EEF9FEFDACF42DE6E
:10458000882309F4E0C0F8018181813009F496C0E4
:10459000E8F0823099F42091630530916405E09150
:1045A0006105F091620590E080E041E050E028175D
:1045B000390709F0BEC03BDA811117C0789481E059
:1045C00090E09983888390E080E0B3CF20916305E9
:1045D00030916405E0916105F091620590E080E022
:1045E00041E050E02817390741F481E090E00E9453
:1045F000941980E40E94A219E1CF63817481672B32
:1046000011F05483438301967396ECCFE0916105DA
:10461000F0916205E00FF11F2381348122303105D2
:10462000D9F4218932892F3F3F4FB1F4258136815A
:1046300040918D0250918E022417350761F5AF012C
:104640004F5E5F4F609191027091920280918F0254
:10465000909190020E941A2DEFEFCE1ADE0AEE0A18
:10466000FE0A0D5E1F4F409163055091640570E096
:1046700060E0C416D506E606F70644F5009731F269
:104680007894892B09F49BCF82E090E0998388830A
:104690008DEF9FEF4ECFC114D104E104F104E1F698
:1046A00022303105C8F6CF017EDDE0916105F09141
:1046B0006205E00FF11F108A1786CECF10E000E0F0
:1046C00090E080E0C12CD12C7601CDCF0097C1F6CF
:1046D00010E000E0812C912C540183E0E82EF12CB5
:1046E0001AC0E0916105F0916205E00FF11F83812E
:1046F0009481029749F4F482E38282E090E00E9480
:10470000941980E40E949C19FFEF8F1A9F0AAF0A48
:10471000BF0A0D5E1F4F8091630590916405B0E064
:10472000A0E088169906AA06BB06DCF290E080E0BD
:10473000A7CF638174816230710511F45483438380
:104740000196739634CF82E090E09983888385EF59
:104750009FEFEFCE0097B9F48FEFFB01808320919C
:1047600097023091980243E1429FC001439F900D10
:104770001124E0916105F0916205E80FF91F82852F
:10478000FB01818308950C944B1988E090E0FA01B5
:104790009183808390E080E00895109260051092EC
:1047A0005F05E1E6F5E086E0DF011D928A95E9F715
:1047B00086E59FE190935E0580935D050895809165
:1047C0005D0590915E0508952F923F924F925F9202
:1047D0006F927F928F929F92AF92BF92CF92DF9211
:1047E000EF92FF920F931F93CF93DF93CDB7DEB776
:1047F0002F970FB6F894DEBF0FBECDBFF894E091AF
:104800005F05F09160053196F0936005E0935F05D8
:10481000789440906105509062054114510409F468
:104820000CC2E0916305F0916405EF2B09F405C219
:104830002D8749875A876B877C8798878F831201DA
:10484000B12CA12C10E000E08091630590916405EB
:10485000A816B90618F40115110529F1F8948091EC
:104860005F059091600501979093600580935F05C7
:104870007894C8012F960FB6F894DEBF0FBECDBF57
:10488000DF91CF911F910F91FF90EF90DF90CF902C
:10489000BF90AF909F908F907F906F905F904F9060
:1048A0003F902F9008957101E418F508D1011796F3
:1048B0008C91179781FD54C013968D919C911497FC
:1048C000039709F04DC015968D919C91EF81F88565
:1048D0008E179F0709F044C0B50190E080E07FD4B7
:1048E0008A8320916105309162053D832C833D854B
:1048F000332309F44CC04C815D81452B09F49AC1E6
:104900008091630590916405A816B90608F092C1DC
:10491000C501D7D88823E9F06C817D816E0D7F1D9C
:104920007D836C83DB011F968D919C91892B89F08F
:10493000D12CC12CF12CE12CAC81BD8112968C9133
:1049400012978E151F0409F094F450961C921E9233
:104950001F972A81222321F0B50190E080E041D405
:104960003FEFA31AB30A43E1240E311C6DCFAC8193
:10497000BD81ED91FC91EC0DFD1D858196810FD7D8
:10498000BFEFEB1AFB0AEDE0CE0ED11CD5CFEC81C8
:10499000FD81309709F44EC18091630590916405C3
:1049A000A816B90608F046C1EE0DFF1DFF87EE8779
:1049B000C50187D88B83882339F1AE85BF851F96C3
:1049C0008D919C915097019621E01D964D915C919F
:1049D0008417950709F020E02E831982712C10E0CE
:1049E00000E0AE85BF8512968C91781608F45DC004
:1049F000EE85FF85878590890196658576850E947D
:104A0000583E908B8787A5CFB1E0BE83E6CF99242F
:104A100093946BC08BD6F6019683858382C0D601B2
:104A2000ED90FC90B7E06B9EE00CF11C1124F701B7
:104A30006381748180818F3F61F121E030E002C0A9
:104A4000220F331F8A95E2F7C901092E000CAA0B29
:104A5000BB0BFB01408151816281738184239523CB
:104A6000A623B72321E0892B8A2B8B2B09F420E086
:104A7000D4012C93D70111968C91F60123853485AE
:104A8000820F932F911D880E991E148613866394AE
:104A90009BC0418150E0C4010E94BB3EEBCF998294
:104AA00006EF1FEFC5C01982C3C0F981F111A0CF75
:104AB000EDE07E9E70011124AE85BF85CD90DC9027
:104AC000CE0CDF1C15D49D838C83BB81BB2309F4E2
:104AD0009ECF81E0EE85FF8527853089232B09F065
:104AE00080E0982E882309F458C0672D8E859F8515
:104AF0000CD8D60118969C938E93179761E070E0BE
:104B0000C2D4EE85FF85218932892F3F320709F40F
:104B100081CFBC01C901CFD7D60116969C938E9345
:104B20001597D60115968D919C911697009709F4CB
:104B3000B6CFEC81FD818E0F9F1F1A969C938E93AA
:104B40001997AE85BF85ED91FC911197EE0EFF1E72
:104B5000F70121853285148613861A968C91870D6C
:104B6000D9018D93711016C0EE85FF85878184FF72
:104B700011C049855A856B857C85F9014183528333
:104B800063837483F701838594850496A80FB91F06
:104B900014861386F701B287A187D60115968D91E9
:104BA0009C911697892B09F443C0EE85FF852581DA
:104BB000368180918D0290918E022817390779F005
:104BC00019968D909C90612CD60112968C9112971B
:104BD000681608F424CF1A969C928E921997BE817B
:104BE000BB2309F460CF61E070E0F6018781908516
:104BF0004AD4D6011796ED90FC90189715964D91D2
:104C00005C91E1E0F0E0BA81BB2311F0F0E0E0E07C
:104C10000C811D819C01B501882799278E1B9F0B54
:104C20006AD38C01892B21F0F60185819681B7D555
:104C30007394D7CE0FEF1FEF8CCE10E000E00ECEB6
:104C40002F923F924F925F926F927F928F929F929C
:104C5000AF92BF92CF92DF92EF92FF920F931F938A
:104C6000CF93DF93809161059091620510E000E0A1
:104C7000892BA9F0C7DA0AEF1FEF882381F0209073
:104C8000630530906405C0916105D0916205D12C17
:104C9000C12C10E000E02C143D04A9F47894C80164
:104CA000DF91CF911F910F91FF90EF90DF90CF9008
:104CB000BF90AF909F908F907F906F905F904F903C
:104CC0003F902F900895C6010E94611D882309F12D
:104CD0008B819C810397E9F48F859889892BC9F092
:104CE000B60190E080E07BD221E030E0882311F033
:104CF00030E020E044245524421A530AB12CA12C60
:104D0000912C812C8A818815190409F038F4188AAD
:104D10001F864FEFC41AD40A6396BDCFE881F9818C
:104D2000EA0DFB1D85819681892BA1F161E070E080
:104D300087819085A8D33C01DBD28C01E881F98181
:104D4000EA0DFB1D8185928525813681200F311F5B
:104D5000AC01421B530B9A0147815085421B530BF8
:104D600070E060E00E94C43EE881F981EA0DFB1D1D
:104D7000E780F084458156819301B601C201BBD220
:104D80008C01892B39F0E881F981EA0DFB1D8581C1
:104D9000968105D55FEF851A950A8DE0A80EB11CA6
:104DA000B1CF30CA789408952F923F924F925F927C
:104DB0006F927F929F92AF92BF92CF92DF92EF92CB
:104DC000FF920F931F93CF93DF9300D000D0CDB706
:104DD000DEB7009161051091620599249394011545
:104DE000110509F43EC0A0906305B09064050ADA8D
:104DF000982E8823B1F110926205109261051092ED
:104E000064051092630510926505109266058FEF98
:104E10009FEFDC018093970290939802A0939902F0
:104E2000B0939A0278947FD31E830D83C12CD12C2A
:104E30007601C501B0E0A0E089839A83AB83BC838F
:104E400022242A94322C89819A81AB81BC81C81694
:104E5000D906EA06FB06F4F0C801A1D480E40E945A
:104E6000A219892D26960FB6F894DEBF0FBECDBFCE
:104E7000DF91CF911F910F91FF90EF90DF90CF9036
:104E8000BF90AF909F907F906F905F904F903F90BA
:104E90002F900895AD81BE8115968D919C911697A6
:104EA00020918D0230918E0282179307D1F4519692
:104EB0008D919C91EED5ED81FE8180819181B12C07
:104EC000A12C412C512C3201892B89F5BFEFCB1A33
:104ED000DB0AEB0AFB0AED81FE817396FE83ED830C
:104EE000B2CFC114D104E104F10429F7029718F7F5
:104EF000ED81FE81818992898F3F980709F029D53C
:104F0000AD81BE8152963C922E925197D4CF8A0D9C
:104F10009B1DDC018D919C91009709F040D4BFEF5F
:104F20004B1A5B0A6B0A7B0AEDE0AE0EB11CAD8139
:104F3000BE818D919C91119712964C9150E070E03A
:104F400060E044165506660677060CF328D4BECFFB
:104F5000CF93DF93EA0128DF811109C082E090E05E
:104F60009983888385EF9FEFDF91CF91089581E04A
:104F700090E00E94941981E090E09983888390E00A
:104F800080E0F2CF11DF10925E0510925D0508956A
:104F900042E050E06AE473E00C94B219FF920F9380
:104FA0001F93CF93DF938A01EC01C60FD71FF980BF
:104FB000B9D20897F816190671F068F082E090E00F
:104FC000F801918380838EEF9FEFDF91CF911F9146
:104FD0000F91FF9008956C817D818E819F814B811F
:104FE0000E94471C811108C082E090E0F801918383
:104FF000808384EF9FEFE9CFF9800E94421C4F2D00
:1050000050E0BE01685F7F4F0E94BB3E89810E94D5
:10501000B11C81E090E0F8019183808390E080E012
:10502000D4CFDF92EF92FF920F931F93CF93DF9332
:105030008A01EC01C60FD71F0E94421C7C01D98057
:1050400071D2DD2059F0029721E030E0D816190620
:1050500019F010F030E020E0232B79F482E090E0AA
:10506000F801918380838EEF9FEFDF91CF911F91A5
:105070000F91FF90EF90DF900895EF2841F482E0C8
:1050800090E0F8019183808384EF9FEFEECFF98069
:105090000E94421C4F2D50E0BE016E5F7F4F0E9468
:1050A000BB3E89810E94B11C81E090E0F8019183B0
:1050B000808390E080E0D9CF88EC97E290936805F8
:1050C000809367050895809167059091680508951C
:1050D0000895FC0111821082938382830895DB017D
:1050E0001D921C92DC011296ED91FC911397718335
:1050F000608313967C936E9312970895FC018081D0
:105100009181DB018D939C93A081B181109741F037
:105110008D919C9191838083892B11F4F383E28399
:105120000895FC0180819181DB018D939C93892BF3
:1051300011F473836283718360830895FC0111828B
:105140001082938382830895CF93DF931F921F92DF
:10515000CDB7DEB71A821982F894BE016F5F7F4F18
:105160008EE695E0CBDF89819A81009709F017D30D
:1051700089819A81892B89F7BE016F5F7F4F82E712
:1051800095E0BCDF89819A81009709F008D3898175
:105190009A81892B89F778940F900F90DF91CF91A6
:1051A0000895CF93DF931F921F92CDB7DEB71A8277
:1051B0001982F894BE016F5F7F4F8AE695E09EDF0B
:1051C00089819A81009709F0EAD289819A81892B95
:1051D00089F778940F900F90DF91CF91089581E037
:1051E000089590E080E00895EF92FF920F931F934F
:1051F000CF93DF931F921F92CDB7DEB71A82198229
:105200008091690507EF1FEF8823A1F1F894BE0193
:105210006F5F7F4F82E795E071DF789489819A8193
:10522000EE24E394F12C892B51F4F894BE016F5FC6
:105230007F4F8EE695E062DF7894F12CE12C898136
:105240009A810EEF1FEF0097A9F0FC014281538174
:1052500064E070E076D68C01892B61F0F894698166
:105260007A81C701880F991F880F991F82599A4F19
:1052700058DF7894C8010F900F90DF91CF911F9164
:105280000F91FF90EF9008950F931F93CF93DF93AB
:1052900000D01F92CDB7DEB71C821B821A82198202
:1052A0008091690507EF1FEF8823C1F0AE014D5FC4
:1052B0005F4F64E070E0CE010196B6D68C01892B79
:1052C00069F4E981FA818B819C8193838283F894CC
:1052D00069817A818AE695E002DF7894C8010F90AF
:1052E0000F900F900F90DF91CF911F910F91089524
:1052F000BBD7049608958F929F92AF92BF92CF92A0
:10530000DF92EF92FF920F931F93CF93DF931F9241
:105310001F92CDB7DEB71A821982BC016F5F7F4F33
:105320006330710598F0AA24AA94BA2CC5010F9095
:105330000F90DF91CF911F910F91FF90EF90DF9031
:10534000CF90BF90AF909F908F90089541155105D9
:1053500051F3480159018A016C01CADF881599058A
:1053600011F7E114F104F9F28E0D9F1DA816B9068C
:10537000D0F2809169058823F1F0F894B50164506A
:1053800071099701AE014F5F5F4FC8010496E1D6E6
:105390005C01892B71F489819A81F801938382835E
:1053A000C601880F991F880F991FB80182599A4F1B
:1053B00096DE7894BBCF87EFA82EBB24BA94B6CFE5
:1053C000AF92BF92CF92DF92EF92FF920F931F9313
:1053D000CF93DF931F921F92CDB7DEB71A82198247
:1053E000892B09F047C06115710509F443C04115C7
:1053F000510509F43FC02115310509F43BC00115E1
:105400001105C1F1809169058823B9F179016A011B
:105410005B01F894BE016F5F7F4F8AE695E06EDE18
:10542000789489819A81009759F1DC0112966D91E7
:105430007C91A8010496A6D68C01E981FA81D50158
:10544000ED93FC93828193810496F601918380838E
:105450004FDFD7018D939C93C8010F900F90DF9180
:10546000CF911F910F91FF90EF90DF90CF90BF9061
:10547000AF9008950FEF1FEFEFCF07EF1FEFECCFC7
:105480000EEF1FEFE9CFCF93DF93EC01672B71F4A1
:10549000F4D68C179D0760F0E7D62496C80FD91F65
:1054A000E6D68C0F9D1FDF91CF910895E3D6F1CF03
:1054B00090E080E0F8CF0F931F93CF93DF9320917C
:1054C000690521112BC08B01EC018EE695E001DE10
:1054D00082E795E0FEDD8AE695E0FBDD97D0009758
:1054E000C1F4CBD670E060E0CEDF4BE952E062E081
:1054F00070E081D1009769F480919B0290919C02A9
:10550000CED6B801CE0103D5009719F421E020933F
:105510006905DF91CF911F910F91089584EF9FEF5F
:10552000F8CFA8C6AAC6CF93DF93AAD6EC01892BE1
:1055300011F40ADE36DECE01DF91CF910895CF93CC
:10554000DF939ED6EC01892B09F4FEDDCE01DF91BD
:10555000CF91089580919B0290919C020895CF93E2
:10556000DF9380916905D0E0C0E08823D1F09CD61C
:10557000EC01892BB1F4E8DD14DE80919B0290915F
:105580009C02E7D1E8D2EC01892B59F48EE695E034
:10559000D5DD82E795E0D2DD8AE695E0CFDD109299
:1055A0006905CE01DF91CF910895EF92FF920F939D
:1055B0001F93CF93DF93EC017A018B010F5F1F4F95
:1055C0000E9DA0010F9D500D1E9D500D112470E0E9
:1055D00060E00E94C43E90E080E0F0E0E0E02FEF69
:1055E000E816F90639F4DF91CF911F910F91FF90E2
:1055F000EF9008951A8219822883309711F0D28390
:10560000C1830196FE01C00FD11FEACFCF92DF9276
:10561000EF92FF920F931F93CF93DF9303EE17E068
:105620000C7F43E050E06DE972E083EA92E01CD425
:105630008DE9E82E82E0F82E93EAC92E92E0D92E69
:10564000CAE8D8E0D7014D915D917D01F6016191E5
:1056500071916F01198308835D834C835B834A8357
:105660007F836E839B012F5F3F4F249FC001259F47
:10567000900D349F900D112499878887011511058D
:1056800011F0C80192DF88859985080F191F2A96A5
:10569000F3EAEF16F2E0FF06A9F6E8E7F5E088E6A0
:1056A00092E0DF019C011D9221503040E1F7109201
:1056B0007705109276051092A9081092A80810920A
:1056C000AD081092AC081092AB081092AA08109284
:1056D000AF081092AE081092B1081092B008109264
:1056E000B3081092B2081092B7081092B608109240
:1056F000B5081092B4081092B9081092B808109228
:10570000BB081092BA08109287081092860810926F
:1057100089081092880890E080E0DF91CF911F9176
:105720000F91FF90EF90DF90CF9008950097F1F0E8
:10573000F894A3EAB2E0EAE8F8E030E020E04D9126
:105740005D9148175907A8F04281538141155105D1
:1057500081F08AE0829FF001839FF00D1124E657CB
:10576000F74F80819181009759F4789490E080E020
:1057700008952F5F3F4F3A962330310501F7F5CF5B
:10578000DC0111966D917C917183608341505109C8
:1057900053834283FC012193CF01789408950097AD
:1057A00049F1DC018E91853041F4E0918808F09157
:1057B00089083097F9F0CD0119948530D8F4282F55
:1057C00030E0F8948FEF8C938AE0829FF001839F02
:1057D000F00D1124E657F74F8081918112969C932A
:1057E0008E931197B183A0838281938101969383D5
:1057F000828378940895CF92DF92EF92FF920F9375
:105800001F93CF93DF939C018BE795E08C7F41152D
:10581000510509F49BC02115310509F497C06115A4
:10582000710509F493C07A01AB01B9016D5F7F4F37
:105830006C7F9B012F5F3F4F249F8001259F100DA0
:10584000349F100D1124F8942091A8083091A908D4
:10585000232B59F42091B0083091B108211531055E
:1058600069F12017310708F058C02091B208309133
:10587000B308232B91F42091B0083091B108820F26
:10588000931F2091BA083091BB082115310509F406
:1058900041C02017310708F056C07894CFEFDFEFF2
:1058A00086EF9FEFF701D183C083DF91CF911F91E6
:1058B0000F91FF90EF90DF90CF900895C3E0D0E07C
:1058C000C0907605D090770525E632E02C193D0989
:1058D0002017310710F32AE02C9FF0012D9FF00DC7
:1058E0001124E657F74F9183808355834483538374
:1058F00042837783668311870087009709F055DE1E
:105900000C0D1D1D1093770500937605789490E09B
:1059100080E0C8CFC4E0D0E0D3CFC3E0D0E02AE03D
:105920002C9FF0012D9FF00D1124E657F74F918326
:1059300080835583448353834283778366830097B0
:1059400029F333DEE3CFC4E0D0E0E9CF8FEF9FEF60
:10595000ACCF9C010397029708F069C0F89484E0EB
:105960009AE0482F50E0241735070CF44DC091E021
:105970008AE0829FF001839FF00D1124E657F74FD4
:10598000118210821582148213821282178216826B
:105990009923B1F18091A8089091A908892BA9F4C5
:1059A0002091B0083091B1082115310571F0809136
:1059B000760590917705821B930B909377058093E2
:1059C00076051092B1081092B0088091B2089091BB
:1059D000B308892BA9F42091BA083091BB0821158E
:1059E000310571F08091760590917705821B930BBC
:1059F00090937705809376051092BB081092BA08B1
:105A0000789490E080E00895949FF001959FF00DC8
:105A10001124E657F74F40815181452B31F44085E1
:105A20005185452B11F481509CCF90E0A1CF8FEF91
:105A30009FEF08954115510549F1009739F161151E
:105A4000710521F1F8942091860830918708232B65
:105A5000B9F42091880830918908232B89F4909318
:105A600087088093860870938908609388087894E3
:105A700025E030E090E080E0FA0131832083089552
:105A800078942FEF3FEF86EF9FEFF6CF8FEF9FEFEA
:105A90000895059769F4F894109287081092860883
:105AA0001092890810928808789490E080E0089518
:105AB0008FEF9FEF08956115710519F4F0E0E0E0B4
:105AC00011C08530910581F4E0918608F091870836
:105AD0003097A1F3CB0101961995009779F3FC015A
