:1000000005C100000C94B1310C94DC310C94073222
:100010000C9432320C945D320C9488320C94B332CE
:100020000C94DE3224C1000022C1000020C1000077
:100030001EC100001CC100001AC1000018C1000050
:1000400016C1000014C1000012C1000010C1000060
:100050000EC100000CC100000AC100000C9409335D
:1000600006C100000C94DD360C94133700C100006B
:10007000FEC00000FCC00000FAC00000F8C0000094
:10008000F6C00000F4C00000F2C00000F0C00000A4
:100090000C9469370C949F37EAC00000E8C0000058
:1000A000E6C00000E4C00000E2C00000E0C00000C4
:1000B000DEC00000DCC00000DAC00000D8C00000D4
:1000C000D6C00000D4C000000C94F72C0C94F53777
:1000D0000C942B38CCC000000C9481380C94B738A9
:1000E000C6C0000000000A0B02090C0D0E08070331
:1000F00004010000000000000000000000000000FB
:1001000000000000000000000000000000000000EF
:1001100012111000000000000000000000000000AC
:100120000000000000000000000001021020200874
:100130000810204010204080020102010804020142
:1001400001020408102040808040201008040201B1
:10015000800402018040201008040201080402010A
:100160000102040810204080010204081020408091
:1001700005050505070508080808020202020A0A23
:100180000808040404040101010101010101030341
:10019000030303030303040707070C0C0C0C0C0CEC
:1001A0000C0C0202020206060606060606060B0BE9
:1001B0000B0B0B0B0B0B000020002300260029006B
:1001C0002C002F003200000100000301060109018C
:1001D00000002200250028002B002E0031003400F2
:1001E00002010000050108010B01000021002400AC
:1001F00027002A002D003000330001010000040117
:1002000007010A013C37C8375438E03811241FBEB3
:10021000CFEFD1E2DEBFCDBF00E00CBF13E0A0E026
:10022000B2E0E0E6F3E700E00BBF02C007900D92FA
:10023000AA37B107D9F72BE0AAE7B3E001C01D92B6
:10024000A434B207E1F711E0C6E0D1E000E006C057
:1002500021970109802FFE010E947139C230D10718
:1002600080E00807A9F70E94E92D0C94AE39C8CEAA
:10027000FC01A781B0858C9191858923A481B581EA
:100280009C9140815181628173812681922359F032
:1002900081110BC04F5F5F4F6F4F7F4F4083518382
:1002A0006283738308958111F5CF4150510961092B
:1002B0007109F4CF8BE793E0DBCF86E893E0D8CFEA
:1002C00081E993E0D5CF8CE993E0D2CFFC01A48102
:1002D000B5818C9196818923A781B0859C914081BD
:1002E0005181628173812185922359F0882359F0CD
:1002F0004F5F5F4F6F4F7F4F4083518362837383A4
:1003000008958823A9F34150510961097109F4CF77
:100310008BE793E0DBCF86E893E0D8CF81E993E0E9
:10032000D5CF8CE993E0D2CF0F931F93CF93DF9378
:10033000D82FC62F8A01A0917A038BE0A89FD00105
:100340001124A558BC4F1D921D921D921C9213970B
:1003500081E01A968C931A978D2F90E0FC01E65D50
:10036000FE4FE4911696EC931697FC01E059FE4F70
:10037000E491F0E0EE0FFF1FEA54FE4F8591949157
:1003800015969C938E931497862F90E0FC01E65D62
:10039000FE4FE4911996EC931997FC01E059FE4F3A
:1003A000E491F0E0EE0FFF1FEA54FE4F8591949127
:1003B00018969C938E93179760E08D2F0E944A3574
:1003C00060E08C2F0E944A3580917A03813009F4D5
:1003D0003FC0A8F0823009F462C0833009F486C0BF
:1003E00080917A0391E0980F90937A03F8018083CB
:1003F00090E080E0DF91CF911F910F91089580E010
:10040000D23049F081E0D33031F08EEE8D0F843060
:10041000D8F487E18D1B41E050E06AE571E00E946D
:10042000373180E0C23049F081E0C33031F08EEEE8
:100430008C0F843058F487E18C1B41E050E068E871
:1004400071E00E943731CCCF8FEFE5CF8FEFF5CF42
:1004500080E0D23049F081E0D33031F08EEE8D0F64
:100460008430C8F487E18D1B41E050E06DE571E018
:100470000E94373180E0C23049F081E0C33031F072
:100480008EEE8C0F843048F487E18C1B41E050E005
:100490006BE871E0D6CF8FEFE7CF8FEFF7CF80E03B
:1004A000D23049F081E0D33031F08EEE8D0F8430C0
:1004B000C8F487E18D1B41E050E060E671E00E94E6
:1004C000373180E0C23049F081E0C33031F08EEE48
:1004D0008C0F843048F487E18C1B41E050E06EE8DB
:1004E00071E0AFCF8FEFE7CF8FEFF7CF80E0D23063
:1004F00049F081E0D33031F08EEE8D0F8430C8F4B6
:1005000087E18D1B41E050E063E671E00E943731E6
:1005100080E0C23049F081E0C33031F08EEE8C0FC4
:10052000843048F487E18C1B41E050E061E971E0E0
:1005300088CF8FEFE7CF8FEFF7CF9BE0899FF00158
:100540001124E558FC4F80819181A281B381FB0188
:1005500080839183A283B38390E080E008959BE041
:10056000899FF0011124E558FC4F108211821282FC
:10057000138290E080E0089590E080E00895CF92AB
:10058000DF92EF92FF92CF93882351F16A017B01B2
:10059000CFEFC80F20E030E0A901CB01B6010E94E7
:1005A000DF2E18168CF0C701B60190580E94502F0C
:1005B0009B01AC016C2F70E090E080E0CF91FF9048
:1005C000EF90DF90CF90B2C0C701B6010E944B2FD1
:1005D0008C2FCF91FF90EF90DF90CF900C94103440
:1005E000CF91FF90EF90DF90CF9008950F931F93DE
:1005F0008B019C0183E036952795179507958A9581
:10060000D1F709551C4F462F477021E030E0F90122
:1006100002C0EE0FFF1F4A95E2F7AF01F8012081FB
:100620002423CB010196211102C090E080E01F91AC
:100630000F9108950F931F938B019C0183E03695D2
:100640002795179507958A95D1F7677081E090E017
:1006500001C0880F6A95EAF7F801E955FC4F20813F
:10066000452B31F48095822380831F910F9108954B
:10067000822BFACF2F923F924F925F926F927F928E
:100680008F929F92AF92BF92CF92DF92EF92FF92A2
:100690000F931F93CF93DF93D62EC72E782E692EFC
:1006A00049015A01280161E08D2D0E944A35CD2D66
:1006B000DC2D8E010F5F1F4FA8016D2D7C2D872D26
:1006C000962DB8DF20E030E0A901C201B7010E94F9
:1006D000CF30181664F4C201B7010E94502F2B01CD
:1006E000C501B4010E94502FA201CE0123D0C80140
:1006F000DF91CF911F910F91FF90EF90DF90CF90FE
:10070000BF90AF909F908F907F906F905F904F9031
:100710003F902F900895882341F08150682F70E01A
:1007200090E080E050E040E085CF0895862FB90149
:100730000C9410349C01FC01EC51FF4FE491E1500A
:10074000E231E0F4F0E08827E755FC4F8F4F0C943E
:100750007139BB03C203C503DC03F103BE03060406
:10076000120416042D04420457046E048304BE03CD
:100770009804AF04C40484B5806884BD60E0822F0F
:100780000C94863584B58062F8CF809180008C7F90
:1007900082608093800080918100807E8061682BE0
:1007A0006093810050938700409386008091800081
:1007B000806880938000E2CF809180008C7F82608F
:1007C0008093800080918100807E8061682B60939F
:1007D0008100509387004093860080918000806262
:1007E000E8CF809180008C7F826080938000809130
:1007F0008100807E8061682B609381005093870028
:1008000040938600809180008860D3CF8091B000B3
:1008100080688093B0008091B100887F682B6093DE
:10082000B100ACCF8091B0008062F3CF8091900096
:100830008C7F82608093900080919100807E8061A7
:10084000682B60939100509397004093960080919D
:10085000900080688093900091CF809190008C7F71
:1008600082608093900080919100807E8061682BEF
:100870006093910050939700409396008091900070
:100880008062E8CF809190008C7F8260809390009E
:1008900080919100807E8061682B609391005093DD
:1008A000970040939600809190008860D3CF80910C
:1008B000A0008C7F82608093A0008091A100807E48
:1008C0008061682B6093A1005093A7004093A6001D
:1008D0008091A00080688093A00050CF8091A000FC
:1008E0008C7F82608093A0008091A100807E8061D7
:1008F000682B6093A1005093A7004093A6008091BD
:10090000A0008062E8CF8091A0008C7F82608093FD
:10091000A0008091A100807E8061682B6093A1007F
:100920005093A7004093A6008091A0008860D3CF89
:10093000809120018C7F8260809320018091210131
:10094000807E8061682B6093210150932701409342
:100950002601809120018068809320010FCF809133
:1009600020018C7F82608093200180912101807E14
:100970008061682B609321015093270140932601E9
:10098000809120018062E8CF809120018C7F82607D
:100990008093200180912101807E8061682B60938B
:1009A0002101509327014093260180912001886006
:1009B000D3CF611102C00C944A356130E1F362E09B
:1009C000FACF662319F061E00C94863560E0FCCF25
:1009D00090E080E008950F931F93009709F489C079
:1009E0006115710509F485C000919C0210919D026A
:1009F00020919E0230919F020E3F1F4F2F4F3F4F7D
:100A000009F068C04FEF5FEFBA0140939C0250932A
:100A10009D0260939E0270939F0240919C025091B0
:100A20009D0260919E0270919F02DC011296ED91F1
:100A3000FC9180819181A281B3818093B6049093CF
:100A4000B704A093B804B093B90484819581A681BA
:100A5000B7818093B2049093B304A093B404B0938D
:100A6000B50480859185A285B3858093AE0490936B
:100A7000AF04A093B004B093B10484859585A68596
:100A8000B7858093AA049093AB04A093AC04B09371
:100A9000AD041092A6041092A7041092A80410921C
:100AA000A9040E94DB1080E091E19093B103809350
:100AB000B0039093B3038093B2030E94CA0F0097D0
:100AC00031F421E030E03093BB042093BA041F914D
:100AD0000F91089500919C0210919D0220919E0219
:100AE00030919F02DB010D931D932D933C9313973F
:100AF00094CF8FEF9FEFEBCF8F929F92AF92BF92E9
:100B0000CF92DF92EF92FF921F93CF93DF934B012F
:100B10005C011091BD0482E090E09093BB0480934F
:100B2000BA0481149104A104B10441F48091BD047C
:100B3000811104C08091BC04C1E08111C0E0C12CCE
:100B4000D12C76018091BD04811106C08091BC0436
:100B5000811102C0CC23D9F083E090E09093BB04D4
:100B60008093BA04CC2381F1CCE9DFEF111102C0EC
:100B70000E946514CE01DF91CF911F91FF90EF90FD
:100B8000DF90CF90BF90AF909F908F9008956AE0D4
:100B900070E080E090E00E94783380E1C80E87E248
:100BA000D81EE11CF11C8FEF88169806A806B8061F
:100BB00031F0C1E08C149D04AE04BF0408F0C0E025
:100BC00080E00E94FE0FBECFD0E0C0E0CFCFCF923A
:100BD000DF92EF92FF920F931F93CF93DF938F3F9C
:100BE000910511F008F051C02091BA043091BB0476
:100BF0002330310539F02091BA043091BB04213003
:100C0000310531F424E030E03093BB042093BA0482
:100C10006A017B01EC0182309105A8F011E0AE0180
:100C2000C701B6010E94C90FAB01BC01CE0111235F
:100C3000F9F0DF91CF911F910F91FF90EF90DF902E
:100C4000CF900C948E168C01000F111F00551C4F75
:100C5000D8018D919C91892B09F30E9498160297D7
:100C6000E9F6D801ED91FC91CE011995182FD7CF57
:100C70000E94B01690E080E0DF91CF911F910F911C
:100C8000FF90EF90DF90CF9008958FEF9FEFF4CF1C
:100C900080E00C94FE0FCF93DF9386E090E090937A
:100CA000BB048093BA040E945710EC01E0EBF3E020
:100CB00084E0DF011D928A95E9F70E94FD131092EE
:100CC000BB041092BA04CE01DF91CF9108958091B8
:100CD000BC0408958091A504089560939C027093CC
:100CE0009D0280939E0290939F0290E080E0089581
:100CF0002F923F924F925F926F927F928F929F922C
:100D0000AF92BF92CF92DF92EF92FF920F931F9319
:100D1000CF93DF93CDB7DEB72D970FB6F894DEBF34
:100D20000FBECDBFC0907002D0907102E0907202F1
:100D3000F0907302A701960160919B0A70919C0A42
:100D400080919D0A90919E0A0E94DF2E882341F097
:100D5000C0929B0AD0929C0AE0929D0AF0929E0A51
:100D600080919A0A811110929A0A66E27BE0809142
:100D70009F0AE3DBC0907402D0907502E090760287
:100D8000F0907702A701960160918F0A7091900A06
:100D90008091910A9091920A0E94DF2E882341F05F
:100DA000C0928F0AD092900AE092910AF092920A31
:100DB00080918E0A811110928E0A62E27BE080910E
:100DC000930ABBDB60918C0270918D0280918E0240
:100DD00090918F020E947E2F20E030E040E05AE2A6
:100DE0000E94D3306B017C016091260B7091270B20
:100DF0008091280B9091290B0E947E2FA7019601CC
:100E00000E94D3302B013C014092F60A5092F70A1F
:100E10006092F80A7092F90A6091220B7091230B8C
:100E20008091240B9091250B0E947E2FA7019601A3
:100E30000E94D3304B015C018092FA0A9092FB0A27
:100E4000A092FC0AB092FD0A20917F0430918004A8
:100E50003A872987D901CD90DD90ED90FC902090C4
:100E6000D00A3090D10AB091D20ABD87E091D30A5E
:100E7000EB87A7019601B1018B2F9E2F0E94CF30E7
:100E800087FD93C2A70196016091DC0A7091DD0A8B
:100E90008091DE0A9091DF0A0E94CF3087FD85C2E3
:100EA0001092FE0A1092FF0A1092000B1092010B92
:100EB0001092020B1092030B1092040B1092050B70
:100EC0000091E80A1091E90AE985FA85C080D1808D
:100ED000E280F380D801D4968D909D90AD90BC9027
:100EE000D797A7019601C501B4010E94DF2E87FFA5
:100EF000D3C21092060B1092070B1092080B10929F
:100F0000090B6091060B7091070B8091080B909173
:100F1000090B60930A0B70930B0B80930C0B90934F
:100F20000D0B60930E0B70930F0B8093100B90932F
:100F3000110B0091FE0A1091FF0A2091000B3091D5
:100F4000010B0093120B1093130B2093140B30938F
:100F5000150B0091020B1091030B2091040B3091A3
:100F6000050B0093160B1093170B2093180B30935F
:100F7000190B0E94B92F6B017C0108D78111A4C302
:100F8000C701B601BED681119FC320E030E040E822
:100F900057E4C701B6010E94D32F6B017C0120E00A
:100FA00030E0A9010E94DF2E87FF91C3C701B6017F
:100FB00090580E94502FEE27FF27E61BF70BFA836D
:100FC000E9838091260B9091270BA091280BB0917B
:100FD000290B80931A0B90931B0BA0931C0BB093BF
:100FE0001D0B8091220B9091230BA091240BB091AB
:100FF000250B80931E0B90931F0BA093200BB09397
:10100000210B6CE070E080E090E0F0DA8C019093CE
:10101000BF0A8093BE0A6091920270919302298167
:101020003A816217730744F06091940270919502BF
:10103000621773070CF4B90177FF02C070E060E03B
:101040006F3F710519F014F06FEF70E0072E000C80
:10105000880B990B0E947E2FAB01BC01C8018FDA6F
:10106000A0919A02B0919B0229813A810E9479391C
:101070004B015C0161E08091780290917902A0912E
:101080007A02B0917B0288159905AA05BB0509F47F
:1010900060E088E096DCC0907C02D0907D02E09019
:1010A0007E02F0907F02C814D904EA04FB047CF0AD
:1010B000C0908002D0908102E0908202F090830282
:1010C000C814D904EA04FB0414F47501640169E04E
:1010D00070E080E090E08ADA8C019093B70A809308
:1010E000B60AC701B60197FF07C090958095709525
:1010F00061957F4F8F4F9F4F0E947E2F20E030E001
:1011000040E858E30E94D3306B017C0120E030E0DE
:101110004FE753E40E94DF2E18160CF4DFC220E0E4
:1011200030E0A901C701B6010E94CF3087FDDDC2C2
:10113000B701A601C80123DA6AE070E080E090E020
:1011400055DA8C019093A70A8093A60A60918402D5
:1011500070918502809186029091870268157905C9
:101160008A059B057CF060918802709189028091CC
:101170008A0290918B02681579058A059B0514F403
:10118000C501B4010E947E2F20E030E040E858E322
:101190000E94D3306B017C0120E030E04FE753E444
:1011A0000E94DF2E18160CF4A4C220E030E0A90142
:1011B000C701B6010E94CF3087FDA2C2B701A601C8
:1011C000C801DDD96BE070E080E090E00FDA8C01BF
:1011D0009093AF0A8093AE0A809196029091970205
:1011E000A981BA818A179B0744F080919802909157
:1011F00099028A179B070CF4CD0197FF03C09195C4
:10120000819591098F3F910519F014F08FEF90E0CF
:10121000BC01990F880B990B0E947E2FAB01BC017A
:10122000C801ADD961E08091900290919102E9816D
:10123000FA818E179F0709F460E08DE0C2DB809190
:10124000D00A9091D10AA091D20AB091D30A898391
:101250009A83AB83BC834090320B5090330B6090E9
:10126000340B7090350BA3019201BC01CD010E949B
:10127000DF2EE0917F04F0918004811145C28081CE
:101280009181A281B3818093D00A9093D10AA093D7
:10129000D20AB093D30AE4EDFAE08091F60A909175
:1012A000F70AA091F80AB091F90A80839183A2838A
:1012B000B3838091FA0A9091FB0AA091FC0AB09145
:1012C000FD0A84839583A683B78340916C04509173
:1012D0006D0460916E0470916F0490E080E077DCA3
:1012E0004091740450917504609176047091770474
:1012F00081E090E06CDC60916C0470916D048091F1
:101300006E0490916F046F5F7F4F8F4F9F4F60937C
:101310006C0470936D0480936E0490936F04A0919D
:101320007F04B0918004BA83A9830E947C2F9B0123
:10133000AC0160917004709171048091720490917D
:1013400073040E94D330E981FA81608371838283C0
:1013500093838091740490917504A0917604B09168
:1013600077040196A11DB11D8093740490937504B8
:10137000A0937604B09377042D960FB6F894DEBF51
:101380000FBECDBFDF91CF911F910F91FF90EF90D6
:10139000DF90CF90BF90AF909F908F907F906F9095
:1013A0005F904F903F902F9008950091DC0A10912C
:1013B000DD0AF091DE0AF9832091DF0A2D8398017E
:1013C0004F2F5D81B1018D859B850E94DF2EA70186
:1013D000960187FF11C0B80189819D810E94DF2E8F
:1013E00087FD52C081013D8539838B858D83A4EDB6
:1013F000BAE0BC87AB8710C0B1018D859B850E9488
:10140000CF3087FF46C08101BD85B983EB85ED8371
:1014100024ED3AE03C872B87980149815D81C70123
:10142000B6010E947A2E6B017C01EB85FC85208140
:10143000318142815381C301B2010E947A2EA701FA
:1014400096010E94E32E6093FE0A7093FF0A809338
:10145000000B9093010BAB85BC8514962D913D91AB
:101460004D915C911797C501B4010E947A2EA70196
:1014700096010E94E32E6093020B7093030B8093FE
:10148000040B9093050B1CCD80EE9AE09C878B8714
:10149000C3CFA0EEBAE0ADCFA7019601F8016081FD
:1014A0007181828193810E94CF3087FF9BC0A70109
:1014B0009601C501B4010E94DF2E18160CF095C0EC
:1014C0002091F40A3091F50A3A8329835901AA0C34
:1014D000BB1CAA0CBB1C48018A0C9B1CA7019601D3
:1014E000D4016D917D918D919C910E94CF30B4E09B
:1014F000AB0EB11CA00EB11E18160CF066C0F4E0C5
:101500008F1A9108A7019601D40114966D917D91CF
:101510008D919C9117970E94CF3018160CF44AC0F9
:101520002090EA0A3090EB0A29813A813093F50A3B
:101530002093F40A220F331F220F331F3A87298783
:10154000F901E00FF11F40805180628073802C5FB1
:101550003F4F3A832983F901E00FF11F8081918188
:10156000A281B3818D839E83AF83B8879C01AD0137
:10157000C301B2010E94DF2E811146C0A301920176
:10158000C701B6010E94DF2E87FF34C0A985BA8546
:10159000A20DB31DBA83A9838D919D910D90BC912D
:1015A000A02D8093060B9093070BA093080BB0938C
:1015B000090BA7CCE981FA813197FA83E9839FCFA0
:1015C000E981FA813196FA83E983D5016D917D91A4
:1015D0008D919D915D01A70196010E94DF2E181645
:1015E0007CF79ECF1A8219829BCFECE0F0E0FA8361
:1015F000E98396CFE981FA812E0E3F1EF1018081A9
:101600009181A281B381CDCF29853A85220D331DE9
:10161000D9018D909D90AD90BC90E981FA812E0EFC
:101620003F1ED1018D919D910D90BC91A02D89837C
:101630009A83AB83BC839C01AD01C501B4010E94B8
:10164000DF2E8823C1F1A70196016D817E818F81F4
:1016500098850E947A2E6B017C01A30192016D8115
:101660007E818F8198850E947A2E9B01AC01C701F3
:10167000B6010E94E32E6B017C01AC019B0160E08E
:1016800070E080E89FE30E947A2E29813A814B81A5
:101690005C810E94D3302B013C01A5019401C7015C
:1016A000B6010E94D3309B01AC01C301B2010E947C
:1016B0007B2E4B015C018092060B9092070BA0924F
:1016C000080BB092090B1DCCC12CD12C7601C7019F
:1016D000B6010E94502F7A83698373CCC12CD12C20
:1016E0009FE7E92E93E4F92E23CDC12CD12C76016E
:1016F0001FCDC12CD12C8FE7E82E83E4F82E5ECDD0
:10170000C12CD12C76015ACD8090DC0A9090DD0A54
:10171000A090DE0AB090DF0AC080D180E280F38022
:10172000A5019401C301B2010E94DF2E81110BC0FB
:10173000C092DC0AD092DD0AE092DE0AF092DF0A63
:10174000E0EEFAE0AACDA501940169817A818B814E
:101750009C810E94DF2E87FFEBCFC092D00AD092EF
:10176000D10AE092D20AF092D30A95CD8F929F923D
:10177000AF92BF92DF92EF92FF920F931F93CF939E
:10178000DF9384E090E086D2E2EDF3E08CE794E032
:1017900097838683CFE7D4E0D0931304C0931204D9
:1017A00000E714E0158B048BF0933D04E0933C04B8
:1017B000F583E48321E030E0DC012D933C9385ED5B
:1017C00092E09387828721E834E03983288340E0E0
:1017D00050E060E271E440937804509379046093A0
:1017E0007A0470937B044AE057ED63E27CE3D8010E
:1017F0004D935D936D937C931397CAE5D4E088EF86
:101800009AEEABE2BAED88839983AA83BB838BE718
:1018100095EBAEE9B0E680935E0490935F04A093ED
:101820006004B093610482E796E2AEE4B5E580938C
:10183000620490936304A0936404B093650485EFFD
:1018400097EBADEDB2E28093660490936704A093AA
:101850006804B0936904A6ECB3E0B383A283E4EB1D
:10186000F3E01196FC93EE9387EE92E091838083F0
:1018700093838283958384839783868391878087EC
:10188000938782879587848797878687918B808BBC
:101890008AE694E015969C938E9314971396DC93A6
:1018A000CE93129717963C932E931697C8E8DAE0DA
:1018B00088E392E09093E90A8093E80A80E092E05E
:1018C0009093EB0A8093EA0A1092F50A1092F40AB8
:1018D0008091320B9091330BA091340BB091350B6A
:1018E0008093D00A9093D10AA093D20AB093D30ADE
:1018F0008093DC0A9093DD0AA093DE0AB093DF0A9E
:101900001F8A1C8600E712E0F80180819181A28184
:10191000B3818B8B9C8BAD8BBE8B812C912C540116
:1019200083948D869E86AF86B88A4FE95AE063E13C
:1019300082E10E949401DD24D394D98A1A8A8F8986
:101940000E94AF021B861882F80184819581A681CE
:10195000B7818F839887A987BA8789829A82AB8259
:10196000BC8243E95AE063E082E00E949401DD8298
:101970001E828B850E94AF0218AA89AA9AAAABAAD6
:10198000BCAAE12CF12C8701A80197016CE070E062
:1019900080E090E00E943A039FAB8EABDDAA1092EC
:1019A000C80A8092C90A9092CA0AA092CB0AB09241
:1019B000CC0A61E088E00E94D904D092CD0A18A632
:1019C00089A69AA6ABA6BCA6A801970169E070E01B
:1019D00080E090E00E943A039FA78EA7DDA6188EB4
:1019E000898E9A8EAB8EBC8EA80197016AE070E05A
:1019F00080E090E00E943A039F8F8E8FDD8E18A2C8
:101A000089A29AA2ABA2BCA2A80197016BE070E0E8
:101A100080E090E00E943A039FA38EA3DDA218AE5F
:101A200089AE9AAEABAEBCAE61E08DE00E94D90447
:101A3000DDAEDF91CF911F910F91FF90EF90DF907E
:101A4000BF90AF909F908F9008958091940A8111DC
:101A500014C081E08093940A8091950A9091960A2F
:101A6000A091970AB091980A0197A105B10529F4B0
:101A70008091990A81110E94BC028091880A81118B
:101A800014C081E08093880A8091890A90918A0A23
:101A9000A0918B0AB0918C0A0197A105B10529F498
:101AA00080918D0A81110E94BC028091B80A811137
:101AB0002EC081E08093B80A8091B90A9091BA0A49
:101AC000A091BB0AB091BC0A0197A105B105F9F438
:101AD0008091BD0A8823D9F06CE070E080E090E04E
:101AE0000E94F6029093BF0A8093BE0A40E050E045
:101AF000BA010E94BF026CE070E080E090E00E94BA
:101B0000F6029093BF0A8093BE0A0E948B038091D5
:101B1000C80A811103C081E08093C80A8091B00A8D
:101B200081112EC081E08093B00A8091B10A90911A
:101B3000B20AA091B30AB091B40A0197A105B10508
:101B4000F9F48091B50A8823D9F069E070E080E06B
:101B500090E00E94F6029093B70A8093B60A40E0A4
:101B600050E0BA010E94BF0269E070E080E090E0BE
:101B70000E94F6029093B70A8093B60A0E948B03E4
:101B80008091A00A81112EC081E08093A00A8091EB
:101B9000A10A9091A20AA091A30AB091A40A019768
:101BA000A105B105F9F48091A50A8823D9F06AE06E
:101BB00070E080E090E00E94F6029093A70A809384
:101BC000A60A40E050E0BA010E94BF026AE070E05D
:101BD00080E090E00E94F6029093A70A8093A60A04
:101BE0000E948B038091A80A81112EC081E080930E
:101BF000A80A8091A90A9091AA0AA091AB0AB09173
:101C0000AC0A0197A105B105F9F48091AD0A8823CA
:101C1000D9F06BE070E080E090E00E94F6029093D3
:101C2000AF0A8093AE0A40E050E0BA010E94BF02C2
:101C30006BE070E080E090E00E94F6029093AF0AC3
:101C40008093AE0A0E948B038091C00A811103C069
:101C500081E08093C00A089560E070E080E89FE72B
:101C6000089560E070E080E89FE7089560E070E02C
:101C700080E89FEF089560E070E080E89FEF0895AE
:101C800060E070E080EC9FEF089560E070E080EC31
:101C90009FEF0895F5DF6093360B7093370B8093B9
:101CA000380B9093390BF1DF60932A0B70932B0B59
:101CB00080932C0B90932D0BCFDF6093320B70939E
:101CC000330B8093340B9093350BCBDF60932E0B4B
:101CD00070932F0B8093300B9093310BC7DF609381
:101CE0003A0B70933B0B80933C0B90933D0BC3DFFF
:101CF00060933E0B70933F0B8093400B9093410B8E
:101D00000895CF92DF92EF92FF92CF936B017C0107
:101D1000AC019B016091320B7091330B8091340BBD
:101D20009091350B0E94DF2EC1E0882371F0A7014E
:101D3000960160913A0B70913B0B80913C0B909116
:101D40003D0B0E94DF2E8111C0E08C2FCF91FF90C0
:101D5000EF90DF90CF9008950F931F938B019C011C
:101D60000027112720783F770115110520483F47AC
:101D700049F4AB01BC016F77772781E0452B462BF7
:101D8000472B09F480E01F910F910895E5CF4F9202
:101D90005F926F927F928F929F92AF92BF92CF92FB
:101DA000DF92EF92FF920F931F93F8944090950467
:101DB000509096046090970470909804C0908904A5
:101DC000D0908A04E0908B04F0908C04413051054F
:101DD00009F0A4C09B01AC01241935094609570933
:101DE00029013A01009191041091920420919304E9
:101DF0003091940448015901840C951CA61CB71C11
:101E000080169106A206B306A0F400918D041091ED
:101E10008E0420918F04309190040F5F1F4F2F4F3D
:101E20003F4F00938D0410938E0420938F043093C2
:101E300090048092910490929204A0929304B092A4
:101E4000940400918D0410918E0420918F043091A0
:101E500090048092990490929A04A0929B04B0926C
:101E60009C0400939D0410939E0420939F04309340
:101E7000A0046093950470939604809397049093C4
:101E80009804A0E1B7E2A30192010E9494396C0D7D
:101E90007D1D8E1D9F1D6093890470938A0480931D
:101EA0008B0490938C0400919C0210919D022091D0
:101EB0009E0230919F020F3F1F4F2F4F3F4FF1F077
:101EC00000919C0210919D0220919E0230919F02F0
:101ED0000E3F1F4F2F4F3F4F89F0C0909C02D09074
:101EE0009D02E0909E02F0909F0221E08C149D04E0
:101EF000AE04BF0408F420E02093A50478941F9159
:101F00000F91FF90EF90DF90CF90BF90AF909F9098
:101F10008F907F906F905F904F9008954B015C0180
:101F200084189508A608B708A3019201261B370B51
:101F3000480B590B6415750586059705D0F0821678
:101F40009306A406B50640F420E030E0A901811410
:101F50009104A104B10491F4A0E1B7E20E94943984
:101F6000A7019601261B370B480B590BCA01B90173
:101F7000C5CF82169306A406B50670F7A0E1B7E2B6
:101F8000A50194010E9494396C0D7D1D8E1D9F1D2D
:101F9000B5CFFDCECF93DF9300D01F92CDB7DEB784
:101FA0001C821B821A8219821092A1041092A20430
:101FB0001092A3041092A404BE016F5F7F4FCE0164
:101FC00003960E94C72C69817A818B819C810E9433
:101FD000B525009761F4BE016F5F7F4FCE01039678
:101FE0000E94D32C69817A818B819C812FD50F909F
:101FF0000F900F900F90DF91CF910895FF920F9364
:102000001F93CF93DF93082F60E070E0CB010E9415
:102010007833FF24F3940E949E24EC01892B89F0ED
:1020200010E0CE3F8FEFD80769F0002361F160E048
:1020300070E0CB010E94783381E090E0892B59F366
:1020400022C011E026D5EC01892B21F0CE3F8FEF85
:10205000D80759F711111EC011E0229609F410E0BB
:102060000E944E24EC01892B21F0CE3F8FEFD80740
:10207000E1F6111111C011E0CE3F8FEFD80709F43E
:1020800010E001110BC0CE01DF91CF911F910F9194
:10209000FF90089511E0E4CF11E0F3CF60E070E02D
:1020A000CB010E9478331F25812F90E0C7CFCF93BB
:1020B000DF938091A504882321F060E070E0CB01DC
:1020C0004DD636D6D0E0C0E0892B71F06AE070E0E2
:1020D00080E090E00E94783381E090DF29D621965D
:1020E000C03D27E0D20781F728D60E94092610922A
:1020F000BD041092BC041092B6041092B704109262
:10210000B8041092B9041092B2041092B304109261
:10211000B4041092B5041092AE041092AF04109261
:10212000B0041092B1041092AA041092AB04109261
:10213000AC041092AD041092A6041092A704109261
:10214000A8041092A9044EEF5FEF6FEF7FEF40936A
:102150009C0250939D0260939E0270939F02109286
:10216000A504E9E9F4E028E0DF011D922A95E9F7EA
:10217000109295041092960410929704109298046D
:10218000109291041092920410929304109294046D
:1021900010928D0410928E0410928F04109290046D
:1021A0001092890410928A0410928B0410928C046D
:1021B000DF91CF9108951092C9041092CA04109231
:1021C000CB041092CC041092C8048091D104909159
:1021D000D2049093C7048093C6041092C504109251
:1021E000C4041092C0041092C1041092C204109250
:1021F000C3041092CE041092CD0490E080E00895C4
:10220000CF92DF92EF92FF920F931F93CF938C01A7
:10221000019709F055C02091D1043091D2048091EA
:10222000C6049091C7044091D1045091D2045093B8
:10223000C7044093C6042817390781F01092C504DB
:102240001092C4041092C0041092C1041092C204EF
:102250001092C3041092CE041092CD048091D10448
:102260009091D204019761F58091CD049091CE04B4
:10227000892B21F48091A002811112C08091CD049C
:102280009091CE040197E1F48091C0049091C10433
:10229000A091C204B091C3040197A105B10581F4D6
:1022A0001092C0041092C1041092C2041092C30490
:1022B0001092A00282E090E09093CE048093CD042F
:1022C0008091D1049091D204019709F01CC18091B2
:1022D000E7049091E8048017910709F014C18091F8
:1022E000E3049091E404A091E504B091E604009722
:1022F00009F409C12091E20421110DC04091E304C9
:102300005091E4046091E5047091E604452B462B5E
:10231000472B09F4F8C02091CD043091CE0422302F
:10232000310509F0F0C02091C4042111ECC0FC017A
:10233000C080D180E280F3808091C804882309F4B2
:10234000D3C08091D4049091D504892B09F4FEC0A8
:102350002091D4043091D50481E02230310509F078
:1023600080E02091D4043091D504C1E021303105C2
:1023700049F02091D4043091D504C1E022303105D8
:1023800009F0C0E0882309F456C02091DE043091A2
:10239000DF044091E0045091E104C701B6010E94BE
:1023A000CF3087FD14C02091DE043091DF044091CE
:1023B000E0045091E1046091C9047091CA048091D5
:1023C000CB049091CC040E94DF2E87FD22C0209187
:1023D000DE043091DF044091E0045091E104C70134
:1023E000B6010E94CF30181634F52091DE043091EA
:1023F000DF044091E0045091E1046091C9047091C0
:10240000CA048091CB049091CC040E94DF2E8111EC
:1024100012C08091D6049091D704A091D804B091B5
:10242000D904892B8A2B8B2B19F481E08093C50466
:1024300081E08093C404CC2309F456C02091DE04CB
:102440003091DF044091E0045091E104C701B601EE
:102450000E94DF2E87FF14C02091DE043091DF043C
:102460004091E0045091E1046091C9047091CA0464
:102470008091CB049091CC040E94CF3087FF22C082
:102480002091DE043091DF044091E0045091E1049A
:10249000C701B6010E94DF2E811126C02091DE0403
:1024A0003091DF044091E0045091E1046091C9044F
:1024B0007091CA048091CB049091CC040E94CF30DB
:1024C000181694F48091D6049091D704A091D80462
:1024D000B091D904892B8A2B8B2B19F481E080933E
:1024E000C50481E08093C40481E09091C4049111FB
:1024F00080E08093C804C092C904D092CA04E092DC
:10250000CB04F092CC040130110509F067C1809131
:10251000CD049091CE04892BD9F41092D30410925B
:10252000C4048091A002882379F082E090E0909327
:10253000CE048093CD041092A0022091D10430915A
:10254000D20481E0232BE9F080E01BC081E009CFB9
:102550001092A0028091D304882349F01092C50400
:102560001092CE041092CD041092D304EDCF80913E
:10257000D1049091D204892BE1F08091C40410928F
:10258000C4042091CD043091CE042230310509F4E9
:102590005EC088F42115310509F448C021303105A9
:1025A00009F4F3C01092C5041092C4041092D3042D
:1025B00038C081E0E6CF2330310509F4B1C02430C2
:1025C000310581F74091C0045091C1046091C2046B
:1025D0007091C304411551056105710561F04150C9
:1025E0005109610971094093C0045093C10460937B
:1025F000C2047093C3044091C0045091C10460911F
:10260000C2047091C304452B462B472BD9F420916B
:10261000CF043091D0042130310509F046C010922A
:10262000C5041092CE041092CD040CC08091A0027B
:10263000882341F082E090E09093CE048093CD0413
:102640001092A0021092BE048091C504CEC08823CF
:10265000C9F38091D6049091D704A091D804B09189
:10266000D904181619061A061B060CF07DC08091B5
:10267000D1049091D204019709F076C08091D604DC
:102680009091D704A091D804B091D9048093C0044C
:102690009093C104A093C204B093C30483E090E07C
:1026A0009093CE048093CD04CDCF4091DA04509125
:1026B000DB046091DC047091DD04452B462B472B35
:1026C000A9F01092C5048091DA049091DB04A091E6
:1026D000DC04B091DD048093C0049093C104A09306
:1026E000C204B093C30481E090E0DACF882399F06C
:1026F0008091A1029091A202A091A302B091A402A4
:102700008093C0049093C104A093C204B093C30407
:1027100084E090E0C5CF1092C50482E090E0C0CF85
:102720008091C0049091C104A091C204B091C304EF
:102730000097A105B10559F00197A109B10980934E
:10274000C0049093C104A093C204B093C3048091C9
:10275000C0049091C104A091C204B091C304892B1C
:102760008A2B8B2B09F06ECF8091A1029091A2024F
:10277000A091A302B091A402892B8A2B8B2B09F480
:102780004ECF81E08093C504B3CF4091C0045091F7
:10279000C1046091C2047091C304411551056105E3
:1027A000710561F041505109610971094093C004FC
:1027B0005093C1046093C2047093C3044091C00459
:1027C0005091C1046091C2047091C304452B462B03
:1027D000472B09F037CF8111C7CF9FCF8091BE041F
:1027E000882309F431CF8091BF04CF911F910F91BD
:1027F000FF90EF90DF90CF9008951092C90410924F
:10280000CA041092CB041092CC041092C804109207
:10281000CE041092CD041092C7041092C6041092F8
:10282000E8041092E7041092C5041092C4041092B8
:10283000C0041092C1041092C2041092C3041092FA
:10284000BF041092BE041092E3041092E4041092AC
:10285000E5041092E6041092E2041092DE04109255
:10286000DF041092E0041092E10488EE93E0A0E00F
:10287000B0E08093A1029093A202A093A302B09330
:10288000A4021092DA041092DB041092DC0410927D
:10289000DD041092D6041092D7041092D80410923E
:1028A000D9041092D5041092D40481E08093A00240
:1028B0001092D3041092D2041092D1041092D0043A
:1028C0001092CF0490E080E008958091D10490911F
:1028D000D204892B19F58091A002882351F08091B0
:1028E000D304811106C081E08093BF048093BE04AD
:1028F00008952091D3043091A00281E090E0332329
:1029000011F090E080E030E082239323892B21F0C6
:102910001092BF0481E0EACF1092BE04089582E0D5
:1029200090E0FA01918380838FEF9FEF0895CF931A
:10293000DF93EA01009711F00E942927198218827B
:1029400090E080E0DF91CF910895DB01009719F4CA
:102950008FEF8C9308952EEF2C93FC013F96EF3070
:10296000F10508F034C08827E754FB4E8F4F0C94D4
:102970007139E514E314E114DF14DD14D914DB1408
:10298000D714D514D314D014CC14C814CE14E7140F
:1029900080E311968C93089589E2FBCF82E2F9CF10
:1029A00011961C92089583E2F4CF81E2F2CF81E187
:1029B000F0CF87E2EECF8AE2ECCF80E1EACF84E28B
:1029C000E8CF88E2E6CF86E2E4CF81E3E2CF80E29F
:1029D000E0CF8091F5049091F60408959093F60469
:1029E0008093F50408958091F40408959091F4047F
:1029F000892B8093F4040895982F90958091F40486
:102A000089238093F40408958091F30408958091BC
:102A1000F1049091F20408956115710559F0FB01DC
:102A200030E020E070E060E02417350719F0611510
:102A3000710511F0CB010895A081B181A817B907E4
:102A400009F4BF012F5F3F4F3696EECF8091F70418
:102A500081111CC060D266D29093EA048093E9048D
:102A60000E94271F0E94391F9093EE048093ED046B
:102A70000E94B6230E94BD239093EC048093EB0444
:102A800081E08093F70490E080E0089584EF9FEF69
:102A900008958F929F92AF92BF92CF92DF92EF9262
:102AA000FF920F931F93CF93DF9300D000D000D0FD
:102AB0001F92CDB7DEB71A86198618861F821E822E
:102AC0001D821C821B821A8219828091F70407EFF3
:102AD0001FEF882309F49CC08E010D5F1F4F9E01DC
:102AE0002B5F3F4FAE01495F5F4FBE01675F7F4F76
:102AF00090E080E00E943A258C01009721F0059635
:102B0000029708F0DBC029853A852115310509F4C3
:102B100002C1ED80FE804B815C81B701640F751F9F
:102B20008F8198858617970708F4F5C0E20EF31E8B
:102B3000D7019C91903C09F07FC04230510508F4C8
:102B40007BC011968C914091F5045091F604452B71
:102B500009F49CC0913F08F071C02CE1290F2D3081
:102B600008F48BC02DE2290F203108F489C0903C75
:102B700021F48150823008F483C088E3890F8B30C0
:102B800008F481C095EAC92E94E1D92EEFE8F4E16A
:102B90006D817E81AE014F5F5F4F89859A85199562
:102BA0005C01C114D104A1F189809A80811491043F
:102BB00079F18B819C818815990508F487C010E014
:102BC00000E04B815C8170E060E0C7010E94A739A2
:102BD00001151105E9F449815A8169857A858D814C
:102BE0009E81680F791FC501F6011995E980FA8069
:102BF0000D811E812F81388549855A856FEF7FEFC2
:102C000081E090E00E94D5248C01892B09F056C008
:102C1000C8012A960FB6F894DEBF0FBECDBFDF9174
:102C2000CF911F910F91FF90EF90DF90CF90BF90C9
:102C3000AF909F908F90089580E085CF30E020E0A6
:102C4000220F331FF901E751FB4F0190F081E02D76
:102C5000309709F497CF892F90E01995009709F4E0
:102C600091CFDC011296ED91FC9113971496CD90C3
:102C7000DC90309709F08CCF1FC021E030E0E0CF2E
:102C800022E030E0DDCF23E030E0DACFD12CC12CE0
:102C9000E7E9F4E19F3F09F07BCFE091E904F0918F
:102CA000EA04309721F4C90104EF1FEF0CC08FEF45
:102CB00090E019950097A9F604EF1FEF89859A8592
:102CC000009709F4A5CF0E942927A2CF0E940426CD
:102CD0008C0189859A850E94292770E060E0C401F3
:102CE0000E949D2598878F830E94D2249E838D8386
:102CF0006F8178856115710559F0C8010E94B5286A
:102D00009A87898706EF1FEF892B09F058CF59CF93
:102D100008EF1FEF56CF08EF1FEFD0CF2091F70439
:102D2000222319F020E00C943E1F87EF9FEF0895B7
:102D30008091F5049091F60408950E94C2230E94A8
:102D40001C23F5D0E9EEF4E088E0DF011D928A95BE
:102D5000E9F71092F70490E080E008950C947A214E
:102D600021E040E050E0BA010C943E1F86E090E084
:102D7000FA019183808390E080E0089547E050E07D
:102D80006AEE72E049CEDF92EF92FF920F931F93AB
:102D9000CF93DF938A01EC01C60FD71FE090FB04AD
:102DA000F090FC04D9800E94EC25D816190678F022
:102DB00082E090E0F801918380838EEF9FEFDF91B6
:102DC000CF911F910F91FF90EF90DF900895EF2822
:102DD00041F482E090E0F8019183808384EF9FEFDB
:102DE000EECF89818093FA0490E00196F8019183F7
:102DF000808390E080E0E3CFCF93DF93EA010E94ED
:102E00002B22882321F00E94F9250E942C2282E0A7
:102E100090E0998388838BEF9FEFDF91CF910895A6
:102E2000CF93DF93EB0186E0FB0111928A95E9F7DE
:102E30008FEF8883D8DD8983E7DD8A83E8DD9D8392
:102E40008C83DF91CF910895CF93DF93EA010E94A5
:102E50002E22811109C082E090E09983888385EF5A
:102E60009FEFDF91CF91089590E080E0B7DD81E0A2
:102E700090E09983888390E080E0F3CF0F931F93D5
:102E8000CF93DF93EA018C01060F171F0E942E22B9
:102E900081110BC082E090E09983888385EF9FEFDA
:102EA000DF91CF911F910F910895F80181818230B8
:102EB00038F082E090E0998388838EEF9FEFF0CF27
:102EC00081E090E08BDD88E090E09983888390E05A
:102ED00080E0E6CFCF93DF930097D1F4EB01FB01C5
:102EE000329686E0DF011D928A95E9F78FEF88839D
:102EF00085E089831A820E94EC258B830E94EB2552
:102F00009D838C8381E08E838F83DF91CF910895A1
:102F1000DF91CF911ACD8EEB96E19093F9048093D7
:102F2000F80408958091F8049091F904089510929E
:102F3000F9041092F80408958091FB049091FC0428
:102F40000895411105C0611571058105910561F074
:102F50006093FB047093FC048093FD049093FE0443
:102F60004093FF0481E0089580E00895FF920F935D
:102F70001F93CF93DF938A01EC01C60FD71FF9800F
:102F80000E94EC25F816190668F082E090E0F8013E
:102F9000918380838EEF9FEFDF91CF911F910F91EF
:102FA000FF9008956C817D818E819F814B81C9DF67
:102FB000811108C082E090E0F8019183808384EF62
:102FC0009FEFEACF89818093FA0490E00196F8019F
:102FD0009183808390E080E0DFCFCF93DF93EA019D
:102FE000FC01E60FF71F648175818681978143811B
:102FF000A8DF811109C082E090E09983888384EF83
:103000009FEFDF91CF91089581E090E099838883CD
:1030100090E080E0F6CFEBEFF4E0408151816281F7
:103020007381480F511D611D711D4083518362835F
:1030300073830895CF93C091FA044C2F50E06091B0
:10304000FB047091FC0401960E949E398C2FE3DFF3
:103050001092FA04CF910895009799F48091FB049F
:103060009091FC042FEFFB012083892B59F02091D4
:10307000FA0430E02F5F3F4F2417350719F4CB01D6
:10308000D9CF63CC0895009799F48091FB04909177
:10309000FC042FEFFB012083892B59F02091FA04C7
:1030A00030E02F5F3F4F2417350719F4CB01C2CF13
:1030B0004CCC089523E1AC01249FC001259F900DC5
:1030C0001124E0910405F0910505E80FF91F238113
:1030D00034812250310981E02230310508F080E04E
:1030E00008950F931F93CF93DF93009106051091DE
:1030F0000705D0E0C0E080E00C171D0749F491E01F
:10310000811190E0892FDF91CF911F910F91089548
:103110008111F5CFCE01CEDF2196EECFA09104052F
:10312000B0910505109729F120910605309107050A
:1031300082179307F0F453E1589F9001599F300D87
:103140001124A20FB31FED91FC911197309789F0D4
:1031500012968C91681768F48DE0689FE00DF11D60
:10316000112480819181892B21F081E0928149177E
:1031700008F080E008959C0143E1429FC001439F15
:10318000900D1124E0910405F0910505E80FF91F59
:103190008385823091F481E090E065817681409171
:1031A000A5025091A6026417750711F490E080E023
:1031B000892B19F081E0232B09F080E00895FC01B0
:1031C000A081B1818DE0689FA00DB11D11241396DF
:1031D0004D915C9185859685489F9001499F300D62
:1031E000589F300D1124C9010196611103C0478118
:1031F00044FD04960895EF92FF920F931F93CF938F
:10320000DF93EA01FC01E60FF71F02811381E480DE
:10321000F5804F2D6E2DC80181DF81110DC082E038
:1032200090E0998388838EEF9FEFDF91CF911F917C
:103230000F91FF90EF900895C8013CDF882339F08B
:1032400082E090E09983888388EF9FEFEECF109320
:10325000AC020093AB02E092AD02F092AE0281E0CC
:1032600090E09983888390E080E0DFCFCF92DF9277
:10327000EF92FF920F931F93CF93DF937A01EC01AC
:10328000C60FD71FC090AB02D090AC020091AD0228
:103290001091AE02412F602FC60140DF811110C096
:1032A00082E090E0F701918380838AEF9FEFDF91C6
:1032B000CF911F910F91FF90EF90DF90CF900895E5
:1032C000C601F8DE882341F082E090E0F7019183A7
:1032D000808388EF9FEFEBCF4C815D816E817F8192
:1032E0009A8189818F3F41F082E090E0F7019183DC
:1032F00080838EEF9FEFDBCFE3E1EC9D9001ED9DAE
:10330000300D1124E0910405F0910505E20FF31F43
:103310000190F081E02D2DE0029FE00DF11D1124C0
:103320000190F081E02D27E0129FE00DF11D1124A6
:10333000808391838B8182834383548365837683E7
:103340001F5F1093AE0281E090E0F70191838083CC
:1033500090E080E0ACCFEF92FF920F931F93CF935A
:10336000DF937A018C01060F171FC0910405D091DD
:103370000505209781F021E030E0F80182819381FA
:1033800040910605509107058417950710F030E02D
:1033900020E0232B71F482E090E0F7019183808399
:1033A0008EEF9FEFDF91CF911F910F91FF90EF90E4
:1033B000089543E1489F9001499F300D1124C20FA9
:1033C000D31F78DE882341F082E090E0F7019183FB
:1033D000808388EF9FEFE6CFF80124813581203884
:1033E0003105C8F687818111D6CF4181842F90E0C5
:1033F0008F7E009741F082E090E0F7019183808317
:1034000086EF9FEFCFCF4F833E832D832681288782
:103410001986223010F421E0288721E030E0F701FE
:1034200031832083BFCF88E090E0FA0191838083CD
:1034300090E080E00895FB018FEF808381E181833C
:103440008FEF9FEF9383828380E890E0958384835E
:10345000168217820895FB018FEF808391E091839C
:1034600082839383848384E3858381E090E09783E0
:1034700086830895DF92EF92FF920F931F93CF936D
:10348000DF93EA01FC01E60FF71F8181813071F0C3
:1034900082E090E0998388838FEF9FEFDF91CF9157
:1034A0001F910F91FF90EF90DF900895828193819B
:1034B000D4802581E680F7800091040510910505F0
:1034C0000115110539F482E090E0998388838CEF2F
:1034D0009FEFE4CF409106055091070584179507AB
:1034E00038F082E090E0998388838EEF9FEFD6CF0B
:1034F000892B39F082E090E09983888386EF9FEFF3
:10350000CDCF8D2D8D7FB1F72130A1F781E0D11086
:1035100006C091E0E916F10431F080E004C0E2E079
:10352000EE16F104D0F3882329F390E080E0C2DDA9
:10353000882339F082E090E09983888388EF9FEFB9
:10354000ADCFF801D38681E08487F686E586108AC0
:10355000178681E090E09983888390E080E09ECF99
:103560004CE050E064E173E057CA8F929F92BF92A3
:10357000CF92DF92EF92FF920F931F93CF93DF933F
:10358000EA01FC01E60FF71F828193810481B58077
:10359000E0910405F0910505309791F482E090E008
:1035A000998388838CEF9FEFDF91CF911F910F91CB
:1035B000FF90EF90DF90CF90BF909F908F900895F5
:1035C00020910605309107058217930738F082E0B5
:1035D00090E0998388838EEF9FEFE6CF23E1289FC9
:1035E0006001299FD00C1124EC0DFD1DE080F180BD
:1035F000E114F10499F28281081748F78DE0089FE1
:1036000080011124E00EF11EF70180819181892B48
:1036100029F6BB20E1F2F7E0BF9E40011124C4016E
:103620000E94F026F70191838083E0910405F091D8
:103630000505EC0DFD1D0190F081E02DE00FF11F5F
:1036400080819181009739F482E090E099838883AA
:103650008DEF9FEFA9CFA40170E060E00E94A73931
:103660008091040590910505C80ED91EF601808150
:103670009181080F191FF801B28281E090E09983CF
:10368000888390E080E090CFAF92BF92CF92DF929C
:10369000FF920F931F93CF93DF93EA01FC01E60F94
:1036A000F71F82819381F480009104051091050534
:1036B0000115110581F482E090E0998388838CEFF5
:1036C0009FEFDF91CF911F910F91FF90DF90CF90EF
:1036D000BF90AF900895209106053091070582179D
:1036E000930738F082E090E0998388838EEF9FEF14
:1036F000E8CF2FEF2F0D2C3FA8F723E1289F600183
:10370000299FD00C11240C0D1D1DF8018081918181
:10371000892B89F6FDE0FF9E50011124C5010E940E
:10372000F026F80191838083E0910405F09105056E
:10373000EC0DFD1D80819181009739F482E090E0CD
:10374000998388838DEF9FEFBCCFA50170E060E087
:103750000E94A739E0910405F0910505EC0DFD1DCF
:10376000F28281E090E09983888390E080E0A9CFA5
:10377000CF92DF92EF92FF920F931F93CF93DF933D
:10378000860F971FFC01028113818091040590919F
:103790000505892B81F082E090E0FA019183808316
:1037A0008CEF9FEFDF91CF911F910F91FF90EF90E2
:1037B000DF90CF900895C801B0E0A0E00197A10983
:1037C000B1098F3F9F4FA105B10540F082E090E025
:1037D000FA01918380838EEF9FEFE4CF7A0183E13A
:1037E000809F6001819FD00C1124C6010E94F026A9
:1037F000EC01009741F482E090E0F701918380832F
:103800008DEF9FEFCFCFA60170E060E00E94A73957
:10381000D0930505C0930405109307050093060592
:1038200090E080E02FEF3FEF41E061E070E0801733
:10383000910741F481E090E0F7019183808390E06B
:1038400080E0B0CF3A8B298B1B864C877E876D87B3
:10385000188A1F8601966396EACFEF92FF921F9314
:10386000CF93DF93EC0110E0F12CE12C6A81161765
:10387000B0F083E0689FB0011124AE014F5E5F4F4E
:10388000C7010E945527009721F02FEF3FEF3A8B99
:10389000298BDF91CF911F91FF90EF900895612FB9
:1038A000CE018DDC61E070E00E949D25E816F906EE
:1038B00008F47C011F5FDACFF89420910205309163
:1038C000030581E02115310509F080E0232B09F083
:1038D000789408952F923F924F925F926F927F92C9
:1038E0008F929F92AF92BF92CF92DF92EF92FF9210
:1038F0000F931F93CF93DF933C01660E771EF30166
:10390000828193814C01B12CA12CC0910405D091EE
:103910000505209769F021E030E06091060570917F
:1039200007058617970710F030E020E0232BD1F42D
:1039300082E090E0FA01918380838EEF9FEFDF9128
:10394000CF911F910F91FF90EF90DF90CF90BF909C
:10395000AF909F908F907F906F905F904F903F902F
:103960002F9008958092AF029092B002A092B1027F
:10397000B092B20263E1689F9001699F300D1124FB
:10398000C20FD31FF3018181833040F082E090E0C9
:10399000FA019183808386EF9FEFD1CF2A012B819B
:1039A0003C81232BF1F4288139819F8191FF2EC026
:1039B000232B09F46FC0209109059A81422F490FEA
:1039C0005527551FBA0141E050E06138710514F0E8
:1039D00050E040E0452B09F45DC02A87920F909398
:1039E00009058150823008F481C066DF882309F41C
:1039F000D8C0F3018181813009F48DC008F47BC007
:103A0000823009F4C6C090E080E0ADC0232B09F4F9
:103A100041C0209108059A81E22FE90FFF27FF1F7F
:103A200041E050E0ED3FF10514F050E040E0452B5F
:103A300089F12A87920F90930805D3CFA081B18195
:103A4000A20FB31F11966C91060F111D0196295FED
:103A50003F4F8417950794F38D859E85089F10012D
:103A6000099F300C189F300C1124C114D104D1F4DB
:103A70008F8184FF17C00E94EB25F5E02F0E311CCB
:103A800021E08215930508F420E0A701435F5F4F12
:103A900021110EC082E090E0F2019183808387EFD4
:103AA0009FEF4DCF0E94EB252FEF221A320AE8CF6D
:103AB00088819981E80EF91EF70114830383FFEFD3
:103AC000CF1ADF0A7A018A818C151D0409F00CF4E3
:103AD0008CCFE881F981EE0DFF1D428150E030E08E
:103AE00020E010E000E090E080E0B3CFF12CE12C8A
:103AF000D12CC12CE8CF81E090E09C838B83F1DA5C
:103B0000882309F480CF81E090E00E94EE1480E4E5
:103B10000E94FC1478CF89899A89019661F083E02C
:103B200090E09C838B8382E090E00E94EE1480E41E
:103B30000E94F61468CF8D819E812091A50230915C
:103B4000A60282179307D1F46091A9027091AA028C
:103B5000AE014F5E5F4F8091A7029091A8020E9434
:103B600074280097E1F2789422E030E0F20131838A
:103B70002083892B99F08DEF9FEFE1CE89288A2849
:103B80008B2869F6029758F6CE0167DE188A1F86E1
:103B9000E8CF82E090E09C838B8335CF90E080E09B
:103BA000CECE82E090E0F2019183808385EF9FEF9B
:103BB000C6CE8F929F92AF92BF92CF92DF92EF923A
:103BC000FF920F931F93CF93DF93EA018C01060FAF
:103BD000171FF8018181833098F082E090E099838B
:103BE000888386EF9FEFDF91CF911F910F91FF9018
:103BF000EF90DF90CF90BF90AF909F908F900895FF
:103C00008091040590910505892B61F081E090E099
:103C10002091060530910705232B11F490E080E0F8
:103C2000892B39F482E090E0998388838EEF9FEFAF
:103C3000DACF42DE882309F4E0C0F80181818130C7
:103C400009F496C0E8F0823099F42091060530918D
:103C50000705E0910405F091050590E080E041E062
:103C600050E02817390709F0BEC03BDA811117C0B0
:103C7000789481E090E09983888390E080E0B3CFEE
:103C80002091060530910705E0910405F0910505A6
:103C900090E080E041E050E02817390741F481E0EE
:103CA00090E00E94EE1480E40E94FC14E1CF638156
:103CB0007481672B11F05483438301967396ECCF84
:103CC000E0910405F0910505E00FF11F2381348197
:103CD00022303105D9F4218932892F3F3F4FB1F489
:103CE000258136814091A5025091A60224173507FF
:103CF00061F5AF014F5E5F4F6091A9027091AA021A
:103D00008091A7029091A8020E947428EFEFCE1A2A
:103D1000DE0AEE0AFE0A0D5E1F4F40910605509125
:103D2000070570E060E0C416D506E606F70644F520
:103D3000009731F27894892B09F49BCF82E090E0D0
:103D4000998388838DEF9FEF4ECFC114D104E10496
:103D5000F104E1F622303105C8F6CF017EDDE091B5
:103D60000405F0910505E00FF11F108A1786CECFEC
:103D700010E000E090E080E0C12CD12C7601CDCFA6
:103D80000097C1F610E000E0812C912C540183E0F3
:103D9000E82EF12C1AC0E0910405F0910505E00F22
:103DA000F11F83819481029749F4F482E38282E0D7
:103DB00090E00E94EE1480E40E94F614FFEF8F1A48
:103DC0009F0AAF0ABF0A0D5E1F4F809106059091B2
:103DD0000705B0E0A0E088169906AA06BB06DCF24B
:103DE00090E080E0A7CF638174816230710511F4A7
:103DF000548343830196739634CF82E090E0998395
:103E0000888385EF9FEFEFCE0097B9F48FEFFB012A
:103E100080832091AF023091B00243E1429FC00104
:103E2000439F900D1124E0910405F0910505E80FE2
:103E3000F91F8285FB01818308950C94A51488E005
:103E400090E0FA019183808390E080E008951092E1
:103E5000030510920205E4E0F5E086E0DF011D9223
:103E60008A95E9F780EB9AE190930105809300052C
:103E70000895809100059091010508952F923F9239
:103E80004F925F926F927F928F929F92AF92BF926A
:103E9000CF92DF92EF92FF920F931F93CF93DF9316
:103EA000CDB7DEB72F970FB6F894DEBF0FBECDBFEC
:103EB000F894E0910205F09103053196F093030523
:103EC000E093020578944090040550900505411454
:103ED000510409F40CC2E0910605F0910705EF2B9F
:103EE00009F405C22D8749875A876B877C87988795
:103EF0008F831201B12CA12C10E000E08091060507
:103F000090910705A816B90618F40115110529F1B5
:103F1000F894809102059091030501979093030511
:103F2000809302057894C8012F960FB6F894DEBFEF
:103F30000FBECDBFDF91CF911F910F91FF90EF90FA
:103F4000DF90CF90BF90AF909F908F907F906F90B9
:103F50005F904F903F902F9008957101E418F508FD
:103F6000D10117968C91179781FD54C013968D91AE
:103F70009C911497039709F04DC015968D919C91D3
:103F8000EF81F8858E179F0709F044C0B50190E0D6
:103F900080E07FD48A8320910405309105053D831C
:103FA0002C833D85332309F44CC04C815D81452B26
:103FB00009F49AC18091060590910705A816B906E3
:103FC00008F092C1C501D7D88823E9F06C817D81C2
:103FD0006E0D7F1D7D836C83DB011F968D919C91FF
:103FE000892B89F0D12CC12CF12CE12CAC81BD8125
:103FF00012968C9112978E151F0409F094F4509626
:104000001C921E921F972A81222321F0B50190E075
:1040100080E041D43FEFA31AB30A43E1240E311CE0
:104020006DCFAC81BD81ED91FC91EC0DFD1D8581C5
:1040300096810FD7BFEFEB1AFB0AEDE0CE0ED11C35
:10404000D5CFEC81FD81309709F44EC180910605F2
:1040500090910705A816B90608F046C1EE0DFF1DA0
:10406000FF87EE87C50187D88B83882339F1AE851A
:10407000BF851F968D919C915097019621E01D96CA
:104080004D915C918417950709F020E02E831982E9
:10409000712C10E000E0AE85BF8512968C917816E9
:1040A00008F45DC0EE85FF8587859089019665855A
:1040B00076850E943B39908B8787A5CFB1E0BE8380
:1040C000E6CF992493946BC08BD6F60196838583B3
:1040D00082C0D601ED90FC90B7E06B9EE00CF11C25
:1040E0001124F7016381748180818F3F61F121E0A8
:1040F00030E002C0220F331F8A95E2F7C901092E72
:10410000000CAA0BBB0BFB014081518162817381C2
:1041100084239523A623B72321E0892B8A2B8B2B7D
:1041200009F420E0D4012C93D70111968C91F6016B
:1041300023853485820F932F911D880E991E148636
:10414000138663949BC0418150E0C4010E949E3954
:10415000EBCF998206EF1FEFC5C01982C3C0F9816A
:10416000F111A0CFEDE07E9E70011124AE85BF85D8
:10417000CD90DC90CE0CDF1C15D49D838C83BB814D
:10418000BB2309F49ECF81E0EE85FF85278530892A
:10419000232B09F080E0982E882309F458C0672D5E
:1041A0008E859F850CD8D60118969C938E93179771
:1041B00061E070E0C2D4EE85FF85218932892F3F0E
:1041C000320709F481CFBC01C901CFD7D6011696B9
:1041D0009C938E931597D60115968D919C91169769
:1041E000009709F4B6CFEC81FD818E0F9F1F1A96C0
:1041F0009C938E931997AE85BF85ED91FC91119795
:10420000EE0EFF1EF70121853285148613861A965D
:104210008C91870DD9018D93711016C0EE85FF85A5
:10422000878184FF11C049855A856B857C85F9019A
:104230004183528363837483F70183859485049655
:10424000A80FB91F14861386F701B287A187D6017C
:1042500015968D919C911697892B09F443C0EE8594
:10426000FF85258136818091A5029091A6022817AD
:10427000390779F019968D909C90612CD601129691
:104280008C911297681608F424CF1A969C928E92FD
:104290001997BE81BB2309F460CF61E070E0F6019D
:1042A000878190854AD4D6011796ED90FC90189797
:1042B00015964D915C91E1E0F0E0BA81BB2311F0DD
:1042C000F0E0E0E00C811D819C01B5018827992771
:1042D0008E1B9F0B6AD38C01892B21F0F6018581FF
:1042E0009681B7D57394D7CE0FEF1FEF8CCE10E029
:1042F00000E00ECE2F923F924F925F926F927F928C
:104300008F929F92AF92BF92CF92DF92EF92FF92E5
:104310000F931F93CF93DF93809104059091050530
:1043200010E000E0892BA9F0C7DA0AEF1FEF88231D
:1043300081F02090060530900705C0910405D091CA
:104340000505D12CC12C10E000E02C143D04A9F48B
:104350007894C801DF91CF911F910F91FF90EF905A
:10436000DF90CF90BF90AF909F908F907F906F9095
:104370005F904F903F902F900895C6010E94BB1808
:10438000882309F18B819C810397E9F48F859889B3
:10439000892BC9F0B60190E080E07BD221E030E0CB
:1043A000882311F030E020E044245524421A530AB7
:1043B000B12CA12C912C812C8A818815190409F02B
:1043C00038F4188A1F864FEFC41AD40A6396BDCFFB
:1043D000E881F981EA0DFB1D85819681892BA1F188
:1043E00061E070E087819085A8D33C01DBD28C012D
:1043F000E881F981EA0DFB1D818592852581368151
:10440000200F311FAC01421B530B9A01478150858D
:10441000421B530B70E060E00E94A739E881F981EC
:10442000EA0DFB1DE780F084458156819301B601BA
:10443000C201BBD28C01892B39F0E881F981EA0DE8
:10444000FB1D8581968105D55FEF851A950A8DE064
:10445000A80EB11CB1CF30CA789408952F923F9224
:104460004F925F926F927F929F92AF92BF92CF9244
:10447000DF92EF92FF920F931F93CF93DF9300D0C1
:1044800000D0CDB7DEB70091040510910505992441
:1044900093940115110509F43EC0A0900605B09053
:1044A00007050ADA982E8823B1F1109205051092BB
:1044B0000405109207051092060510920805109247
:1044C00009058FEF9FEFDC018093AF029093B0025C
:1044D000A093B102B093B20278947FD31E830D8370
:1044E000C12CD12C7601C501B0E0A0E089839A836C
:1044F000AB83BC8322242A94322C89819A81AB819C
:10450000BC81C816D906EA06FB06F4F0C801A1D49E
:1045100080E40E94FC14892D26960FB6F894DEBF25
:104520000FBECDBFDF91CF911F910F91FF90EF9004
:10453000DF90CF90BF90AF909F907F906F905F90F3
:104540004F903F902F900895AD81BE8115968D912B
:104550009C9116972091A5023091A602821793078D
:10456000D1F451968D919C91EED5ED81FE818081A3
:104570009181B12CA12C412C512C3201892B89F530
:10458000BFEFCB1ADB0AEB0AFB0AED81FE817396C3
:10459000FE83ED83B2CFC114D104E104F10429F705
:1045A000029718F7ED81FE81818992898F3F9807E4
:1045B00009F029D5AD81BE8152963C922E92519739
:1045C000D4CF8A0D9B1DDC018D919C91009709F041
:1045D00040D4BFEF4B1A5B0A6B0A7B0AEDE0AE0ECC
:1045E000B11CAD81BE818D919C91119712964C9119
:1045F00050E070E060E044165506660677060CF35E
:1046000028D4BECFCF93DF93EA0128DF811109C000
:1046100082E090E09983888385EF9FEFDF91CF91CF
:10462000089581E090E00E94EE1481E090E099838B
:10463000888390E080E0F2CF11DF109201051092A4
:104640000005089542E050E06CE573E00C940C1511
:10465000FF920F931F93CF93DF938A01EC01C60F54
:10466000D71FF980B9D20897F816190671F068F0CB
:1046700082E090E0F801918380838EEF9FEFDF91DD
:10468000CF911F910F91FF9008956C817D818E8154
:104690009F814B810E94A117811108C082E090E0A8
:1046A000F8019183808384EF9FEFE9CFF9800E9426
:1046B0009C174F2D50E0BE01685F7F4F0E949E39CE
:1046C00089810E940B1881E090E0F801918380833A
:1046D00090E080E0D4CFDF92EF92FF920F931F9390
:1046E000CF93DF938A01EC01C60FD71F0E949C175E
:1046F0007C01D98071D2DD2059F0029721E030E0B1
:10470000D816190619F010F030E020E0232B79F4C8
:1047100082E090E0F801918380838EEF9FEFDF913C
:10472000CF911F910F91FF90EF90DF900895EF28A8
:1047300041F482E090E0F8019183808384EF9FEF61
:10474000EECFF9800E949C174F2D50E0BE016E5FA6
:104750007F4F0E949E3989810E940B1881E090E072
:10476000F8019183808390E080E0D9CF82E293E2E8
:1047700090930B0580930A05089580910A05909106
:104780000B0508950895FC011182108293838283A2
:104790000895DB011D921C92DC011296ED91FC91B3
:1047A00013977183608313967C936E931297089589
:1047B000FC0180819181DB018D939C93A081B1816B
:1047C000109741F08D919C9191838083892B11F4F6
:1047D000F383E2830895FC0180819181DB018D9355
:1047E0009C93892B11F47383628371836083089592
:1047F000FC0111821082938382830895CF93DF930B
:104800001F921F92CDB7DEB71A821982F894BE01AB
:104810006F5F7F4F81E195E0CBDF89819A810097BF
:1048200009F017D389819A81892B89F7BE016F5FBF
:104830007F4F85E195E0BCDF89819A81009709F07F
:1048400008D389819A81892B89F778940F900F90EA
:10485000DF91CF910895CF93DF931F921F92CDB731
:10486000DEB71A821982F894BE016F5F7F4F8DE028
:1048700095E09EDF89819A81009709F0EAD28981CB
:104880009A81892B89F778940F900F90DF91CF91BF
:10489000089581E0089590E080E00895EF92FF92FE
:1048A0000F931F93CF93DF931F921F92CDB7DEB765
:1048B0001A82198280910C0507EF1FEF8823A1F15E
:1048C000F894BE016F5F7F4F85E195E071DF7894CA
:1048D00089819A81EE24E394F12C892B51F4F89488
:1048E000BE016F5F7F4F81E195E062DF7894F12C2C
:1048F000E12C89819A810EEF1FEF0097A9F0FC014E
:104900004281538164E070E076D68C01892B61F09E
:10491000F89469817A81C701880F991F880F991FC0
:104920008F5E9A4F58DF7894C8010F900F90DF91F7
:10493000CF911F910F91FF90EF9008950F931F93C8
:10494000CF93DF9300D01F92CDB7DEB71C821B82BE
:104950001A82198280910C0507EF1FEF8823C1F09E
:10496000AE014D5F5F4F64E070E0CE010196B6D6B8
:104970008C01892B69F4E981FA818B819C81938375
:104980008283F89469817A818DE095E002DF7894E2
:10499000C8010F900F900F900F90DF91CF911F9152
:1049A0000F910895BBD7049608958F929F92AF926E
:1049B000BF92CF92DF92EF92FF920F931F93CF930C
:1049C000DF931F921F92CDB7DEB71A821982BC0106
:1049D0006F5F7F4F6330710598F0AA24AA94BA2CB8
:1049E000C5010F900F90DF91CF911F910F91FF9014
:1049F000EF90DF90CF90BF90AF909F908F900895F1
:104A00004115510551F3480159018A016C01CADF72
:104A10008815990511F7E114F104F9F28E0D9F1D27
:104A2000A816B906D0F280910C058823F1F0F8940D
:104A3000B501645071099701AE014F5F5F4FC80126
:104A40000496E1D65C01892B71F489819A81F80181
:104A500093838283C601880F991F880F991FB8011D
:104A60008F5E9A4F96DE7894BBCF87EFA82EBB243B
:104A7000BA94B6CFAF92BF92CF92DF92EF92FF92ED
:104A80000F931F93CF93DF931F921F92CDB7DEB783
:104A90001A821982892B09F047C06115710509F442
:104AA00043C04115510509F43FC02115310509F4F2
:104AB0003BC001151105C1F180910C058823B9F1A6
:104AC00079016A015B01F894BE016F5F7F4F8DE051
:104AD00095E06EDE789489819A81009759F1DC0126
:104AE00012966D917C91A8010496A6D68C01E9815D
:104AF000FA81D501ED93FC93828193810496F601AE
:104B0000918380834FDFD7018D939C93C8010F90D1
:104B10000F90DF91CF911F910F91FF90EF90DF9059
:104B2000CF90BF90AF9008950FEF1FEFEFCF07EF3B
:104B30001FEFECCF0EEF1FEFE9CFCF93DF93EC0128
:104B4000672B71F4F4D68C179D0760F0E7D6249696
:104B5000C80FD91FE6D68C0F9D1FDF91CF91089506
:104B6000E3D6F1CF90E080E0F8CF0F931F93CF937F
:104B7000DF9320910C0521112BC08B01EC0181E109
:104B800095E001DE85E195E0FEDD8DE095E0FBDD61
:104B900097D00097C1F4CBD670E060E0CEDF43EB56
:104BA00052E062E070E081D1009769F48091B30235
:104BB0009091B402CED6B801CE0103D5009719F476
:104BC00021E020930C05DF91CF911F910F91089563
:104BD00084EF9FEFF8CFA8C6AAC6CF93DF93AAD6DB
:104BE000EC01892B11F40ADE36DECE01DF91CF9184
:104BF0000895CF93DF939ED6EC01892B09F4FEDD57
:104C0000CE01DF91CF9108958091B3029091B402CB
:104C10000895CF93DF9380910C05D0E0C0E0882306
:104C2000D1F09CD6EC01892BB1F4E8DD14DE809143
:104C3000B3029091B402E7D1E8D2EC01892B59F488
:104C400081E195E0D5DD85E195E0D2DD8DE095E06F
:104C5000CFDD10920C05CE01DF91CF910895EF9238
:104C6000FF920F931F93CF93DF93EC017A018B0197
:104C70000F5F1F4F0E9DA0010F9D500D1E9D500DEB
:104C8000112470E060E00E94A73990E080E0F0E03D
:104C9000E0E02FEFE816F90639F4DF91CF911F918C
:104CA0000F91FF90EF9008951A8219822883309710
:104CB00011F0D283C1830196FE01C00FD11FEACF4C
:104CC000CF92DF92EF92FF920F931F93CF93DF93D8
:104CD0000EE317E00C7F43E050E065EB72E08BEBF6
:104CE00092E01CD485EBE82E82E0F82E9BEBC92ED7
:104CF00092E0D92ECDECD7E0D7014D915D917D01A9
:104D0000F601619171916F01198308835D834C8372
:104D10005B834A837F836E839B012F5F3F4F249F7A
:104D2000C001259F900D349F900D1124998788878D
:104D30000115110511F0C80192DF88859985080FCA
:104D4000191F2A96FBEBEF16F2E0FF06A9F6EBE13E
:104D5000F5E080E292E0DF019C011D92215030409D
:104D6000E1F710921A05109219051092EC071092B3
:104D7000EB071092F0071092EF071092EE071092D7
:104D8000ED071092F2071092F1071092F4071092BB
:104D9000F3071092F6071092F5071092FA07109297
:104DA000F9071092F8071092F7071092FC0710927B
:104DB000FB071092FE071092FD071092CA0710928F
:104DC000C9071092CC071092CB0790E080E0DF91EA
:104DD000CF911F910F91FF90EF90DF90CF900895AA
:104DE0000097F1F0F894ABEBB2E0EDECF7E030E0D7
:104DF00020E04D915D9148175907A8F042815381F9
:104E00004115510581F08AE0829FF001839FF00DEA
:104E10001124E353F84F80819181009759F47894DD
:104E200090E080E008952F5F3F4F3A9623303105A0
:104E300001F7F5CFDC0111966D917C917183608350
:104E40004150510953834283FC012193CF0178944F
:104E50000895009749F1DC018E91853041F4E0918D
:104E6000CB07F091CC073097F9F0CD01199485303C
:104E7000D8F4282F30E0F8948FEF8C938AE0829F4B
:104E8000F001839FF00D1124E353F84F808191814D
:104E900012969C938E931197B183A0838281938104
:104EA00001969383828378940895CF92DF92EF9254
:104EB000FF920F931F93CF93DF939C018EE195E0B8
:104EC0008C7F4115510509F49BC02115310509F46A
:104ED00097C06115710509F493C07A01AB01B9015E
:104EE0006D5F7F4F6C7F9B012F5F3F4F249F800141
:104EF000259F100D349F100D1124F8942091EB077D
:104F00003091EC07232B59F42091F3073091F407EB
:104F10002115310569F12017310708F058C020919B
:104F2000F5073091F607232B91F42091F307309188
:104F3000F407820F931F2091FD073091FE07211582
:104F4000310509F441C02017310708F056C07894A4
:104F5000CFEFDFEF86EF9FEFF701D183C083DF91C3
:104F6000CF911F910F91FF90EF90DF90CF90089518
:104F7000C3E0D0E0C0901905D0901A052DE132E0D1
:104F80002C193D092017310710F32AE02C9FF0015E
:104F90002D9FF00D1124E353F84F918380835583A7
:104FA0004483538342837783668311870087009706
:104FB00009F055DE0C0D1D1D10931A0500931905FF
:104FC000789490E080E0C8CFC4E0D0E0D3CFC3E0D5
:104FD000D0E02AE02C9FF0012D9FF00D1124E35327
:104FE000F84F91838083558344835383428377832F
:104FF0006683009729F333DEE3CFC4E0D0E0E9CF46
:105000008FEF9FEFACCF9C010397029708F069C028
:10501000F89484E09AE0482F50E0241735070CF408
:105020004DC091E08AE0829FF001839FF00D112432
:10503000E353F84F11821082158214821382128278
:10504000178216829923B1F18091EB079091EC07BA
:10505000892BA9F42091F3073091F407211531052C
:1050600071F08091190590911A05821B930B909312
:105070001A05809319051092F4071092F307809196
:10508000F5079091F607892BA9F42091FD0730913F
:10509000FE072115310571F08091190590911A05CF
:1050A000821B930B90931A05809319051092FE07AB
:1050B0001092FD07789490E080E00895949FF001AD
:1050C000959FF00D1124E353F84F40815181452BFA
:1050D00031F440855185452B11F481509CCF90E0EF
:1050E000A1CF8FEF9FEF08954115510549F100972A
:1050F00039F16115710521F1F8942091C9073091BA
:10510000CA07232BB9F42091CB073091CC07232B6E
:1051100089F49093CA078093C9077093CC07609372
:10512000CB07789425E030E090E080E0FA0131830D
:105130002083089578942FEF3FEF86EF9FEFF6CF0F
:105140008FEF9FEF0895059769F4F8941092CA07BE
:105150001092C9071092CC071092CB07789490E078
:1051600080E008958FEF9FEF08956115710519F4A0
:10517000F0E0E0E011C08530910581F4E091C907CD
:10518000F091CA073097A1F3CB01019619950097CA
:1051900079F3FC0185E08193CF0108959C012350B0
:1051A00031092230310520F72AE0289FD001299FBC
:1051B000B00D1124A353B84F2D913C911197232B7F
:1051C000B9F216962D913C9117972617370780F262
:1051D000F89412962D913C9113972115310529F0E1
:1051E000ED91FC911197309711F47894C1CF4181E2
:1051F000528111965C934E932150310913963C9342
:105200002E93129781937894C7CFEBE3F7E08EE863
:10521000DF011D928A95E9F7EBE1F5E080E292E08B
:10522000DF019C011D9221503040E1F710921A05D8
:1052300010921905EDECF7E082E3DF011D928A95EB
:10524000E9F7E9ECF7E084E0DF011D928A95E9F7E0
:1052500090E080E00895CF93DF93C091C102D09198
:10526000C202CF3FDC0759F423D49093C20280934B
:10527000C10297FF09C0D093C202C093C10284EF5C
:105280009FEFDF91CF91089590E080E0FACF8230D8
:10529000910528F48093FF0790E080E008958FEF58
:1052A0009FEF08954F925F926F927F92AF92BF925D
:1052B000CF92DF92EF92FF920F931F93CF93DF93E2
:1052C0001F921F92CDB7DEB71A821982009709F498
:1052D00079C06115710509F475C02091C102309142
:1052E000C20207EF1FEF2F3F3F4F09F445C06B018C
:1052F0005C01412C512C3201F12CE12C10E000E03A
:105300009E012F5F3F4FA6014E195F09B5016E0D3B
:105310007F1D8091C1029091C2022ED4892B09F089
:105320004BC089819A81009741F4E114F10429F47A
:105330002091FF07222309F442C0E80EF91EEC1465
:10534000FD04D0F480E8481684E858068EE168062B
:10535000710420F560E070E0CB010E9478332AE010
:10536000420E511C611C711C0A3F4FEF140721F0C3
:10537000043F8FEF1807A1F4C8010F900F90DF9141
:10538000CF911F910F91FF90EF90DF90CF90BF9042
:10539000AF907F906F905F904F90089501EF1FEF57
:1053A00081E090E0013F2FEF120711F090E080E0E4
:1053B000892B09F4A5CFE0CF04EF1FEFDDCF0AEF73
:1053C0001FEFDACF0FEF1FEFD7CF4F925F926F92A1
:1053D0007F92AF92BF92CF92DF92EF92FF920F93A4
:1053E0001F93CF93DF931F921F92CDB7DEB71A8220
:1053F0001982009709F479C06115710509F475C027
:105400002091C1023091C20207EF1FEF2F3F3F4FA3
:1054100009F445C06B015C01412C512C3201F12C87
:10542000E12C10E000E09E012F5F3F4FA6014E19D6
:105430005F09B5016E0D7F1D8091C1029091C2027E
:105440004ED3892B09F04BC089819A81009741F492
:10545000E114F10429F42091FF07222309F442C04A
:10546000E80EF91EEC14FD04D0F480E4481682E442
:1054700058068FE06806710420F560E070E0CB010B
:105480000E9478332AE0420E511C611C711C0E3FB1
:105490004FEF140721F0043F8FEF1807A1F4C80164
:1054A0000F900F90DF91CF911F910F91FF90EF9090
:1054B000DF90CF90BF90AF907F906F905F904F90B4
:1054C000089502EF1FEF81E090E0023F2FEF1207F7
:1054D00011F090E080E0892B09F4A5CFE0CF04EF34
:1054E0001FEFDDCF0EEF1FEFDACF0FEF1FEFD7CF9C
:1054F0008091C1029091C2028F3F980749F0D0D2AB
:10550000892B49F48FEF9FEF9093C2028093C102E1
:1055100090E080E0089584EF9FEF0895CF92DF92AE
:10552000EF92FF920F931F93CF93DF9321E04115EA
:10553000510509F020E04150510921112CC0DC0136
:10554000FB01D12CC12C21E022C03FEFC31AD30AAA
:105550007D010D911D91E701EA80FB80E016F106C7
:10556000A8F420813181E280F380F182E0823383EC
:105570002283ED90FC9011979D0122503109E901A1
:10558000F982E88211961C930E9320E03296C4169D
:10559000D506D8F2D2CFDF91CF911F910F91FF9016
:1055A000EF90DF90CF900895FC01680F791F90E095
:1055B00080E0E617F70709F408952191820F911D05
:1055C000F8CF20910008211113C045DE009791F417
:1055D0001092060810920508109204081092030811
:1055E000109202081092010821E02093000808950B
:1055F00084EF9FEF0895AF92BF92CF92DF92EF9228
:10560000FF920F931F93CF93DF93009709F460C02D
:105610004630510508F45CC020910008C7EFDFEF69
:10562000222309F449C08C01060F171FF801C0801E
:10563000D180C114D10409F44EC096012A5F3F4FB6
:105640004217530708F447C07C01809105089091E8
:10565000060893838283B6016C5F7F4F5801A60EC4
:10566000B71EC801A1DFF5019183808364E070E07B
:10567000C80118DEEC01892BF9F481E090E007DE27
:10568000B601C80104960EDEEC01892B91F462E0AC
:1056900070E0C50107DEEC01892B59F4C701D9DBA5
:1056A00080910508909106080196909306088093D2
:1056B000050890E080E0EBDDCE01DF91CF911F91F6
:1056C0000F91FF90EF90DF90CF90BF90AF90089533
:1056D000CFEFDFEFF1CFC9EFDFEFEECF6F927F9229
:1056E0008F929F92AF92BF92CF92DF92EF92FF92F2
:1056F0000F931F93CF93DF9300D01F92CDB7DEB7E8
:10570000009709F47AC04115510509F476C020913B
:10571000000807EF1FEF222309F44DC03A017B0177
:105720005C0164E070E0CE0101964FDE8C01892BB4
:1057300009F041C009811A810115110509F45AC007
:10574000480186E0880E911CB701680D791D809193
:10575000C3029091C40209DD6C01009709F450C0A6
:10576000A70170E060E00E94A73989819A81AB812E
:10577000BC81EC0CFD1CF70181939193A193B19333
:105780007F0181E090E083DDB801C7011EDE892B37
:1057900031F562E070E0C701800F911F16DE8C01C9
:1057A000892BE9F490E080E072DDF501D182C082BE
:1057B000F30191828082C8010F900F900F900F909B
:1057C000DF91CF911F910F91FF90EF90DF90CF90DD
:1057D000BF90AF909F908F907F906F90089590E0D2
:1057E00080E055DDF50111821082F30111821082F3
:1057F000C6012FDB09EF1FEFDECF0FEF1FEFDBCF6F
:1058000006EF1FEFD8CF0097A1F04115510589F0A1
:105810002115310571F0F90136966E177F0748F0B2
:10582000DC012D933C93DA01ED93FC9390E080E052
:1058300008958FEF9FEF0895AF92BF92CF92DF92BE
:10584000EF92FF920F931F93CF93DF93009709F48A
:105850005FC04115510509F45BC06530710508F45E
:1058600057C020910008C7EFDFEF222391F1DC0140
:10587000CD90DC9011971296ED91FC9196012A5FE4
:105880003F4FC9EFDFEF2617370719F5C091010821
:10589000D0910208209749F521E030E030930208CA
:1058A000209301087A018C01F0930408E093030827
:1058B0005601B4E0AB0EB11CB50176DE0A0D1B1D1E
:1058C000F801208131818217930729F5D701CD9204
:1058D000DC92CE01DF91CF911F910F91FF90EF905D
:1058E000DF90CF90BF90AF90089520910308309142
:1058F00004082F5F3F4FCCEFDFEFE217F30790F282
:10590000CBEFDFEF2E173F0768F2D0E0C0E0CACF41
:10591000CFEFDFEFDECFC3EFDFEFDBCF84E090E050
:10592000089582E090E008958CEF9FEF089580E263
:1059300090E008951092060810920508109204084D
:1059400010920308109202081092010890E080E083
:1059500008959093C4028093C30208958091000833
:10596000882391F0C5DD009789F410920608109203
:105970000508109204081092030810920208109271
:10598000010810920008089590E080E008950097C3
:1059900049F06115710531F0FC0111821082FB01A3
:1059A000118210820895F3CF26E030E040E855E2FE
:1059B00060E070E090E080E000C08130910571F01F
:1059C0001CF4892B39F008958230910551F003972A
:1059D00059F0089584E198E00C947D3681EB98E0CD
:1059E000FBCF8EE499E0F8CF8BEE99E0F5CF1F92D4
:1059F0000F920FB60F9211240BB60F922F933F9375
:105A00004F935F936F937F938F939F93AF93BF93C6
:105A1000EF93FF938FE89DEF9093250180932401EE
:105A2000BFD0FF91EF91BF91AF919F918F917F91E7
:105A30006F915F914F913F912F910F900BBE0F90FF
:105A40000FBE0F901F9018958FE89DEF9093250142
:105A500080932401A3E7B0E08C918E7F8C93E0E2E9
:105A6000F1E080818C7F8083E1E2F1E08081877EBC
:105A7000808380818460808380818C7F80838C910F
:105A800081608C930895E3E7F0E0808190819E7FB0
:105A900090838170089581E0089510920708089519
:105AA00068EE73E080E090E023D690E080E0089517
:105AB00026E030E040E050E16EE070E090E080E011
:105AC0007CDF84E198E00E94B335892B29F084E1E2
:105AD00098E00E94CD35F5CF90E080E00895CF9218
