:1000000005C100000C9458310C9483310C94AE312E
:100010000C94D9310C9404320C942F320C945A3233
:100020000C94853224C1000022C1000020C10000D0
:100030001EC100001CC100001AC1000018C1000050
:1000400016C1000014C1000012C1000010C1000060
:100050000EC100000CC100000AC100000C94B032B7
:1000600006C100000C9484360C94BA3600C100001E
:10007000FEC00000FCC00000FAC00000F8C0000094
:10008000F6C00000F4C00000F2C00000F0C00000A4
:100090000C9410370C944637EAC00000E8C000000A
:1000A000E6C00000E4C00000E2C00000E0C00000C4
:1000B000DEC00000DCC00000DAC00000D8C00000D4
:1000C000D6C00000D4C000000C949F2C0C949C3728
:1000D0000C94D237CCC000000C9428380C945E38B5
:1000E000C6C0000000000A0B02090C0D0E08070331
:1000F00004010000000000000000000000000000FB
:1001000000000000000000000000000000000000EF
:1001100012111000000000000000000000000000AC
:100120000000000000000000000001021020200874
:100130000810204010204080020102010804020142
:1001400001020408102040808040201008040201B1
:10015000800402018040201008040201080402010A
:100160000102040810204080010204081020408091
:1001700005050505070508080808020202020A0A23
:100180000808040404040101010101010101030341
:10019000030303030303040707070C0C0C0C0C0CEC
:1001A0000C0C0202020206060606060606060B0BE9
:1001B0000B0B0B0B0B0B000020002300260029006B
:1001C0002C002F003200000100000301060109018C
:1001D00000002200250028002B002E0031003400F2
:1001E00002010000050108010B01000021002400AC
:1001F00027002A002D003000330001010000040117
:1002000007010A01E3366F37FB37873811241FBE19
:10021000CFEFD1E2DEBFCDBF00E00CBF13E0A0E026
:10022000B2E0E6E9F2E700E00BBF02C007900D92F2
:10023000AA33B107D9F72AE0AAE3B3E001C01D92BF
:10024000AC36B207E1F711E0C6E0D1E000E006C04D
:1002500021970109802FFE010E941839C230D10771
:1002600080E00807A9F70E94912D0C944939C8CE67
:10027000FC01A781B0858C9191858923A481B581EA
:100280009C9140815181628173812681922359F032
:1002900081110BC04F5F5F4F6F4F7F4F4083518382
:1002A0006283738308958111F5CF4150510961092B
:1002B0007109F4CF8BE393E0DBCF86E493E0D8CFF2
:1002C00081E593E0D5CF8CE593E0D2CFFC01A4810A
:1002D000B5818C9196818923A781B0859C914081BD
:1002E0005181628173812185922359F0882359F0CD
:1002F0004F5F5F4F6F4F7F4F4083518362837383A4
:1003000008958823A9F34150510961097109F4CF77
:100310008BE393E0DBCF86E493E0D8CF81E593E0F5
:10032000D5CF8CE593E0D2CF0F931F93CF93DF937C
:10033000D82FC62F8A01A0913A038BE0A89FD00145
:100340001124A55CBC4F1D921D921D921C92139707
:1003500081E01A968C931A978D2F90E0FC01E65D50
:10036000FE4FE4911696EC931697FC01E059FE4F70
:10037000E491F0E0EE0FFF1FEA54FE4F8591949157
:1003800015969C938E931497862F90E0FC01E65D62
:10039000FE4FE4911996EC931997FC01E059FE4F3A
:1003A000E491F0E0EE0FFF1FEA54FE4F8591949127
:1003B00018969C938E93179760E08D2F0E94F134CE
:1003C00060E08C2F0E94F13480913A03813009F46F
:1003D0003FC0A8F0823009F462C0833009F486C0BF
:1003E00080913A0391E0980F90933A03F80180834B
:1003F00090E080E0DF91CF911F910F91089580E010
:10040000D23049F081E0D33031F08EEE8D0F843060
:10041000D8F487E18D1B41E050E06AE571E00E946D
:10042000DE3080E0C23049F081E0C33031F08EEE42
:100430008C0F843058F487E18C1B41E050E068E871
:1004400071E00E94DE30CCCF8FEFE5CF8FEFF5CF9C
:1004500080E0D23049F081E0D33031F08EEE8D0F64
:100460008430C8F487E18D1B41E050E06DE571E018
:100470000E94DE3080E0C23049F081E0C33031F0CC
:100480008EEE8C0F843048F487E18C1B41E050E005
:100490006BE871E0D6CF8FEFE7CF8FEFF7CF80E03B
:1004A000D23049F081E0D33031F08EEE8D0F8430C0
:1004B000C8F487E18D1B41E050E060E671E00E94E6
:1004C000DE3080E0C23049F081E0C33031F08EEEA2
:1004D0008C0F843048F487E18C1B41E050E06EE8DB
:1004E00071E0AFCF8FEFE7CF8FEFF7CF80E0D23063
:1004F00049F081E0D33031F08EEE8D0F8430C8F4B6
:1005000087E18D1B41E050E063E671E00E94DE3040
:1005100080E0C23049F081E0C33031F08EEE8C0FC4
:10052000843048F487E18C1B41E050E061E971E0E0
:1005300088CF8FEFE7CF8FEFF7CF9BE0899FF00158
:100540001124E55CFC4F80819181A281B381FB0184
:1005500080839183A283B38390E080E008959BE041
:10056000899FF0011124E55CFC4F108211821282F8
:10057000138290E080E0089590E080E00895CF92AB
:10058000DF92EF92FF92CF93882351F16A017B01B2
:10059000CFEFC80F20E030E0A901CB01B6010E94E7
:1005A000862E18168CF0C701B60190580E94F72EBF
:1005B0009B01AC016C2F70E090E080E0CF91FF9048
:1005C000EF90DF90CF90B2C0C701B6010E94F22E2B
:1005D0008C2FCF91FF90EF90DF90CF900C94B7339A
:1005E000CF91FF90EF90DF90CF9008950F931F93DE
:1005F0008B019C0183E036952795179507958A9581
:10060000D1F709591C4F462F477021E030E0F9011E
:1006100002C0EE0FFF1F4A95E2F7AF01F8012081FB
:100620002423CB010196211102C090E080E01F91AC
:100630000F9108950F931F938B019C0183E03695D2
:100640002795179507958A95D1F7677081E090E017
:1006500001C0880F6A95EAF7F801E959FC4F20813B
:10066000452B31F48095822380831F910F9108954B
:10067000822BFACF2F923F924F925F926F927F928E
:100680008F929F92AF92BF92CF92DF92EF92FF92A2
:100690000F931F93CF93DF93D62EC72E782E692EFC
:1006A00049015A01280161E08D2D0E94F134CD2DC0
:1006B000DC2D8E010F5F1F4FA8016D2D7C2D872D26
:1006C000962DB8DF20E030E0A901C201B7010E94F9
:1006D0007630181664F4C201B7010E94F72E2B0180
:1006E000C501B4010E94F72EA201CE0123D0C8019A
:1006F000DF91CF911F910F91FF90EF90DF90CF90FE
:10070000BF90AF909F908F907F906F905F904F9031
:100710003F902F900895882341F08150682F70E01A
:1007200090E080E050E040E085CF0895862FB90149
:100730000C94B7339C01FC01EC51FF4FE491E15064
:10074000E231E0F4F0E08827E755FC4F8F4F0C943E
:100750001839BB03C203C503DC03F103BE0306045F
:10076000120416042D04420457046E048304BE03CD
:100770009804AF04C40484B5806884BD60E0822F0F
:100780000C942D3584B58062F8CF809180008C7FE9
:1007900082608093800080918100807E8061682BE0
:1007A0006093810050938700409386008091800081
:1007B000806880938000E2CF809180008C7F82608F
:1007C0008093800080918100807E8061682B60939F
:1007D0008100509387004093860080918000806262
:1007E000E8CF809180008C7F826080938000809130
:1007F0008100807E8061682B609381005093870028
:1008000040938600809180008860D3CF8091B000B3
:1008100080688093B0008091B100887F682B6093DE
:10082000B100ACCF8091B0008062F3CF8091900096
:100830008C7F82608093900080919100807E8061A7
:10084000682B60939100509397004093960080919D
:10085000900080688093900091CF809190008C7F71
:1008600082608093900080919100807E8061682BEF
:100870006093910050939700409396008091900070
:100880008062E8CF809190008C7F8260809390009E
:1008900080919100807E8061682B609391005093DD
:1008A000970040939600809190008860D3CF80910C
:1008B000A0008C7F82608093A0008091A100807E48
:1008C0008061682B6093A1005093A7004093A6001D
:1008D0008091A00080688093A00050CF8091A000FC
:1008E0008C7F82608093A0008091A100807E8061D7
:1008F000682B6093A1005093A7004093A6008091BD
:10090000A0008062E8CF8091A0008C7F82608093FD
:10091000A0008091A100807E8061682B6093A1007F
:100920005093A7004093A6008091A0008860D3CF89
:10093000809120018C7F8260809320018091210131
:10094000807E8061682B6093210150932701409342
:100950002601809120018068809320010FCF809133
:1009600020018C7F82608093200180912101807E14
:100970008061682B609321015093270140932601E9
:10098000809120018062E8CF809120018C7F82607D
:100990008093200180912101807E8061682B60938B
:1009A0002101509327014093260180912001886006
:1009B000D3CF611102C00C94F1346130E1F362E0F5
:1009C000FACF662319F061E00C942D3560E0FCCF7E
:1009D00090E080E008950F931F93009709F489C079
:1009E0006115710509F485C000915C0210915D02EA
:1009F00020915E0230915F020E3F1F4F2F4F3F4FFD
:100A000009F068C04FEF5FEFBA0140935C0250936A
:100A10005D0260935E0270935F0240915C025091B0
:100A20005D0260915E0270915F02DC011296ED91B1
:100A3000FC9180819181A281B3818093760490930F
:100A40007704A0937804B093790484819581A6817A
:100A5000B7818093720490937304A0937404B0934D
:100A6000750480859185A285B38580936E049093EB
:100A70006F04A0937004B093710484859585A68556
:100A8000B78580936A0490936B04A0936C04B09331
:100A90006D0410926604109267041092680410921C
:100AA00069040E94831088EA90E190937103809317
:100AB000700390937303809372030E94720F0097E8
:100AC00031F421E030E030937B0420937A041F91CD
:100AD0000F91089500915C0210915D0220915E02D9
:100AE00030915F02DB010D931D932D933C9313977F
:100AF00094CF8FEF9FEFEBCF8F929F92AF92BF92E9
:100B0000CF92DF92EF92FF921F93CF93DF934B012F
:100B10005C0110917D0482E090E090937B048093CF
:100B20007A0481149104A104B10441F480917D04FC
:100B3000811104C080917C04C1E08111C0E0C12C0E
:100B4000D12C760180917D04811106C080917C04B6
:100B5000811102C0CC23D9F083E090E090937B0414
:100B600080937A04CC2381F1CCE9DFEF111102C02C
:100B70000E940D14CE01DF91CF911F91FF90EF9055
:100B8000DF90CF90BF90AF909F908F9008956AE0D4
:100B900070E080E090E00E941F3380E1C80E87E2A1
:100BA000D81EE11CF11C8FEF88169806A806B8061F
:100BB00031F0C1E08C149D04AE04BF0408F0C0E025
:100BC00080E00E94A60FBECFD0E0C0E0CFCFCF9292
:100BD000DF92EF92FF920F931F93CF93DF938F3F9C
:100BE000910511F008F051C020917A0430917B04F6
:100BF0002330310539F020917A0430917B04213083
:100C0000310531F424E030E030937B0420937A0402
:100C10006A017B01EC0182309105A8F011E0AE0180
:100C2000C701B6010E94710FAB01BC01CE011123B7
:100C3000F9F0DF91CF911F910F91FF90EF90DF902E
:100C4000CF900C9436168C01000F111F00591C4FC9
:100C5000D8018D919C91892B09F30E94401602972F
:100C6000E9F6D801ED91FC91CE011995182FD7CF57
:100C70000E94581690E080E0DF91CF911F910F9174
:100C8000FF90EF90DF90CF9008958FEF9FEFF4CF1C
:100C900080E00C94A60FCF93DF9386E090E09093D2
:100CA0007B0480937A040E94FF0FEC01E0E7F3E0FD
:100CB00084E0DF011D928A95E9F70E94A513109246
:100CC0007B0410927A04CE01DF91CF910895809138
:100CD0007C04089580916504089560935C0270938C
:100CE0005D0280935E0290935F0290E080E0089541
:100CF00060E070E080E89FE7089560E070E080E8E1
:100D00009FE7089560E070E080E89FEF089560E05D
:100D100070E080E89FEF089560E070E080EC9FEF66
:100D2000089560E070E080EC9FEF0895F5DF609338
:100D3000CC097093CD098093CE099093CF09F1DF50
:100D40006093C0097093C1098093C2099093C3094D
:100D5000CFDF6093C8097093C9098093CA09909343
:100D6000CB09CBDF6093C4097093C5098093C60992
:100D70009093C709C7DF6093D0097093D10980931E
:100D8000D2099093D309C3DF6093D4097093D50936
:100D90008093D6099093D7090895CF92DF92EF926E
:100DA000FF92CF936B017C01AC019B016091C8095C
:100DB0007091C9098091CA099091CB090E94862E31
:100DC000C1E0882371F0A70196016091D00970916C
:100DD000D1098091D2099091D3090E94862E811168
:100DE000C0E08C2FCF91FF90EF90DF90CF900895CF
:100DF0000F931F938B019C010027112720783F77C9
:100E00000115110520483F4749F4AB01BC016F773C
:100E1000772781E0452B462B472B09F480E01F9173
:100E20000F910895E5CF2F923F924F925F926F926C
:100E30007F928F929F92AF92BF92CF92DF92EF926A
:100E4000FF920F931F93CF93DF93CDB7DEB72F970A
:100E50000FB6F894DEBF0FBECDBFC0902802D09071
:100E60002902E0902A02F0902B02A70196016091DE
:100E7000EB097091EC098091ED099091EE090E94C7
:100E8000862E882341F0C092EB09D092EC09E092C3
:100E9000ED09F092EE098091EA0981111092EA09B8
:100EA00066E67AE08091EF0948DBC0902C02D09092
:100EB0002D02E0902E02F0902F02A7019601609182
:100EC000DF097091E0098091E1099091E2090E94A7
:100ED000862E882341F0C092DF09D092E009E0928B
:100EE000E109F092E2098091DE0981111092DE0998
:100EF00062E67AE08091E30920DB60914402709120
:100F0000450280914602909147020E94252F20E0E1
:100F100030E040E05AE20E947A306B017C0180911F
:100F2000660A9091670AA091680AB091690A89835C
:100F30009A83AB83BC83BC01CD010E94252FA701FE
:100F400096010E947A3069877A878B879C876093A5
:100F50004A0A70934B0A80934C0A90934D0A8091F1
:100F6000620A9091630AA091640AB091650A8D8328
:100F70009E83AF83B887BC01CD010E94252FA701B6
:100F800096010E947A302B013C0140924E0A509209
:100F90004F0A6092500A7092510AE0913F04F0911A
:100FA0004004C080D180E280F3809091280A9F871E
:100FB000A091290AAD8730902A0A20902B0AA70118
:100FC0009601692F7A2F832D922D0E94763087FD0E
:100FD0003AC3A70196016091340A7091350A809155
:100FE000360A9091370A0E94763087FD2CC3109202
:100FF000520A1092530A1092540A1092550A1092F3
:10100000560A1092570A1092580A1092590A89816A
:101010009A81AB81BC8180935A0A90935B0AA0931A
:101020005C0AB0935D0A8D819E81AF81B885809303
:101030005E0A90935F0AA093600AB093610A2091C0
:10104000400A3091410A4091420A5091430A60910E
:1010500030027091310280913202909133020E94ED
:10106000212E4B015C012091440A3091450A4091A8
:10107000460A5091470A609134027091350280917E
:101080003602909137020E94212E69837A838B83E6
:101090009C8320911C0230911D0240911E025091B0
:1010A0001F02C501B4010E947A302091240A3091B8
:1010B000250A4091260A5091270A0E94222E6B0190
:1010C0007C010091240210912502909126029987BB
:1010D000A0912702AD839601A701B801892F9A2F0D
:1010E0000E94862E87FD16C00091140210911502F1
:1010F000B0911602B987E0911702ED839601A7011E
:10110000B8018B2F9E2F0E94763018161CF0860196
:10111000E986FD82B80189859D810E94602F6B015F
:101120007C0180DE811105C3C701B60136DE811165
:1011300000C320E030E040E857E4C701B6010E9458
:101140007A2F6B017C0120E030E0A9010E94862EFD
:1011500087FFF2C2C701B60190580E94F72ECC2437
:10116000DD24C61AD70A2091180230911902409145
:101170001A0250911B0269817A818B819C810E94A5
:101180007A302091200A3091210A4091220A509110
:10119000230A0E94222E8B013C01E0902002F09055
:1011A0002102F0912202F987209123022D839B01D5
:1011B000AC01B7018F2F9D810E94862E87FD16C03E
:1011C000E0901002F0901102309112023987809164
:1011D00013028D839801A301B70189859D810E9427
:1011E000763018161CF0780169867D82B7018985F2
:1011F0009D810E94602F2B013C0114DE8111A2C24F
:10120000C301B201CADD81119DC220E030E040E897
:1012100057E4C301B2010E947A2F2B013C0120E068
:1012200030E0A9010E94862E87FF8FC2C301B20160
:1012300090580E94F72EEE24FF24E61AF70A6CE07D
:1012400070E080E090E0D2D93C0190930F0A809347
:101250000E0A60914C0270914D026E157F0544F0AC
:1012600060914E0270914F026E157F050CF4B7012C
:1012700077FF02C070E060E06F3F710519F014F075
:101280006FEF70E0072E000C880B990B0E94252F42
:10129000AB01BC01C30173D969E070E080E090E06C
:1012A000A5D93C019093070A8093060A60915002E9
:1012B000709151026C157D0544F06091520270915D
:1012C00053026C157D050CF4B60177FF03C07195D0
:1012D000619571096F3F710519F014F06FEF70E0BF
:1012E000072E000C880B990B0E94252FAB01BC0127
:1012F000C30145D96BE070E080E090E077D93C0114
:101300009093FF098093FE096091540270915502F9
:101310006E157F0544F060915602709157026E156C
:101320007F050CF4B70177FF03C0719561957109D2
:101330006F3F710519F014F06FEF70E0072E000C8D
:10134000880B990B0E94252FAB01BC01C30117D953
:101350006AE070E080E090E049D93C019093F709A1
:101360008093F60960915802709159026C157D05C1
:1013700044F060915A0270915B026C157D050CF48B
:10138000B60177FF02C070E060E06F3F710519F0B1
:1013900014F06FEF70E0072E000C880B990B0E9481
:1013A000252FAB01BC01C301EAD861E0809148025E
:1013B000909149028C159D0509F460E088E001DBFD
:1013C00061E080914A0290914B028E159F0509F4CD
:1013D00060E08DE0F6DA2091000230910102409148
:1013E00002025091030269817A818B819C810E9463
:1013F0007A306D837E838F839887209104023091A9
:1014000005024091060250910702C501B4010E94F5
:101410007A3069877A878B879C874090280A50901A
:10142000290A60902A0A70902B0A8091C80990912D
:10143000C909A091CA09B091CB0989839A83AB836A
:10144000BC839C01AD01C301B2010E94862EE091D4
:101450003F04F091400481117EC180819181A2817D
:10146000B3818093280A9093290AA0932A0AB09303
:101470002B0AECE2FAE080914A0A90914B0AA09183
:101480004C0AB0914D0A80839183A283B3838091EB
:10149000520A9091530AA091540AB091550A809330
:1014A000400A9093410AA093420AB093430A809164
:1014B0004E0A90914F0AA091500AB091510A84832C
:1014C0009583A683B7838091560A9091570AA0917D
:1014D000580AB091590A8093440A9093450AA09300
:1014E000460AB093470A20913C0230913D02409158
:1014F0003E0250913F026D817E818F8198850E94CE
:101500007A302091200A3091210A4091220A50918C
:10151000230A0E94222E6093200A7093210A80934E
:10152000220A9093230A2091400230914102409177
:1015300042025091430269857A858B859C850E9481
:101540007A302091240A3091250A4091260A509140
:10155000270A0E94222E6093240A7093250A809302
:10156000260A9093270A40912C0450912D046091F3
:101570002E0470912F0490E080E029DB4091340428
:1015800050913504609136047091370481E090E009
:101590001EDB60912C0470912D0480912E0490919B
:1015A0002F046F5F7F4F8F4F9F4F60932C0470937A
:1015B0002D0480932E0490932F04A0913F04B091AA
:1015C0004004BA83A9830E94232F9B01AC01609140
:1015D00030047091310480913204909133040E9460
:1015E0007A30E981FA816083718382839383809169
:1015F000340490913504A0913604B09137040196DB
:10160000A11DB11D8093340490933504A09336043A
:10161000B09337042F960FB6F894DEBF0FBECDBF40
:10162000DF91CF911F910F91FF90EF90DF90CF90BE
:10163000BF90AF909F908F907F906F905F904F90F2
:101640003F902F9008958090340A9090350AA09092
:10165000360AB090370A9401A5016F857D85832DE8
:10166000922D0E94862EA701960187FF47C0B401E4
:10167000C5010E94862E87FD52C08F849D84A32CB5
:10168000B22CECE2FAE0FE87ED879401A501C701D8
:10169000B6010E94212E6B017C01ED85FE85208123
:1016A00031814281538169857A858B859C850E9431
:1016B000212EA70196010E948A2E6093520A7093F0
:1016C000530A8093540A9093550AAD85BE851496AB
:1016D0002D913D914D915C911797C301B2010E94EC
:1016E000212EA70196010E948A2E6093560A7093BC
:1016F000570A8093580A9093590A89CC6F857D8543
:10170000832D922D0E94763087FF0EC08F849D849A
:10171000A32CB22C2CE23AE03E872D87B6CF88E38B
:101720009AE09E878D87B1CFA8E3BAE0BE87AD87E8
:10173000ACCFC12CD12C7601C701B6010E94F72E87
:101740006B0111CD412C512C3201C301B2010E9419
:10175000F72E7B0174CDC090340AD090350AE0900A
:10176000360AF090370A80809180A280B380A7016A
:10177000960169817A818B819C810E94862E8111DC
:101780000BC08092340A9092350AA092360AB09229
:10179000370AE8E3FAE06FCEA7019601C301B20170
:1017A0000E94862E87FFEDCF8092280A9092290A08
:1017B000A0922A0AB0922B0A5CCE8F929F92AF928F
:1017C000BF92DF92EF92FF920F931F93CF93DF931D
:1017D00084E090E0ABDAE2E9F3E08CE394E0978315
:1017E0008683CFE3D4E0D093D303C093D20300E346
:1017F00014E0158B048BF093FD03E093FC03F58359
:10180000E48321E030E0DC012D933C9385E992E014
:101810009387828721E434E03983288340E050E0D5
:1018200060E87FEB409338045093390460933A04A6
:1018300070933B044AE057ED63E27CE3D8014D939B
:101840005D936D937C931397CAE1D4E089E298E6A7
:10185000A4ECBCEB88839983AA83BB8388EE91E4D4
:10186000A0E9B6E580931E0490931F04A093200482
:10187000B093210484ED91E4AFE0BEE380932204B1
:1018800090932304A0932404B093250489ED9FE151
:10189000A6ECB2EA8093260490932704A093280430
:1018A000B0932904A6E8B3E0B383A283E4E7F3E0AE
:1018B0001196FC93EE9387EA92E091838083938361
:1018C0008283958384839783868391878087938798
:1018D00082879587848797878687918B808B8AE21A
:1018E00094E015969C938E9314971396DC93CE9365
:1018F000129717963C932E9316978091C809909152
:10190000C909A091CA09B091CB09C8EDD9E080936B
:10191000280A9093290AA0932A0AB0932B0A80934D
:10192000340A9093350AA093360AB093370A00E040
:1019300012E0F80180AD91ADA2ADB3AD8093400A45
:101940009093410AA093420AB093430A8093440AB9
:101950009093450AA093460AB093470A80859185E3
:10196000A285B3858093200A9093210AA093220A2E
:10197000B093230A84859585A685B7858093240A2C
:101980009093250AA093260AB093270A1F8A1C86E3
:1019900080A591A5A2A5B3A58B8B9C8BAD8BBE8B8F
:1019A000812C912C540183948D869E86AF86B88AB3
:1019B0004FEE59E063E182E10E949401DD24D3946B
:1019C000D98A1A8A8F890E94AF021B861882F80171
:1019D00084A595A5A6A5B7A58F839887A987BA875B
:1019E00089829A82AB82BC8243EE59E063E082E056
:1019F0000E949401DD821E828B850E94AF0218AA8C
:101A000089AA9AAAABAABCAAE12CF12C8701A80149
:101A100097016CE070E080E090E00E943A039FAB99
:101A20008EABDDAA18A689A69AA6ABA6BCA6A8016D
:101A3000970169E070E080E090E00E943A039FA780
:101A40008EA7DDA618A289A29AA2ABA2BCA2A80169
:101A500097016BE070E080E090E00E943A039FA362
:101A60008EA3DDA2188E898E9A8EAB8EBC8EA801B5
:101A700097016AE070E080E090E00E943A039F8F57
:101A80008E8FDD8E1092180A8092190A90921A0A8F
:101A9000A0921B0AB0921C0A61E088E00E94D9045F
:101AA000D0921D0A18AE89AE9AAEABAEBCAE61E064
:101AB0008DE00E94D904DDAEDF91CF911F910F918F
:101AC000FF90EF90DF90BF90AF909F908F90089520
:101AD0008091E409811114C081E08093E409809130
:101AE000E5099091E609A091E709B091E80901970D
:101AF000A105B10529F48091E90981110E94BC0278
:101B00008091D809811114C081E08093D809809117
:101B1000D9099091DA09A091DB09B091DC0901970C
:101B2000A105B10529F48091DD0981110E94BC0253
:101B30008091080A81112EC081E08093080A80916B
:101B4000090A90910A0AA0910B0AB0910C0A019718
:101B5000A105B105F9F480910D0A8823D9F06CE054
:101B600070E080E090E00E94F60290930F0A80936C
:101B70000E0A40E050E0BA010E94BF026CE070E043
:101B800080E090E00E94F60290930F0A80930E0A84
:101B90000E948B038091000A81112EC081E0809306
:101BA000000A8091010A9091020AA091030AB09163
:101BB000040A0197A105B105F9F48091050A88236B
:101BC000D9F069E070E080E090E00E94F602909326
:101BD000070A8093060A40E050E0BA010E94BF0263
:101BE00069E070E080E090E00E94F6029093070ABE
:101BF0008093060A0E948B038091F80981112EC000
:101C000081E08093F8098091F9099091FA09A091F7
:101C1000FB09B091FC090197A105B105F9F4809188
:101C2000FD098823D9F06BE070E080E090E00E942D
:101C3000F6029093FF098093FE0940E050E0BA015C
:101C40000E94BF026BE070E080E090E00E94F6022C
:101C50009093FF098093FE090E948B038091F00905
:101C600081112EC081E08093F0098091F10990915B
:101C7000F209A091F309B091F4090197A105B1050A
:101C8000F9F48091F5098823D9F06AE070E080E0EA
:101C900090E00E94F6029093F7098093F60940E0E5
:101CA00050E0BA010E94BF026AE070E080E090E07C
:101CB0000E94F6029093F7098093F6090E948B0325
:101CC0008091180A811103C081E08093180A8091E5
:101CD000100A811103C081E08093100A08954F9289
:101CE0005F926F927F928F929F92AF92BF92CF92AC
:101CF000DF92EF92FF920F931F93F8944090550458
:101D0000509056046090570470905804C090490455
:101D1000D0904A04E0904B04F0904C0441305105BF
:101D200009F0A4C09B01AC012419350946095709E3
:101D300029013A0100915104109152042091530459
:101D40003091540448015901840C951CA61CB71C01
:101D500080169106A206B306A0F400914D041091DE
:101D60004E0420914F04309150040F5F1F4F2F4FAE
:101D70003F4F00934D0410934E0420934F04309333
:101D800050048092510490925204A0925304B09255
:101D9000540400914D0410914E0420914F04309151
:101DA00050048092590490925A04A0925B04B0921D
:101DB0005C0400935D0410935E0420935F043093F1
:101DC0006004609355047093560480935704909375
:101DD0005804A0E1B7E2A30192010E9420396C0DE2
:101DE0007D1D8E1D9F1D6093490470934A0480934E
:101DF0004B0490934C0400915C0210915D02209181
:101E00005E0230915F020F3F1F4F2F4F3F4FF1F0A7
:101E100000915C0210915D0220915E0230915F02A0
:101E20000E3F1F4F2F4F3F4F89F0C0905C02D09064
:101E30005D02E0905E02F0905F0221E08C149D0450
:101E4000AE04BF0408F420E02093650478941F9149
:101E50000F91FF90EF90DF90CF90BF90AF909F9049
:101E60008F907F906F905F904F9008954B015C0131
:101E700084189508A608B708A3019201261B370B02
:101E8000480B590B6415750586059705D0F0821629
:101E90009306A406B50640F420E030E0A9018114C1
:101EA0009104A104B10491F4A0E1B7E20E942039A9
:101EB000A7019601261B370B480B590BCA01B90124
:101EC000C5CF82169306A406B50670F7A0E1B7E267
:101ED000A50194010E9420396C0D7D1D8E1D9F1D52
:101EE000B5CFFDCECF93DF9300D01F92CDB7DEB735
:101EF0001C821B821A821982109261041092620461
:101F00001092630410926404BE016F5F7F4FCE0194
:101F100003960E946F2C69817A818B819C810E943B
:101F20005D25009761F4BE016F5F7F4FCE01039680
:101F30000E947B2C69817A818B819C812FD50F90A7
:101F40000F900F900F90DF91CF910895FF920F9314
:101F50001F93CF93DF93082F60E070E0CB010E94C6
:101F60001F33FF24F3940E944624EC01892B89F04F
:101F700010E0CE3F8FEFD80769F0002361F160E0F9
:101F800070E0CB010E941F3381E090E0892B59F370
:101F900022C011E026D5EC01892B21F0CE3F8FEF36
:101FA000D80759F711111EC011E0229609F410E06C
:101FB0000E94F623EC01892B21F0CE3F8FEFD8074A
:101FC000E1F6111111C011E0CE3F8FEFD80709F4EF
:101FD00010E001110BC0CE01DF91CF911F910F9145
:101FE000FF90089511E0E4CF11E0F3CF60E070E0DE
:101FF000CB010E941F331F25812F90E0C7CFCF93C5
:10200000DF9380916504882321F060E070E0CB01CC
:102010004DD636D6D0E0C0E0892B71F06AE070E092
:1020200080E090E00E941F3381E090DF29D6219666
:10203000C03D27E0D20781F728D60E94B125109233
:102040007D0410927C041092760410927704109212
:102050007804109279041092720410927304109212
:1020600074041092750410926E0410926F04109212
:1020700070041092710410926A0410926B04109212
:102080006C0410926D041092660410926704109212
:102090006804109269044EEF5FEF6FEF7FEF40939B
:1020A0005C0250935D0260935E0270935F02109237
:1020B0006504E9E5F4E028E0DF011D922A95E9F7DF
:1020C000109255041092560410925704109258041E
:1020D000109251041092520410925304109254041E
:1020E00010924D0410924E0410924F04109250041E
:1020F0001092490410924A0410924B0410924C041E
:10210000DF91CF9108951092890410928A04109261
:102110008B0410928C041092880480919104909109
:102120009204909387048093860410928504109201
:102130008404109280041092810410928204109200
:10214000830410928E0410928D0490E080E0089534
:10215000CF92DF92EF92FF920F931F93CF938C0158
:10216000019709F055C0209191043091920480911B
:102170008604909187044091910450919204509369
:102180008704409386042817390781F0109285044C
:1021900010928404109280041092810410928204A0
:1021A0001092830410928E0410928D0480919104F9
:1021B00090919204019761F580918D0490918E0425
:1021C000892B21F480916002811112C080918D04CD
:1021D00090918E040197E1F48091800490918104A4
:1021E000A0918204B09183040197A105B10581F407
:1021F0001092800410928104109282041092830441
:102200001092600282E090E090938E0480938D049F
:102210008091910490919204019709F01CC18091E2
:10222000A7049091A8048017910709F014C1809128
:10223000A3049091A404A091A504B091A6040097D2
:1022400009F409C12091A20421110DC04091A304F9
:102250005091A4046091A5047091A604452B462BCF
:10226000472B09F4F8C020918D0430918E04223060
:10227000310509F0F0C0209184042111ECC0FC016B
:10228000C080D180E280F38080918804882309F4A3
:10229000D3C08091940490919504892B09F4FEC0D9
:1022A000209194043091950481E02230310509F0A9
:1022B00080E02091940430919504C1E021303105F3
:1022C00049F02091940430919504C1E02230310509
:1022D00009F0C0E0882309F456C020919E04309193
:1022E0009F044091A0045091A104C701B6010E942F
:1022F000763087FD14C020919E0430919F04409158
:10230000A0045091A1046091890470918A04809185
:102310008B0490918C040E94862E87FD22C0209110
:102320009E0430919F044091A0045091A104C701E4
:10233000B6010E947630181634F520919E04309133
:102340009F044091A0045091A10460918904709170
:102350008A0480918B0490918C040E94862E8111B6
:1023600012C08091960490919704A0919804B09126
:102370009904892B8A2B8B2B19F481E08093850497
:1023800081E080938404CC2309F456C020919E04FC
:1023900030919F044091A0045091A104C701B6015F
:1023A0000E94862E87FF14C020919E0430919F04C6
:1023B0004091A0045091A1046091890470918A0415
:1023C00080918B0490918C040E94763087FF22C00C
:1023D00020919E0430919F044091A0045091A1044B
:1023E000C701B6010E94862E811126C020919E044D
:1023F00030919F044091A0045091A1046091890400
:1024000070918A0480918B0490918C040E947630A4
:10241000181694F48091960490919704A0919804D2
:10242000B0919904892B8A2B8B2B19F481E080932E
:10243000850481E08093840481E09091840491116B
:1024400080E080938804C0928904D0928A04E0924C
:102450008B04F0928C040130110509F067C1809162
:102460008D0490918E04892BD9F4109293041092CC
:10247000840480916002882379F082E090E0909358
:102480008E0480938D04109260022091910430910B
:10249000920481E0232BE9F080E01BC081E009CFAA
:1024A0001092600280919304882349F01092850471
:1024B00010928E0410928D0410929304EDCF8091AF
:1024C000910490919204892BE1F080918404109200
:1024D000840420918D0430918E042230310509F45A
:1024E0005EC088F42115310509F448C0213031055A
:1024F00009F4F3C01092850410928404109293049E
:1025000038C081E0E6CF2330310509F4B1C0243072
:10251000310581F7409180045091810460918204DB
:1025200070918304411551056105710561F04150B9
:1025300051096109710940938004509381046093AB
:1025400082047093830440918004509181046091CF
:10255000820470918304452B462B472BD9F420919C
:102560008F04309190042130310509F046C010925B
:10257000850410928E0410928D040CC0809160022C
:10258000882341F082E090E090938E0480938D0444
:102590001092600210927E0480918504CEC0882340
:1025A000C9F38091960490919704A0919804B091FA
:1025B0009904181619061A061B060CF07DC08091A6
:1025C000910490919204019709F076C0809196044D
:1025D00090919704A0919804B091990480938004FD
:1025E00090938104A0938204B093830483E090E0ED
:1025F00090938E0480938D04CDCF40919A04509196
:102600009B0460919C0470919D04452B462B472BA5
:10261000A9F01092850480919A0490919B04A09156
:102620009C04B0919D048093800490938104A093B6
:102630008204B093830481E090E0DACF882399F09C
:102640008091610290916202A0916302B091640254
:102650008093800490938104A0938204B0938304B8
:1026600084E090E0C5CF1092850482E090E0C0CF76
:102670008091800490918104A0918204B0918304A0
:102680000097A105B10559F00197A109B1098093FF
:10269000800490938104A0938204B093830480917A
:1026A000800490918104A0918204B0918304892BCD
:1026B0008A2B8B2B09F06ECF809161029091620280
:1026C000A0916302B0916402892B8A2B8B2B09F4B1
:1026D0004ECF81E080938504B3CF40918004509128
:1026E0008104609182047091830441155105610554
:1026F000710561F0415051096109710940938004ED
:102700005093810460938204709383044091800409
:10271000509181046091820470918304452B462B73
:10272000472B09F037CF8111C7CF9FCF80917E040F
:10273000882309F431CF80917F04CF911F910F91AD
:10274000FF90EF90DF90CF9008951092890410923F
:102750008A0410928B0410928C04109288041092B8
:102760008E0410928D0410928704109286041092A9
:10277000A8041092A7041092850410928404109269
:1027800080041092810410928204109283041092AB
:102790007F0410927E041092A3041092A40410925D
:1027A000A5041092A6041092A20410929E04109206
:1027B0009F041092A0041092A10488EE93E0A0E080
:1027C000B0E08093610290936202A0936302B093A1
:1027D000640210929A0410929B0410929C0410922E
:1027E0009D041092960410929704109298041092EF
:1027F0009904109295041092940481E080936002F1
:1028000010929304109292041092910410929004EA
:1028100010928F0490E080E008958091910490914F
:102820009204892B19F580916002882351F08091E0
:102830009304811106C081E080937F0480937E041D
:102840000895209193043091600281E090E0332359
:1028500011F090E080E030E082239323892B21F077
:1028600010927F0481E0EACF10927E04089582E006
:1028700090E0FA01918380838FEF9FEF0895CF93CB
:10288000DF93EA01009711F00E94D1261982188285
:1028900090E080E0DF91CF910895DB01009719F47B
:1028A0008FEF8C9308952EEF2C93FC013F96EF3021
:1028B000F10508F034C08827EF59FB4E8F4F0C9478
:1028C00018398D148B14891487148514811483147A
:1028D0007F147D147B1478147414701476148F1480
:1028E00080E311968C93089589E2FBCF82E2F9CFC1
:1028F00011961C92089583E2F4CF81E2F2CF81E138
:10290000F0CF87E2EECF8AE2ECCF80E1EACF84E23B
:10291000E8CF88E2E6CF86E2E4CF81E3E2CF80E24F
:10292000E0CF8091B5049091B60408959093B604D9
:102930008093B50408958091B40408959091B404EF
:10294000892B8093B4040895982F90958091B404B6
:1029500089238093B40408958091B30408958091ED
:10296000B1049091B20408956115710559F0FB010D
:1029700030E020E070E060E02417350719F06115C1
:10298000710511F0CB010895A081B181A817B90795
:1029900009F4BF012F5F3F4F3696EECF8091B70409
:1029A00081111CC060D266D29093AA048093A904BE
:1029B0000E94CF1E0E94E11E9093AE048093AD044E
:1029C0000E945E230E9465239093AC048093AB0425
:1029D00081E08093B70490E080E0089584EF9FEF5A
:1029E00008958F929F92AF92BF92CF92DF92EF9213
:1029F000FF920F931F93CF93DF9300D000D000D0AE
:102A00001F92CDB7DEB71A86198618861F821E82DE
:102A10001D821C821B821A8219828091B70407EFE3
:102A20001FEF882309F49CC08E010D5F1F4F9E018C
:102A30002B5F3F4FAE01495F5F4FBE01675F7F4F26
:102A400090E080E00E94E2248C01009721F005963E
:102A5000029708F0DBC029853A852115310509F474
:102A600002C1ED80FE804B815C81B701640F751F50
:102A70008F8198858617970708F4F5C0E20EF31E3C
:102A8000D7019C91903C09F07FC04230510508F479
:102A90007BC011968C914091B5045091B604452BA2
:102AA00009F49CC0913F08F071C02CE1290F2D3032
:102AB00008F48BC02DE2290F203108F489C0903C26
:102AC00021F48150823008F483C088E3890F8B3071
:102AD00008F481C09DE4C92E94E1D92EE7E3F4E126
:102AE0006D817E81AE014F5F5F4F89859A85199513
:102AF0005C01C114D104A1F189809A8081149104F0
:102B000079F18B819C818815990508F487C010E0C4
:102B100000E04B815C8170E060E0C7010E944239B7
:102B200001151105E9F449815A8169857A858D81FC
:102B30009E81680F791FC501F6011995E980FA8019
:102B40000D811E812F81388549855A856FEF7FEF72
:102B500081E090E00E947D248C01892B09F056C011
:102B6000C8012A960FB6F894DEBF0FBECDBFDF9125
:102B7000CF911F910F91FF90EF90DF90CF90BF907A
:102B8000AF909F908F90089580E085CF30E020E057
:102B9000220F331FF901E755FB4F0190F081E02D23
:102BA000309709F497CF892F90E01995009709F491
:102BB00091CFDC011296ED91FC9113971496CD9074
:102BC000DC90309709F08CCF1FC021E030E0E0CFDF
:102BD00022E030E0DDCF23E030E0DACFD12CC12C91
:102BE000EFE3F4E19F3F09F07BCFE091A904F0917E
:102BF000AA04309721F4C90104EF1FEF0CC08FEF36
:102C000090E019950097A9F604EF1FEF89859A8542
:102C1000009709F4A5CF0E94D126A2CF0E94AC252F
:102C20008C0189859A850E94D12670E060E0C401FC
:102C30000E94452598878F830E947A249E838D83E6
:102C40006F8178856115710559F0C8010E945D2872
:102C50009A87898706EF1FEF892B09F058CF59CF44
:102C600008EF1FEF56CF08EF1FEFD0CF2091B7042A
:102C7000222319F020E00C94E61E87EF9FEF0895C1
:102C80008091B5049091B60408950E946A230E9431
:102C9000C422F5D0E9EAF4E088E0DF011D928A95CC
:102CA000E9F71092B70490E080E008950C94222197
:102CB00021E040E050E0BA010C94E61E86E090E08E
:102CC000FA019183808390E080E0089547E050E02E
:102CD0006AEA72E049CEDF92EF92FF920F931F9360
:102CE000CF93DF938A01EC01C60FD71FE090BB049E
:102CF000F090BC04D9800E949425D816190678F06B
:102D000082E090E0F801918380838EEF9FEFDF9166
:102D1000CF911F910F91FF90EF90DF900895EF28D2
:102D200041F482E090E0F8019183808384EF9FEF8B
:102D3000EECF89818093BA0490E00196F8019183E7
:102D4000808390E080E0E3CFCF93DF93EA010E949D
:102D5000D321882321F00E94A1250E94D42182E062
:102D600090E0998388838BEF9FEFDF91CF91089557
:102D7000CF93DF93EB0186E0FB0111928A95E9F78F
:102D80008FEF8883D8DD8983E7DD8A83E8DD9D8343
:102D90008C83DF91CF910895CF93DF93EA010E9456
:102DA000D621811109C082E090E09983888385EF64
:102DB0009FEFDF91CF91089590E080E0B7DD81E053
:102DC00090E09983888390E080E0F3CF0F931F9386
:102DD000CF93DF93EA018C01060F171F0E94D621C3
:102DE00081110BC082E090E09983888385EF9FEF8B
:102DF000DF91CF911F910F910895F8018181823069
:102E000038F082E090E0998388838EEF9FEFF0CFD7
:102E100081E090E08BDD88E090E09983888390E00A
:102E200080E0E6CFCF93DF930097D1F4EB01FB0175
:102E3000329686E0DF011D928A95E9F78FEF88834D
:102E400085E089831A820E9494258B830E949325B2
:102E50009D838C8381E08E838F83DF91CF91089552
:102E6000DF91CF911ACD86E696E19093B9048093D5
:102E7000B80408958091B8049091B904089510920F
:102E8000B9041092B80408958091BB049091BC04D9
:102E90000895411105C0611571058105910561F025
:102EA0006093BB047093BC048093BD049093BE04F4
:102EB0004093BF0481E0089580E00895FF920F934E
:102EC0001F93CF93DF938A01EC01C60FD71FF980C0
:102ED0000E949425F816190668F082E090E0F80147
:102EE000918380838EEF9FEFDF91CF911F910F91A0
:102EF000FF9008956C817D818E819F814B81C9DF18
:102F0000811108C082E090E0F8019183808384EF12
:102F10009FEFEACF89818093BA0490E00196F8018F
:102F20009183808390E080E0DFCFCF93DF93EA014D
:102F3000FC01E60FF71F64817581868197814381CB
:102F4000A8DF811109C082E090E09983888384EF33
:102F50009FEFDF91CF91089581E090E0998388837E
:102F600090E080E0F6CFEBEBF4E0408151816281AC
:102F70007381480F511D611D711D40835183628310
:102F800073830895CF93C091BA044C2F50E06091A1
:102F9000BB047091BC0401960E9439398C2FE3DF89
:102FA0001092BA04CF910895009799F48091BB04D0
:102FB0009091BC042FEFFB012083892B59F02091C5
:102FC000BA0430E02F5F3F4F2417350719F4CB01C7
:102FD000D9CF63CC0895009799F48091BB04909168
:102FE000BC042FEFFB012083892B59F02091BA04F8
:102FF00030E02F5F3F4F2417350719F4CB01C2CFC4
:103000004CCC089523E1AC01249FC001259F900D75
:103010001124E091C404F091C504E80FF91F238145
:1030200034812250310981E02230310508F080E0FE
:1030300008950F931F93CF93DF930091C6041091CF
:10304000C704D0E0C0E080E00C171D0749F491E010
:10305000811190E0892FDF91CF911F910F910895F9
:103060008111F5CFCE01CEDF2196EECFA091C40421
:10307000B091C504109729F12091C6043091C7047E
:1030800082179307F0F453E1589F9001599F300D38
:103090001124A20FB31FED91FC911197309789F085
:1030A00012968C91681768F48DE0689FE00DF11D11
:1030B000112480819181892B21F081E0928149172F
:1030C00008F080E008959C0143E1429FC001439FC6
:1030D000900D1124E091C404F091C504E80FF91F8C
:1030E0008385823091F481E090E065817681409122
:1030F0006502509166026417750711F490E080E054
:10310000892B19F081E0232B09F080E00895FC0160
:10311000A081B1818DE0689FA00DB11D112413968F
:103120004D915C9185859685489F9001499F300D12
:10313000589F300D1124C9010196611103C04781C8
:1031400044FD04960895EF92FF920F931F93CF933F
:10315000DF93EA01FC01E60FF71F02811381E4808F
:10316000F5804F2D6E2DC80181DF81110DC082E0E9
:1031700090E0998388838EEF9FEFDF91CF911F912D
:103180000F91FF90EF900895C8013CDF882339F03C
:1031900082E090E09983888388EF9FEFEECF1093D1
:1031A0006C0200936B02E0926D02F0926E0281E07D
:1031B00090E09983888390E080E0DFCFCF92DF9228
:1031C000EF92FF920F931F93CF93DF937A01EC015D
:1031D000C60FD71FC0906B02D0906C0200916D0299
:1031E00010916E02412F602FC60140DF811110C087
:1031F00082E090E0F701918380838AEF9FEFDF9177
:10320000CF911F910F91FF90EF90DF90CF90089595
:10321000C601F8DE882341F082E090E0F701918357
:10322000808388EF9FEFEBCF4C815D816E817F8142
:103230009A8189818F3F41F082E090E0F70191838C
:1032400080838EEF9FEFDBCFE3E1EC9D9001ED9D5E
:10325000300D1124E091C404F091C504E20FF31F76
:103260000190F081E02D2DE0029FE00DF11D112471
:103270000190F081E02D27E0129FE00DF11D112457
:10328000808391838B818283438354836583768398
:103290001F5F10936E0281E090E0F70191838083BD
:1032A00090E080E0ACCFEF92FF920F931F93CF930B
:1032B000DF937A018C01060F171FC091C404D091CF
:1032C000C504209781F021E030E0F80182819381EC
:1032D0004091C6045091C7048417950710F030E060
:1032E00020E0232B71F482E090E0F701918380834A
:1032F0008EEF9FEFDF91CF911F910F91FF90EF9095
:10330000089543E1489F9001499F300D1124C20F59
:10331000D31F78DE882341F082E090E0F7019183AB
:10332000808388EF9FEFE6CFF80124813581203834
:103330003105C8F687818111D6CF4181842F90E075
:103340008F7E009741F082E090E0F70191838083C7
:1033500086EF9FEFCFCF4F833E832D832681288733
:103360001986223010F421E0288721E030E0F701AF
:1033700031832083BFCF88E090E0FA01918380837E
:1033800090E080E00895FB018FEF808381E18183ED
:103390008FEF9FEF9383828380E890E0958384830F
:1033A000168217820895FB018FEF808391E091834D
:1033B00082839383848384E3858381E090E0978391
:1033C00086830895DF92EF92FF920F931F93CF931E
:1033D000DF93EA01FC01E60FF71F8181813071F074
:1033E00082E090E0998388838FEF9FEFDF91CF9108
:1033F0001F910F91FF90EF90DF900895828193814C
:10340000D4802581E680F7800091C4041091C50422
:103410000115110539F482E090E0998388838CEFDF
:103420009FEFE4CF4091C6045091C70484179507DD
:1034300038F082E090E0998388838EEF9FEFD6CFBB
:10344000892B39F082E090E09983888386EF9FEFA3
:10345000CDCF8D2D8D7FB1F72130A1F781E0D11037
:1034600006C091E0E916F10431F080E004C0E2E02A
:10347000EE16F104D0F3882329F390E080E0C2DD5A
:10348000882339F082E090E09983888388EF9FEF6A
:10349000ADCFF801D38681E08487F686E586108A71
:1034A000178681E090E09983888390E080E09ECF4A
:1034B0004CE050E064ED72E057CA8F929F92BF9249
:1034C000CF92DF92EF92FF920F931F93CF93DF93F0
:1034D000EA01FC01E60FF71F828193810481B58028
:1034E000E091C404F091C504309791F482E090E03B
:1034F000998388838CEF9FEFDF91CF911F910F917C
:10350000FF90EF90DF90CF90BF909F908F900895A5
:103510002091C6043091C7048217930738F082E0E7
:1035200090E0998388838EEF9FEFE6CF23E1289F79
:103530006001299FD00C1124EC0DFD1DE080F1806D
:10354000E114F10499F28281081748F78DE0089F91
:1035500080011124E00EF11EF70180819181892BF9
:1035600029F6BB20E1F2F7E0BF9E40011124C4011F
:103570000E949826F70191838083E091C404F09122
:10358000C504EC0DFD1D0190F081E02DE00FF11F51
:1035900080819181009739F482E090E0998388835B
:1035A0008DEF9FEFA9CFA40170E060E00E94423947
:1035B0008091C4049091C504C80ED91EF601808183
:1035C0009181080F191FF801B28281E090E0998380
:1035D000888390E080E090CFAF92BF92CF92DF924D
:1035E000FF920F931F93CF93DF93EA01FC01E60F45
:1035F000F71F82819381F4800091C4041091C50467
:103600000115110581F482E090E0998388838CEFA5
:103610009FEFDF91CF911F910F91FF90DF90CF909F
:10362000BF90AF9008952091C6043091C7048217CF
:10363000930738F082E090E0998388838EEF9FEFC4
:10364000E8CF2FEF2F0D2C3FA8F723E1289F600133
:10365000299FD00C11240C0D1D1DF8018081918132
:10366000892B89F6FDE0FF9E50011124C5010E94BF
:103670009826F80191838083E091C404F091C504F9
:10368000EC0DFD1D80819181009739F482E090E07E
:10369000998388838DEF9FEFBCCFA50170E060E038
:1036A0000E944239E091C404F091C504EC0DFD1D67
:1036B000F28281E090E09983888390E080E0A9CF56
:1036C000CF92DF92EF92FF920F931F93CF93DF93EE
:1036D000860F971FFC01028113818091C404909191
:1036E000C504892B81F082E090E0FA019183808308
:1036F0008CEF9FEFDF91CF911F910F91FF90EF9093
:10370000DF90CF900895C801B0E0A0E00197A10933
:10371000B1098F3F9F4FA105B10540F082E090E0D5
:10372000FA01918380838EEF9FEFE4CF7A0183E1EA
:10373000809F6001819FD00C1124C6010E949826B1
:10374000EC01009741F482E090E0F70191838083DF
:103750008DEF9FEFCFCFA60170E060E00E9442396D
:10376000D093C504C093C4041093C7040093C60447
:1037700090E080E02FEF3FEF41E061E070E08017E4
:10378000910741F481E090E0F7019183808390E01C
:1037900080E0B0CF3A8B298B1B864C877E876D8764
:1037A000188A1F8601966396EACFEF92FF921F93C5
:1037B000CF93DF93EC0110E0F12CE12C6A81161716
:1037C000B0F083E0689FB0011124AE014F5E5F4FFF
:1037D000C7010E94FD26009721F02FEF3FEF3A8BA3
:1037E000298BDF91CF911F91FF90EF900895612F6A
:1037F000CE018DDC61E070E00E944525E816F906F7
:1038000008F47C011F5FDACFF8942091C204309154
:10381000C30481E02115310509F080E0232B09F074
:10382000789408952F923F924F925F926F927F9279
:103830008F929F92AF92BF92CF92DF92EF92FF92C0
:103840000F931F93CF93DF933C01660E771EF30116
:10385000828193814C01B12CA12CC091C404D091E0
:10386000C504209769F021E030E06091C6047091B2
:10387000C7048617970710F030E020E0232BD1F41F
:1038800082E090E0FA01918380838EEF9FEFDF91D9
:10389000CF911F910F91FF90EF90DF90CF90BF904D
:1038A000AF909F908F907F906F905F904F903F90E0
:1038B0002F90089580926F0290927002A0927102F0
:1038C000B092720263E1689F9001699F300D1124EC
:1038D000C20FD31FF3018181833040F082E090E07A
:1038E000FA019183808386EF9FEFD1CF2A012B814C
:1038F0003C81232BF1F4288139819F8191FF2EC0D7
:10390000232B09F46FC02091C9049A81422F490FDB
:103910005527551FBA0141E050E06138710514F098
:1039200050E040E0452B09F45DC02A87920F909348
:10393000C9048150823008F481C066DF882309F40D
:10394000D8C0F3018181813009F48DC008F47BC0B7
:10395000823009F4C6C090E080E0ADC0232B09F4AA
:1039600041C02091C8049A81E22FE90FFF27FF1F71
:1039700041E050E0ED3FF10514F050E040E0452B10
:1039800089F12A87920F9093C804D3CFA081B18187
:10399000A20FB31F11966C91060F111D0196295F9E
:1039A0003F4F8417950794F38D859E85089F1001DE
:1039B000099F300C189F300C1124C114D104D1F48C
:1039C0008F8184FF17C00E949325F5E02F0E311CD4
:1039D00021E08215930508F420E0A701435F5F4FC3
:1039E00021110EC082E090E0F2019183808387EF85
:1039F0009FEF4DCF0E9493252FEF221A320AE8CF76
:103A000088819981E80EF91EF70114830383FFEF83
:103A1000CF1ADF0A7A018A818C151D0409F00CF493
:103A20008CCFE881F981EE0DFF1D428150E030E03E
:103A300020E010E000E090E080E0B3CFF12CE12C3A
:103A4000D12CC12CE8CF81E090E09C838B83F1DA0C
:103A5000882309F480CF81E090E00E94961480E4EE
:103A60000E94A41478CF89899A89019661F083E035
:103A700090E09C838B8382E090E00E94961480E427
:103A80000E949E1468CF8D819E81209165023091A5
:103A9000660282179307D1F46091690270916A02FD
:103AA000AE014F5E5F4F80916702909168020E9465
:103AB0001C280097E1F2789422E030E0F201318393
:103AC0002083892B99F08DEF9FEFE1CE89288A28FA
:103AD0008B2869F6029758F6CE0167DE188A1F8692
:103AE000E8CF82E090E09C838B8335CF90E080E04C
:103AF000CECE82E090E0F2019183808385EF9FEF4C
:103B0000C6CE8F929F92AF92BF92CF92DF92EF92EA
:103B1000FF920F931F93CF93DF93EA018C01060F5F
:103B2000171FF8018181833098F082E090E099833B
:103B3000888386EF9FEFDF91CF911F910F91FF90C8
:103B4000EF90DF90CF90BF90AF909F908F900895AF
:103B50008091C4049091C504892B61F081E090E0CC
:103B60002091C6043091C704232B11F490E080E02B
:103B7000892B39F482E090E0998388838EEF9FEF60
:103B8000DACF42DE882309F4E0C0F8018181813078
:103B900009F496C0E8F0823099F42091C60430917F
:103BA000C704E091C404F091C50490E080E041E0D6
:103BB00050E02817390709F0BEC03BDA811117C061
:103BC000789481E090E09983888390E080E0B3CF9F
:103BD0002091C6043091C704E091C404F091C5045B
:103BE00090E080E041E050E02817390741F481E09F
:103BF00090E00E94961480E40E94A414E1CF6381B7
:103C00007481672B11F05483438301967396ECCF34
:103C1000E091C404F091C504E00FF11F23813481C9
:103C200022303105D9F4218932892F3F3F4FB1F439
:103C3000258136814091650250916602241735072F
:103C400061F5AF014F5E5F4F6091690270916A024A
:103C500080916702909168020E941C28EFEFCE1AB3
:103C6000DE0AEE0AFE0A0D5E1F4F4091C604509117
:103C7000C70470E060E0C416D506E606F70644F512
:103C8000009731F27894892B09F49BCF82E090E081
:103C9000998388838DEF9FEF4ECFC114D104E10447
:103CA000F104E1F622303105C8F6CF017EDDE09166
:103CB000C404F091C504E00FF11F108A1786CECF1F
:103CC00010E000E090E080E0C12CD12C7601CDCF57
:103CD0000097C1F610E000E0812C912C540183E0A4
:103CE000E82EF12C1AC0E091C404F091C504E00F55
:103CF000F11F83819481029749F4F482E38282E088
:103D000090E00E94961480E40E949E14FFEF8F1AA8
:103D10009F0AAF0ABF0A0D5E1F4F8091C6049091A3
:103D2000C704B0E0A0E088169906AA06BB06DCF23C
:103D300090E080E0A7CF638174816230710511F457
:103D4000548343830196739634CF82E090E0998345
:103D5000888385EF9FEFEFCE0097B9F48FEFFB01DB
:103D6000808320916F023091700243E1429FC00135
:103D7000439F900D1124E091C404F091C504E80F15
:103D8000F91F8285FB01818308950C944D1488E00E
:103D900090E0FA019183808390E080E00895109292
:103DA000C3041092C204E4ECF4E086E0DF011D924B
:103DB0008A95E9F788E59AE19093C1048093C0045D
:103DC00008958091C0049091C10408952F923F926C
:103DD0004F925F926F927F928F929F92AF92BF921B
:103DE000CF92DF92EF92FF920F931F93CF93DF93C7
:103DF000CDB7DEB72F970FB6F894DEBF0FBECDBF9D
:103E0000F894E091C204F091C3043196F093C30496
:103E1000E093C20478944090C4045090C5044114C7
:103E2000510409F40CC2E091C604F091C704EF2BD1
:103E300009F405C22D8749875A876B877C87988745
:103E40008F831201B12CA12C10E000E08091C604F8
:103E50009091C704A816B90618F40115110529F1A7
:103E6000F8948091C2049091C30401979093C30485
:103E70008093C2047894C8012F960FB6F894DEBFE1
:103E80000FBECDBFDF91CF911F910F91FF90EF90AB
:103E9000DF90CF90BF90AF909F908F907F906F906A
:103EA0005F904F903F902F9008957101E418F508AE
:103EB000D10117968C91179781FD54C013968D915F
:103EC0009C911497039709F04DC015968D919C9184
:103ED000EF81F8858E179F0709F044C0B50190E087
:103EE00080E07FD48A832091C4043091C5043D834F
:103EF0002C833D85332309F44CC04C815D81452BD7
:103F000009F49AC18091C6049091C704A816B90615
:103F100008F092C1C501D7D88823E9F06C817D8172
:103F20006E0D7F1D7D836C83DB011F968D919C91AF
:103F3000892B89F0D12CC12CF12CE12CAC81BD81D5
:103F400012968C9112978E151F0409F094F45096D6
:103F50001C921E921F972A81222321F0B50190E026
:103F600080E041D43FEFA31AB30A43E1240E311C91
:103F70006DCFAC81BD81ED91FC91EC0DFD1D858176
:103F800096810FD7BFEFEB1AFB0AEDE0CE0ED11CE6
:103F9000D5CFEC81FD81309709F44EC18091C604E4
:103FA0009091C704A816B90608F046C1EE0DFF1D92
:103FB000FF87EE87C50187D88B83882339F1AE85CB
:103FC000BF851F968D919C915097019621E01D967B
:103FD0004D915C918417950709F020E02E8319829A
:103FE000712C10E000E0AE85BF8512968C9178169A
:103FF00008F45DC0EE85FF8587859089019665850B
:1040000076850E94E238908B8787A5CFB1E0BE838A
:10401000E6CF992493946BC08BD6F6019683858363
:1040200082C0D601ED90FC90B7E06B9EE00CF11CD5
:104030001124F7016381748180818F3F61F121E058
:1040400030E002C0220F331F8A95E2F7C901092E22
:10405000000CAA0BBB0BFB01408151816281738173
:1040600084239523A623B72321E0892B8A2B8B2B2E
:1040700009F420E0D4012C93D70111968C91F6011C
:1040800023853485820F932F911D880E991E1486E7
:10409000138663949BC0418150E0C4010E9439396A
:1040A000EBCF998206EF1FEFC5C01982C3C0F9811B
:1040B000F111A0CFEDE07E9E70011124AE85BF8589
:1040C000CD90DC90CE0CDF1C15D49D838C83BB81FE
:1040D000BB2309F49ECF81E0EE85FF8527853089DB
:1040E000232B09F080E0982E882309F458C0672D0F
:1040F0008E859F850CD8D60118969C938E93179722
:1041000061E070E0C2D4EE85FF85218932892F3FBE
:10411000320709F481CFBC01C901CFD7D601169669
:104120009C938E931597D60115968D919C91169719
:10413000009709F4B6CFEC81FD818E0F9F1F1A9670
:104140009C938E931997AE85BF85ED91FC91119745
:10415000EE0EFF1EF70121853285148613861A960E
:104160008C91870DD9018D93711016C0EE85FF8556
:10417000878184FF11C049855A856B857C85F9014B
:104180004183528363837483F70183859485049606
:10419000A80FB91F14861386F701B287A187D6012D
:1041A00015968D919C911697892B09F443C0EE8545
:1041B000FF852581368180916502909166022817DE
:1041C000390779F019968D909C90612CD601129642
:1041D0008C911297681608F424CF1A969C928E92AE
:1041E0001997BE81BB2309F460CF61E070E0F6014E
:1041F000878190854AD4D6011796ED90FC90189748
:1042000015964D915C91E1E0F0E0BA81BB2311F08D
:10421000F0E0E0E00C811D819C01B5018827992721
:104220008E1B9F0B6AD38C01892B21F0F6018581AF
:104230009681B7D57394D7CE0FEF1FEF8CCE10E0D9
:1042400000E00ECE2F923F924F925F926F927F923C
:104250008F929F92AF92BF92CF92DF92EF92FF9296
:104260000F931F93CF93DF938091C4049091C50463
:1042700010E000E0892BA9F0C7DA0AEF1FEF8823CE
:1042800081F02090C6043090C704C091C404D0913E
:10429000C504D12CC12C10E000E02C143D04A9F47D
:1042A0007894C801DF91CF911F910F91FF90EF900B
:1042B000DF90CF90BF90AF909F908F907F906F9046
:1042C0005F904F903F902F900895C6010E94631811
:1042D000882309F18B819C810397E9F48F85988964
:1042E000892BC9F0B60190E080E07BD221E030E07C
:1042F000882311F030E020E044245524421A530A68
:10430000B12CA12C912C812C8A818815190409F0DB
:1043100038F4188A1F864FEFC41AD40A6396BDCFAB
:10432000E881F981EA0DFB1D85819681892BA1F138
:1043300061E070E087819085A8D33C01DBD28C01DD
:10434000E881F981EA0DFB1D818592852581368101
:10435000200F311FAC01421B530B9A01478150853E
:10436000421B530B70E060E00E944239E881F98102
:10437000EA0DFB1DE780F084458156819301B6016B
:10438000C201BBD28C01892B39F0E881F981EA0D99
:10439000FB1D8581968105D55FEF851A950A8DE015
:1043A000A80EB11CB1CF30CA789408952F923F92D5
:1043B0004F925F926F927F929F92AF92BF92CF92F5
:1043C000DF92EF92FF920F931F93CF93DF9300D072
:1043D00000D0CDB7DEB70091C4041091C504992474
:1043E00093940115110509F43EC0A090C604B09045
:1043F000C7040ADA982E8823B1F11092C5041092EE
:10440000C4041092C7041092C6041092C8041092FB
:10441000C9048FEF9FEFDC0180936F0290937002CD
:10442000A0937102B093720278947FD31E830D83A0
:10443000C12CD12C7601C501B0E0A0E089839A831C
:10444000AB83BC8322242A94322C89819A81AB814C
:10445000BC81C816D906EA06FB06F4F0C801A1D44F
:1044600080E40E94A414892D26960FB6F894DEBF2E
:104470000FBECDBFDF91CF911F910F91FF90EF90B5
:10448000DF90CF90BF90AF909F907F906F905F90A4
:104490004F903F902F900895AD81BE8115968D91DC
:1044A0009C911697209165023091660282179307BE
:1044B000D1F451968D919C91EED5ED81FE81808154
:1044C0009181B12CA12C412C512C3201892B89F5E1
:1044D000BFEFCB1ADB0AEB0AFB0AED81FE81739674
:1044E000FE83ED83B2CFC114D104E104F10429F7B6
:1044F000029718F7ED81FE81818992898F3F980795
:1045000009F029D5AD81BE8152963C922E925197E9
:10451000D4CF8A0D9B1DDC018D919C91009709F0F1
:1045200040D4BFEF4B1A5B0A6B0A7B0AEDE0AE0E7C
:10453000B11CAD81BE818D919C91119712964C91C9
:1045400050E070E060E044165506660677060CF30E
:1045500028D4BECFCF93DF93EA0128DF811109C0B1
:1045600082E090E09983888385EF9FEFDF91CF9180
:10457000089581E090E00E94961481E090E0998394
:10458000888390E080E0F2CF11DF1092C104109296
:10459000C004089542E050E06CE173E00C94B41460
:1045A000FF920F931F93CF93DF938A01EC01C60F05
:1045B000D71FF980B9D20897F816190671F068F07C
:1045C00082E090E0F801918380838EEF9FEFDF918E
:1045D000CF911F910F91FF9008956C817D818E8105
:1045E0009F814B810E944917811108C082E090E0B1
:1045F000F8019183808384EF9FEFE9CFF9800E94D7
:1046000044174F2D50E0BE01685F7F4F0E9439393B
:1046100089810E94B31781E090E0F8019183808343
:1046200090E080E0D4CFDF92EF92FF920F931F9340
:10463000CF93DF938A01EC01C60FD71F0E94441766
:104640007C01D98071D2DD2059F0029721E030E061
:10465000D816190619F010F030E020E0232B79F479
:1046600082E090E0F801918380838EEF9FEFDF91ED
:10467000CF911F910F91FF90EF90DF900895EF2859
:1046800041F482E090E0F8019183808384EF9FEF12
:10469000EECFF9800E9444174F2D50E0BE016E5FAF
:1046A0007F4F0E94393989810E94B31781E090E0E1
:1046B000F8019183808390E080E0D9CF8AEC92E288
:1046C0009093CB048093CA0408958091CA0490917A
:1046D000CB0408950895FC01118210829383828394
:1046E0000895DB011D921C92DC011296ED91FC9164
:1046F00013977183608313967C936E93129708953A
:10470000FC0180819181DB018D939C93A081B1811B
:10471000109741F08D919C9191838083892B11F4A6
:10472000F383E2830895FC0180819181DB018D9305
:104730009C93892B11F47383628371836083089542
:10474000FC0111821082938382830895CF93DF93BB
:104750001F921F92CDB7DEB71A821982F894BE015C
:104760006F5F7F4F81ED94E0CBDF89819A81009765
:1047700009F017D389819A81892B89F7BE016F5F70
:104780007F4F85ED94E0BCDF89819A81009709F025
:1047900008D389819A81892B89F778940F900F909B
:1047A000DF91CF910895CF93DF931F921F92CDB7E2
:1047B000DEB71A821982F894BE016F5F7F4F8DECCD
:1047C00094E09EDF89819A81009709F0EAD289817D
:1047D0009A81892B89F778940F900F90DF91CF9170
:1047E000089581E0089590E080E00895EF92FF92AF
:1047F0000F931F93CF93DF931F921F92CDB7DEB716
:104800001A8219828091CC0407EF1FEF8823A1F14F
:10481000F894BE016F5F7F4F85ED94E071DF78946F
:1048200089819A81EE24E394F12C892B51F4F89438
:10483000BE016F5F7F4F81ED94E062DF7894F12CD1
:10484000E12C89819A810EEF1FEF0097A9F0FC01FE
:104850004281538164E070E076D68C01892B61F04F
:10486000F89469817A81C701880F991F880F991F71
:104870008F529B4F58DF7894C8010F900F90DF91B3
:10488000CF911F910F91FF90EF9008950F931F9379
:10489000CF93DF9300D01F92CDB7DEB71C821B826F
:1048A0001A8219828091CC0407EF1FEF8823C1F090
:1048B000AE014D5F5F4F64E070E0CE010196B6D669
:1048C0008C01892B69F4E981FA818B819C81938326
:1048D0008283F89469817A818DEC94E002DF789488
:1048E000C8010F900F900F900F90DF91CF911F9103
:1048F0000F910895BBD7049608958F929F92AF921F
:10490000BF92CF92DF92EF92FF920F931F93CF93BC
:10491000DF931F921F92CDB7DEB71A821982BC01B6
:104920006F5F7F4F6330710598F0AA24AA94BA2C68
:10493000C5010F900F90DF91CF911F910F91FF90C4
:10494000EF90DF90CF90BF90AF909F908F900895A1
:104950004115510551F3480159018A016C01CADF23
:104960008815990511F7E114F104F9F28E0D9F1DD8
:10497000A816B906D0F28091CC048823F1F0F894FF
:10498000B501645071099701AE014F5F5F4FC801D7
:104990000496E1D65C01892B71F489819A81F80132
:1049A00093838283C601880F991F880F991FB801CE
:1049B0008F529B4F96DE7894BBCF87EFA82EBB24F7
:1049C000BA94B6CFAF92BF92CF92DF92EF92FF929E
:1049D0000F931F93CF93DF931F921F92CDB7DEB734
:1049E0001A821982892B09F047C06115710509F4F3
:1049F00043C04115510509F43FC02115310509F4A3
:104A00003BC001151105C1F18091CC048823B9F197
:104A100079016A015B01F894BE016F5F7F4F8DECF5
:104A200094E06EDE789489819A81009759F1DC01D7
:104A300012966D917C91A8010496A6D68C01E9810D
:104A4000FA81D501ED93FC93828193810496F6015E
:104A5000918380834FDFD7018D939C93C8010F9082
:104A60000F90DF91CF911F910F91FF90EF90DF900A
:104A7000CF90BF90AF9008950FEF1FEFEFCF07EFEC
:104A80001FEFECCF0EEF1FEFE9CFCF93DF93EC01D9
:104A9000672B71F4F4D68C179D0760F0E7D6249647
:104AA000C80FD91FE6D68C0F9D1FDF91CF910895B7
:104AB000E3D6F1CF90E080E0F8CF0F931F93CF9330
:104AC000DF932091CC0421112BC08B01EC0181EDEF
:104AD00094E001DE85ED94E0FEDD8DEC94E0FBDDFD
:104AE00097D00097C1F4CBD670E060E0CEDF43E70B
:104AF00052E062E070E081D1009769F48091730226
:104B000090917402CED6B801CE0103D5009719F466
:104B100021E02093CC04DF91CF911F910F91089554
:104B200084EF9FEFF8CFA8C6AAC6CF93DF93AAD68B
:104B3000EC01892B11F40ADE36DECE01DF91CF9134
:104B40000895CF93DF939ED6EC01892B09F4FEDD07
:104B5000CE01DF91CF9108958091730290917402FC
:104B60000895CF93DF938091CC04D0E0C0E08823F8
:104B7000D1F09CD6EC01892BB1F4E8DD14DE8091F4
:104B8000730290917402E7D1E8D2EC01892B59F4B9
:104B900081ED94E0D5DD85ED94E0D2DD8DEC94E0FF
:104BA000CFDD1092CC04CE01DF91CF910895EF922A
:104BB000FF920F931F93CF93DF93EC017A018B0148
:104BC0000F5F1F4F0E9DA0010F9D500D1E9D500D9C
:104BD000112470E060E00E94423990E080E0F0E053
:104BE000E0E02FEFE816F90639F4DF91CF911F913D
:104BF0000F91FF90EF9008951A82198228833097C1
:104C000011F0D283C1830196FE01C00FD11FEACFFC
:104C1000CF92DF92EF92FF920F931F93CF93DF9388
:104C200006E816E00C7F43E050E065E772E08BE7B2
:104C300092E01CD485E7E82E82E0F82E9BE7C92E8F
:104C400092E0D92EC5E0D7E0D7014D915D917D016D
:104C5000F601619171916F01198308835D834C8323
:104C60005B834A837F836E839B012F5F3F4F249F2B
:104C7000C001259F900D349F900D1124998788873E
:104C80000115110511F0C80192DF88859985080F7B
:104C9000191F2A96FBE7EF16F2E0FF06A9F6EBEDE7
:104CA000F4E088EA91E0DF019C011D922150304040
:104CB000E1F71092DA041092D904109224071092AE
:104CC00023071092280710922707109226071092A8
:104CD000250710922A071092290710922C0710928C
:104CE0002B0710922E0710922D0710923207109268
:104CF00031071092300710922F071092340710924C
:104D0000330710923607109235071092020710925F
:104D10000107109204071092030790E080E0DF91F2
:104D2000CF911F910F91FF90EF90DF90CF9008955A
:104D30000097F1F0F894ABE7B2E0E5E0F7E030E09F
:104D400020E04D915D9148175907A8F042815381A9
:104D50004115510581F08AE0829FF001839FF00D9B
:104D60001124EB5FF84F80819181009759F478947A
:104D700090E080E008952F5F3F4F3A962330310551
:104D800001F7F5CFDC0111966D917C917183608301
:104D90004150510953834283FC012193CF01789400
:104DA0000895009749F1DC018E91853041F4E0913E
:104DB0000307F09104073097F9F0CD01199485307D
:104DC000D8F4282F30E0F8948FEF8C938AE0829FFC
:104DD000F001839FF00D1124EB5FF84F80819181EA
:104DE00012969C938E931197B183A08382819381B5
:104DF00001969383828378940895CF92DF92EF9205
:104E0000FF920F931F93CF93DF939C018EED94E05D
:104E10008C7F4115510509F49BC02115310509F41A
:104E200097C06115710509F493C07A01AB01B9010E
:104E30006D5F7F4F6C7F9B012F5F3F4F249F8001F1
:104E4000259F100D349F100D1124F89420912307F5
:104E500030912407232B59F420912B0730912C07F4
:104E60002115310569F12017310708F058C020914C
:104E70002D0730912E07232B91F420912B07309191
:104E80002C07820F931F209135073091360721158B
:104E9000310509F441C02017310708F056C0789455
:104EA000CFEFDFEF86EF9FEFF701D183C083DF9174
:104EB000CF911F910F91FF90EF90DF90CF900895C9
:104EC000C3E0D0E0C090D904D090DA0425EA31E004
:104ED0002C193D092017310710F32AE02C9FF0010F
:104EE0002D9FF00D1124EB5FF84F91838083558344
:104EF00044835383428377836683118700870097B7
:104F000009F055DE0C0D1D1D1093DA040093D90431
:104F1000789490E080E0C8CFC4E0D0E0D3CFC3E085
:104F2000D0E02AE02C9FF0012D9FF00D1124EB5FC3
:104F3000F84F9183808355834483538342837783DF
:104F40006683009729F333DEE3CFC4E0D0E0E9CFF6
:104F50008FEF9FEFACCF9C010397029708F069C0D9
:104F6000F89484E09AE0482F50E0241735070CF4B9
:104F70004DC091E08AE0829FF001839FF00D1124E3
:104F8000EB5FF84F11821082158214821382128215
:104F9000178216829923B1F18091230790912407FB
:104FA000892BA9F420912B0730912C07211531056D
:104FB00071F08091D9049091DA04821B930B909345
:104FC000DA048093D90410922C0710922B07809159
:104FD0002D0790912E07892BA9F420913507309148
:104FE00036072115310571F08091D9049091DA04CA
:104FF000821B930B9093DA048093D90410923607A6
:1050000010923507789490E080E00895949FF00125
:10501000959FF00D1124EB5FF84F40815181452B96
:1050200031F440855185452B11F481509CCF90E09F
:10503000A1CF8FEF9FEF08954115510549F10097DA
:1050400039F16115710521F1F89420910107309132
:105050000207232BB9F42091030730910407232B77
:1050600089F490930207809301077093040760937B
:105070000307789425E030E090E080E0FA01318386
:105080002083089578942FEF3FEF86EF9FEFF6CFC0
:105090008FEF9FEF0895059769F4F8941092020737
:1050A000109201071092040710920307789490E081
:1050B00080E008958FEF9FEF08956115710519F451
:1050C000F0E0E0E011C08530910581F4E091010746
:1050D000F09102073097A1F3CB0101961995009743
:1050E00079F3FC0185E08193CF0108959C01235061
:1050F00031092230310520F72AE0289FD001299F6D
:10510000B00D1124AB5FB84F2D913C911197232B1B
:10511000B9F216962D913C9117972617370780F212
:10512000F89412962D913C9113972115310529F091
:10513000ED91FC911197309711F47894C1CF418192
:10514000528111965C934E932150310913963C93F2
:105150002E93129781937894C7CFE3E8F6E08EE719
:10516000DF011D928A95E9F7EBEDF4E088EA91E022
:10517000DF019C011D9221503040E1F71092DA04CA
:105180001092D904E5E0F7E082E3DF011D928A95F1
:10519000E9F7E1E0F7E084E0DF011D928A95E9F7A5
:1051A00090E080E00895CF93DF93C0918102D09189
:1051B0008202CF3FDC0759F423D49093820280937C
:1051C000810297FF09C0D0938202C093810284EFCD
:1051D0009FEFDF91CF91089590E080E0FACF823089
:1051E000910528F48093370790E080E008958FEFD1
:1051F0009FEF08954F925F926F927F92AF92BF920E
:10520000CF92DF92EF92FF920F931F93CF93DF9392
:105210001F921F92CDB7DEB71A821982009709F448
:1052200079C06115710509F475C020918102309132
:10523000820207EF1FEF2F3F3F4F09F445C06B017C
:105240005C01412C512C3201F12CE12C10E000E0EA
:105250009E012F5F3F4FA6014E195F09B5016E0DEC
:105260007F1D80918102909182022ED4892B09F0BA
:105270004BC089819A81009741F4E114F10429F42B
:1052800020913707222309F442C0E80EF91EEC14DE
:10529000FD04D0F480E8481684E858068EE16806DC
:1052A000710420F560E070E0CB010E941F332AE01A
:1052B000420E511C611C711C0A3F4FEF140721F074
:1052C000043F8FEF1807A1F4C8010F900F90DF91F2
:1052D000CF911F910F91FF90EF90DF90CF90BF90F3
:1052E000AF907F906F905F904F90089501EF1FEF08
:1052F00081E090E0013F2FEF120711F090E080E095
:10530000892B09F4A5CFE0CF04EF1FEFDDCF0AEF23
:105310001FEFDACF0FEF1FEFD7CF4F925F926F9251
:105320007F92AF92BF92CF92DF92EF92FF920F9354
:105330001F93CF93DF931F921F92CDB7DEB71A82D0
:105340001982009709F479C06115710509F475C0D7
:10535000209181023091820207EF1FEF2F3F3F4FD4
:1053600009F445C06B015C01412C512C3201F12C38
:10537000E12C10E000E09E012F5F3F4FA6014E1987
:105380005F09B5016E0D7F1D8091810290918202AF
:105390004ED3892B09F04BC089819A81009741F443
:1053A000E114F10429F420913707222309F442C0C3
:1053B000E80EF91EEC14FD04D0F480E4481682E4F3
:1053C00058068FE06806710420F560E070E0CB01BC
:1053D0000E941F332AE0420E511C611C711C0E3FBB
:1053E0004FEF140721F0043F8FEF1807A1F4C80115
:1053F0000F900F90DF91CF911F910F91FF90EF9041
:10540000DF90CF90BF90AF907F906F905F904F9064
:10541000089502EF1FEF81E090E0023F2FEF1207A7
:1054200011F090E080E0892B09F4A5CFE0CF04EFE4
:105430001FEFDDCF0EEF1FEFDACF0FEF1FEFD7CF4C
:1054400080918102909182028F3F980749F0D0D2DB
:10545000892B49F48FEF9FEF909382028093810212
:1054600090E080E0089584EF9FEF0895CF92DF925F
:10547000EF92FF920F931F93CF93DF9321E041159B
:10548000510509F020E04150510921112CC0DC01E7
:10549000FB01D12CC12C21E022C03FEFC31AD30A5B
:1054A0007D010D911D91E701EA80FB80E016F10678
:1054B000A8F420813181E280F380F182E08233839D
:1054C0002283ED90FC9011979D0122503109E90152
:1054D000F982E88211961C930E9320E03296C4164E
:1054E000D506D8F2D2CFDF91CF911F910F91FF90C7
:1054F000EF90DF90CF900895FC01680F791F90E046
:1055000080E0E617F70709F408952191820F911DB5
:10551000F8CF20913807211113C045DE009791F490
:1055200010923E0710923D0710923C0710923B07E5
:1055300010923A071092390721E020933807089516
:1055400084EF9FEF0895AF92BF92CF92DF92EF92D8
:10555000FF920F931F93CF93DF93009709F460C0DE
:105560004630510508F45CC020913807C7EFDFEFE3
:10557000222309F449C08C01060F171FF801C080CF
:10558000D180C114D10409F44EC096012A5F3F4F67
:105590004217530708F447C07C0180913D07909162
:1055A0003E0793838283B6016C5F7F4F5801A60E3E
:1055B000B71EC801A1DFF5019183808364E070E02C
:1055C000C80118DEEC01892BF9F481E090E007DED8
:1055D000B601C80104960EDEEC01892B91F462E05D
:1055E00070E0C50107DEEC01892B59F4C701D9DB56
:1055F00080913D0790913E07019690933E078093DE
:105600003D0790E080E0EBDDCE01DF91CF911F916F
:105610000F91FF90EF90DF90CF90BF90AF900895E3
:10562000CFEFDFEFF1CFC9EFDFEFEECF6F927F92D9
:105630008F929F92AF92BF92CF92DF92EF92FF92A2
:105640000F931F93CF93DF9300D01F92CDB7DEB798
:10565000009709F47AC04115510509F476C02091EC
:10566000380707EF1FEF222309F44DC03A017B01F1
:105670005C0164E070E0CE0101964FDE8C01892B65
:1056800009F041C009811A810115110509F45AC0B8
:10569000480186E0880E911CB701680D791D809144
:1056A00083029091840209DD6C01009709F450C0D7
:1056B000A70170E060E00E94423989819A81AB8144
:1056C000BC81EC0CFD1CF70181939193A193B193E4
:1056D0007F0181E090E083DDB801C7011EDE892BE8
:1056E00031F562E070E0C701800F911F16DE8C017A
:1056F000892BE9F490E080E072DDF501D182C0826F
:10570000F30191828082C8010F900F900F900F904B
:10571000DF91CF911F910F91FF90EF90DF90CF908D
:10572000BF90AF909F908F907F906F90089590E082
:1057300080E055DDF50111821082F30111821082A3
:10574000C6012FDB09EF1FEFDECF0FEF1FEFDBCF1F
:1057500006EF1FEFD8CF0097A1F04115510589F052
:105760002115310571F0F90136966E177F0748F063
:10577000DC012D933C93DA01ED93FC9390E080E003
:1057800008958FEF9FEF0895AF92BF92CF92DF926F
:10579000EF92FF920F931F93CF93DF93009709F43B
:1057A0005FC04115510509F45BC06530710508F40F
:1057B00057C020913807C7EFDFEF222391F1DC01BA
:1057C000CD90DC9011971296ED91FC9196012A5F95
:1057D0003F4FC9EFDFEF2617370719F5C09139079B
:1057E000D0913A07209749F521E030E030933A070D
:1057F000209339077A018C01F0933C07E0933B0733
:105800005601B4E0AB0EB11CB50176DE0A0D1B1DCE
:10581000F801208131818217930729F5D701CD92B4
:10582000DC92CE01DF91CF911F910F91FF90EF900D
:10583000DF90CF90BF90AF90089520913B073091BB
:105840003C072F5F3F4FCCEFDFEFE217F30790F2FB
:10585000CBEFDFEF2E173F0768F2D0E0C0E0CACFF2
:10586000CFEFDFEFDECFC3EFDFEFDBCF84E090E001
:10587000089582E090E008958CEF9FEF089580E214
:1058800090E0089510923E0710923D0710923C0759
:1058900010923B0710923A071092390790E080E08F
:1058A000089590938402809383020895809138072D
:1058B000882391F0C5DD009789F410923E0710927D
:1058C0003D0710923C0710923B0710923A07109246
:1058D000390710923807089590E080E00895009706
:1058E00049F06115710531F0FC0111821082FB0154
:1058F000118210820895F3CF26E030E040E855E2AF
:1059000060E070E090E080E000C08130910571F0CF
:105910001CF4892B39F008958230910551F00397DA
:1059200059F008958CE497E00C94243689EE97E0C2
:10593000FBCF86E898E0F8CF83E299E0F5CF1F929D
:105940000F920FB60F9211240BB60F922F933F9325
:105950004F935F936F937F938F939F93AF93BF9377
:10596000EF93FF938FE89DEF90932501809324019F
:10597000BFD0FF91EF91BF91AF919F918F917F9198
:105980006F915F914F913F912F910F900BBE0F90B0
:105990000FBE0F901F9018958FE89DEF90932501F3
:1059A00080932401A3E7B0E08C918E7F8C93E0E29A
:1059B000F1E080818C7F8083E1E2F1E08081877E6D
:1059C000808380818460808380818C7F80838C91C0
:1059D00081608C930895E3E7F0E0808190819E7F61
:1059E00090838170089581E0089510923F07089593
:1059F00068EE73E080E090E022D690E080E00895C9
:105A000026E030E040E050E16EE070E090E080E0C1
:105A10007CDF8CE497E00E945A35892B29F08CE4D6
:105A200097E00E947435F5CF90E080E00895CF9222
:105A3000DF92EF92FF920F931F93CF93DF936B014F
:105A40007A01E901198218828CE497E00E945A35A4
:105A5000892B79F18601CC24C39482E0D82E8091E1
:105A60003F07811111C08CE497E00E9474350297C2
:105A7000B1F7C0923F07F801D1928F0188819981D7
:105A8000019699838883EBCF888199818E159F0534
:105A900080F48CE497E00E9474358F3F9807A1F35F
:105AA000F80181938F018881998101969983888378
:105AB000EBCF90E080E0DF91CF911F910F91FF90AD
:105AC000EF90DF90CF9008950F931F93CF93DF93C4
:105AD000EA0189018CE497E00E94B438F801D1838F
