:1000000005C100000C943E0E0C94690E0C94940EE5
:100010000C94BF0E0C94EA0E0C94150F0C94400F28
:100020000C946B0F24C1000022C1000020C100000D
:100030001EC100001CC100001AC1000018C1000050
:1000400016C1000014C1000012C1000010C1000060
:100050000EC100000CC100000AC100000C94960FF4
:1000600006C100000C940F130C94451300C100004E
:10007000FEC00000FCC00000FAC00000F8C0000094
:10008000F6C00000F4C00000F2C00000F0C00000A4
:100090000C949B130C94D113EAC00000E8C000003C
:1000A000E6C00000E4C00000E2C00000E0C00000C4
:1000B000DEC00000DCC00000DAC00000D8C00000D4
:1000C000D6C00000D4C000000C946B0A0C94271416
:1000D0000C945D14CCC000000C94B3140C94E9147F
:1000E000C6C0000000000A0B02090C0D0E08070331
:1000F00004010000000000000000000000000000FB
:1001000000000000000000000000000000000000EF
:1001100012111000000000000000000000000000AC
:100120000000000000000000000001021020200874
:100130000810204010204080020102010804020142
:1001400001020408102040808040201008040201B1
:10015000800402018040201008040201080402010A
:100160000102040810204080010204081020408091
:1001700005050505070508080808020202020A0A23
:100180000808040404040101010101010101030341
:10019000030303030303040707070C0C0C0C0C0CEC
:1001A0000C0C0202020206060606060606060B0BE9
:1001B0000B0B0B0B0B0B000020002300260029006B
:1001C0002C002F003200000100000301060109018C
:1001D00000002200250028002B002E0031003400F2
:1001E00002010000050108010B01000021002400AC
:1001F00027002A002D003000330001010000040117
:1002000007010A016E13FA138614121511241FBE7A
:10021000CFEFD1E2DEBFCDBF00E00CBF13E0A0E026
:10022000B2E0E0E3FBE200E00BBF02C007900D92FA
:10023000AA30B107D9F726E0AAE0B3E001C01D92C9
:10024000A03CB207E1F711E0C6E0D1E000E006C053
:1002500021970109802FFE010E948E15C230D1071F
:1002600080E00807A9F70E94D10A0C949615C8CE21
:10027000FC01A781B0858C9191858923A481B581EA
:100280009C9140815181628173812681922359F032
:1002900081110BC04F5F5F4F6F4F7F4F4083518382
:1002A0006283738308958111F5CF4150510961092B
:1002B0007109F4CF8BE093E0DBCF86E193E0D8CFF8
:1002C00081E293E0D5CF8CE293E0D2CFFC01A48110
:1002D000B5818C9196818923A781B0859C914081BD
:1002E0005181628173812185922359F0882359F0CD
:1002F0004F5F5F4F6F4F7F4F4083518362837383A4
:1003000008958823A9F34150510961097109F4CF77
:100310008BE093E0DBCF86E193E0D8CF81E293E0FE
:10032000D5CF8CE293E0D2CF0F931F93CF93DF937F
:10033000D82FC62F8A01A0910A038BE0A89FD00175
:100340001124A55FBC4F1D921D921D921C92139704
:1003500081E01A968C931A978D2F90E0FC01E65D50
:10036000FE4FE4911696EC931697FC01E059FE4F70
:10037000E491F0E0EE0FFF1FEA54FE4F8591949157
:1003800015969C938E931497862F90E0FC01E65D62
:10039000FE4FE4911996EC931997FC01E059FE4F3A
:1003A000E491F0E0EE0FFF1FEA54FE4F8591949127
:1003B00018969C938E93179760E08D2F0E947C1166
:1003C00060E08C2F0E947C1180910A03813009F437
:1003D0003FC0A8F0823009F462C0833009F486C0BF
:1003E00080910A0391E0980F90930A03F8018083AB
:1003F00090E080E0DF91CF911F910F91089580E010
:10040000D23049F081E0D33031F08EEE8D0F843060
:10041000D8F487E18D1B41E050E06AE571E00E946D
:10042000C50D80E0C23049F081E0C33031F08EEE7E
:100430008C0F843058F487E18C1B41E050E068E871
:1004400071E00E94C50DCCCF8FEFE5CF8FEFF5CFD8
:1004500080E0D23049F081E0D33031F08EEE8D0F64
:100460008430C8F487E18D1B41E050E06DE571E018
:100470000E94C50D80E0C23049F081E0C33031F008
:100480008EEE8C0F843048F487E18C1B41E050E005
:100490006BE871E0D6CF8FEFE7CF8FEFF7CF80E03B
:1004A000D23049F081E0D33031F08EEE8D0F8430C0
:1004B000C8F487E18D1B41E050E060E671E00E94E6
:1004C000C50D80E0C23049F081E0C33031F08EEEDE
:1004D0008C0F843048F487E18C1B41E050E06EE8DB
:1004E00071E0AFCF8FEFE7CF8FEFF7CF80E0D23063
:1004F00049F081E0D33031F08EEE8D0F8430C8F4B6
:1005000087E18D1B41E050E063E671E00E94C50D7C
:1005100080E0C23049F081E0C33031F08EEE8C0FC4
:10052000843048F487E18C1B41E050E061E971E0E0
:1005300088CF8FEFE7CF8FEFF7CF9BE0899FF00158
:100540001124E55FFC4F80819181A281B381FB0181
:1005500080839183A283B38390E080E008959BE041
:10056000899FF0011124E55FFC4F108211821282F5
:10057000138290E080E0089590E080E00895CF92AB
:10058000DF92EF92FF92CF93882351F16A017B01B2
:10059000CFEFC80F20E030E0A901CB01B6010E94E7
:1005A0006D0B18168CF0C701B60190580E94DE0B37
:1005B0009B01AC016C2F70E090E080E0CF91FF9048
:1005C000EF90DF90CF90B2C0C701B6010E94D90B67
:1005D0008C2FCF91FF90EF90DF90CF900C94421032
:1005E000CF91FF90EF90DF90CF9008950F931F93DE
:1005F0008B019C0183E036952795179507958A9581
:10060000D1F7095C1C4F462F477021E030E0F9011B
:1006100002C0EE0FFF1F4A95E2F7AF01F8012081FB
:100620002423CB010196211102C090E080E01F91AC
:100630000F9108950F931F938B019C0183E03695D2
:100640002795179507958A95D1F7677081E090E017
:1006500001C0880F6A95EAF7F801E95CFC4F208138
:10066000452B31F48095822380831F910F9108954B
:10067000822BFACF2F923F924F925F926F927F928E
:100680008F929F92AF92BF92CF92DF92EF92FF92A2
:100690000F931F93CF93DF93D62EC72E782E692EFC
:1006A00049015A01280161E08D2D0E947C11CD2D58
:1006B000DC2D8E010F5F1F4FA8016D2D7C2D872D26
:1006C000962DB8DF20E030E0A901C201B7010E94F9
:1006D0005D0D181664F4C201B7010E94DE0B2B01F8
:1006E000C501B4010E94DE0BA201CE0123D0C801D6
:1006F000DF91CF911F910F91FF90EF90DF90CF90FE
:10070000BF90AF909F908F907F906F905F904F9031
:100710003F902F900895882341F08150682F70E01A
:1007200090E080E050E040E085CF0895862FB90149
:100730000C9442109C01FC01EC51FF4FE491E150FC
:10074000E231E0F4F0E08827E755FC4F8F4F0C943E
:100750008E15BB03C203C503DC03F103BE0306040D
:10076000120416042D04420457046E048304BE03CD
:100770009804AF04C40484B5806884BD60E0822F0F
:100780000C94B81184B58062F8CF809180008C7F82
:1007900082608093800080918100807E8061682BE0
:1007A0006093810050938700409386008091800081
:1007B000806880938000E2CF809180008C7F82608F
:1007C0008093800080918100807E8061682B60939F
:1007D0008100509387004093860080918000806262
:1007E000E8CF809180008C7F826080938000809130
:1007F0008100807E8061682B609381005093870028
:1008000040938600809180008860D3CF8091B000B3
:1008100080688093B0008091B100887F682B6093DE
:10082000B100ACCF8091B0008062F3CF8091900096
:100830008C7F82608093900080919100807E8061A7
:10084000682B60939100509397004093960080919D
:10085000900080688093900091CF809190008C7F71
:1008600082608093900080919100807E8061682BEF
:100870006093910050939700409396008091900070
:100880008062E8CF809190008C7F8260809390009E
:1008900080919100807E8061682B609391005093DD
:1008A000970040939600809190008860D3CF80910C
:1008B000A0008C7F82608093A0008091A100807E48
:1008C0008061682B6093A1005093A7004093A6001D
:1008D0008091A00080688093A00050CF8091A000FC
:1008E0008C7F82608093A0008091A100807E8061D7
:1008F000682B6093A1005093A7004093A6008091BD
:10090000A0008062E8CF8091A0008C7F82608093FD
:10091000A0008091A100807E8061682B6093A1007F
:100920005093A7004093A6008091A0008860D3CF89
:10093000809120018C7F8260809320018091210131
:10094000807E8061682B6093210150932701409342
:100950002601809120018068809320010FCF809133
:1009600020018C7F82608093200180912101807E14
:100970008061682B609321015093270140932601E9
:10098000809120018062E8CF809120018C7F82607D
:100990008093200180912101807E8061682B60938B
:1009A0002101509327014093260180912001886006
:1009B000D3CF611102C00C947C116130E1F362E08D
:1009C000FACF662319F061E00C94B81160E0FCCF17
:1009D00060E070E080E89FE7089560E070E080E804
:1009E0009FE7089560E070E080E89FEF089560E081
:1009F00070E080E89FEF089560E070E080EC9FEF8A
:100A0000089560E070E080EC9FEF0895F5DF60935B
:100A10006A0670936B0680936C0690936D06F1DF07
:100A200060935E0670935F06809360069093610604
:100A3000CFDF609366067093670680936806909395
:100A40006906CBDF60936206709363068093640649
:100A500090936506C7DF60936E0670936F06809370
:100A6000700690937106C3DF6093720670937306ED
:100A700080937406909375060895CF92DF92EF925B
:100A8000FF92CF936B017C01AC019B0160916606E4
:100A90007091670680916806909169061ED6C1E044
:100AA000882369F0A701960160916E0670916F0628
:100AB000809170069091710610D68111C0E08C2F44
:100AC000CF91FF90EF90DF90CF9008950F931F93F9
:100AD0008B019C010027112720783F770115110514
:100AE00020483F4749F4AB01BC016F77772781E08D
:100AF000452B462B472B09F480E01F910F91089559
:100B0000E5CF2F923F924F925F926F927F928F929A
:100B10009F92AF92BF92CF92DF92EF92FF920F938C
:100B20001F93CF93DF9300D000D0CDB7DEB74B013A
:100B30005C015E834D83190167017801DA014D90F4
:100B40005D906D907C90AC019B01C301B201B5D763
:100B500087FD4DC0A3019201C501B40159D56B01B8
:100B60007C01A3019201ED81FE8164817581868102
:100B700097814ED59B01AC01C701B601B2D56B017F
:100B80007C0119821A821B821C82E981FA81EE0F94
:100B9000FF1FEE0FFF1FE20DF31D80809180A280EA
:100BA000B380A5019401648175818681978130D5D8
:100BB000A701960186D7A50194012BD526960FB6DD
:100BC000F894DEBF0FBECDBFDF91CF911F910F9183
:100BD000FF90EF90DF90CF90BF90AF909F908F905D
:100BE0007F906F905F904F903F902F900895860177
:100BF000000F111F000F111F2D813E81020F131FC7
:100C0000D8014D905D906D907C90A5019401C30139
:100C1000B20153D718160CF069C02601370176943B
:100C200067945794479419821A821B821C82D701B9
:100C3000C60129813A814B815C81821B930BA40BF5
:100C4000B50B0297A105B10540F5C901880F991FA1
:100C5000880F991F4D815E81480F591F5E834D8318
:100C6000DA01CD90DD90ED90FC90A7019601C501D1
:100C7000B401CED44B015C01A7019601ED81FE8148
:100C80006481758186819781C3D49B01AC01C501C4
:100C9000B40127D56B017C0178CFF201EE0FFF1F65
:100CA000EE0FFF1F2D813E81E20FF31FA50194017E
:100CB000608171818281938100D7181634F0498256
:100CC0005A826B827C822601370189819A81AB81AD
:100CD000BC81840D951DA61DB71D730162012C01F9
:100CE0003D017694679457944794A1CFA70196014C
:100CF000215031094109510929833A834B835C838F
:100D0000F8013497C080D180E280F380A70196017A
:100D1000C501B4017DD44B015C01A7019601C3015B
:100D2000B201B2CF8F929F92AF92BF92CF92DF92D9
:100D3000EF92FF920F931F93CF93DF9300D01F92F8
:100D4000CDB7DEB7609108027091090280910A0266
:100D500090910B021AE0E12EF12C00E010E020E16E
:100D600032E04CE352E0CDDE92D56B017C01C8DE6F
:100D70008111B5C1C701B60180DE8111B0C120E08B
:100D800030E040E857E4C701B6019BD56B017C0118
:100D900020E030E0A901A1D487FFA4C1C701B601BA
:100DA00090580CD5CC24DD24C61AD70A60910C02C9
:100DB00070910D0280910E0290910F021AE0E12EC7
:100DC000F12C00E010E028E632E044E952E099DE40
:100DD0005ED54B015C0194DE811189C1C501B4016E
:100DE0004CDE811184C120E030E040E857E4C501C9
:100DF000B40167D54B015C0120E030E0A9016DD45E
:100E000087FF78C1C501B4019058D8D400271127B5
:100E1000061B170B6CE070E080E090E0E7DB7C01E4
:100E20009093AD068093AC066091C4027091C502A8
:100E30006017710744F06091C6027091C702601795
:100E400071070CF4B80177FF02C070E060E06F3FFB
:100E5000710519F014F06FEF70E0072E000C880B8D
:100E6000990BDAD4AB01BC01C70189DB69E070E002
:100E700080E090E0BBDB7C019093A5068093A40604
:100E80006091C8027091C9026C157D0544F06091B3
:100E9000CA027091CB026C157D050CF4B60177FF88
:100EA00003C07195619571096F3F710519F014F0D8
:100EB0006FEF70E0072E000C880B990BADD4AB01DF
:100EC000BC01C7015CDB6BE070E080E090E08EDB92
:100ED0007C0190939D0680939C066091CC0270915A
:100EE000CD026017710744F06091CE027091CF027D
:100EF000601771070CF4B80177FF03C07195619515
:100F000071096F3F710519F014F06FEF70E0072E53
:100F1000000C880B990B80D4AB01BC01C7012FDBFF
:100F20006AE070E080E090E061DB7C0190939506E0
:100F3000809394066091D0027091D1026C157D056A
:100F400044F06091D2027091D3026C157D050CF4CF
:100F5000B60177FF02C070E060E06F3F710519F0E5
:100F600014F06FEF70E0072E000C880B990B54D42F
:100F7000AB01BC01C70103DB61E08091C00290912D
:100F8000C1028C159D0509F460E088E01ADD61E07E
:100F90008091C2029091C3028017910709F460E02A
:100FA0008DE00FDDC0900002D0900102E0900202BF
:100FB000F0900302A70196016091890670918A065C
:100FC00080918B0690918C0688D3882341F0C09243
:100FD0008906D0928A06E0928B06F0928C06809168
:100FE0008806811110928806BE016F5F7F4F809145
:100FF0008D06A3DAC0900402D0900502E0900602AC
:10100000F0900702A701960160917D0670917E061F
:1010100080917F069091800660D3882341F0C09232
:101020007D06D0927E06E0927F06F0928006809147
:101030007C06811110927C06BE016F5F7F4F80910C
:1010400081067BDA6091C6037091C7038091C80363
:101050009091C9036F5F7F4F8F4F9F4F6093C6037F
:101060007093C7038093C8039093C9030091D4037E
:101070001091D503CFD39B01AC016091CA0370914D
:10108000CB038091CC039091CD031BD5F8016083F5
:101090007183828393838091CE039091CF03A0913B
:1010A000D003B091D1030196A11DB11D8093CE0351
:1010B0009093CF03A093D003B093D1030F900F90E0
:1010C0000F900F90DF91CF911F910F91FF90EF90B4
:1010D000DF90CF90BF90AF909F908F900895C12CDC
:1010E000D12C7601C701B60169D36B015FCE812C8B
:1010F000912C5401C501B40161D38B018BCE8F9229
:101100009F92AF92BF92DF92EF92FF920F931F9345
:10111000CF93DF9384E090E079DCE0E4F3E082EDCC
:1011200093E095838483C4EDD3E0D7AFC6AF0AECD8
:1011300013E0138B028BF093A903E093A803F383CE
:10114000E28321E030E0DC012D933C9384EE92E0D9
:101150009187808786ED93E0998388834DEC5CECE2
:101160006CEC7DE3F8014083518362837383C6E7AF
:10117000D6E018AA812C912C5401839489AA9AAAAA
:10118000ABAABCAAE12CF12C8701A80197016CE065
:1011900070E080E090E06EDA9FAB8EABDD24D394FC
:1011A000DDAA18A689A69AA6ABA6BCA6A801970197
:1011B00069E070E080E090E05DDA9FA78EA7DDA691
:1011C00018A289A29AA2ABA2BCA2A80197016BE0C7
:1011D00070E080E090E04EDA9FA38EA3DDA2188E2F
:1011E000898E9A8EAB8EBC8EA80197016AE070E062
:1011F00080E090E03FDA9F8F8E8FDD8E1092B606F2
:101200008092B7069092B806A092B906B092BA063C
:1012100061E088E0CEDBD092BB0618AE89AE9AAE14
:10122000ABAEBCAE61E08DE0C4DBDDAE1F8A1C86D8
:1012300000E012E0F80180819181A281B3818B8B63
:101240009C8BAD8BBE8B8D869E86AF86B88A4DE813
:1012500056E063E182E168D8D98A1A8A8F897FD9FA
:101260001B861882F80184819581A681B7818F83BE
:101270009887A987BA8789829A82AB82BC8241E823
:1012800056E063E082E050D8DD821E828B85DF91DC
:10129000CF911F910F91FF90EF90DF90BF90AF9093
:1012A0009F908F905CC98091A60681112AC081E031
:1012B0008093A6068091A7069091A806A091A90602
:1012C000B091AA060197A105B105D9F48091AB06AA
:1012D0008823B9F06CE070E080E090E087D99093CB
:1012E000AD068093AC0640E050E0BA0148D96CE00E
:1012F00070E080E090E07AD99093AD068093AC06E0
:101300000ADA80919E0681112AC081E080939E06B0
:1013100080919F069091A006A091A106B091A2068F
:101320000197A105B105D9F48091A3068823B9F0EE
:1013300069E070E080E090E059D99093A506809331
:10134000A40640E050E0BA011AD969E070E080E0FC
:1013500090E04CD99093A5068093A406DCD98091A7
:10136000960681112AC081E08093960680919706A7
:1013700090919806A0919906B0919A060197A105BF
:10138000B105D9F480919B068823B9F06BE070E039
:1013900080E090E02BD990939D0680939C0640E0DE
:1013A00050E0BA01ECD86BE070E080E090E01ED92C
:1013B00090939D0680939C06AED980918E068111F4
:1013C0002AC081E080938E0680918F0690919006CE
:1013D000A0919106B09192060197A105B105D9F4AB
:1013E000809193068823B9F06AE070E080E090E095
:1013F000FDD8909395068093940640E050E0BA01A2
:10140000BED86AE070E080E090E0F0D89093950656
:101410008093940680D98091B606811103C081E043
:101420008093B6068091AE06811103C081E080935F
:10143000AE0680918206811113C081E080938206FE
:101440008091830690918406A0918506B0918606CE
:101450000197A105B10521F48091870681118CD8EF
:1014600080917606811113C081E080937606809189
:10147000770690917806A0917906B0917A06019747
:10148000A105B10521F480917B06811175C80895ED
:1014900026E030E040E855E260E070E090E080E077
:1014A00000C08130910571F01CF4892B39F008954A
:1014B0008230910551F0039759F008958AEE93E038
:1014C0000C94AF1287E894E0FBCF84E295E0F8CF6C
:1014D00081EC95E0F5CF1F920F920FB60F92112479
:1014E0000BB60F922F933F934F935F936F937F931E
:1014F0008F939F93AF93BF93EF93FF9386E997EEFC
:10150000909325018093240134D0FF91EF91BF91F6
:10151000AF919F918F917F916F915F914F913F918B
:101520002F910F900BBE0F900FBE0F901F9018952C
:1015300086E997EE9093250180932401A3E7B0E01C
:101540008C918E7F8C93E0E2F1E080818C7F8083B0
:10155000E1E2F1E08081877E808380818460808306
:1015600080818C7F80838C9181608C93089581E051
:1015700008958091DE0391E0980F9093DE03882315
:1015800049F021E030E03093E0032093DF038093C3
:10159000DE0308957894C6DBF8948091DE038150D1
:1015A000F6CFCF93DF931092BF061092BE0608D5F8
:1015B0006FDFC091F602D091F702198218829FDD89
:1015C000F894B6DF81E028813981232B09F080E08F
:1015D0008093BE06789478948091BE06811107C0EE
:1015E00062DEF89490E080E0DF91CF91089581E091
:1015F00028813981232B09F480E08093BF069091E4
:10160000BF0681E0911180E08093BE06B0DFE4CF99
:101610005058BB27AA270ED0FFC1F0D130F0F5D12A
:1016200020F031F49F3F11F41EF4E5C10EF4E09573
:10163000E7FBB2C1E92F01D280F3BA176207730743
:101640008407950718F071F49EF530C20EF4E0950A
:101650000B2EBA2FA02D0B01B90190010C01CA016C
:10166000A0011124FF27591B99F0593F50F4503E17
:1016700068F11A16F040A22F232F342F4427585F09
:10168000F3CF469537952795A795F0405395C9F721
:101690007EF41F16BA0B620B730B840BBAF09150D9
:1016A000A1F0FF0FBB1F661F771F881FC2F70EC078
:1016B000BA0F621F731F841F48F48795779567954B
:1016C000B795F7959E3F08F0B3CF9395880F08F034
:1016D0009927EE0F9795879508953AD108F481E000
:1016E00008950CD099C191D140F088D130F021F407
:1016F0005F3F19F051C15111DAC17DC19ED198F3FC
:101700009923C9F35523B1F3951B550BBB27AA2782
:1017100062177307840738F09F5F5F4F220F331FF4
:10172000441FAA1FA9F333D00E2E3AF0E0E830D0C0
:1017300091505040E695001CCAF729D0FE2F27D0C3
:10174000660F771F881FBB1F261737074807AB0791
:10175000B0E809F0BB0B802DBF01FF2793585F4F06
:101760002AF09E3F510568F017C1A1C15F3FECF31D
:10177000983EDCF3869577956795B795F7959F5FCB
:10178000C9F7880F911D9695879597F90895E1E01F
:10179000660F771F881FBB1F621773078407BA077E
:1017A00020F0621B730B840BBA0BEE1F88F7E095D9
:1017B000089504D06894B1117AC1089546D188F093
:1017C0009F5790F0B92F9927B751A0F0D1F0660F2D
:1017D000771F881F991F1AF0BA95C9F712C0B13048
:1017E00081F064D1B1E0089561C1672F782F882717
:1017F000B85F39F0B93FCCF3869577956795B39587
:10180000D9F73EF490958095709561957F4F8F4FF5
:101810009F4F0895E89409C097FB3EF490958095FA
:10182000709561957F4F8F4F9F4F9923A9F0F92FA6
:1018300096E9BB279395F695879577956795B79524
:10184000F111F8CFFAF4BB0F11F460FF1BC06F5F0A
:101850007F4F8F4F9F4F16C0882311F096E911C01C
:10186000772321F09EE8872F762F05C0662371F03D
:1018700096E8862F70E060E02AF09A95660F771F51
:10188000881FDAF7880F9695879597F90895F7D00E
:1018900080F09F3740F491110EF009C160E070E0D4
:1018A00080E89FEB089526F41B16611D711D811DB4
:1018B00079C093C0A3D018F011F0A7D038F49BC022
:1018C000F6C0E92FBAD0B0F35523C9F3E7FB62178E
:1018D000730784079507A8F199F3E92FFF27882359
:1018E0002AF03197660F771F881FDAF7952F552753
:1018F000442332F091505040220F331F441FD2F73F
:10190000BB27E91BF50B621B730B840BB109C1F2FA
:1019100022F4620F731F841FB11D31972AF0660FE6
:10192000771F881FBB1FEFCF915050405AF041F0F6
:10193000882332F0660F771F881F91505040C1F7FF
:1019400093954BC08695779567959F5FD9F7F8CFAC
:10195000990F0008550FAA0BE0E8FEEF16161706C0
:10196000E807F907C0F012161306E407F50798F028
:10197000621B730B840B950B39F40A2661F0232B41
:10198000242B252B21F408950A2609F4A140A695BD
:101990008FEF811D811D089597F99F6780E870E0A2
:1019A00060E00895882371F4772321F09850872B05
:1019B000762F07C0662311F499270DC09051862B0E
:1019C00070E060E02AF09A95660F771F881FDAF7BB
:1019D000880F9695879597F908959F3F31F091501C
:1019E00020F4879577956795B795880F911D969503
:1019F000879597F908959FEF80EC089500240A9445
:101A00001616170618060906089500240A941216D9
:101A10001306140605060895092E0394000C11F40C
:101A2000882352F0BB0F40F4BF2B11F460FF04C0B9
:101A30006F5F7F4F8F4F9F4F089557FD9058440F12
:101A4000551F59F05F3F71F04795880F97FB991F1D
:101A500061F09F3F79F087950895121613061406DA
:101A6000551FF2CF4695F1DF08C016161706180667
:101A7000991FF1CF86957105610508940895E5DFFA
:101A8000A0F0BEE7B91788F4BB279F3860F416169C
:101A9000B11D672F782F8827985FF7CF86957795A8
:101AA0006795B11D93959639C8F30895E894BB27BF
:101AB00066277727CB0197F908954ADF08F48FEF5F
:101AC00008950BD0A9CF9ADF28F09FDF18F0952357
:101AD00009F062CF90CF1124EACFAFDFA0F3959F3A
:101AE000D1F3950F50E0551F629FF001729FBB2705
:101AF000F00DB11D639FAA27F00DB11DAA1F649FB1
:101B00006627B00DA11D661F829F2227B00DA11D63
:101B1000621F739FB00DA11D621F839FA00D611DE9
:101B2000221F749F3327A00D611D231F849F600D0A
:101B3000211D822F762F6A2F11249F5750408AF043
:101B4000E1F088234AF0EE0FFF1FBB1F661F771FCF
:101B5000881F91505040A9F79E3F510570F01CCF4F
:101B6000A6CF5F3FECF3983EDCF3869577956795BB
:101B7000B795F795E7959F5FC1F7FE2B880F911DED
:101B80009695879597F908950895883008F075C05F
:101B9000E82FF0E0EE0FFF1FEC52FD4F71836083E2
:101BA0008150873008F03CC0E82FF0E08827E552EC
:101BB000F24F8F4FB3C7180EE20DEA0DF60D030E6C
:101BC000240E310E809169008C7F482B4093690070
:101BD000E89A089580916900837F440F551F440F50
:101BE000551F482B40936900E99A08958091690038
:101BF0008F7C74E0440F551F7A95E1F7482B409392
:101C00006900EA9A0895809169008F7366E0440F35
:101C1000551F6A95E1F7482B40936900EB9A0895A8
:101C200080916A008C7F482B40936A00EC9A08955B
:101C300080916A00837F440F551F440F551F482B26
:101C400040936A00ED9A089580916A008F7C24E0A9
:101C5000440F551F2A95E1F7482B40936A00EE9AEE
:101C6000089580916A008F7396E0440F551F9A95EE
:101C7000E1F7482B40936A00EF9A08951F920F9264
:101C80000FB60F9211240BB60F922F933F934F93E1
:101C90005F936F937F938F939F93AF93BF93EF93D4
:101CA000FF93E091D802F091D9021995FF91EF913D
:101CB000BF91AF919F918F917F916F915F914F9164
:101CC0003F912F910F900BBE0F900FBE0F901F9062
:101CD00018951F920F920FB60F9211240BB60F9208
:101CE0002F933F934F935F936F937F938F939F9324
:101CF000AF93BF93EF93FF93E091DA02F091DB0291
:101D00001995FF91EF91BF91AF919F918F917F9125
:101D10006F915F914F913F912F910F900BBE0F905C
:101D20000FBE0F901F9018951F920F920FB60F9233
:101D300011240BB60F922F933F934F935F936F93A2
:101D40007F938F939F93AF93BF93EF93FF93E09114
:101D5000DC02F091DD021995FF91EF91BF91AF91F7
:101D60009F918F917F916F915F914F913F912F91B3
:101D70000F900BBE0F900FBE0F901F9018951F92E3
:101D80000F920FB60F9211240BB60F922F933F9321
:101D90004F935F936F937F938F939F93AF93BF9373
:101DA000EF93FF93E091DE02F091DF021995FF912E
:101DB000EF91BF91AF919F918F917F916F915F91C3
:101DC0004F913F912F910F900BBE0F900FBE0F9030
:101DD0001F9018951F920F920FB60F9211240BB6F9
:101DE0000F922F933F934F935F936F937F938F93B4
:101DF0009F93AF93BF93EF93FF93E091D402F09141
:101E0000D5021995FF91EF91BF91AF919F918F915D
:101E10007F916F915F914F913F912F910F900BBEEA
:101E20000F900FBE0F901F9018951F920F920FB634
:101E30000F9211240BB60F922F933F934F935F9302
:101E40006F937F938F939F93AF93BF93EF93FF9382
:101E5000E091D602F091D7021995FF91EF91BF91D1
:101E6000AF919F918F917F916F915F914F913F9132
:101E70002F910F900BBE0F900FBE0F901F901895D3
:101E80001F920F920FB60F9211240BB60F922F9341
:101E90003F934F935F936F937F938F939F93AF93F2
:101EA000BF93EF93FF93E091E002F091E102199567
:101EB000FF91EF91BF91AF919F918F917F916F9122
:101EC0005F914F913F912F910F900BBE0F900FBEDE
:101ED0000F901F9018951F920F920FB60F9211241A
:101EE0000BB60F922F933F934F935F936F937F9314
:101EF0008F939F93AF93BF93EF93FF93E091E20291
:101F0000F091E3021995FF91EF91BF91AF919F91ED
:101F10008F917F916F915F914F913F912F910F9092
:101F20000BBE0F900FBE0F901F9018951F920F922F
:101F30000FB60F9211242F933F938F939F93AF93DC
:101F4000BF938091E2039091E303A091E403B091E9
:101F5000E5033091E10323E0230F2D3758F5019677
:101F6000A11DB11D2093E1038093E2039093E3034D
:101F7000A093E403B093E5038091E6039091E70317
:101F8000A091E803B091E9030196A11DB11D8093D2
:101F9000E6039093E703A093E803B093E903BF91AE
:101FA000AF919F918F913F912F910F900FBE0F9006
:101FB0001F90189526E8230F0296A11DB11DD2CFC0
:101FC000789484B5826084BD84B5816084BD85B514
:101FD000826085BD85B5816085BDEEE6F0E08081DB
:101FE00081608083E1E8F0E01082808182608083FC
:101FF000808181608083E0E8F0E08081816080837F
:10200000E1EBF0E0808184608083E0EBF0E08081B0
:1020100081608083E1E9F0E080818260808380815B
:1020200081608083E0E9F0E0808181608083E1EA83
:10203000F0E0808182608083808181608083E0EA3B
:10204000F0E0808181608083E1E2F1E08081826064
:102050008083808181608083E0E2F1E08081816023
:102060008083EAE7F0E08081846080838081826001
:1020700080838081816080838081806880831092EA
:10208000C10008951F93CF93DF93182FEB0161E0F8
:1020900033D1209731F460E0812FDF91CF911F91F0
:1020A00067C1CF3FD10511F461E0F6CFE12FF0E039
:1020B000EC51FF4FE491E150E23108F0B2C0F0E0A2
:1020C0008827EB59FF4E8F4F29C577107F1084105A
:1020D0008E1098101111A210AA10B210BC10C610C8
:1020E000D010DF10E9101111F310FD10071184B5A5
:1020F000806884BDC7BDDF91CF911F91089584B5DD
:10210000806284BDC8BDF7CF8091800080688093D5
:102110008000D0938900C0938800EDCF809180002B
:10212000806280938000D0938B00C0938A00E3CFBD
:1021300080918000886080938000D0938D00C09350
:102140008C00D9CF8091B00080688093B000C0939C
:10215000B300D1CF8091B00080628093B000C09373
:10216000B400C9CF80919000806880939000D09394
:102170009900C0939800BFCF8091900080628093B7
:102180009000D0939B00C0939A00B5CF80919000AF
:10219000886080939000D0939D00C0939C00ABCF4B
:1021A0008091A00080688093A0008091A0008F7B28
:1021B0008093A000D093A900C093A8009CCF8091E9
:1021C000A00080628093A000D093AB00C093AA00CF
:1021D00092CF8091A00088608093A000D093AD0042
:1021E000C093AC0088CF809120018068809320014B
:1021F000D0932901C09328017ECF80912001806275
:1022000080932001D0932B01C0932A0174CF809139
:102210002001886080932001D0932D01C0932C0170
:102220006ACFC038D1050CF03FCF35CF8150823115
:1022300008F059C0E82FF0E08827EF5DFE4E8F4F81
:102240006DC441114511331139113D1173114811FC
:102250004E11521158115C11601166116A117311FF
:102260006E1174117811809180008F7780938000B7
:102270000895809180008F7DF9CF80918000877FC5
:10228000F5CF84B58F7784BD089584B58F7DFBCF5E
:102290008091B0008F778093B00008958091B00056
:1022A0008F7DF9CF809190008F7780939000089573
:1022B000809190008F7DF9CF80919000877FF5CF3E
:1022C0008091A0008F778093A00008958091A00056
:1022D0008F7DF9CF8091A000877FF5CF809120017D
:1022E0008F77809320010895809120018F7DF9CF11
:1022F00080912001877FF5CFCF93DF9390E0FC01A1
:10230000E65DFE4F249180599E4FFC018491882305
:10231000C9F090E0880F991FFC01E651FE4FA5918E
:10232000B491FC01E053FE4FC591D49161110DC0F1
:102330009FB7F8948C91209582238C9388812823D1
:1023400028839FBFDF91CF910895623051F49FB7EA
:10235000F8943C91822F809583238C93E8812E2BD7
:10236000EFCF8FB7F894EC912E2B2C938FBFEACF41
:102370001F93CF93DF93282F30E0F901EC51FF4FEB
:102380008491F901E65DFE4FD491F901E059FE4FC9
:10239000C491CC23A1F0162F811148DFEC2FF0E07F
:1023A000EE0FFF1FE053FE4FA591B4918FB7F89445
:1023B000EC91111108C0D095DE23DC938FBFDF9123
:1023C000CF911F910895DE2BF8CFFC01918D228DC6
:1023D000892F90E0805C9F4F821B91098F73992712
:1023E0000895FC01918D828D981731F0828DE80F50
:1023F000F11D858D90E008958FEF9FEF0895FC010A
:10240000918D828D981761F0A28DAE0FBF2FB11DF7
:102410005D968C91928D9F5F9F73928F90E008954F
:102420008FEF9FEF0895FC01538D448D252F30E0F1
:10243000842F90E0821B930B541710F0CF960895D1
:1024400001970895FC01A48DA80FB92FB11DA35ABF
:10245000BF4F2C91848D90E001968F739927848FC4
:10246000A689B7892C93A089B1898C9183708064E7
:102470008C93938D848D981306C00288F389E02D88
:1024800080818F7D80830895CF93DF93EC01888DC9
:102490008823B1F0AA89BB89E889F9898C9185FDE7
:1024A00003C0808186FD0CC00FB607FCF7CF8C916E
:1024B00085FFF2CF808185FFEDCFCE01C3DFEACF6C
:1024C000DF91CF910895EF92FF920F931F93CF93D7
:1024D000DF93EC0181E0888F9B8D8C8D98131AC05F
:1024E000E889F989808185FF15C09FB7F894EE8946
:1024F000FF896083E889F9898081837080648083A3
:102500009FBF81E090E0DF91CF911F910F91FF90ED
:10251000EF900895F62E0B8D10E00F5F1F4F0F7395
:102520001127E02E8C8D8E110BC00FB607FCFACF51
:10253000E889F989808185FFF5CFCE0183DFF2CF6D
:10254000EB8DEC0FFD2FF11DE35AFF4FF0829FB78B
:10255000F8940B8FEA89FB8980818062D0CFCF927B
:10256000DF92EF92FF921F93CF93DF93EC016A010A
:102570007B01122FE889F98982E08083C11481EE02
:10258000D806E104F10499F060E079E08DE390E091
:10259000A7019601A1D2215031094109510956954F
:1025A000479537952795211580E1380790F0E88900
:1025B000F989108260E874E88EE190E0A701960145
:1025C0008BD22150310941095109569547953795CC
:1025D0002795EC85FD853083EE85FF852083188E59
:1025E000EC89FD891083EA89FB8980818061808381
:1025F000EA89FB89808188608083EA89FB89808100
:1026000080688083EA89FB8980818F7D8083DF9168
:10261000CF911F91FF90EF90DF90CF9008951F9280
:102620000F920FB60F9211240BB60F922F938F9328
:102630009F93EF93FF93E091FA03F091FB03808166
:10264000E0910004F091010482FD1DC09081809111
:1026500003048F5F8F7320910404821741F0E0918F
:102660000304F0E0E651FC4F958F80930304FF9143
:10267000EF919F918F912F910F900BBE0F900FBEF6
:102680000F901F9018958081F2CF1F920F920FB676
:102690000F9211240BB60F922F933F934F935F939A
:1026A0006F937F938F939F93AF93BF93EF93FF931A
:1026B0008AEE93E0C7DEFF91EF91BF91AF919F91BA
:1026C0008F917F916F915F914F913F912F910F90DB
:1026D0000BBE0F900FBE0F901F901895EAEEF3E01F
:1026E0001382128288EE93E0A0E0B0E084839583A9
:1026F000A683B7838CEF92E09183808385EC90E092
:102700009587848784EC90E09787868780EC90E0BB
:10271000918B808B81EC90E0938B828B82EC90E0AC
:10272000958B848B86EC90E0978B868B118E128E26
:10273000138E148E08951F920F920FB60F921124CC
:102740000BB60F922F938F939F93EF93FF93E0918C
:102750009704F09198048081E0919D04F0919E048B
:1027600082FD1DC090818091A0048F5F8F732091A6
:10277000A104821741F0E091A004F0E0E957FB4F7B
:10278000958F8093A004FF91EF919F918F912F914E
:102790000F900BBE0F900FBE0F901F901895808169
:1027A000F2CF1F920F920FB60F9211240BB60F9219
:1027B0002F933F934F935F936F937F938F939F9349
:1027C000AF93BF93EF93FF9387E894E03BDEFF91D5
:1027D000EF91BF91AF919F918F917F916F915F9199
:1027E0004F913F912F910F900BBE0F900FBE0F9006
:1027F0001F901895E7E8F4E01382128288EE93E0C8
:10280000A0E0B0E084839583A683B7838CEF92E049
:10281000918380838DEC90E0958784878CEC90E0A9
:102820009787868788EC90E0918B808B89EC90E08D
:10283000938B828B8AEC90E0958B848B8EEC90E06E
:10284000978B868B118E128E138E148E08951F9285
:102850000F920FB60F9211240BB60F922F938F93F6
:102860009F93EF93FF93E0913405F09135058081BC
:10287000E0913A05F0913B0582FD1DC09081809169
:102880003D058F5F8F7320913E05821741F0E091E7
:102890003D05F0E0EC5DFA4F958F80933D05FF918B
:1028A000EF919F918F912F910F900BBE0F900FBEC4
:1028B0000F901F9018958081F2CF1F920F920FB644
:1028C0000F9211240BB60F922F933F934F935F9368
:1028D0006F937F938F939F93AF93BF93EF93FF93E8
:1028E00084E295E0AFDDFF91EF91BF91AF919F91B1
:1028F0008F917F916F915F914F913F912F910F90A9
:102900000BBE0F900FBE0F901F901895E4E2F5E0FC
:102910001382128288EE93E0A0E0B0E08483958376
:10292000A683B7838CEF92E09183808385ED90E05E
:102930009587848784ED90E09787868780ED90E087
:10294000918B808B81ED90E0938B828B82ED90E078
:10295000958B848B86ED90E0978B868B118E128EF3
:10296000138E148E08951F920F920FB60F9211249A
:102970000BB60F922F938F939F93EF93FF93E0915A
:10298000D105F091D2058081E091D705F091D8056D
:1029900082FD1DC090818091DA058F5F8F73209139
:1029A000DB05821741F0E091DA05F0E0EF53FA4FD2
:1029B000958F8093DA05FF91EF919F918F912F91E1
:1029C0000F900BBE0F900FBE0F901F901895808137
:1029D000F2CF1F920F920FB60F9211240BB60F92E7
:1029E0002F933F934F935F936F937F938F939F9317
:1029F000AF93BF93EF93FF9381EC95E023DDFF91BD
:102A0000EF91BF91AF919F918F917F916F915F9166
:102A10004F913F912F910F900BBE0F900FBE0F90D3
:102A20001F901895E1ECF5E01382128288EE93E096
:102A3000A0E0B0E084839583A683B7838CEF92E017
:102A40009183808385E391E09587848784E391E097
:102A50009787868780E391E0918B808B81E391E07B
:102A6000938B828B82E391E0958B848B86E391E05C
:102A7000978B868B118E128E138E148E0895AF92C3
:102A8000BF92CF92DF92EF92FF920F931F93CF935B
:102A9000DF936C017B018B01040F151FEB015E01BD
:102AA000AE18BF08C017D10759F06991D601ED9152
:102AB000FC910190F081E02DC6011995892B79F7E1
:102AC000C501DF91CF911F910F91FF90EF90DF90A3
:102AD000CF90BF90AF900895A1E21A2EAA1BBB1B06
:102AE000FD010DC0AA1FBB1FEE1FFF1FA217B307DA
:102AF000E407F50720F0A21BB30BE40BF50B661FF0
:102B0000771F881F991F1A9469F7609570958095B3
:102B100090959B01AC01BD01CF010895EE0FFF1F01
:102B2000881F8BBF0790F691E02D1994F894FFCF82
:102B3000CDCCCC3DCDCCCC3D85EB513E85EB513E53
:102B400000007FC3000048C3000016C30000C8C2D5
:102B5000000048C200000000000048420000C842D7
:102B6000000016430000484300007F43211DE9BEDA
:102B700070EFBFBEA5AE8DBEDB1134BE0BAC32BD57
:102B8000CFADF53C412C113E12DD793EE3C9AD3E9F
:102B9000DB8CDC3ECE9FE53E00007FC3000048C3D7
:102BA000000016C30000C8C2000048C200000000B8
:102BB000000048420000C84200001643000048439D
:102BC00000007F431ED5E2BE105ABABEB27E89BE57
:102BD000D3E12FBE0C4238BDA86B003D9991123E47
:102BE00069427B3EEBF9B13E4F22E23E8382EA3EF0
:102BF00000000000FF000000000001FF000001FFD6
:102C0000FF000000C40DC40DC40DC40DC40DC40DDF
:102C1000C40DC40D46697865645374657044697366
:102C200063726574650040030000000063123F1585
:0A2C300013124412E511FF11F11117
:00000001FF
