:1000000005C100000C9452310C947D310C94A83140
:100010000C94D3310C94FE310C9429320C9454324C
:100020000C947F3224C1000022C1000020C10000D6
:100030001EC100001CC100001AC1000018C1000050
:1000400016C1000014C1000012C1000010C1000060
:100050000EC100000CC100000AC100000C94AA32BD
:1000600006C100000C947E360C94B43600C100002A
:10007000FEC00000FCC00000FAC00000F8C0000094
:10008000F6C00000F4C00000F2C00000F0C00000A4
:100090000C940A370C944037EAC00000E8C0000016
:1000A000E6C00000E4C00000E2C00000E0C00000C4
:1000B000DEC00000DCC00000DAC00000D8C00000D4
:1000C000D6C00000D4C000000C94982C0C94963735
:1000D0000C94CC37CCC000000C9422380C945838C7
:1000E000C6C0000000000A0B02090C0D0E08070331
:1000F00004010000000000000000000000000000FB
:1001000000000000000000000000000000000000EF
:1001100012111000000000000000000000000000AC
:100120000000000000000000000001021020200874
:100130000810204010204080020102010804020142
:1001400001020408102040808040201008040201B1
:10015000800402018040201008040201080402010A
:100160000102040810204080010204081020408091
:1001700005050505070508080808020202020A0A23
:100180000808040404040101010101010101030341
:10019000030303030303040707070C0C0C0C0C0CEC
:1001A0000C0C0202020206060606060606060B0BE9
:1001B0000B0B0B0B0B0B000020002300260029006B
:1001C0002C002F003200000100000301060109018C
:1001D00000002200250028002B002E0031003400F2
:1001E00002010000050108010B01000021002400AC
:1001F00027002A002D003000330001010000040117
:1002000007010A01DD366937F537813811241FBE31
:10021000CFEFD1E2DEBFCDBF00E00CBF13E0A0E026
:10022000B2E0E8EAF2E700E00BBF02C007900D92EF
:10023000A630B107D9F72AE0A6E0B3E001C01D92CD
:10024000A63DB207E1F711E0C6E0D1E000E006C04C
:1002500021970109802FFE010E942139C230D10768
:1002600080E00807A9F70E948A2D0C945239C8CE65
:10027000FC01A781B0858C9191858923A481B581EA
:100280009C9140815181628173812681922359F032
:1002900081110BC04F5F5F4F6F4F7F4F4083518382
:1002A0006283738308958111F5CF4150510961092B
:1002B0007109F4CF87E093E0DBCF82E193E0D8CF00
:1002C0008DE193E0D5CF88E293E0D2CFFC01A48109
:1002D000B5818C9196818923A781B0859C914081BD
:1002E0005181628173812185922359F0882359F0CD
:1002F0004F5F5F4F6F4F7F4F4083518362837383A4
:1003000008958823A9F34150510961097109F4CF77
:1003100087E093E0DBCF82E193E0D8CF8DE193E0FB
:10032000D5CF88E293E0D2CF0F931F93CF93DF9383
:10033000D82FC62F8A01A09106038BE0A89FD00179
:100340001124A95FBC4F1D921D921D921C92139700
:1003500081E01A968C931A978D2F90E0FC01E65D50
:10036000FE4FE4911696EC931697FC01E059FE4F70
:10037000E491F0E0EE0FFF1FEA54FE4F8591949157
:1003800015969C938E931497862F90E0FC01E65D62
:10039000FE4FE4911996EC931997FC01E059FE4F3A
:1003A000E491F0E0EE0FFF1FEA54FE4F8591949127
:1003B00018969C938E93179760E08D2F0E94EB34D4
:1003C00060E08C2F0E94EB3480910603813009F4A9
:1003D0003FC0A8F0823009F462C0833009F486C0BF
:1003E0008091060391E0980F90930603F8018083B3
:1003F00090E080E0DF91CF911F910F91089580E010
:10040000D23049F081E0D33031F08EEE8D0F843060
:10041000D8F487E18D1B41E050E06AE571E00E946D
:10042000D83080E0C23049F081E0C33031F08EEE48
:100430008C0F843058F487E18C1B41E050E068E871
:1004400071E00E94D830CCCF8FEFE5CF8FEFF5CFA2
:1004500080E0D23049F081E0D33031F08EEE8D0F64
:100460008430C8F487E18D1B41E050E06DE571E018
:100470000E94D83080E0C23049F081E0C33031F0D2
:100480008EEE8C0F843048F487E18C1B41E050E005
:100490006BE871E0D6CF8FEFE7CF8FEFF7CF80E03B
:1004A000D23049F081E0D33031F08EEE8D0F8430C0
:1004B000C8F487E18D1B41E050E060E671E00E94E6
:1004C000D83080E0C23049F081E0C33031F08EEEA8
:1004D0008C0F843048F487E18C1B41E050E06EE8DB
:1004E00071E0AFCF8FEFE7CF8FEFF7CF80E0D23063
:1004F00049F081E0D33031F08EEE8D0F8430C8F4B6
:1005000087E18D1B41E050E063E671E00E94D83046
:1005100080E0C23049F081E0C33031F08EEE8C0FC4
:10052000843048F487E18C1B41E050E061E971E0E0
:1005300088CF8FEFE7CF8FEFF7CF9BE0899FF00158
:100540001124E95FFC4F80819181A281B381FB017D
:1005500080839183A283B38390E080E008959BE041
:10056000899FF0011124E95FFC4F108211821282F1
:10057000138290E080E0089590E080E00895CF92AB
:10058000DF92EF92FF92CF93882351F16A017B01B2
:10059000CFEFC80F20E030E0A901CB01B6010E94E7
:1005A000802E18168CF0C701B60190580E94F12ECB
:1005B0009B01AC016C2F70E090E080E0CF91FF9048
:1005C000EF90DF90CF90B2C0C701B6010E94EC2E31
:1005D0008C2FCF91FF90EF90DF90CF900C94B133A0
:1005E000CF91FF90EF90DF90CF9008950F931F93DE
:1005F0008B019C0183E036952795179507958A9581
:10060000D1F70D5C1C4F462F477021E030E0F90117
:1006100002C0EE0FFF1F4A95E2F7AF01F8012081FB
:100620002423CB010196211102C090E080E01F91AC
:100630000F9108950F931F938B019C0183E03695D2
:100640002795179507958A95D1F7677081E090E017
:1006500001C0880F6A95EAF7F801ED5CFC4F208134
:10066000452B31F48095822380831F910F9108954B
:10067000822BFACF2F923F924F925F926F927F928E
:100680008F929F92AF92BF92CF92DF92EF92FF92A2
:100690000F931F93CF93DF93D62EC72E782E692EFC
:1006A00049015A01280161E08D2D0E94EB34CD2DC6
:1006B000DC2D8E010F5F1F4FA8016D2D7C2D872D26
:1006C000962DB8DF20E030E0A901C201B7010E94F9
:1006D0007030181664F4C201B7010E94F12E2B018C
:1006E000C501B4010E94F12EA201CE0123D0C801A0
:1006F000DF91CF911F910F91FF90EF90DF90CF90FE
:10070000BF90AF909F908F907F906F905F904F9031
:100710003F902F900895882341F08150682F70E01A
:1007200090E080E050E040E085CF0895862FB90149
:100730000C94B1339C01FC01EC51FF4FE491E1506A
:10074000E231E0F4F0E08827E755FC4F8F4F0C943E
:100750002139BB03C203C503DC03F103BE03060456
:10076000120416042D04420457046E048304BE03CD
:100770009804AF04C40484B5806884BD60E0822F0F
:100780000C94273584B58062F8CF809180008C7FEF
:1007900082608093800080918100807E8061682BE0
:1007A0006093810050938700409386008091800081
:1007B000806880938000E2CF809180008C7F82608F
:1007C0008093800080918100807E8061682B60939F
:1007D0008100509387004093860080918000806262
:1007E000E8CF809180008C7F826080938000809130
:1007F0008100807E8061682B609381005093870028
:1008000040938600809180008860D3CF8091B000B3
:1008100080688093B0008091B100887F682B6093DE
:10082000B100ACCF8091B0008062F3CF8091900096
:100830008C7F82608093900080919100807E8061A7
:10084000682B60939100509397004093960080919D
:10085000900080688093900091CF809190008C7F71
:1008600082608093900080919100807E8061682BEF
:100870006093910050939700409396008091900070
:100880008062E8CF809190008C7F8260809390009E
:1008900080919100807E8061682B609391005093DD
:1008A000970040939600809190008860D3CF80910C
:1008B000A0008C7F82608093A0008091A100807E48
:1008C0008061682B6093A1005093A7004093A6001D
:1008D0008091A00080688093A00050CF8091A000FC
:1008E0008C7F82608093A0008091A100807E8061D7
:1008F000682B6093A1005093A7004093A6008091BD
:10090000A0008062E8CF8091A0008C7F82608093FD
:10091000A0008091A100807E8061682B6093A1007F
:100920005093A7004093A6008091A0008860D3CF89
:10093000809120018C7F8260809320018091210131
:10094000807E8061682B6093210150932701409342
:100950002601809120018068809320010FCF809133
:1009600020018C7F82608093200180912101807E14
:100970008061682B609321015093270140932601E9
:10098000809120018062E8CF809120018C7F82607D
:100990008093200180912101807E8061682B60938B
:1009A0002101509327014093260180912001886006
:1009B000D3CF611102C00C94EB346130E1F362E0FB
:1009C000FACF662319F061E00C94273560E0FCCF84
:1009D00090E080E008950F931F93009709F489C079
:1009E0006115710509F485C0009128021091290252
:1009F00020912A0230912B020E3F1F4F2F4F3F4F65
:100A000009F068C04FEF5FEFBA014093280250939E
:100A1000290260932A0270932B0240912802509180
:100A2000290260912A0270912B02DC011296ED914D
:100A3000FC9180819181A281B38180934A0490933B
:100A40004B04A0934C04B0934D0484819581A681FE
:100A5000B7818093460490934704A0934804B093D1
:100A6000490480859185A285B38580934204909343
:100A70004304A0934404B093450484859585A685DA
:100A8000B78580933E0490933F04A0934004B093B5
:100A9000410410923A0410923B0410923C041092CC
:100AA0003D040E947C1081EA90E190933D03809385
:100AB0003C0390933F0380933E030E946B0F00978B
:100AC00031F421E030E030934F0420934E041F9125
:100AD0000F910895009128021091290220912A0275
:100AE00030912B02DB010D931D932D933C931397B3
:100AF00094CF8FEF9FEFEBCF8F929F92AF92BF92E9
:100B0000CF92DF92EF92FF921F93CF93DF934B012F
:100B10005C011091510482E090E090934F04809327
:100B20004E0481149104A104B10441F48091510454
:100B3000811104C080915004C1E08111C0E0C12C3A
:100B4000D12C760180915104811106C0809150040E
:100B5000811102C0CC23D9F083E090E090934F0440
:100B600080934E04CC2381F1CCE9DFEF111102C058
:100B70000E940614CE01DF91CF911F91FF90EF905C
:100B8000DF90CF90BF90AF909F908F9008956AE0D4
:100B900070E080E090E00E94193380E1C80E87E2A7
:100BA000D81EE11CF11C8FEF88169806A806B8061F
:100BB00031F0C1E08C149D04AE04BF0408F0C0E025
:100BC00080E00E949F0FBECFD0E0C0E0CFCFCF9299
:100BD000DF92EF92FF920F931F93CF93DF938F3F9C
:100BE000910511F008F051C020914E0430914F044E
:100BF0002330310539F020914E0430914F042130DB
:100C0000310531F424E030E030934F0420934E045A
:100C10006A017B01EC0182309105A8F011E0AE0180
:100C2000C701B6010E946A0FAB01BC01CE011123BE
:100C3000F9F0DF91CF911F910F91FF90EF90DF902E
:100C4000CF900C942F168C01000F111F045C1C4FC9
:100C5000D8018D919C91892B09F30E943916029736
:100C6000E9F6D801ED91FC91CE011995182FD7CF57
:100C70000E94511690E080E0DF91CF911F910F917B
:100C8000FF90EF90DF90CF9008958FEF9FEFF4CF1C
:100C900080E00C949F0FCF93DF9386E090E09093D9
:100CA0004F0480934E040E94F80FEC01ECE3F3E054
:100CB00084E0DF011D928A95E9F70E949E1310924D
:100CC0004F0410924E04CE01DF91CF910895809190
:100CD0005004089580913904089560932802709318
:100CE000290280932A0290932B0290E080E00895DD
:100CF0002F923F924F925F926F927F928F929F922C
:100D0000AF92BF92CF92DF92EF92FF920F931F9319
:100D1000CF93DF93CDB7DEB72D970FB6F894DEBF34
:100D20000FBECDBFC0900802D0900902E0900A0229
:100D3000F0900B02A701960160912F0A7091300A82
:100D40008091310A9091320A0E94802E882341F0CE
:100D5000C0922F0AD092300AE092310AF092320A01
:100D600080912E0A811110922E0A68EB7AE0809110
:100D7000330AE3DBC0900C02D0900D02E0900E022B
:100D8000F0900F02A70196016091230A7091240A46
:100D90008091250A9091260A0E94802E882341F096
:100DA000C092230AD092240AE092250AF092260AE1
:100DB0008091220A81111092220A64EB7AE08091DC
:100DC000270ABBDB60911002709111028091120220
:100DD000909113020E941F2F20E030E040E05AE281
:100DE0000E9474306B017C016091B80A7091B90A5D
:100DF0008091BA0A9091BB0A0E941F2FA701960109
:100E00000E9474302B013C014092880A5092890A5A
:100E100060928A0A70928B0A6091B40A7091B50A46
:100E20008091B60A9091B70A0E941F2FA7019601E0
:100E30000E9474304B015C0180928C0A90928D0A62
:100E4000A0928E0AB0928F0A20911304309114045C
:100E50003A872987D901CD90DD90ED90FC902090C4
:100E6000640A3090650AB091660ABD87E091670A0E
:100E7000EB87A7019601B1018B2F9E2F0E94703046
:100E800087FD4DC2A70196016091700A7091710AA9
:100E90008091720A9091730A0E94703087FD3FC260
:100EA0001092900A1092910A1092920A1092930A4C
:100EB0001092940A1092950A1092960A1092970A2C
:100EC00000917C0A10917D0AE985FA85C080D18065
:100ED000E280F380D80114968D909D90AD90BC90E7
:100EE0001797A7019601C501B4010E94802E87FFC4
:100EF0008DC21092980A1092990A10929A0A109232
:100F00009B0A6091980A7091990A80919A0A90912F
:100F10009B0A60939C0A70939D0A80939E0A90930B
:100F20009F0A6093A00A7093A10A8093A20A9093EB
:100F3000A30A0091900A1091910A2091920A30918F
:100F4000930A0093A40A1093A50A2093A60A30934B
:100F5000A70A0091940A1091950A2091960A30915F
:100F6000970A0093A80A1093A90A2093AA0A30931B
:100F7000AB0A0E945A2F6B017C01A3D6811157C383
:100F8000C701B60159D6811152C320E030E040E8D4
:100F900057E4C701B6010E94742F6B017C0120E069
:100FA00030E0A9010E94802E87FF44C3C701B6012B
:100FB00090580E94F12EEE27FF27E61BF70BFA83CD
:100FC000E9838091B80A9091B90AA091BA0AB091C8
:100FD000BB0A8093AC0A9093AD0AA093AE0AB0937B
:100FE000AF0A8091B40A9091B50AA091B60AB09167
:100FF000B70A8093B00A9093B10AA093B20AB09353
:10100000B30A6CE070E080E090E0F0DA8C0190933D
:10101000530A8093520A6091180270911902298133
:101020003A816217730744F060911A0270911B02B3
:10103000621773070CF4B90177FF02C070E060E03B
:101040006F3F710519F014F06FEF70E0072E000C80
:10105000880B990B0E941F2FAB01BC01C8018FDACE
:1010600069E070E080E090E0C1DA8C0190934B0A77
:1010700080934A0A60911C0270911D0289819A81B5
:101080006817790744F060911E0270911F0268177B
:1010900079070CF4BC0177FF03C071956195710964
:1010A0006F3F710519F014F06FEF70E0072E000C20
:1010B000880B990B0E941F2FAB01BC01C8015FDA9E
:1010C0006BE070E080E090E091DA8C019093430A4D
:1010D0008093420A6091200270912102A981BA8115
:1010E0006A177B0744F060912202709123026A170D
:1010F0007B070CF4BD0177FF03C071956195710901
:101100006F3F710519F014F06FEF70E0072E000CBF
:10111000880B990B0E941F2FAB01BC01C8012FDA6D
:101120006AE070E080E090E061DA8C0190933B0A25
:1011300080933A0A6091240270912502E981FA8134
:101140006E177F0744F060912602709127026E1798
:101150007F070CF4BF0177FF02C070E060E06F3FD3
:10116000710519F014F06FEF70E0072E000C880B7A
:10117000990B0E941F2FAB01BC01C80100DA61E08E
:10118000809114029091150229813A818217930768
:1011900009F460E088E015DC61E08091160290912E
:1011A0001702A981BA818A179B0709F460E08DE0D4
:1011B00008DC8091640A9091650AA091660AB0915A
:1011C000670A89839A83AB83BC834090C40A50909A
:1011D000C50A6090C60A7090C70AA3019201BC01BB
:1011E000CD010E94802EE0911304F091140481112E
:1011F00028C280819181A281B3818093640A9093F7
:10120000650AA093660AB093670AE8E6FAE080915F
:10121000880A9091890AA0918A0AB0918B0A8083EA
:101220009183A283B38380918C0A90918D0AA091BF
:101230008E0AB0918F0A84839583A683B7834091E9
:10124000000450910104609102047091030490E045
:1012500080E0BDDC409108045091090460910A04CB
:1012600070910B0481E090E0B2DC60910004709119
:10127000010480910204909103046F5F7F4F8F4FB0
:101280009F4F609300047093010480930204909335
:101290000304A0911304B0911404BA83A9830E949B
:1012A0001D2F9B01AC016091040470910504809195
:1012B0000604909107040E947430E981FA816083EA
:1012C0007183828393838091080490910904A09193
:1012D0000A04B0910B040196A11DB11D809308046E
:1012E00090930904A0930A04B0930B042D960FB6B3
:1012F000F894DEBF0FBECDBFDF91CF911F910F914C
:10130000FF90EF90DF90CF90BF90AF909F908F9025
:101310007F906F905F904F903F902F900895009135
:10132000700A1091710AF091720AF9832091730A80
:101330002D8398014F2F5D81B1018D859B850E9482
:10134000802EA701960187FF11C0B80189819D8178
:101350000E94802E87FD52C081013D8539838B8597
:101360008D83A8E6BAE0BC87AB8710C0B1018D853C
:101370009B850E94703087FF46C08101BD85B9837F
:10138000EB85ED8328E63AE03C872B87980149817D
:101390005D81C701B6010E941B2E6B017C01EB85AC
:1013A000FC852081318142815381C301B2010E94B9
:1013B0001B2EA70196010E94842E6093900A7093C1
:1013C000910A8093920A9093930AAB85BC851496F8
:1013D0002D913D914D915C911797C501B4010E94EB
:1013E0001B2EA70196010E94842E6093940A70938D
:1013F000950A8093960A9093970A62CD84E79AE0C3
:101400009C878B87C3CFA4E7BAE0ADCFA701960135
:10141000F80160817181828193810E94703087FF21
:101420009CC0A7019601C501B4010E94802E181628
:101430000CF093C0A090860AB090870A4501880CF2
:10144000991C880C991C9801280D391D3A83298311
:10145000A7019601A981BA816D917D918D919C9191
:101460000E9470301816ECF0B4E08B0E911CF8015D
:10147000E80DF91DFA83E983E981FA81619171919F
:1014800081919191FA83E983A70196010E94802EB0
:101490001816DCF0BFEFAB1ABB0AEECFF1E0AF1AC3
:1014A000B10829813A81245031093A832983A7015F
:1014B0009601A981BA8114966D917D918D919C912F
:1014C00017970E94703018164CF320917E0A3091C5
:1014D0007F0A3E832D83B092870AA092860AAA0CC7
:1014E000BB1CAA0CBB1CF801EA0DFB1D40805180FF
:1014F00062807380150134E0230E311CF801E20D87
:10150000F31D80819181A281B38189839A83AB830A
:10151000BC839C01AD01C301B2010E94802E8111E8
:1015200028C0A3019201C701B6010E94802E87FF47
:1015300017C0AD81BE81AA0DBB1DBA83A9838D9151
:101540009D910D90BC91A02D8093980A9093990A3B
:10155000A0939A0AB0939B0AD4CCB12CA12CB5CFFE
:10156000ED81FE81E20DF31D80819181A281B38125
:10157000EBCF2D813E81A20EB31ED5018D909D90A3
:10158000AD90BC90220D331DD9018D919D910D9090
:10159000BC91A02D8D839E83AF83B8879C01AD0144
:1015A000C501B4010E94802E8823C1F1A7019601D4
:1015B00069817A818B819C810E941B2E6B017C0149
:1015C000A301920169817A818B819C810E941B2EEB
:1015D0009B01AC01C701B6010E94842E6B017C0106
:1015E000AC019B0160E070E080E89FE30E941B2E4D
:1015F0002D813E814F8158850E9474302B013C0122
:10160000A5019401C701B6010E9474309B01AC0191
:10161000C301B2010E941C2E4B015C018092980A0A
:101620009092990AA0929A0AB0929B0A6ACCC12C15
:10163000D12C7601C701B6010E94F12E7A8369830D
:10164000C0CC8090700A9090710AA090720AB090FD
:10165000730AC080D180E280F380A5019401C301A8
:10166000B2010E94802E81110BC0C092700AD092EC
:10167000710AE092720AF092730AE4E7FAE0C7CDC9
:10168000A501940169817A818B819C810E94802EC1
:1016900087FFEBCFC092640AD092650AE092660A97
:1016A000F092670AB2CD8F929F92AF92BF92DF9273
:1016B000EF92FF920F931F93CF93DF9384E090E01C
:1016C00084D2E6E6F3E080E194E097838683C3E189
:1016D000D4E0D093A703C093A60304E014E0158BD5
:1016E000048BF093D103E093D003F583E48321E0EE
:1016F00030E0DC012D933C9381E692E09387828772
:1017000025E134E03983288340E050E060E271E471
:1017100040930C0450930D0460930E0470930F04D7
:101720004DEC5CEC6CE47EE3D8014D935D936D93DE
:101730007C931397CEEED3E08AE999EAA9E3B5E466
:1017400088839983AA83BB838AE29FE2A7E1B6E1FB
:101750008093F2039093F303A093F403B093F50303
:1017600084EF9CE4A2E8B7ED8093F6039093F7032F
:10177000A093F803B093F90386E394E6A4E0B4EBF6
:101780008093FA039093FB03A093FC03B093FD03B3
:10179000AAE5B3E0B383A283E8E4F3E01196FC93F7
:1017A000EE9383E792E09183808393838283958392
:1017B00084839783868391878087938782879587A1
:1017C000848797878687918B808B8EEF93E0159621
:1017D0009C938E9314971396DC93CE93129717963F
:1017E0003C932E931697CCE1DAE080E092E0909360
:1017F0007D0A80937C0A80E493E090937F0A809333
:101800007E0A1092870A1092860A8091C40A9091EB
:10181000C50AA091C60AB091C70A8093640A909342
:10182000650AA093660AB093670A8093700A909342
:10183000710AA093720AB093730A1F8A1C8608E08B
:1018400012E0F80180819181A281B3818B8B9C8B06
:10185000AD8BBE8B812C912C540183948D869E86FA
:10186000AF86B88A43E35AE063E182E10E949401C3
:10187000DD24D394D98A1A8A8F890E94AF021B86ED
:101880001882F80184819581A681B7818F8398871A
:10189000A987BA8789829A82AB82BC8247E25AE0E2
:1018A00063E082E00E949401DD821E828B850E94AB
:1018B000AF0218AA89AA9AAAABAABCAAE12CF12C59
:1018C0008701A80197016CE070E080E090E00E9441
:1018D0003A039FAB8EABDDAA18A689A69AA6ABA643
:1018E000BCA6A801970169E070E080E090E00E944A
:1018F0003A039FA78EA7DDA618A289A29AA2ABA23F
:10190000BCA2A80197016BE070E080E090E00E942B
:101910003A039FA38EA3DDA2188E898E9A8EAB8E7A
:10192000BC8EA80197016AE070E080E090E00E9420
:101930003A039F8F8E8FDD8E10925C0A80925D0A33
:1019400090925E0AA0925F0AB092600A61E088E01D
:1019500030D8D092610A18AE89AE9AAEABAEBCAEAA
:1019600061E08DE026D8DDAEDF91CF911F910F9120
:10197000FF90EF90DF90BF90AF909F908F90089571
:101980008091280A811114C081E08093280A8091F7
:10199000290A90912A0AA0912B0AB0912C0A01974A
:1019A000A105B10529F480912D0A81110E94BC0284
:1019B00080911C0A811114C081E080931C0A8091DF
:1019C0001D0A90911E0AA0911F0AB091200A01974A
:1019D000A105B10529F48091210A81110E94BC0260
:1019E00080914C0A81112EC081E080934C0A809135
:1019F0004D0A90914E0AA0914F0AB091500A01975A
:101A0000A105B105F9F48091510A8823D9F06CE061
:101A100070E080E090E00E94F6029093530A809379
:101A2000520A40E050E0BA010E94BF026CE070E050
:101A300080E090E00E94F6029093530A8093520A4D
:101A40000E948B038091440A81112EC081E0809313
:101A5000440A8091450A9091460AA091470AB091A4
:101A6000480A0197A105B105F9F48091490A882334
:101A7000D9F069E070E080E090E00E94F602909377
:101A80004B0A80934A0A40E050E0BA010E94BF022C
:101A900069E070E080E090E00E94F60290934B0ACB
:101AA00080934A0A0E948B0380913C0A81112EC0C8
:101AB00081E080933C0A80913D0A90913E0AA0917A
:101AC0003F0AB091400A0197A105B105F9F4809150
:101AD000410A8823D9F06BE070E080E090E00E943A
:101AE000F6029093430A8093420A40E050E0BA0124
:101AF0000E94BF026BE070E080E090E00E94F6027E
:101B00009093430A8093420A0E948B038091340A87
:101B100081112EC081E08093340A8091350A909122
:101B2000360AA091370AB091380A0197A105B1058C
:101B3000F9F48091390A8823D9F06AE070E080E0F6
:101B400090E00E94F60290933B0A80933A0A40E0AC
:101B500050E0BA010E94BF026AE070E080E090E0CD
:101B60000E94F60290933B0A80933A0A0E948B03EC
:101B700080915C0A811103C081E080935C0A8091AE
:101B8000540A811103C081E08093540A089560E0F3
:101B900070E080E89FE7089560E070E080E89FE7EC
:101BA000089560E070E080E89FEF089560E070E0E5
:101BB00080E89FEF089560E070E080EC9FEF08956B
:101BC00060E070E080EC9FEF0895F5DF6093C80A55
:101BD0007093C90A8093CA0A9093CB0AF1DF60938D
:101BE000BC0A7093BD0A8093BE0A9093BF0ACFDFF0
:101BF0006093C40A7093C50A8093C60A9093C70A7B
:101C0000CBDF6093C00A7093C10A8093C20A90939D
:101C1000C30AC7DF6093CC0A7093CD0A8093CE0AC3
:101C20009093CF0AC3DF6093D00A7093D10A809358
:101C3000D20A9093D30A0895CF92DF92EF92FF9247
:101C4000CF936B017C01AC019B016091C40A709140
:101C5000C50A8091C60A9091C70A0E94802EC1E0F1
:101C6000882371F0A70196016091CC0A7091CD0A8A
:101C70008091CE0A9091CF0A0E94802E8111C0E0FF
:101C80008C2FCF91FF90EF90DF90CF9008950F931E
:101C90001F938B019C010027112720783F770115A6
:101CA000110520483F4749F4AB01BC016F77772706
:101CB00081E0452B462B472B09F480E01F910F91C3
:101CC0000895E5CF4F925F926F927F928F929F928D
:101CD000AF92BF92CF92DF92EF92FF920F931F933A
:101CE000F8944090290450902A0460902B0470903E
:101CF0002C04C0901D04D0901E04E0901F04F090AE
:101D000020044130510509F0A6C09B01AC01241903
:101D100035094609570929013A0100912504109116
:101D20002604209127043091280448015901840C8D
:101D3000951CA61CB71C80169106A206B306A0F43B
:101D40000091210410912204209123043091240455
:101D50000F5F1F4F2F4F3F4F00932104109322041A
:101D60002093230430932404809225049092260427
:101D7000A0922704B092280400912104109122041B
:101D8000209123043091240480922D0490922E04FB
:101D9000A0922F04B09230040093310410933204C7
:101DA00020933304309334046093290470932A04FD
:101DB00080932B0490932C04A301920160E47DE0B6
:101DC00083E090E00E94DC386C0D7D1D8E1D9F1D10
:101DD00060931D0470931E0480931F04909320044D
:101DE000009128021091290220912A0230912B02A1
:101DF0000F3F1F4F2F4F3F4FF1F0009128021091DE
:101E0000290220912A0230912B020E3F1F4F2F4FA3
:101E10003F4F89F0C0902802D0902902E0902A021A
:101E2000F0902B0221E08C149D04AE04BF0408F452
:101E300020E02093390478941F910F91FF90EF9048
:101E4000DF90CF90BF90AF909F908F907F906F90DA
:101E50005F904F9008954B015C0184189508A60887
:101E6000B708A3019201261B370B480B590B6415C9
:101E7000750586059705E0F082169306A406B5065B
:101E800040F420E030E0A90181149104A104B104E0
:101E9000A1F460E47DE083E090E00E94DC38A701DB
:101EA0009601261B370B480B590BCA01B901C3CF4A
:101EB00082169306A406B50660F7A501940160E4B6
:101EC0007DE083E090E00E94DC386C0D7D1D8E1D6E
:101ED0009F1DB1CFF7CECF93DF9300D01F92CDB728
:101EE000DEB71C821B821A8219821092350410926E
:101EF00036041092370410923804BE016F5F7F4F92
:101F0000CE0103960E94682C69817A818B819C8125
:101F10000E945625009761F4BE016F5F7F4FCE018E
:101F200003960E94742C69817A818B819C812FD5C4
:101F30000F900F900F900F90DF91CF910895FF9227
:101F40000F931F93CF93DF93082F60E070E0CB01D6
:101F50000E941933FF24F3940E943F24EC01892B43
:101F600089F010E0CE3F8FEFD80769F0002361F1D0
:101F700060E070E0CB010E94193381E090E0892B92
:101F800059F322C011E026D5EC01892B21F0CE3F78
:101F90008FEFD80759F711111EC011E0229609F4EE
:101FA00010E00E94EF23EC01892B21F0CE3F8FEF50
:101FB000D807E1F6111111C011E0CE3F8FEFD8071D
:101FC00009F410E001110BC0CE01DF91CF911F91F8
:101FD0000F91FF90089511E0E4CF11E0F3CF60E09E
:101FE00070E0CB010E9419331F25812F90E0C7CFED
:101FF000CF93DF9380913904882321F060E070E073
:10200000CB014DD636D6D0E0C0E0892B71F06AE026
:1020100070E080E090E00E94193381E090DF29D6E3
:102020002196C03D27E0D20781F728D60E94AA2535
:10203000109251041092500410924A0410924B04D2
:1020400010924C0410924D041092460410924704D2
:1020500010924804109249041092420410924304D2
:10206000109244041092450410923E0410923F04D2
:10207000109240041092410410923A0410923B04D2
:1020800010923C0410923D044EEF5FEF6FEF7FEF34
:10209000409328025093290260932A0270932B02E6
:1020A00010923904EDE2F4E028E0DF011D922A9558
:1020B000E9F71092290410922A0410922B0410922E
:1020C0002C041092250410922604109227041092DA
:1020D00028041092210410922204109223041092DA
:1020E000240410921D0410921E0410921F041092DA
:1020F0002004DF91CF91089510925D0410925E0448
:1021000010925F041092600410925C048091650448
:102110009091660490935B0480935A041092590442
:1021200010925804109254041092550410925604C0
:1021300010925704109262041092610490E080E0C3
:102140000895CF92DF92EF92FF920F931F93CF9358
:102150008C01019709F055C0209165043091660407
:1021600080915A0490915B044091650450916604FB
:1021700050935B0440935A042817390781F010925A
:10218000590410925804109254041092550410925D
:1021900056041092570410926204109261048091C8
:1021A000650490916604019761F5809161049091B6
:1021B0006204892B21F480912C02811112C080913C
:1021C0006104909162040197E1F48091540490912C
:1021D0005504A0915604B09157040197A105B1058B
:1021E00081F41092540410925504109256041092E7
:1021F000570410922C0282E090E090936204809346
:1022000061048091650490916604019709F01CC1F6
:1022100080917B0490917C048017910709F014C190
:102220008091770490917804A0917904B0917A0418
:10223000009709F409C12091760421110DC0409145
:102240007704509178046091790470917A04452B59
:10225000462B472B09F4F8C02091610430916204A9
:102260002230310509F0F0C0209158042111ECC052
:10227000FC01C080D180E280F38080915C048823DF
:1022800009F4D3C08091680490916904892B09F402
:10229000FEC0209168043091690481E0223031054C
:1022A00009F080E02091680430916904C1E0213098
:1022B000310549F02091680430916904C1E0223071
:1022C000310509F0C0E0882309F456C0209172045A
:1022D000309173044091740450917504C701B601A4
:1022E0000E94703087FD14C02091720430917304F5
:1022F000409174045091750460915D0470915E0486
:1023000080915F04909160040E94802E87FD22C01E
:1023100020917204309173044091740450917504BB
:10232000C701B6010E947030181634F5209172046E
:1023300030917304409174045091750460915D0470
:1023400070915E0480915F04909160040E94802EE1
:10235000811112C080916A0490916B04A0916C0469
:10236000B0916D04892B8A2B8B2B19F481E080931B
:10237000590481E080935804CC2309F456C020917D
:102380007204309173044091740450917504C70134
:10239000B6010E94802E87FF14C0209172043091F4
:1023A0007304409174045091750460915D047091C0
:1023B0005E0480915F04909160040E94703087FFFA
:1023C00022C02091720430917304409174045091A2
:1023D0007504C701B6010E94802E811126C020918C
:1023E00072043091730440917404509175046091AB
:1023F0005D0470915E0480915F04909160040E947E
:102400007030181694F480916A0490916B04A09136
:102410006C04B0916D04892B8A2B8B2B19F481E00D
:102420008093590481E08093580481E0909158048E
:10243000911180E080935C04C0925D04D0925E04B0
:10244000E0925F04F09260040130110509F067C169
:102450008091610490916204892BD9F410926704F1
:102460001092580480912C02882379F082E090E049
:10247000909362048093610410922C022091650471
:102480003091660481E0232BE9F080E01BC081E0FD
:1024900009CF10922C0280916704882349F0109292
:1024A0005904109262041092610410926704EDCFF7
:1024B0008091650490916604892BE1F08091580425
:1024C0001092580420916104309162042230310549
:1024D00009F45EC088F42115310509F448C02130A3
:1024E000310509F4F3C01092590410925804109267
:1024F000670438C081E0E6CF2330310509F4B1C06C
:102500002430310581F74091540450915504609175
:10251000560470915704411551056105710561F02C
:102520004150510961097109409354045093550475
:10253000609356047093570440915404509155048D
:102540006091560470915704452B462B472BD9F4C4
:1025500020916304309164042130310509F046C0B4
:102560001092590410926204109261040CC0809180
:102570002C02882341F082E090E0909362048093E3
:10258000610410922C021092520480915904CEC022
:102590008823C9F380916A0490916B04A0916C0424
:1025A000B0916D04181619061A061B060CF07DC0B2
:1025B0008091650490916604019709F076C080913E
:1025C0006A0490916B04A0916C04B0916D048093A7
:1025D000540490935504A0935604B093570483E099
:1025E00090E09093620480936104CDCF40916E049B
:1025F00050916F046091700470917104452B462BCB
:10260000472BA9F01092590480916E0490916F04A9
:10261000A0917004B0917104809354049093550478
:10262000A0935604B093570481E090E0DACF88235A
:1026300099F080912D0290912E02A0912F02B091DD
:1026400030028093540490935504A0935604B093A1
:10265000570484E090E0C5CF1092590482E090E0E6
:10266000C0CF8091540490915504A0915604B0912C
:1026700057040097A105B10559F00197A109B109C7
:102680008093540490935504A0935604B093570438
:102690008091540490915504A0915604B091570430
:1026A000892B8A2B8B2B09F06ECF80912D02909174
:1026B0002E02A0912F02B0913002892B8A2B8B2BF6
:1026C00009F44ECF81E080935904B3CF4091540474
:1026D000509155046091560470915704411551056D
:1026E0006105710561F0415051096109710940931B
:1026F00054045093550460935604709357044091CA
:102700005404509155046091560470915704452B20
:10271000462B472B09F037CF8111C7CF9FCF809130
:102720005204882309F431CF80915304CF911F9133
:102730000F91FF90EF90DF90CF90089510925D047D
:1027400010925E0410925F041092600410925C0478
:10275000109262041092610410925B0410925A0469
:1027600010927C0410927B04109259041092580429
:10277000109254041092550410925604109257046B
:10278000109253041092520410927704109278041D
:102790001092790410927A041092760410927204C6
:1027A00010927304109274041092750488EE93E0F2
:1027B000A0E0B0E080932D0290932E02A0932F0210
:1027C000B093300210926E0410926F041092700455
:1027D0001092710410926A0410926B0410926C04AF
:1027E00010926D04109269041092680481E0809345
:1027F0002C021092670410926604109265041092E5
:1028000064041092630490E080E008958091650470
:1028100090916604892B19F580912C02882351F040
:1028200080916704811106C081E0809353048093F6
:10283000520408952091670430912C0281E090E0C9
:10284000332311F090E080E030E082239323892B42
:1028500021F01092530481E0EACF109252040895BF
:1028600082E090E0FA01918380838FEF9FEF0895DB
:10287000CF93DF93EA01009711F00E94CA261982D4
:10288000188290E080E0DF91CF910895DB010097FE
:1028900019F48FEF8C9308952EEF2C93FC013F9643
:1028A000EF30F10508F034C08827E65AFB4E8F4F11
:1028B0000C94213986148414821480147E147A14A2
:1028C0007C1478147614741471146D1469146F14D4
:1028D000881480E311968C93089589E2FBCF82E2FD
:1028E000F9CF11961C92089583E2F4CF81E2F2CFE2
:1028F00081E1F0CF87E2EECF8AE2ECCF80E1EACF50
:1029000084E2E8CF88E2E6CF86E2E4CF81E3E2CF5B
:1029100080E2E0CF8091890490918A040895909399
:102920008A04809389040895809188040895909181
:102930008804892B809388040895982F909580911E
:1029400088048923809388040895809187040895DA
:10295000809185049091860408956115710559F060
:10296000FB0130E020E070E060E02417350719F04B
:102970006115710511F0CB010895A081B181A817EF
:10298000B90709F4BF012F5F3F4F3696EECF809114
:102990008B0481111CC060D266D290937E04809318
:1029A0007D040E94C81E0E94DA1E909382048093C8
:1029B00081040E9457230E945E2390938004809399
:1029C0007F0481E080938B0490E080E0089584EFA1
:1029D0009FEF08958F929F92AF92BF92CF92DF9216
:1029E000EF92FF920F931F93CF93DF9300D000D00D
:1029F00000D01F92CDB7DEB71A86198618861F82BF
:102A00001E821D821C821B821A82198280918B0475
:102A100007EF1FEF882309F49CC08E010D5F1F4F45
:102A20009E012B5F3F4FAE01495F5F4FBE01675F65
:102A30007F4F90E080E00E94DB248C01009721F022
:102A40000596029708F0DBC029853A8521153105E6
:102A500009F402C1ED80FE804B815C81B701640FF7
:102A6000751F8F8198858617970708F4F5C0E20EC9
:102A7000F31ED7019C91903C09F07FC04230510574
:102A800008F47BC011968C914091890450918A047E
:102A9000452B09F49CC0913F08F071C02CE1290F2F
:102AA0002D3008F48BC02DE2290F203108F489C0A5
:102AB000903C21F48150823008F483C088E3890F70
:102AC0008B3008F481C096E4C92E94E1D92EE0E35E
:102AD000F4E16D817E81AE014F5F5F4F89859A85FC
:102AE00019955C01C114D104A1F189809A808114E7
:102AF000910479F18B819C818815990508F487C030
:102B000010E000E04B815C8170E060E0C7010E9452
:102B10004B3901151105E9F449815A8169857A8596
:102B20008D819E81680F791FC501F6011995E98095
:102B3000FA800D811E812F81388549855A856FEF76
:102B40007FEF81E090E00E9476248C01892B09F0D0
:102B500056C0C8012A960FB6F894DEBF0FBECDBF8F
:102B6000DF91CF911F910F91FF90EF90DF90CF9069
:102B7000BF90AF909F908F90089580E085CF30E018
:102B800020E0220F331FF901E358FB4F0190F08141
:102B9000E02D309709F497CF892F90E01995009791
:102BA00009F491CFDC011296ED91FC9113971496E4
:102BB000CD90DC90309709F08CCF1FC021E030E041
:102BC000E0CF22E030E0DDCF23E030E0DACFD12CDF
:102BD000C12CE8E3F4E19F3F09F07BCFE0917D0455
:102BE000F0917E04309721F4C90104EF1FEF0CC06F
:102BF0008FEF90E019950097A9F604EF1FEF8985F4
:102C00009A85009709F4A5CF0E94CA26A2CF0E94F8
:102C1000A5258C0189859A850E94CA2670E060E00E
:102C2000C4010E943E2598878F830E9473249E834F
:102C30008D836F8178856115710559F0C8010E94F7
:102C400056289A87898706EF1FEF892B09F058CFFE
:102C500059CF08EF1FEF56CF08EF1FEFD0CF2091CD
:102C60008B04222319F020E00C94DF1E87EF9FEFE6
:102C700008958091890490918A0408950E946323A5
:102C80000E94BD22F5D0EDE7F4E088E0DF011D925F
:102C90008A95E9F710928B0490E080E008950C94F7
:102CA0001B2121E040E050E0BA010C94DF1E86E0D9
:102CB00090E0FA019183808390E080E0089547E0FE
:102CC00050E066E772E049CEDF92EF92FF920F93F9
:102CD0001F93CF93DF938A01EC01C60FD71FE090BB
:102CE0008F04F0909004D9800E948D25D816190683
:102CF00078F082E090E0F801918380838EEF9FEF7F
:102D0000DF91CF911F910F91FF90EF90DF90089589
:102D1000EF2841F482E090E0F8019183808384EF12
:102D20009FEFEECF898180938E0490E00196F801A9
:102D30009183808390E080E0E3CFCF93DF93EA013B
:102D40000E94CC21882321F00E949A250E94CD2147
:102D500082E090E0998388838BEF9FEFDF91CF91A2
:102D60000895CF93DF93EB0186E0FB0111928A95E2
:102D7000E9F78FEF8883D8DD8983E7DD8A83E8DD93
:102D80009D838C83DF91CF910895CF93DF93EA01E8
:102D90000E94CF21811109C082E090E0998388834D
:102DA00085EF9FEFDF91CF91089590E080E0B7DD50
:102DB00081E090E09983888390E080E0F3CF0F93E7
:102DC0001F93CF93DF93EA018C01060F171F0E9418
:102DD000CF2181110BC082E090E09983888385EF39
:102DE0009FEFDF91CF911F910F910895F80181819D
:102DF000823038F082E090E0998388838EEF9FEFF5
:102E0000F0CF81E090E08BDD88E090E099838883CB
:102E100090E080E0E6CFCF93DF930097D1F4EB0111
:102E2000FB01329686E0DF011D928A95E9F78FEF6C
:102E3000888385E089831A820E948D258B830E9476
:102E40008C259D838C8381E08E838F83DF91CF914E
:102E50000895DF91CF911ACD8FE596E190938D047F
:102E600080938C04089580918C0490918D04089532
:102E700010928D0410928C04089580918F0490918B
:102E800090040895411105C06115710581059105F2
:102E900061F060938F0470939004809391049093F9
:102EA00092044093930481E0089580E00895FF9296
:102EB0000F931F93CF93DF938A01EC01C60FD71FA7
:102EC000F9800E948D25F816190668F082E090E0DE
:102ED000F801918380838EEF9FEFDF91CF911F9157
:102EE0000F91FF9008956C817D818E819F814B8130
:102EF000C9DF811108C082E090E0F80191838083EE
:102F000084EF9FEFEACF898180938E0490E0019651
:102F1000F8019183808390E080E0DFCFCF93DF934F
:102F2000EA01FC01E60FF71F6481758186819781B4
:102F30004381A8DF811109C082E090E099838883F2
:102F400084EF9FEFDF91CF91089581E090E0998326
:102F5000888390E080E0F6CFEFE8F4E04081518193
:102F600062817381480F511D611D711D4083518322
:102F7000628373830895CF93C0918E044C2F50E0E9
:102F800060918F047091900401960E9442398C2FB9
:102F9000E3DF10928E04CF910895009799F4809109
:102FA0008F04909190042FEFFB012083892B59F01F
:102FB00020918E0430E02F5F3F4F2417350719F41E
:102FC000CB01D9CF63CC0895009799F480918F04F9
:102FD000909190042FEFFB012083892B59F02091D1
:102FE0008E0430E02F5F3F4F2417350719F4CB01D3
:102FF000C2CF4CCC089523E1AC01249FC001259F92
:10300000900D1124E0919804F0919904E80FF91FB4
:10301000238134812250310981E02230310508F0CA
:1030200080E008950F931F93CF93DF9300919A044C
:1030300010919B04D0E0C0E080E00C171D0749F41C
:1030400091E0811190E0892FDF91CF911F910F9135
:1030500008958111F5CFCE01CEDF2196EECFA0915C
:103060009804B0919904109729F120919A04309115
:103070009B0482179307F0F453E1589F9001599FE6
:10308000300D1124A20FB31FED91FC9111973097D1
:1030900089F012968C91681768F48DE0689FE00DB6
:1030A000F11D112480819181892B21F081E0928191
:1030B000491708F080E008959C0143E1429FC00158
:1030C000439F900D1124E0919804F0919904E80F2A
:1030D000F91F8385823091F481E090E065817681EB
:1030E00040913102509132026417750711F490E05B
:1030F00080E0892B19F081E0232B09F080E008950E
:10310000FC01A081B1818DE0689FA00DB11D11244B
:1031100013964D915C9185859685489F9001499FB6
:10312000300D589F300D1124C9010196611103C063
:10313000478144FD04960895EF92FF920F931F93E9
:10314000CF93DF93EA01FC01E60FF71F02811381A1
:10315000E480F5804F2D6E2DC80181DF81110DC0F7
:1031600082E090E0998388838EEF9FEFDF91CF918B
:103170001F910F91FF90EF900895C8013CDF8823C5
:1031800039F082E090E09983888388EF9FEFEECF5B
:103190001093380200933702E0923902F0923A021B
:1031A00081E090E09983888390E080E0DFCFCF9248
:1031B000DF92EF92FF920F931F93CF93DF937A01E9
:1031C000EC01C60FD71FC0903702D0903802009193
:1031D000390210913A02412F602FC60140DF811160
:1031E00010C082E090E0F701918380838AEF9FEF27
:1031F000DF91CF911F910F91FF90EF90DF90CF90D3
:103200000895C601F8DE882341F082E090E0F701DE
:103210009183808388EF9FEFEBCF4C815D816E813E
:103220007F819A8189818F3F41F082E090E0F701B0
:10323000918380838EEF9FEFDBCFE3E1EC9D9001E4
:10324000ED9D300D1124E0919804F0919904E20F66
:10325000F31F0190F081E02D2DE0029FE00DF11DA4
:1032600011240190F081E02D27E0129FE00DF11D67
:103270001124808391838B8182834383548365836C
:1032800076831F5F10933A0281E090E0F70191830B
:10329000808390E080E0ACCFEF92FF920F931F937A
:1032A000CF93DF937A018C01060F171FC09198040A
:1032B000D0919904209781F021E030E0F8018281DB
:1032C000938140919A0450919B048417950710F0C4
:1032D00030E020E0232B71F482E090E0F70191834D
:1032E00080838EEF9FEFDF91CF911F910F91FF9021
:1032F000EF90089543E1489F9001499F300D1124BC
:10330000C20FD31F78DE882341F082E090E0F701FE
:103310009183808388EF9FEFE6CFF8012481358188
:1033200020383105C8F687818111D6CF4181842F9D
:1033300090E08F7E009741F082E090E0F70191836A
:10334000808386EF9FEFCFCF4F833E832D832681EF
:1033500028871986223010F421E0288721E030E008
:10336000F70131832083BFCF88E090E0FA01918399
:10337000808390E080E00895FB018FEF808381E1FE
:1033800081838FEF9FEF9383828380E890E0958322
:103390008483168217820895FB018FEF808391E06A
:1033A000918382839383848384E3858381E090E0A7
:1033B000978386830895DF92EF92FF920F931F9376
:1033C000CF93DF93EA01FC01E60FF71F8181813083
:1033D00071F082E090E0998388838FEF9FEFDF9117
:1033E000CF911F910F91FF90EF90DF900895828110
:1033F0009381D4802581E680F78000919804109114
:1034000099040115110539F482E090E099838883CD
:103410008CEF9FEFE4CF40919A0450919B04841766
:10342000950738F082E090E0998388838EEF9FEFD4
:10343000D6CF892B39F082E090E09983888386EF9C
:103440009FEFCDCF8D2D8D7FB1F72130A1F781E09A
:10345000D11006C091E0E916F10431F080E004C01B
:10346000E2E0EE16F104D0F3882329F390E080E047
:10347000C2DD882339F082E090E09983888388EF69
:103480009FEFADCFF801D38681E08487F686E5868D
:10349000108A178681E090E09983888390E080E02D
:1034A0009ECF4CE050E060EA72E057CA8F929F9244
:1034B000BF92CF92DF92EF92FF920F931F93CF9321
:1034C000DF93EA01FC01E60FF71F828193810481FB
:1034D000B580E0919804F0919904309791F482E0DE
:1034E00090E0998388838CEF9FEFDF91CF911F91BC
:1034F0000F91FF90EF90DF90CF90BF909F908F90B3
:10350000089520919A0430919B048217930738F014
:1035100082E090E0998388838EEF9FEFE6CF23E1EE
:10352000289F6001299FD00C1124EC0DFD1DE08027
:10353000F180E114F10499F28281081748F78DE0D7
:10354000089F80011124E00EF11EF7018081918116
:10355000892B29F6BB20E1F2F7E0BF9E4001112440
:10356000C4010E949126F70191838083E091980421
:10357000F0919904EC0DFD1D0190F081E02DE00F1C
:10358000F11F80819181009739F482E090E0998366
:1035900088838DEF9FEFA9CFA40170E060E00E94C7
:1035A0004B398091980490919904C80ED91EF60168
:1035B00080819181080F191FF801B28281E090E0AB
:1035C0009983888390E080E090CFAF92BF92CF92B2
:1035D000DF92FF920F931F93CF93DF93EA01FC01D9
:1035E000E60FF71F82819381F48000919804109177
:1035F00099040115110581F482E090E09983888394
:103600008CEF9FEFDF91CF911F910F91FF90DF9093
:10361000CF90BF90AF90089520919A0430919B0471
:103620008217930738F082E090E0998388838EEFC9
:103630009FEFE8CF2FEF2F0D2C3FA8F723E1289F16
:103640006001299FD00C11240C0D1D1DF8018081F3
:103650009181892B89F6FDE0FF9E50011124C5015F
:103660000E949126F80191838083E0919804F09163
:103670009904EC0DFD1D80819181009739F482E061
:1036800090E0998388838DEF9FEFBCCFA50170E018
:1036900060E00E944B39E0919804F0919904EC0DA0
:1036A000FD1DF28281E090E09983888390E080E0C4
:1036B000A9CFCF92DF92EF92FF920F931F93CF93F8
:1036C000DF93860F971FFC0102811381809198047C
:1036D00090919904892B81F082E090E0FA01918326
:1036E00080838CEF9FEFDF91CF911F910F91FF901F
:1036F000EF90DF90CF900895C801B0E0A0E001976F
:10370000A109B1098F3F9F4FA105B10540F082E0AB
:1037100090E0FA01918380838EEF9FEFE4CF7A01EE
:1037200083E1809F6001819FD00C1124C6010E941B
:103730009126EC01009741F482E090E0F70191833B
:1037400080838DEF9FEFCFCFA60170E060E00E94F5
:103750004B39D0939904C093980410939B04009321
:103760009A0490E080E02FEF3FEF41E061E070E0ED
:103770008017910741F481E090E0F7019183808305
:1037800090E080E0B0CF3A8B298B1B864C877E87F8
:103790006D87188A1F8601966396EACFEF92FF9293
:1037A0001F93CF93DF93EC0110E0F12CE12C6A81A1
:1037B0001617B0F083E0689FB0011124AE014F5E90
:1037C0005F4FC7010E94F626009721F02FEF3FEFD1
:1037D0003A8B298BDF91CF911F91FF90EF90089545
:1037E000612FCE018DDC61E070E00E943E25E8167D
:1037F000F90608F47C011F5FDACFF8942091960453
:103800003091970481E02115310509F080E0232BE8
:1038100009F0789408952F923F924F925F926F92A1
:103820007F928F929F92AF92BF92CF92DF92EF9250
:10383000FF920F931F93CF93DF933C01660E771E89
:10384000F301828193814C01B12CA12CC091980489
:10385000D0919904209769F021E030E060919A04BA
:1038600070919B048617970710F030E020E0232B1F
:10387000D1F482E090E0FA01918380838EEF9FEF94
:10388000DF91CF911F910F91FF90EF90DF90CF903C
:10389000BF90AF909F908F907F906F905F904F9070
:1038A0003F902F90089580923B0290923C02A0920C
:1038B0003D02B0923E0263E1689F9001699F300D26
:1038C0001124C20FD31FF3018181833040F082E0C5
:1038D00090E0FA019183808386EF9FEFD1CF2A0198
:1038E0002B813C81232BF1F4288139819F8191FF29
:1038F0002EC0232B09F46FC020919D049A81422F82
:10390000490F5527551FBA0141E050E06138710554
:1039100014F050E040E0452B09F45DC02A87920F77
:1039200090939D048150823008F481C066DF882323
:1039300009F4D8C0F3018181813009F48DC008F405
:103940007BC0823009F4C6C090E080E0ADC0232B7C
:1039500009F441C020919C049A81E22FE90FFF27CE
:10396000FF1F41E050E0ED3FF10514F050E040E072
:10397000452B89F12A87920F90939C04D3CFA08185
:10398000B181A20FB31F11966C91060F111D019604
:10399000295F3F4F8417950794F38D859E85089F77
:1039A0001001099F300C189F300C1124C114D10450
:1039B000D1F48F8184FF17C00E948C25F5E02F0E73
:1039C000311C21E08215930508F420E0A701435F34
:1039D0005F4F21110EC082E090E0F201918380835D
:1039E00087EF9FEF4DCF0E948C252FEF221A320ACE
:1039F000E8CF88819981E80EF91EF70114830383CB
:103A0000FFEFCF1ADF0A7A018A818C151D0409F0B5
:103A10000CF48CCFE881F981EE0DFF1D428150E05E
:103A200030E020E010E000E090E080E0B3CFF12C47
:103A3000E12CD12CC12CE8CF81E090E09C838B83DA
:103A4000F1DA882309F480CF81E090E00E948F149E
:103A500080E40E949D1478CF89899A89019661F04B
:103A600083E090E09C838B8382E090E00E948F143F
:103A700080E40E94971468CF8D819E81209131024D
:103A80003091320282179307D1F460913502709120
:103A90003602AE014F5E5F4F809133029091340247
:103AA0000E9415280097E1F2789422E030E0F201BC
:103AB00031832083892B99F08DEF9FEFE1CE892808
:103AC0008A288B2869F6029758F6CE0167DE188A95
:103AD0001F86E8CF82E090E09C838B8335CF90E017
:103AE00080E0CECE82E090E0F2019183808385EF8A
:103AF0009FEFC6CE8F929F92AF92BF92CF92DF92EE
:103B0000EF92FF920F931F93CF93DF93EA018C0103
:103B1000060F171FF8018181833098F082E090E052
:103B20009983888386EF9FEFDF91CF911F910F914B
:103B3000FF90EF90DF90CF90BF90AF909F908F90CD
:103B400008958091980490919904892B61F081E007
:103B500090E020919A0430919B04232B11F490E083
:103B600080E0892B39F482E090E0998388838EEF9E
:103B70009FEFDACF42DE882309F4E0C0F8018181AB
:103B8000813009F496C0E8F0823099F420919A04CB
:103B900030919B04E0919804F091990490E080E0CA
:103BA00041E050E02817390709F0BEC03BDA811127
:103BB00017C0789481E090E09983888390E080E05A
:103BC000B3CF20919A0430919B04E0919804F09136
:103BD000990490E080E041E050E02817390741F473
:103BE00081E090E00E948F1480E40E949D14E1CF58
:103BF00063817481672B11F054834383019673961C
:103C0000ECCFE0919804F0919904E00FF11F23812B
:103C1000348122303105D9F4218932892F3F3F4F39
:103C2000B1F425813681409131025091320224173E
:103C3000350761F5AF014F5E5F4F609135027091BE
:103C4000360280913302909134020E941528EFEFE2
:103C5000CE1ADE0AEE0AFE0A0D5E1F4F40919A044C
:103C600050919B0470E060E0C416D506E606F706A6
:103C700044F5009731F27894892B09F49BCF82E0C8
:103C800090E0998388838DEF9FEF4ECFC114D104CC
:103C9000E104F104E1F622303105C8F6CF017EDD02
:103CA000E0919804F0919904E00FF11F108A1786B3
:103CB000CECF10E000E090E080E0C12CD12C760166
:103CC000CDCF0097C1F610E000E0812C912C54017B
:103CD00083E0E82EF12C1AC0E0919804F091990449
:103CE000E00FF11F83819481029749F4F482E3820B
:103CF00082E090E00E948F1480E40E949714FFEF0E
:103D00008F1A9F0AAF0ABF0A0D5E1F4F80919A0457
:103D100090919B04B0E0A0E088169906AA06BB0625
:103D2000DCF290E080E0A7CF63817481623071059E
:103D300011F4548343830196739634CF82E090E06C
:103D40009983888385EF9FEFEFCE0097B9F48FEFCB
:103D5000FB01808320913B0230913C0243E1429F72
:103D6000C001439F900D1124E0919804F0919904B3
:103D7000E80FF91F8285FB01818308950C94461496
:103D800088E090E0FA019183808390E080E00895DC
:103D90001092970410929604E8E9F4E086E0DF01BF
:103DA0001D928A95E9F781E59AE1909395048093B5
:103DB00094040895809194049091950408952F920D
:103DC0003F924F925F926F927F928F929F92AF92AB
:103DD000BF92CF92DF92EF92FF920F931F93CF93F8
:103DE000DF93CDB7DEB72F970FB6F894DEBF0FBEC7
:103DF000CDBFF894E0919604F09197043196F0933A
:103E00009704E09396047894409098045090990415
:103E10004114510409F40CC2E0919A04F0919B04FE
:103E2000EF2B09F405C22D8749875A876B877C875A
:103E300098878F831201B12CA12C10E000E08091B3
:103E40009A0490919B04A816B90618F4011511055F
:103E500029F1F8948091960490919704019790939A
:103E60009704809396047894C8012F960FB6F8941F
:103E7000DEBF0FBECDBFDF91CF911F910F91FF909D
:103E8000EF90DF90CF90BF90AF909F908F907F90FA
:103E90006F905F904F903F902F9008957101E418BC
:103EA000F508D10117968C91179781FD54C0139690
:103EB0008D919C911497039709F04DC015968D91A3
:103EC0009C91EF81F8858E179F0709F044C0B501DA
:103ED00090E080E07FD48A83209198043091990407
:103EE0003D832C833D85332309F44CC04C815D8197
:103EF000452B09F49AC180919A0490919B04A816CD
:103F0000B90608F092C1C501D7D88823E9F06C81C1
:103F10007D816E0D7F1D7D836C83DB011F968D91EE
:103F20009C91892B89F0D12CC12CF12CE12CAC81F6
:103F3000BD8112968C9112978E151F0409F094F48E
:103F400050961C921E921F972A81222321F0B501C0
:103F500090E080E041D43FEFA31AB30A43E1240E7E
:103F6000311C6DCFAC81BD81ED91FC91EC0DFD1D3F
:103F7000858196810FD7BFEFEB1AFB0AEDE0CE0EDD
:103F8000D11CD5CFEC81FD81309709F44EC18091D1
:103F90009A0490919B04A816B90608F046C1EE0D4C
:103FA000FF1DFF87EE87C50187D88B83882339F1F2
:103FB000AE85BF851F968D919C915097019621E00B
:103FC0001D964D915C918417950709F020E02E8392
:103FD0001982712C10E000E0AE85BF8512968C919D
:103FE000781608F45DC0EE85FF8587859089019677
:103FF000658576850E94EB38908B8787A5CFB1E0E9
:10400000BE83E6CF992493946BC08BD6F60196833A
:10401000858382C0D601ED90FC90B7E06B9EE00CEA
:10402000F11C1124F7016381748180818F3F61F15C
:1040300021E030E002C0220F331F8A95E2F7C90168
:10404000092E000CAA0BBB0BFB0140815181628140
:10405000738184239523A623B72321E0892B8A2B00
:104060008B2B09F420E0D4012C93D70111968C916D
:10407000F60123853485820F932F911D880E991E9A
:104080001486138663949BC0418150E0C4010E9452
:104090004239EBCF998206EF1FEFC5C01982C3C02A
:1040A000F981F111A0CFEDE07E9E70011124AE8563
:1040B000BF85CD90DC90CE0CDF1C15D49D838C8306
:1040C000BB81BB2309F49ECF81E0EE85FF85278568
:1040D0003089232B09F080E0982E882309F458C0FA
:1040E000672D8E859F850CD8D60118969C938E934C
:1040F000179761E070E0C2D4EE85FF85218932898F
:104100002F3F320709F481CFBC01C901CFD7D601B7
:1041100016969C938E931597D60115968D919C912A
:104120001697009709F4B6CFEC81FD818E0F9F1F83
:104130001A969C938E931997AE85BF85ED91FC914D
:104140001197EE0EFF1EF701218532851486138626
:104150001A968C91870DD9018D93711016C0EE853A
:10416000FF85878184FF11C049855A856B857C85D1
:10417000F9014183528363837483F70183859485B6
:104180000496A80FB91F14861386F701B287A1877A
:10419000D60115968D919C911697892B09F443C0F1
:1041A000EE85FF8525813681809131029091320222
:1041B0002817390779F019968D909C90612CD601BB
:1041C00012968C911297681608F424CF1A969C9236
:1041D0008E921997BE81BB2309F460CF61E070E035
:1041E000F601878190854AD4D6011796ED90FC9010
:1041F000189715964D915C91E1E0F0E0BA81BB23F0
:1042000011F0F0E0E0E00C811D819C01B5018827F0
:1042100099278E1B9F0B6AD38C01892B21F0F60105
:1042200085819681B7D57394D7CE0FEF1FEF8CCED3
:1042300010E000E00ECE2F923F924F925F926F926D
:104240007F928F929F92AF92BF92CF92DF92EF9226
:10425000FF920F931F93CF93DF93809198049091D7
:10426000990410E000E0892BA9F0C7DA0AEF1FEFEC
:10427000882381F020909A0430909B04C091980488
:10428000D0919904D12CC12C10E000E02C143D04F5
:10429000A9F47894C801DF91CF911F910F91FF90FD
:1042A000EF90DF90CF90BF90AF909F908F907F90D6
:1042B0006F905F904F903F902F900895C6010E949D
:1042C0005C18882309F18B819C810397E9F48F8521
:1042D0009889892BC9F0B60190E080E07BD221E07B
:1042E00030E0882311F030E020E044245524421AC5
:1042F000530AB12CA12C912C812C8A818815190488
:1043000009F038F4188A1F864FEFC41AD40A63964E
:10431000BDCFE881F981EA0DFB1D85819681892B4E
:10432000A1F161E070E087819085A8D33C01DBD2E8
:104330008C01E881F981EA0DFB1D8185928525813B
:104340003681200F311FAC01421B530B9A0147816C
:104350005085421B530B70E060E00E944B39E881AE
:10436000F981EA0DFB1DE780F084458156819301B8
:10437000B601C201BBD28C01892B39F0E881F981E9
:10438000EA0DFB1D8581968105D55FEF851A950A9B
:104390008DE0A80EB11CB1CF30CA789408952F9249
:1043A0003F924F925F926F927F929F92AF92BF9295
:1043B000CF92DF92EF92FF920F931F93CF93DF93F1
:1043C00000D000D0CDB7DEB70091980410919904C9
:1043D000992493940115110509F43EC0A0909A0404
:1043E000B0909B040ADA982E8823B1F110929904B8
:1043F0001092980410929B0410929A0410929C04BC
:1044000010929D048FEF9FEFDC0180933B0290930D
:104410003C02A0933D02B0933E0278947FD31E836A
:104420000D83C12CD12C7601C501B0E0A0E08983B9
:104430009A83AB83BC8322242A94322C89819A816B
:10444000AB81BC81C816D906EA06FB06F4F0C801A8
:10445000A1D480E40E949D14892D26960FB6F8946D
:10446000DEBF0FBECDBFDF91CF911F910F91FF90A7
:10447000EF90DF90CF90BF90AF909F907F906F9024
:104480005F904F903F902F900895AD81BE8115961B
:104490008D919C91169720913102309132028217B2
:1044A0009307D1F451968D919C91EED5ED81FE81CB
:1044B00080819181B12CA12C412C512C3201892B6E
:1044C00089F5BFEFCB1ADB0AEB0AFB0AED81FE810F
:1044D0007396FE83ED83B2CFC114D104E104F104DD
:1044E00029F7029718F7ED81FE81818992898F3F24
:1044F000980709F029D5AD81BE8152963C922E9243
:104500005197D4CF8A0D9B1DDC018D919C91009712
:1045100009F040D4BFEF4B1A5B0A6B0A7B0AEDE04F
:10452000AE0EB11CAD81BE818D919C9111971296FA
:104530004C9150E070E060E0441655066606770640
:104540000CF328D4BECFCF93DF93EA0128DF81118B
:1045500009C082E090E09983888385EF9FEFDF9127
:10456000CF91089581E090E00E948F1481E090E067
:104570009983888390E080E0F2CF11DF1092950458
:1045800010929404089542E050E068EE72E00C94BA
:10459000AD14FF920F931F93CF93DF938A01EC0129
:1045A000C60FD71FF980B9D20897F816190671F00F
:1045B00068F082E090E0F801918380838EEF9FEFB6
:1045C000DF91CF911F910F91FF9008956C817D81B4
:1045D0008E819F814B810E944217811108C082E029
:1045E00090E0F8019183808384EF9FEFE9CFF98019
:1045F0000E943D174F2D50E0BE01685F7F4F0E9423
:10460000423989810E94AC1781E090E0F8019183E2
:10461000808390E080E0D4CFDF92EF92FF920F93FF
:104620001F93CF93DF938A01EC01C60FD71F0E941F
:104630003D177C01D98071D2DD2059F0029721E02D
:1046400030E0D816190619F010F030E020E0232BE6
:1046500079F482E090E0F801918380838EEF9FEF00
:10466000DF91CF911F910F91FF90EF90DF90089510
:10467000EF2841F482E090E0F8019183808384EF99
:104680009FEFEECFF9800E943D174F2D50E0BE0105
:104690006E5F7F4F0E94423989810E94AC1781E092
:1046A00090E0F8019183808390E080E0D9CF83ECA3
:1046B00092E290939F0480939E04089580919E04BB
:1046C00090919F0408950895FC01118210829383B4
:1046D00082830895DB011D921C92DC011296ED91FC
:1046E000FC9113977183608313967C936E9312975A
:1046F0000895FC0180819181DB018D939C93A081C1
:10470000B181109741F08D919C9191838083892B89
:1047100011F4F383E2830895FC0180819181DB0130
:104720008D939C93892B11F47383628371836083CF
:104730000895FC0111821082938382830895CF93A0
:10474000DF931F921F92CDB7DEB71A821982F894B9
:10475000BE016F5F7F4F85EA94E0CBDF89819A814C
:10476000009709F017D389819A81892B89F7BE01B7
:104770006F5F7F4F89EA94E0BCDF89819A8100975F
:1047800009F008D389819A81892B89F778940F9051
:104790000F90DF91CF910895CF93DF931F921F92D7
:1047A000CDB7DEB71A821982F894BE016F5F7F4FD2
:1047B00081EA94E09EDF89819A81009709F0EAD22C
:1047C00089819A81892B89F778940F900F90DF91D6
:1047D000CF91089581E0089590E080E00895EF92F0
:1047E000FF920F931F93CF93DF931F921F92CDB72A
:1047F000DEB71A8219828091A00407EF1FEF882389
:10480000A1F1F894BE016F5F7F4F89EA94E071DFF8
:10481000789489819A81EE24E394F12C892B51F4C8
:10482000F894BE016F5F7F4F85EA94E062DF789471
:10483000F12CE12C89819A810EEF1FEF0097A9F0EE
:10484000FC014281538164E070E076D68C01892BB3
:1048500061F0F89469817A81C701880F991F880FE8
:10486000991F8B559B4F58DF7894C8010F900F907C
:10487000DF91CF911F910F91FF90EF9008950F93CB
:104880001F93CF93DF9300D01F92CDB7DEB71C826A
:104890001B821A8219828091A00407EF1FEF8823E0
:1048A000C1F0AE014D5F5F4F64E070E0CE01019654
:1048B000B6D68C01892B69F4E981FA818B819C81C0
:1048C00093838283F89469817A8181EA94E002DF9C
:1048D0007894C8010F900F900F900F90DF91CF91B7
:1048E0001F910F910895BBD7049608958F929F92C0
:1048F000AF92BF92CF92DF92EF92FF920F931F93EE
:10490000CF93DF931F921F92CDB7DEB71A82198221
:10491000BC016F5F7F4F6330710598F0AA24AA94A1
:10492000BA2CC5010F900F90DF91CF911F910F917D
:10493000FF90EF90DF90CF90BF90AF909F908F90BF
:1049400008954115510551F3480159018A016C013F
:10495000CADF8815990511F7E114F104F9F28E0DFB
:104960009F1DA816B906D0F28091A0048823F1F00B
:10497000F894B501645071099701AE014F5F5F4F24
:10498000C8010496E1D65C01892B71F489819A8172
:10499000F80193838283C601880F991F880F991F9E
:1049A000B8018B559B4F96DE7894BBCF87EFA82E2E
:1049B000BB24BA94B6CFAF92BF92CF92DF92EF9260
:1049C000FF920F931F93CF93DF931F921F92CDB748
:1049D000DEB71A821982892B09F047C0611571056B
:1049E00009F443C04115510509F43FC021153105B3
:1049F00009F43BC001151105C1F18091A004882381
:104A0000B9F179016A015B01F894BE016F5F7F4FD4
:104A100081EA94E06EDE789489819A81009759F159
:104A2000DC0112966D917C91A8010496A6D68C01AA
:104A3000E981FA81D501ED93FC93828193810496FB
:104A4000F601918380834FDFD7018D939C93C8013A
:104A50000F900F90DF91CF911F910F91FF90EF90EA
:104A6000DF90CF90BF90AF9008950FEF1FEFEFCF83
:104A700007EF1FEFECCF0EEF1FEFE9CFCF93DF93E0
:104A8000EC01672B71F4F4D68C179D0760F0E7D624
:104A90002496C80FD91FE6D68C0F9D1FDF91CF91AA
:104AA0000895E3D6F1CF90E080E0F8CF0F931F9305
:104AB000CF93DF932091A00421112BC08B01EC0137
:104AC00085EA94E001DE89EA94E0FEDD81EA94E083
:104AD000FBDD97D00097C1F4CBD670E060E0CEDF6D
:104AE0004FE352E062E070E081D1009769F4809179
:104AF0003F0290914002CED6B801CE0103D5009777
:104B000019F421E02093A004DF91CF911F910F9120
:104B1000089584EF9FEFF8CFA8C6AAC6CF93DF937E
:104B2000AAD6EC01892B11F40ADE36DECE01DF9124
:104B3000CF910895CF93DF939ED6EC01892B09F492
:104B4000FEDDCE01DF91CF91089580913F029091DB
:104B500040020895CF93DF938091A004D0E0C0E09D
:104B60008823D1F09CD6EC01892BB1F4E8DD14DE6A
:104B700080913F0290914002E7D1E8D2EC01892B6D
:104B800059F485EA94E0D5DD89EA94E0D2DD81EA42
:104B900094E0CFDD1092A004CE01DF91CF91089573
:104BA000EF92FF920F931F93CF93DF93EC017A0163
:104BB0008B010F5F1F4F0E9DA0010F9D500D1E9D7D
:104BC000500D112470E060E00E944B3990E080E0CD
:104BD000F0E0E0E02FEFE816F90639F4DF91CF912D
:104BE0001F910F91FF90EF9008951A8219822883E8
:104BF000309711F0D283C1830196FE01C00FD11FFF
:104C0000EACFCF92DF92EF92FF920F931F93CF9351
:104C1000DF9302ED16E00C7F43E050E061E472E0C8
:104C200087E492E01CD481E4E82E82E0F82E97E439
:104C3000C92E92E0D92EC1E6D7E0D7014D915D9102
:104C40007D01F601619171916F01198308835D8384
:104C50004C835B834A837F836E839B012F5F3F4F2F
:104C6000249FC001259F900D349F900D112499879A
:104C700088870115110511F0C80192DF8885998593
:104C8000080F191F2A96F7E4EF16F2E0FF06A9F6BF
:104C9000EFEAF4E080E292E0DF019C011D922150F6
:104CA0003040E1F71092AE041092AD0410928007EC
:104CB00010927F0710928407109283071092820748
:104CC000109281071092860710928507109288072C
:104CD0001092870710928A071092890710928E0708
:104CE00010928D0710928C0710928B0710929007EC
:104CF00010928F07109292071092910710925E0700
:104D000010925D071092600710925F0790E080E0BC
:104D1000DF91CF911F910F91FF90EF90DF90CF9097
:104D200008950097F1F0F894A7E4B2E0E1E6F7E027
:104D300030E020E04D915D9148175907A8F042817D
:104D400053814115510581F08AE0829FF001839FD4
:104D5000F00D1124EF59F84F80819181009759F49B
:104D6000789490E080E008952F5F3F4F3A9623308B
:104D7000310501F7F5CFDC0111966D917C917183BE
:104D800060834150510953834283FC012193CF0139
:104D900078940895009749F1DC018E91853041F4B3
:104DA000E0915F07F09160073097F9F0CD01199419
:104DB0008530D8F4282F30E0F8948FEF8C938AE078
:104DC000829FF001839FF00D1124EF59F84F8081ED
:104DD000918112969C938E931197B183A0838281C7
:104DE000938101969383828378940895CF92DF9282
:104DF000EF92FF920F931F93CF93DF939C0182EB6F
:104E000094E08C7F4115510509F49BC021153105B3
:104E100009F497C06115710509F493C07A01AB01DB
:104E2000B9016D5F7F4F6C7F9B012F5F3F4F249FC8
:104E30008001259F100D349F100D1124F8942091AE
:104E40007F0730918007232B59F4209187073091F9
:104E500088072115310569F12017310708F058C07E
:104E60002091890730918A07232B91F4209187079D
:104E700030918807820F931F2091910730919207FC
:104E80002115310509F441C02017310708F056C03B
:104E90007894CFEFDFEF86EF9FEFF701D183C083E8
:104EA000DF91CF911F910F91FF90EF90DF90CF9006
:104EB0000895C3E0D0E0C090AD04D090AE042DE1E1
:104EC00032E02C193D092017310710F32AE02C9FFE
:104ED000F0012D9FF00D1124EF59F84F918380833D
:104EE0005583448353834283778366831187008786
:104EF000009709F055DE0C0D1D1D1093AE040093B4
:104F0000AD04789490E080E0C8CFC4E0D0E0D3CF87
:104F1000C3E0D0E02AE02C9FF0012D9FF00D11247A
:104F2000EF59F84F918380835583448353834283A1
:104F300077836683009729F333DEE3CFC4E0D0E0C4
:104F4000E9CF8FEF9FEFACCF9C010397029708F05A
:104F500069C0F89484E09AE0482F50E024173507A0
:104F60000CF44DC091E08AE0829FF001839FF00D28
:104F70001124EF59F84F1182108215821482138286
:104F80001282178216829923B1F180917F07909146
:104F90008007892BA9F42091870730918807211574
:104FA000310571F08091AD049091AE04821B930B9A
:104FB0009093AE048093AD041092880710928707F7
:104FC0008091890790918A07892BA9F420919107F4
:104FD000309192072115310571F08091AD049091C7
:104FE000AE04821B930B9093AE048093AD04109299
:104FF000920710929107789490E080E00895949F32
:10500000F001959FF00D1124EF59F84F4081518127
:10501000452B31F440855185452B11F481509CCFAF
:1050200090E0A1CF8FEF9FEF08954115510549F111
:10503000009739F16115710521F1F89420915D0710
:1050400030915E07232BB9F420915F073091600700
:10505000232B89F490935E0780935D07709360071C
:1050600060935F07789425E030E090E080E0FA01FB
:1050700031832083089578942FEF3FEF86EF9FEFE1
:10508000F6CF8FEF9FEF0895059769F4F89410928B
:105090005E0710925D071092600710925F07789488
:1050A00090E080E008958FEF9FEF089561157105FE
:1050B00019F4F0E0E0E011C08530910581F4E09151
:1050C0005D07F0915E073097A1F3CB01019619952A
:1050D000009779F3FC0185E08193CF0108959C014D
:1050E000235031092230310520F72AE0289FD001D2
:1050F000299FB00D1124AF59B84F2D913C911197B4
:10510000232BB9F216962D913C9117972617370746
:1051100080F2F89412962D913C9113972115310548
:1051200029F0ED91FC911197309711F47894C1CF4B
:105130004181528111965C934E932150310913960F
:105140003C932E93129781937894C7CFEFECF6E0BF
:105150008EE8DF011D928A95E9F7EFEAF4E080E23C
:1051600092E0DF019C011D9221503040E1F7109246
:10517000AE041092AD04E1E6F7E082E3DF011D9298
:105180008A95E9F7EDE5F7E084E0DF011D928A9565
:10519000E9F790E080E00895CF93DF93C0914D024E
:1051A000D0914E02CF3FDC0759F423D490934E02A6
:1051B00080934D0297FF09C0D0934E02C0934D02D9
:1051C00084EF9FEFDF91CF91089590E080E0FACFD8
:1051D0008230910528F48093930790E080E0089551
:1051E0008FEF9FEF08954F925F926F927F92AF92F1
:1051F000BF92CF92DF92EF92FF920F931F93CF93C4
:10520000DF931F921F92CDB7DEB71A8219820097E3
:1052100009F479C06115710509F475C020914D023A
:1052200030914E0207EF1FEF2F3F3F4F09F445C06B
:105230006B015C01412C512C3201F12CE12C10E06E
:1052400000E09E012F5F3F4FA6014E195F09B50197
:105250006E0D7F1D80914D0290914E022ED4892BB0
:1052600009F04BC089819A81009741F4E114F1045F
:1052700029F420919307222309F442C0E80EF91E75
:10528000EC14FD04D0F480E8481684E858068EE15A
:105290006806710420F560E070E0CB010E941933CC
:1052A0002AE0420E511C611C711C0A3F4FEF14078B
:1052B00021F0043F8FEF1807A1F4C8010F900F9061
:1052C000DF91CF911F910F91FF90EF90DF90CF90E2
:1052D000BF90AF907F906F905F904F90089501EFD7
:1052E0001FEF81E090E0013F2FEF120711F090E0F7
:1052F00080E0892B09F4A5CFE0CF04EF1FEFDDCFCD
:105300000AEF1FEFDACF0FEF1FEFD7CF4F925F9269
:105310006F927F92AF92BF92CF92DF92EF92FF9205
:105320000F931F93CF93DF931F921F92CDB7DEB7DA
:105330001A821982009709F479C06115710509F480
:1053400075C020914D0230914E0207EF1FEF2F3FA5
:105350003F4F09F445C06B015C01412C512C3201D7
:10536000F12CE12C10E000E09E012F5F3F4FA601E1
:105370004E195F09B5016E0D7F1D80914D02909110
:105380004E024ED3892B09F04BC089819A81009738
:1053900041F4E114F10429F420919307222309F444
:1053A00042C0E80EF91EEC14FD04D0F480E4481667
:1053B00082E458068FE06806710420F560E070E032
:1053C000CB010E9419332AE0420E511C611C711C52
:1053D0000E3F4FEF140721F0043F8FEF1807A1F4A1
:1053E000C8010F900F90DF91CF911F910F91FF9007
:1053F000EF90DF90CF90BF90AF907F906F905F90D5
:105400004F90089502EF1FEF81E090E0023F2FEFF1
:10541000120711F090E080E0892B09F4A5CFE0CFCE
:1054200004EF1FEFDDCF0EEF1FEFDACF0FEF1FEF0F
:10543000D7CF80914D0290914E028F3F980749F04F
:10544000D0D2892B49F48FEF9FEF90934E02809337
:105450004D0290E080E0089584EF9FEF0895CF9291
:10546000DF92EF92FF920F931F93CF93DF9321E090
:105470004115510509F020E04150510921112CC07E
:10548000DC01FB01D12CC12C21E022C03FEFC31A6B
:10549000D30A7D010D911D91E701EA80FB80E016A2
:1054A000F106A8F420813181E280F380F182E0826C
:1054B00033832283ED90FC9011979D012250310996
:1054C000E901F982E88211961C930E9320E032964E
:1054D000C416D506D8F2D2CFDF91CF911F910F918C
:1054E000FF90EF90DF90CF900895FC01680F791F37
:1054F00090E080E0E617F70709F408952191820F04
:10550000911DF8CF20919407211113C045DE00971B
:1055100091F410929A07109299071092980710929E
:105520009707109296071092950721E02093940711
:10553000089584EF9FEF0895AF92BF92CF92DF92CC
:10554000EF92FF920F931F93CF93DF93009709F48D
:1055500060C04630510508F45CC020919407C7EF45
:10556000DFEF222309F449C08C01060F171FF80151
:10557000C080D180C114D10409F44EC096012A5FC5
:105580003F4F4217530708F447C07C0180919907A9
:1055900090919A0793838283B6016C5F7F4F580185
:1055A000A60EB71EC801A1DFF5019183808364E0D8
:1055B00070E0C80118DEEC01892BF9F481E090E07D
:1055C00007DEB601C80104960EDEEC01892B91F4CA
:1055D00062E070E0C50107DEEC01892B59F4C701D8
:1055E000D9DB8091990790919A07019690939A0739
:1055F0008093990790E080E0EBDDCE01DF91CF91C1
:105600001F910F91FF90EF90DF90CF90BF90AF90E0
:105610000895CFEFDFEFF1CFC9EFDFEFEECF6F925D
:105620007F928F929F92AF92BF92CF92DF92EF9232
:10563000FF920F931F93CF93DF9300D01F92CDB7AC
:10564000DEB7009709F47AC04115510509F476C018
:105650002091940707EF1FEF222309F44DC03A0170
:105660007B015C0164E070E0CE0101964FDE8C01AD
:10567000892B09F041C009811A810115110509F42E
:105680005AC0480186E0880E911CB701680D791D4B
:1056900080914F029091500209DD6C01009709F44E
:1056A00050C0A70170E060E00E944B3989819A8167
:1056B000AB81BC81EC0CFD1CF70181939193A1930C
:1056C000B1937F0181E090E083DDB801C7011EDE68
:1056D000892B31F562E070E0C701800F911F16DE63
:1056E0008C01892BE9F490E080E072DDF501D18234
:1056F000C082F30191828082C8010F900F900F90B9
:105700000F90DF91CF911F910F91FF90EF90DF905D
:10571000CF90BF90AF909F908F907F906F900895A3
:1057200090E080E055DDF50111821082F3011182D5
:105730001082C6012FDB09EF1FEFDECF0FEF1FEF47
:10574000DBCF06EF1FEFD8CF0097A1F04115510531
:1057500089F02115310571F0F90136966E177F0732
:1057600048F0DC012D933C93DA01ED93FC9390E03B
:1057700080E008958FEF9FEF0895AF92BF92CF9290
:10578000DF92EF92FF920F931F93CF93DF930097D7
:1057900009F45FC04115510509F45BC0653071051E
:1057A00008F457C020919407C7EFDFEF222391F14F
:1057B000DC01CD90DC9011971296ED91FC91960151
:1057C0002A5F3F4FC9EFDFEF2617370719F5C09162
:1057D0009507D0919607209749F521E030E0309366
:1057E0009607209395077A018C01F0939807E09330
:1057F00097075601B4E0AB0EB11CB50176DE0A0D79
:105800001B1DF801208131818217930729F5D701EB
:10581000CD92DC92CE01DF91CF911F910F91FF903D
:10582000EF90DF90CF90BF90AF90089520919707B1
:10583000309198072F5F3F4FCCEFDFEFE217F30770
:1058400090F2CBEFDFEF2E173F0768F2D0E0C0E019
:10585000CACFCFEFDFEFDECFC3EFDFEFDBCF84E0E8
:1058600090E0089582E090E008958CEF9FEF089516
:1058700080E290E0089510929A0710929907109292
:10588000980710929707109296071092950790E04C
:1058900080E008959093500280934F020895809184
:1058A0009407882391F0C5DD009789F410929A0738
:1058B00010929907109298071092970710929607E6
:1058C0001092950710929407089590E080E0089553
:1058D000009749F06115710531F0FC0111821082C9
:1058E000FB01118210820895F3CF26E030E040E8FA
:1058F00055E260E070E090E080E000C0813091050A
:1059000071F01CF4892B39F008958230910551F023
:10591000039759F0089588EA97E00C941E3685E4C1
:1059200098E0FBCF82EE98E0F8CF8FE799E0F5CFD3
:105930001F920F920FB60F9211240BB60F922F9356
:105940003F934F935F936F937F938F939F93AF9307
:10595000BF93EF93FF938BEC93EF9093250180938C
:105960002401BFD0FF91EF91BF91AF919F918F9193
:105970007F916F915F914F913F912F910F900BBE4F
:105980000F900FBE0F901F9018958BEC93EF909394
:10599000250180932401A3E7B0E08C918E7F8C9346
:1059A000E0E2F1E080818C7F8083E1E2F1E08081C0
:1059B000877E808380818560808380818D7F8083E6
:1059C0008C9181608C930895E3E7F0E08081908171
:1059D0009E7F90838170089581E0089510929B07C7
:1059E000089568EE73E080E090E023D690E080E0D8
:1059F000089526E030E040E050E16EE070E090E095
:105A000080E07CDF88EA97E00E945435892B29F0FA
:105A100088EA97E00E946E35F5CF90E080E0089527
:105A2000CF92DF92EF92FF920F931F93CF93DF936A
:105A30006B017A01E9011982188288EA97E00E94D5
:105A40005435892B79F18601CC24C39482E0D82E79
:105A500080919B07811111C088EA97E00E946E3502
:105A60000297B1F7C0929B07F801D1928F0188810C
:105A70009981019699838883EBCF888199818E15CE
:105A80009F0580F488EA97E00E946E358F3F980763
:105A9000A1F3F80181938F018881998101969983FF
:105AA0008883EBCF90E080E0DF91CF911F910F9141
:105AB000FF90EF90DF90CF9008950F931F93CF93B7
:105AC000DF93EA01890188EA97E00E94AE38F80185
:105AD000D183C08390E080E0DF91CF911F910F913F
